:100E000087314C2FFF3FFF3F7E1487312100911E19
:100E1000102F2000911E102FAC31052487314A2F4E
:100E20002100941E1A2F2000941E1A2FAB31EA23A2
:100E300087314A2F2100931C242F2000931C242F3C
:100E4000A0315F2087314A2F2100111C2E2F200056
:100E5000111C2E2FAA31482287314A2F2100911CC4
:100E6000382F2000911C382F9031002087314A2FD5
:100E70002100111E422F2000111E422FA031002000
:100E800087314A2F2100141E4A2F2000141E4A2F9A
:100E9000983100207E10090087314E2FFF30E0008E
:100EA0002100EF0022000830DD00DE00DF00E0005E
:100EB000E100E200FF30E30047308400223085008B
:100EC000A930FE000130FF00AC312C2487314B30BB
:100ED000F001F101F201F301F401F50184000030A9
:100EE00085001530FE00FF01AC312C248731D8304D
:100EF0008400003085001730FE00FF01AC312C2447
:100F0000873120308400013085003D30FE00FF0134
:100F1000AC312C248731A03084000130850048306A
:100F2000FE00FF01AC312C248731203084000230D8
:100F300085005030FE000030FF01AC312C247E10C3
:100F40002000883102282000AE0127008C1CAB2F26
:100F50002000AE01AE0A27008C1DB12F2000AE018B
:100F6000AE0A2200901DB72F2000AE01AE0A22006B
:100F7000901CBD2F2000AE01AE0A2200101EC32F10
:100F80002000AE01AE0A2200901EC92F2000AE0143
:100F9000AE0A20002E080319EE2F02302200A80707
:100FA0000318A90A003029029630031928020318F1
:100FB000DC2F9630A800A90123302902283003191C
:100FC0002802031CEC2F2830A8002330A900EC2FA6
:100FD0000130A8020030A93B8C1408002200280828
:100FE0002904031DE82F8C100800A331C72BA3315F
:100FF000D52BA331E42BA431082CA431272CFF3F9F
:10100000FF3FFF3FCA012527883122000E116430BF
:101010002000AE00AF0114210B178B179931DB2193
:10102000883199317D2188319D31B1258831053054
:101030003A2688312100EF00F4302000AE00013064
:10104000AF0014218831F4302000AE000130AF0031
:101050001421883163303A2688312100EF00FA30BC
:101060002000AE00AF011421883101303A268831CA
:101070002100EF00F4302000AE000130AF00142159
:101080008831F4302000AE000130AF0014218831E7
:1010900063303A2688312100EF00FA302000AE009C
:1010A000AF011421883106303A2688312100EF0043
:1010B000F4302000AE000130AF0014218831F4304C
:1010C0002000AE000130AF001421883124303A26D0
:1010D00088312100EF00F4302000AE000130AF0075
:1010E00014218831F4302000AE000130AF0014210B
:1010F00015309731C62788313A2688312100EF0014
:10110000F4302000AE000130AF0014218831F430FB
:101110002000AE000130AF001421883163303A2640
:1011200088312100EF00FA302000AE00AF01142119
:10113000AC309731C62788313A2688312100EF003C
:10114000F4302000AE000130AF0014218831F430BB
:101150002000AE000130AF001421883120000C1CAB
:10116000CA2824303A2688312100EF00F4302000CC
:10117000AE000130AF0014218831F4302000AE0001
:101180000130AF00142188318B1321001615961001
:101190000000010063303A2688312100EF00023060
:1011A000C22288312100ED19D82830218831D22877
:1011B000ED1120004A08031DFB2822005813AD3111
:1011C000D125883130218831003A031DF1282100D2
:1011D00066080319F12866089B31492388312100EC
:1011E000E60121006D1C042920000130CA01CA0A51
:1011F000C22288310429220000305817C222003A46
:10120000031DCA0121006D10AE31CD268831302179
:101210008731A32788313021AB31642388313021D5
:10122000993170218831D528B101B2013208803A54
:10123000B0002F08803A3002031D20292E08310209
:101240000318080003302000B0009730890B2629CE
:10125000B00B262900322000B10A0319B20A162960
:101260002200E501E50AB52A740803194729A231CD
:10127000B92288313A082200B30020003908220040
:10128000B200751D47292100EF172200C90A730813
:1012900003194C299226883175132200E501BF2AD3
:1012A00014309731C62788312200E4009B30860035
:1012B000233087004431010864060319AA29330842
:1012C0002000BA00220032082000B900A131E62136
:1012D00088313A082200B100200039082200B0000D
:1012E0009B30860023308700623042310106031DA7
:1012F00097292830B8000A30B9009B308600233087
:101300008700033046310106031D8A299830B80052
:101310003A30B9009B3086002330870008304631D0
:101320000106031DA8293030B8007530A7299B306D
:101330008600233087003D3042310106031DA42979
:101340008830B8001330A729E830B8000330B9005E
:10135000C801AC29C801C80AC90ABF2A330820003D
:10136000C700220032082000C60093313C23883198
:1013700047082200B300200046082200B200AE0158
:10138000AF01AC01AD01AC29320833040319EA29DD
:1013900074080319EA29CC2688312200E600463079
:1013A0002000C8002330C90022002E082000480772
:1013B000860022002F082000493D870001082200F6
:1013C0006606031DF5160130B2020030B33BAE0ACB
:1013D0000319AF0A480BEF29B001B101152A3008F3
:1013E00031040319152A73080319152A9226883126
:1013F0002200E6009C302000C8002230C9002200F4
:101400002C0820004807860022002D082000493DB6
:101410008700010822006606031D75170130B0021F
:101420000030B13BAC0A0319AD0A32083304031D86
:10143000272A30083104031D272A3908AB00380851
:10144000AA004230890B222A00322200C90AF51A6A
:101450002B2A751FBF2A06309F2A480B302A2B2AB9
:101460009B308600233087004431010A03193F2A4C
:1014700014309731C6278831013A03198B2A22008C
:101480002A082B040319872A0E15730803197C2ACE
:101490002000111E722A0D3023001A06031D662A31
:1014A00092268831C80046308600233087004808DD
:1014B00081001B3A031D6E2A1A302000C800F83044
:1014C000890B602AC80B602A00006E2A9226C80089
:1014D000463086002330870048088100013097316C
:1014E000F327883122003908AB003808AA000430FD
:1014F0008E06000022008E060130AA020030AB3BAF
:101500002130890B812A0000053022009F2A0630F5
:10151000C9000E11BF2AA3319B2388312B2A7408DE
:1015200003199E2ACC2688312200E6004630860028
:101530002330870066080106031D75170430C900B3
:10154000BF2AF51DA42AF511751EA72A7512F51AD2
:10155000AB2A751FAD2AF51275137511C901E50186
:101560002100EF13BF2AC901BF2A490884000730B0
:1015700004020318B32AA8310435C83E82002200B1
:10158000650808002000C200C1018B13420803193E
:10159000CB2A2200C301023020004206031DAA2DDF
:1015A000D901AA2D1430BA00BB011E30F000F101A0
:1015B000EF3020006006031DEB2AC53022009005A5
:1015C000F53027008C052200C10175102200C001F2
:1015D0002200C30A1C2EFE30972D14303A26883183
:1015E0002100EF001430F000F101E62A2000600F26
:1015F000022BD90A59085C020318002BD901D90A19
:101600003230972D70087104031D1C2E5908AD2629
:101610008831D9005908031D0F2BFE30102B643080
:101620002200C300CD30A72D9B2BDF3020006006A9
:10163000031D2B2B8C302200BA00BB0163303A26ED
:1016400088312100EF002200F030C101C10AC3003F
:101650003E30C2001C2EEF306006031D392B1430C3
:101660002200BA00BB0163303A2688312100EF0026
:10167000E62A00001C2E2000D90A59085C02031833
:10168000CA2BD901D90ACA2B2000600F1C2E333077
:10169000972D200059083A2688312100EF003D306F
:1016A000972DDF3020006006031D662B14302200CA
:1016B000BA00BB0163303A2688312100EF002200D6
:1016C00041080319232BF530C101272BEF306006A9
:1016D000031D392B14302200BA00BB0163303A26B7
:1016E00088312100EF00EB2A200059083A26883182
:1016F0002100EF002000600F1C2E4F2B0C303A26EB
:1017000088312100EF002000600F1C2E0A303A269D
:1017100088312100EF000530F000F101E82A602C4B
:1017200070087104031D1C2E63303A268831210095
:10173000EF007830972D2000CA2BDF3020006006A4
:10174000031DBB2BCD302200BA00BB0163303A260B
:1017500088312100EF002200C101C10A21006C1371
:101760002000D701D80121006C17EC17A03022000F
:10177000C200F030982DEF306006031D392BCD30BC
:101780002200BA00BB016330CB2B20005908AD26E4
:101790008831D90059083A2688312100EF00E82A1B
:1017A0002000600F1C2E7930972D20005F081E3E10
:1017B000182C20005F081E3E3A2688312100EF00D9
:1017C000DF3020006006031DF82B21006C13EC13A2
:1017D000CD302200BA00BB0163303A2688312100A7
:1017E000EF002200C101C30A4308C200F530982D62
:1017F000EF306006031D0B2C21006C13EC13CD3071
:101800002200BA00BB0163303A2688312100EF0084
:101810002200FE30472C00000730200058023B30E9
:1018200003195702031C1C2E2200B430472C26300B
:101830003A2688312100EF002000600F1C2EE82A94
:10184000DF3020006006031D322CCD302200BA00AC
:10185000BB0163303A2688312100EF002200C1012C
:10186000C10AB32BEF306006031D392B21006C1326
:10187000EC13CD302200BA00BB0105303A26883186
:101880002100EF000530F000F1012200C830C10155
:10189000F52B70087104031D1C2E0F30872BEF30C1
:1018A000200060060319E82ADF3060060319E82AE1
:1018B0001C2E8B2C70087104031D1C2E0130872BED
:1018C00070087104031D1C2E1230872B70087104E0
:1018D000031D1C2EA5309731C62788312000C30078
:1018E0000130C0005908FF3E890A772CC035890BAA
:1018F000762C4008FF3AC3054308B400A5309D315B
:101900005E25883163303A2688312100EF000130AE
:10191000F000F101EB2A70087104031D1C2E862BC8
:1019200070087104031D1C2E1730872B700871047A
:10193000031D1C2E0E30872B70087104031D192DFA
:101940000A302000B400B5015808B7005708B600A7
:10195000D82788313508D8003408D700003058021D
:10196000F53003195702031CB82CF430D700D80106
:10197000A5309731C62788312000C3000130C00050
:101980005908FF3E890AC52CC035890BC42C400874
:10199000C3044308B400A5309D315E258831FA2C7C
:1019A0005708B400A6309D315E258831072D5708B1
:1019B000B400A7309D315E258831072D5708B4004B
:1019C000A8309D315E258831072D5708B400A93015
:1019D0009D315E258831072D5708B400AA309D310E
:1019E0005E258831072D5708B400AB309D315E2548
:1019F0008831072D5908FF3E031C072D840006304F
:101A000004020318072DAA310435ED3E820022009E
:101A10005708031D132DA03114208831B400A430C1
:101A20009D315E2588319D31B1258831FE302200FF
:101A3000C30058161C2E27008C143B2D27008C1534
:101A40003B2D220090153B2D220090143B2D2200AF
:101A500010163B2D220090163B2D20005908FF3E0A
:101A6000031C3B2D84000630040203183B2DAC31CF
:101A70000435383E8200751422004208982D270054
:101A80008C105F2D27008C115F2D220090115F2D8F
:101A9000220090105F2D220010125F2D2200901264
:101AA0005F2D20005908FF3E031C5F2D8400063087
:101AB000040203185F2DAC310435443E82007510DA
:101AC0003C2D0F303A2688312100EF000A30F0001B
:101AD000F10114302200BA00BB01E82A7008710439
:101AE0000319EB2A1C2E2000C401063044020318FF
:101AF000912D4408203E8600013087008101C000FE
:101B0000440A832DC035890B822D4008FF3A2100FD
:101B1000E7052000AE014408E72688312000C40A0A
:101B2000752D63303A2688312100EF00FF30220006
:101B3000C3001C2E2000600FA52D7F3075142100DE
:101B4000EF002000C101C10A1C2E14302200BA008F
:101B5000BB011C2E22004308003A0319D22A013A85
:101B60000319ED2A033A0319F62A303A0319142B04
:101B7000013A0319152B073A03193B2B013A0319B4
:101B8000442B093A0319492B013A0319512B033A03
:101B90000319742B5A3A03197E2B013A03198F2B20
:101BA000033A0319902B1E3A03199B2B013A031990
:101BB0009D2B033A0319C52B013A0319D02BDB3AAD
:101BC0000319D52B013A0319D92B033A0319172C02
:101BD000013A0319202C173A0319492C013A031929
:101BE0004F2C033A0319592C013A03195A2C0F3A76
:101BF0000319602C013A0319662C713A03198B2CD6
:101C0000013A0319902C033A0319962C013A03194F
:101C10009C2C3B3A03192D2D053A0319512D0F3AEF
:101C20000319612D013A03196E2D053A0319732D1D
:101C3000013A03199A2D1C2E22003A083B04031D79
:101C4000242EFA30C300362E2000600F282E342EAA
:101C5000EF306006031D362E22002830C00A4002F5
:101C6000031C362EFE30C3002200C0018B1720005B
:101C7000410808002000AE00842E8830802EBE303F
:101C8000802EC430802E9430802EB230802E913041
:101C9000802E8130802EBC30802E8030802EB0305F
:101CA000802EA030802E8330802EC930802E86304A
:101CB000802EC130802EE130802E9030802EA230D8
:101CC000802ECB30802E8730802EE030802EE73083
:101CD000802E8A30802E2B30802EFD30802EFE30DC
:101CE000802EBF30802EDF30802EEF30802EFB30F4
:101CF000802EF730802E7F30802E7730802EFF3080
:101D0000AF008E2EAF018E2E2E08840064300402A8
:101D10000318822EA8310435003E82007518AF13D7
:101D20002F08080073080319922E21009412220034
:101D30004F08473E860022308701873D010820007A
:101D4000AE0022005530CF0A4F020318CF01F30333
:101D50002100941620002E080800B000AE01AF014B
:101D6000AF0A2F085C02031CC72EB00A30085C02C1
:101D70000318BC2EB001B00A30085C3E860001306A
:101D8000870002300106031DB02EAE01AE0A2E08F8
:101D9000031900343008080074080319CC2E210000
:101DA000911222005308F13E860022308701873DC0
:101DB00001082000AE0022005530D30A5302031858
:101DC000D301F4032100911620002E080800200002
:101DD000AF001A2F2E1CEF2E27008C1408002700AE
:101DE0008C1008002E1CF72E27008C1508002700E9
:101DF0008C1108002E1CFF2E2200901508002200D6
:101E0000901108002E1C072F2200901408002200B9
:101E1000901008002E1C0F2F220010160800220020
:101E2000101208002E1C172F220090160800220006
:101E3000901208002F0884000630040203180800DE
:101E4000AC3104355C3E820008006F27883175276D
:101E50008831AD278831C2278831CC2788313F2788
:101E60008831472788315B2788310E110E132600F1
:101E70008D10633075143A262100EF000800013000
:101E800021009D00F0309E009B019C0108009112F2
:101E90001112483023009F0090309D0067309E0053
:101EA000A0309B0001309C002200D401D301F4013A
:101EB000210091160800941214124830290097004E
:101EC0009030950067309600A03093000130940068
:101ED0002200D001CF01F3012100941608007230D6
:101EE000210099009A019801080022008C01FD3020
:101EF00021008C002C3023008C0022008D01FF304B
:101F000021008D003F3024008D0022008E01FB3027
:101F100021008E00FF3022008F0021008F0122005F
:101F20009001C530210090002300900127008C0112
:101F3000F53026008C00813028008C0027008D01B0
:101F40003F3026008D00183028008D0029008D01BB
:101F50002100951322009D010800243020009800E4
:101F600099013C309700B030960017082200E80035
:101F7000E701200016082200E704200011102100CC
:101F80001114FD2F7B309C0003309B009A019110AF
:101F900021009114AC316B2C3B3028009700C230EB
:101FA000960095012000931021009314AC31682C09
:101FB000B901BA01340835040319F82FB801B80A79
:101FC000B51BE52FB435B50DDF2FB935BA0D350882
:101FD0003702031DED2F34083602031CF42F34089A
:101FE000B6023508B73B3914B536B40CB80BE52F3B
:101FF0003A08B5003908B400080020001814080099
:1020000091100228F60121006E080A3E8400B030CB
:102010000318013E85000008F7006F08F600F7047A
:10202000770822008F0021000830EE0A6E020318A4
:10203000EE0108002000B000BE01BD015C083D02B9
:102040000318A5283D085D3E860001308700010881
:10205000300603199928A328A630C62790312000FE
:10206000AF003E082F02031C3A28A630C627903145
:1020700020003B283E08B100B2019728A730C627B0
:1020800090312000AF003E082F02031C4C28A730DF
:10209000C627903120004D283E08B300B401972890
:1020A000A830C62790312000AF003E082F02031C45
:1020B0005E28A830C627903120005F283E08B50072
:1020C000B6019728A930C62790312000AF003E08FE
:1020D0002F02031C7028A930C627903120007128D8
:1020E0003E08B700B8019728AA30C62790312000D3
:1020F000AF003E082F02031C8228AA30C627903169
:10210000200083283E08B900BA019728AB30C627C3
:1021100090312000AF003E082F02031C9428AB3002
:10212000C6279031200095283E08BB00BC01BE00A8
:10213000A3283D088400063004020318A328A83110
:102140000435D63E8200BD0A1E283E082200CD007E
:102150000800AC30C62790312000C3009B308600B9
:102160002330870045310108C40005304302463062
:10217000BE002330BF003C08031CC9283E07C00036
:102180003D083F3DC10040088600410887000430FB
:10219000D3283E07C0003D083F3DC10040088600EF
:1021A0004108870043088100BC0A0319BD0A43089F
:1021B000031936294408031D36294630BE00233052
:1021C000BF003C083E0786003D083F3D8700810177
:1021D000BC0A0319BD0A3D08B5003C08B40027300D
:1021E000B600D22790313508BD003408BC00463017
:1021F000BE002330BF003C083E0786003D083F3D3F
:1022000087008101BC0A0319BD0A9B30C6279031A3
:102210000F392000BE004630BF002330C0003C080C
:102220003F07C1003D08403DC2004108860042080A
:1022300087003E088100BC0A0319BD0A9E30C627EC
:1022400090312000BE004630BF002330C0003C0863
:102250003F07C1003D08403DC200410886004208DA
:1022600087003E088100BC0A0319BD0A0230430200
:10227000031C9C294408031D9C294630BE002330C2
:10228000BF003C083E07C0003D083F3DC10040087C
:1022900086004108870001308100BC0A0319BD0A8D
:1022A0003D08B5003C08B4003630B600D227903166
:1022B0003508BD003408BC004630BE002330BF00E6
:1022C0003C083E0786003D083F3D87008101BC0A6F
:1022D0000319BD0A9B30C6279031890E0F392000A3
:1022E000BE004630BF002330C0003C083F07C1009D
:1022F0003D08403DC20041088600420887003E0874
:102300008100BC0A0319BD0A9F30C6279031200006
:10231000BE004630BF002330C0003C083F07C1006C
:102320003D08403DC20041088600420887003E0843
:102330008100BC0A0319BD0A03304302031C052AAD
:1023400044080319A72902304406031D052A463014
:10235000BE002330BF003C083E07C0003D083F3DA3
:10236000C100400886004108870002308100BC0A95
:102370000319BD0A3D08B5003C08B4004530B6005D
:10238000D22790313508BD003408BC004630BE006D
:102390002330BF003C083E0786003D083F3D8700D4
:1023A0008101BC0A0319BD0A9C30C62790310F3940
:1023B0002000BE004630BF002330C0003C083F076D
:1023C000C1003D08403DC200410886004208870028
:1023D0003E088100BC0A0319BD0AA030C62790310F
:1023E0002000BE004630BF002330C0003C083F073D
:1023F000C1003D08403DC2004108860042088700F8
:102400003E088100BC0A0319BD0A04304302031CC4
:102410006F2A44080319102A02304406031D6F2A4C
:102420004630BE002330BF003C083E07C0003D08D8
:102430003F3DC1004008860041088700033081000D
:10244000BC0A0319BD0A3D08B5003C08B40054306D
:10245000B600D22790313508BD003408BC004630A4
:10246000BE002330BF003C083E0786003D083F3DCC
:1024700087008101BC0A0319BD0A9C30C627903130
:10248000890E0F392000BE004630BF002330C00047
:102490003C083F07C1003D08403DC200410886009E
:1024A000420887003E088100BC0A0319BD0AA1301A
:1024B000C62790312000BE004630BF002330C00048
:1024C0003C083F07C1003D08403DC200410886006E
:1024D000420887003E088100BC0A0319BD0A053086
:1024E0004302031CD52A02304406031DD52A463078
:1024F000BE002330BF003C083E07C0003D083F3D02
:10250000C100400886004108870004308100BC0AF1
:102510000319BD0A3D08B5003C08B4006330B6009D
:10252000D22790313508BD003408BC004630BE00CB
:102530002330BF003C083E0786003D083F3D870032
:102540008101BC0A0319BD0A9D30C62790310F399D
:102550002000BE004630BF002330C0003C083F07CB
:10256000C1003D08403DC200410886004208870086
:102570003E088100BC0A0319BD0AA230C62790316B
:102580002000BE004630BF002330C0003C083F079B
:10259000C1003D08403DC200410886004208870056
:1025A0003E088100BC0A0319BD0A06304302031C21
:1025B000080002304406031D08004630BE002330E8
:1025C000BF003C083E07C0003D083F3DC100400839
:1025D00086004108870005308100BC0A0319BD0A46
:1025E0003D08B5003C08B4007230B600D2279031E7
:1025F0003508BD003408BC004630BE002330BF00A3
:102600003C083E0786003D083F3D87008101BC0A2B
:102610000319BD0A9D30C6279031890E0F3920005D
:10262000BE004630BF002330C0003C083F07C10059
:102630003D08403DC20041088600420887003E0830
:102640008100BC0A0319BD0AA330C6272000BE00C2
:102650004630BF002330C0003C083F07C1003D08A2
:10266000403DC20041088600420887003E088100C4
:10267000BC0A0319BD0A080021004630D601D70163
:10268000D401D501D201D301CF01860023308700C8
:102690001B30C03FD60A0319D70A4630C200233088
:1026A000C3005608420786005708433D8700810152
:1026B000D60A0319D70A4630C2002330C300560891
:1026C000420786005708433D87008101D60A031957
:1026D000D70A9B3086002330870042310108C200B0
:1026E0004630C3002330C40056084307C5005708CE
:1026F000443DC60045088600460887004208810020
:10270000D60A0319D70A9B3086002330870043314D
:1027100001082200CC0046302100C2002330C30053
:1027200056084207C4005708433DC50044088600C8
:102730004508870022004C0881002100D60A0319B1
:10274000D70A1430C62790312100C2004630C3009A
:102750002330C40056084307C5005708443DC6004F
:10276000450886004608870042088100D60A0319FA
:10277000D70A9B3086002330870044310108D100FE
:102780002200CE001430C62790312100CE009B30AD
:10279000860023308700323042310102031C1C2F97
:1027A0009B308600233087006430423101020318D9
:1027B0001C2F510A0319002F51084E060319002F30
:1027C000C72C57082000BD00210056082000BC007F
:1027D000A931A42190313D082100D70020003C08F8
:1027E000532C57082000B000210056082000AF00ED
:1027F000A431EB24903130082100D70020002F08AD
:10280000532C57082000BD00210056082000BC00B2
:10281000A92090313D082100D70020003C08532C0E
:102820009B30860023308700453101082000DB0003
:102830005B08031D1F2C7F302100EF00751446300C
:102840002100C2002330C30056084207C4005708C5
:10285000433DC500440886004508870001308100DB
:10286000D60A0319D70A122F57082000B0002100FA
:1028700056082000AF009831142090313008210014
:10288000D70020002F08532C57082000B00021004B
:1028900056082000AF00AD310F25903130082100DF
:1028A000D70020002F082100D600122F0530D400B9
:1028B0009B30D50186002330870045310108CC00CC
:1028C000D40A0319D50A9B30C2002330C300540830
:1028D000420786005508433D87000108C700C8012C
:1028E000D40A0319D50A9B30C2002330C300540810
:1028F000420786005508433D87000108C400C50112
:10290000C500C4014408C7074508C83DD40A0319D7
:10291000D50AAC30C627903121004C0203189F2CF9
:102920000E304802113003194702031CAF2C4C35FE
:10293000D03E8600013087000030C03FC13F4630A6
:10294000C2002330C30056084207C4005708433D65
:10295000C500440886004508870003302F2C48082E
:102960002000AF00210047082000AE000A30B00070
:10297000B1019F31EB27903121004C35D03E8600CC
:102980000130870020002E08C03F2F08C13F46308D
:102990002100C2002330C3005608420786005708B2
:1029A000433D87008101302C05302000AE00AF018F
:1029B000AB31A82390313C302100E6001F2CCD0123
:1029C00006304D020318EE2C2000AE0121004D0808
:1029D0008E31E72690312100CD0AE02C0530D4005D
:1029E0009B30D501D201D3018600233087004531C9
:1029F0000108C900D40A0319D50A2400A000210047
:102A0000D20A0319D30A49080319932D5208203E0C
:102A10008600023087009B30C2002330C300540878
:102A2000420784005508433D850000088100D40A10
:102A30000319D50AD20A0319D30ACF019B30C20069
:102A40002330C3005408420786005508433D8700E1
:102A500001080319482D0E304F020318432D520868
:102A6000203E8600023087009B30C2002330C30026
:102A70005408420784005508433D85000008810042
:102A8000D20A0319D30ACF0AD40A0319D50A1E2D74
:102A90005208203E8600023087009B30C20023305F
:102AA000C3005408420784005508433D85000008D0
:102AB0008100D40A0319D50AD20A0319D30A9B301C
:102AC000C2002330C3005408420786005508433D26
:102AD00087000108CF00D40A0319D50A06304F0237
:102AE0000318CF015208203E8600023087004F08AD
:102AF0008100D20A0319D30A5208203E86009B3077
:102B0000C2002330C3005408420784005508433DE7
:102B1000850000088100D40A0319D50AD20A0319D6
:102B2000D30AC903032D9B3086002330870045312B
:102B3000010803191F2C3D30E6009B3149239031D9
:102B40002100E6011F2C9B308600233087000C30CB
:102B50004531C62790310106031DFE2D9B308600AE
:102B6000233087000D304631C62790310106031D02
:102B7000FE2D9B308600233087000E304731C6275C
:102B800090310106031DFE2D9B3086002330870007
:102B90000F304831C62790310106031DFE2D9B30B2
:102BA00086002330870010304931C6279031010656
:102BB000031DFE2D9B3086002330870011304A31E3
:102BC000C62790310106031DFE2D9B308600233061
:102BD000870012304B31C62790310106031DFE2DB0
:102BE0009B3086002330870013304C31C62790314C
:102BF0000106031DFE2D22005811002E220058153B
:102C00009B308600233087004D31010821004E069D
:102C1000031D0D2E2200D8101D2E22009B30D8142B
:102C20008600233087004D3101082100C2004B305F
:102C3000860023308700420881001530C627903176
:102C40002100C2004630C3002330C40056084307A9
:102C5000C5005708443DC600450886004608870061
:102C600042088100D60A0319D70A4630C200233031
:102C7000C30056084207C4005708433DC500440836
:102C80008600450887002200580881002100D60AE6
:102C90000319D70AAC30C62790312100C200463054
:102CA000C3002330C40056084307C5005708443DFD
:102CB000C600450886004608870042088100D60AFB
:102CC0000319D70A02301A20903146302100C20081
:102CD0002330C30056084207C4005708433DC500CF
:102CE000440886004508870022004D088100210025
:102CF000D60A0319D70A22005812D812122F5130BF
:102D0000E6009B308600233087004531010824000F
:102D1000A0009B3086002330870046310108A100C7
:102D20009B3086002330870047310108A2009B308A
:102D300086002330870048310108A3009B308600BD
:102D40002330870049310108A4009B3086002330DE
:102D500087004A310108A5009B3086002330870098
:102D60004B310108A6009B308600233087004C3190
:102D70000108A7009B308600233087004D310108F1
:102D8000A8009B308600233087004E310108A9003F
:102D90009B308600233087004D3101082100C2009E
:102DA0004B30860023308700420881004630C20045
:102DB0002330C30056084207C4005708433DC500EE
:102DC000440886004508870001308100D60A0319AF
:102DD000D70A2200D701D70A122FE501E50A1F2CD6
:102DE0004630C2002330C30056084207C4005708CB
:102DF000433DC500440886004508870002302F2C5B
:102E00009B3086002330870042310108CE3E031CF0
:102E1000F02E8400323004020318F02EAB3104355A
:102E2000003E820021004E0B1F2F51084E06031951
:102E30001F2F510A03191F2FD601D701BE2FFF30B4
:102E4000D607031CD703FE30D607031CD703570849
:102E5000C200473086002330870042088100483096
:102E60008600560881000230D6070318D70A2200D0
:102E7000CB012100D001D00A5608013EC20000302B
:102E8000573DC300803AC40080304402031D4A2FDE
:102E900050084202031C6B2F21005008FF3E200007
:102EA000AE0021005008463E860023308701873D52
:102EB0000108A431C32490312100C2005008463ECD
:102EC000C3002330C401C43D430886004408870082
:102ED000420881003B2F47302000AE002330AF0076
:102EE000210056082000B000A4318F2490312F0813
:102EF0002100CB0020002E082100CA00D60A0319A9
:102F0000D70A4B08C2004630C3002330C40056081D
:102F10004307C5005708443DC600450886004608DB
:102F2000870042088100D60A0319D70A4630C2003A
:102F30002330C30056084207C4005708433DC5006C
:102F400044088600450887004A088100D60A03190C
:102F5000D70A4630C2002330C30056084207C400D7
:102F60005708433DC50044088600450887000D30DA
:102F70008100D60A0319D70A5608F32757082000FC
:102F8000C700210056082000C60008002000AE003F
:102F90002300910015139513151400000000230061
:102FA000130808003608AF3138279031003A03196A
:102FB00008003608C62790312000B7004630B80018
:102FC0002330B90034083807BA003508393DBB0052
:102FD0003A0886003B08870037088100B60AB40A21
:102FE0000319B50AD22F2000AE00210011122200D1
:102FF000D50120002E082200D6002100111608005D
:103000002200520851020318112851089C3E8600E4
:1030100022308701873D0108290092002200D10A51
:103020000800210014120800AC309731C6279831EF
:103030002000B6004630B1002330B2002F0831071F
:10304000B3003008323DB4003308860034088700EE
:1030500036088100AF0A0319B00A3608031962283E
:1030600000309731C62798312000B1004630B200B9
:103070002330B3002F083207B4003008333DB500C9
:10308000340886003508870031088100AF0A03192B
:10309000B00A01309731C62798312000B100463080
:1030A000B2002330B3002F083207B4003008333D9C
:1030B000B500340886003508870031088100AF0A62
:1030C0000319B00A02303602031C982802309731E7
:1030D000C62798312000B1004630B2002330B3003B
:1030E0002F083207B4003008333DB500340886009D
:1030F0003508870031088100AF0A0319B00A033090
:103100009731C62798312000B1004630B2002330F5
:10311000B3002F083207B4003008333DB50034083F
:1031200086003508870031088100AF0A0319B00A0C
:1031300003303602031CCE2804309731C62798315D
:103140002000B1004630B2002330B3002F08320710
:10315000B4003008333DB5003408860035088700D8
:1031600031088100AF0A0319B00A05309731C6272C
:1031700098312000B1004630B2002330B3002F0850
:103180003207B4003008333DB500340886003508F6
:10319000870031088100AF0A0319B00A04303602F3
:1031A000031C042906309731C62798312000B1004E
:1031B0004630B2002330B3002F083207B400300885
:1031C000333DB5003408860035088700310881009A
:1031D000AF0A0319B00A07309731C627983120008B
:1031E000B1004630B2002330B3002F083207B400DC
:1031F0003008333DB50034088600350887003108B3
:103200008100AF0A0319B00A05303602031C3A29BF
:1032100008309731C62798312000B1004630B200FF
:103220002330B3002F083207B4003008333DB50017
:10323000340886003508870031088100AF0A031979
:10324000B00A09309731C62798312000B1004630C6
:10325000B2002330B3002F083207B4003008333DEA
:10326000B500340886003508870031088100AF0AB0
:103270000319B00A06303602031C08000A309731E1
:10328000C62798312000B1004630B2002330B30089
:103290002F083207B4003008333DB50034088600EB
:1032A0003508870031088100AF0A0319B00A0B30D6
:1032B0009731C6272000B1004630B2002330B3005A
:1032C0002F083207B4003008333DB50034088600BB
:1032D0003508870031088100AF0A0319B00A0800D9
:1032E000A60A0319A70A8C302702A0300319260268
:1032F000031C0800A601A701042AAC309731C62799
:1033000099312000DC008330062399313208D60041
:103310003108D5003008D4002F08D30087300623A9
:1033200099313208D2003108D1003008D0002F087E
:10333000CF008B30062399313208CE003108CD0002
:103340003008CC002F08CB008F300623993132088B
:103350002100E300200031082100E20020003008B5
:103360002100E10020002F082100E0009330062317
:10337000993132082100DF00200031082100DE00F1
:10338000200030082100DD0020002F082100DC0093
:1033900097300623993132082100DB0020003108E4
:1033A0002100DA00200030082100D90020002F0879
:1033B0002100D8007E2DCF3020000D04B700CF3A79
:1033C000031D0800C7240E308E313A2699312100A2
:1033D000EF000B302000B8002630B7005D30890BBD
:1033E000EF29B70BEF29B80BEF290032CF302000BF
:1033F0000D04B700370FF62921006D1063308E31B0
:103400003A262100EF00080081309731C627993114
:103410002000C00082309731C62799312000C100BA
:10342000C00A0319C10A4008B40081305E259931F1
:103430004108B40082305E259931833006239931EA
:1034400056083206031D2E2A55083106031D2E2A62
:1034500054083006031D2E2A53082F0603193C2A50
:103460005608BA005508B9005408B8005308B70008
:103470008330BB002A2399318730062399315208C3
:103480003206031D4D2A51083106031D4D2A5008EE
:103490003006031D4D2A4F082F0603195B2A5208D8
:1034A000BA005108B9005008B8004F08B70087307B
:1034B000BB002A2399318B30062399314E083206FE
:1034C000031D6C2A4D083106031D6C2A4C0830067A
:1034D000031D6C2A4B082F0603197A2A4E08BA00DE
:1034E0004D08B9004C08B8004B08B7008B30BB0042
:1034F0002A2399318F300623993121006308200057
:103500003206031D932A2100620820003106031DA4
:10351000932A2100610820003006031D932A210010
:10352000600820002F060319A92A21006308200043
:10353000BA00210062082000B900210061082000C3
:10354000B800210060082000B7008F30BB002A239C
:10355000993193300623993121005F08200032060B
:10356000031DC22A21005E0820003106031DC22A65
:1035700021005D0820003006031DC22A21005C08DE
:1035800020002F060319D82A21005F082000BA0066
:1035900021005E082000B90021005D082000B8006D
:1035A00021005C082000B7009330BB002A2399312A
:1035B00097300623993121005B0820003206031D55
:1035C000F12A21005A0820003106031DF12A2100AA
:1035D000590820003006031DF12A21005808200058
:1035E0002F060319080021005B082000BA00210003
:1035F0005A082000B900210059082000B800210015
:1036000058082000B7009730BB002A2B2000B800D4
:103610009731C62799312000B400B80A380897318D
:10362000C62799312000B500B80A38089731C62757
:1036300099312000B600B80A38089731C627200013
:10364000B700B80AB2003608B1003508B000340837
:10365000AF0008003A08BF003908BE003808BD00B6
:103660003708BC00B4003B085E259931BB0A3D0811
:10367000B4003B085E259931BB0A3E08B4003B0804
:103680005E259931BB0A3F08B4003B085E25BB0AA2
:1036900008002000C000C501BC2C1630C30045083E
:1036A000203E86000230870001080319622B45087E
:1036B000203E86000108B40043085E259931C50A02
:1036C000C30A4F2BB40143085E25C30A0800240037
:1036D00020082000C100C50A41080319722C4508C2
:1036E000203E8600023087000108C200C50A852BF3
:1036F0002730832B3630832B4530832B5430832B5C
:103700006330832B7230C3009B2B42088400063049
:10371000040203189B2BA8310435E23E82004508C1
:10372000203E8600023087000108B40043085E2571
:103730009931C50AC30A4508203E86000230870039
:103740000108031D8F2BB40143085E259931C50A7A
:10375000662C9B309731C62799312000C400F03089
:10376000C4054508203E86000230870001080F3955
:10377000C404C50A4408B4009B305E25993145084D
:10378000203E8600023087000108B4009E305E258E
:103790009931C50A702C9B309731C627993120008A
:1037A000C4000F30C4054508203E86000230870063
:1037B000010EF039C404C50A4408B4009B305E25EC
:1037C00099314508203E8600023087000108B40088
:1037D0009F30C72B9C309731C62799312000C400F9
:1037E000F030C4054508203E8600023087000108FD
:1037F0000F39C404C50A4408B4009C305E259931D1
:103800004508203E8600023087000108B400A03041
:10381000C72B9C309731C62799312000C4000F3048
:10382000C4054508203E860002308700010EF039AD
:10383000C404C50A4408B4009C305E25993145088B
:10384000203E8600023087000108B400A130C72B5B
:103850009D309731C62799312000C400F030C4054F
:103860004508203E86000230870001080F39C40455
:10387000C50A4408B4009D305E2599314508203EB4
:103880008600023087000108B400A230C72B9D30AB
:103890009731C62799312000C4000F30C405450870
:1038A000203E860002308700010EF039C404C50AAC
:1038B0004408B4009D305E2599314508203E8600BD
:1038C000023087000108B400A330C72B42088400EF
:1038D000063004020318702CA8310435EE3E820035
:1038E000C1036C2B7E259931B12D240020082000C6
:1038F000B4000C305E259931240021082000B4006A
:103900000D305E259931240022082000B4000E30CD
:103910005E259931240023082000B4000F305E2575
:103920009931240024082000B40010305E2599311C
:10393000240025082000B40011305E2599312400B0
:1039400026082000B40012305E2599312400270893
:103950002000B40013305E2599312400280820008F
:10396000B40014305E259931240029082000B400E9
:10397000A4305E259931742C400884005230040232
:1039800003180800A9310435003E820008000C30FD
:10399000B4015E2599310D30B4015E2599310E30A8
:1039A000B4015E2599310F30B4015E259931103094
:1039B000B4015E2599311130B4015E259931123080
:1039C000B4015E2599311330B4015E25993114306C
:1039D000B401B40A5E2599311630B4015E259931DF
:1039E0002730B4015E2599313630B4015E25993116
:1039F0004530B4015E2599315430B4015E259931CA
:103A00006330B4015E2599317230B4015E25AD306A
:103A10009731C62799312000B4009B305E25AE3027
:103A20009731C62799312000B4009C305E25AF3015
:103A30009731C62799312000B4009D305E25993119
:103A40006430B4009E305E2599316430B4009F30FC
:103A50005E2599316430B400A0305E259931643020
:103A6000B400A1305E2599316430B400A2305E25E7
:103A700099316430B400A3305E259931A530B4018A
:103A80005E259931A630B4015E259931A730B40185
:103A90005E259931A830B4015E259931A930B40171
:103AA0005E259931AA30B4015E259931AB30B4015D
:103AB0005E2599316430B400A4305E2DB50023003A
:103AC0009100200034082300930095131513151559
:103AD00000308B1B01302000B6008B1355302300C3
:103AE0009600AA30960095149518742D1511200093
:103AF000360C031C8B1303188B1708009B3097316F
:103B0000C62799312000AF002200DD000F30DD050F
:103B100020002F0E0F392200DE000F30DE059C3012
:103B20009731C62799312000AF002200DF000F3007
:103B3000DF0520002F0E0F392200E0000F30E005D6
:103B40009D309731C6272000AF002200E1000F30E2
:103B5000E10520002F0E0F392200E2000F30E205B0
:103B60000800A4309731C62799312000DE000430C8
:103B70005E020318BD2D0430DE005E08BB00BB36BC
:103B8000BB363B082100A2002000AE000A30AF0186
:103B9000B000B101EB2799312F082100BD002000B2
:103BA0002E082100BC0000303D020B3003193C02FE
:103BB0000318DD2DA901AA01E32D3C08F63EA9005A
:103BC000FF303D3DAA003C08143EA00000303D3DC2
:103BD000A10020005E082100A400A5309731C6276F
:103BE00099312100A3009E30A500A630A600C00197
:103BF000250840079731C62799312100A7002308DF
:103C00002000BB002100400A2000072EBB36890B94
:103C1000062E3B180E2E21002408152E2100260802
:103C200040079731C62799312100AB00AC01A800AD
:103C30000A302000B400B501210027082000AE00A2
:103C4000AF01210028082000B000B101EB272F08A8
:103C5000B7002E08B6008F31D827993121004035A2
:103C6000AD3E8600870120003408C03F3508C13FC3
:103C700021000630C00A4002031CF82DB901BA0128
:103C800039082000BB00A030BB35BB35BB353B0736
:103C9000BC0021003A3520003C07BD008600013001
:103CA00087000030C03FC13F21000430BA0A3A0209
:103CB000031C402E0630B90A3902031C3F2EC101F5
:103CC00041085D3E86000130870002300106031D79
:103CD000CA2F4135AD3E86008701403F2000BB0022
:103CE000413FBC0000303C02283003193B0203185E
:103CF000A92EB32EBB0104303B020318A92E413577
:103D0000AD3E86008701160001040319A72E410865
:103D10002000BB00A030BB35BB35BB353B07BC002A
:103D200021003B3520003C07BD00860001308700A4
:103D3000810741310318810A21004135AD3E8600DB
:103D400001308701810200304131813B7F31BB0A64
:103D50007B2E21004135AD3E86008701160001040F
:103D60000319422F7A2E21004135AD3E860087018E
:103D70004108090709070907A03E840001308500B2
:103D8000403F803F413F813F4135AD3E8600403F4F
:103D90002000BB00413FBC0000303C02143003193E
:103DA0003B02031C022F0A30BB00BC01210041086A
:103DB000090709070907A03E860001308700200097
:103DC0003B08C03F3C08C13F21004135AD3E860065
:103DD0008701403F2000BB00413FBC003B08F63E4E
:103DE000BD00FF303C3DBE00210041080907090726
:103DF0000907A23E86000130870020003D08C03F31
:103E00003E08C13F21004135AD3E86008701403F5D
:103E10002000BB00413FBC0000303C021E300319B3
:103E20003B02031C422F0A30BB00BC0121004108A9
:103E3000090709070907A23E860001308700200014
:103E40003B08C03F3C08C13F21004135AD3E8600E4
:103E50008701403F2000BB00413FBC003B08EC3ED7
:103E6000BD00FF303C3DBE002100410809070907A5
:103E70000907A43E86000130870020003D08C03FAE
:103E80003E08C13F2100BF0103303F020318CA2F83
:103E9000A82F41082000BB00A030BB35BB35BB3587
:103EA0003B07BC0021003F3520003C07BD008600D9
:103EB00001308700403FBE00413FBF0021003D0868
:103EC00020003F02031D682F21003C0820003E0215
:103ED0000318C72F21004108090709070907A63E53
:103EE000860001308700403F2000BB00413FBC00FE
:103EF0002100210820003C02031D822F2100200800
:103F000020003B020318C72F210041082000BB00FE
:103F1000A030BB35BB35BB353B07BC0021003F356E
:103F200020003C07BD008600013087008102003080
:103F30004131813B7F312100410809070907090709
:103F4000A63E860001308700810741310318810AAF
:103F500041082000BB00A030BB35BB35BB353B075B
:103F6000BC0021003F3520003C07BD008600013029
:103F70008700403FBE00413FBF0021002A02031DD1
:103F8000C52F20003E0821002902031C492F2100D3
:103F9000BF0A442F0630C10A4102031C602EBE0135
:103FA00006303E020318E72F3E08090709070907F4
:103FB000A03E8600013087003E35DC3E84000130A3
:103FC0008500403F803F413F813FBE0AD02FFF30F8
:103FD0002000DD000800B201B3012E1CF32F3008D1
:103FE000B2073108B33DB035B10DAF36AE0C2E0877
:103FF0002F04031DED2F3308AF003208AE00080078
:10400000220056085502031811285508463E86001E
:1040100023308701873D010823009A002200D50A3A
:1040200008002100111208002000A530B001B201E3
:104030009731C627A0312000B000B101B301B30A07
:1040400033085C02031C5D2833085C3E86000130A7
:104050008700010303191F283008AF003308FF3E13
:10406000890A3328AF36890B32282F1849281F2890
:10407000A6304328A7304328A8304328A930432836
:10408000AA304328AB309731C627A0312000B200B8
:1040900056283308FF3E031C5628840006300402CD
:1040A00003185628AC310435503E820032083102E4
:1040B00003181F283208B1001F2831080800931088
:1040C0000D08AB00F030AB042B186D280A3021002E
:1040D0006B0203187128EB0A712821006B08031D7D
:1040E000EB0320002B08A000A03620189C28A40178
:1040F000A70127085D3E86000130870002300106D7
:10410000031D8D28210067082000A000270A8928A8
:10411000A036890B88282018A40A0630A70A27028F
:10412000031C79282408031DA0280A3021006A02F4
:104130000318A028EA0AA02821006A08031DEA0340
:1041400020002B08A000A036A0362018AE280A3088
:10415000210069020318B228E90AB228210069087F
:10416000031DE90320002B08A000A036A036A036CE
:104170002018C1280A30210068020318C528E80A5F
:10418000C52821006808031DE80322005C08031D00
:10419000E5280A3021006B02031CE62813302200B8
:1041A000DC002000A80128085D3E86000130870061
:1041B000010BDF282808203E86000A3081070630E0
:1041C000A80A28020318E628D328DC0322005A088C
:1041D000031D08290A3021006902031C0929133034
:1041E0002200DA002000A90129085D3E8600013086
:1041F000870003300106031D02292908203E86009E
:104200000A3081070630A90A290203180929F4286F
:10421000DA0322005908031D2B290A302100680205
:10422000031C2C2913302200D9002000AA012A08DF
:104230005D3E86000130870004300106031D2529FC
:104240002A08203E86000A3081070630AA0A2A0280
:1042500003182C291729D90322005B08031DCE2936
:104260000A3021006A02031C080013302200DB0020
:104270002000AC012C085D3E860001308700023032
:10428000010603194A292C085D3E86000530010607
:10429000031D51292C08203E8600013087000A307A
:1042A00081070630AC0A2C02031C3A29DD0A633070
:1042B000A5005E08A000A036A0362008A6005D0874
:1042C0002606031D6629A501A50AA2292608A00025
:1042D000A101A035A10D5D08A200A30121082306BC
:1042E000031D742920082206031D782902308C2919
:1042F0002608F6000330F701F800F901D121A031BA
:104300005D08A000A10177082106031D8929760810
:104310002006031D8E290330A500A2295E08023E57
:10432000A000003003180130A100803A803C031D3A
:104330009B2920085D02031CA2292000DD01A501A4
:10434000D021A03163302000250603190800AD01FB
:104350002D085D3E86000130870002300106031DF6
:10436000C8292D08A000A030A035A035A035200711
:10437000A10025352107A20086002D35DC3E8400F2
:1043800001308500403F80070131413F803D3F3192
:104390000630AD0A2D0203180800A829DB03080027
:1043A0000800FA01FB01761CD9297808FA07790878
:1043B000FB3DF835F90DF736F60C76087704031D4A
:1043C000D3297B08F7007A08F600080025000D08BD
:1043D0002000BB00BB36BB363B1CB62A9C30860097
:1043E000223087001B30C03FC401C40AC501390810
:1043F000023EBB0000303A3DBC00803ABD0045089B
:10440000803A3D02031D062A44083B02031C292A68
:104410009A302000BB002330BC0044083B078600D4
:1044200045083C3D87000108BD009C30BE0022309D
:10443000BF0044083E07C00045083F3DC10040089A
:104440008600410887003D088100C40A0319C50A97
:10445000F7299C3086002230870050304331010616
:104460009C3086002230870003193F2A51304331A7
:104470000106031D412A9C308600223087004E3100
:10448000810A2200CB012000C601C60A3A08803A00
:10449000BB0080303B02031D4F2A46083902031C33
:1044A0006C2A20004608FF3EAE0046089C3E86006F
:1044B00022308701873D0108C324A131BB00460893
:1044C0009C3EBC002230BD01BD3D3C0886003D083D
:1044D00087003B088100452A9D302000AE00223035
:1044E000AF003908B0008F24A1312F08C3002E0877
:1044F000C2004308BB009D30BC002230BD0039081B
:104500003C07BE003A083D3DBF003E0886003F081C
:1045100087003B0881009E30BB002230BC00390878
:104520003B07BD003A083C3DBE003D0886003E0802
:104530008700420881009F30BB002230BC00390850
:104540003B07BD003A083C3DBE003D0886003E08E2
:1045500087000D3081003908043EDF24200039082F
:10456000043EB90000303A3DBA000800B901BA0172
:1045700008008E31CC26A131BF00872B751DC22AC1
:10458000F515922B1B3020003F06031D922BDA01FC
:104590002200B601B7012200CA0A922B20005A0855
:1045A0009B3EBB002330BC01BC3D3B0886003C0861
:1045B00087003F088100DA0A3F080319E22A220037
:1045C000CA01922BF201CB2A20005A089B3EBB0065
:1045D0002330BC01BC3D3B0886003C0887003F08F7
:1045E0008100DA0A3F08F2044F307202031C002BEC
:1045F0009B30DA018600233087000030C03FDF2A7D
:104600002200CA0A7208B6000230B701B6070318C2
:10461000B70AF20AF20A922B20005A089B3EBB000E
:104620002330BC01BC3D3B0886003C0887003F08A6
:104630008100DA0AF203CB2A72080319922B2000B8
:104640005A089B3EBB002330BC01BC3D3B088600A2
:104650003C0887003F088100DA0AF20B922B9B305E
:10466000AE002330AF007208B0008F24A1312E08B5
:104670002F040319CB2AF517DF2A20005A089B3E86
:10468000BB002330BC01BC3D3B0886003C088700D2
:104690003F0881009B30DA0A8600233087004331CF
:1046A00001082200CC00CB012000BE019B30860017
:1046B0002330870041310108023EBB00003003185F
:1046C0000130BC00803A803C031D682B3B083E0251
:1046D0000318852B20003E08AE003E089B3E860056
:1046E00023308701873D0108C324A131BB003E0868
:1046F0009B3EBC002330BD01BD3D3C0886003D080B
:1047000087003B088100BE0A562B7515DF2A220060
:104710004A088400063004020318DF2AAA3104354F
:10472000E13E8200220037082000BA00220036084D
:104730002000B90008002000BE01C101BF01220015
:1047400039082000BD00220038082000BC00BC351C
:10475000BD0DBB0122000E1520003C083D040319CD
:104760008C2C73080319832C8E319226A131C00042
:10477000220039082000BD00220038082000BC00BB
:104780000530BC35BD0D3E02031C792C832C1B303B
:104790004006031D832C4630C1018600233087006C
:1047A0004008C03FC10ABE0A832C4108463EB900FA
:1047B0002330BA01BA3D390886003A08870040081C
:1047C0008100C10ABF01D32B4108463EB900233006
:1047D000BA01BA3D390886003A08870040088100CE
:1047E000C10A4008BF043F08023EBB0072303F02CE
:1047F000031C042C4630C1018600233087000030A2
:10480000C03F2000BE01832CBE0ABF0ABF0A832C12
:104810003F080319832C4108463EB9002330BA01F2
:10482000BA3D390886003A08870040088100C10A6D
:10483000BF0B832C4630AE002330AF003F08B000E2
:104840008F24A1312E082F040319D32B012C4108EA
:10485000463EB9002330BA01BA3D390886003A080D
:10486000870040088100C10A4108463E8600233087
:104870008701873D8101C10A4108463E86002330F9
:104880008701873D46308101C10A860023308700B9
:10489000443101082200CC000430CB012000AE00DE
:1048A000463086002330870045310108C324A131FA
:1048B000C00022004E06031D012C20003B08043ED0
:1048C0009731F327A13108302000B900C930890B96
:1048D000672CB90B672C003274080319732C8E31C6
:1048E000CC26A131632C2000BE0ABC01BC0ABD014C
:1048F000832C3E088400053004020318832C873182
:104900000435F53E82000130BC020030BD3B213051
:10491000890B882C0000AC2B22000E1108002F08F8
:10492000B5002E08B400B701B801BB2C34088600CE
:10493000350887000108B100B201B200B1013108A9
:10494000B7063208B806B40A0319B50A0830B6002B
:10495000B81FB72C3808B2003708B1002130B13584
:10496000B20D3106B70010303206B800B92CB73599
:10497000B80DB60BA82CB003300F962C3808AF003A
:104980003708AE0008002000AF0004302E02031CE0
:10499000DD2C22004B08003E8400B0300318013E9D
:1049A000850000082000B00022000730CB0ACB05AC
:1049B0004C082000B0063008AF062F080800AE00F3
:1049C000210014122200D10120002E082200D20062
:1049D000210014160800AC309731C627A4312000FE
:1049E000B70081309731C627A4312000B10046308E
:1049F000B2002330B3002F083207B4003008333D33
:104A0000B500340886003508870031088100AF0AF8
:104A10000319B00A82309731C627A4312000B100B3
:104A20004630B2002330B3002F083207B4003008FC
:104A3000333DB50034088600350887003108810011
:104A4000AF0A0319B00A4630B1002330B2002F0874
:104A50003107B3003008323DB40033088600340813
:104A6000870037088100AF0A0319B00A3708031915
:104A7000A52D4630B1002330B2002F083107B30016
:104A80003008323DB40033088600340887005308EC
:104A90008100AF0A0319B00A5408B1004630B200D1
:104AA0002330B3002F083207B4003008333DB5007F
:104AB000340886003508870031088100AF0A0319E1
:104AC000B00A5508B1004630B2002330B3002F08B9
:104AD0003207B4003008333DB5003408860035088D
:104AE000870031088100AF0A0319B00A5608B100E7
:104AF0004630B2002330B3002F083207B40030082C
:104B0000333DB50034088600350887003108810040
:104B1000AF0A0319B00AA5309731C627A43101396D
:104B20002000B1004630B2002330B3002F08320716
:104B3000B4003008333DB5003408860035088700DE
:104B400031088100AF0A0319B00A02303702031C92
:104B5000162E4630B1002330B2002F083107B300C3
:104B60003008323DB40033088600340887004F080F
:104B70008100AF0A0319B00A5008B1004630B200F4
:104B80002330B3002F083207B4003008333DB5009E
:104B9000340886003508870031088100AF0A031900
:104BA000B00A5108B1004630B2002330B3002F08DC
:104BB0003207B4003008333DB500340886003508AC
:104BC000870031088100AF0A0319B00A5208B1000A
:104BD0004630B2002330B3002F083207B40030084B
:104BE000333DB50034088600350887003108810060
:104BF000AF0A0319B00AA5309731C627A431893608
:104C000001392000B1004630B2002330B3002F0834
:104C10003207B4003008333DB5003408860035084B
:104C2000870031088100AF0A0319B00A0330370248
:104C3000031C8A2E4630B1002330B2002F08310702
:104C4000B3003008323DB4003308860034088700D2
:104C50004B088100AF0A0319B00A4C08B100463076
:104C6000B2002330B3002F083207B4003008333DC0
:104C7000B500340886003508870031088100AF0A86
:104C80000319B00A4D08B1004630B2002330B3001A
:104C90002F083207B4003008333DB50034088600D1
:104CA0003508870031088100AF0A0319B00A4E08A1
:104CB000B1004630B2002330B3002F083207B400F1
:104CC0003008333DB50034088600350887003108C8
:104CD0008100AF0A0319B00AA5309731C627A43165
:104CE0002000B100B136B13631080139B20046308A
:104CF000B3002330B4002F083307B5003008343D2B
:104D0000B600350886003608870032088100AF0AF1
:104D10000319B00A04303702031C072F4630B100D4
:104D20002330B2002F083107B3003008323DB40001
:104D300033088600340887002100600881002000C5
:104D4000AF0A0319B00A210061082000B100463003
:104D5000B2002330B3002F083207B4003008333DCF
:104D6000B500340886003508870031088100AF0A95
:104D70000319B00A210062082000B1004630B200D9
:104D80002330B3002F083207B4003008333DB5009C
:104D9000340886003508870031088100AF0A0319FE
:104DA000B00A210063082000B1004630B200233071
:104DB000B3002F083207B4003008333DB500340883
:104DC00086003508870031088100AF0A0319B00A50
:104DD000A5309731C627A4312000B100B136B136D5
:104DE000B13631080139B2004630B3002330B40087
:104DF0002F083307B5003008343DB600350886006B
:104E00003608870032088100AF0A0319B00A05305E
:104E10003702031C812F4630B1002330B2002F0827
:104E20003107B3003008323DB4003308860034083F
:104E3000870021005C0881002000AF0A0319B00A36
:104E400021005D082000B1004630B2002330B300DD
:104E50002F083207B4003008333DB500340886000F
:104E60003508870031088100AF0A0319B00A210014
:104E70005E082000B1004630B2002330B3002F0896
:104E80003207B4003008333DB500340886003508D9
:104E9000870031088100AF0A0319B00A21005F08BA
:104EA0002000B1004630B2002330B3002F08320793
:104EB000B4003008333DB50034088600350887005B
:104EC00031088100AF0A0319B00AA5309731C6270F
:104ED000A431890E0F3901392000B1004630B200EB
:104EE0002330B3002F083207B4003008333DB5003B
:104EF000340886003508870031088100AF0A03199D
:104F0000B00A06303702031C08004630B1002330D7
:104F1000B2002F083107B3003008323DB400330827
:104F20008600340887002100580881002000AF0A5D
:104F30000319B00A210059082000B1004630B20020
:104F40002330B3002F083207B4003008333DB500DA
:104F5000340886003508870031088100AF0A03193C
:104F6000B00A21005A082000B1004630B2002330B8
:104F7000B3002F083207B4003008333DB5003408C1
:104F800086003508870031088100AF0A0319B00A8E
:104F900021005B082000B1004630B2002330B3008E
:104FA0002F083207B4003008333DB50034088600BE
:104FB0003508870031088100AF0A0319B00AA5300F
:104FC0009731C627A4312000B1000530B136890BD6
:104FD000E62F31080139B2004630B3002330B40067
:104FE0002F083307B5003008343DB6003508860079
:104FF0003608870032088100AF0A0319B00A08009A
:105000008E313D2E8E313F2E8E31412E8E31432EEC
:105010008E31452E8E31472E8E31492E8E314B2EBC
:105020008E314D2E8E314F2E8E31512E8E31532E8C
:105030008E31552E8E31572E8E31592E8E315B2E5C
:105040008E315D2E8E315F2E8E31612E8E31632E2C
:105050008E31652E8E31672E8E31472E8E31692E20
:105060008E316B2E8E31822E8E31822E8E31822E9B
:105070008E31822E8E31822E8E316D2E8E316F2E9C
:105080008E31712E8E31732E8E31752E8E31772E9C
:105090008E31792E8E317B2E8E317D2E8E31822E69
:1050A0008E31822E8E31822E8E31822E8E31822E44
:1050B0008E31822E8E31822E8E31822E8E31822E34
:1050C0008E31822E8E31822E8E31822E8E31822E24
:1050D0008E31822E8E31822E8E31822E8E31822E14
:1050E0008E31822E8E31822E8E31822E8E31822E04
:1050F0008E31822E8E31822E8E31822E8E31822EF4
:105100008E31822E8E31822E8E31822E8E31822EE3
:105110008E31822E8E31822E8E31822E8E31822ED3
:105120008E31822E8E31822E8E31822E8E31822EC3
:105130008E31822E8E31822E8E31822E8E31822EB3
:105140008E31822E8E31822E8E31822E8E31822EA3
:105150008E31822E8E31822E8E31822E8E31822E93
:105160008E31822E8E31822E8E31822E8E31822E83
:105170008E31822E8E31822E8E31822E8E31822E73
:105180008E31822E8E31822E8E31822E8E317F2E66
:1051900089313429893150298931AE298931C4298D
:1051A0008A312D2A8A318F2A8A31A12A90312C28DE
:1051B00090313E28903150289031622890317428E7
:1051C000903186289B31782B9B317A2B9B317C2B1D
:1051D0009B317E2B9B31802B9B31822B9B31A92BCA
:1051E0009B31CB2B9B31EA2B9C31092C9C31282CF9
:1051F0009C31472CFF3FFF3FFF3FFF3FFF3FFF3FFB
:105200009C31C62C9C31C62C9C31C62C9C31C62CA2
:105210009C31C62C9C31C62C9C31C62C9C31C62C92
:105220009C31C62C9C31C62C9C31C62C9C31C62C82
:105230009C31C62C9C31C62C9C31C62C9C31C62C72
:105240009C31C62C9C31C62C9C31C62C9C31C62C62
:105250009C31C62C9C31C62C9C31C62C9C31C62C52
:105260009C31C62C9C31C62C9C31C62C9C31C62C42
:105270009C31C62C9C31C62C9C31C62C9C31C62C32
:105280009C31C62C9C31C62C9C31C62C9C31C62C22
:105290009C31C62C9C31C62C9C31C62C9C31C62C12
:1052A0009C31C62C9C31C62C9C31C62C9C31C62C02
:1052B0009C31C62C9C31C62C9C31C62C9C31C62CF2
:1052C0009C31C62C9C31C62C9C31C62C9C31C62CE2
:1052D0009C31C62C9C31C62C9C31C62C9C31C62CD2
:1052E0009C31C62C9C31C62C9C31C62C9C31C62CC2
:1052F0009B314D2B9B31672B9C31C62C9C31C62C8E
:105300009C31C62C9C31C62C9C31C62C9C31C62CA1
:105310009C31C62C9C31C62C9C31C62C9C31C62C91
:105320009C31C62C9C31C62C9C31C62C9C31C62C81
:105330009C31C62C9C31C62C9C31C62C9C31C62C71
:105340009C31C62C9C31752C1230AE00B030AF00B1
:105350003222A9312E08013EC3004630BE00233060
:10536000BF003C083E0786003D083F3D87001230E5
:105370008400B030850020004308C00040080319B5
:10538000C52912001E00C00BC12920004308BC071C
:105390000318BD0A1930AE00B030AF003222A93177
:1053A0002E08C3004630BE002330BF003C083E0735
:1053B00086003D083F3D870019308400B0308500ED
:1053C00020004308C00040080319EA2912001E000B
:1053D000C00BE62920004308BC070318BD0A15309E
:1053E0009731C627A931303E2000BE004630BF00AD
:1053F0002330C0003C083F07C1003D08403DC200CB
:1054000041088600420887003E088100BC0A031953
:10541000BD0A4630BE002330BF003C083E07860070
:105420003D083F3D87008101BC0A0319BD0A3D08C4
:10543000B5003C08B4001630B6009731D2273508C5
:10544000BD003408BC004630BE002330BF003C081D
:105450003E0786003D083F3D87008101BC0A0319D5
:10546000BD0A08002F08B2002E08B10031088400E0
:105470003208850012000319412AB10A0319B20A41
:10548000362A2E083102AE002F08323BAF0008004A
:1054900011102200680820009700220067082000F1
:1054A00096002100ED1520000D08F600CF30F6041F
:1054B0007608220063060319642A7608E30076085A
:1054C0002000E00021006D1427008C1C6E2A0130A2
:1054D0002000D3070030D43DD53DD63D27008C1D9C
:1054E000782A01302000CF070030D03DD13DD23D99
:1054F0002200901D822A01302000CB070030CC3DD5
:10550000CD3DCE3D2200901C8C2A01302100E007C9
:105510000030E13DE23DE33D2200101E962A0130BD
:105520002100DC070030DD3DDE3DDF3D2200901E26
:10553000A02A01302100D8070030D93DDA3DDB3DFB
:1055400021006C1FA72A2000D70A0319D80A2100BE
:10555000EC1FBA2A2200BC0A0319BD0A00303D0222
:10556000023003193C02031CBA2AD122AA312200BC
:10557000BC01BD01700871040319C22A0130F00298
:105580000030F13B2200BE0A0319BF0A00303F027F
:105590000A3003193E02031C0800D822BE01BF01D5
:1055A00008002000DF0A06305F020318DF01080050
:1055B0003A083B04031908000130BA020030BB3B33
:1055C0000800A231BE2AA231CE2AA231E42AA33198
:1055D0000C2BA3311C2BA3313D2B8C31D02C8C31C7
:1055E000D72C8C31DE2C8C31E52C8C31EC2C8C3191
:1055F000F32CFF3FFF3FFF3FFF3FFF3FFF3FFF3FDA
:105600009331E12B9331F12B9431012C9431102CF7
:105610009431342C9431442C9431562C9631F02E04
:105620009631F02E9631F02E9431D42C9431DF2C1B
:105630009631F02E9631F02E9631F02E9631F02ED6
:105640009631F02E9631F02E9631F02E9631F02EC6
:105650009631F02E9631F02E9631F02E9631F02EB6
:105660009631F02E9631F02E9631F02E9631F02EA6
:105670009631F02E9631F02E9531A32D96317F2E56
:105680009631F02E9631F02E9631F02E9631F02E86
:105690009631F02E9631F02E9631F02E9631F02E76
:1056A0009631F02E9631F02E9631F02E9631F02E66
:1056B0009631F02E9631F02E9631F02E9631F02E56
:1056C00094311F2C9631ED2E0A30C50A4502031C79
:1056D0000800C5019223AB312100650803197A2B1C
:1056E0000330E50A6502031C7A2B8B1316159610FE
:1056F0000000010020005B080319080022001E3092
:10570000C40A4402031C0800C40120005B080319FA
:105710000800DB035B08031D08007F302100EF0059
:105720007514080025000D082000AE00AE36AE3618
:105730002E1C9E2B2200C6015810080022000530A6
:10574000C60A4602031C08000530C60058140800AB
:10575000B301B2019B30B0002330B1002E083007F6
:1057600086002F08313D870001080319D22B103025
:1057700032020318CE2B3308203E86000230870009
:105780009B30B0002330B1002E08300784002F0872
:10579000313D850000088100B30AB20AAE0A031940
:1057A000AF0AAA2B3308203E8600023087009B30C8
:1057B0008101B30AB0002330B1002E083007860003
:1057C0002F08313D87000108031D0800AE0A0319A8
:1057D000AF0A08002900951CEF2B151215162200A0
:1057E0005008473EF6002230F701F73D7608860064
:1057F0007708870029001108810022005530D00A5F
:1058000050020318D001F30A080023009D1C0A2C43
:105810001D121D1622005408F13EF6002230F70139
:10582000F73D760886007708870023001908810075
:1058300022005530D40A54020318D401F40A080097
:10584000FE0012001E000130FE020030FF3B7F0808
:105850007E0403190034212C6400013080010131E1
:10586000FE020030FF3B7F087E04031900342D2C1C
:105870008D311B2D8D311E2D8D31212D8D31242DFE
:105880008D31272D8D312A2D8D313F2D8D31422D9A
:105890008D31452D8D31482D8D314B2D8D314E2D36
:1058A000A0313828A0313A28A0313C28A0313E2828
:1058B000A0314028A03142288E31EA2E8E31F22EBE
:1058C0008E31FA2E8F31022F8F310A2F8F31122F06
:1058D00028001715080020001C150800FF3FFF3F97
:1058E000FF3FFF3FFF3FFF3FFF3FFF3FFF3FFF3FC8
:1058F000FF3FFF3FFF3FFF3FFF3FFF3FFF3FFF3FB8
:10590000FF3FFF3FFF3FFF3FFF3FFF3FFF3FFF3FA7
:10591000FF3FFF3FFF3FFF3FFF3FFF3FFF3FFF3F97
:10592000FF3FFF3FFF3FFF3FFF3FFF3FFF3FFF3F87
:10593000FF3FFF3FFF3FFF3FFF3FFF3FFF3FFF3F77
:10594000FF3FFF3FFF3FFF3FFF3FFF3FFF3FFF3F67
:10595000FF3FFF3FFF3FFF3FFF3FFF3FFF3FFF3F57
:10596000FF3FFF3FFF3FFF3FFF3FFF3FFF3FFF3F47
:10597000FF3FFF3FFF3FFF3FFF3FFF3FFF3FFF3F37
:10598000FF3FFF3FFF3FFF3FFF3FFF3FFF3FFF3F27
:10599000FF3FFF3FFF3FFF3FFF3FFF3FFF3FFF3F17
:1059A000FF3FFF3FFF3FFF3FFF3FFF3FFF3FFF3F07
:1059B000FF3FFF3FFF3FFF3FFF3FFF3FFF3FFF3FF7
:1059C000FF3FFF3FFF3FFF3FFF3FFF3FFF3FFF3FE7
:1059D000FF3FFF3FFF3FFF3FFF3FFF3FFF3FFF3FD7
:1059E000FF3FFF3FFF3FFF3FFF3FFF3FFF3FFF3FC7
:1059F000FF3FFF3FFF3FFF3FFF3FFF3FFF3FFF3FB7
:105A0000FF3FFF3FFF3FFF3FFF3FFF3FFF3FFF3FA6
:105A1000FF3FFF3FFF3FFF3FFF3FFF3FFF3F46305E
:105A2000B1002330B2002F083107B3003008323DF7
:105A3000B400330886003408870006308100AF0ABE
:105A40000319B00AA6309731C627AD312000B10046
:105A50004630B2002330B3002F083207B4003008BC
:105A6000333DB500340886003508870031088100D1
:105A7000AF0A0319B00AA7309731C627AD3120000D
:105A8000B1004630B2002330B3002F083207B40013
:105A90003008333DB50034088600350887003108EA
:105AA0008100AF0A0319B00AA8309731C627AD317B
:105AB0002000B1004630B2002330B3002F08320777
:105AC000B4003008333DB50034088600350887003F
:105AD00031088100AF0A0319B00AA9309731C627EF
:105AE000AD312000B1004630B2002330B3002F08A2
:105AF0003207B4003008333DB5003408860035085D
:105B0000870031088100AF0A0319B00AAA30973123
:105B1000C627AD312000B1004630B2002330B300BB
:105B20002F083207B4003008333DB5003408860032
:105B30003508870031088100AF0A0319B00AAB307D
:105B40009731C627AD312000B1004630B200233076
:105B5000B3002F083207B4003008333DB5003408D5
:105B600086003508870031088100AF0A0319B00AA2
:105B7000A4309731C6272000B1004630B200233050
:105B8000B3002F083207B4003008333DB5003408A5
:105B900086003508870031088100AF0A0319B00A72
:105BA00008008B132000B80138085D3E86000130E4
:105BB00087000108B700B601B3013835D03E860032
:105BC000160001040319E62D0130E72D0030B50061
:105BD00002303706031D172E3835DC3E86000130B3
:105BE000870016000104031DFC2D3808203E8600A6
:105BF000013087008101302E3808203E86000130B8
:105C000087000108031D2E2E3835DC3E8600403FFC
:105C1000B000413FB100003031020A3003193002B8
:105C20000318302EB601B60AB301B30A302E37037B
:105C30000319262E033037060319262E04303706A3
:105C40000319262E05303706031D302E3808203E56
:105C500086000130870001080319302EB601B60A0C
:105C600036083504B200B40132080319662E21004B
:105C700067082000B000380A3E2EB036890B3D2E52
:105C8000301C4C2EAE01AE0A38088E31E726AD31FD
:105C90002000B401B40A772E22004708031D772E96
:105CA0002000AE01AE0A38088E31E726AD31013052
:105CB0002000B000380A5D2EB035890B5C2E30080C
:105CC0002100E70403302200C700482EAE01380847
:105CD0008E31E726AD3101302000B000380A712E38
:105CE000B035890B702E3008FF3A2100E7052000FF
:105CF00034080319C22E36080319AC2E02303706B9
:105D0000031DA62E33080319902E3835DC3E86007D
:105D100001308700810200304131813B7F31AC2E60
:105D20003808203E860001308700010803199C2EA8
:105D30003808203E860081033835DC3E860001307D
:105D4000870016000104031D852EAC2E3808203E66
:105D5000860001308700810335080319C22E3835CB
:105D6000D03E860001308700160001040319C22EC0
:105D70003835D03E86000130870081020030413145
:105D8000813B7F310630B80A3802031CD42D220033
:105D90004708031DC7038B17080020005B08031981
:105DA000080014303827AE31B6000A30B701B80009
:105DB000B9014027AE313908C2003808C1003708A0
:105DC000C0003608BF002100E40A6408E40A20008D
:105DD000BE0009303E020318FF2E14303827AE31C2
:105DE000BE000A303E02031CF72E4108F92E143083
:105DF00038278E313A262100EF0075100800210067
:105E00006408E40A2000BE000D303E0203180E2F85
:105E100063308E313A262100EF000800210064082B
:105E2000E40A2000BE0015303E020318252F14306E
:105E30003827AE31BE000A303E02031C212F3F0836
:105E4000F92E15302100E400080021006408E40A5E
:105E50002000BE001E303E020318352F63308E3105
:105E60003A262100EF00751408002100E401080023
:105E7000B200AE003330AF01AF0AA42733080800E8
:105E80003908AF003808AE003708B1003608B00056
:105E90006427AE312F08BD002E08BC003908AF00C2
:105EA0003808AE003708B1003608B000C7272F0801
:105EB000BB002E08BA003D08B9003C08B8003B08FA
:105EC000B7003A08B6000800B301AF1F6E2FAE0945
:105ED000AF09AE0A0319AF0AB301B30AB11F772F96
:105EE000B009B109B00A0319B10A0130B306B4010F
:105EF000B5012E082F040319972FB201B20AAF1B68
:105F0000842FAE35AF0D7E2FB435B50D2F0831027D
:105F1000031D8C2F2E083002031C932F2E08B00275
:105F20002F08B13B3414AF36AE0CB20B842F3308BC
:105F300003199F2FB409B509B40A0319B50A350826
:105F4000AF003408AE000800B1003108B0002300F3
:105F50009518A72F20002E08230091009201200001
:105F6000AF032F0FB42F080023009518B42F9513FB
:105F700015142000300886008701230013088100D3
:105F80002000B00A2300910A0319920AAF2FB3012F
:105F9000B11FD12FB009B109B00A0319B10AB30179
:105FA000B30AAF1FD82FAE09AF09AE0A0319AF0A63
:105FB0002E082F040319F32FB201B20AAF1BE32FEF
:105FC000AE35AF0DDD2F2F083102031DE92F2E084E
:105FD0003002031CEF2F2E08B0022F08B13BAF3662
:105FE000AE0CB20BE32F33080319FB2FB009B10934
:105FF000B00A0319B10A3108AF003008AE0008003A
:106000006E346734C5347934DD34613402341A3483
:1060100000340034FE34FD34FB34F734EF34DF3425
:10602000BF347F345034453452345F3456343234C4
:10603000003435342E34313436340034FF3FFF3FE2
:10604000FF3FFF3FFF3FFF3FFF3FFF3FFF3FFF3F60
:10605000FF3FFF3FFF3FFF3FFF3FFF3FFF3FFF3F50
:10606000FF3FFF3FFF3FFF3FFF3FFF3FFF3FFF3F40
:10607000FF3FFF3FFF3FFF3FFF3FFF3FFF3FFF3F30
:107FF000FF3FFF3FFF3FFF3FFF3FFF3FE93FAA3FFC
:020000040001F9
:080000000000000006000300EF
:04000E006CC9FFDFDB
:10E00000780005007800050078000500780005001C
:10E010007800050078000500000000000000000006
:10E020000000000000000000010003005000650037
:10E030007200690070006F0064002000780000002A
:10E040000034003400340034003400340034500014
:10E0500075006D00700020003100000000340034B5
:10E0600000340034003400340034003450007500B3
:10E070006D007000200032000000003400340034D5
:10E0800000340034003400340034500075006D005A
:10E0900070002000330000000034003400340034ED
:10E0A0000034003400340034500075006D007000FE
:10E0B0002000340000000034003400340034003408
:10E0C000003400340034500075006D0070002000F2
:10E0D00035000000003400340034003400340034D3
:10E0E00000340034500075006D00700020003600D0
:10E0F00000000034003400340034003400340034B4
:10E1000000340000000000000000000000000000DB
:10E1100000000000000000000000000000000000FF
:10E1200000000000000000000000000000000000EF
:10E1300000000000000021002200000064006400D4
:10E1400064006400640064006400000000000000DB
:10E150000000000000000000040021002200000078
:00000001FF
