:100E000087314C2FFF3FFF3F7E1487312100911E19
:100E1000102F2000911E102FAB31B22387314A2FA3
:100E20002100941E1A2F2000941E1A2F983108209A
:100E300087314A2F2100931C242F2000931C242F3C
:100E4000A0316C2087314A2F2100111C2E2F200049
:100E5000111C2E2FAA31482287314A2F2100911CC4
:100E6000382F2000911C382FAB31CD2387314A2FEA
:100E70002100111E422F2000111E422FAB31FB23F7
:100E800087314A2F2100141E4A2F2000141E4A2F9A
:100E9000AB31E7237E10090087314E2FFF30E00091
:100EA0002100EF0022000830DD00DE00DF00E0005E
:100EB000E100E200FF30E30047308400223085008B
:100EC000A930FE000130FF00AC311B2487314B30CC
:100ED000F001F101F201F301F401F50184000030A9
:100EE00085001530FE00FF01AC311B248731D8305E
:100EF0008400003085001730FE00FF01AC311B2458
:100F0000873120308400013085003D30FE00FF0134
:100F1000AC311B248731A03084000130850048307B
:100F2000FE00FF01AC311B248731203084000230E9
:100F300085005030FE000030FF01AC311B247E10D4
:100F40002000883103282000AE0127008C1CAB2F25
:100F50002000AE01AE0A27008C1DB12F2000AE018B
:100F6000AE0A2200901DB72F2000AE01AE0A22006B
:100F7000901CBD2F2000AE01AE0A2200101EC32F10
:100F80002000AE01AE0A2200901EC92F2000AE0143
:100F9000AE0A20002E080319EE2F02302200A80707
:100FA0000318A90A003029029630031928020318F1
:100FB000DC2F9630A800A90123302902283003191C
:100FC0002802031CEC2F2830A8002330A900EC2FA6
:100FD0000130A8020030A93B8C1408002200280828
:100FE0002904031DE82F8C100800A331D62BA33150
:100FF000E42BA331F32BA431172CA431362CFF3F63
:10100000FF3FFF3FFF3FCA011327883122000E1127
:1010100064302000AE00AF0102210B178B1799310D
:10102000DD21883199317F2188319D31B125883189
:101030000530282688312100EF00F4302000AE0072
:101040000130AF0002218831F4302000AE000130C1
:10105000AF00022188316330282688312100EF005B
:10106000FA302000AE00AF0102218831013028267D
:1010700088312100EF00F4302000AE000130AF00D5
:1010800002218831F4302000AE000130AF0002218F
:1010900088316330282688312100EF00FA302000A3
:1010A000AE00AF01022188310430282688312100AA
:1010B000EF00F4302000AE000130AF000221883193
:1010C000F4302000AE000130AF000221883124301E
:1010D000282688312100EF00F4302000AE000130D6
:1010E000AF0002218831F4302000AE000130AF00A3
:1010F000022115309731B727883128268831210001
:10110000EF00F4302000AE000130AF000221883142
:10111000F4302000AE000130AF000221883163308E
:10112000282688312100EF00FA302000AE00AF0100
:101130000221AC309731B727883128268831210029
:10114000EF00F4302000AE000130AF000221883102
:10115000F4302000AE000130AF00022188312000C1
:101160000C1CB8282430282688312100EF00B7282D
:101170006330282688312100EF000230B022883108
:101180002100ED19C6281E218831C028ED1120004C
:101190004A08031DE92822005813AD31D1258831B2
:1011A0001E218831003A031DDF282100660803193B
:1011B000DF2866089B314B2388312100E60121009E
:1011C0006D1CF22820000130CA01CA0AB022883101
:1011D000F228220000305817B022003A031DCA013D
:1011E00021006D10AE31CD2688311E218731A32715
:1011F00088311E21AB312C2388311E218831E9270B
:101200008831C328B101B2013208803AB0002F08FA
:10121000803A3002031D0E292E08310203180800FF
:1012200003302000B0009730890B1429B00B14292B
:1012300000322000B10A0319B20A04292200E50194
:10124000E50AA32A740803193529A231C722883177
:101250003A082200B300200039082200B200751DB0
:1012600035292100EF172200C90A730803193A290A
:101270008026883175132200E501AD2A143097319C
:10128000B72788312200E4009B3086002330870096
:101290004431010864060319982933082000BA0074
:1012A000220032082000B900A131F32188313A0828
:1012B0002200B100200039082200B0009B308600D7
:1012C00023308700623042310106031D8529283012
:1012D000B8000A30B9009B30860023308700033005
:1012E00046310106031D78299830B8003A30B9001C
:1012F0009B30860023308700083046310106031DED
:1013000096293030B800753095299B3086002330FF
:1013100087003D3042310106031D92298830B80014
:1013200013309529E830B8000330B900C8019A2974
:10133000C801C80AC90AAD2A33082000C700220024
:1013400032082000C60093312A2388314708220042
:10135000B300200046082200B200AE01AF01AC018C
:10136000AD019A29320833040319D82974080319E6
:10137000D829BA2688312200E60046302000C8006D
:101380002330C90022002E082000480786002200D2
:101390002F082000493D8700010822006606031D32
:1013A000F5160130B2020030B33BAE0A0319AF0AA2
:1013B000480BDD29B001B101032A300831040319BB
:1013C000032A73080319032A802688312200E600C5
:1013D0009C302000C8002230C90022002C082000C8
:1013E0004807860022002D082000493D870001089B
:1013F00022006606031D75170130B0020030B13BB4
:10140000AC0A0319AD0A32083304031D152A30084B
:101410003104031D152A3908AB003808AA004230F0
:10142000890B102A00322200C90AF51A192A751FE1
:10143000AD2A06308D2A480B1E2A192A9B308600B9
:10144000233087004431010A03192D2A14309731C3
:10145000B7278831013A0319792A22002A082B0478
:101460000319752A0E15730803196A2A2000111E24
:10147000602A0D3023001A06031D542A8026883165
:10148000C8004630860023308700480881001B3A98
:10149000031D5C2A1A302000C800F830890B4E2A40
:1014A000C80B4E2A00005C2A8026C8004630860001
:1014B00023308700480881000130A431D2248831CC
:1014C00022003908AB003808AA0004308E0600005C
:1014D00022008E060130AA020030AB3B2130890B7E
:1014E0006F2A0000053022008D2A0630C9000E1137
:1014F000AD2AA331AA238831192A740803198C2A2A
:10150000BA2688312200E600463086002330870064
:1015100066080106031D75170430C900AD2AF51DC4
:10152000922AF511751E952A7512F51A992A751FBA
:101530009B2AF51275137511C901E5012100EF13FE
:10154000AD2AC901AD2A49088400073004020318F6
:10155000A12AA8310435C83E82002200650808008F
:101560002000C200C1018B1342080319B92A2200CE
:10157000C301023020004206031D982DD901982D89
:101580001430BA00BB011E30F000F101EF30200032
:101590006006031DD92AC53022009005F5302700CA
:1015A0008C052200C10175102200C0012200C30A6F
:1015B0000A2EFE30852D1430282688312100EF00B8
:1015C0001430F000F101D42A2000600FF02AD90A6B
:1015D00059085C020318EE2AD901D90A3230852D48
:1015E00070087104031D0A2E59089B268831D90002
:1015F0005908031DFD2AFE30FE2A64302200C30074
:10160000CD30952D892BDF3020006006031D192B6E
:101610008C302200BA00BB016330282688312100BB
:10162000EF002200F030C101C10AC3003E30C20009
:101630000A2EEF306006031D272B14302200BA005B
:10164000BB016330282688312100EF00D42A000036
:101650000A2E2000D90A59085C020318B82BD901B8
:10166000D90AB82B2000600F0A2E3330852D2000B8
:101670005908282688312100EF003D30852DDF30C4
:1016800020006006031D542B14302200BA00BB0159
:101690006330282688312100EF0022004108031919
:1016A000112BF530C101152BEF306006031D272BE0
:1016B00014302200BA00BB01633028268831210093
:1016C000EF00D92A20005908282688312100EF0090
:1016D0002000600F0A2E3D2B0C3028268831210077
:1016E000EF002000600F0A2E0A30282688312100E2
:1016F000EF000530F000F101D62A4E2C700871047D
:10170000031D0A2E6330282688312100EF0078302F
:10171000852D2000B82BDF3020006006031DA92B8B
:10172000CD302200BA00BB01633028268831210069
:10173000EF002200C101C10A21006C132000D70173
:10174000D80121006C17EC17A0302200C200F03045
:10175000862DEF306006031D272BCD302200BA0006
:10176000BB016330B92B200059089B268831D90072
:101770005908282688312100EF00D62A2000600F62
:101780000A2E7930852D20005F081E3E062C200091
:101790005F081E3E282688312100EF00DF30200040
:1017A0006006031DE62B21006C13EC13CD302200E4
:1017B000BA00BB016330282688312100EF002200E7
:1017C000C101C30A4308C200F530862DEF30600620
:1017D000031DF92B21006C13EC13CD302200BA004D
:1017E000BB016330282688312100EF002200FE3043
:1017F000352C00000730200058023B3003195702F7
:10180000031C0A2E2200B430352C263028268831BD
:101810002100EF002000600F0A2ED62ADF302000C2
:101820006006031D202CCD302200BA00BB016330BE
:10183000282688312100EF002200C101C10AA12B16
:10184000EF306006031D272B21006C13EC13CD3005
:101850002200BA00BB010530282688312100EF00A4
:101860000530F000F1012200C830C101E32B7008FF
:101870007104031D0A2E0F30752BEF302000600617
:101880000319D62ADF3060060319D62A0A2E792CCE
:1018900070087104031D0A2E0130752B7008710445
:1018A000031D0A2E1230752B70087104031D0A2EB9
:1018B000A5309731B72788312000C3000130C00020
:1018C0005908FF3E890A652CC035890B642C4008F5
:1018D000FF3AC3054308B400A5309D315E25883129
:1018E0006330282688312100EF000130F000F1013B
:1018F000D92A70087104031D0A2E742B7008710414
:10190000031D0A2E1730752B70087104031D0A2E53
:101910000E30752B70087104031D072D0A3020004E
:10192000B400B5015808B7005708B600C42788317D
:101930003508D8003408D70000305802F5300319B4
:101940005702031CA62CF430D700D801A5309731DC
:10195000B72788312000C3000130C0005908FF3E7E
:10196000890AB32CC035890BB22C4008C304430844
:10197000B400A5309D315E258831E82C5708B400AD
:10198000A6309D315E258831F52C5708B400A7306C
:101990009D315E258831F52C5708B400A8309D3163
:1019A0005E258831F52C5708B400A9309D315E259D
:1019B0008831F52C5708B400AA309D315E25883156
:1019C000F52C5708B400AB309D315E258831F52CDD
:1019D0005908FF3E031CF52C84000630040203184E
:1019E000F52CAC310435333E820022005708031D2C
:1019F000012DAA31E1228831B400A4309D315E2549
:101A000088319D31B1258831FE302200C30058163F
:101A10000A2E27008C14292D27008C15292D220031
:101A20009015292D22009014292D22001016292D01
:101A300022009016292D20005908FF3E031C292D55
:101A40008400063004020318292DAC3104353F3ED2
:101A50008200751422004208862D27008C104D2D1F
:101A600027008C114D2D220090114D2D2200901039
:101A70004D2D220010124D2D220090124D2D2000D0
:101A80005908FF3E031C4D2D840006300402031844
:101A90004D2DAC3104354B3E820075102A2D0F3090
:101AA000282688312100EF000A30F000F1011430BF
:101AB0002200BA00BB01D62A700871040319D92A82
:101AC0000A2E2000C4010630440203187F2D44086A
:101AD000203E8600013087008101C000440A712D3C
:101AE000C035890B702D4008FF3A2100E705200022
:101AF000AE014408D52688312000C40A632D633026
:101B0000282688312100EF00FF302200C3000A2E72
:101B10002000600F932D7F3075142100EF0020000E
:101B2000C101C10A0A2E14302200BA00BB010A2EDC
:101B300022004308003A0319C02A013A0319DB2A9C
:101B4000033A0319E42A303A0319022B013A031924
:101B5000032B073A0319292B013A0319322B093AAF
:101B60000319372B013A03193F2B033A0319622B50
:101B70005A3A03196C2B013A03197D2B033A0319C6
:101B80007E2B1E3A0319892B013A03198B2B033A3A
:101B90000319B32B013A0319BE2BDB3A0319C32BEC
:101BA000013A0319C72B033A0319052C013A03190B
:101BB0000E2C173A0319372C013A03193D2C033A1E
:101BC0000319472C013A0319482C0F3A03194E2CDC
:101BD000013A0319542C713A0319792C013A03196B
:101BE0007E2C033A0319842C013A03198A2C3B3AC0
:101BF00003191B2D053A03193F2D0F3A03194F2DD9
:101C0000013A03195C2D053A0319612D013A0319B4
:101C1000882D0A2E22003A083B04031D122EFA30AA
:101C2000C300242E2000600F162E222EEF306006F7
:101C3000031D242E22002830C00A4002031C242E3B
:101C4000FE30C3002200C0018B17200041080800AD
:101C50002000AE00722E88306E2EBE306E2EC43044
:101C60006E2E94306E2EB2306E2E91306E2E8130EC
:101C70006E2EBC306E2E80306E2EB0306E2EA030A8
:101C80006E2E83306E2EC9306E2E86306E2EC13091
:101C90006E2EE1306E2E90306E2EA2306E2ECB3036
:101CA0006E2E87306E2EE0306E2EE7306E2E8A302C
:101CB0006E2E2B306E2EFD306E2EFE306E2EBF300F
:101CC0006E2EDF306E2EEF306E2EFB306E2EF73024
:101CD0006E2E7F306E2E77306E2EFF30AF007C2E52
:101CE000AF017C2E2E088400643004020318702E8D
:101CF000A8310435003E82007518AF132F08080084
:101D000073080319802E2100941222004F08473EC9
:101D1000860022308701873D01082000AE002200A6
:101D20005530CF0A4F020318CF01F3032100941658
:101D300020002E080800B000AE01AF01AF0A2F0846
:101D40005C02031CB52EB00A30085C020318AA2EF0
:101D5000B001B00A30085C3E8600013087000230D6
:101D60000106031D9E2EAE01AE0A2E080319003493
:101D70003008080074080319BA2E210091122200BD
:101D80005308F13E860022308701873D010820007C
:101D9000AE0022005530D30A53020318D301F403D6
:101DA0002100911620002E0808002000AF00082F07
:101DB0002E1CDD2E27008C14080027008C10080034
:101DC0002E1CE52E27008C15080027008C1108001A
:101DD0002E1CED2E22009015080022009011080004
:101DE0002E1CF52E220090140800220090100800EE
:101DF0002E1CFD2E220010160800220010120800D2
:101E00002E1C052F220090160800220090120800B8
:101E10002F0884000630040203180800AC31043592
:101E2000633E820008005D278831632788319B2745
:101E30008831B0278831B92788312D278831352757
:101E40008831492788310E110E1326008D1063301A
:101E5000751428262100EF000800013021009D00A4
:101E6000F0309E009B019C01080091121112483035
:101E700023009F0090309D0067309E00A0309B00A3
:101E800001309C002200D401D301F40121009116FD
:101E900008009412141248302900970090309500E1
:101EA00067309600A0309300013094002200D001EA
:101EB000CF01F3012100941608007230210099002F
:101EC0009A019801080022008C01FD3021008C004D
:101ED0002C3023008C0022008D01FF3021008D006A
:101EE0003F3024008D0022008E01FB3021008E0047
:101EF000FF3022008F0021008F0122009001C530A9
:101F0000210090002300900127008C01F53026006D
:101F10008C00813028008C0027008D013F30260086
:101F20008D00183028008D0029008D0121009513A7
:101F300022009D01080024302000980099013C30C7
:101F40009700B030960017082200E800E701200053
:101F500016082200E7042000111021001114F72FA9
:101F60007B309C0003309B009A019110210091145A
:101F7000FA2F3B3028009700C230960095012000D0
:101F8000931021009314FD2FB901BA0134083504D0
:101F90000319E42FB801B80AB51BD12FB435B50D1C
:101FA000CB2FB935BA0D35083702031DD92F3408A8
:101FB0003602031CE02F3408B6023508B73B39144B
:101FC000B536B40CB80BD12F3A08B5003908B400B7
:101FD0000800A60A0319A70A8C302702A0300319AB
:101FE0002602031C0800A601A7019A31062A200038
:101FF0001814080020001C150800280017150800F8
:10200000FF3FFF3FFF3FFF3FFF3FFF3FFF3FFF3FE0
:102010002000B000BE01BD015C083D0203189328FA
:102020003D085D3E86000130870001083006031937
:1020300087289128A630B72790312000AF003E08AE
:102040002F02031C2828A630B7279031200029280A
:102050003E08B100B2018528A730B7279031200093
:10206000AF003E082F02031C3A28A730B727903153
:1020700020003B283E08B300B4018528A830B727CC
:1020800090312000AF003E082F02031C4C28A830DE
:10209000B727903120004D283E08B500B6018528AD
:1020A000A930B72790312000AF003E082F02031C53
:1020B0005E28A930B727903120005F283E08B7007E
:1020C000B8018528AA30B72790312000AF003E081C
:1020D0002F02031C7028AA30B727903120007128E6
:1020E0003E08B900BA018528AB30B72790312000EF
:1020F000AF003E082F02031C8228AB30B727903177
:10210000200083283E08BB00BC01BE0091283D088A
:1021100084000630040203189128A8310435D63E05
:102120008200BD0A0C283E082200CD000800AC3019
:10213000B72790312000C3009B30860023308700F2
:1021400045310108C400053043024630BE0023304B
:10215000BF003C08031CB7283E07C0003D083F3DB8
:10216000C10040088600410887000430C1283E07AE
:10217000C0003D083F3DC10040088600410887007F
:1021800043088100BC0A0319BD0A43080319242926
:102190004408031D24294630BE002330BF003C08FC
:1021A0003E0786003D083F3D87008101BC0A0319B8
:1021B000BD0A3D08B5003C08B4002730B600C3276F
:1021C00090313508BD003408BC004630BE002330D5
:1021D000BF003C083E0786003D083F3D8700810167
:1021E000BC0A0319BD0A9B30B72790310F39200074
:1021F000BE004630BF002330C0003C083F07C1008E
:102200003D08403DC20041088600420887003E0864
:102210008100BC0A0319BD0A9E30B7279031200007
:10222000BE004630BF002330C0003C083F07C1005D
:102230003D08403DC20041088600420887003E0834
:102240008100BC0A0319BD0A02304302031C8A291B
:102250004408031D8A294630BE002330BF003C08D5
:102260003E07C0003D083F3DC100400886004108D0
:10227000870001308100BC0A0319BD0A3D08B50082
:102280003C08B4003630B600C32790313508BD0095
:102290003408BC004630BE002330BF003C083E0777
:1022A00086003D083F3D87008101BC0A0319BD0A35
:1022B0009B30B7279031890E0F392000BE00463081
:1022C000BF002330C0003C083F07C1003D08403D2F
:1022D000C20041088600420887003E088100BC0A0F
:1022E0000319BD0A9F30B72790312000BE00463049
:1022F000BF002330C0003C083F07C1003D08403DFF
:10230000C20041088600420887003E088100BC0ADE
:102310000319BD0A03304302031CF32944080319BF
:10232000952902304406031DF3294630BE002330B0
:10233000BF003C083E07C0003D083F3DC1004008CB
:1023400086004108870002308100BC0A0319BD0ADB
:102350003D08B5003C08B4004530B600C3279031B5
:102360003508BD003408BC004630BE002330BF0035
:102370003C083E0786003D083F3D87008101BC0ABE
:102380000319BD0A9C30B72790310F392000BE00D9
:102390004630BF002330C0003C083F07C1003D0865
:1023A000403DC20041088600420887003E08810087
:1023B000BC0A0319BD0AA030B72790312000BE0027
:1023C0004630BF002330C0003C083F07C1003D0835
:1023D000403DC20041088600420887003E08810057
:1023E000BC0A0319BD0A04304302031C5D2A4408D9
:1023F0000319FE2902304406031D5D2A4630BE0043
:102400002330BF003C083E07C0003D083F3DC100EF
:10241000400886004108870003308100BC0A031988
:10242000BD0A3D08B5003C08B4005430B600C327CF
:1024300090313508BD003408BC004630BE00233062
:10244000BF003C083E0786003D083F3D87008101F4
:10245000BC0A0319BD0A9C30B7279031890E0F3989
:102460002000BE004630BF002330C0003C083F07BC
:10247000C1003D08403DC200410886004208870077
:102480003E088100BC0A0319BD0AA130B72790316C
:102490002000BE004630BF002330C0003C083F078C
:1024A000C1003D08403DC200410886004208870047
:1024B0003E088100BC0A0319BD0A05304302031C13
:1024C000C32A02304406031DC32A4630BE0023300F
:1024D000BF003C083E07C0003D083F3DC10040082A
:1024E00086004108870004308100BC0A0319BD0A38
:1024F0003D08B5003C08B4006330B600C3279031F6
:102500003508BD003408BC004630BE002330BF0093
:102510003C083E0786003D083F3D87008101BC0A1C
:102520000319BD0A9D30B72790310F392000BE0036
:102530004630BF002330C0003C083F07C1003D08C3
:10254000403DC20041088600420887003E088100E5
:10255000BC0A0319BD0AA230B72790312000BE0083
:102560004630BF002330C0003C083F07C1003D0893
:10257000403DC20041088600420887003E088100B5
:10258000BC0A0319BD0A06304302031C08000230CE
:102590004406031D08004630BE002330BF003C083F
:1025A0003E07C0003D083F3DC1004008860041088D
:1025B000870005308100BC0A0319BD0A3D08B5003B
:1025C0003C08B4007230B600C32790313508BD0016
:1025D0003408BC004630BE002330BF003C083E0734
:1025E00086003D083F3D87008101BC0A0319BD0AF2
:1025F0009D30B7279031890E0F392000BE0046303C
:10260000BF002330C0003C083F07C1003D08403DEB
:10261000C20041088600420887003E088100BC0ACB
:102620000319BD0AA330B7272000BE004630BF0003
:102630002330C0003C083F07C1003D08403DC200B8
:1026400041088600420887003E088100BC0A031941
:10265000BD0A080021004630D601D701D401D501BA
:10266000D201D301CF018600233087001B30C03F49
:10267000D60A0319D70A4630C2002330C3005608D1
:10268000420786005708433D87008101D60A031997
:10269000D70A4630C2002330C300560842078600DE
:1026A0005708433D87008101D60A0319D70A9B309A
:1026B00086002330870042310108C2004630C30043
:1026C0002330C40056084307C5005708443DC600E0
:1026D000450886004608870042088100D60A03198B
:1026E000D70A9B308600233087004331010822003F
:1026F000CC0046302100C2002330C30056084207F8
:10270000C4005708433DC5004408860045088700BB
:1027100022004C0881002100D60A0319D70A143080
:10272000B72790312100C2004630C3002330C400D7
:1027300056084307C5005708443DC60045088600B3
:102740004608870042088100D60A0319D70A9B3041
:1027500086002330870044310108D1002200CE00DA
:102760001430B72790312100CE009B3086002330F3
:102770008700323042310102031C0D2F9B3086004E
:102780002330870064304231010203180D2F510AB3
:102790000319F12E51084E060319F12EB52C5708D6
:1027A0002000BD00210056082000BC00A931A42152
:1027B00090313D082100D70020003C08412C5708EB
:1027C0002000B000210056082000AF00A431EB2407
:1027D000903130082100D70020002F08412C5708E5
:1027E0002000BD00210056082000BC009720903139
:1027F0003D082100D70020003C08412C9B3086007A
:1028000023308700453101082000DB005B08031DF1
:102810000D2C7F302100EF00751446302100C200DE
:102820002330C30056084207C4005708433DC50083
:10283000440886004508870001308100D60A031944
:10284000D70A032F57082000B000210056082000A7
:10285000AF0098312320903130082100D7002000AC
:102860002F08412C57082000B000210056082000F6
:10287000AF00AD310F25903130082100D700200086
:102880002F082100D600032F0530D4009B30D5013E
:1028900086002330870045310108CC00D40A031993
:1028A000D50A9B30C2002330C3005408420786007B
:1028B0005508433D87000108C700C801D40A031921
:1028C000D50A9B30C2002330C3005408420786005B
:1028D0005508433D87000108C400C501C500C40177
:1028E0004408C7074508C83DD40A0319D50AAC30C7
:1028F000B727903121004C0203188D2C0E3048026E
:10290000113003194702031C9D2C4C35D03E860024
:10291000013087000030C03FC13F4630C200233045
:10292000C30056084207C4005708433DC500440889
:1029300086004508870003301D2C48082000AF00A2
:10294000210047082000AE000A30B000B1019F31DD
:10295000EB27903121004C35D03E860001308700B6
:1029600020002E08C03F2F08C13F46302100C20082
:102970002330C3005608420786005708433D8700AE
:1029800081011E2C05302000AE00AF01AB31702359
:1029900090313C302100E6000D2CCD0106304D0277
:1029A0000318DC2C2000AE0121004D088E31D52605
:1029B00090312100CD0ACE2C0530D4009B30D501BA
:1029C000D201D30186002330870045310108C900B8
:1029D000D40A0319D50A2400A0002100D20A031941
:1029E000D30A49080319812D5208203E860002307F
:1029F00087009B30C2002330C30054084207840084
:102A00005508433D850000088100D40A0319D50A02
:102A1000D20A0319D30ACF019B30C2002330C3006E
:102A20005408420786005508433D870001080319F2
:102A3000362D0E304F020318312D5208203E8600ED
:102A4000023087009B30C2002330C3005408420785
:102A500084005508433D850000088100D20A03190F
:102A6000D30ACF0AD40A0319D50A0C2D5208203EE6
:102A70008600023087009B30C2002330C300540818
:102A8000420784005508433D850000088100D40AB0
:102A90000319D50AD20A0319D30A9B30C200233086
:102AA000C3005408420786005508433D87000108CB
:102AB000CF00D40A0319D50A06304F020318CF01FC
:102AC0005208203E8600023087004F088100D20A5B
:102AD0000319D30A5208203E86009B30C2002330DF
:102AE000C3005408420784005508433D8500000890
:102AF0008100D40A0319D50AD20A0319D30AC903DB
:102B0000F12C9B30860023308700453101080319E2
:102B10000D2C3D30E6009B314B2390312100E60126
:102B20009D317E2590310D2C9B308600233087000F
:102B30000C304531B72790310106031DEF2D9B3036
:102B40008600233087000D304631B72790310106CB
:102B5000031DEF2D9B308600233087000E30473158
:102B6000B72790310106031DEF2D9B3086002330DF
:102B700087000F304831B72790310106031DEF2D34
:102B80009B3086002330870010304931B7279031C1
:102B90000106031DEF2D9B30860023308700113086
:102BA0004A31B72790310106031DEF2D9B30860077
:102BB0002330870012304B31B72790310106031DB7
:102BC000EF2D9B3086002330870013304C31B72720
:102BD00090310106031DEF2D22005811F12D220026
:102BE00058159B308600233087004D3101082100A5
:102BF0004E06031DFE2D2200D8100E2E22009B3003
:102C0000D8148600233087004D3101082100C2000E
:102C10004B30860023308700420881001530B727EB
:102C200090312100C2004630C3002330C400560852
:102C30004307C5005708443DC600450886004608BE
:102C4000870042088100D60A0319D70A4630C2001D
:102C50002330C30056084207C4005708433DC5004F
:102C6000440886004508870022005808810021009A
:102C7000D60A0319D70AAC30B72790312100C20019
:102C80004630C3002330C40056084307C500570828
:102C9000443DC6004508860046088700420881007A
:102CA000D60A0319D70A0230082090314630210095
:102CB000C2002330C30056084207C4005708433DF2
:102CC000C500440886004508870022004D088100A1
:102CD0002100D60A0319D70A22005812D812032F4E
:102CE0005130E6009B3086002330870045310108D3
:102CF0002400A0009B308600233087004631010865
:102D0000A1009B3086002330870047310108A200D4
:102D10009B3086002330870048310108A3009B3098
:102D200086002330870049310108A4009B308600CB
:102D3000233087004A310108A5009B3086002330EC
:102D400087004B310108A6009B30860023308700A6
:102D50004C310108A7009B308600233087004D319D
:102D60000108A8009B308600233087004E310108FF
:102D7000A9009B308600233087004D3101082100D7
:102D8000C2004B3086002330870042088100463065
:102D9000C2002330C30056084207C4005708433D11
:102DA000C500440886004508870001308100D60A26
:102DB0000319D70A2200D701D70A032FE501E50A34
:102DC0000D2C4630C2002330C30056084207C40011
:102DD0005708433DC5004408860045088700023077
:102DE0001D2C9B3086002330870042310108CE3EE7
:102DF000031CE12E8400323004020318E12EA031BE
:102E00000435003E820021004E0B102F51084E0663
:102E10000319102F510A0319102FD601D701AF2F14
:102E2000FF30D607031CD703FE30D607031CD70399
:102E30005708C200473086002330870042088100CF
:102E400048308600560881000230D6070318D70A9A
:102E50002200CB012100D001D00A5608013EC20059
:102E60000030573DC300803AC40080304402031D47
:102E70003B2F50084202031C5B2F21005008FF3EED
:102E80002000AE0021005008463E86002330870116
:102E9000873D0108E42790312100C2005008463EDA
:102EA000C3002330C401C43D4308860044088700A2
:102EB000420881002C2F47302000AE002330AF00A5
:102EC000210056082000B000A4319E2490312F0824
:102ED0002100CB0020002E082100CA00D60A0319C9
:102EE000D70A4B08C2004630C3002330C40056083E
:102EF0004307C5005708443DC600450886004608FC
:102F0000870042088100D60A0319D70A4630C2005A
:102F10002330C30056084207C4005708433DC5008C
:102F200044088600450887004A088100D60A03192C
:102F3000D70A4630C2002330C30056084207C400F7
:102F40005708433DC50044088600450887000D30FA
:102F50008100D60A0319D70A5608A431D22457088B
:102F60002000C700210056082000C60008002000ED
:102F7000AE002300910015139513151400000000F6
:102F80002300130808003608AF3138279031003A83
:102F9000031908003608B72790312000B7004630E3
:102FA000B8002330B90034083807BA003508393D75
:102FB000BB003A0886003B08870037088100B60A44
:102FC000B40A0319B50AC32F2000AF0004302E0243
:102FD000031CFE2F22004B08003E8400B030031873
:102FE000013E850000082000B00022000730CB0A17
:102FF000CB054C082000B0063008AF062F080800AB
:10300000FF3FFF3FFF3FFF3FFF3FFF3FFF3FFF3FD0
:103010002900951C0D281512151622005008473E50
:10302000F6002230F701F73D760886007708870022
:1030300029001108810022005530D00A50020318DF
:10304000D001F30A0800AC309731B727983120003F
:10305000B6004630B1002330B2002F083107B3006C
:103060003008323DB4003308860034088700360843
:103070008100AF0A0319B00A36080319712800301D
:103080009731B72798312000B1004630B200233085
:10309000B3002F083207B4003008333DB5003408C0
:1030A00086003508870031088100AF0A0319B00A8D
:1030B00001309731B72798312000B1004630B20077
:1030C0002330B3002F083207B4003008333DB50079
:1030D000340886003508870031088100AF0A0319DB
:1030E000B00A02303602031CA72802309731B727F6
:1030F00098312000B1004630B2002330B3002F08D1
:103100003207B4003008333DB50034088600350876
:10311000870031088100AF0A0319B00A03309731E4
:10312000B72798312000B1004630B2002330B300F9
:103130002F083207B4003008333DB500340886004C
:103140003508870031088100AF0A0319B00A03303F
:103150003602031CDD2804309731B7279831200050
:10316000B1004630B2002330B3002F083207B4005C
:103170003008333DB5003408860035088700310833
:103180008100AF0A0319B00A05309731B72798318B
:103190002000B1004630B2002330B3002F083207C0
:1031A000B4003008333DB500340886003508870088
:1031B00031088100AF0A0319B00A04303602031C3B
:1031C000132906309731B72798312000B1004630D7
:1031D000B2002330B3002F083207B4003008333D6B
:1031E000B500340886003508870031088100AF0A31
:1031F0000319B00A07309731B72798312000B10082
:103200004630B2002330B3002F083207B400300834
:10321000333DB50034088600350887003108810049
:10322000AF0A0319B00A05303602031C49290830D9
:103230009731B72798312000B1004630B2002330D3
:10324000B3002F083207B4003008333DB50034080E
:1032500086003508870031088100AF0A0319B00ADB
:1032600009309731B72798312000B1004630B200BD
:103270002330B3002F083207B4003008333DB500C7
:10328000340886003508870031088100AF0A031929
:10329000B00A06303602031C08000A309731B727FF
:1032A00098312000B1004630B2002330B3002F081F
:1032B0003207B4003008333DB500340886003508C5
:1032C000870031088100AF0A0319B00A0B3097312B
:1032D000B7272000B1004630B2002330B3002F08DA
:1032E0003207B4003008333DB50034088600350895
:1032F000870031088100AF0A0319B00A0800AC301A
:103300009731B72799312000DC00833008239931A9
:103310003208D6003108D5003008D4002F08D30079
:103320008730082399313208D2003108D1003008A3
:10333000D0002F08CF008B30082399313208CE00FF
:103340003108CD003008CC002F08CB008F30082387
:10335000993132082100E300200031082100E20009
:10336000200030082100E10020002F082100E000AB
:1033700093300823993132082100DF002000310802
:103380002100DE00200030082100DD0020002F0891
:103390002100DC0097300823993132082100DB003E
:1033A000200031082100DA00200030082100D90077
:1033B00020002F082100D8007E2DCF3020000D04E2
:1033C000B700CF3A031D0800C7240E308E312826DF
:1033D00099312100EF000B302000B8002630B700F3
:1033E0005D30890BF129B70BF129B80BF1290032B7
:1033F000CF3020000D04B700370FF82921006D10E1
:1034000063308E3128262100EF000800813097318B
:10341000B72799312000C00082309731B727993102
:103420002000C100C00A0319C10A4008B40081305D
:103430005E2599314108B40082305E259931833090
:103440000823993156083206031D302A55083106E3
:10345000031D302A54083006031D302A53082F0656
:1034600003193E2A5608BA005508B9005408B80096
:103470005308B7008330BB002C23993187300823D1
:10348000993152083206031D4F2A51083106031D97
:103490004F2A50083006031D4F2A4F082F060319E4
:1034A0005D2A5208BA005108B9005008B8004F0808
:1034B000B7008730BB002C2399318B30082399311A
:1034C0004E083206031D6E2A4D083106031D6E2A72
:1034D0004C083006031D6E2A4B082F0603197C2A60
:1034E0004E08BA004D08B9004C08B8004B08B700A8
:1034F0008B30BB002C2399318F3008239931210068
:10350000630820003206031D952A2100620820006E
:103510003106031D952A2100610820003006031D95
:10352000952A2100600820002F060319AB2A2100EC
:1035300063082000BA00210062082000B9002100C1
:1035400061082000B800210060082000B7008F301B
:10355000BB002C23993193300823993121005F0857
:1035600020003206031DC42A21005E082000310617
:10357000031DC42A21005D0820003006031DC42A53
:1035800021005C0820002F060319DA2A21005F08B9
:103590002000BA0021005E082000B90021005D086B
:1035A0002000B80021005C082000B7009330BB0069
:1035B0002C23993197300823993121005B08200092
:1035C0003206031DF32A21005A0820003106031D8C
:1035D000F32A2100590820003006031DF32A210098
:1035E000580820002F060319080021005B0820005E
:1035F000BA0021005A082000B90021005908200013
:10360000B800210058082000B7009730BB002C2BD1
:103610002000B8009731B72799312000B400B80ACC
:1036200038089731B72799312000B500B80A380813
:103630009731B72799312000B600B80A380897317A
:10364000B7272000B700B80AB2003608B100350825
:10365000B0003408AF0008003A08BF003908BE00C7
:103660003808BD003708BC00B4003B085E2599311E
:10367000BB0A3D08B4003B085E259931BB0A3E08F1
:10368000B4003B085E259931BB0A3F08B4003B08F3
:103690005E25BB0A08002000C000C501840052302E
:1036A000040203180800A9310435003E8200080016
:1036B0001630C3004508203E86000230870001080E
:1036C00003196D2B4508203E86000108B40043080D
:1036D0005E259931C50AC30A5A2BB40143085E25F9
:1036E000C30A0800240020082000C100C50A4108C0
:1036F00003197D2C4508203E860002308700010812
:10370000C200C50A902B27308E2B36308E2B4530C9
:103710008E2B54308E2B63308E2B7230C300A62B31
:1037200042088400063004020318A62BA831043591
:10373000E23E82004508203E8600023087000108F4
:10374000B40043085E259931C50AC30A4508203EE6
:103750008600023087000108031D9A2BB40143083C
:103760005E259931C50A712C9B309731B727993165
:103770002000C400F030C4054508203E8600023019
:10378000870001080F39C404C50A4408B4009B30FF
:103790005E2599314508203E8600023087000108E9
:1037A000B4009E305E259931C50A7B2C9B30973141
:1037B000B72799312000C4000F30C4054508203ECA
:1037C000860002308700010EF039C404C50A44089F
:1037D000B4009B305E2599314508203E86000230BA
:1037E00087000108B4009F30D22B9C309731B72757
:1037F00099312000C400F030C4054508203E860001
:103800000230870001080F39C404C50A4408B40017
:103810009C305E2599314508203E860002308700A5
:103820000108B400A030D22B9C309731B7279931D2
:103830002000C4000F30C4054508203E8600023039
:103840008700010EF039C404C50A4408B4009C3056
:103850005E2599314508203E860002308700010828
:10386000B400A130D22B9D309731B7279931200079
:10387000C400F030C4054508203E860002308700B1
:1038800001080F39C404C50A4408B4009D305E2500
:1038900099314508203E8600023087000108B400B7
:1038A000A230D22B9D309731B72799312000C40028
:1038B0000F30C4054508203E860002308700010E07
:1038C000F039C404C50A4408B4009D305E2599311E
:1038D0004508203E8600023087000108B400A3306E
:1038E000D22B420884000630040203187B2CA83136
:1038F0000435EE3E8200C103772BB12599317E2D30
:10390000240020082000B4000C305E2599312400EA
:1039100021082000B4000D305E25993124002208D2
:103920002000B4000E305E259931240023082000C9
:10393000B4000F305E259931240024082000B40023
:1039400010305E259931240025082000B400113084
:103950005E259931240026082000B40012305E252F
:103960009931240027082000B40013305E259931D6
:10397000240028082000B40014305E25993124006A
:1039800029082000B400A4305E259931B12D0C30F7
:10399000B4015E2599310D30B4015E2599310E30A8
:1039A000B4015E2599310F30B4015E259931103094
:1039B000B4015E2599311130B4015E259931123080
:1039C000B4015E2599311330B4015E25993114306C
:1039D000B401B40A5E2599311630B4015E259931DF
:1039E0002730B4015E2599313630B4015E25993116
:1039F0004530B4015E2599315430B4015E259931CA
:103A00006330B4015E2599317230B4015E25AD306A
:103A10009731B72799312000B4009B305E25AE3036
:103A20009731B72799312000B4009C305E25AF3024
:103A30009731B72799312000B4009D305E25993128
:103A40006430B4009E305E2599316430B4009F30FC
:103A50005E2599316430B400A0305E259931643020
:103A6000B400A1305E2599316430B400A2305E25E7
:103A700099316430B400A3305E259931A530B4018A
:103A80005E259931A630B4015E259931A730B40185
:103A90005E259931A830B4015E259931A930B40171
:103AA0005E259931AA30B4015E259931AB30B4015D
:103AB0005E2599316430B400A4305E2DB50023003A
:103AC0009100200034082300930095131513151559
:103AD00000308B1B01302000B6008B1355302300C3
:103AE0009600AA30960095149518742D1511200093
:103AF000360C031C8B1303188B1708009B3097316F
:103B0000B72799312000AF002200DD000F30DD051E
:103B100020002F0E0F392200DE000F30DE059C3012
:103B20009731B72799312000AF002200DF000F3016
:103B3000DF0520002F0E0F392200E0000F30E005D6
:103B40009D309731B7272000AF002200E1000F30F1
:103B5000E10520002F0E0F392200E2000F30E205B0
:103B60000800A4309731B72799312000DE000430D7
:103B70005E020318BD2D0430DE005E08BB00BB36BC
:103B8000BB363B082100A2002000AE000A30AF0186
:103B9000B000B101EB2799312F082100BD002000B2
:103BA0002E082100BC0000303D020B3003193C02FE
:103BB0000318DD2DA901AA01E32D3C08F63EA9005A
:103BC000FF303D3DAA003C08143EA00000303D3DC2
:103BD000A10020005E082100A400A5309731B7277E
:103BE00099312100A3009E30A500A630A600C00197
:103BF000250840079731B72799312100A7002308EE
:103C00002000BB002100400A2000072EBB36890B94
:103C1000062E3B180E2E21002408152E2100260802
:103C200040079731B72799312100AB00AC01A800BC
:103C30000A302000B400B501210027082000AE00A2
:103C4000AF01210028082000B000B101EB272F08A8
:103C5000B7002E08B6008F31C427993121004035B6
:103C6000AD3E8600870120003408C03F3508C13FC3
:103C700021000630C00A4002031CF82DB901BA0128
:103C800039082000BB00A030BB35BB35BB353B0736
:103C9000BC0021003A3520003C07BD008600013001
:103CA00087000030C03FC13F21000430BA0A3A0209
:103CB000031C402E0630B90A3902031C3F2EC101F5
:103CC00041085D3E86000130870002300106031D79
:103CD000CA2F4135AD3E86008701403F2000BB0022
:103CE000413FBC0000303C02283003193B0203185E
:103CF000A92EB32EBB0104303B020318A92E413577
:103D0000AD3E86008701160001040319A72E410865
:103D10002000BB00A030BB35BB35BB353B07BC002A
:103D200021003B3520003C07BD00860001308700A4
:103D3000810741310318810A21004135AD3E8600DB
:103D400001308701810200304131813B7F31BB0A64
:103D50007B2E21004135AD3E86008701160001040F
:103D60000319422F7A2E21004135AD3E860087018E
:103D70004108090709070907A03E840001308500B2
:103D8000403F803F413F813F4135AD3E8600403F4F
:103D90002000BB00413FBC0000303C02143003193E
:103DA0003B02031C022F0A30BB00BC01210041086A
:103DB000090709070907A03E860001308700200097
:103DC0003B08C03F3C08C13F21004135AD3E860065
:103DD0008701403F2000BB00413FBC003B08F63E4E
:103DE000BD00FF303C3DBE00210041080907090726
:103DF0000907A23E86000130870020003D08C03F31
:103E00003E08C13F21004135AD3E86008701403F5D
:103E10002000BB00413FBC0000303C021E300319B3
:103E20003B02031C422F0A30BB00BC0121004108A9
:103E3000090709070907A23E860001308700200014
:103E40003B08C03F3C08C13F21004135AD3E8600E4
:103E50008701403F2000BB00413FBC003B08EC3ED7
:103E6000BD00FF303C3DBE002100410809070907A5
:103E70000907A43E86000130870020003D08C03FAE
:103E80003E08C13F2100BF0103303F020318CA2F83
:103E9000A82F41082000BB00A030BB35BB35BB3587
:103EA0003B07BC0021003F3520003C07BD008600D9
:103EB00001308700403FBE00413FBF0021003D0868
:103EC00020003F02031D682F21003C0820003E0215
:103ED0000318C72F21004108090709070907A63E53
:103EE000860001308700403F2000BB00413FBC00FE
:103EF0002100210820003C02031D822F2100200800
:103F000020003B020318C72F210041082000BB00FE
:103F1000A030BB35BB35BB353B07BC0021003F356E
:103F200020003C07BD008600013087008102003080
:103F30004131813B7F312100410809070907090709
:103F4000A63E860001308700810741310318810AAF
:103F500041082000BB00A030BB35BB35BB353B075B
:103F6000BC0021003F3520003C07BD008600013029
:103F70008700403FBE00413FBF0021002A02031DD1
:103F8000C52F20003E0821002902031C492F2100D3
:103F9000BF0A442F0630C10A4102031C602EBE0135
:103FA00006303E020318E72F3E08090709070907F4
:103FB000A03E8600013087003E35DC3E84000130A3
:103FC0008500403F803F413F813FBE0AD02FFF30F8
:103FD0002000DD000800B201B3012E1CF32F3008D1
:103FE000B2073108B33DB035B10DAF36AE0C2E0877
:103FF0002F04031DED2F3308AF003208AE00080078
:104000009331CF2B9331DF2B9331EF2B9331FE2B59
:104010009431222C9431322C9431442C9631E12E5F
:104020009631E12E9631E12E9431C22C9431CD2C73
:104030009631E12E9631E12E9631E12E9631E12E28
:104040009631E12E9631E12E9631E12E9631E12E18
:104050009631E12E9631E12E9631E12E9631E12E08
:104060009631E12E9631E12E9631E12E9631E12EF8
:104070009631E12E9631E12E9531942D9631702EA8
:104080009631E12E9631E12E9631E12E9631E12ED8
:104090009631E12E9631E12E9631E12E9631E12EC8
:1040A0009631E12E9631E12E9631E12E9631E12EB8
:1040B0009631E12E9631E12E9631E12E9631E12EA8
:1040C00094310D2C9631DE2EFF3FFF3FFF3FFF3F27
:1040D000FF3FFF3FFF3FFF3F93100D08AB00F03065
:1040E000AB042B187A280A3021006B0203187E28B3
:1040F000EB0A7E2821006B08031DEB0320002B0830
:10410000A000A0362018A928A401A70127085D3E19
:1041100086000130870002300106031D9A28210025
:1041200067082000A000270A9628A036890B95284A
:104130002018A40A0630A70A2702031C8628240890
:10414000031DAD280A3021006A020318AD28EA0ACF
:10415000AD2821006A08031DEA0320002B08A000F7
:10416000A036A0362018BB280A30210069020318A7
:10417000BF28E90ABF2821006908031DE9032000C0
:104180002B08A000A036A036A0362018CE280A3072
:10419000210068020318D228E80AD2282100680802
:1041A000031DE80322005C08031DF2280A302100E9
:1041B0006B02031CF32813302200DC002000A8014E
:1041C00028085D3E860001308700010BEC28280896
:1041D000203E86000A3081070630A80A280203180C
:1041E000F328E028DC0322005A08031D15290A30B1
:1041F00021006902031C162913302200DA00200076
:10420000A90129085D3E86000130870003300106C0
:10421000031D0F292908203E86000A308107063039
:10422000A90A2902031816290129DA0322005908CC
:10423000031D38290A3021006802031C3929133074
:104240002200D9002000AA012A085D3E8600013024
:10425000870004300106031D32292A08203E86000B
:104260000A3081070630AA0A2A02031839292429AC
:10427000D90322005B08031DDB290A3021006A02F2
:10428000031C080013302200DB002000AC012C08C6
:104290005D3E860001308700023001060319572970
:1042A0002C085D3E860005300106031D5E292C08A2
:1042B000203E8600013087000A3081070630AC0AB4
:1042C0002C02031C4729DD0A6330A5005E08A0000C
:1042D000A036A0362008A6005D082606031D732917
:1042E000A501A50AAF292608A000A101A035A10DAE
:1042F0005D08A200A30121082306031D81292008CF
:104300002206031D8529023099292608F60003306C
:10431000F701F800F901DE21A0315D08A000A1013C
:1043200077082106031D962976082006031D9B2980
:104330000330A500AF295E08023EA000003003183C
:104340000130A100803A803C031DA82920085D02AD
:10435000031CAF292000DD01A501DD21A031633060
:104360002000250603190800AD012D085D3E8600DA
:104370000130870002300106031DD5292D08A00059
:10438000A030A035A035A0352007A1002535210794
:10439000A20086002D35DC3E840001308500403FC0
:1043A00080070131413F803D3F310630AD0A2D028B
:1043B00003180800B529DB0308000800FA01FB0117
:1043C000761CE6297808FA077908FB3DF835F90DDF
:1043D000F736F60C76087704031DE0297B08F70012
:1043E0007A08F600080025000D082000BB00BB3647
:1043F000BB363B1CC42A9C308600223087001B3011
:10440000C03FC401C40AC5013908023EBB000030E8
:104410003A3DBC00803ABD004508803A3D02031D8C
:10442000132A44083B02031C362A9A302000BB00A2
:104430002330BC0044083B07860045083C3D87000C
:104440000108BD009C30BE002230BF0044083E077A
:10445000C00045083F3DC100400886004108870074
:104460003D088100C40A0319C50A042A9C3086004D
:10447000223087005030433101069C3086002230C4
:10448000870003194C2A513043310106031D4E2A7F
:104490009C308600223087004E31810A2200CB01F9
:1044A0002000C601C60A3A08803ABB0080303B02B1
:1044B000031D5C2A46083902031C7A2A200046089C
:1044C000FF3EAE0046089C3E860022308701873DB5
:1044D00001089731E427A131BB0046089C3EBC008F
:1044E0002230BD01BD3D3C0886003D0887003B08E9
:1044F0008100522A9D302000AE002230AF003908E2
:10450000B0009E24A1312F08C3002E08C20043082A
:10451000BB009D30BC002230BD0039083C07BE0006
:104520003A083D3DBF003E0886003F0887003B0833
:1045300081009E30BB002230BC0039083B07BD0023
:104540003A083C3DBE003D0886003E088700420810
:1045500081009F30BB002230BC0039083B07BD0002
:104560003A083C3DBE003D0886003E0887000D30FD
:1045700081003908043EDF2420003908043EB900D8
:1045800000303A3DBA000800B901BA0108008E3186
:10459000BA26A131BF00962B751DD02AF515A12B87
:1045A0001B3020003F06031DA12BDA012200B601BB
:1045B000B7012200CA0AA12B20005A089B3EBB006B
:1045C0002330BC01BC3D3B0886003C0887003F0807
:1045D0008100DA0A3F080319F02A2200CA01A12B40
:1045E000F201D92A20005A089B3EBB002330BC01AF
:1045F000BC3D3B0886003C0887003F088100DA0A82
:104600003F08F2044F307202031C0E2B9B30DA017C
:104610008600233087000030C03FED2A2200CA0AFE
:104620007208B6000230B701B6070318B70AF20ADB
:10463000F20AA12B20005A089B3EBB002330BC018C
:10464000BC3D3B0886003C0887003F088100DA0A31
:10465000F203D92A72080319A12B20005A089B3EA5
:10466000BB002330BC01BC3D3B0886003C088700F2
:104670003F088100DA0AF20BA12B9B30AE002330F9
:10468000AF007208B0009E24A1312E082F04031938
:10469000D92AF517ED2A20005A089B3EBB0023308B
:1046A000BC01BC3D3B0886003C0887003F088100F8
:1046B0009B30DA0A8600233087004331010822004C
:1046C000CC00CB012000BE019B3086002330870048
:1046D00041310108023EBB00003003180130BC002C
:1046E000803A803C031D762B3B083E020318942B36
:1046F00020003E08AE003E089B3E86002330870126
:10470000873D01089731E427A131BB003E089B3E5D
:10471000BC002330BD01BD3D3C0886003D0887003C
:104720003B088100BE0A642B7515ED2A22004A0859
:104730008400063004020318ED2AAC310435273E0C
:104740008200220037082000BA002200360820002C
:10475000B90008002000BE01C101BF0122003908D4
:104760002000BD00220038082000BC00BC35BD0D73
:10477000BB0122000E1520003C083D0403199B2CB0
:1047800073080319922C8E318026A131C0002200BB
:1047900039082000BD00220038082000BC00053088
:1047A000BC35BD0D3E02031C882C922C1B304006EC
:1047B000031D922C4630C10186002330870040083B
:1047C000C03FC10ABE0A922C4108463EB9002330C0
:1047D000BA01BA3D390886003A08870040088100CE
:1047E000C10ABF01E22B4108463EB9002330BA019D
:1047F000BA3D390886003A08870040088100C10A9E
:104800004008BF043F08023EBB0072303F02031C59
:10481000132C4630C1018600233087000030C03F92
:104820002000BE01922CBE0ABF0ABF0A922C3F088C
:104830000319922C4108463EB9002330BA01BA3D13
:10484000390886003A08870040088100C10ABF0B7A
:10485000922C4630AE002330AF003F08B0009E24BB
:10486000A1312E082F040319E22B102C4108463EDB
:10487000B9002330BA01BA3D390886003A088700EA
:1048800040088100C10A4108463E86002330870166
:10489000873D8101C10A4108463E860023308701D9
:1048A000873D46308101C10A8600233087004431AC
:1048B00001082200CC000430CB012000AE004630BD
:1048C000860023308700453101089731E427A13164
:1048D000C00022004E06031D102C20003B08043EA1
:1048E000D224A13108302000B900C930890B762CC0
:1048F000B90B762C003274080319822C8E31BA263B
:10490000A131722C2000BE0ABC01BC0ABD01922C50
:104910003E088400053004020318922C87310435C8
:10492000F53E82000130BC020030BD3B2130890BD6
:10493000972C0000BB2B22000E1108002F08B50099
:104940002E08B400B701B801CA2C34088600350817
:1049500087000108B100B201B200B1013108B70609
:104960003208B806B40A0319B50A0830B600B81FF1
:10497000C62C3808B2003708B1002130B135B20D6D
:104980003106B70010303206B800C82CB735B80D64
:10499000B60BB72CB003300FA52C3808AF00370882
:1049A000AE0008002000AE00210011122200D50147
:1049B00020002E082200D600210011160800AE00AB
:1049C000210014122200D10120002E082200D20062
:1049D000210014160800AC309731B727A43120000D
:1049E000B70081309731B727A4312000B10046309D
:1049F000B2002330B3002F083207B4003008333D33
:104A0000B500340886003508870031088100AF0AF8
:104A10000319B00A82309731B727A4312000B100C2
:104A20004630B2002330B3002F083207B4003008FC
:104A3000333DB50034088600350887003108810011
:104A4000AF0A0319B00A4630B1002330B2002F0874
:104A50003107B3003008323DB40033088600340813
:104A6000870037088100AF0A0319B00A3708031915
:104A7000A52D4630B1002330B2002F083107B30016
:104A80003008323DB40033088600340887005308EC
:104A90008100AF0A0319B00A5408B1004630B200D1
:104AA0002330B3002F083207B4003008333DB5007F
:104AB000340886003508870031088100AF0A0319E1
:104AC000B00A5508B1004630B2002330B3002F08B9
:104AD0003207B4003008333DB5003408860035088D
:104AE000870031088100AF0A0319B00A5608B100E7
:104AF0004630B2002330B3002F083207B40030082C
:104B0000333DB50034088600350887003108810040
:104B1000AF0A0319B00AA5309731B727A43101397C
:104B20002000B1004630B2002330B3002F08320716
:104B3000B4003008333DB5003408860035088700DE
:104B400031088100AF0A0319B00A02303702031C92
:104B5000162E4630B1002330B2002F083107B300C3
:104B60003008323DB40033088600340887004F080F
:104B70008100AF0A0319B00A5008B1004630B200F4
:104B80002330B3002F083207B4003008333DB5009E
:104B9000340886003508870031088100AF0A031900
:104BA000B00A5108B1004630B2002330B3002F08DC
:104BB0003207B4003008333DB500340886003508AC
:104BC000870031088100AF0A0319B00A5208B1000A
:104BD0004630B2002330B3002F083207B40030084B
:104BE000333DB50034088600350887003108810060
:104BF000AF0A0319B00AA5309731B727A431893617
:104C000001392000B1004630B2002330B3002F0834
:104C10003207B4003008333DB5003408860035084B
:104C2000870031088100AF0A0319B00A0330370248
:104C3000031C8A2E4630B1002330B2002F08310702
:104C4000B3003008323DB4003308860034088700D2
:104C50004B088100AF0A0319B00A4C08B100463076
:104C6000B2002330B3002F083207B4003008333DC0
:104C7000B500340886003508870031088100AF0A86
:104C80000319B00A4D08B1004630B2002330B3001A
:104C90002F083207B4003008333DB50034088600D1
:104CA0003508870031088100AF0A0319B00A4E08A1
:104CB000B1004630B2002330B3002F083207B400F1
:104CC0003008333DB50034088600350887003108C8
:104CD0008100AF0A0319B00AA5309731B727A43174
:104CE0002000B100B136B13631080139B20046308A
:104CF000B3002330B4002F083307B5003008343D2B
:104D0000B600350886003608870032088100AF0AF1
:104D10000319B00A04303702031C072F4630B100D4
:104D20002330B2002F083107B3003008323DB40001
:104D300033088600340887002100600881002000C5
:104D4000AF0A0319B00A210061082000B100463003
:104D5000B2002330B3002F083207B4003008333DCF
:104D6000B500340886003508870031088100AF0A95
:104D70000319B00A210062082000B1004630B200D9
:104D80002330B3002F083207B4003008333DB5009C
:104D9000340886003508870031088100AF0A0319FE
:104DA000B00A210063082000B1004630B200233071
:104DB000B3002F083207B4003008333DB500340883
:104DC00086003508870031088100AF0A0319B00A50
:104DD000A5309731B727A4312000B100B136B136E4
:104DE000B13631080139B2004630B3002330B40087
:104DF0002F083307B5003008343DB600350886006B
:104E00003608870032088100AF0A0319B00A05305E
:104E10003702031C812F4630B1002330B2002F0827
:104E20003107B3003008323DB4003308860034083F
:104E3000870021005C0881002000AF0A0319B00A36
:104E400021005D082000B1004630B2002330B300DD
:104E50002F083207B4003008333DB500340886000F
:104E60003508870031088100AF0A0319B00A210014
:104E70005E082000B1004630B2002330B3002F0896
:104E80003207B4003008333DB500340886003508D9
:104E9000870031088100AF0A0319B00A21005F08BA
:104EA0002000B1004630B2002330B3002F08320793
:104EB000B4003008333DB50034088600350887005B
:104EC00031088100AF0A0319B00AA5309731B7271E
:104ED000A431890E0F3901392000B1004630B200EB
:104EE0002330B3002F083207B4003008333DB5003B
:104EF000340886003508870031088100AF0A03199D
:104F0000B00A06303702031C08004630B1002330D7
:104F1000B2002F083107B3003008323DB400330827
:104F20008600340887002100580881002000AF0A5D
:104F30000319B00A210059082000B1004630B20020
:104F40002330B3002F083207B4003008333DB500DA
:104F5000340886003508870031088100AF0A03193C
:104F6000B00A21005A082000B1004630B2002330B8
:104F7000B3002F083207B4003008333DB5003408C1
:104F800086003508870031088100AF0A0319B00A8E
:104F900021005B082000B1004630B2002330B3008E
:104FA0002F083207B4003008333DB50034088600BE
:104FB0003508870031088100AF0A0319B00AA5300F
:104FC0009731B727A4312000B1000530B136890BE5
:104FD000E62F31080139B2004630B3002330B40067
:104FE0002F083307B5003008343DB6003508860079
:104FF0003608870032088100AF0A0319B00A08009A
:105000008E312B2E8E312D2E8E312F2E8E31312E34
:105010008E31332E8E31352E8E31372E8E31392E04
:105020008E313B2E8E313D2E8E313F2E8E31412ED4
:105030008E31432E8E31452E8E31472E8E31492EA4
:105040008E314B2E8E314D2E8E314F2E8E31512E74
:105050008E31532E8E31552E8E31352E8E31572E68
:105060008E31592E8E31702E8E31702E8E31702EE3
:105070008E31702E8E31702E8E315B2E8E315D2EE4
:105080008E315F2E8E31612E8E31632E8E31652EE4
:105090008E31672E8E31692E8E316B2E8E31702EB1
:1050A0008E31702E8E31702E8E31702E8E31702E8C
:1050B0008E31702E8E31702E8E31702E8E31702E7C
:1050C0008E31702E8E31702E8E31702E8E31702E6C
:1050D0008E31702E8E31702E8E31702E8E31702E5C
:1050E0008E31702E8E31702E8E31702E8E31702E4C
:1050F0008E31702E8E31702E8E31702E8E31702E3C
:105100008E31702E8E31702E8E31702E8E31702E2B
:105110008E31702E8E31702E8E31702E8E31702E1B
:105120008E31702E8E31702E8E31702E8E31702E0B
:105130008E31702E8E31702E8E31702E8E31702EFB
:105140008E31702E8E31702E8E31702E8E31702EEB
:105150008E31702E8E31702E8E31702E8E31702EDB
:105160008E31702E8E31702E8E31702E8E31702ECB
:105170008E31702E8E31702E8E31702E8E31702EBB
:105180008E31702E8E31702E8E31702E8E316D2EAE
:105190008931222989313E2989319C298931B229D5
:1051A0008A311B2A8A317D2A8A318F2A90311A2826
:1051B00090312C2890313E2890315028903162282F
:1051C000903174289B31832B9B31852B9B31872B0E
:1051D0009B31892B9B318B2B9B318D2B9B31B42B9E
:1051E0009B31D62B9B31F52B9C31142C9C31332CCD
:1051F0009C31522CFF3FFF3FFF3FFF3FFF3FFF3FF0
:105200009B31572B9B31572B9B31572B9B31572B66
:105210009B31572B9B31572B9B31572B9B31572B56
:105220009B31572B9B31572B9B31572B9B31572B46
:105230009B31572B9B31572B9B31572B9B31572B36
:105240009B31572B9B31572B9B31572B9B31572B26
:105250009B31572B9B31572B9B31572B9B31572B16
:105260009B31572B9B31572B9B31572B9B31572B06
:105270009B31572B9B31572B9B31572B9B31572BF6
:105280009B31572B9B31572B9B31572B9B31572BE6
:105290009B31572B9B31572B9B31572B9B31572BD6
:1052A0009B31572B9B31572B9B31572B9B31572BC6
:1052B0009B31572B9B31572B9B31572B9B31572BB6
:1052C0009B31572B9B31572B9B31572B9B31572BA6
:1052D0009B31572B9B31572B9B31572B9B31572B96
:1052E0009B31572B9B31572B9B31572B9B31572B86
:1052F0009B31582B9B31722B9B31572B9B31572B5A
:105300009B31572B9B31572B9B31572B9B31572B65
:105310009B31572B9B31572B9B31572B9B31572B55
:105320009B31572B9B31572B9B31572B9B31572B45
:105330009B31572B9B31572B9B31572B9B31572B35
:105340009B31572B9C31802C1230AE00B030AF0017
:105350003222A9312E08013EC3004630BE00233060
:10536000BF003C083E0786003D083F3D87001230E5
:105370008400B030850020004308C00040080319B5
:10538000C52912001E00C00BC12920004308BC071C
:105390000318BD0A1930AE00B030AF003222A93177
:1053A0002E08C3004630BE002330BF003C083E0735
:1053B00086003D083F3D870019308400B0308500ED
:1053C00020004308C00040080319EA2912001E000B
:1053D000C00BE62920004308BC070318BD0A15309E
:1053E0009731B727A931303E2000BE004630BF00BC
:1053F0002330C0003C083F07C1003D08403DC200CB
:1054000041088600420887003E088100BC0A031953
:10541000BD0A4630BE002330BF003C083E07860070
:105420003D083F3D87008101BC0A0319BD0A3D08C4
:10543000B5003C08B4001630B6009731C3273508D4
:10544000BD003408BC004630BE002330BF003C081D
:105450003E0786003D083F3D87008101BC0A0319D5
:10546000BD0A08002F08B2002E08B10031088400E0
:105470003208850012000319412AB10A0319B20A41
:10548000362A2E083102AE002F08323BAF0008004A
:1054900011102200680820009700220067082000F1
:1054A00096002100ED1520000D08F600CF30F6041F
:1054B0007608220063060319642A7608E30076085A
:1054C0002000E00021006D1427008C1C6E2A0130A2
:1054D0002000D3070030D43DD53DD63D27008C1D9C
:1054E000782A01302000CF070030D03DD13DD23D99
:1054F0002200901D822A01302000CB070030CC3DD5
:10550000CD3DCE3D2200901C8C2A01302100E007C9
:105510000030E13DE23DE33D2200101E962A0130BD
:105520002100DC070030DD3DDE3DDF3D2200901E26
:10553000A02A01302100D8070030D93DDA3DDB3DFB
:1055400021006C1FA72A2000D70A0319D80A2100BE
:10555000EC1FBA2A2200BC0A0319BD0A00303D0222
:10556000023003193C02031CBA2AD122AA312200BC
:10557000BC01BD01700871040319C22A0130F00298
:105580000030F13B2200BE0A0319BF0A00303F027F
:105590000A3003193E02031C0800D822BE01BF01D5
:1055A00008002000DF0A06305F020318DF01080050
:1055B0003A083B04031908000130BA020030BB3B33
:1055C00008002000A530B001B2019731B727AA31F9
:1055D0002000B000B101B301B30A33085C02031C20
:1055E0002A2B33085C3E8600013087000103031933
:1055F000EC2A3008AF003308FF3E890A002BAF3693
:10560000890BFF2A2F18162BEC2AA630102BA73057
:10561000102BA830102BA930102BAA30102BAB3038
:105620009731B727AA312000B200232B3308FF3E61
:10563000031C232B8400063004020318232BAC31F7
:105640000435573E8200320831020318EC2A320832
:10565000B100EC2A310808000A30C50A4502031CD3
:105660000800C5015A23AB31210065080319422BFC
:105670000330E50A6502031C422B8B1316159610A6
:105680000000010020005B080319080022001E3002
:10569000C40A4402031C0800C40120005B0803196B
:1056A0000800DB035B08031D08007F302100EF00CA
:1056B0007514080025000D082000AE00AE36AE3689
:1056C0002E1C662B2200C60158100800220005304F
:1056D000C60A4602031C08000530C600581408001C
:1056E000B301B2019B30B0002330B1002E08300767
:1056F00086002F08313D8700010803199A2B1030CE
:1057000032020318962B3308203E860002308700B1
:105710009B30B0002330B1002E08300784002F08E2
:10572000313D850000088100B30AB20AAE0A0319B0
:10573000AF0A722B3308203E8600023087009B3070
:105740008101B30AB0002330B1002E083007860073
:105750002F08313D87000108031D0800AE0A031918
:10576000AF0A080023009D1CB72B1D121D16220036
:105770005408F13EF6002230F701F73D7608860026
:105780007708870023001908810022005530D40AC9
:1057900054020318D401F40A08009110CF2BF6012B
:1057A00021006E080A3E8400B0300318013E8500D7
:1057B0000008F7006F08F600F704770822008F0052
:1057C00021000830EE0A6E020318EE0108002200E4
:1057D000520851020318F82B51089C3E86002230D3
:1057E0008701873D0108290092002200D10A0800A4
:1057F00021001412080022005608550203180C2C30
:105800005508463E860023308701873D0108230066
:105810009A002200D50A0800210011120800FE009B
:1058200012001E000130FE020030FF3B7F087E04A4
:1058300003190034102C6400013080010131FE0294
:105840000030FF3B7F087E04031900341C2CA2317A
:10585000CC2AA231DC2AA231F22AA3311A2BA3319D
:105860002A2BA3314B2B8C31BE2C8C31C52C8C3187
:10587000CC2C8C31D32C8C31DA2C8C31E12C8D3129
:10588000092D8D310C2D8D310F2D8D31122D8D3136
:10589000152D8D31182D8D312D2D8D31302D8D31D2
:1058A000332D8D31362D8D31392D8D313C2DAB3150
:1058B000052BAB31072BAB31092BAB310B2BAB31AC
:1058C0000D2BAB310F2B8E31D82E8E31E02E8E3139
:1058D000E82E8E31F02E8E31F82E8F31002FFF3FC3
:1058E000FF3FFF3FFF3FFF3FFF3FFF3FFF3FFF3FC8
:1058F000FF3FFF3FFF3FFF3FFF3FFF3FFF3FFF3FB8
:10590000FF3FFF3FFF3FFF3FFF3FFF3FFF3FFF3FA7
:10591000FF3FFF3FFF3FFF3FFF3FFF3FFF3FFF3F97
:10592000FF3FFF3FFF3FFF3FFF3FFF3FFF3FFF3F87
:10593000FF3FFF3FFF3FFF3FFF3FFF3FFF3FFF3F77
:10594000FF3FFF3FFF3FFF3FFF3FFF3FFF3FFF3F67
:10595000FF3FFF3FFF3FFF3FFF3FFF3FFF3FFF3F57
:10596000FF3FFF3FFF3FFF3FFF3FFF3FFF3FFF3F47
:10597000FF3FFF3FFF3FFF3FFF3FFF3FFF3FFF3F37
:10598000FF3FFF3FFF3FFF3FFF3FFF3FFF3FFF3F27
:10599000FF3FFF3FFF3FFF3FFF3FFF3FFF3FFF3F17
:1059A000FF3FFF3FFF3FFF3FFF3FFF3FFF3FFF3F07
:1059B000FF3FFF3FFF3FFF3FFF3FFF3FFF3FFF3FF7
:1059C000FF3FFF3FFF3FFF3FFF3FFF3FFF3FFF3FE7
:1059D000FF3FFF3FFF3FFF3FFF3FFF3FFF3FFF3FD7
:1059E000FF3FFF3FFF3FFF3FFF3FFF3FFF3FFF3FC7
:1059F000FF3FFF3FFF3FFF3FFF3FFF3FFF3FFF3FB7
:105A0000FF3FFF3FFF3FFF3FFF3FFF3FFF3FFF3FA6
:105A1000FF3FFF3FFF3FFF3FFF3FFF3FFF3F46305E
:105A2000B1002330B2002F083107B3003008323DF7
:105A3000B400330886003408870006308100AF0ABE
:105A40000319B00AA6309731B727AD312000B10055
:105A50004630B2002330B3002F083207B4003008BC
:105A6000333DB500340886003508870031088100D1
:105A7000AF0A0319B00AA7309731B727AD3120001C
:105A8000B1004630B2002330B3002F083207B40013
:105A90003008333DB50034088600350887003108EA
:105AA0008100AF0A0319B00AA8309731B727AD318A
:105AB0002000B1004630B2002330B3002F08320777
:105AC000B4003008333DB50034088600350887003F
:105AD00031088100AF0A0319B00AA9309731B727FE
:105AE000AD312000B1004630B2002330B3002F08A2
:105AF0003207B4003008333DB5003408860035085D
:105B0000870031088100AF0A0319B00AAA30973123
:105B1000B727AD312000B1004630B2002330B300CA
:105B20002F083207B4003008333DB5003408860032
:105B30003508870031088100AF0A0319B00AAB307D
:105B40009731B727AD312000B1004630B200233085
:105B5000B3002F083207B4003008333DB5003408D5
:105B600086003508870031088100AF0A0319B00AA2
:105B7000A4309731B7272000B1004630B20023305F
:105B8000B3002F083207B4003008333DB5003408A5
:105B900086003508870031088100AF0A0319B00A72
:105BA00008008B132000B80138085D3E86000130E4
:105BB00087000108B700B601B3013835D03E860032
:105BC000160001040319E62D0130E72D0030B50061
:105BD00002303706031D172E3835DC3E86000130B3
:105BE000870016000104031DFC2D3808203E8600A6
:105BF000013087008101302E3808203E86000130B8
:105C000087000108031D2E2E3835DC3E8600403FFC
:105C1000B000413FB100003031020A3003193002B8
:105C20000318302EB601B60AB301B30A302E37037B
:105C30000319262E033037060319262E04303706A3
:105C40000319262E05303706031D302E3808203E56
:105C500086000130870001080319302EB601B60A0C
:105C600036083504B200B40132080319662E21004B
:105C700067082000B000380A3E2EB036890B3D2E52
:105C8000301C4C2EAE01AE0A38088E31D526AD310F
:105C90002000B401B40A772E22004708031D772E96
:105CA0002000AE01AE0A38088E31D526AD31013064
:105CB0002000B000380A5D2EB035890B5C2E30080C
:105CC0002100E70403302200C700482EAE01380847
:105CD0008E31D526AD3101302000B000380A712E4A
:105CE000B035890B702E3008FF3A2100E7052000FF
:105CF00034080319C22E36080319AC2E02303706B9
:105D0000031DA62E33080319902E3835DC3E86007D
:105D100001308700810200304131813B7F31AC2E60
:105D20003808203E860001308700010803199C2EA8
:105D30003808203E860081033835DC3E860001307D
:105D4000870016000104031D852EAC2E3808203E66
:105D5000860001308700810335080319C22E3835CB
:105D6000D03E860001308700160001040319C22EC0
:105D70003835D03E86000130870081020030413145
:105D8000813B7F310630B80A3802031CD42D220033
:105D90004708031DC7038B17080020005B08031981
:105DA000080014303827AE31B6000A30B701B80009
:105DB000B9014027AE313908C2003808C1003708A0
:105DC000C0003608BF002100E40A6408E40A20008D
:105DD000BE0009303E020318FF2E14303827AE31C2
:105DE000BE000A303E02031CF72E4108F92E143083
:105DF00038278E3128262100EF0075100800210079
:105E00006408E40A2000BE000D303E0203180E2F85
:105E100063308E3128262100EF000800210064083D
:105E2000E40A2000BE0015303E020318252F14306E
:105E30003827AE31BE000A303E02031C212F3F0836
:105E4000F92E15302100E400080021006408E40A5E
:105E50002000BE001E303E020318352F63308E3105
:105E600028262100EF00751408002100E401080035
:105E7000B200AE003330AF01AF0AA42733080800E8
:105E80003908AF003808AE003708B1003608B00056
:105E90006427AE312F08BD002E08BC003908AF00C2
:105EA0003808AE003708B1003608B000C7272F0801
:105EB000BB002E08BA003D08B9003C08B8003B08FA
:105EC000B7003A08B6000800B301AF1F6E2FAE0945
:105ED000AF09AE0A0319AF0AB301B30AB11F772F96
:105EE000B009B109B00A0319B10A0130B306B4010F
:105EF000B5012E082F040319972FB201B20AAF1B68
:105F0000842FAE35AF0D7E2FB435B50D2F0831027D
:105F1000031D8C2F2E083002031C932F2E08B00275
:105F20002F08B13B3414AF36AE0CB20B842F3308BC
:105F300003199F2FB409B509B40A0319B50A350826
:105F4000AF003408AE000800B1003108B0002300F3
:105F50009518A72F20002E08230091009201200001
:105F6000AF032F0FB42F080023009518B42F9513FB
:105F700015142000300886008701230013088100D3
:105F80002000B00A2300910A0319920AAF2FB3012F
:105F9000B11FD12FB009B109B00A0319B10AB30179
:105FA000B30AAF1FD82FAE09AF09AE0A0319AF0A63
:105FB0002E082F040319F32FB201B20AAF1BE32FEF
:105FC000AE35AF0DDD2F2F083102031DE92F2E084E
:105FD0003002031CEF2F2E08B0022F08B13BAF3662
:105FE000AE0CB20BE32F33080319FB2FB009B10934
:105FF000B00A0319B10A3108AF003008AE0008003A
:106000006E346734C5347934DD34613402341A3483
:1060100000340034FE34FD34FB34F734EF34DF3425
:10602000BF347F345034453452345F3456343234C4
:10603000003435342E34313434340034FF3FFF3FE4
:10604000FF3FFF3FFF3FFF3FFF3FFF3FFF3FFF3F60
:10605000FF3FFF3FFF3FFF3FFF3FFF3FFF3FFF3F50
:10606000FF3FFF3FFF3FFF3FFF3FFF3FFF3FFF3F40
:10607000FF3FFF3FFF3FFF3FFF3FFF3FFF3FFF3F30
:107FF000FF3FFF3FFF3FFF3FFF3FFF3F793F673FAF
:020000040001F9
:080000000000000006000300EF
:04000E006CC9FFDFDB
:10E00000780005007800050078000500780005001C
:10E010007800050078000500000000000000000006
:10E020000000000000000000010003005000650037
:10E030007200690070006F0064002000780000002A
:10E040000034003400340034003400340034500014
:10E0500075006D00700020003100000000340034B5
:10E0600000340034003400340034003450007500B3
:10E070006D007000200032000000003400340034D5
:10E0800000340034003400340034500075006D005A
:10E0900070002000330000000034003400340034ED
:10E0A0000034003400340034500075006D007000FE
:10E0B0002000340000000034003400340034003408
:10E0C000003400340034500075006D0070002000F2
:10E0D00035000000003400340034003400340034D3
:10E0E00000340034500075006D00700020003600D0
:10E0F00000000034003400340034003400340034B4
:10E1000000340000000000000000000000000000DB
:10E1100000000000000000000000000000000000FF
:10E1200000000000000000000000000000000000EF
:10E1300000000000000021002200000064006400D4
:10E1400064006400640064006400000000000000DB
:10E150000000000000000000040021002200000078
:00000001FF
