:100E000087314C2FFF3FFF3F7E1487312100911E19
:100E1000102F2000911E102F9831072087314A2F64
:100E20002100941E1A2F2000941E1A2F90310A20A0
:100E300087314A2F2100931C242F2000931C242F3C
:100E4000A0315D2087314A2F2100111C2E2F200058
:100E5000111C2E2FAA31482287314A2F2100911CC4
:100E6000382F2000911C382FAB31EA2387314A2FCD
:100E70002100111E422F2000111E422FAC311824D8
:100E800087314A2F2100141E4A2F2000141E4A2F9A
:100E9000AC3104247E10090087314E2FFF30E00072
:100EA0002100EF0022000830DE00DF00E000E1005A
:100EB000E200E300FF30E400473084002230850088
:100EC000A930FE000130FF00AC31382487314B30AF
:100ED000F001F101F201F301F401F50184000030A9
:100EE00085001530FE00FF01AC3138248731D83041
:100EF0008400003085001730FE00FF01AC3138243B
:100F0000873120308400013085003E30FE00FF0133
:100F1000AC3138248731A030840001308500223084
:100F2000FE00FF01AC3138248731203084000230CC
:100F300085003030FE00FF01AC3138248731A0300D
:100F40008400023085005030FE000030FF01AC31DB
:100F500038247E102000883101282000AE012700AF
:100F60008C1CB52F2000AE01AE0A27008C1DBB2FB4
:100F70002000AE01AE0A2200901DC12F2000AE015C
:100F8000AE0A2200901CC72F2000AE01AE0A22003C
:100F9000101ECD2F2000AE01AE0A2200901ED32FCE
:100FA0002000AE01AE0A20002E080319F82F0230EF
:100FB0002200A8070318A90A003029029630031955
:100FC00028020318E62F9630A800A9012330290231
:100FD000283003192802031CF62F2830A8002330DC
:100FE000A900F62F0130A8020030A93B8C1408009C
:100FF000220028082904031DF22F8C100800FF3F4F
:10100000FF3FCA012F27883122000E1164302000D3
:10101000AE00AF011D210B178B1799315521883177
:1010200099317E2188319D318925883105304426CA
:1010300088312100EF00F4302000AE000130AF0015
:101040001D218831F4302000AE000130AF001D2199
:1010500088316330442688312100EF00FA302000C7
:10106000AE00AF011D2188310130442688312100B6
:10107000EF00F4302000AE000130AF001D218831B8
:10108000F4302000AE000130AF001D218831633004
:10109000442688312100EF00FA302000AE00AF0175
:1010A0001D2188310730442688312100EF00F430BB
:1010B0002000AE000130AF001D218831F430200047
:1010C000AE000130AF001D21883124304426883124
:1010D0002100EF00F4302000AE000130AF001D21F0
:1010E0008831F4302000AE000130AF001D211530F2
:1010F0009731D3278831442688312100EF00F4301E
:101100002000AE000130AF001D218831F4302000F6
:10111000AE000130AF001D21883163304426883194
:101120002100EF00FA302000AE00AF011D21AC30ED
:101130009731D3278831442688312100EF00F430DD
:101140002000AE000130AF001D218831F4302000B6
:10115000AE000130AF001D21883120000C18C928D5
:101160002430442688312100EF00F4302000AE0006
:101170000130AF001D218831F4302000AE00013075
:10118000AF001D2188318B13210016159610000029
:1011900001006330442688312100EF000230CB2269
:1011A00088312100ED19D72839218831D128ED1156
:1011B00020004A08031D042922005813AD31A82538
:1011C000883139218831003A031DFA282100660848
:1011D0000319F02866089B31212388312100E6019C
:1011E000220059080319FA2851309B3121238831F4
:1011F0002200D90121006D1C0D2920000130CA01F7
:10120000CA0ACB2288310D29220000305817CB2280
:10121000003A031DCA0121006D1098312220883147
:1012200039218731AD2788313921AB3164238831A9
:1012300039218831E2278831D428B101B20132083E
:10124000803AB0002F08803A3002031D29292E0869
:1012500031020318080003302000B0009730890BDA
:101260002F29B00B2F2900322000B10A0319B20A2E
:101270001F292200E601E60ABE2A74080319502934
:10128000A231B92288313A082200B300200039087F
:101290002200B200751D50292100EF172200C90A53
:1012A0007308031955299C26883175132200E6011D
:1012B000C82A14309731D32788312200E5009B30AB
:1012C0008600233087004431010865060319B329DD
:1012D00033082000BA00220032082000B900A131F2
:1012E000E62188313A082200B100200039082200A6
:1012F000B0009B3086002330870062304231010607
:10130000031DA0292830B8000A30B9009B308600A0
:1013100023308700033046310106031D932998309E
:10132000B8003A30B9009B3086002330870008307F
:1013300046310106031DB1293030B8007530B0299F
:101340009B308600233087003D3042310106031D6B
:10135000AD298830B8001330B029E830B800033028
:10136000B900C801B529C801C80AC90AC82A330882
:101370002000C700220032082000C6009331472316
:10138000883147082200B300200046082200B2003E
:10139000AE01AF01AC01AD01B52932083304031928
:1013A000F32974080319F329D62688312200E700AF
:1013B00046302000C8002330C90022002E0820003B
:1013C0004807860022002F082000493D87000108B9
:1013D00022006706031DF5160130B2020030B33B50
:1013E000AE0A0319AF0A480BF829B001B1011E2A51
:1013F0003008310403191E2A730803191E2A9C267B
:1014000088312200E7009C302000C8002230C9004B
:1014100022002C0820004807860022002D0820000A
:10142000493D8700010822006706031D751701303A
:10143000B0020030B13BAC0A0319AD0A32083304E4
:10144000031D302A30083104031D302A3908AB004F
:101450003808AA004230890B2B2A00322200C90A20
:10146000F51A342A751FC82A0630A82A480B392ACB
:10147000342A9B308600233087004431010A031947
:10148000482A14309731D3278831013A0319942A16
:1014900022002A082B040319902A0E157308031939
:1014A000852A2000111E7B2A0D3023001A06031DF9
:1014B0006F2A9C268831C80046308600233087007A
:1014C000480881001B3A031D782A1A302000C80002
:1014D000F830890B692AC80B692A0000782A9C26F3
:1014E0008831C800463086002330870048088100D4
:1014F0000130F027883122003908AB003808AA00F3
:1015000004308E06000022008E060130AA02003050
:10151000AB3B2130890B8A2A000005302200A82A23
:101520000630C9000E11C82AA3319B238831342A02
:1015300074080319A72AD62688312200E70046300E
:1015400086002330870067080106031D75170430E5
:10155000C900C82AF51DAD2AF511751EB02A7512ED
:10156000F51AB42A751FB62AF51275137511C9013B
:10157000E6012100EF13C82AC901C82A49088400DE
:10158000073004020318BC2AA0310435003E820053
:101590002200660808002000C200C1018B13420827
:1015A0000319D42A2200C301023020004206031D81
:1015B000B42DD901B42D1430BA00BB011E30F00097
:1015C000F101EF3020006006031DF42AC53022002F
:1015D0009005F53027008C052200C101751022000E
:1015E000C0012200C30A262EFE30A12D143044264D
:1015F00088312100EF001430F000F101EF2A2000C3
:10160000600F0B2BD90A59085C020318092BD9016A
:10161000D90A3230A12D70087104031D262E5908F5
:10162000B7268831D9005908031D182BFE30192B15
:1016300064302200C300CD30B12DA42BDF30200058
:101640006006031D342B8C302200BA00BB016330CE
:10165000442688312100EF002200F030C101C10A88
:10166000C3003E30C200262EEF306006031D422B21
:1016700014302200BA00BB016330442688312100B7
:10168000EF00EF2A0000262E2000D90A59085C023C
:101690000318D32BD901D90AD32B2000600F262E93
:1016A0003330A12D20005908442688312100EF0055
:1016B0003D30A12DDF3020006006031D6F2B14305C
:1016C0002200BA00BB016330442688312100EF00BC
:1016D0002200410803192C2BF530C101302BEF30CB
:1016E0006006031D422B14302200BA00BB01633098
:1016F000442688312100EF00F42A200059084426AE
:1017000088312100EF002000600F262E582B0C306E
:10171000442688312100EF002000600F262E0A3079
:10172000442688312100EF000530F000F101F12A54
:10173000692C70087104031D262E633044268831FD
:101740002100EF007830A12D2000D32BDF302000C6
:101750006006031DC42BCD302200BA00BB016330EC
:10176000442688312100EF002200C101C10A210076
:101770006C132000D701D80121006C17EC17A030A2
:101780002200C200F030A22DEF306006031D422B74
:10179000CD302200BA00BB016330D42B20005908A1
:1017A000B7268831D9005908442688312100EF0036
:1017B000F12A2000600F262E7930A12D20005F082D
:1017C0001E3E212C20005F081E3E44268831210049
:1017D000EF00DF3020006006031D012C21006C1398
:1017E000EC13CD302200BA00BB01633044268831AF
:1017F0002100EF002200C101C30A4308C200F530F6
:10180000A22DEF306006031D142C21006C13EC1385
:10181000CD302200BA00BB0163304426883121005C
:10182000EF002200FE30502C00000730200058024C
:101830003B3003195702031C262E2200B430502CD3
:101840002630442688312100EF002000600F262E2C
:10185000F12ADF3020006006031D3B2CCD30220032
:10186000BA00BB016330442688312100EF0022001A
:10187000C101C10ABC2BEF306006031D422B2100C1
:101880006C13EC13CD302200BA00BB0105304426A6
:1018900088312100EF000530F000F1012200C8304E
:1018A000C101FE2B70087104031D262E0F30902BF2
:1018B000EF30200060060319F12ADF3060060319BB
:1018C000F12A262E942C70087104031D262E013057
:1018D000902B70087104031D262E1230902B700877
:1018E0007104031D262EA5309731D327883120009F
:1018F000C3000130C0005908FF3E890A802CC03562
:10190000890B7F2C4008FF3AC3054308B400A5307B
:101910009D31362588316330442688312100EF001F
:101920000130F000F101F42A70087104031D262E25
:101930008F2B70087104031D262E1730902B700812
:101940007104031D262E0E30902B70087104031DA8
:10195000232D0A302000B400B5015808B7005708FD
:10196000B6009F31DB2788313508D8003408D7000E
:1019700000305802F53003195702031CC22CF43012
:10198000D700D801A5309731D32788312000C30074
:101990000130C0005908FF3E890ACF2CC035890BA1
:1019A000CE2C4008C3044308B400A5309D31362531
:1019B0008831042D5708B400A6309D313625883172
:1019C000112D5708B400A7309D3136258831112DCF
:1019D0005708B400A8309D3136258831112D57089D
:1019E000B400A9309D3136258831112D5708B40037
:1019F000AA309D3136258831112D5708B400AB30FF
:101A00009D3136258831112D5908FF3E031C112DBB
:101A10008400063004020318112DAA310435E13E7A
:101A2000820022005708031D1D2DA031122088318D
:101A3000B400A4309D31362588319D318925883107
:101A4000FE302200C3005816262E27008C14452D88
:101A500027008C15452D22009015452D220090144D
:101A6000452D22001016452D22009016452D2000F0
:101A70005908FF3E031C452D84000630040203185C
:101A8000452DAA310435ED3E82007514220042082E
:101A9000A22D27008C10692D27008C11692D2200A2
:101AA0009011692D22009010692D22001012692DCD
:101AB00022009012692D20005908FF3E031C692D59
:101AC0008400063004020318692DAC310435443E0D
:101AD00082007510462D0F30442688312100EF001A
:101AE0000A30F000F10114302200BA00BB01F12AE3
:101AF000700871040319F42A262E2000C401063050
:101B0000440203189B2D4408203E860001308700C4
:101B10008101C000440A8D2DC035890B8C2D4008F1
:101B2000FF3A2100E7052000AE014408F126883184
:101B30002000C40A7F2D6330442688312100EF0045
:101B4000FF302200C300262E2000600FAF2D7F3013
:101B500075142100EF002000C101C10A262E1430A7
:101B60002200BA00BB01262E22004308003A0319C6
:101B7000DB2A013A0319F62A033A0319FF2A303AFD
:101B800003191D2B013A03191E2B073A0319442B85
:101B9000013A03194D2B093A0319522B013A031943
:101BA0005A2B033A03197D2B5A3A0319872B013A12
:101BB0000319982B033A0319992B1E3A0319A42BE6
:101BC000013A0319A62B033A0319CE2B013A031944
:101BD000D92BDB3A0319DE2B013A0319E22B033A26
:101BE0000319202C013A0319292C173A0319522CF6
:101BF000013A0319582C033A0319622C013A0319CC
:101C0000632C0F3A0319692C013A03196F2C713AAE
:101C10000319942C013A0319992C033A03199F2CA8
:101C2000013A0319A52C3B3A0319372D053A03193C
:101C30005B2D0F3A03196B2D013A0319782D053AE4
:101C400003197D2D013A0319A42D262E22003A08EE
:101C50003B04031D2E2EFA30C300402E2000600FDF
:101C6000322E3E2EEF306006031D402E220028301B
:101C7000C00A4002031C402EFE30C3002200C001F7
:101C80008B172000410808002000AE008E2E8830FF
:101C90008A2EBE308A2EC4308A2E94308A2EB230DC
:101CA0008A2E91308A2E81308A2EBC308A2E803046
:101CB0008A2EB0308A2EA0308A2E83308A2EC930E8
:101CC0008A2E86308A2EC1308A2EE1308A2E9030BC
:101CD0008A2EA2308A2ECB308A2E87308A2EE03090
:101CE0008A2EE7308A2E8A308A2E2B308A2EFD30BB
:101CF0008A2EFE308A2EBF308A2EDF308A2EEF30B9
:101D00008A2EFB308A2EF7308A2E7F308A2E77304B
:101D10008A2EFF30AF00982EAF01982E2E08840037
:101D20006430040203188C2EA8310435003E820072
:101D30007518AF132F080800730803199C2E210093
:101D4000941222004F08473E860022308701873DCB
:101D500001082000AE0022005530CF0A4F020318C0
:101D6000CF01F3032100941620002E080800B000D4
:101D7000AE01AF01AF0A2F085C02031CD12EB00ADE
:101D800030085C020318C62EB001B00A30085D3E70
:101D900086000130870002300106031DBA2EAE0115
:101DA000AE0A2E080319003430080800740803191D
:101DB000D62E2100911222005308F13E86002230D7
:101DC0008701873D01082000AE0022005530D30A6C
:101DD00053020318D301F4032100911620002E08AA
:101DE00008002000AF00242F2E1CF92E27008C1491
:101DF000080027008C1008002E1C012F27008C15CE
:101E0000080027008C1108002E1C092F22009015B5
:101E100008002200901108002E1C112F220090149F
:101E200008002200901008002E1C192F2200101606
:101E300008002200101208002E1C212F22009016EC
:101E400008002200901208002F08840006300402C7
:101E500003180800AC3104355C3E82000800792785
:101E600088317F278831B7278831CC278831D6271A
:101E700088314927883151278831652788310E11EB
:101E80000E1326008D106330751444262100EF00D8
:101E90000800013021009D00F0309E009B019C0154
:101EA000080091121112483023009F0090309D00CD
:101EB00067309E00A0309B0001309C002200D401BE
:101EC000D301F40121009116080094121412483035
:101ED000290097009030950067309600A03093005D
:101EE000013094002200D001CF01F30121009416AB
:101EF00008007230210099009A0198010800220020
:101F00008C01FD3021008C002C3023008C0022003D
:101F10008D01FF3021008D003F3024008D00220014
:101F20008E01FB3021008E00FF3022008F00210047
:101F30008F0122009001C530210090002300900104
:101F400027008C01F53026008C00813028008C00A1
:101F500027008D013F3026008D00183028008D00AD
:101F600029008D012100951322009D0108002430D5
:101F70002000980099013C309700B0309600170877
:101F80002200E900E801200016082200E8042000F1
:101F9000111021001114FD2F7B309C0003309B0099
:101FA0009A01911021009114983101283B302800AA
:101FB0009700C230960095012000931021009314E1
:101FC00098310428A60A0319A70A8C302702A030EA
:101FD00003192602031C0800A601A7019931DC2978
:101FE0002000AE00210011122200D50120002E0891
:101FF0002200D60021001116080020001814080045
:10200000A331C72BA331D52BA331E42BA431082C4A
:10201000A431272C2900951C0F2815121516220013
:102020005008473EF6002230F701F73D760886005B
:102030007708870029001108810022005530D00A56
:1020400050020318D001F30A08002000B000BE01BE
:10205000BD015C083D020318B0283D085E3E8600C5
:1020600001308700010830060319A428AE28A630E5
:10207000D32790312000AF003E082F02031C4528D3
:10208000A630D3279031200046283E08B100B20187
:10209000A228A730D32790312000AF003E082F029E
:1020A000031C5728A730D3279031200058283E081A
:1020B000B300B401A228A830D32790312000AF008C
:1020C0003E082F02031C6928A830D3279031200036
:1020D0006A283E08B500B601A228A930D32790315E
:1020E0002000AF003E082F02031C7B28A930D32715
:1020F000903120007C283E08B700B801A228AA3001
:10210000D32790312000AF003E082F02031C8D28FA
:10211000AA30D327903120008E283E08B900BA019A
:10212000A228AB30D32790312000AF003E082F0209
:10213000031C9F28AB30D32790312000A0283E08F5
:10214000BB00BC01BE00AE283D088400063004027E
:102150000318AE28A8310435C83E8200BD0A2928DC
:102160003E082200CD000800AC30D327903120007B
:10217000C3009B3086002330870045310108C4002E
:10218000053043024630BE002330BF003C08031C2C
:10219000D4283E07C0003D083F3DC10040088600EE
:1021A000410887000430DE283E07C0003D083F3D5F
:1021B000C100400886004108870043088100BC0A2E
:1021C0000319BD0A4308031941294408031D412985
:1021D0004630BE002330BF003C083E0786003D0865
:1021E0003F3D87008101BC0A0319BD0A3D08B500C7
:1021F0003C08B4002730B600DF2790313508BD0019
:102200003408BC004630BE002330BF003C083E0707
:1022100086003D083F3D87008101BC0A0319BD0AC5
:102220009B30D32790310F392000BE004630BF00CD
:102230002330C0003C083F07C1003D08403DC200BC
:1022400041088600420887003E088100BC0A031945
:10225000BD0A9E30D32790312000BE004630BF001B
:102260002330C0003C083F07C1003D08403DC2008C
:1022700041088600420887003E088100BC0A031915
:10228000BD0A02304302031CA7294408031DA729E5
:102290004630BE002330BF003C083E07C0003D086A
:1022A0003F3DC100400886004108870001308100A1
:1022B000BC0A0319BD0A3D08B5003C08B40036301D
:1022C000B600DF2790313508BD003408BC00463029
:1022D000BE002330BF003C083E0786003D083F3D5E
:1022E00087008101BC0A0319BD0A9B30D3279031B6
:1022F000890E0F392000BE004630BF002330C000D9
:102300003C083F07C1003D08403DC200410886002F
:10231000420887003E088100BC0A0319BD0A9F30AD
:10232000D32790312000BE004630BF002330C000CC
:102330003C083F07C1003D08403DC20041088600FF
:10234000420887003E088100BC0A0319BD0A033019
:102350004302031C102A44080319B2290230440620
:10236000031D102A4630BE002330BF003C083E0744
:10237000C0003D083F3DC10040088600410887007D
:1023800002308100BC0A0319BD0A3D08B5003C08B3
:10239000B4004530B600DF2790313508BD00340861
:1023A000BC004630BE002330BF003C083E0786001C
:1023B0003D083F3D87008101BC0A0319BD0A9C30DE
:1023C000D32790310F392000BE004630BF002330A4
:1023D000C0003C083F07C1003D08403DC200410825
:1023E0008600420887003E088100BC0A0319BD0A26
:1023F000A030D32790312000BE004630BF002330EC
:10240000C0003C083F07C1003D08403DC2004108F4
:102410008600420887003E088100BC0A0319BD0AF5
:1024200004304302031C7A2A440803191B2A023091
:102430004406031D7A2A4630BE002330BF003C0804
:102440003E07C0003D083F3DC100400886004108EE
:10245000870003308100BC0A0319BD0A3D08B5009E
:102460003C08B4005430B600DF2790313508BD0079
:102470003408BC004630BE002330BF003C083E0795
:1024800086003D083F3D87008101BC0A0319BD0A53
:102490009C30D3279031890E0F392000BE00463082
:1024A000BF002330C0003C083F07C1003D08403D4D
:1024B000C20041088600420887003E088100BC0A2D
:1024C0000319BD0AA130D32790312000BE00463049
:1024D000BF002330C0003C083F07C1003D08403D1D
:1024E000C20041088600420887003E088100BC0AFD
:1024F0000319BD0A05304302031CE02A02304406DA
:10250000031DE02A4630BE002330BF003C083E07D2
:10251000C0003D083F3DC1004008860041088700DB
:1025200004308100BC0A0319BD0A3D08B5003C080F
:10253000B4006330B600DF2790313508BD003408A1
:10254000BC004630BE002330BF003C083E0786007A
:102550003D083F3D87008101BC0A0319BD0A9D303B
:10256000D32790310F392000BE004630BF00233002
:10257000C0003C083F07C1003D08403DC200410883
:102580008600420887003E088100BC0A0319BD0A84
:10259000A230D32790312000BE004630BF00233048
:1025A000C0003C083F07C1003D08403DC200410853
:1025B0008600420887003E088100BC0A0319BD0A54
:1025C00006304302031C080002304406031D0800C5
:1025D0004630BE002330BF003C083E07C0003D0827
:1025E0003F3DC1004008860041088700053081005A
:1025F000BC0A0319BD0A3D08B5003C08B40072309E
:10260000B600DF2790313508BD003408BC004630E5
:10261000BE002330BF003C083E0786003D083F3D1A
:1026200087008101BC0A0319BD0A9D30D327903170
:10263000890E0F392000BE004630BF002330C00095
:102640003C083F07C1003D08403DC20041088600EC
:10265000420887003E088100BC0A0319BD0AA33066
:10266000D3272000BE004630BF002330C0003C0806
:102670003F07C1003D08403DC200410886004208B6
:1026800087003E088100BC0A0319BD0A080021002A
:102690004630D601D701D401D501D201D301CF01F3
:1026A0008600233087001B30C03FD60A0319D70AA3
:1026B0004630C2002330C300560842078600570840
:1026C000433D87008101D60A0319D70A4630C2006C
:1026D0002330C3005608420786005708433D870051
:1026E0008101D60A0319D70A9B3086002330870060
:1026F00042310108C2004630C3002330C4005608EE
:102700004307C5005708443DC600450886004608F3
:10271000870042088100D60A0319D70A9B30860039
:1027200023308700433101082200CC0046302100CD
:10273000C2002330C30056084207C4005708433D77
:10274000C500440886004508870022004C08810027
:102750002100D60A0319D70A1430D327903121005B
:10276000C2004630C3002330C40056084307C500EA
:102770005708443DC60045088600460887004208C1
:102780008100D60A0319D70A9B30860023308700C0
:1027900044310108D1002200CE001430D3279031FB
:1027A0002100CE009B30860023308700323042313A
:1027B0000102031C282F9B308600233087006430E1
:1027C000423101020318282F510A03190C2F510816
:1027D0004E0603190C2FD22C57082000BD002100F3
:1027E00056082000BC00A931A42190313D082100E9
:1027F000D70020003C085E2C57082000B0002100C4
:1028000056082000AF00A431EB249031300821009D
:10281000D70020002F085E2C57082000BD002100A3
:1028200056082000BC00B42090313D082100D7009C
:1028300020003C085E2C9B30860023308700453109
:1028400001082000DB005B08031D2A2C7F302100DB
:10285000EF00751446302100C2002330C300560833
:102860004207C4005708433DC50044088600450898
:10287000870001308100D60A0319D70A1E2F570896
:102880002000B000210056082000AF00AE31A42681
:10289000903130082100D70020002F085E2C570807
:1028A0002000B000210056082000AF00AC31E62423
:1028B000903130082100D70020002F082100D600D9
:1028C0001E2F0530D4009B30D501860023308700B1
:1028D00045310108CC00D40A0319D50A9B30C20047
:1028E0002330C3005408420786005508433D870043
:1028F0000108C700C801D40A0319D50A9B30C200D9
:102900002330C3005408420786005508433D870022
:102910000108C400C501C500C4014408C707450833
:10292000C83DD40A0319D50AAC30D3279031210011
:102930004C020318AA2C0E3048021130031947022A
:10294000031CBA2C4C35A03E8600013087000030B5
:10295000C03FC13F4630C2002330C3005608420783
:10296000C4005708433DC500440886004508870059
:1029700003303A2C48082000AF002100470820000F
:10298000AE000A30B000B1019F31C627903121005E
:102990004C35A03E86000130870020002E08C03F45
:1029A0002F08C13F46302100C2002330C300560823
:1029B000420786005708433D870081013B2C0530C4
:1029C0002000AE00AF01AB31A82390313C30210094
:1029D000E6002A2CCD0106304D020318F92C200008
:1029E000AE0121004D088E31F12690312100CD0A33
:1029F000EB2C0530D4009B30D501D201D3018600E9
:102A00002330870045310108C900D40A0319D50ACB
:102A10002500A0002100D20A0319D30A490803198E
:102A20009E2D5208A03E8600023087009B30C200D7
:102A30002330C3005408420784005508433D8500F5
:102A400000088100D40A0319D50AD20A0319D30A4F
:102A5000CF019B30C2002330C300540842078600D8
:102A60005508433D870001080319532D0E304F02CE
:102A700003184E2D5208A03E8600023087009B307E
:102A8000C2002330C3005408420784005508433D68
:102A9000850000088100D20A0319D30ACF0AD40A9C
:102AA0000319D50A292D5208A03E8600023087005E
:102AB0009B30C2002330C3005408420784005508ED
:102AC000433D850000088100D40A0319D50AD20AC3
:102AD0000319D30A9B30C2002330C30054084207B5
:102AE00086005508433D87000108CF00D40A03192A
:102AF000D50A06304F020318CF015208A03E8600C7
:102B0000023087004F088100D20A0319D30A520805
:102B1000A03E86009B30C2002330C3005408420709
:102B200084005508433D850000088100D40A03193C
:102B3000D50AD20A0319D30AC9030E2D9B30860089
:102B4000233087004531010803192A2C3D30E60067
:102B50009B31212390312100E6012A2C9B308600F5
:102B6000233087000C304531D32790310106031DF7
:102B7000092E9B308600233087000D304631D32745
:102B800090310106031D092E9B30860023308700FB
:102B90000E304731D32790310106031D092E9B309B
:102BA0008600233087000F304831D327903101064B
:102BB000031D092E9B3086002330870010304931D9
:102BC000D32790310106031D092E9B308600233048
:102BD000870011304A31D32790310106031D092E99
:102BE0009B3086002330870012304B31D327903141
:102BF0000106031D092E9B30860023308700133009
:102C00004C31D32790310106031D092E22005811A3
:102C10000B2E220058159B308600233087004D3143
:102C2000010821004E06031D182E2200D810282E60
:102C300022009B30D8148600233087004D310108D4
:102C40002100C2004B3086002330870042088100FB
:102C50001530D32790312100C2004630C300233005
:102C6000C40056084307C5005708443DC600450840
:102C700086004608870042088100D60A0319D70A51
:102C80004630C2002330C30056084207C40057082C
:102C9000433DC500440886004508870022005808C7
:102CA00081002100D60A0319D70AAC30D32790310E
:102CB0002100C2004630C3002330C4005608430739
:102CC000C5005708443DC6004508860046088700F1
:102CD00042088100D60A0319D70A02302520903114
:102CE00046302100C2002330C30056084207C4000A
:102CF0005708433DC5004408860045088700220068
:102D00004D0881002100D60A0319D70A2200581263
:102D1000D8121E2F9B3086002330870045310108D2
:102D20002300B8009B30860023308700463101081D
:102D3000B9009B3086002330870047310108BA0074
:102D40009B3086002330870048310108BB009B3050
:102D500086002330870049310108BC009B30860083
:102D6000233087004A310108BD009B3086002330A4
:102D700087004B310108BE009B308600233087005E
:102D80004C310108BF009B308600233087004D3155
:102D90000108C0009B308600233087004E310108B7
:102DA000C10022009B30D901D90A86002330870058
:102DB0004D3101082100C2004B30860023308700CE
:102DC000420881004630C2002330C3005608420743
:102DD000C4005708433DC5004408860045088700E5
:102DE00001308100D60A0319D70A2200D701D70A79
:102DF0001E2FE501E50A2A2C4630C2002330C3000D
:102E000056084207C4005708433DC50044088600E1
:102E10004508870002303A2C9B308600233087001B
:102E200042310108CE3E031CFC2E840032300402E5
:102E30000318FC2EAB310435003E820021004E0BFE
:102E40002B2F51084E0603192B2F510A03192B2F34
:102E5000D601D701CB2FFF30D607031CD703FE3096
:102E6000D607031CD7035708C2004730860023301B
:102E700087004208810048308600560881000230F1
:102E8000D6070318D70A2200CB012100D001D00AAF
:102E90005608013EC2000030573DC300803AC400CE
:102EA00080304402031D562F50084202031C772F26
:102EB00021005008FF3E2000AE0021005008463E91
:102EC000860023308701873D0108A431C324903157
:102ED0002100C2005008463EC3002330C401C43D57
:102EE000430886004408870042088100472F473086
:102EF0002000AE002330AF00210056082000B000B3
:102F0000A4318F2490312F082100CB0020002E08FF
:102F10002100CA00D60A0319D70A4B08C20046305E
:102F2000C3002330C40056084307C5005708443D7A
:102F3000C600450886004608870042088100D60A78
:102F40000319D70A4630C2002330C300560842078F
:102F5000C4005708433DC500440886004508870063
:102F60004A088100D60A0319D70A4630C200233026
:102F7000C30056084207C4005708433DC500440833
:102F80008600450887000D308100D60A0319D70A4C
:102F900056088F31F02757082000C7002100560837
:102FA0002000C60008002000AE0023009100151389
:102FB00095131514000000002300130808003608BC
:102FC00098318D209031003A031908003608D32734
:102FD00090312000B7004630B8002330B9003408E3
:102FE0003807BA003508393DBB003A0886003B086F
:102FF000870037088100B60AB40A0319B50ADF2F23
:10300000FF3F20001C1508002800171508002300AA
:103010009D1C0C281D121D1622005408F13EF600BE
:103020002230F701F73D76088600770887002300F5
:103030001908810022005530D40A54020318D40123
:10304000F40A080020005B080319080014308D20E2
:103050009831B6000A30B701B800B901952098310F
:103060003908C2003808C1003708C0003608BF0060
:103070002100E40A6408E40A2000BE0009303E0290
:103080000318542814308D209831BE000A303E02B7
:10309000031C4C2841084E2814308D208E314426C4
:1030A0002100EF007510080021006408E40A2000E8
:1030B000BE000D303E020318632863308E31442673
:1030C0002100EF00080021006408E40A2000BE008F
:1030D00015303E0203187A2814308D209831BE0036
:1030E0000A303E02031C76283F084E281530210086
:1030F000E400080021006408E40A2000BE001E303D
:103100003E0203188A2863308E3144262100EF00E6
:10311000751408002100E4010800B200AE0033304D
:10312000AF01AF0AF920330808003908AF003808AA
:10313000AE003708B1003608B000B92098312F082A
:10314000BD002E08BC003908AF003808AE003708B3
:10315000B1003608B0001C212F08BB002E08BA00B1
:103160003D08B9003C08B8003B08B7003A08B60073
:103170000800B301AF1FC328AE09AF09AE0A031997
:10318000AF0AB301B30AB11FCC28B009B109B00A24
:103190000319B10A0130B306B401B5012E082F049A
:1031A0000319EC28B201B20AAF1BD928AE35AF0D16
:1031B000D328B435B50D2F083102031DE1282E08A0
:1031C0003002031CE8282E08B0022F08B13B34144B
:1031D000AF36AE0CB20BD92833080319F428B40962
:1031E000B509B40A0319B50A3508AF003408AE00B2
:1031F0000800B1003108B00023009518FC28200019
:103200002E082300910092012000AF032F0F0929FF
:10321000080023009518092995131514200030087B
:10322000860087012300130881002000B00A2300D4
:10323000910A0319920A0429B301B11F2629B00982
:10324000B109B00A0319B10AB301B30AAF1F2D299E
:10325000AE09AF09AE0A0319AF0A2E082F040319ED
:103260004829B201B20AAF1B3829AE35AF0D322959
:103270002F083102031D3E292E083002031C442969
:103280002E08B0022F08B13BAF36AE0CB20B382976
:10329000330803195029B009B109B00A0319B10A5A
:1032A0003108AF003008AE000800CF3020000D0418
:1032B000B700CF3A031D08009F240E308E314426FC
:1032C00099312100EF000B302000B8002630B70004
:1032D0005D30890B6929B70B6929B80B6929003260
:1032E000CF3020000D04B700370F702921006D107A
:1032F00063308E3144262100EF000800AC30973156
:10330000D32799312000DC008330DE229931320846
:10331000D6003108D5003008D4002F08D3008730FC
:10332000DE2299313208D2003108D1003008D000B5
:103330002F08CF008B30DE2299313208CE003108C1
:10334000CD003008CC002F08CB008F30DE22993121
:1033500032082100E300200031082100E2002000B3
:1033600030082100E10020002F082100E000933008
:10337000DE22993132082100DF00200031082100CF
:10338000DE00200030082100DD0020002F08210091
:10339000DC009730DE22993132082100DB0020006A
:1033A00031082100DA00200030082100D900200077
:1033B0002F082100D800562D81309731D32799311D
:1033C0002000C00082309731D32799312000C100FE
:1033D000C00A0319C10A4008B4008130362599316A
:1033E0004108B4008230362599318330DE2299318C
:1033F00056083206031D062A55083106031D062A03
:1034000054083006031D062A53082F060319142AF0
:103410005608BA005508B9005408B8005308B70058
:103420008330BB00022399318730DE229931520864
:103430003206031D252A51083106031D252A50088E
:103440003006031D252A4F082F060319332A520878
:10345000BA005108B9005008B8004F08B7008730CB
:10346000BB00022399318B30DE2299314E0832069F
:10347000031D442A4D083106031D442A4C0830061A
:10348000031D442A4B082F060319522A4E08BA007E
:103490004D08B9004C08B8004B08B7008B30BB0092
:1034A000022399318F30DE229931210063082000F8
:1034B0003206031D6B2A2100620820003106031D1D
:1034C0006B2A2100610820003006031D6B2A2100B1
:1034D000600820002F060319812A210063082000BC
:1034E000BA00210062082000B90021006108200014
:1034F000B800210060082000B7008F30BB00022315
:1035000099319330DE22993121005F082000320684
:10351000031D9A2A21005E0820003106031D9A2A05
:1035200021005D0820003006031D9A2A21005C0856
:1035300020002F060319B02A21005F082000BA00DE
:1035400021005E082000B90021005D082000B800BD
:1035500021005C082000B7009330BB0002239931A2
:103560009730DE22993121005B0820003206031DCE
:10357000C92A21005A0820003106031DC92A21004A
:10358000590820003006031DC92A210058082000D0
:103590002F060319080021005B082000BA00210053
:1035A0005A082000B900210059082000B800210065
:1035B00058082000B7009730BB00022B2000B8004D
:1035C0009731D32799312000B400B80A38089731D1
:1035D000D32799312000B500B80A38089731D3278E
:1035E00099312000B600B80A38089731D327200057
:1035F000B700B80AB2003608B1003508B000340888
:10360000AF0008003A08BF003908BE003808BD0006
:103610003708BC00B4003B0836259931BB0A3D0889
:10362000B4003B0836259931BB0A3E08B4003B087C
:1036300036259931BB0A3F08B4003B083625BB0A42
:1036400008002000C000C501942C1630C3004508B6
:10365000A03E860002308700010803193A2B450876
:10366000A03E86000108B400430836259931C50AFA
:10367000C30A272BB40143083625C30A08002500D6
:1036800020082000C100C50A410803194A2C45083A
:10369000A03E8600023087000108C200C50A5D2BEB
:1036A00027305B2B36305B2B45305B2B54305B2B4C
:1036B00063305B2B7230C300732B420884000630EA
:1036C00004020318732BA8310435D43E8200450848
:1036D000A03E8600023087000108B400430836256A
:1036E0009931C50AC30A4508A03E8600023087000A
:1036F0000108031D672BB401430836259931C50A1B
:103700003E2C9B309731D32799312000C400F030F4
:10371000C4054508A03E86000230870001080F3925
:10372000C404C50A4408B4009B30362599314508C5
:10373000A03E8600023087000108B4009E30362586
:103740009931C50A482C9B309731D32799312000F5
:10375000C4000F30C4054508A03E86000230870033
:10376000010EF039C404C50A4408B4009B30362564
:1037700099314508A03E8600023087000108B40058
:103780009F309F2B9C309731D32799312000C40064
:10379000F030C4054508A03E8600023087000108CD
:1037A0000F39C404C50A4408B4009C303625993149
:1037B0004508A03E8600023087000108B400A03012
:1037C0009F2B9C309731D32799312000C4000F30B4
:1037D000C4054508A03E860002308700010EF0397E
:1037E000C404C50A4408B4009C3036259931450804
:1037F000A03E8600023087000108B400A1309F2B54
:103800009D309731D32799312000C400F030C40592
:103810004508A03E86000230870001080F39C40425
:10382000C50A4408B4009D30362599314508A03EAC
:103830008600023087000108B400A2309F2B9D3023
:103840009731D32799312000C4000F30C4054508B3
:10385000A03E860002308700010EF039C404C50A7C
:103860004408B4009D30362599314508A03E8600B5
:10387000023087000108B400A3309F2B4208840067
:10388000063004020318482CA8310435E03E8200BB
:10389000C103442B56259931892D23003808200077
:1038A000B4000C3036259931230039082000B400CB
:1038B0000D303625993123003A082000B4000E302F
:1038C0003625993123003B082000B4000F303625FF
:1038D000993123003C082000B4001030362599317E
:1038E00023003D082000B400113036259931230013
:1038F0003E082000B40012303625993123003F08DD
:103900002000B400133036259931230040082000F0
:10391000B400143036259931230041082000B4004A
:10392000A430362599314C2C4008840052300402D2
:1039300003180800A9310435003E820008000C304D
:10394000B401362599310D30B401362599310E3048
:10395000B401362599310F30B40136259931103034
:10396000B401362599311130B40136259931123020
:10397000B401362599311330B4013625993114300C
:10398000B401B40A362599311630B401362599317F
:103990002730B401362599313630B40136259931B6
:1039A0004530B401362599315430B401362599316A
:1039B0006330B401362599317230B4013625AD300B
:1039C0009731D32799312000B4009B303625AE3093
:1039D0009731D32799312000B4009C303625AF3081
:1039E0009731D32799312000B4009D303625993185
:1039F0006430B4009E30362599316430B4009F3075
:103A0000362599316430B400A030362599316430C0
:103A1000B400A130362599316430B400A230362587
:103A200099316430B400A33036259931A530B40102
:103A300036259931A630B40136259931A730B40125
:103A400036259931A830B40136259931A930B40111
:103A500036259931AA30B40136259931AB30B401FD
:103A6000362599316430B400A430362DB5002300DA
:103A700091002000340823009300951315131515A9
:103A800000308B1B01302000B6008B135530230013
:103A90009600AA309600951495184C2D151120000B
:103AA000360C031C8B1303188B1708009B309731BF
:103AB000D32799312000AF002200DE000F30DE0551
:103AC00020002F0E0F392200DF000F30DF059C3061
:103AD0009731D32799312000AF002200E0000F304A
:103AE000E00520002F0E0F392200E1000F30E10524
:103AF0009D309731D3272000AF002200E2000F3025
:103B0000E20520002F0E0F392200E3000F30E305FD
:103B10000800A4309731D32799312000DE0004300B
:103B20005E020318952D0430DE005E08BB00BB3634
:103B3000BB363B082100A2002000AE000A30AF01D6
:103B4000B000B101C62799312F082100BD00200027
:103B50002E082100BC0000303D020B3003193C024E
:103B60000318B52DA901AA01BB2D3C08F63EA900FA
:103B7000FF303D3DAA003C08143EA00000303D3D12
:103B8000A10020005E082100A400A5309731D327B2
:103B900099312100A3009E30A500A630A600C001E7
:103BA000250840079731D32799312100A700230822
:103BB0002000BB002100400A2000DF2DBB36890B0E
:103BC000DE2D3B18E62D21002408ED2D21002608CE
:103BD00040079731D32799312100AB00AC01A800F1
:103BE0000A302000B400B501210027082000AE00F3
:103BF000AF01210028082000B000B101C62799318B
:103C00002F08B7002E08B600DB2799312100403578
:103C1000AD3E8600870120003408C03F3508C13F13
:103C200021000630C00A4002031CD02DB901BA01A0
:103C300039082000BB002030BB35BB35BB353B0706
:103C4000BC0021003A3520003C07BD008600023050
:103C500087000030C03FC13F21000430BA0A3A0259
:103C6000031C182E0630B90A3902031C172EC10195
:103C700041085E3E86000130870002300106031DC8
:103C8000A52F4135AD3E86008701403F2000BB0097
:103C9000413FBC0000303C02283003193B020318AE
:103CA000822E8C2EBB0104303B020318822E41353C
:103CB000AD3E86008701160001040319802E4108DD
:103CC0002000BB002030BB35BB35BB353B07BC00FB
:103CD00021003B3520003C07BD00860002308700F4
:103CE0000130810741310318810A21004135AD3E81
:103CF000860001308701810200304131813B7F31F4
:103D0000BB0A532E21004135AD3E860087011600C7
:103D1000010403191B2F522E21004135AD3E8600B0
:103D200087014108090709070907203E840002307E
:103D30008500403F803F413F813F4135AD3E860099
:103D4000403F2000BB00413FBC0000303C0214302B
:103D500003193B02031CDB2E0A30BB00BC0121000F
:103D60004108090709070907203E8600023087003D
:103D700020003B08C03F3C08C13F21004135AD3E1B
:103D800086008701403F2000BB00413FBC003B084C
:103D9000F63EBD00FF303C3DBE0021004108090752
:103DA00009070907223E86000230870020003D08EF
:103DB000C03F3E08C13F21004135AD3E860087012E
:103DC000403F2000BB00413FBC0000303C021E30A1
:103DD00003193B02031C1B2F0A30BB00BC0121004E
:103DE0004108090709070907223E860002308700BB
:103DF00020003B08C03F3C08C13F21004135AD3E9B
:103E000086008701403F2000BB00413FBC003B08CB
:103E1000EC3EBD00FF303C3DBE00210041080907DB
:103E200009070907243E86000230870020003D086C
:103E3000C03F3E08C13F2100BF0103303F020318CD
:103E4000A52F832F41082000BB002030BB35BB3598
:103E5000BB353B07BC0021003F3520003C07BD00BF
:103E6000860002308700403FBE00413FBF00210076
:103E70003D0820003F02031D412F21003C08200087
:103E80003E020318A22F210041080907090709076C
:103E9000263E860002308700403F2000BB00413FA5
:103EA000BC002100210820003C02031D5B2F2100E3
:103EB000200820003B020318A22F21004108200007
:103EC000BB002030BB35BB35BB353B07BC002100F8
:103ED0003F3520003C07BD008600023087000130DE
:103EE000810200304131813B7F31210041080907C7
:103EF00009070907263E8600023087000130810746
:103F000041310318810A41082000BB002030BB3535
:103F1000BB35BB353B07BC0021003F3520003C07CB
:103F2000BD00860002308700403FBE00413FBF0019
:103F300021002A02031DA02F20003E082100290293
:103F4000031C222F2100BF0A1D2F0630C10A410287
:103F5000031C382EBE0106303E020318C22F3E0855
:103F6000090709070907203E8600023087003E3511
:103F7000AC3E840001308500403F803F413F813F9F
:103F8000BE0AAB2FFF302000DD000800B201B301F4
:103F90002E1CCE2F3008B2073108B33DB035B10D1D
:103FA000AF36AE0C2E082F04031DC82F3308AF0008
:103FB0003208AE000800B901BA013408350403190B
:103FC000FB2FB801B80AB51BE82FB435B50DE22FA9
:103FD000B935BA0D35083702031DF02F3408360203
:103FE000031CF72F3408B6023508B73B3914B53631
:103FF000B40CB80BE82F3A08B5003908B400080033
:1040000089313D29893159298931B7298931CD290A
:104010008A31362A8A31982A8A31AA2AFF3FFF3FFD
:10402000FF3FFF3F2000A530B001B2019731D327F9
:10403000A0312000B000B101B301B30A33085C0223
:10404000031C5B2833085D3E8600013087000103B6
:1040500003191D283008AF003308FF3E890A3128B4
:10406000AF36890B30282F1847281D28A630412845
:10407000A7304128A8304128A9304128AA3041283A
:10408000AB309731D327A0312000B2005428330839
:10409000FF3E031C542884000630040203185428F1
:1040A000AC310435503E82003208310203181D281D
:1040B0003208B1001D283108080093100D08AB002C
:1040C000F030AB042B186B280A3021006B02031868
:1040D0006F28EB0A6F2821006B08031DEB032000FB
:1040E0002B08A000A03620189A28A401A7012708B1
:1040F0005E3E86000130870002300106031D8B28DA
:10410000210067082000A000270A8728A036890B15
:1041100086282018A40A0630A70A2702031C77283D
:104120002408031D9E280A3021006A0203189E28D5
:10413000EA0A9E2821006A08031DEA0320002B08D2
:10414000A000A036A0362018AC280A302100690251
:104150000318B028E90AB02821006908031DE90303
:1041600020002B08A000A036A036A0362018BF28BB
:104170000A30210068020318C328E80AC328210076
:104180006808031DE80322005D08031DE3280A30C8
:1041900021006B02031CE42813302200DD00200004
:1041A000A80128085E3E860001308700010BDD284B
:1041B0002808203E86000A3081070630A80A280217
:1041C0000318E428D128DD0322005B08031D06291B
:1041D0000A3021006902031C072913302200DB008A
:1041E0002000A90129085E3E8600013087000330C7
:1041F0000106031D00292908203E86000A30810798
:104200000630A90A290203180729F228DB03220035
:104210005A08031D29290A3021006802031C2A2993
:1042200013302200DA002000AA012A085E3E860030
:104230000130870004300106031D23292A08203E8F
:1042400086000A3081070630AA0A2A0203182A29A2
:104250001529DA0322005C08031DCE290A3021004B
:104260006A02031C080013302200DC002000AC01AD
:104270002C085E3E860001308700023001060319DB
:1042800048292C085E3E860005300106031D4F2993
:104290002C08203E8600013087000A308107063056
:1042A000AC0A2C02031C3829DD0A6330A5005E0825
:1042B000A000A036A0362008A6005D082606031D33
:1042C0006429A501A50AA0292608A000A101A035FE
:1042D000A10D5D08A200A30121082306031D722978
:1042E00020082206031D762902308A292608F600B6
:1042F0000330F701F800F901D121A0315D08A000D9
:10430000A10177082106031D872976082006031DD1
:104310008C290330A500A0295E08023EA0000030D1
:1043200003180130A100803A803C031D9929200820
:104330005D02031CA0292000DD01A501D021A031D0
:1043400063302000250603190800AD012D085E3EEC
:1043500086000130870002300106031DC8292D08A0
:10436000A0002030A035A035A0352007A1002535BC
:104370002107A2008600023087002D35AC3E840064
:1043800001308500403F80070131413F803D3F3192
:104390000630AD0A2D0203180800A629DC03080028
:1043A0000800FA01FB01761CD9297808FA07790878
:1043B000FB3DF835F90DF736F60C76087704031D4A
:1043C000D3297B08F7007A08F600080025000D08BD
:1043D0002000BB00BB36BB363B1CB62A9C30860097
:1043E000223087001B30C03FC401C40AC501390810
:1043F000023EBB0000303A3DBC00803ABD0045089B
:10440000803A3D02031D062A44083B02031C292A68
:104410009A302000BB002330BC0044083B078600D4
:1044200045083C3D87000108BD009C30BE0022309D
:10443000BF0044083E07C00045083F3DC10040089A
:104440008600410887003D088100C40A0319C50A97
:10445000F7299C3086002230870050304331010616
:104460009C3086002230870003193F2A51304331A7
:104470000106031D412A9C308600223087004E3100
:10448000810A2200CB012000C601C60A3A08803A00
:10449000BB0080303B02031D4F2A46083902031C33
:1044A0006C2A20004608FF3EAE0046089C3E86006F
:1044B00022308701873D0108C324A131BB00460893
:1044C0009C3EBC002230BD01BD3D3C0886003D083D
:1044D00087003B088100452A9D302000AE00223035
:1044E000AF003908B0008F24A1312F08C3002E0877
:1044F000C2004308BB009D30BC002230BD0039081B
:104500003C07BE003A083D3DBF003E0886003F081C
:1045100087003B0881009E30BB002230BC00390878
:104520003B07BD003A083C3DBE003D0886003E0802
:104530008700420881009F30BB002230BC00390850
:104540003B07BD003A083C3DBE003D0886003E08E2
:1045500087000D3081003908043EDF24200039082F
:10456000043EB90000303A3DBA000800B901BA0172
:1045700008008E31D626A131BF00872B751DC22AB7
:10458000F515922B1B3020003F06031D922BDA01FC
:104590002200B601B7012200CA0A922B20005A0855
:1045A0009B3EBB002330BC01BC3D3B0886003C0861
:1045B00087003F088100DA0A3F080319E22A220037
:1045C000CA01922BF201CB2A20005A089B3EBB0065
:1045D0002330BC01BC3D3B0886003C0887003F08F7
:1045E0008100DA0A3F08F2044F307202031C002BEC
:1045F0009B30DA018600233087000030C03FDF2A7D
:104600002200CA0A7208B6000230B701B6070318C2
:10461000B70AF20AF20A922B20005A089B3EBB000E
:104620002330BC01BC3D3B0886003C0887003F08A6
:104630008100DA0AF203CB2A72080319922B2000B8
:104640005A089B3EBB002330BC01BC3D3B088600A2
:104650003C0887003F088100DA0AF20B922B9B305E
:10466000AE002330AF007208B0008F24A1312E08B5
:104670002F040319CB2AF517DF2A20005A089B3E86
:10468000BB002330BC01BC3D3B0886003C088700D2
:104690003F0881009B30DA0A8600233087004331CF
:1046A00001082200CC00CB012000BE019B30860017
:1046B0002330870041310108023EBB00003003185F
:1046C0000130BC00803A803C031D682B3B083E0251
:1046D0000318852B20003E08AE003E089B3E860056
:1046E00023308701873D0108C324A131BB003E0868
:1046F0009B3EBC002330BD01BD3D3C0886003D080B
:1047000087003B088100BE0A562B7515DF2A220060
:104710004A088400063004020318DF2AA831043551
:10472000EC3E8200220037082000BA002200360842
:104730002000B90008002000BE01C101BF01220015
:1047400039082000BD00220038082000BC00BC351C
:10475000BD0DBB0122000E1520003C083D040319CD
:104760008C2C73080319832C8E319C26A131C00038
:10477000220039082000BD00220038082000BC00BB
:104780000530BC35BD0D3E02031C792C832C1B303B
:104790004006031D832C4630C1018600233087006C
:1047A0004008C03FC10ABE0A832C4108463EB900FA
:1047B0002330BA01BA3D390886003A08870040081C
:1047C0008100C10ABF01D32B4108463EB900233006
:1047D000BA01BA3D390886003A08870040088100CE
:1047E000C10A4008BF043F08023EBB0072303F02CE
:1047F000031C042C4630C1018600233087000030A2
:10480000C03F2000BE01832CBE0ABF0ABF0A832C12
:104810003F080319832C4108463EB9002330BA01F2
:10482000BA3D390886003A08870040088100C10A6D
:10483000BF0B832C4630AE002330AF003F08B000E2
:104840008F24A1312E082F040319D32B012C4108EA
:10485000463EB9002330BA01BA3D390886003A080D
:10486000870040088100C10A4108463E8600233087
:104870008701873D8101C10A4108463E86002330F9
:104880008701873D46308101C10A860023308700B9
:10489000443101082200CC000430CB012000AE00DE
:1048A000463086002330870045310108C324A131FA
:1048B000C00022004E06031D012C20003B08043ED0
:1048C0008F31F027A13108302000B900C930890BA1
:1048D000672CB90B672C003274080319732C8E31C6
:1048E000D626A131632C2000BE0ABC01BC0ABD0142
:1048F000832C3E088400053004020318832C903179
:104900000435003E82000130BC020030BD3B213046
:10491000890B882C0000AC2B22000E1108002F08F8
:10492000B5002E08B400B701B801BB2C34088600CE
:10493000350887000108B100B201B200B1013108A9
:10494000B7063208B806B40A0319B50A0830B6002B
:10495000B81FB72C3808B2003708B1002130B13584
:10496000B20D3106B70010303206B800B92CB73599
:10497000B80DB60BA82CB003300F962C3808AF003A
:104980003708AE0008002000AF0004302E02031CE0
:10499000DD2C22004B08003E8400B0300318013E9D
:1049A000850000082000B00022000730CB0ACB05AC
:1049B0004C082000B0063008AF062F080800AE00F3
:1049C000210014122200D10120002E082200D20062
:1049D000210014160800AC309731D327A4312000F1
:1049E000B70081309731D327A4312000B100463081
:1049F000B2002330B3002F083207B4003008333D33
:104A0000B500340886003508870031088100AF0AF8
:104A10000319B00A82309731D327A4312000B100A6
:104A20004630B2002330B3002F083207B4003008FC
:104A3000333DB50034088600350887003108810011
:104A4000AF0A0319B00A4630B1002330B2002F0874
:104A50003107B3003008323DB40033088600340813
:104A6000870037088100AF0A0319B00A3708031915
:104A7000A52D4630B1002330B2002F083107B30016
:104A80003008323DB40033088600340887005308EC
:104A90008100AF0A0319B00A5408B1004630B200D1
:104AA0002330B3002F083207B4003008333DB5007F
:104AB000340886003508870031088100AF0A0319E1
:104AC000B00A5508B1004630B2002330B3002F08B9
:104AD0003207B4003008333DB5003408860035088D
:104AE000870031088100AF0A0319B00A5608B100E7
:104AF0004630B2002330B3002F083207B40030082C
:104B0000333DB50034088600350887003108810040
:104B1000AF0A0319B00AA5309731D327A431013960
:104B20002000B1004630B2002330B3002F08320716
:104B3000B4003008333DB5003408860035088700DE
:104B400031088100AF0A0319B00A02303702031C92
:104B5000162E4630B1002330B2002F083107B300C3
:104B60003008323DB40033088600340887004F080F
:104B70008100AF0A0319B00A5008B1004630B200F4
:104B80002330B3002F083207B4003008333DB5009E
:104B9000340886003508870031088100AF0A031900
:104BA000B00A5108B1004630B2002330B3002F08DC
:104BB0003207B4003008333DB500340886003508AC
:104BC000870031088100AF0A0319B00A5208B1000A
:104BD0004630B2002330B3002F083207B40030084B
:104BE000333DB50034088600350887003108810060
:104BF000AF0A0319B00AA5309731D327A4318936FB
:104C000001392000B1004630B2002330B3002F0834
:104C10003207B4003008333DB5003408860035084B
:104C2000870031088100AF0A0319B00A0330370248
:104C3000031C8A2E4630B1002330B2002F08310702
:104C4000B3003008323DB4003308860034088700D2
:104C50004B088100AF0A0319B00A4C08B100463076
:104C6000B2002330B3002F083207B4003008333DC0
:104C7000B500340886003508870031088100AF0A86
:104C80000319B00A4D08B1004630B2002330B3001A
:104C90002F083207B4003008333DB50034088600D1
:104CA0003508870031088100AF0A0319B00A4E08A1
:104CB000B1004630B2002330B3002F083207B400F1
:104CC0003008333DB50034088600350887003108C8
:104CD0008100AF0A0319B00AA5309731D327A43158
:104CE0002000B100B136B13631080139B20046308A
:104CF000B3002330B4002F083307B5003008343D2B
:104D0000B600350886003608870032088100AF0AF1
:104D10000319B00A04303702031C072F4630B100D4
:104D20002330B2002F083107B3003008323DB40001
:104D300033088600340887002100600881002000C5
:104D4000AF0A0319B00A210061082000B100463003
:104D5000B2002330B3002F083207B4003008333DCF
:104D6000B500340886003508870031088100AF0A95
:104D70000319B00A210062082000B1004630B200D9
:104D80002330B3002F083207B4003008333DB5009C
:104D9000340886003508870031088100AF0A0319FE
:104DA000B00A210063082000B1004630B200233071
:104DB000B3002F083207B4003008333DB500340883
:104DC00086003508870031088100AF0A0319B00A50
:104DD000A5309731D327A4312000B100B136B136C8
:104DE000B13631080139B2004630B3002330B40087
:104DF0002F083307B5003008343DB600350886006B
:104E00003608870032088100AF0A0319B00A05305E
:104E10003702031C812F4630B1002330B2002F0827
:104E20003107B3003008323DB4003308860034083F
:104E3000870021005C0881002000AF0A0319B00A36
:104E400021005D082000B1004630B2002330B300DD
:104E50002F083207B4003008333DB500340886000F
:104E60003508870031088100AF0A0319B00A210014
:104E70005E082000B1004630B2002330B3002F0896
:104E80003207B4003008333DB500340886003508D9
:104E9000870031088100AF0A0319B00A21005F08BA
:104EA0002000B1004630B2002330B3002F08320793
:104EB000B4003008333DB50034088600350887005B
:104EC00031088100AF0A0319B00AA5309731D32702
:104ED000A431890E0F3901392000B1004630B200EB
:104EE0002330B3002F083207B4003008333DB5003B
:104EF000340886003508870031088100AF0A03199D
:104F0000B00A06303702031C08004630B1002330D7
:104F1000B2002F083107B3003008323DB400330827
:104F20008600340887002100580881002000AF0A5D
:104F30000319B00A210059082000B1004630B20020
:104F40002330B3002F083207B4003008333DB500DA
:104F5000340886003508870031088100AF0A03193C
:104F6000B00A21005A082000B1004630B2002330B8
:104F7000B3002F083207B4003008333DB5003408C1
:104F800086003508870031088100AF0A0319B00A8E
:104F900021005B082000B1004630B2002330B3008E
:104FA0002F083207B4003008333DB50034088600BE
:104FB0003508870031088100AF0A0319B00AA5300F
:104FC0009731D327A4312000B1000530B136890BC9
:104FD000E62F31080139B2004630B3002330B40067
:104FE0002F083307B5003008343DB6003508860079
:104FF0003608870032088100AF0A0319B00A08009A
:105000008E31472E8E31492E8E314B2E8E314D2EC4
:105010008E314F2E8E31512E8E31532E8E31552E94
:105020008E31572E8E31592E8E315B2E8E315D2E64
:105030008E315F2E8E31612E8E31632E8E31652E34
:105040008E31672E8E31692E8E316B2E8E316D2E04
:105050008E316F2E8E31712E8E31512E8E31732EF8
:105060008E31752E8E318C2E8E318C2E8E318C2E73
:105070008E318C2E8E318C2E8E31772E8E31792E74
:105080008E317B2E8E317D2E8E317F2E8E31812E74
:105090008E31832E8E31852E8E31872E8E318C2E41
:1050A0008E318C2E8E318C2E8E318C2E8E318C2E1C
:1050B0008E318C2E8E318C2E8E318C2E8E318C2E0C
:1050C0008E318C2E8E318C2E8E318C2E8E318C2EFC
:1050D0008E318C2E8E318C2E8E318C2E8E318C2EEC
:1050E0008E318C2E8E318C2E8E318C2E8E318C2EDC
:1050F0008E318C2E8E318C2E8E318C2E8E318C2ECC
:105100008E318C2E8E318C2E8E318C2E8E318C2EBB
:105110008E318C2E8E318C2E8E318C2E8E318C2EAB
:105120008E318C2E8E318C2E8E318C2E8E318C2E9B
:105130008E318C2E8E318C2E8E318C2E8E318C2E8B
:105140008E318C2E8E318C2E8E318C2E8E318C2E7B
:105150008E318C2E8E318C2E8E318C2E8E318C2E6B
:105160008E318C2E8E318C2E8E318C2E8E318C2E5B
:105170008E318C2E8E318C2E8E318C2E8E318C2E4B
:105180008E318C2E8E318C2E8E318C2E8E31892E3E
:10519000903137289031492890315B2890316D2823
:1051A00090317F28903191289B31502B9B31522B8D
:1051B0009B31542B9B31562B9B31582B9B315A2BB7
:1051C0009B31812B9B31A32B9B31C22B9B31E12B3C
:1051D0009C31002C9C311F2CA231BE2AA231CE2A38
:1051E000A231E42AA3310C2BA3311C2BA3313D2B7C
:1051F000FF3FFF3FFF3FFF3FFF3FFF3FFF3FFF3FBF
:105200009C319E2C9C319E2C9C319E2C9C319E2C42
:105210009C319E2C9C319E2C9C319E2C9C319E2C32
:105220009C319E2C9C319E2C9C319E2C9C319E2C22
:105230009C319E2C9C319E2C9C319E2C9C319E2C12
:105240009C319E2C9C319E2C9C319E2C9C319E2C02
:105250009C319E2C9C319E2C9C319E2C9C319E2CF2
:105260009C319E2C9C319E2C9C319E2C9C319E2CE2
:105270009C319E2C9C319E2C9C319E2C9C319E2CD2
:105280009C319E2C9C319E2C9C319E2C9C319E2CC2
:105290009C319E2C9C319E2C9C319E2C9C319E2CB2
:1052A0009C319E2C9C319E2C9C319E2C9C319E2CA2
:1052B0009C319E2C9C319E2C9C319E2C9C319E2C92
:1052C0009C319E2C9C319E2C9C319E2C9C319E2C82
:1052D0009C319E2C9C319E2C9C319E2C9C319E2C72
:1052E0009C319E2C9C319E2C9C319E2C9C319E2C62
:1052F0009B31252B9B313F2B9C319E2C9C319E2C2E
:105300009C319E2C9C319E2C9C319E2C9C319E2C41
:105310009C319E2C9C319E2C9C319E2C9C319E2C31
:105320009C319E2C9C319E2C9C319E2C9C319E2C21
:105330009C319E2C9C319E2C9C319E2C9C319E2C11
:105340009C319E2C9C314D2C1230AE00B030AF0001
:105350003222A9312E08013EC3004630BE00233060
:10536000BF003C083E0786003D083F3D87001230E5
:105370008400B030850020004308C00040080319B5
:10538000C52912001E00C00BC12920004308BC071C
:105390000318BD0A1930AE00B030AF003222A93177
:1053A0002E08C3004630BE002330BF003C083E0735
:1053B00086003D083F3D870019308400B0308500ED
:1053C00020004308C00040080319EA2912001E000B
:1053D000C00BE62920004308BC070318BD0A15309E
:1053E0009731D327A931303E2000BE004630BF00A0
:1053F0002330C0003C083F07C1003D08403DC200CB
:1054000041088600420887003E088100BC0A031953
:10541000BD0A4630BE002330BF003C083E07860070
:105420003D083F3D87008101BC0A0319BD0A3D08C4
:10543000B5003C08B4001630B6009731DF273508B8
:10544000BD003408BC004630BE002330BF003C081D
:105450003E0786003D083F3D87008101BC0A0319D5
:10546000BD0A08002F08B2002E08B10031088400E0
:105470003208850012000319412AB10A0319B20A41
:10548000362A2E083102AE002F08323BAF0008004A
:1054900011102200690820009700220068082000EF
:1054A00096002100ED1520000D08F600CF30F6041F
:1054B0007608220064060319642A7608E400760858
:1054C0002000E00021006D1427008C1C6E2A0130A2
:1054D0002000D3070030D43DD53DD63D27008C1D9C
:1054E000782A01302000CF070030D03DD13DD23D99
:1054F0002200901D822A01302000CB070030CC3DD5
:10550000CD3DCE3D2200901C8C2A01302100E007C9
:105510000030E13DE23DE33D2200101E962A0130BD
:105520002100DC070030DD3DDE3DDF3D2200901E26
:10553000A02A01302100D8070030D93DDA3DDB3DFB
:1055400021006C1FA72A2000D70A0319D80A2100BE
:10555000EC1FBA2A2200BC0A0319BD0A00303D0222
:10556000023003193C02031CBA2AD122AA312200BC
:10557000BC01BD01700871040319C22A0130F00298
:105580000030F13B2200BE0A0319BF0A00303F027F
:105590000A3003193E02031C0800D822BE01BF01D5
:1055A00008002000DF0A06305F020318DF01080050
:1055B0003A083B04031908000130BA020030BB3B33
:1055C00008008C31DA2C8C31E12C8C31E82C8C31B8
:1055D000EF2C8C31F62C8C31FD2C8D31252D8D311D
:1055E000282D8D312B2D8D312E2D8D31312D8D315D
:1055F000342DFF3FFF3FFF3FFF3FFF3FFF3FFF3F98
:105600009331EC2B9331FC2B94310C2C94311B2CCB
:1056100094313F2C94314F2C9431612C9631FC2ED7
:105620009631FC2E9631FC2E9431DF2C9431EA2CED
:105630009631FC2E9631FC2E9631FC2E9631FC2EA6
:105640009631FC2E9631FC2E9631FC2E9631FC2E96
:105650009631FC2E9631FC2E9631FC2E9631FC2E86
:105660009631FC2E9631FC2E9631FC2E9631FC2E76
:105670009631FC2E9631FC2E9531AE2D96318A2E28
:105680009631FC2E9631FC2E9631FC2E9631FC2E56
:105690009631FC2E9631FC2E9631FC2E9631FC2E46
:1056A0009631FC2E9631FC2E9631FC2E9631FC2E36
:1056B0009631FC2E9631FC2E9631FC2E9631FC2E26
:1056C00094312A2C9631F92E0A30C50A4502031C62
:1056D0000800C5019223AB312100650803197A2B1C
:1056E0000330E50A6502031C7A2B8B1316159610FE
:1056F0000000010020005B080319080022001E3092
:10570000C40A4402031C0800C40120005B080319FA
:105710000800DB035B08031D08007F302100EF0059
:105720007514080025000D082000AE00AE36AE3618
:105730002E1C9E2B2200C6015810080022000530A6
:10574000C60A4602031C08000530C60058140800AB
:10575000B301B2019B30B0002330B1002E083007F6
:1057600086002F08313D870001080319D22B103025
:1057700032020318CE2B3308A03E86000230870089
:105780009B30B0002330B1002E08300784002F0872
:10579000313D850000088100B30AB20AAE0A031940
:1057A000AF0AAA2B3308A03E8600023087009B3048
:1057B0008101B30AB0002330B1002E083007860003
:1057C0002F08313D87000108031D0800AE0A0319A8
:1057D000AF0A08009110EC2BF60121006E080A3E7A
:1057E0008400B0300318013E85000008F7006F0800
:1057F000F600F704770822008F0021000830EE0A37
:105800006E020318EE01080022005208510203182C
:10581000152C51089C3E860022308701873D0108E7
:10582000290092002200D10A080021001412080069
:105830002200560855020318292C5508463E8600BA
:1058400023308701873D010823009A002200D50AF2
:105850000800210011120800FE0012001E00013095
:10586000FE020030FF3B7F087E04031900342D2C1C
:105870006400013080010131FE020030FF3B7F08EF
:105880007E0403190034392C8D31492D8D314C2D76
:105890008D314F2D8D31522D8D31552D8D31582D0E
:1058A000A0313628A0313828A0313A28A0313C2830
:1058B000A0313E28A03140288E31F42E8E31FC2EAE
:1058C0008F31042F8F310C2F8F31142F8F311C2FDC
:1058D000FF3FFF3FFF3FFF3FFF3FFF3FFF3FFF3FD8
:1058E000FF3FFF3FFF3FFF3FFF3FFF3FFF3FFF3FC8
:1058F000FF3FFF3FFF3FFF3FFF3FFF3FFF3FFF3FB8
:10590000FF3FFF3FFF3FFF3FFF3FFF3FFF3FFF3FA7
:10591000FF3FFF3FFF3FFF3FFF3FFF3FFF3FFF3F97
:10592000FF3FFF3FFF3FFF3FFF3FFF3FFF3FFF3F87
:10593000FF3FFF3FFF3FFF3FFF3FFF3FFF3FFF3F77
:10594000FF3FFF3FFF3FFF3FFF3FFF3FFF3FFF3F67
:10595000FF3FFF3FFF3FFF3FFF3FFF3FFF3FFF3F57
:10596000FF3FFF3FFF3FFF3FFF3FFF3FFF3FFF3F47
:10597000FF3FFF3FFF3FFF3FFF3FFF3FFF3FFF3F37
:10598000FF3FFF3FFF3FFF3FFF3FFF3FFF3FFF3F27
:10599000FF3FFF3FFF3FFF3FFF3FFF3FFF3FFF3F17
:1059A000FF3FFF3FFF3FFF3FFF3FFF3FFF3FFF3F07
:1059B000FF3FFF3FFF3FFF3FFF3FFF3FFF3FFF3FF7
:1059C000FF3FFF3FFF3FFF3FFF3FFF3F4630B1003C
:1059D0002330B2002F083107B3003008323DB40045
:1059E000330886003408870006308100AF0A0319A7
:1059F000B00AA6309731D327AC312000B100463031
:105A0000B2002330B3002F083207B4003008333D12
:105A1000B500340886003508870031088100AF0AD8
:105A20000319B00AA7309731D327AC312000B10059
:105A30004630B2002330B3002F083207B4003008DC
:105A4000333DB500340886003508870031088100F1
:105A5000AF0A0319B00AA8309731D327AC31200020
:105A6000B1004630B2002330B3002F083207B40033
:105A70003008333DB500340886003508870031080A
:105A80008100AF0A0319B00AA9309731D327AC318E
:105A90002000B1004630B2002330B3002F08320797
:105AA000B4003008333DB50034088600350887005F
:105AB00031088100AF0A0319B00AAA309731D32701
:105AC000AC312000B1004630B2002330B3002F08C3
:105AD0003207B4003008333DB5003408860035087D
:105AE000870031088100AF0A0319B00AAB30973143
:105AF000D327AC312000B1004630B2002330B300D0
:105B00002F083207B4003008333DB5003408860052
:105B10003508870031088100AF0A0319B00AA430A4
:105B20009731D3272000B1004630B2002330B300B4
:105B30002F083207B4003008333DB5003408860022
:105B40003508870031088100AF0A0319B00A080040
:105B50008B132000B80138085E3E860001308700B4
:105B60000108B700B601B3013835A03E8600160023
:105B700001040319BD2D0130BE2D0030B5000230E7
:105B80003706031DEE2D3835AC3E86000130870008
:105B900016000104031DD32D3808203E8600013075
:105BA00087008101072E3808203E860001308700DB
:105BB0000108031D052E3835AC3E8600403FB0007D
:105BC000413FB100003031020A300319300203189E
:105BD000072EB601B60AB301B30A072E370303191D
:105BE000FD2D033037060319FD2D04303706031948
:105BF000FD2D05303706031D072E3808203E860090
:105C00000130870001080319072EB601B60A3608CD
:105C10003504B200B401320803193D2E2100670893
:105C20002000B000380A152EB036890B142E301C17
:105C3000232EAE01AE0A38088E31F126AD31200098
:105C4000B401B40A4E2E22004708031D4E2E200038
:105C5000AE01AE0A38088E31F126AD310130200098
:105C6000B000380A342EB035890B332E30082100AD
:105C7000E70403302200C7001F2EAE0138088E3122
:105C8000F126AD3101302000B000380A482EB03581
:105C9000890B472E3008FF3A2100E7052000340821
:105CA0000319992E36080319832E02303706031D77
:105CB0007D2E33080319672E3835AC3E860001303F
:105CC0008700810200304131813B7F31832E3808CB
:105CD000203E86000130870001080319732E380822
:105CE000203E860081033835AC3E860001308700B7
:105CF00016000104031D5C2E832E3808203E86000A
:105D000001308700810335080319992E3835A03EEC
:105D1000860001308700160001040319992E3835DA
:105D2000A03E860001308700810200304131813B76
:105D30007F310630B80A3802031CAB2D2200470819
:105D4000031DC7038B170800AC309731D327AE3142
:105D50002000B6004630B1002330B2002F083107D2
:105D6000B3003008323DB4003308860034088700A1
:105D700036088100AF0A0319B00A36080319F22E5B
:105D800000309731D327AE312000B1004630B20049
:105D90002330B3002F083207B4003008333DB5007C
:105DA000340886003508870031088100AF0A0319DE
:105DB000B00A01309731D327AE312000B100463010
:105DC000B2002330B3002F083207B4003008333D4F
:105DD000B500340886003508870031088100AF0A15
:105DE0000319B00A02303602031C282F0230973103
:105DF000D327AE312000B1004630B2002330B300CB
:105E00002F083207B4003008333DB500340886004F
:105E10003508870031088100AF0A0319B00A033042
:105E20009731D327AE312000B1004630B200233085
:105E3000B3002F083207B4003008333DB5003408F2
:105E400086003508870031088100AF0A0319B00ABF
:105E500003303602031C5E2F04309731D327AE3156
:105E60002000B1004630B2002330B3002F083207C3
:105E7000B4003008333DB50034088600350887008B
:105E800031088100AF0A0319B00A05309731D327D2
:105E9000AE312000B1004630B2002330B3002F08ED
:105EA0003207B4003008333DB500340886003508A9
:105EB000870031088100AF0A0319B00A04303602A6
:105EC000031C942F06309731D327AE312000B10048
:105ED0004630B2002330B3002F083207B400300838
:105EE000333DB5003408860035088700310881004D
:105EF000AF0A0319B00A07309731D327AE3120001B
:105F0000B1004630B2002330B3002F083207B4008E
:105F10003008333DB5003408860035088700310865
:105F20008100AF0A0319B00A05303602031CCA2FDC
:105F300008309731D327AE312000B1004630B2008F
:105F40002330B3002F083207B4003008333DB500CA
:105F5000340886003508870031088100AF0A03192C
:105F6000B00A09309731D327AE312000B100463056
:105F7000B2002330B3002F083207B4003008333D9D
:105F8000B500340886003508870031088100AF0A63
:105F90000319B00A06303602031C08000A30973194
:105FA000D327AE312000B1004630B2002330B30019
:105FB0002F083207B4003008333DB500340886009E
:105FC0003508870031088100AF0A0319B00A0B3089
:105FD0009731D3272000B1004630B2002330B30000
:105FE0002F083207B4003008333DB500340886006E
:105FF0003508870031088100AF0A0319B00A08008C
:106000006E346734C5347934DD34613402341A3483
:1060100000340034FE34FD34FB34F734EF34DF3425
:10602000BF347F345034453452345F3456343234C4
:10603000003435342E34313437340034FF3FFF3FE1
:10604000FF3FFF3FFF3FFF3FFF3FFF3FFF3FFF3F60
:10605000FF3FFF3FFF3FFF3FFF3FFF3FFF3FFF3F50
:10606000FF3FFF3FFF3FFF3FFF3FFF3FFF3FFF3F40
:10607000FF3FFF3FFF3FFF3FFF3FFF3FFF3FFF3F30
:107FF000FF3FFF3FFF3FFF3FFF3FFF3F963F783F81
:020000040001F9
:080000000000000006000100F1
:04000E006CC9FFDFDB
:10E000007800000078000000780000007800000030
:10E010007800000078000000000000000000000010
:10E020000000000000000000010001005000650039
:10E030007200690070006F0064002000780000002A
:10E040000034003400340034003400340034500014
:10E0500075006D00700020003100000000340034B5
:10E0600000340034003400340034003450007500B3
:10E070006D007000200032000000003400340034D5
:10E0800000340034003400340034500075006D005A
:10E0900070002000330000000034003400340034ED
:10E0A0000034003400340034500075006D007000FE
:10E0B0002000340000000034003400340034003408
:10E0C000003400340034500075006D0070002000F2
:10E0D00035000000003400340034003400340034D3
:10E0E00000340034500075006D00700020003600D0
:10E0F00000000034003400340034003400340034B4
:10E1000000340000000000000000000000000000DB
:10E1100000000000000000000000000000000000FF
:10E1200000000000000000000000000000000000EF
:10E1300000000000000021000200000064006400F4
:10E1400064006400640064006400000000000000DB
:10E150000000000000000000030021000200000099
:00000001FF
