:040000000EEF00F00F
:0400080004EF10F001
:080018000CEF10F0EDEF0DF00C
:10100000002C1F00CC1E00BE1E00D01500B0170023
:10101000121F00421900281F00241F00201F001C5F
:101020001F000C1F00061F00001F00F21E00761A92
:0510300000303736001E
:10103600060E526E300EE82EFED7522EFCD700D08A
:101046008A8A200E526E2A0EE82EFED7522EFCD722
:10105600586AC00E436E060E446E020E456E5BD88D
:101066003FEC0EF0C00E436E050E446E3F0E456E0D
:1010760052D83FEC0EF0C00E436E040E446EEB0EDB
:10108600456E49D83FEC0EF0C00E436E010E446E1D
:10109600456A41D83FEC0EF0C00E436E446A400EDE
:1010A600456E39D83FEC0EF0010E476E34D883EC0E
:1010B6000EF0C00E436E090E446E030E456E2BD81D
:1010C6003FEC0EF058500DE1040E536E540E546E64
:1010D600040E556E780E566E530E4E6E300E05EC9F
:1010E6000EF0576A24D8456A16D83FEC0EF0572AF8
:1010F600170E5764F7D7180E576E19D845680BD8D0
:101106003FEC0EF0572A9B0E5764F7D7582A020E6B
:1011160058649FD7020C5850310F526E52C0F6FFDA
:10112600100EF76E000EF86E0800F5501200400E15
:10113600436E57C044F0400C550E73EC0FF0586ADE
:101146000A0E73EC0FF0582A070E5864F9D7ACA2B2
:10115600FED757EC0FF0596A5A6A576A090E566E4F
:1011660030D03EEC0FF0556E4AD855C0DFFF594AD5
:101176005A2AAA0E0001601911E1030E61190EE147
:1011860062050CE1050E59185A1008E13EEC0FF005
:101196000F0E316E010E62EC0EF015D0040E5918CA
:1011A6005A100FE1020E601906E0050E601903E001
:1011B600070E601906E120EE61F0DE505626DD507E
:1011C600572218D8CEE365EC09F03FC056F040C070
:1011D60057F0550E73EC0FF0596A5A6A06D00FD8BD
:1011E600DF5073EC0FF0594A5A2A04D8F8E32CEC76
:1011F6000EF0ADD75650595C57505A5812005950F8
:10120600600FD96EDA6A1200526E090E5218D8B4FF
:101216001200536A1ED04CD8300E73EC0CF02AD054
:101226002FD8300E73EC0EF025D036D8300E43ECA6
:101236000CF020D03DD8370E73EC0CF01BD020D824
:10124600370E73EC0EF016D027D8370E43EC0CF0A1
:1012560011D05250506E516A51500CE15050DBE0A3
:10126600010ADEE0030AE1E0010AE4E0070AE7E03A
:10127600010AEAE04F2A532A030E5364EAD7030C05
:101286005350020DF350100F546E010E476E540E5C
:10129600486E4FC049F012005350020DF350080F2C
:1012A600546E010E476E540E486E4FC049F0120040
:1012B60053505324546E010E476E540E486E4FC061
:1012C60049F0120063C000F064C001F040D0A0EC09
:1012D6000BF031C041F032C042F049D062EC0AF066
:1012E60031C041F032C042F042D027EC0BF031C0A1
:1012F60041F032C042F03BD0BFEC09F031C041F0C2
:1013060032C042F034D0010E696F2B6E0CD0010E44
:10131600696F615103E1010E296E05D0020E611954
:1013260002E1010E286E426A0A0E0DD0436A43504E
:10133600600FD96EDA6A0A0EDF6E432A070E43641F
:10134600F6D7426A080E416E12D06969ECD70001E1
:101356006051BDE0020AC2E0010AC7E00B0ACCE018
:10136600010AD1E0030AD3E0A00AE0E0EED741C0CB
:101376003FF042C040F012000001656B200E666F20
:10138600676BDF0E626FFE0E616F010E636F41D8F1
:10139600800E7F6E256A266A61C03BF062C03CF013
:1013A6003D6A3E6A63C033F0346A356A366A34C0D1
:1013B60036F033C035F0346A336A33503B26345046
:1013C6003C2235503D2236503E22376A386A396A09
:1013D6003A6A0ED00900F5502526000E262209008D
:1013E600F5502626020E3726000E382239223A22DA
:1013F6003B50375C3C5038583D5039583E503A586F
:10140600E9E325C069F026C06AF0326A0B0E316E38
:101416000B0C65C0F6FF66C0F7FF67C0F8FF120049
:101426004BD862EC0EF037D8000E07EC09F01ED848
:10143600030E07EC09F025D8010E07EC09F0060E9D
:101446002D6E790E2E6E5E0E2F6E306A2D0E4F6E3D
:10145600040E07EC09F028D8050E07EC09F024D88D
:10146600020E07EC09F028D862EF0EF05E0E2D6E24
:10147600770E2E6E780E2F6E790E306E2D0E4F6E05
:101486001200770E2D6E730E2E6E2F6E380E306E86
:101496002D0E4F6E12002D6A2E6A3E0E2F6E730EA3
:1014A600306E2D0E4F6E1200400E2D6E2E6E2F6E6C
:1014B600306E2D0E4F6E1200020E316E000C0CECCB
:1014C6000AF0A40E7F6EF85009E1000EF65C200EBD
:1014D600F75804E2FE0E0001696F30D0356A366AAD
:1014E60022D03550690FD96EDA6ADF50F56E59ECA5
:1014F6000BF0F0E20D00F6CF33F03F0E33160DE0A1
:10150600FF0E00016125336EFF0E6221346E3550E9
:10151600331807E13650341804E10A0035EC0FF0B1
:101526000900354A362A00016151355C6251365848
:10153600D8E3010E696F006A016A00D0326A0A0EAA
:10154600316E0A0C316E010E326E24B43CD031C0BD
:101556001EF02492248424900E0E226E010E1D6E1F
:10156600F40E1C6E2486380E026E1F0E036E000EDD
:10157600046E146A380E056E1F0E066E000E076E98
:10158600156A380E086E1F0E096E000E0A6E166A70
:10159600380E0B6E1F0E0C6E000E0D6E176A360E91
:1015A6000E6E1F0E0F6E000E106E186A9E96C6BA4D
:1015B60009D001D007D0C76A080EC66EC56A270EC5
:1015C600C86EC68A326A32501200C5BC01D002D03B
:1015D600010E01D0000E000901E126D017C03AF035
:1015E60020EE0BF001D80AD00500FA6EDE50FD6E33
:1015F600DE50FE6EDE50FF6EFA5012003B6E3C6A05
:101606003C5002E08EEF0FF03B50010A02E18EEFF4
:101616000FF0030A02E194EF0FF0010A02E192EFE4
:101626000FF0070A8EEF0FF0249020EE1FF0DF5028
:10163600DF2AD96EDA6ADF50316E31C0C9FF08EC95
:101646000CF001E1060C030C010E2A6EF66A200E60
:10165600F76EF86AC00EF614336EFF0EF714346E8A
:10166600FF0EF814356E355007E1200E345C04E2A7
:10167600FE0E0001696F21D0366A376A17D8F8E284
:10168600940E7F6E35EC0FF0400EF626000EF72214
:10169600F822364A372A800E365C070E3758EEE3B4
:1016A600010E0001696F636B646B07D0000EF65C78
:1016B600000EF758020EF8581200326A0A0E316E02
:1016C6000A0C5FEC0AF062EC0EF05B5012E12D6A38
:1016D60024D8276403D0276A010E5B6E2D0E4F6E49
:1016E600050E07EC09F02D6A22D8020E07EC09F068
:1016F60010D02D6A12D8276402D0276A5B6A2D0E95
:101706004F6E020E07EC09F02D6A11D8050E07EC94
:1017160009F05FEC0AF062EF0EF02E6A2F6A306A6B
:1017260027502D0FD96EDA6ADF68272A030C2E6A36
:101736002F6A306A2D0E4F6E1200010E0001696F7E
:101746006A6F6B6B010E6C6F6D6B6E6B3F0EF86E96
:10175600F768FE0EF66EC00E7F6E0900F5CF6FF0CD
:101766000900F5CF70F0716B726B400E736F746F7A
:10177600300EF86EF76AF66A0C0E336E09003350B7
:10178600690FD96EDA6AF5CFDFFF332A0F0E33649D
:10179600F5D70001796B7A6B020E7B6F7C6B200E9E
:1017A6007D6F326A1E0E316E1E0C1F50D96EDA6ABC
:1017B600C950DF6E1F2A29D803E0C59AC588050CD3
:1017C600248614C03AF001D80AD00500FA6E0250F9
:1017D600FD6E0350FE6E0450FF6EFA5012003B6E13
:1017E6003C6A3C5002E083EF0FF03B50010A02E1F5
:1017F60083EF0FF0030A02E180EF0FF0010A02E126
:1018060080EF0FF0070A83EF0FF02006D8A021061D
:1018160020502110120031D09EA6FED701D0FCD751
:101826009E9624A00ED001D00CD0C5BC01D002D00B
:10183600010E01D0000E000904E001D002D00F0E07
:10184600226E2250030DF350010F3D6E3DC0F6FF90
:10185600100EF76EF86A000EF86E01D80DD005006E
:10186600FA6E0900F550FD6E0900F550FE6E09008E
:10187600F550FF6EFA501200226E24A21200CCD749
:101886004D6E24D80F0B4E6E21D8100B4C6E100ED9
:101896004C1801E14E8E13D81ED83FEC0EF016D828
:1018A6004A6E050E4B6ED8904A324B2EFCD74A50E4
:1018B6004E6E05D84A6E4A280ED83FEF0EF047C046
:1018C60043F04850D96EDA6ADF5012004950D96E9B
:1018D600DA6ADF501200446E4EC045F04D501200D9
:1018E6004C6E495021D8D8904A36D8904A36D8906E
:1018F6004A3412D81ED83FEC0EF0495015D8050EC2
:101906004B6ED8904A324B2EFCD74A5005D84A6EB9
:101916004A280FD83FEF0EF04D6E47C043F04850AF
:10192600D96EDA6ADF501200D96EDA6ADF504A6E73
:101936001200446E4DC045F04C501200248602D071
:101946009E86030C14C03AF001D80AD00500FA6E40
:101956000250FD6E0350FE6E0450FF6EFA501200E8
:101966003B6E3C6A3C5002E08EEF0FF03B50010AA2
:1019760002E18EEF0FF0030A02E190EF0FF0010A89
:1019860002E190EF0FF0070ADBE08EEF0FF0426EF8
:101996004250A5EC0AF00009FBE0000E366E1E0E62
:1019A600376E000E386E410E396E16EC0FF0400E93
:1019B600316E10D82BEC0FF0366A376A386A396AFE
:1019C6003A6AC9EC0EF07DEC0FF0BCEC0EF0E806BE
:1019D600FCE01200336A010E326E010C356E315096
:1019E600321033100BE014D831C0DEFF32C0DEFFF8
:1019F60033C0DEFF14D834C0DFFF120009D8380E1A
:101A0600DE6E1F0EDE6E000EDE6E09D8DF6A120075
:101A16003550030DF350020FD96EDA6A12003550B5
:101A2600140FD96EDA6A12005FEC0AF062EC0EF05F
:101A360044EC0AF0000E07EC09F06E0E2D6E060E51
:101A46002E6E540E2F6E7D0E306E2D0E4F6E030EC3
:101A560007EC09F04EEC0AF0010E07EC09F039EC40
:101A66000AF0040E07EC09F05FEC0AF062EF0EF0E4
:101A76002490020E236E16C03AF020EE08F001D82C
:101A86000AD00500FA6EDE50FD6EDE50FE6EDE50A8
:101A9600FF6EFA5012003B6E3C6A3C5002E08EEF3D
:101AA6000FF03B50020A02E190EF0FF0010A02E14B
:101AB60090EF0FF08EEF0FF0D0A8D0B201D0010C4E
:101AC600416A0000412A4128FCE184AE010CBFECCA
:101AD60009F0FE0EF66EF768010EF86E0900F5CFF6
:101AE6003FF0406A0900F550402625503F18E7E1CF
:101AF6002650401801E0010C000C480E656E900E51
:101B0600AB6E240EAC6E440EAF6ED46A000E316A14
:101B1600326A336A99EC0FF0000E316A326A336A20
:101B260098EC0FF0000E316A326A336A9AEC0FF0C5
:101B36002C6A12008D6A8C6A896A8E6A8A6A8F6A32
:101B4600400E8B6E9668F80E976E92681F0E986E12
:101B5600DF0E936E9F0E946E95680F0125690F0E2A
:101B6600246F010E236F538F538D010C5FEC0AF027
:101B760062EC0EF07C0E2D6E5C0E2E6E2F6E780EC5
:101B8600306E2D0E4F6E000E07EC09F03E0E2D6ED8
:101B96009AEC0BF0030E07EC09F05FEC0AF062EF2B
:101BA6000EF03A5010D83A5007D82BEC0FF09CECB8
:101BB6000EF016EC0FF0020CD96EDA6ADECF32F0B8
:101BC600DDCF33F01200D96EDA6A020ED926DF5065
:101BD600316E12003A0EF66E1F0EF76E000EF86E9C
:101BE6000900F5CF5BF000EE60F0490EEE6AE806FC
:101BF600FDE100EE02F02F0EEE6AE806FDE10001BF
:101C060047EF0FF04F6E516A51505124506E010E3E
:101C1600476E500E486E4EC049F04F5073EC0CF0B4
:101C26004E2A512A030E5164EFD7030C8CEC0FF0A9
:101C3600006A016A8B825FEC0DF0E80604E1B9ECFC
:101C46000DF09FEC08F0FC6AE06A8B9200EF10F052
:101C560012002A5004E017EC0DF02A6A12002950EF
:101C660004E013EC0AF0296A12002850D8B41200D6
:101C760064EC0BF0286A1200466E0000FD0E406E02
:101C860043C041F04650CAEC0CF044C040F045C099
:101C960041F04650CAEC0CF0000012003E6E010EF8
:101CA6003F6E24B20AD024823F6A3E50010ED8B459
:101CB600020E226EC5800EEC0CF03F501200326E02
:101CC6000BD0325002E18E8201D08E840000325059
:101CD60002E18E9201D08E9431063128F2E1120093
:101CE6004A6E47C043F04850D96EDA6ADF50446EF8
:101CF6004950D96EDA6ADF50456E4A503FEF0EF012
:101D0600486E496A47C043F049C044F0456A4850A6
:101D16003FEC0EF0492A170E4964F4D7170C3AC067
:101D260031F0EDEC0CF02BEC0FF003D816EC0FF0C5
:101D3600020C366A376A386A396A12003AC031F0DC
:101D460007D82BEC0FF09CEC0EF016EC0FF0020C03
:101D5600336A020E326E020C3A50E6EC0DF03A503F
:101D6600DFEC0DF02BEC0FF09CEC0EF016EC0FF008
:101D7600020C010E316E24B207D024941E689E9682
:101D86009D96C69A23C031F03150120036C031F00C
:101D960037C032F038C033F039C034F0020EF1EFFC
:101DA6000CF03AC031F0EDEC0CF02BEC0FF09CECA3
:101DB6000EF016EC0FF0040C3AC031F0EDEC0CF01E
:101DC6002BEC0FF09CEC0EF016EC0FF0020C3AC068
:101DD60031F0ABEC0EF02BEC0FF09CEC0EF016ECA9
:101DE6000FF0040C3AC031F0ABEC0EF02BEC0FF018
:101DF6009CEC0EF016EC0FF0020C3AC031F0EDEC54
:101E06000CF02BEC0FF09CEC0EF016EC0FF0040C23
:101E16003AC031F0ABEC0EF02BEC0FF09CEC0EF070
:101E260016EC0FF0040C36C031F037C032F038C073
:101E360033F039C034F0000EF1EF0CF09DEC0DF0EC
:101E46006DEC0FF080EC0DF04FEC0FF019EF0EF08B
:101E560024A6120031C01FF032C020F033C021F09A
:101E6600249612000F0100507E6F01507E6F7F8214
:101E76000000000012009EAAFED72C6AABA202D078
:101E8600AB98AB88AE501200979297948E928E9430
:101E9600000021EC0FF0FFD7C76A080EC66EC56AB0
:101EA600270EC86EC69A270C2B04D8A41200D08819
:101EB600D0828B92FF00120024801E501E24316EA9
:101EC60031C0C9FF030C2480D8801E34316E31C066
:101ED600C9FF050C700ED36E646A9B6A2A6B1200EA
:101EE600316E9EA8FED731C0ADFF120000D02492FD
:101EF600236A0E0C000E51EF0EF0C58AC588090C38
:101F0600C58AC5880A0CC59AC588050C2490C5865D
:101F1600040C1BEF08F0C584000CC582010CC582B9
:101F2600020CC582010C7AEF0FF0120012001200AB
:051F3600050C010C0187
:102000002DEF10F0FFFFFFFF0182B9EF43F0FFFF5C
:10201000FFFFFFFFFFFFFFFF0180D8CF60F0E8CF99
:1020200061F0E0CF62F0D9CF63F0DACF64F09DB811
:102030009EA802D088EC88F0A3B8A4A802D00AEC2D
:1020400087F064C0DAFF63C0D9FF62C0E0FF61C0FF
:10205000E8FF60C0D8FF0190100063EF2CF0009201
:102060002301CC1D01B41D01A2AA00C2C7004C234C
:1020700001F4DB008423017623016823015A230144
:102080003E23013023012223014A2401E2EA0077A2
:102090007C585E79716F760600003800545C7300DE
:1020A000506D781C0000006E00777C395E79716F8E
:1020B000760600003800373F7300506D783E000010
:1020C000006E00303132333435363738396162636F
:1020D000646566003F065B4F666D7D077F67051090
:1020E0002030406080A0FF6E67C579DD61021A7202
:1020F00021010A00060E0A003C00000082210100B6
:1021000000580201000A005824000000000000FEF0
:102110008C00D02F00D025014420011265006007FB
:1021200001CC2501000000A0DF004A9900622401D3
:10213000000000F4E700A88A006E2401000000F40B
:10214000E700A88A00D425010000005E2201C07FBC
:1021500000000000000000A2E60008AA0000000045
:1021600000000088D800A69A00000000000000B01F
:102170002501D8CB00000000000000AC250110A50F
:1021800000AA02019138616C6C506F6442756666FA
:102190006572735B504F445F4255464645525F52ED
:1021A000585D20213D204E554C4C00616C6C506FA9
:1021B00064427566666572735B504F445F42554674
:1021C0004645525F54585D20213D204E554C4C00F1
:1021D0006F75744361706163697479203E20444176
:1021E00054414752414D5F4D494E5F4F564552480D
:1021F00045414400417373657274696F6E20666176
:10220000696C65643A202573202825733A2025736C
:102210003A202564290A00636F6E6669672D3E7354
:1022200061766553657474696E677320213D204E35
:10223000554C4C00636F6E6669672D3E70726F7609
:1022400069646553697A6520213D204E554C4C00E8
:102250007372632F447269766572732F506F647363
:10226000436861696E556172742E6300636F6E66B8
:1022700069672D3E777269746542797465732021B0
:102280003D204E554C4C00636F6E6669672D3E7263
:10229000656164427974657320213D204E554C4C34
:1022A000007372632F506F6473436861696E2F50BF
:1022B0006F6473436861696E2E6300777269746539
:1022C000506572696F64203E207461736B50657253
:1022D000696F6400636F6D6D756E696361746557D6
:1022E000697468506F6473436861696E00696E70E9
:1022F000757453697A65203E3D2076616C7565532F
:10230000697A6500736574506F6473436F6D6D73A4
:1023100041747472696275746573007372632F54CB
:1023200061736B732F526164696F5461736B2E63B9
:10233000007372632F526164696F2F566172496E28
:10234000742E63007372632F526164696F2F526140
:1023500064696F2E630070726F636573735261649A
:10236000696F427974657300706F6473556172743C
:1023700020213D204E554C4C00526164696F5461E0
:10238000736B5F496E697400636861696E20213DFB
:10239000204E554C4C00696E6974506F64734368ED
:1023A00061696E006465636F6465566172496E743D
:1023B00000382E382E382E382E00302E324C4F005A
:1023C000414C2E484900414C2E4C4F0048454C5042
:1023D00000303030300031313131003232323200B1
:1023E0003333333300343434340035353535002D50
:1023F0002D2D2D006572723100657272320065728A
:1024000072330065727234006572725500446174F3
:102410006100636F6E6E0050726F7500504831300E
:1024200000504820340050482037004641494C00B5
:102430004F4F4F4F0050415353004550742D004EA5
:1024400047452E002D41434300436F6E66006E6387
:102450006E6F006275737900636F6E7400372E3192
:102460000046414300644546006F66660043414CA8
:102470000043484100506F6400457272004F464669
:10248000002575006F6E00627200454C004F5200CF
:102490005552006E63004943007264007048002A80
:1024A00043002A4600454300360000FF01018A51DF
:1024B0008B1170E1680E00019C6F230E9D6F500E12
:1024C0009E6F220E9F6F010EA16F7C0EA06FD40E27
:1024D000A26F220EA36F8EEC84F05CD08AC1A1F0B3
:1024E0008BC1A2F000013EDADFA005D001D003D0FD
:1024F00039DADF904FD0A1C06CF0A2C06DF0000EB1
:10250000D7EC91F06CC068F06DC069F0000120EE6E
:10251000CCF06C51D9266D51DA22DF50050F6A6F6D
:1025200001EC83F0CEEC79F0A1C065F0A2C066F0BA
:10253000000120EECCF0A151D926A251DA22DECF43
:1025400067F0DDCF68F06D6B050E67256B6F000ED1
:1025500068216C6F11D06B516525D96E6C51662165
:10256000DA6E6D516525E16E000E6621E26EDFCFF9
:10257000E7FF6D2B6B4B6C2BEED9DF50696F6A6BED
:1025800069516B5D6A516C59E6E301D0E4D7E3D938
:102590006DC0DFFF8AC179F08BC17AF033D020EEB5
:1025A000CFF07951D9267A51DA2201D80AD0050024
:1025B000FA6EDE50FD6EDE50FE6EDE50FF6EFA509B
:1025C00012007B6FD6D9DF507C6F7C517925D96E94
:1025D000000E7A21DA6E7BC0DFFFCBD910EE64F0FB
:1025E0007951E1267A51E222E7507B6F7B29656FB2
:1025F000666B000E6623686B640E676F47EC6BF0CA
:102600006551DF6E79C065F07AC066F0000120EE9A
:10261000CAF06551D9266651DA22DECF67F0DDCFE8
:1026200068F067C0D9FF68C0DAFFDF500009B7E182
:1026300001D0B5D779C065F07AC066F016D0696B65
:102640000CD05AD969516525E16E000E6621E26E03
:10265000DFCFE7FF51D9DF6A692B5AD9DE50695DB8
:10266000F0E301D0EED754D9DF0665C0D9FF66C0CC
:10267000DAFF1B0EDE1807E001D005D049D9DF5084
:10268000DEE101D0DCD779C072F07AC073F020EEC1
:1026900064F02DD9030EDF6004D001D002D0000E0B
:1026A000AFD072C0D9FF73C0DAFF1B0EDE1803E093
:1026B000F6D701D0F4D720EE02F019D9DF50746FAD
:1026C00020EE01F014D9DF50766F7451756F08D980
:1026D00075C0DEFF76C0DDFF03D9DECF74F0DDCF3D
:1026E00075F0060E7425776F000E7521786F20EE59
:1026F00064F0FDD8DF50746F756B7751745D78515D
:10270000755903E2CCD701D0CAD7EAD8010EDB5005
:1027100005E15D0EDE5C10E301D00ED036D900017C
:10272000676BADEC3BF0672B630E6765FAD701D0A2
:10273000F8D7B5EC3BF0B3D772C06CF073C06DF056
:10274000CFD8DF50050F6E6F706B716B010E6F6F1E
:1027500039D0700E656F6F516C25D96E000E6D21EA
:10276000DA6EDF50666F6651676F686B67C068F03E
:10277000676B6551D96EDA6A6751DE1A6851DD1AE6
:10278000080E6B6FE0D868AF14D001D012D0DBD840
:10279000D89067376837210E6719696F100E68196E
:1027A0006A6F6551D96EDA6A69C0DEFF6AC0DDFF03
:1027B00003D0655162EC27F06B076B51E3E101D068
:1027C000E1D76F2B6E516F5DC4E301D0C2D770515A
:1027D000711101E002D0010E01D0000E00090FE1DD
:1027E00001D00DD0D2D80001676BADEC3BF0672B68
:1027F000630E6765FAD79DD7F8D79BD750D7010EE0
:10280000000901E06BD68AC165F08BC166F087D8FC
:10281000DFA213D001D011D020EECEF087D8DFCFC9
:1028200067F0DF2A0F0E676508D001D006D077D891
:10283000DF9220EECEF07AD8DF6A71D8DFB201D015
:1028400002D0010E01D0000E000949E123EC86F010
:102850000101A45142E048EC85F000016C6B16D0F8
:10286000000E6C25D96EDA6A060EDA226C5101016F
:102870008A2500016A6F84D86B6F650E6A25E16E48
:10288000000E6B21E26EDFCFE7FF6C2B47506C5DD3
:10289000E7E301D0E5D753D8A8EC3BF047C0DFFF12
:1028A000650E8A250001666F6BD8676F47C068F0B8
:1028B00042D8A8EC3BF001D80AD00500FA6EDE50F1
:1028C000FD6EDE50FE6EDE50FF6EFA50120037D8FD
:1028D000A8EC3BF0DF6AA46B010CA6EC73F0010CD2
:1028E00020EECCF07251D9267351DA2212007251C7
:1028F000D9267351DA22120069516525676F000EDF
:102900006621686F6729D96E000E6821DA6E1200A1
:1029100020EE64F06551D9266651DA22120020EECD
:10292000D2F06551D9266651DA2212006551D926B6
:102930006651DA221200010120EED3F012000101EB
:1029400020EEC9F012006551D96EDA6ADECF67F069
:10295000DDCF68F0120020EE64F06551D926665193
:10296000DA22120020EED2F0A151D926A251DA22A9
:10297000120020EE64F07951D9267A51DA22120041
:10298000000E01018B210001120072C065F073C0BE
:1029900066F01200826B836B7A51D96EDA6ADECFF1
:1029A000F6FFDDCFF7FF000EF86E0800F550250AA0
:1029B00001E09AD17A51D96EDA6ADE2A000EDD2260
:1029C0007A51D96EDA6ADECF84F0DDCF85F084C02B
:1029D000F6FF85C0F7FF000EF86E0800F550640A98
:1029E0000AE084C0F6FF85C0F7FF000EF86E08000D
:1029F000F550690A72E17BC0D9FF7CC0DAFF020E94
:102A0000DF26DF5CD96EDA6ADECF86F0DECF87F0B4
:102A100084297D6F000E85217E6F7A51D96EDA6A26
:102A20007DC0DEFF7EC0DDFF200E8A6F010E87AF06
:102A3000000E816F8A07320E8A25D96EDA6A050E7A
:102A4000DA2286C065F087C066F0686B0A0E676F91
:102A500047EC6BF065C06BF066C06CF07FEC8DF0FE
:102A60006B51300FDF6E86C071F087C072F0746BEF
:102A70000A0E736FF4EC62F071C086F072C087F0DA
:102A8000824B832B8651871102E08A51D3E18A5110
:102A90001CE081511AE08A07320E8A25D96EDA6A63
:102AA000050EDA222D0EDF6E824B832B0ED0320EF6
:102AB0008A25D96EDA6A050EDA22DF50656F666BF9
:102AC00079C067F057EC64F08A2B200E8A19EFE189
:102AD00082C079F083C07AF0120084C0F6FF85C00E
:102AE000F7FF000EF86E0800F550750A60E17BC034
:102AF000D9FF7CC0DAFF020EDF26DF5CD96EDA6A0E
:102B0000DECF86F0DECF87F084297D6F000E852131
:102B10007E6F7A51D96EDA6A7DC0DEFF7EC0DDFF3E
:102B20003CD0200E8A6F8A07320E8A25D96EDA6A67
:102B3000050EDA2286C065F087C066F0686B0A0E63
:102B4000676FF2EC7EF06551300FDF6E86C065F086
:102B500087C066F0686B0A0E676F60EC79F065C03D
:102B600086F066C087F0824B832B8651871111E077
:102B70008A510FE0D8D7320E8A25D96EDA6A050E4F
:102B8000DA22DF50656F666B79C067F057EC64F04E
:102B90008A2B200E8A199CE0EED784C0F6FF85C0F0
:102BA000F7FF000EF86E0800F550750ABAE0816B69
:102BB0007A51D96EDA6ADECFF6FFDDCFF7FF000E6D
:102BC000F86E0800F550730A09E17A51D96EDA6A95
:102BD000DE2A000EDD22010E816F3CD07A51D96EC3
:102BE000DA6ADECFF6FFDDCFF7FF000EF86E0800E1
:102BF000F5506C0A2FE17A51D96EDA6ADECF7DF09A
:102C0000DDCF7EF07D2B000E7E237DC0F6FF7EC0E3
:102C1000F7FF000EF86E0800F5506C0A1BE17A51C0
:102C2000D96EDA6ADECF7DF0DDCF7EF0020E7D2731
:102C3000000E7E237DC0F6FF7EC0F7FF000EF86E0B
:102C40000800F550730A06E17A51D96EDA6A030E6C
:102C5000DE26BFD781513FE07BC0D9FF7CC0DAFFC1
:102C6000020EDF26DF5CD96EDA6ADECF7FF0DECFC0
:102C700080F01CD07FC0F6FF80C0F7FF000EF86E1A
:102C80000F0EF76403D00800F55005D0F6CFE9FF2A
:102C9000F7CFEAFFEF500001656F666B79C067F010
:102CA00057EC64F0824B832B7F4B802B7FC0F6FF69
:102CB00080C0F7FF000EF86E0F0EF76403D0080017
:102CC000F55005D0F6CFE9FFF7CFEAFFEF50000946
:102CD00001E1FED6CFD77A51D96EDA6ADE2A000E2C
:102CE000DD22796B7A6B12007A51D96EDA6ADECF07
:102CF000F6FFDDCFF7FF000EF86E0800F550656FA8
:102D0000666B79C067F057EC64F07A51D96EDA6A75
:102D1000DE2A000EDD227A6B010E796F010C4AC2A9
:102D2000D9FF4BC2DAFF01D80AD00500FA6EDE5097
:102D3000FD6EDE50FE6EDE50FF6EFA50120065C072
:102D4000CEF366C0CFF30301CE51CF1138E00101BD
:102D50006E510301CE1933E101016F510301CF1907
:102D60002EE1000E0001676F090E686F6A6B800E1E
:102D7000696F020120EE03F01BD901D80AD00500CB
:102D8000FA6EDE50FD6EDE50FE6EDE50FF6EFA50C3
:102D9000120067C0CCF368C0CDF3000E0101DA6FFA
:102DA000090EDB6FCCC3DCF1CDC3DDF1000EDE6FAD
:102DB000070EDF6FE16B800EE06FFCEC37F0CEC3E7
:102DC0006EF1CFC36FF127C26EF028C26FF029C237
:102DD00070F02AC271F00201272B000E282329234C
:102DE0002A236EC065F06FC066F070C067F071C0D6
:102DF00068F02BC269F02CC26AF02DC26BF02EC2B3
:102E00006CF0E0EC6BF0655166116711681101E040
:102E100002D0010E01D0000E00093CE0000E0301BB
:102E2000D06F070ED16FD00E0001826F030E836F3B
:102E3000856B800E846FD20E866F030E876F7DECDC
:102E400089F0D0C366F0D1C367F0D2C368F0D3C3B2
:102E500069F0020120EE06F0ABD801D80AD00500D7
:102E6000FA6EDE50FD6EDE50FE6EDE50FF6EFA50E2
:102E70001200010191D8DFA606D001D004D08CD871
:102E8000DF968AD8DF8A705104E001D002D07181C8
:102E900001D07191010180D8DFAA20D001D01ED0CD
:102EA00020EE02F080D88FD8DD22DD52DD52030EF5
:102EB000DB500BE1020EDB5008E1010EDB5005E1B7
:102EC0000A0EDE5C0BE301D009D066D8DF8864D837
:102ED000DF9A20EE02F067D81AEC75F00001656BFE
:102EE0000101705109E001D007D071A105D001D0D6
:102EF00003D0010E0001656F0001655100094BE030
:102F000001D0010C5AD8040EB8653AD001D038D09F
:102F1000010170A706D001D004D0D2EC92F00101DB
:102F2000709770A10CD001D00AD0BBB101D002D0F3
:102F3000010E01D0000E97EC83F00101709170A397
:102F400006D001D004D0A1EC90F00101709370A5DF
:102F500006D001D004D0D0EC92F00101709570A998
:102F60000CD001D00AD0BBB501D002D0010E01D0E7
:102F7000000E4FEC8FF0010170997191010E7117E5
:102F80001CD8B82BB837010171510001B819010BD9
:102F9000B8190101716F010C20EE01F07251D926B0
:102FA0007351DA2212007251D9267351DA221200BB
:102FB0004A51D9264B51DA221200010171317F0B9F
:102FC0000001B86F1200DE2A000EDE22DE22000CA5
:102FD000EAC173F0EBC174F0ECC175F0EDC176F0AD
:102FE0001FEC81F0000901E01200B3EC89F070C021
:102FF000EDF171C0EEF124D9DF50030B030A03E1B8
:10300000010E0101A06F0101A0050CE119D9DF50EB
:10301000030B030A07E014D9DF50EC6F700EEC17B6
:1030200001E1A06BA00501E0DFD0E3EC91F065C009
:10303000EFF166C0F0F104D9DFA822D0EFC165F04E
:10304000F0C166F0EBD8CCEC85F0EFC16BF0F0C1CD
:103050006CF0010120EE46F000D901D80AD005003D
:10306000FA6EDE50FD6EDE50FE6EDE50FF6EFA50E0
:103070001200010E0001656F000E03EC81F01ED0FE
:10308000EFC165F0F0C166F0D2D8F8EC85F0EFC181
:103090006BF0F0C16CF0010120EE49F0DED801D8F0
:1030A0000AD00500FA6EDE50FD6EDE50FE6EDE5078
:1030B000FF6EFA501200E0D803EC81F058EC92F069
:1030C00065C0F1F166C0F2F1BBD8DFAA21D0F1C131
:1030D00065F0F2C166F0A2D8CCEC85F0F1C16BF0DE
:1030E000F2C16CF0010120EE46F0BCD801D80AD044
:1030F0000500FA6EDE50FD6EDE50FE6EDE50FF6E95
:10310000FA501200010E0001656F03EC81F020D02F
:10311000F1C165F0F2C166F08AD8F8EC85F0F1C132
:103120006BF0F2C16CF0010120EE49F09BD801D8A0
:103130000AD00500FA6EDE50FD6EDE50FE6EDE50E7
:10314000FF6EFA5012000001656B010E03EC81F076
:103150005DEC92F065C0F3F166C0F4F171D8DFACBC
:1031600022D0F3C165F0F4C166F058D8CCEC85F0FC
:10317000F3C16BF0F4C16CF0010120EE46F077D89A
:1031800001D80AD00500FA6EDE50FD6EDE50FE6EEC
:10319000DE50FF6EFA501200010E0001656F020E44
:1031A00003EC81F030D0F3C165F0F4C166F03FD894
:1031B000F8EC85F0F3C16BF0F4C16CF0010120EE86
:1031C00049F055D801D80AD00500FA6EDE50FD6EE0
:1031D000DE50FE6EDE50FF6EFA5012000001656B8D
:1031E000020E03EC81F00FD0899E899C8F968F9000
:1031F00043D803EC81F0656B010E03EC81F0656B45
:10320000020E03EC81F0EAC1DAF1EBC1DBF1ECC1B3
:10321000DCF1EDC1DDF119D83CEF36F0EAC167F021
:10322000EBC168F0ECC169F0EDC16AF01200EAC1CF
:1032300067F0EBC168F0ECC169F0EDC16AF0120013
:10324000EDC1D9FFEEC1DAFF1200010E0101DE6F00
:10325000DF6BE06BE16BE26B010CEF51D926F051B3
:10326000DA221200F151D926F251DA221200F3517A
:10327000D926F451DA2212000001656B000CD0EC63
:1032800091F065C073F066C074F0290E00012BD96F
:10329000696B020E6B6FE2EC83F0270E24D9020EED
:1032A000696F6B6FE2EC83F0230E1DD9040E2AD9EF
:1032B000E2EC83F0250E17D9060E24D9E2EC83F058
:1032C0002B0E11D9080E1ED9E2EC83F02D0E0BD96E
:1032D0000A0E18D9E2EC83F03A0E05D90C0E16D975
:1032E000E2EC83F017D90D0E11D9E2EC83F002D98C
:1032F0008DEC5EF016EC8FF065C073F066C074F074
:10330000290E0001F0D8100EFDD8E2EC83F0270E54
:10331000EAD8120EF7D8E2EC83F0230EE4D8140EAC
:10332000F1D8E2EC83F0250EDED8160EEBD8E2ECF5
:1033300083F02B0ED8D8180EE5D8E2EC83F02D0ED2
:10334000D2D81A0EDFD8E2EC83F03A0ECCD81C0E9D
:10335000DDD8E2EC83F0DED81D0ED8D8E2EC83F0A5
:10336000C9D88DEC5EF022EC8FF065C073F066C0BA
:1033700074F0290E0001B7D8200EC4D8E2EC83F017
:10338000270EB1D8220EBED8E2EC83F0230EABD8C4
:10339000240EB8D8E2EC83F0250EA5D8260EB2D8BC
:1033A000E2EC83F02B0E9FD8280EACD8E2EC83F031
:1033B0002D0E99D82A0EA6D8E2EC83F03A0E93D8B7
:1033C0002C0EA4D8E2EC83F0A5D82D0E9FD8E2EC09
:1033D00083F090D88DEC5EF0380E85D8440E92D8EC
:1033E000E2EC83F0A70E676F010E686F6A6B300E18
:1033F0008DD8E2EC83F0B20E676F010E686F6A6BD6
:10340000310E84D8E2EC83F0B30E676F010E686F63
:103410006A6B320E7BD8E2EC83F00101B397C20EE7
:103420000001676F010E686F6A6B330E78D8E2ECAB
:1034300083F05A0E676F686B6A6B380E70D8E2ECD7
:1034400083F0CA0E676F010E686F6A6B3C0E67D817
:10345000E2EC83F0C60E676F010E686F6A6B400E78
:103460005ED8E2EC83F05F0E676F686B6A6B460EA6
:103470004DD8E2EC83F0CE0E676F010E686F6A6B79
:10348000470E40D8E2EC83F0D40E676F010E686FF0
:103490006A6B490E37D8E2EC83F02BEC92F0652989
:1034A0006E6F000E66216F6F6EC067F06FC068F0C0
:1034B0006A6B500E2BD8E2EC83F0706B702B0E0E03
:1034C0007065FCD7710E676F686B6A6B880E1ED8CB
:1034D000E2EC83F071B103D00101BB9102D0010194
:1034E000BB81000012007325676F000E7421686FA6
:1034F0006A6B120073C065F074C066F072C067F04A
:10350000686B1200696F020E6B6F020C696F010E1F
:103510006B6F010C720E676F686B6A6B1200696FDC
:10352000040E6B6F040C0550800B0E6E05500524C5
:10353000146E04BE1480145008E0142804E1026ADA
:10354000036A046A056A048E04D0026A036A046A84
:10355000056A0950800B0E1A095009240F6E08BE27
:103560000F800F5008E00F2804E1066A076A086A16
:10357000096A088E04D0066A076A086A096A0F5049
:1035800002E0145005E1026A036A046A056A120047
:1035900008500202F3CF19F0F4CF1AF01950106E50
:1035A000116A126A136A1A50156E166A176A186A37
:1035B00007500302F3CF19F0F4CF1AF01950102678
:1035C000000E1122122213221A501526000E162266
:1035D0001722182206500402F3CF19F0F4CF1AF084
:1035E00019501026000E1122122213221A501526ED
:1035F000000E16221722182212C013F011C012F06A
:1036000010C011F0106A06500302F3CF19F0F4CF86
:103610001AF0195010261A501122000E12221322ED
:1036200007500202F3CF19F0F4CF1AF01950102608
:103630001A501122000E1222132212C013F011C0D0
:1036400012F010C011F0106A06500202F3CF19F008
:10365000F4CF1AF0195010261A501122000E12221F
:10366000132208500302F3CF19F0F4CF1AF01950C7
:1036700015261A501622000E17221822075004028F
:10368000F3CF19F0F4CF1AF0195015261A5016225C
:10369000000E1722182208500402F3CF19F0F4CFBD
:1036A0001AF019500A6E1A500B6E0C6A0D6A080E49
:1036B000D8900A360B360C360D36E82EF9D70A505C
:1036C00015260B5016220C5017220D50182213509D
:1036D0001526000E16221722182212C013F011C050
:1036E00012F010C011F0106A0F5014C00AF00B6AEB
:1036F0000A26000E0B22820E0A24196EFF0E0B20E2
:103700001A6E0FD0D890153616361736183613BEE7
:103710001580D89010361136123613361906D8A0F7
:103720001A0617AEEFD70F6A13AE13D010500A6EF9
:1037300011500B6E12500C6E7F0E13140D6E0A504A
:103740000B100C100D1003E0010E0F6E02D015B01F
:10375000FBD70F500EE0152A000E16221722182252
:1037600018A007D018341832173216321532194AF9
:103770001A2A1ABE0AD01A5002E1192806E3156A5D
:10378000166A800E176E7F0E15D01ABE04D01A501E
:1037900008E1190406E2156A166A176A186A0E6AC1
:1037A0000AD019C014F07F0E1716186A14B0178EBD
:1037B000D8901430186E0E50181215C002F016C0B2
:1037C00003F017C004F018C005F012008F0501E0E7
:1037D00028D1D0EC91F065C076F066C077F0290E64
:1037E000000123D96B6B020E6D6F3CEC76F0270E57
:1037F0001CD9020E6B6F6D6F3CEC76F0230E15D961
:10380000040E1AD93CEC76F0250E0FD9060E14D909
:103810003CEC76F02B0E09D9080E0ED93CEC76F074
:103820002D0E03D90A0E08D93CEC76F03A0EFDD8DD
:103830000C0E06D93CEC76F0350EF7D80D0E00D9FB
:103840003CEC76F016EC8FF065C076F066C077F051
:10385000290E0001EAD8100EEFD83CEC76F0270EC6
:10386000E4D8120EE9D83CEC76F0230EDED8140E24
:10387000E3D83CEC76F0250ED8D8160EDDD83CEC1B
:1038800076F02B0ED2D8180ED7D83CEC76F02D0E51
:10389000CCD81A0ED1D83CEC76F03A0EC6D81C0E15
:1038A000CFD83CEC76F0350EC0D81D0EC9D83CEC14
:1038B00076F022EC8FF065C076F066C077F0290EC6
:1038C0000001B3D8200EB8D83CEC76F0270EADD866
:1038D000220EB2D83CEC76F0230EA7D8240EACD83A
:1038E0003CEC76F0250EA1D8260EA6D83CEC76F05E
:1038F0002B0E9BD8280EA0D83CEC76F02D0E95D838
:103900002A0E9AD83CEC76F03A0E8FD82C0E98D826
:103910003CEC76F0350E89D82D0E92D83CEC76F042
:10392000380E83D8440E88D83CEC76F0A70E696F29
:10393000010E6A6F6C6B300E83D83CEC76F0B20EE1
:10394000696F010E6A6F6C6B310E7AD83CEC76F0C1
:10395000B30E696F010E6A6F6C6B320E71D83CEC5E
:1039600076F0C20E696F010E6A6F6C6B330E6CD805
:103970003CEC76F05A0E696F6A6B6C6B380E64D84B
:103980003CEC76F0CA0E696F010E6A6F6C6B3C0EF0
:103990005BD83CEC76F0C60E696F010E6A6F6C6BFB
:1039A000400E52D83CEC76F05F0E696F6A6B6C6B20
:1039B000460E46D83CEC76F0CE0E696F010E6A6F6B
:1039C0006C6B470E39D83CEC76F0D40E696F010E63
:1039D0006A6F6C6B490E30D83CEC76F02BEC92F0B1
:1039E0006529726F000E6621736F72C069F073C033
:1039F0006AF06C6B500E24D83CEC76F0756B752B2E
:103A00000E0E7565FCD70101010EBBA1000E000171
:103A1000746F740E696F6A6B6C6B880E11D83CEC16
:103A200076F001018F6B000012007625696F000EA1
:103A300077216A6F6C6B12006B6F020E6D6F020C58
:103A40006B6F010E6D6F010C6B6F040E6D6F040CCC
:103A50006851800B716F68516825736F67BF738100
:103A6000735105E0732901E106D9678F03D0656BB7
:103A7000666B676B686B6C51800B726F711901E03C
:103A8000718D6C516C25726F6BBF7281725108E041
:103A9000722904E1696B6A6B6B6B6C6B6B8F03D083
:103AA000696B6A6B6B6B6C6B7351725D22E271AD0B
:103AB00002D0800E711B73C074F072C073F074C0BA
:103AC00072F065C074F069C065F074C069F066C0DA
:103AD00074F06AC066F074C06AF067C074F06BC0BE
:103AE00067F074C06BF068C074F06CC068F074C0AC
:103AF0006CF0746B735172C06DF06E6B6D5F000E85
:103B00006E5B6EBF15D06E5103E11A0E6D5D10E352
:103B1000C7D8010ED8B4000E746FADD872C073F060
:103B20000AD074A102D0B7D802D0D89074339AD8F2
:103B30007251735DF6E371BD15D0735101E1A0D0F0
:103B4000695165276A5166236B5167236C5168235D
:103B500068A153D074A102D09ED802D0D8907433FB
:103B600081D84BD06951655D6A5166596B5167596F
:103B70006851800A6D6F6C51800A6D591FE2655162
:103B8000695D6D6F66516A596E6F67516B596F6FE2
:103B900068516C59706FFF0E6D25656FFF0E6E21B9
:103BA000666FFF0E6F21676FFF0E7021686F800ECA
:103BB000711B746D74510AE168D808D06951655F52
:103BC0006A51665B6B51675B6C51685B69D813E146
:103BD000745111E155D0D89065376637673768372B
:103BE00074BF658174A102D0D88001D0D890743799
:103BF000735101E0730767AFEED7726B74AF0AD0F1
:103C000074C06DF07F0E6D1703E0010E726F02D06D
:103C100065B1FBD772510BE038D868A108D0683580
:103C20006833673366336533732901E0732B732977
:103C300002E0735104E11FD8735101E1716B73A16C
:103C400002D0678F01D0679FD8907331686F71BFC2
:103C5000688F65C065F066C066F067C067F068C0D1
:103C600068F0120065B1748F683568336733663366
:103C70006533732B1200656B666B676B686B1200A4
:103C8000656B666B676B686B1200652B000E6623B5
:103C900067236823000CD89074310109746F1200F7
:103CA000655166116711681112009B6F00019B51ED
:103CB00016EC79F068C09CF069C09DF000019C5141
:103CC0009D11D8B412009CC065F09DC066F04CEC0C
:103CD00088F00009D8B41200250E9E6F9F0E916FD8
:103CE000926B91C0D9FF92C0DAFF9BC0DFFF20EE3C
:103CF00001F09151D9269251DA2210EE3AF0F1D822
:103D0000E222E7501FEC8AF0DF6E9E0E95EC41F048
:103D10009EEC55F020EE22F0BDD8DF501FE1260EBC
:103D20009E6F9F0E936F946B93C0D9FF94C0DAFF80
:103D3000C8D8B0D810EE01F09351E1269451A4D820
:103D400020EE1FF0A7D810EE03F09351E126945116
:103D5000B3D895EC41F09EEC55F04CD0270E9E6FF9
:103D60009F0E976F986B97C0D9FF98C0DAFFA9D8BC
:103D700091D810EE23F0B5D86BEC46F096D8D8A0C9
:103D800020EE23F087D8DECF8DF0DDCF8EF020EE51
:103D900001F0ABD88DC0DEFF8EC0DDFF20EE1FF03E
:103DA00079D810EE03F09751E1269851E222DFCF47
:103DB000E7FF20EE23F06ED810EE25F092D86BECE2
:103DC00046F073D8D8A020EE23F064D8DECF8FF071
:103DD000DDCF90F020EE04F088D88FC0DEFF90C0D9
:103DE000DDFF20EE1FF056D810EE06F09751E126C9
:103DF0009851AED7290E9E6F9F0E956F966B6AD81D
:103E000020EE2BF047D84BD83FD89E0E95EC41F0D2
:103E10009EEC55F02A0E9E6F5DD820EE2DF03AD81C
:103E20003ED832D89E0E95EC41F09EEC55F02B0E0C
:103E30009E6F9F0E996F9A6B99C0D9FF9AC0DAFF57
:103E40009BC0DFFF20EE27F025D810EE01F03ED812
:103E50001BD820EE1FF01ED810EE03F037D8E22258
:103E6000DFCFE7FF20EE29F015D810EE04F02ED8B2
:103E70000BD820EE1FF00ED810EE06F027D81CD875
:103E800095EC41F09EEF55F0E222DECFE6FFDDCF6C
:103E9000E5FF12009C51D9269D51DA22120010EE46
:103EA00001F09551E126965112008C6FDE50800A88
:103EB0008C5920EE25F01200E222DFCFE7FF9E0EA4
:103EC00012009BC0DFFF20EE25F012009951E12681
:103ED0009A51120095C0D9FF96C0DAFF9BC0DFFF50
:103EE00012009C51E1269D5112009751D9269851FC
:103EF000DA221200C6EC71F007D90FD981EC78F004
:103F0000F4D8B8EC62F07DC0E6F07EC0E7F07FC088
:103F1000E8F080C0E9F0E2C0D6F0E3C0D7F0E4C03A
:103F2000D8F0E5C0D9F0E6C0DAF0E7C0DBF0E8C0D1
:103F3000DCF0E9C0DDF0EB0EDE6F020EDF6FE20EAB
:103F4000E06F020EE16FC5EC68F0D6C040F3D7C059
:103F500041F3DAD8320EE8D881EC78F0C6D8B8EC64
:103F600062F07DC0EAF07EC0EBF07FC0ECF080C074
:103F7000EDF0CAD8D2D881EC78F0B7D8B8EC62F0BE
:103F80007DC0EEF07EC0EFF07FC0F0F080C0F1F0B9
:103F9000EAC0C2F0EBC0C3F0ECC0C4F0EDC0C5F0A5
:103FA000EEC0C6F0EFC0C7F0F0C0C8F0F1C0C9F075
:103FB000B80ECA6F030ECB6FD5EC2DF0C2C042F322
:103FC000C3C043F3A1D8640EAFD881EC78F08DD88C
:103FD000B8EC62F07DC08AF07EC08BF07FC08CF0C0
:103FE00080C08DF0E0EC86F08AC044F38BC045F3CE
:103FF0008BD8640E99D881EC78F077D8B8EC62F061
:104000007DC0F2F07EC0F3F07FC0F4F080C0F5F028
:10401000E2C08AF0E3C08BF0E4C08CF0E5C08DF024
:10402000F2C08EF0F3C08FF0F4C090F0F5C091F0C4
:104030004DEC61F08AC046F38BC047F365D86DD86C
:1040400081EC78F052D8B8EC62F07DC08AF07EC086
:104050008BF07FC08CF080C08DF003EC85F08AC0BF
:1040600048F38BC049F350D858D881EC78F03DD84C
:10407000B8EC62F07DC08AF07EC08BF07FC08CF01F
:1040800080C08DF082EC82F08AC04AF38BC04BF383
:104090003BD83C0E49D881EC78F027D8B8EC62F0D8
:1040A0007DC0ABF07EC0ACF07FC0ADF080C0AEF0A4
:1040B00098EC7BF0ABC04CF3ACC04DF3400E656F99
:1040C000030E666F686B070E676FE2C069F0E3C0AE
:1040D0006AF0E4C06BF0E5C06CF0AA0E6D6F110ED3
:1040E0006E6F010E6F6FE2EF85F071C07DF072C0F0
:1040F0007EF073C07FF074C080F0E80E816F030E15
:10410000826F836B846B030CE2C071F0E3C072F0CA
:10411000E4C073F0E5C074F01200E80E756F030E92
:10412000766F776B786B030C756F766B776B786B4C
:104130001200866F0001876B070E86190FE171EC84
:1041400080F0FDD8E8EC87F06DEC80F0F8D8E8EC72
:1041500087F069EC80F0F3D8E8EF87F0090E861954
:10416000D8B41200856BA5D081C0D9FF82C0DAFF18
:104170007FC0E1FF80C0E2FFDE50E61801E1B3D06E
:104180008751220F7A6F300E7B6F7FC0D9FF80C0BE
:10419000DAFFDF507C6F87511B0FE8EC87F0A3D06C
:1041A00020EE01F0D4D810EE01F07F51E1268051CD
:1041B000E222DE50E61801E196D08751770F7A6F40
:1041C000300E7B6F20EE01F0A6D8700FE8EC87F080
:1041D0008AD020EE02F0BBD810EE02F07F51E1262B
:1041E0008051E222DE50E6187EE08751470F9BD8CF
:1041F00092D8440FE8EC87F0AFD895D88CD84B0F05
:10420000E8EC87F0ADD88FD886D84B0FE8EC87F074
:104210006AD020EE03F09BD810EE03F07F51E12628
:104220008051E222DE50E6185EE08751220F7A6F5D
:10423000370E7B6F20EE03F06ED81B0FE8EC87F093
:1042400052D020EE04F083D810EE04F07F51E12626
:104250008051E222DE50E61846E08751770F7A6FF0
:10426000370E7B6F20EE04F056D8700FE8EC87F025
:104270003AD020EE05F06BD810EE05F07F51E12624
:104280008051E222DE50E6182EE08751470F51D8C8
:1042900042D8440FE8EC87F05FD84BD83CD84B0F9E
:1042A000E8EC87F05DD845D836D84B0FE8EC87F0BE
:1042B0001AD08651836F846B845115E1835101E1DB
:1042C00053D7010A01E16CD7030A83E0010AA1E098
:1042D000070AB7E0010ACDE0030A05E0010A03E09E
:1042E0000F0AD8A4010A0B0E00018727852B030EA5
:1042F0008565DFD7060E8661060C86517F25D96E4F
:10430000000E8021DA6E86518125E16E000E822139
:10431000E26E44EF50F07F51D9268051DA22DF500F
:104320007C6F875112007A6F300E7B6F20EE02F0A7
:10433000300C7A6F370E7B6F20EE05F0370C7B6FF9
:104340007FC0D9FF80C0DAFFDF507C6F180C81512D
:10435000D9268251DA221200000187514B0F120038
:10436000000187514E0F12007651800B7F6F7651FE
:104370007625816F75BF8181815105E0812901E139
:10438000FED8758F01D0FBD87A51800B7F1B7A51F4
:104390007A25806F79BF8081805105E0802901E115
:1043A000F3D8798F01D0F0D8805102E0815105E136
:1043B000736B746B756B766B120079517303B2D8A3
:1043C000826F836B846B856B8B51866F876B886B79
:1043D000896B78517403A6D8B3D877517503A2D8E6
:1043E000AFD8A6D8775174039DD8B6D87851730347
:1043F00099D8B2D89DD87751730394D8ADD8795154
:10440000740390D8B5D8785175038CD8B1D8795148
:10441000750388D87B6F8B517C6F7D6B7E6B080E2C
:10442000D8907B377C377D377E37E82EF9D77B51A4
:1044300086277C5187237D5188237E51892385518E
:10444000862791D875D8805181C07BF07C6B7B2703
:10445000000E7C23820E7B258A6FFF0E7C218B6FE2
:104460000FD0D890863787378837893785BF8681C0
:10447000D89082378337843785378A07D8A08B074F
:1044800088AFEFD7806B85AF13D082517B6F83519C
:104490007C6F84517D6F7F0E85157E6F7B517C1103
:1044A0007D117E1103E0010E806F02D086B1FBD733
:1044B00080510BE0862B57D889A107D089358933E5
:1044C0008833873386338A4B8B2B8BBF0AD08B5133
:1044D00002E18A2906E3866B876B800E886F7F0E68
:1044E00015D08BBF04D08B5108E18A0506E2866B9C
:1044F000876B886B896B7F6B0AD08AC081F07F0ED7
:104500008817896B81B1888FD8908131896F7F51ED
:10451000891386C073F087C074F088C075F089C0B5
:1045200076F01200F3CF8AF0F4CF8BF08A511200AC
:1045300084C085F083C084F082C083F0826B120057
:104540008227000E8323842385238B518627000E28
:10455000872388238923000C82278B518323000E15
:1045600084238523000C000E872388238923000CD5
:1045700086278B518723000E88238923000C736BB9
:10458000746B756B766B1200776B786B796B7A6BEB
:10459000120023C290F024C291F025C292F026C2EC
:1045A00093F07DC090F07EC091F07FC092F080C00B
:1045B00093F090C081F091C082F092C083F093C0DC
:1045C00084F083358435816F826B836B846B823793
:1045D00081518D6F8E6B8EBF0ED08E5103E1960E82
:1045E0008D5D09E37DC07DF07EC07EF07FC07FF0F1
:1045F00080C080F01200010E93AF000E8F6F8F51BC
:1046000012E07DC065F07EC066F07FC067F080C0BC
:1046100068F00EEC8CF065C07DF066C07EF067C07F
:104620007FF068C080F08EBF05D08E5108E17E0E0D
:104630008D5D05E27D6B7E6B7F6B806B1200696B1D
:104640006A6B6B6B4B0E6C6F7DC065F07EC066F065
:104650007FC067F080C068F028EC1DF091D8696BCE
:104660006A6B6B6BCB0E6C6F94D828EC1DF065C039
:1046700085F066C086F067C087F068C088F085C0A6
:1046800075F086C076F087C077F088C078F07DC07E
:1046900079F07EC07AF07FC07BF080C07CF0AEEC19
:1046A00080F075C098F076C099F077C09AF078C025
:1046B0009BF0896B8A6B8B6B8C6B656B666B676B26
:1046C0003F0E54D8A5EC5BF003E26CD8BF0E0AD0C5
:1046D000656B666B676BBF0E49D8A5EC5BF003E3B7
:1046E00061D83F0E8C6F7DC069F07EC06AF07FC0DC
:1046F0006BF080C06CF098C065F099C066F09AC00D
:1047000067F09BC068F028EC1DF03AD842D889C009
:1047100069F08AC06AF08BC06BF08CC06CF028EC3A
:104720001DF065C098F066C099F067C09AF068C047
:104730009BF08F5112E098C065F099C066F09AC066
:1047400067F09BC068F00EEC8CF065C098F066C016
:1047500099F067C09AF068C09BF098C07DF099C04E
:104760007EF09AC07FF09BC080F01200686F98C006
:1047700069F099C06AF09AC06BF09BC06CF01200AF
:1047800065C094F066C095F067C096F068C097F079
:10479000120094C065F095C066F096C067F097C0AF
:1047A00068F01200896B8A6B800E8B6F800CE4ECD2
:1047B00092F08EEC68F000018E6B8F6B906B916BBA
:1047C0008D6BB10ED5D87E6BF2EC8EF08EEC68F06E
:1047D000680E00018C6FE40EE82EFED78C2FFCD7FC
:1047E0000000B10E0001C4D87E6FF2EC8EF08EECAA
:1047F00068F0680E00018C6FE40EE82EFED78C2F57
:10480000FCD7000000018D2B020E8D65DAD78E815A
:104810008E0E896FF6EC74F000018E838E0E896F18
:10482000F6EC74F000018E858E0E896FF6EC74F054
:1048300000018E878E0E896FF6EC74F000018E8970
:104840008E0E896FF6EC74F000018E8B8E0E896FE0
:10485000F6EC74F000018E8D8E0E896FF6EC74F01C
:1048600000018E8F8E0E896FF6EC74F000018F8B35
:104870008E0E896FF6EC74F000018F898E0E896FB1
:10488000F6EC74F000018F878E0E896FF6EC74F0F1
:1048900000018F858E0E896FF6EC74F000018F8316
:1048A0008E0E896FF6EC74F000018F818E0E896F89
:1048B000F6EC74F000018F8F8E0E896FF6EC74F0B9
:1048C000000190818E0E896FF6EC74F000018F8DDF
:1048D0008E0E896FF6EC74F0000190838E0E896F56
:1048E000F6EC74F0000190878E0E896FF6EC74F090
:1048F000000190858E0E896FF6EC74F000019089AE
:104900008E0E896FF6EC74F0000191898E0E896F1E
:10491000F6EC74F0000191838E0E896FF6EC74F062
:104920000001908B8E0E896FF6EC74F00001908F71
:104930008E0E896FF6EC74F00001908D8E0E896FEB
:10494000F6EC74F0000191818E0E896FF6EC74F034
:104950000001918B8E0E896FF6EC74F00001918549
:104960008E0E896FF6EC74F0E4EC92F08EEF68F046
:104970007A6F230E7B6F010E7C6F8DC07DF0010C72
:10498000A26BA36BA46BA56B9E0EA26FEF0EA36F21
:10499000E10EA46F410EA56FA3D832EC3AF0CED849
:1049A0005C0E776FFE0E786FE80E796F3A0E7A6FB5
:1049B000B4EC21F073C09EF07CD828EC1DF0ACD88C
:1049C0008FD832EC3AF0BAD88BD832EC3AF0ADD876
:1049D000B4EC21F09CD88ED8ED0E776F450E786F31
:1049E000DE0E796FB20E7A6FB4EC21F073C09EF0D8
:1049F00060D828EC1DF090D873D832EC3AF09ED8ED
:104A00006FD832EC3AF091D8B4EC21F080D872D85B
:104A100067D832EC3AF089D8B4EC21F078D86AD86B
:104A20003A0E776F6D0E786FA00E796F2B0E7A6F3E
:104A3000B4EC21F073C09EF03CD828EC1DF06CD88B
:104A4000A2C073F0A3C074F0A4C075F0A5C076F046
:104A5000776B786B200E796F410E7A6FB4EC21F092
:104A600073C0A2F074C0A3F075C0A4F076C0A5F026
:104A7000A2C07DF0A3C07EF0A4C07FF0A5C080F0EE
:104A8000C9EC22F07DC0A2F07EC0A3F07FC0A4F0EC
:104A900080C0A5F0A2C065F0A3C066F0A4C067F016
:104AA000A5C068F082EC56F065C09CF066C09DF031
:104AB000120074C09FF075C0A0F076C0A1F0A2C033
:104AC00065F0A3C066F0A4C067F0A5C068F09EC002
:104AD00069F09FC06AF0A0C06BF0A1C06CF012003A
:104AE0009CC065F09DC066F0000E66BFFF0E676F4C
:104AF000686F010C75C0A0F076C0A1F09EC073F085
:104B00009FC074F0A0C075F0A1C076F0120073C011
:104B10009EF074C09FF0120065C0A2F066C0A3F0C2
:104B200067C0A4F068C0A5F0120065C077F066C049
:104B300078F067C079F068C07AF0120065C073F051
:104B400066C074F067C075F068C076F01200686FD8
:104B50007BD07E0E656F250E666F010E676F1200AB
:104B60009E0E656FBD0E666F000E676F1200860E9B
:104B7000656F140E666F010E676F1200E80E656FA9
:104B8000100E666F010E676F1200D00E656FDD0E9E
:104B9000666F000E676F1200A20E656FB50E666F2E
:104BA000000E676F1200000E656FF80E666F000E44
:104BB000676F12006C0E656F0D0E666F010E676FEA
:104BC0001200EA0E656FF60E666F000E676F120038
:104BD000100E656FF90E666F000E676F1200CC0E37
:104BE000656FF80E666F000E676F1200A40E656F9A
:104BF000F60E666F000E676F1200880E656FF80E76
:104C0000666F000E676F1200EE0E656FE40E666F42
:104C1000000E676F1200440E656FE90E666F000E9E
:104C2000676F1200440E656FF80E666F000E676FB7
:104C30001200100E656FE10E666F000E676F1200B6
:104C4000656B666B676B12000001685189E0020AB0
:104C5000E9E0010A8CE0070A91E0010A8FE0030A0B
:104C6000C5E0010A8BE00F0AB3E0020A80E0010A06
:104C700001E17DD71B0AD6E0010A87E0090AD2E0EC
:104C8000010A8AE0030A8FE03A0ACCE0010A01E156
:104C90006ED7030A01E16BD7010A8CE0070A91E0A5
:104CA000010A9DE0030AA9E0010AAEE00E0AB3E0A2
:104CB000030AB1E0010AA8E01B0ABBE0710AB2E0F6
:104CC000030AB0E0010AAEE0070AACE0010AAAE07C
:104CD000030AA8E0010AA6E00E0AA4E0030AA2E083
:104CE000010AA0E02B0A01E134D7110A01E169D7DA
:104CF000F10A98E0030A96E0070A94E0140A01E139
:104D000059D7010A01E125D7030A01E122D798D733
:104D1000C7D8DA22DECF77F0DDCF78F0C1D89DECAE
:104D200033F069EC42F0E75000017A6FB9D8BED891
:104D300069EC42F0E750796F3CC07BF03DC07CF0FD
:104D4000770E746FE8EC82F0000901E093D0770EE3
:104D50006C6F726B736B6C517FEC2BF069EC42F0F3
:104D6000E750030F706F000ED7EC91F000016C510B
:104D7000D96EDA6ADECF68F0DDCF69F070C06AF014
:104D800001EC83F0010E716F3FD0720E656F6C51B4
:104D9000D96EDA6ADECF6DF0DDCF6EF071516D2520
:104DA000D96E000E6E21DA6EDF50666F6651676F46
:104DB000686B67C068F0676B6551D96EDA6A6751D6
:104DC000DE1A6851DD1A080E6B6F74D868AF14D004
:104DD00001D012D06FD8D89067376837210E671985
:104DE000696F100E68196A6F6551D96EDA6A69C009
:104DF000DEFF6AC0DDFF02D0655164D86B076B51DE
:104E0000E4E101D0E2D7712B7051715DBEE301D0B6
:104E1000BCD76C5143EC2BF033D873C0DFFF6C511F
:104E200043EC2BF0DF2A6C5143EC2BF029D872C0F5
:104E3000DFFF6C5143EC2BF0DF2A6C5143EC2BF07D
:104E40001FD80D0EDF6E6C5143EC2BF0DF2A77C0BC
:104E500066F078C067F079C068F001D80BD0050023
:104E6000FA6E01013A51FD6E3B51FE6E3C51FF6EF0
:104E7000FA50120015D81AD869EC42F0E76A12000D
:104E8000DF506D6F6C51D96EDA6ADECF6EF0DDCF18
:104E90006FF06D516E25D96E000E6F21DA6E120023
:104EA00020EE02F03A50D9263B501200DA2210EEE2
:104EB00064F012006551D96EDA6ADECF67F0DDCF9B
:104EC00068F01200D96EDA6AD890DE36DD3612004C
:104ED000D0EC91F065C079F066C07AF0ADD88ED88C
:104EE000C80EDE6EDD6A20EE27F088D86E0EAFD8D1
:104EF00085D8B40EDE6EB9D881D8B40EADD87ED8C0
:104F0000010EDE6E80D87AD882D878D8010EDF6E96
:104F100097D88DEC5EF016EC8FF065C079F066C026
:104F20007AF08AD86BD82C0EDE6E010E9AD866D82D
:104F3000640E8DD863D8960EDE6E97D85FD8FA0EC1
:104F40008BD85CD8DE6A5FD859D861D857D8DF6A69
:104F500077D88DEC5EF022EC8FF065C079F066C0FA
:104F60007AF06AD84BD88A0EDE6E020E7AD846D80E
:104F7000300EDE6E020EDD6E20EE23F03FD87ED8BE
:104F800020EE25F03BD87AD820EE2BF037D8010E52
:104F9000DE6E39D833D83BD831D8020EDF6E50D808
:104FA0008DEC5EF020EE38F029D8DE6ADD6A010172
:104FB000A76B040EB26F060EB36F5BD801EC7BF0EB
:104FC0002DD85F6ACE6BCF6B2BEC92F065C068F08A
:104FD00066C069F06B6B6A6B6D6B340E6C6FF5ECD1
:104FE00086F0786B782B0E0E7865FCD70101BB81BB
:104FF000010E8F6FE6EC1BF0000012007951D926EC
:105000007A51DA221200DD6A20EE2DF01200580EDD
:10501000DE6E020EDD6E20EE3AF0020C020ECC6F58
:10502000CD6B080EC66F640EC76FFD0EC86FC969E1
:10503000D56B140ED46F140C000120EE29F0120071
:1050400079C065F07AC066F0686B676B1200DE6E3F
:10505000DD6A20EE23F01200DE6EDD6A20EE2BF01A
:105060001200DD6E20EE27F01200DD6A20EE25F042
:1050700012005A6A5B6A5C6A5D6AF80C440EDE6E66
:10508000020EDD6E020C70D0C6D853EF92F0C3D87A
:1050900026EF73F0C0D85EEF85F0BDD8EEEF8DF04F
:1050A000D8290001DE6FBFD8DF6FB3EF65F0D829D4
:1050B0000001986FB8D8996F39EF8FF0D8290001A7
:1050C000986FB1D8996FA1EF47F0D8290001986F78
:1050D000AAD8996FF6EF29F0D8290001986FA3D8C4
:1050E000996F04EF62F0D8290001986F9CD8996FEE
:1050F000FAEF59F0D8290001986F95D8996FE8EF29
:105100002FF089D856EF8EF020EE01F091D8DECF47
:1051100098F0DDCF99F0D2EF8FF020EE01F088D833
:10512000DECF98F0DDCF99F0DDEF91F0D8290001C6
:10513000656F79D8666F2FEF7FF0D8290001656F12
:1051400072D8666FD2EF8AF0D8290001956F6BD8BC
:10515000966F7BEF92F0D8C16CF0D9C16DF048EF3B
:1051600087F059D80FEF8DF0D8C1D9FFD9C1DAFF38
:10517000DF5002E16CEF71F0010AD8B41200030AAB
:1051800002E12FEF41F0010AECE0070A01E17CD7D0
:10519000140A02E163EF8DF0080A02E17EEF90F05D
:1051A000380A02E183EF5DF0100AD5E0710A01E1EF
:1051B0006ED7030A01E16ED7010A01E16ED7070A33
:1051C00001E16ED7010A01E172D7030A01E176D746
:1051D000010A01E17AD70E0A01E17ED7030A83E0D2
:1051E000010A88E01A0AD8B41200310AD8B41200B1
:1051F000010AA3E0100AD8B41200F10A82E0030AFF
:1052000083E0070A8AE0140AD8B41200010A9CE07D
:10521000030A8CE0120020EE01F0D851D926D951B2
:10522000DA22DF501200000E0101D9210001120024
:10523000D851D926D951DA2212000001786F78515D
:105240001FE0816B826B000E716F030E726FD8903E
:105250008135D96E8235DA6ED890D936DA36715109
:10526000D9267251DA22B9D8814B822B82BFEBD773
:10527000825103E10B0E815DE6E30101996B000CA5
:1052800001019951040D000EF324D96E030EF42090
:10529000DA6EA3D86DC079F06EC07AF06FC07BF083
:1052A00070C07CF06DC07DF06EC07EF06FC07FF08E
:1052B00070C080F0992B090E996501D0996B00019F
:1052C000876B886B79D8DE50795DDE507A59DE5075
:1052D0007B597C51800A776FDE50800A775909E24A
:1052E0006BD8DECF79F0DECF7AF0DECF7BF0DECF89
:1052F0007CF062D87D51DE5C7E51DE587F51DE58F5
:10530000DE50800A776F8051800A775909E254D8BD
:10531000DECF7DF0DECF7EF0DECF7FF0DECF80F01F
:10532000874B882B88BFCED7885103E10A0E875D53
:10533000C9E37D51795D656F7E517A59666F7F5102
:105340007B59676F80517C59686FF1EC78F065C0CC
:1053500083F066C084F067C085F068C086F086BFC1
:1053600009D08651851105E1C00E835D5D0E84591B
:1053700001E3000C86BF09D08651851105E1E00EDE
:10538000835D2E0E845901E3010C86BF09D086513E
:10539000851105E1700E835D170E845901E3020C3F
:1053A00086BF040C8651851105E1B80E835D0B0E96
:1053B000845901E3030C040C000E716F030E726F2D
:1053C000D8908735D96E8835DA6ED890D936DA36E6
:1053D0007151D9267251DA2212006DC0DEFF6EC003
:1053E000DEFF6FC0DEFF70C0DEFF1200C0D816EC1B
:1053F00079F068C0A4F069C0A5F00001A451A5111E
:1054000004E1B5D8886F020E4FD0040E9825A0D8BD
:10541000FFEC4EF07FC0A0F080C0A1F0982998D892
:10542000FFEC4EF07FC0A2F080C0A3F0A2C06DF0F0
:10543000A3C06EF0A0C06FF0A1C070F0A4C071F066
:10544000A5C072F0746B86EC30F028E201D026D053
:1054500074EC30F06C6B5ED808E301D006D069D8EC
:1054600004E301D002D0010E6C6F6C51000916E00C
:1054700001D014D07DEC30F06C6B4CD808E301D037
:1054800006D057D804E301D002D0010E6C6F6C51E6
:10549000000904E001D002D0010E746F74510009BC
:1054A00005E165D8886F030E896F31D020EE3AF0A0
:1054B00064D8020EDE18010ED8A4000E9F6F9F5113
:1054C00005E1A2C09BF0A3C09CF004D0A0C09BF05B
:1054D000A1C09CF020EE23F050D89BC0DEFF9CC002
:1054E000DDFF9F5105E1A0C09DF0A1C09EF004D05A
:1054F000A2C09DF0A3C09EF020EE25F03ED89DC036
:10550000DEFF9EC0DDFFAEEC8BF031D83BD8470EFE
:1055100068EF82F020EE13F06751D9266851DA2245
:10552000DE50655D6651800A6B6FDE50800A6B59F4
:10553000120020EE15F06751D9266851DA22655124
:10554000DE5CDE50800A6B6F6651800A6B59120078
:105550007F6F000E9921806F20EE1FF0A451D92695
:10556000A551DA22DECF81F0DDCF82F0120098C0A3
:10557000D9FF99C0DAFFDF501200A451D926A551F6
:10558000DA2212000001886F896B120070517BD8FB
:10559000030EDF6E7051D96EDA6ADECF71F0DDCFA7
:1055A00072F071C0D9FF72C0DAFF1B0EDF6E56D8E1
:1055B000500EDF6E705167D8DF2A50D8DF6A705105
:1055C00062D8DF2A4BD8DF6870515DD864EC34F0C4
:1055D00070C06BF0A5D8686B9BD803E008D001D0F1
:1055E00006D0682B050E6865F7D701D0F5D76F6B2D
:1055F00067D86F2B050E6F65FBD701D0F9D76B51BC
:1056000042D846D840D848D857D83DD8DF2A6B5121
:105610003AD842D879D837D8DF2A20D8010EDF6EA1
:10562000705131D8DF2A1AD8640EDF6E70512BD832
:10563000DF2A70515FEC34F069EC42F0E76A705198
:105640005ED869EC42F070511ED8DF50FD0FE76E56
:10565000705119D8640EDF60010C000C7051D96EC6
:10566000DA6A020ED926DF50716F7051D96EDA6A8C
:10567000DECF72F0DDCF73F071517225D96E000E5E
:105680007321DA6E1200D96EDA6A020ED926020C84
:10569000060EDF266B511200DF506C6F6B51D96E16
:1056A000DA6ADECF6DF0DDCF6EF06C516D25D96E0C
:1056B000000E6E21DA6E1200CA0EDF6E6B51120000
:1056C0006F516925D96E000E6A21DA6E6B51E16E59
:1056D000E26AE6CF6CF0E5CF6DF06B51E16EE26A05
:1056E000020EE126E7506C27000E6D236F516C25EA
:1056F000E16E000E6D21E26EDFCFE7FF1200D96E82
:10570000DA6A10EE02F01200FE0EDF6E6B5112002C
:1057100068516525D96E000E6621DA6EDE2812000A
:1057200069C065F06AC066F01200939A8A9A1A0EF0
:1057300000017D6FF80EE82EFED77D2FFCD700000C
:105740008A8A200E00017D6F290EE82EFED77D2F5C
:10575000FCD700D0C00E0001A0D8300EEEEC8BF0CC
:10576000C00E9BD8370EEEEC8BF0C00E96D8360EDE
:10577000EEEC8BF0A3D83F0E786F300EEEEC8BF092
:105780009DD83F0E786F370EEEEC8BF097D8280E31
:10579000786F360EEEEC8BF066D8300EEEEC8BF0B8
:1057A00062D8370EEEEC8BF05ED8360EEEEC8BF056
:1057B0006ED8300EEEEC8BF06AD8370EEEEC8BF034
:1057C00066D8360EEEEC8BF06ED8300EEEEC8BF029
:1057D0006AD8370EEEEC8BF066D8360EEEEC8BF016
:1057E000010E7A6F300EDEEC8BF0010E7A6F370E01
:1057F000DEEC8BF0010E7A6F360EDEEC8BF03AD8D1
:10580000300EEEEC8BF036D8370EEEEC8BF032D853
:10581000360EEEEC8BF07E6B34D8300EEEEC8BF067
:1058200030D8370EEEEC8BF02CD8360EEEEC8BF039
:105830007E2B170E7E65F0D7180E7E6F400E39D87E
:10584000300EEEEC8BF0400E34D8370EEEEC8BF0D1
:10585000400E2FD8360EEEEC8BF07E2B9B0E7E6525
:10586000EDD700009B0CC00E766F040E776FEB0E29
:10587000786FEB0CC00E766F090E776F030E786FA2
:10588000030C400E766F7EC077F0786B400CC00E34
:10589000766F010E776F786B010C766F060E776F5F
:1058A000020E786F020CC00E766F776B400E786F29
:1058B000400C766F7EC077F078691200C00E766F6C
:1058C000050E776F050C6C0EF66E200EF76E010E4E
:1058D000F86E06EEC9F010EE12F00900F5CFEEFFFB
:1058E000E550E150FAE1FC0EF66E030EF76E010E84
:1058F000F86E05EEC9F010EE36F00900F5CFEEFFB8
:10590000E550E150FAE1C60EF66E030EF76E010E99
:10591000F86E04EE72F010EE36F00900F5CFEEFFEF
:10592000E550E150FAE14C0EF66E090EF76E010EED
:10593000F86E03EE9DF010EE2FF00900F5CFEEFFAC
:10594000E550E150FAE1F80EF66EE60EF76E000E45
:10595000F86E02EEABF010EE54F00900F5CFEEFF5A
:10596000E550E150FAE14E0EF66E250EF76E010E8F
:10597000F86E01EEFAF010EE06F00900F5CFEEFF3A
:10598000E550E150FAE10DEE00F0D60EEE6AE806C1
:10599000FDE10CEE00F0FA0EEE6AE806FDE10BEE1A
:1059A00000F0FA0EEE6AE806FDE10AEE00F05A0E8B
:1059B000EE6AE806FDE109EE00F0DA0EEE6AE806AE
:1059C000FDE108EE00F0FA0EEE6AE806FDE107EEF2
:1059D00000F0E40EEE6AE806FDE106EE00F0C90E06
:1059E000EE6AE806FDE105EE00F0C90EEE6AE80693
:1059F000FDE104EE00F0720EEE6AE806FDE103EE52
:105A000000F09D0EEE6AE806FDE102EE00F0AB0E3E
:105A1000EE6AE806FDE101EE00F0D80EEE6AE80657
:105A2000FDE100EE33F02D0EEE6AE806FDE1019097
:105A3000019200014EEF4CF0E4C1D9FFE5C1DAFF5D
:105A4000DECFF7F0DDCFF8F0AF5105E1ABD836ECA3
:105A500091F08EEC68F00001666B080E656F97D8C8
:105A60006551671906E16651681901E002D0010E1F
:105A700001D0000E000914E06E6B010E36EC91F0BF
:105A8000840E7A6F240E7B6F78D8F2EC8EF0010EC4
:105A90000201AF6F0201AC6BAD6B8EEC68F058D0B9
:105AA000666B040E656F73D86551671906E1665120
:105AB000681901E002D0010E01D0000E000911E0CA
:105AC0006E6B010E36EC91F0690E7A6F240E7B6FCF
:105AD00054D8F2EC8EF00201AF6B64D836EC91F042
:105AE000D9D7010E666F656B52D86551671906E10B
:105AF0006651681901E002D0010E01D0000E0009C4
:105B000027E04AD8AF190EE0AFB103D00101BB9135
:105B100002D00101BB81010E01EC92F087EC92F002
:105B2000E6EC1BF0E0C1DCF1E1C1DDF1E2C1DEF148
:105B3000E3C1DFF122EECAF001D80AD00500FA6E07
:105B4000DE50FD6EDE50FE6EDE50FF6EFA5012002B
:105B50000201AF51D8B41200AE510101B819D8B446
:105B6000120020D836EC91F04DEC7FF00BD820ECF1
:105B70003DF0F2EC8EF08EEF68F0010E7C6F7D6FE1
:105B80007E6B010C65C07AF066C07BF01200F7C036
:105B900067F0F8C068F012000101010EBBA1000E11
:105BA0000201120000016E6B020CC651C25DC751AA
:105BB000C359C851C459C951C55908E3BB0E9C6F9C
:105BC000220E92D82F0E97D88EEC84F0CAC0D9FF3F
:105BD000CBC0DAFFDE50DE10DE1009E1340E00012A
:105BE0009C6F220E81D8300E86D88EEC84F0000196
:105BF00020EE03F086D808E1870E9C6F220E74D841
:105C0000310E79D88EEC84F0000120EE06F079D8C0
:105C100008E16C0E9C6F220E67D8320E6CD88EECA9
:105C200084F0000120EE09F06CD808E1170E9C6F9B
:105C3000220E5AD8330E5FD88EEC84F0C2C05BF3CC
:105C4000C3C05CF3C4C05DF3C5C05EF31E0E0301A8
:105C50005F6F2D0E606F000E616FC6C07DF0C7C014
:105C60007EF0C8C07FF0C9C080F0C2C081F0C3C060
:105C700082F0C4C083F0C5C084F0B8EC62F07DC08F
:105C80002BF27EC02CF27FC02DF280C02EF2CAC053
:105C90004AF2CBC04BF201016E6B6F6B0201276BB6
:105CA000286B296B2A6B2C0E0101B425726F000E34
:105CB000B521736F000E0001BB6F070EBC6FBE6B8A
:105CC000800EBD6F020120EE09F0D8EC17F0DECF98
:105CD000BFF0DECFC0F0DDCFC1F00CEC7BF05B0E8F
:105CE000C26F030EC36F12009D6F1B0E9E6F230EBB
:105CF0009F6FA16B1200A06F790EA26F230EA36F8E
:105D00001200CA51D926CB51DA22DE50DE10DE1045
:105D100012000001F251070ED8A4090E3E24010121
:105D2000D86F000E3F20D96FD8C1F6FFD9C1F7FF59
:105D3000000EF86E0900F5CFE1F10A00F5CFE2F1AF
:105D400052C265F053C266F08BD801D80DD0050061
:105D5000FA6E0900F550FD6E0900F550FE6E09005F
:105D6000F550FF6EFA50120065C0E3F166C0E4F131
:105D70000101E1510001F003F3CFD8F1F4CFD9F1E3
:105D8000F103F3500101D927E2510001F0030101B1
:105D9000F350D9276AD8DECFDAF1DDCFDBF1DA5163
:105DA000D825E56FD951DB21E66FE86AE836D9BF1F
:105DB000E806E76FE86AE7BFE806E86F030E37D842
:105DC00048D8DC51E55DDD51E659DE51E759E8512F
:105DD000800AE06FDF51800AE05902E2030E11D021
:105DE000050E25D836D8E551DC5DE651DD59E75181
:105DF000DE59DF51800AE06FE851800AE05908E27D
:105E0000050E15D8DAC1E5F1DBC1E6F1E76BE86B09
:105E10002CD8E5C1DEFFE6C1DDFFF3C0EAF0F4C037
:105E2000EBF0F5C0ECF0F6C0EDF0CCEF78F03E24EE
:105E3000D86F000E3F20D96FD8C1F6FFD9C1F7FF48
:105E4000000EF86E0900F5CFDAF10900F5CFDBF1AD
:105E50001200DA51DC6FDB51DD6FDE6BDF6B12009D
:105E60003EC0F6FF3FC0F7FF1200E3C1D9FFE4C117
:105E7000DAFF120020EE38F097D8DFAE16D020EE11
:105E800039F092D8DFB211D077D8CA5D9CD8CB59FF
:105E900090D8CC5993D8CD597BD891C0C6F192C037
:105EA000C7F193C0C8F194C0C9F120EE39F07CD895
:105EB000DFA216D020EE38F077D8DFBE11D05CD844
:105EC000C65D81D8C75975D8C85978D8C95960D81E
:105ED00091C0CAF192C0CBF193C0CCF194C0CDF186
:105EE0005A500101CA5D306F5B50CB59316F5C5025
:105EF000CC59326F5D50CD59336F30C17DF031C117
:105F00007EF032C17FF033C180F02C0E0001816F32
:105F1000010EDCEC3FF0BEEC48F07DC030F17EC0FD
:105F200031F17FC032F180C033F15A500101C65DBA
:105F30002C6F5B50C7592D6F5C50C8592E6F5D5048
:105F4000C9592F6F2CC17DF02DC17EF02EC17FF07D
:105F50002FC180F0D40E0001816FFE0E826F836925
:105F60008469BEEC48F07DC02CF17EC02DF17FC06D
:105F70002EF180C02FF11200D8905A348D6F5B340F
:105F80008E6F5C348F6F5D34906F8D510101120004
:105F90000001946F911F921F931F941F912B000E6D
:105FA000922393239423000C8B51D9268C51DA220F
:105FB00012000001926F8F51010112000001936FD6
:105FC0009051010112000001916F8E5101011200E8
:105FD00085D816EC79F068C09EF069C09FF000018A
:105FE0009E519F1104E17AD8886F020E50D09829F3
:105FF00066D8FFEC4EF07FC09AF080C09BF0040E94
:1060000098255DD8FFEC4EF07FC09CF080C09DF0DD
:106010009AC06DF09BC06EF09CC06FF09DC070F098
:106020009EC071F09FC072F0746B70D82AE201D0EC
:1060300028D05AD86C6B8AEC2AF009E301D007D03B
:1060400099EC2AF004E301D002D0010E6C6F6C5180
:10605000000917E001D015D050D86C6B8AEC2AF0FB
:1060600009E301D007D099EC2AF004E301D002D073
:10607000010E6C6F6C51000904E001D002D0010EDA
:10608000746F7451000905E129D8886F030E896F78
:1060900013D020EE27F043D89AC0DEFF9BC0DDFF6F
:1060A00020EE29F03CD89CC0DEFF9DC0DDFFAEECA9
:1060B0008BF014D8C2EC2AF04B0E68EF82F07F6FA1
:1060C000000E9921806F20EE1FF09E51D9269F511E
:1060D000DA22DECF81F0DDCF82F0120098C0D9FF46
:1060E00099C0DAFFDF5012006DC065F06EC066F037
:1060F00071C067F072C068F012006FC065F070C0C8
:1061000066F071C067F072C068F012006F516D5D8B
:106110006E51800A736F7051800A735912009E513C
:10612000D9269F51DA221200A0D8DE6ADD6A6CC03F
:1061300065F06DC066F07B0E676FF3EC71F065C0C3
:1061400080F066C081F080C065F081C066F06CC0F0
:1061500067F06DC068F07CD865C079F066C07AF0F1
:106160007951705D7A51715901E21200030E746F1A
:10617000756B8051745F8151755B7CD87451DE26DC
:106180007551DD2272D8DFCF74F0DE2ADFCF75F0D3
:10619000000EDD226FD8DECF76F0DDCF77F07451C0
:1061A0007625D96E75517721DA6EAA0EDF6E7E6B79
:1061B0007F6B20D07E517B0FD96EDA6A72C0E1FF0F
:1061C00073C0E2FFE7CF74F0E62AE7CF75F0000E68
:1061D000E5226EC0E1FF6FC0E2FFE6CF76F0E5CFCB
:1061E00077F074517625E16E75517721B2EC70F03D
:1061F0007E4B7F2B80517E5D81517F59DBE335D80B
:106200006C51DE266D51DD2235D8DECF65F0DDCF55
:1062100066F02BD8DECF67F0DDCF68F038EC86F083
:10622000746F23D8DECF75F0DDCF76F023D8DECFC4
:1062300077F0DDCF78F075517725D96E76517821DA
:10624000DA6E74C0DFFF11D8DE2A000EDD22000CEA
:1062500067516525696F685166216A6F020E69256D
:10626000656F000E6A21666F120072C0D9FF73C09D
:10627000DAFF12006EC0D9FF6FC0DAFF1200000112
:10628000686F66D0040E656F260E666F010E676F2D
:106290001200740E656FDA0E666F000E676F1200E3
:1062A000B80E656F1F0E666F010E676F12003A0E13
:1062B000656F1A0E666F010E676F1200BA0E656F7A
:1062C000F40E666F000E676F1200980E656F060E73
:1062D000666F010E676F1200CE0E656F010E666F5E
:1062E000010E676F1200140E656FDA0E666F000EF6
:1062F000676F1200DC0E656FF90E666F000E676F38
:106300001200DC0E656F1C0E666F010E676F1200C7
:10631000F60E656F1B0E666F010E676F1200960E0C
:10632000656F010E666F010E676F1200F40E656FE8
:106330009F0E666F000E676F1200C60E656F150E1A
:10634000666F010E676F1200656B666B676B1200FC
:106350000001685197E0010A9CE0030A93E0010AFA
:106360009FE0070A9DE0140A8DE0080A8BE0380AD6
:1063700089E0100AE2E0710A93E0030A91E0010A61
:1063800096E0070A9BE0010AA0E0030AA5E0010AE3
:10639000AAE00E0AAFE0030AADE0010AA4E01A0A7F
:1063A000C5E0310ABCE0010A89E0100AB8E0F10A50
:1063B00001E176D7030AA5E0070AA3E0140AAFE0DB
:1063C000010AADE0030AA4E0BFD7F0C0D9FFF1C0D5
:1063D000DAFFDFAE000C42C065F043C066F079EC36
:1063E0008AF000097EE0000E5AEC6EF065C0DEF126
:1063F00066C0DFF120EE33F01BEC3DF010EE04F050
:1064000069EC42F0E6CFE0F1E5CFE1F10101E66BA6
:10641000E76B3ED020EE0DF01BEC3DF071D8DE5165
:10642000E65DDA6FDF51E759DB6FE051DA03F3CF56
:10643000DCF1F4CFDDF1DB03F350DD27E151DA03CA
:10644000F350DD27D851DC25E26FD951DD21E36F10
:1064500052D8E2C1A7F0E3C1A8F0C0EC40F0A5C05B
:10646000E4F1A6C0E5F1780EEDEC34F0E6C175F08C
:10647000E7C176F0E4C177F0E5C178F07A6B000E01
:10648000796F01EC35F021EC44F00101E64BE72B8C
:1064900029D8C0E3E66BE76B18D0E2EC34F035D8CE
:1064A000CCEC34F0A1EC3DF0D89001012ED8DA6E9E
:1064B000700ED926020EDA2223D8D8C1D9FFD9C14D
:1064C000DAFFE8EC34F0E64BE72B0CD8E6E3F2C059
:1064D000EAF0F3C0EBF0F4C0ECF0F5C0EDF0CCEC7A
:1064E00078F0010C4050E65DE751800AD86F4150CA
:1064F000800AD859120042C0A5F043C0A6F012008D
:10650000DECFD8F1DDCFD9F11200E635D96EE7350F
:106510001200010E35EC7EF086EC8EF0000902E0F0
:106520008EEF68F083EC92F0000904E0FDEC5CF083
:106530008EEF68F00001E66BE76B76D0D890E63519
:10654000D96EE7359EEC5BF0DECFE8F0DDCFE9F009
:10655000000120EE33F076D8DECFE4F0DDCFE5F0B9
:10656000E4C0D9FFE5C0DAFFDF50FEEC6FF0E8C011
:1065700065F0E9C066F079EC8AF0000943E0E8C014
:1065800067F0E9C068F062EC86F0000907E0E8C057
:1065900084F0E9C085F079EC49F043D0000120EEA9
:1065A0003CF050D8DFA212D020EE3BF04BD8DFB643
:1065B0000DD00101BD5135E1E8C0D2F0E9C0D3F002
:1065C000A6EC8CF044D8B3EC76F02BD0E8C067F0A2
:1065D000E9C068F008EC8EF0000907E0E8C084F03C
:1065E000E9C085F09EEC50F01CD0000120EE3BF09D
:1065F00029D8DFA2E1D7E8C0D4F0E9C0D5F04EEC4D
:1066000074F00FD0E8C065F0E9C066F055EC8AF090
:10661000000904E11CD8B3EC76F003D00101BD51B0
:10662000B6E10001E64BE72B0101AE510001E65D4A
:10663000E751800AE46FE7EC75F0E45901E27ED798
:106640008EEF68F0E851D926E951DA221200E8C04D
:10665000D4F0E9C0D5F0120020EE33F072D810EE7D
:1066600009F069EC42F0E650E610E61044E020EE56
:106670000BF067D86BD865D887D876D85ED869EC28
:1066800042F0E7509F6FA06B20EE33F05AD810EE27
:1066900009F069EC42F001D80AD00500FA6EE65024
:1066A000FD6EE650FE6EE650FF6EFA50120020EED0
:1066B0000DF047D864D820EE0BF043D847D841D826
:1066C00063D8A06B020E9F6F20EE33F03AD810EE25
:1066D00009F069EC42F001D80AD00500FA6EE650E4
:1066E000FD6EE650FE6EE650FF6EFA50120020EE90
:1066F0000FF027D844D020EE0BF023D82ED821D885
:1067000048D832D81AD869EC42F0E7507D6F7E6BDA
:10671000B1EC59F020EE0DF014D82CD820EE0BF08F
:1067200010D81BD80ED835D87E6B020E7D6FB1EC19
:1067300059F020EE0FF005D81DD0DA2210EE03F04C
:106740001200A351D926A451DA221200DECF9BF009
:10675000DDCF9CF020EE1FF01200DECF79F0DDCF10
:106760007AF020EE1FF0120020EE36F0A351D92669
:10677000A451120079C0DEFF7AC0DDFF12009BC079
:10678000DEFF9CC0DDFF1200DECF9DF0DDCF9EF06E
:106790001200DECF7BF0DDCF7CF01200705143ECB5
:1067A0002BF0030EDF6E7051D96EDA6ADECF71F016
:1067B000DDCF72F071C0D9FF72C0DAFF1B0EDF6E41
:1067C00069D8510EDF6E705143EC2BF0DF2A62D88E
:1067D000DF6A705143EC2BF0DF2A5CD8DF68705120
:1067E00043EC2BF071D870C06BF090EC2BF0686B21
:1067F00088EC2BF003E008D001D006D0682B050E02
:106800006865F6D701D0F4D76F6B60EC2BF06F2B77
:10681000050E6F65FAD701D0F8D76B5143EC2BF01A
:1068200048EC2BF043EC2BF04CEC2BF05CEC2BF019
:1068300043EC2BF0DF2A6B5143EC2BF04CEC2BF0AC
:1068400084EC2BF043EC2BF0DF2A24D8010EDF6E12
:10685000705143EC2BF0DF2A1DD8FFC1DFFF7051D0
:1068600043EC2BF0DF2A70512AD869EC42F0E76A3A
:1068700070517FEC2BF069EC42F0705143EC2BF03F
:10688000DF50FD0FE76E705143EC2BF0640EDF60BC
:10689000010C000C7051D96EDA6A020ED926DF5055
:1068A000716F7051D96EDA6ADECF72F0DDCF73F09E
:1068B00071517225D96E000E7321DA6E1200D96EF5
:1068C000DA6A10EE01F01200DF2AB6C169F0B7C132
:1068D0006AF01200C3EC77F0B0C0D8F1B1C0D9F1C2
:1068E00084D8780ED926020EDA22DECFF6F0DDCF7C
:1068F000F7F00001F051F6250101DA6F0001F151C6
:10690000F7210101DB6F780E000167D882C175F0B5
:1069100083C176F0DAC177F0DBC178F0D8C179F0C5
:10692000D9C17AF06ED821EC44F00101DC6FDC5162
:106930000DE148D88235D96E83352ED8A1EC3DF0D3
:1069400054D8700E33D8000143D81AD0DD6BDE6BFB
:106950000DD038D851D820D8A1EC3DF0D8904CD8E3
:10696000DA6E700E23D834D8DD4BDE2B4050DD5D5F
:10697000DE51800A0001F66F4150800AF659E9E3C2
:10698000A1EC89F0F2C0EAF0F3C0EBF0F4C0ECF057
:10699000F5C0EDF0CCEF78F0DA6E780ED926020E65
:1069A000DA22DECFA9F0DDCFAAF01200D926020E3E
:1069B000DA22DECFF6F0DDCFF7F0F6C0D9FFF7C070
:1069C000DAFF120042C0A7F043C0A8F0D89012002E
:1069D000A7C0DEFFA8C0DDFF1200716F020E726F4C
:1069E00040C073F041C074F01200D89001018235AC
:1069F000D96E8335DA6E12000101DD35D96EDE35D0
:106A0000120084C17BF085C17CF01200256A266AE1
:106A1000276A25C002F026C003F0000E2724D96E95
:106A2000DA6A010EDA22DF50046EBBEC7BF002C0A2
:106A300025F003C026F0272A0D0E2764EAD725503B
:106A400026107AE101C128F004C101F128C004F147
:106A500002C128F003C102F128C003F101C102F014
:106A600002C103F003C104F004C105F016EC7AF092
:106A700002C001F103C002F104C003F105C004F13A
:106A8000066A076AC80E086E420E096E01C102F05E
:106A900002C103F003C104F004C105F093EC1AF045
:106AA00002C01BF003C01CF004C01DF005C01EF0A6
:106AB00018EC57F01BC06CF11CC06DF106C128F03A
:106AC00009C106F128C009F107C128F008C107F182
:106AD00028C008F106C102F007C103F008C104F0A4
:106AE00009C105F016EC7AF002C006F103C007F107
:106AF00004C008F105C009F1066A076AC80E086EED
:106B0000420E096E06C102F007C103F008C104F08D
:106B100009C105F093EC1AF002C01BF003C01CF091
:106B200004C01DF005C01EF018EC57F01BC06AF140
:106B30001CC06BF1966B04D0010E0101966F000032
:106B40000000120068C065F069C066F0B5EC8CF01A
:106B50006E6F736B0101B3A50BD0000120EE3BF00B
:106B60006851D9266951DA22DFA602D0010E736F6F
:106B700000017351010ED8B4000E6F6F68C065F04C
:106B800069C066F055EC8DF0706F6FD8DFA0000E15
