:100D0000ADEF06F0FFFFFFFF5F8235EFB4F0FFFFAE
:100D1000FFFFFFFFFFFFFFFF5F80D8CF60F0E8CF4E
:100D200061F0E0CF62F0D9CF63F0DACF64F09DB824
:100D30009EA802D071ECF9F0A3B8A4A802D085EC6B
:100D4000F7F064C0DAFF63C0D9FF62C0E0FF61C0A2
:100D5000E8FF60C0D8FF5F901000B7EF99F0010185
:100D6000C55109E067C065F068C066F0D8ECEFF0E7
:100D7000000901E0010C000C50EC0BF0000908E048
:100D800083B483B201D0030C83B4020C83A2010CA0
:100D9000000C00018C6F670E836F020E846F610E72
:100DA000856F020E866F8C5109EF8DF06BC065F078
:100DB0006CC066F06DC067F06EC068F06FC069F01F
:100DC000020EF5EFE1F06BC065F06CC066F06DC02F
:100DD00067F06EC068F06FC069F0000EF5EFE1F0EB
:100DE000010100A5120065C002F166C003F167C0F1
:100DF00004F168C005F10095120065C0F6F066C008
:100E0000F7F067C0F8F068C061F169C062F16AC0CC
:100E100063F1120007C001F008C002F009C003F03E
:100E20000AC004F00BC005F0000ED0EFD8F00101AD
:100E300000A5120001C002F102C003F103C004F1D9
:100E400004C005F10095120070FF52FF57FF5CFFD0
:100E500061FF66FFB0150062C50162ED0134160046
:100E6000976F97C088F00001896B800EB3ECF7F0A4
:100E700097290101C46F12004A0E656F020E666F5A
:100E800070C067F071C068F072C069F062EFD5F0B1
:100E900070C065F071C066F076ECFAF072C0D9FFF0
:100EA00073C0DAFF0DEFEFF0656F00016551D8B444
:100EB000000C010AD8B4010C030AD8B4020C000CCF
:100EC0000001656F6551D8B4000C060AD8B4030C54
:100ED000010AD8B4010C020C93C084F094C085F0D0
:100EE00095C086F096C087F097C088F01BEFB8F0E9
:100EF000898E898C20EE3AF06B51D9266C514DECDD
:100F0000FCF0010E80EF08F00101884B892B8A511B
:100F1000885D8B518959D8A01200886B896B1200AB
:100F2000D08EA2869F86F184A282D284D2889F8AA4
:100F3000A58A9F98A59812006651030B636E65C041
:100F400062FF7F9C7F9E7F8000F000F06150120066
:100F50005FA202D086EF09F0008701510125000150
:100F6000656F65C0C9FF030C5FA202D08EEF09F068
:100F70000087D88001350001656F65C0C9FF050C89
:100F80007AC06DF07BC06EF07CC06FF07DC070F0F9
:100F90007EC071F0AFEFCAF05A0E0001676F030E0A
:100FA0002CECDBF0180E6B6F47ECF9F0D0EF09F08A
:100FB000666F65C046F166C047F165C048F166C01E
:100FC00049F1B98800F0120007D853ECBBF0DECF2E
:100FD00065F0DDCF66F01200010120EE02F0120094
:100FE00007D853ECBBF0DECF65F0DDCF66F0120022
:100FF000010120EE04F0120001EC90F0FCEC8FF007
:10100000DF6A21EEFFF0FCEC8FF0DF6A000C656F09
:10101000670E00016525D96EDA6A010E00D0DA226A
:10102000DF50120097C0D9FF98C0DAFFDF50886FF9
:10103000020E896F450EB3EFF7F0976F97C0BAF1C4
:10104000A9ECFDF00001886B896B420EB3EFF7F05D
:10105000936F93C0C0F10101C3A312003EEC09F0ED
:101060000101C3931200020150514E5D0001656FF2
:10107000020151514F590001666F1200886F900EA6
:101080000001896F88C08AF0890EE8EC8EF0DDEFF0
:10109000C6F0666F010E0001656F665103E06605DC
:1010A00001E0656B655112008F8020EE3AF06B51C4
:1010B000D9266C5109ECFDF0010E75EF08F08F8612
:1010C00020EE3AF06B51D9266C511AECFDF0010E6E
:1010D000D1EF08F0676F00016751040DF3CF66F0A0
:1010E00065510C0DF350662512006A6F6AC065F0F9
:1010F00069C066F0010E0001676F020EDDEFF2F0CD
:101100006A6F6AC065F069C066F0010E0001676F22
:10111000000EDDEFF2F070C0D9FF71C0DAFF72C0CF
:10112000E1FF73C0E2FFCDEFC2F000016E6F6E51C0
:10113000D8B4120035842AECF3F09FEFFEF06E6F06
:1011400000016E51D8B4120035802AECF3F09FEF05
:10115000FEF000016E6F6E51D8B41200358A2AEC91
:10116000F3F09FEFFEF08BC08BF08CC08CF0000E84
:101170008CBFFF0E8D6F8E6F1200656F0001655181
:1011800003E0898A89881200899A8998120077C0B9
:101190006EF078C06FF079C070F07AC071F0E0EF57
:1011A000BDF06A6F6AC065F069C066F0010E0001AB
:1011B000676FDDEFF2F020EE59F06651D9266751E6
:1011C000DA22DF5007EF08F097C0C1F198C0C2F1F2
:1011D000886B896B830EB3EFF7F052C165F053C192
:1011E00066F054C167F055C168F0120065B5010C96
:1011F00065B7020C65B3030C65B1040C000C5BEC25
:10120000C8F0FBECF2F0886B896B180EB3EFF7F0C7
:10121000010E0101CE6FD06BCF6BD16B7C6B7D6B00
:10122000120000016F6F6DC069F06EC06AF06F51FF
:10123000A6EFF4F00101BBA1000C6EEC09F000096F
:1012400001E0010C000CC6BA1200C76A280EC66E77
:10125000C56A090EC86E090CC5AC03D0BFECC7F057
:1012600002D00001656B6531120065C020F266C0D6
:1012700021F267C022F268C023F21200910E000131
:10128000886F880EE8EC8EF0DDEFC6F0965197116E
:10129000D8B412009607D8A0970712000001696F12
:1012A0005B0E676F69C068F08AEFC1F04450010AB5
:1012B000D8B4000C030AD8B4020C010C716F71C0D1
:1012C0006DF070C06EF0070E11EF09F0716F71C014
:1012D0006DF070C06EF0020E11EF09F0AF51D8B48E
:1012E000010C070EAF1901E1010C000C5FA203D045
:1012F00032EF0BF000D000910B6B0E0C44502EEC33
:10130000E6F065C090F166C091F11200010100871E
:1013100001510125016E01C0C9FF030C01010087C5
:10132000D8800135016E01C0C9FF050C506A536AAF
:10133000546A516A526A4E6A4F6A12008A518B117E
:1013400001E11200A0ECE8F0FDD71AEC0BF00CEC78
:1013500086F0060EFAEFFFF00101C551010ED8A488
:10136000000EC56F1200000E5AECF0F03DECAAF032
:101370001EEFDAF02D0E6525656F000E6621666F93
:1013800012002B0E6525656F000E6621666F120038
:101390006F6F6EC068F000016F51A1EFF2F000D0E6
:1013A0000201796B7A6B7B6B7C6B1200666F0001BC
:1013B0006551030DF3506625120065C0EEF266C05C
:1013C000EFF267C0F0F2120065C0F1F266C0F2F20F
:1013D00067C0F3F2120065C0EBF266C0ECF267C0C2
:1013E000EDF2120065C0E5F266C0E6F267C0E7F212
:1013F000120065C0E8F266C0E9F267C0EAF21200C6
:1014000065C0E2F266C0E3F267C0E4F2120065C0B4
:10141000D9F266C0DAF267C0DBF2120065C0DCF216
:1014200066C0DDF267C0DEF2120065C0D6F266C0AB
:10143000D7F267C0D8F2120065C0DFF266C0E0F2F2
:1014400067C0E1F212005FA202D05CEF0BF056EC35
:101450000BF0090C5FA202D05FEF0BF056EC0BF023
:101460000A0C5FA202D062EF0BF0C59AC588050C8A
:101470005FA202D02EEF0BF00097C586040C5FA28E
:1014800002D08CEF0BF07AEC0BF0000C5FA202D0D4
:101490008EEF0BF07CEC0BF0010C5FA202D090EF12
:1014A0000BF07CEC0BF0020C5FA202D092EF0BF081
:1014B0007CEC0BF0010C600E886F880EE8EC8EF06F
:1014C000DDEFC6F0920E886F880EE8EC8EF0DDEF4F
:1014D000C6F0656F00016551010AD8B4010C000C1B
:1014E00061ECBBF0DECF65F0DDCF66F012000101EC
:1014F0004A2B000E4B234C234D23000C656F01013A
:101500009F6B65C0A0F112005A0E0001656F040EBA
:10151000666F1200000E0001656F040E666F120008
:10152000320E0001656F050E666F1200F29EF29C8E
:10153000D088D092FF001200F29EF29CD088D08218
:10154000FF001200BCEC06F0000901E0010C000CE9
:10155000CE0E0001656F010E666F1200070E0101CD
:10156000AF19D8B4010C000C0E0E0101976F100ECC
:10157000966F100C700ED36E646A9B6A2A6B120011
:10158000FA0E0001656F0C0E666F1200860E656F15
:10159000FC0E666FD2EF0AF0930E656FFC0E666F5D
:1015A000D2EF0AF065C03AF066C03BF017EFFFF0EB
:1015B00045C065F00001666B1200886B896B840E74
:1015C000B3EFF7F00001956F95514BEFF8F0000184
:1015D000946F94513EEF08F0666B010E656F54EF07
:1015E000FEF0666B020E656F54EFFEF00001696F4E
:1015F00069516EEFF4F05FB236EF0BF07BEF09F05C
:10160000000E05EC0BF0B98412000001656F65C097
:101610003BFF1200080EFAECFFF0000C666B656BE6
:1016200054EFFEF00101BBB1010C000C0101BBB98C
:10163000010C000C010E0101986F010C5FA2050C5A
:10164000050C050C5FA2010C010C010C5FA2030C40
:10165000030C030C09ECBBF05CEFF9F001010097FF
:10166000C586040C010100910B6B0E0C0101009169
:101670000B6B0E0C0F01229922891200FFFF10271D
:10168000B4040101A8511200B9A4010C000C86B0E9
:10169000010C000C80BE010C000C86B6010C000C85
:1016A00083A6010C000C000E3FEFD7F0C58AC58859
:1016B0001200706B716B1200C58AC588090CC58A4F
:1016C000C5880A0CC59AC588050CAB98AB88120072
:1016D00000EF80F05BEF0AF088EFFCF070EF0BF0AA
:1016E00095EFB9F01EEFDAF01EEFDAF0CFEF09F068
:1016F0005C501200C5841200C58212009E96120032
:10170000CCEF07F05BEF0AF062EF0AF0436A1200D9
:1017100097EFE3F04CEFF5F0C584000CC582010CA7
:10172000C582020CC582010CA1961200D5EFBCF057
:1017300079EFD3F021EFFBF053EFFFF062EFFFF012
:10174000000C12001200120012001200120012000F
:10175000050C010C030C1200120012001200120002
:101760001200FFFFFFFFFFFFFFFFFFFFFFFFFFFF75
:10177000FFFFFFFFFFFFFFFFFFFFFFFFFFFFFFFF79
:10178000FFFFFFFFFFFFFFFFFFFFFFFFFFFFFFFF69
:10179000FFFFFFFFFFFFFFFFFFFFFFFFFFFFFFFF59
:1017A000FFFFFFFFFFFFFFFFFFFFFFFFFFFFFFFF49
:10FBC000FFFFFFFFFFFFFFFFFFFF00EC1200680FCA
:10FBD00000500F00EE8E01AAB40170140052CA0149
:10FBE000A814009A14008C14007E140062140054AF
:10FBF0001400461400F615001EDA01341E01CCF87C
:10FC000001C266016CFC01D6BD014A13004EFC0125
:10FC100030FC0162E30112FC01F2B201777C585E14
:10FC200079716F760600003800545C7300506D786F
:10FC30001C0000006E00777C395E79716F760600DB
:10FC4000003800373F7300506D783E0000006E00B2
:10FC50003031323334353637383961626364656642
:10FC60000001000A006400E80310273F065B4F66AE
:10FC70006D7C077F6705102030406080A0FF6E67B5
:10FC8000C579DD61021A7413000A00060E0A003CF1
:10FC90000000008213000000580201000A00B6FFB5
:10FCA000000000000000326D011422011017008EC8
:10FCB00011005C440152E4010C1700000000E0D187
:10FCC000011E7D018C150000000002CE01205E01A6
:10FCD00098150000000002CE01205E0114170000FC
:10FCE0000000661300445C01000000000000B0CB7F
:10FCF000012281010000000000006CBF01607A0158
:10FD0000000000000000E8160066AF0100000000DF
:10FD10000000E416007A7E016F75744361706163C0
:10FD2000697479203E2028444154414752414D5F37
:10FD300053594E435F53495A45202B204441544167
:10FD40004752414D5F4D494E5F4C454E4754485FC9
:10FD500053495A45202B20444154414752414D5F5D
:10FD6000434845434B53554D5F53495A452900413C
:10FD70007373657274696F6E206661696C65643A4D
:10FD8000202573206C696E652025643A2022257336
:10FD9000220A00616C6C506F64427566666572730E
:10FDA0005B504F445F4255464645525F52585D2076
:10FDB000213D2028302900616C6C506F64427566CB
:10FDC000666572735B504F445F4255464645525FCD
:10FDD00054585D20213D2028302900636F6E6669EC
:10FDE000672D3E7361766553657474696E67732021
:10FDF000213D20283029007372632F447269766593
:10FE000072732F506F6473436861696E55617274C9
:10FE10002E6300636F6E6669672D3E70726F766940
:10FE2000646553697A6520213D2028302900636F7D
:10FE30006E6669672D3E7772697465427974657381
:10FE400020213D20283029007372632F506F647386
:10FE5000436861696E2F506F6473436861696E2EE9
:10FE60006300636F6E6669672D3E726561644279F7
:10FE700074657320213D20283029007772697465EC
:10FE8000506572696F64203E207461736B506572B7
:10FE9000696F6400696E70757453697A65203E3DC0
:10FEA0002076616C756553697A65007372632F54AF
:10FEB00061736B732F526164696F5461736B2E634E
:10FEC000007372632F526164696F2F566172496EBD
:10FED000742E63007372632F526164696F2F5261D5
:10FEE00064696F2E6300706F6473556172742021B2
:10FEF0003D2028302900636861696E20213D20285B
:10FF0000302900382E382E382E382E00286E756C89
:10FF10006C2900302E324C4F00414C2E4849004194
:10FF20004C2E4C4F0048454C50003030303000369D
:10FF30002E3230003131313100323232320033333F
:10FF4000333300343434340035353535002D2D2D20
:10FF50002D00657272310065727232006572723303
:10FF600000657272340065727255004461746100FC
:10FF7000636F6E6E0050726F7500504831300050E4
:10FF80004820340050482037004641494C004F4F2C
:10FF90004F4F0050415353004550742D004E47457C
:10FFA0002E002D41434300436F6E66006E636E6FFB
:10FFB000006275737900636F6E740046414300649C
:10FFC0004546006F66660043414C0043484100507F
:10FFD0006F6400457272004F4646006F6E00627299
:10FFE00000454C004F52005552006E6300494300DB
:10FFF0007264007048002A43002A4600454300000E
:020000040001F9
:1000000059505A100FE1010E0001836F2F0E826FBD
:10001000F70E846FFD0E856FE60E866FFE0E876FFE
:100020004FECFAF059C078F05AC079F033D020EE96
:10003000CEF07851D9267951DA2201D80AD00500BC
:10004000FA6EDE50FD6EDE50FE6EDE50FF6EFA5030
:1000500012007A6FCBD9DF507B6F7B517825D96E38
:10006000000E7921DA6E7AC0DFFFC0D910EE64F09D
:100070007851E1267951E222E7507A6F7A29656F4B
:10008000666B000E6623686B640E676F7FECDDF0B5
:100090006551DF6E78C065F079C066F0000120EE32
:1000A000CAF06551D9266651DA22DF50D96EDA6A74
:1000B000DF500009BCE101D0BAD778C065F079C043
:1000C00066F016D0696B0CD05CD969516525E16E7C
:1000D000000E6621E26EDFCFE7FF53D9DF6A692B9E
:1000E00063D9DE50695DF0E301D0EED75DD9DF065C
:1000F00065C0D9FF66C0DAFF1B0EDE1807E001D02D
:1001000005D052D9DF50DEE101D0DCD778C072F0E3
:1001100079C073F072C0D9FF73C0DAFF1B0EDE180E
:100120000DE101D00BD020EE64F07251D92673514D
:10013000DA22030EDF6004D001D002D0000E9AD084
:1001400020EE01F018D9756F746B20EE02F013D910
:1001500074130AD974C0DEFF75C0DDFF05D9010E26
:10016000DB5005E15D0EDE5C0FE301D00DD045D91B
:10017000676B99ECADF0672B630E6765FAD701D01A
:10018000F8D7A1ECADF0DAD7EFD8DECF74F0DDCF41
:1001900075F0050E7427000E752320EE64F0EBD881
:1001A000766F776B7451765D7551775903E2C6D7D8
:1001B00001D0C4D772C06CF073C06DF0D5D8DF50D9
:1001C000050F6E6F706B716B010E6F6F36D0700E16
:1001D000656F6F516C25D96E000E6D21DA6EDF50A0
:1001E000666F6651686F676B6551D96EDA6A6751E1
:1001F000DE1A6851DD1A080E6B6FE2D868AF14D0B2
:1002000001D012D0DDD8D89067376837210E671932
:10021000696F100E68196A6F6551D96EDA6A69C024
:10022000DEFF6AC0DDFF03D0655166EC96F06B0718
:100230006B51E3E101D0E1D76F2B6E516F5DC7E3E6
:1002400001D0C5D77051711101E002D0010E01D06B
:10025000000E00090EE101D00CD0CFD8676B99ECED
:10026000ADF0672B630E6765FAD78BD7F8D789D7C0
:1002700065D7010E000952E059C080F05AC081F0E4
:10028000AED8DFA005D001D003D0A9D8DF9019D017
:1002900080C06CF081C06DF0000E7EEC0AF06CC086
:1002A00068F06DC069F0000120EECBF06C51D926EA
:1002B0006D51DA22DF50050F6A6FE9ECF5F01AECA8
:1002C000F0F080C065F081C066F0000120EECBF058
:1002D0008051D9268151DA22DECF67F0DDCF68F078
:1002E0006A6B6751050F6B6F10D06B516525D96E26
:1002F000000E6621DA6E6A516525E16E000E6621F8
:10030000E26EDFCFE7FF6A2B6B2B62D8DE506B5DAE
:10031000ECE301D0EAD75CD86AC0DFFF59C065F0D2
:100320005AC066F03AD8DFA213D001D011D020EE27
:10033000CDF041D8DFCF67F0DF2A0F0E676508D018
:1003400001D006D02AD8DF9220EECDF034D8DF6A73
:1003500024D8DFB201D002D0010E01D0000E000976
:1003600002E168ECE9F0010C20EECBF07251D926E5
:100370007351DA2212007251D9267351DA22DF50FA
:10038000120069516525676F000E6621686F672945
:10039000D96E000E6821DA6E120020EED1F06551A0
:1003A000D9266651DA22120020EE64F06551D92672
:1003B0006651DA2212006551D9266651DA221200FE
:1003C0006551D96EDA6ADECF67F0DDCF68F01200D2
:1003D00020EE64F06551D9266651DA22120020EE33
:1003E000D1F08051D9268151DA22120020EE64F03A
:1003F0007851D9267951DA22120072C065F073C0A3
:1004000066F01200010145ECDFF0DFB42CD122EEE2
:100410000EF0EDECB9F0DFA226D1BCC1D9FFBDC111
:10042000DAFF97C0E1FF98C0E2FFDE50E65C05E32B
:1004300020D90001886F020E38D01BD97F0D41D919
:10044000000199510101BC2500019B6F9A510101E6
:10045000BD2100019C6F020E9B259D6F000E9C210B
:100460009E6F20EE05F09D51D9269E51DA2210EEA6
:1004700001F09751E1269851E222DE50E65C12E24B
:1004800020EE02F00FD9100EDF600CD020EE05F048
:1004900009D9030EDF6006D020EE06F003D9640E02
:1004A000DF6405D0E6D8886F030E896FDFD020EEB9
:1004B00001F0F8D8DF50140D04D999519D259B6F98
:1004C0009A519E219C6F070E9B259F6F000E9C21C9
:1004D000A06F9FC065F0A0C066F097C067F098C09D
:1004E00068F020EE02F0E3D810EE02F0CFD801E180
:1004F00002D0010E01D0000E6F6F716B22D020EE82
:1005000003F0D5D8DECF69F0DDCF6AF071516925EF
:10051000D96E000E6A21DA6E715165256C6F000E7E
:1005200066216D6F030E6C25E16E000E6D21E26E8B
:10053000DE50E61805E001D003D0010E6F6F0CD03D
:10054000712B20EE02F06551D9266651DA22DE5079
:10055000715DD5E301D0D3D7010E706F20EE05F0A9
:10056000A6D810EE12F092D810E101D00ED020EEF5
:1005700006F09DD810EE13F089D807E101D005D020
:100580006F5103E101D001D0706B7051000967E039
:100590009FC065F0A0C066F097C067F098C068F093
:1005A0008BD8DF50020DF3CF69F0F4CF6AF06951B8
:1005B0000101BC2500016B6F6A510101BD210001E1
:1005C0006C6F060E6B256D6F020E6C216E6F20EE48
:1005D00002F063D810EE02F052D86F6B1CD020EE00
:1005E00003F05BD8DECF69F0DDCF6AF06F5169258B
:1005F000D96E000E6A21DA6E6F5165256B6F000EA1
:1006000066216C6F030E6B25E16E000E6C21E26EAD
:10061000DFCFE7FF6F2B20EE02F03FD8DE506F5D9B
:10062000DEE301D0DCD720EE05F037D810EE12F073
:1006300026D820EE06F031D810EE13F020D820EEA8
:1006400001F06D51D9266E51DA22DF8035D86DC0A8
:10065000E1FF6EC0E2FFDFCFE7FFA9ECFDF0010193
:1006600045ECDFF0DF8205D8E5EC98F0510EB3EFF2
:10067000F7F097C0D9FF98C0DAFFDF50120065513C
:10068000E1266651E222DFCFE7FF12006551E12645
:100690006651E222DE50E61812006751D9266851F1
:1006A000DA2212009751D9269851DA2212006751A6
:1006B000D9266851DA22120067C0D9FF68C0DAFF74
:1006C0001200F3CF99F0F4CF9AF0120070EC0AF018
:1006D00065C073F066C074F0290E00012BD9696BF8
:1006E000020E6B6F4DECF6F0270E24D9020E696FE7
:1006F0006B6F4DECF6F0230E1DD9040E2AD94DEC8C
:10070000F6F0250E17D9060E24D94DECF6F02B0E77
:1007100011D9080E1ED94DECF6F02D0E0BD90A0E8C
:1007200018D94DECF6F03A0E05D90C0E16D94DEC51
:10073000F6F017D90D0E11D94DECF6F002D9FCECFC
:10074000D2F0E4EC07F065C073F066C074F0290ED7
:100750000001F0D8100EFDD84DECF6F0270EEAD8C7
:10076000120EF7D84DECF6F0230EE4D8140EF1D8A3
:100770004DECF6F0250EDED8160EEBD84DECF6F06B
:100780002B0ED8D8180EE5D84DECF6F02D0ED2D899
:100790001A0EDFD84DECF6F03A0ECCD81C0EDDD890
:1007A0004DECF6F0DED81D0ED8D84DECF6F0C9D8D9
:1007B000FCECD2F0F0EC07F065C073F066C074F0AA
:1007C000290E0001B7D8200EC4D84DECF6F0270E44
:1007D000B1D8220EBED84DECF6F0230EABD8240EC5
:1007E000B8D84DECF6F0250EA5D8260EB2D84DECB3
:1007F000F6F02B0E9FD8280EACD84DECF6F02D0E4F
:1008000099D82A0EA6D84DECF6F03A0E93D82C0EB5
:10081000A4D84DECF6F0A5D82D0E9FD84DECF6F0EF
:1008200090D8FCECD2F0380E85D8440E92D84DEC1E
:10083000F6F0AF0E676F010E686F6A6B300E8DD8E1
:100840004DECF6F0BA0E676F010E686F6A6B310EF1
:1008500084D84DECF6F0BB0E676F010E686F6A6BC3
:10086000320E7BD84DECF6F00101BB97D20E0001A1
:10087000676F010E686F6A6B330E78D84DECF6F037
:10088000550E676F686B6A6B380E70D84DECF6F0DA
:10089000DA0E676F010E686F6A6B3C0E67D84DEC1D
:1008A000F6F0D60E676F010E686F6A6B400E5ED869
:1008B0004DECF6F05C0E676F686B6A6B460E4DD8B8
:1008C0004DECF6F0DE0E676F010E686F6A6B470E37
:1008D00040D84DECF6F0E40E676F010E686F6A6B5E
:1008E000490E37D84DECF6F0C0EC0AF065296E6F72
:1008F000000E66216F6F6EC067F06FC068F06A6BA4
:10090000500E2BD84DECF6F0706B702B0E0E706500
:10091000FCD7710E676F686B6A6B880E1ED84DEC42
:10092000F6F071B103D00101C39102D00101C3817E
:1009300000F012007325676F000E7421686F6A6BF8
:10094000120073C065F074C066F072C067F0686B27
:100950001200696F020E6B6F020C696F010E6B6FF4
:10096000010C720E676F686B6A6B1200696F040E80
:100970006B6F040C0450800B0D6E04500424136E36
:1009800003BE1380135008E0132804E1016A026AD1
:10099000036A046A038E04D0016A026A036A046A65
:1009A0000850800B0D1A085008240E6E07BE0E80EA
:1009B0000E5008E00E2804E1056A066A076A086A14
:1009C000078E04D0056A066A076A086A0E5002E0BC
:1009D000135005E1016A026A036A046A12000750B3
:1009E0000102F3CF18F0F4CF19F018500F6E106A0F
:1009F000116A126A1950146E156A166A176A06503F
:100A00000202F3CF18F0F4CF19F018500F26000EA1
:100A100010221122122219501426000E152216221D
:100A2000172205500302F3CF18F0F4CF19F0185035
:100A30000F26000E10221122122219501426000E29
:100A400015221622172211C012F010C011F00FC08B
:100A500010F00F6A05500202F3CF18F0F4CF19F02E
:100A600018500F2619501022000E11221222065083
:100A70000102F3CF18F0F4CF19F018500F261950D7
:100A80001022000E1122122211C012F010C011F01B
:100A90000FC010F00F6A05500102F3CF18F0F4CF29
:100AA00019F018500F2619501022000E1122122290
:100AB00007500202F3CF18F0F4CF19F018501426A3
:100AC00019501522000E1622172206500302F3CFEA
:100AD00018F0F4CF19F01850142619501522000EF2
:100AE0001622172207500302F3CF18F0F4CF19F0A3
:100AF0001850096E19500A6E0B6A0C6A0BC00CF084
:100B00000AC00BF009C00AF0096A095014260A50FD
:100B100015220B5016220C50172212501426000ECC
:100B200015221622172211C012F010C011F00FC0AA
:100B300010F00F6A0E5013C009F00A6A0926000E61
:100B40000A22820E0924186EFF0E0A20196E0FD099
:100B5000D890143615361636173612BE1480D89033
:100B60000F361036113612361806D8A0190616AEF2
:100B7000EFD70E6A12AE13D00F50096E10500A6EE6
:100B800011500B6E7F0E12140C6E09500A100B10D0
:100B90000C1003E0010E0E6E02D014B0FBD70E5005
:100BA0000EE0142A000E15221622172217A007D0D5
:100BB00017341732163215321432184A192A19BE50
:100BC0000AD0195002E1182806E3146A156A800E4B
:100BD000166E7F0E15D019BE04D0195008E1180406
:100BE00006E2146A156A166A176A0D6A0AD018C0F6
:100BF00013F07F0E1616176A13B0168ED8901330A6
:100C0000176E0D50171214C001F015C002F016C077
:100C100003F017C004F01200980501E028D170EC31
:100C20000AF065C076F066C077F0290E000123D97E
:100C30006B6B020E6D6F18ECE9F0270E1CD9020EDB
:100C40006B6F6D6F18ECE9F0230E15D9040E1AD9ED
:100C500018ECE9F0250E0FD9060E14D918ECE9F0BE
:100C60002B0E09D9080E0ED918ECE9F02D0E03D978
:100C70000A0E08D918ECE9F03A0EFDD80C0E06D988
:100C800018ECE9F0350EF7D80D0E00D918ECE9F0A4
:100C9000E4EC07F065C076F066C077F0290E00013D
:100CA000EAD8100EEFD818ECE9F0270EE4D8120EAF
:100CB000E9D818ECE9F0230EDED8140EE3D818ECCE
:100CC000E9F0250ED8D8160EDDD818ECE9F02B0E79
:100CD000D2D8180ED7D818ECE9F02D0ECCD81A0EB1
:100CE000D1D818ECE9F03A0EC6D81C0ECFD818ECC3
:100CF000E9F0350EC0D81D0EC9D818ECE9F0F0ECBB
:100D000007F065C076F066C077F0290E0001B3D811
:100D1000200EB8D818ECE9F0270EADD8220EB2D8C4
:100D200018ECE9F0230EA7D8240EACD818ECE9F0A3
:100D3000250EA1D8260EA6D818ECE9F02B0E9BD8CC
:100D4000280EA0D818ECE9F02D0E95D82A0E9AD8C6
:100D500018ECE9F03A0E8FD82C0E98D818ECE9F080
:100D6000350E89D82D0E92D818ECE9F0380E83D8BC
:100D7000440E88D818ECE9F0AF0E696F010E6A6F67
:100D80006C6B300E83D818ECE9F0BA0E696F010E67
:100D90006A6F6C6B310E7AD818ECE9F0BB0E696F94
:100DA000010E6A6F6C6B320E71D818ECE9F0D20E3E
:100DB000696F010E6A6F6C6B330E6CD818ECE9F03A
:100DC000550E696F6A6B6C6B380E64D818ECE9F0DD
:100DD000DA0E696F010E6A6F6C6B3C0E5BD818EC13
:100DE000E9F0D60E696F010E6A6F6C6B400E52D837
:100DF00018ECE9F05C0E696F6A6B6C6B460E46D8B6
:100E000018ECE9F0DE0E696F010E6A6F6C6B470E2D
:100E100039D818ECE9F0E40E696F010E6A6F6C6B5B
:100E2000490E30D818ECE9F0C0EC0AF06529726F71
:100E3000000E6621736F72C069F073C06AF06C6B4C
:100E4000500E24D818ECE9F0756B752B0E0E7565F5
:100E5000FCD70101000EC3B1010E0001746F740EC6
:100E6000696F6A6B6C6B880E11D818ECE9F00101A0
:100E7000986B00F012007625696F000E77216A6F7B
:100E80006C6B12006B6F020E6D6F020C6B6F010EBC
:100E90006D6F010C6B6F040E6D6F040C7451BAEC26
:100EA00097F0030EDF6E7451D96EDA6ADECF75F0FB
:100EB000DDCF76F075C0D9FF76C0DAFF1B0EDF6E8E
:100EC0007451BAEC97F0FAD83D0EDF6E7451BAEC5B
:100ED00097F0DF2A7451BAEC97F0F0D8DF6A7451BA
:100EE000BAEC97F0DF2A7451F9ECAEF0DECF65F082
:100EF000DDCF66F06B6B6B51020DF3CF67F0F4CF73
:100F000068F067516525696F685166216A6F070E41
:100F10006925D96E020E6A21DA6EDFA004D001D0F5
:100F200002D06B2907D06B2B030E6B65E4D701D081
:100F3000E2D7000E786F785101E1010C7451BAECE0
:100F400097F0BCD878C0DFFF7451BAEC97F0DF2A75
:100F500074C065F078C066F066517F0DD9D86551D0
:100F6000F9ECAEF0DECF69F0DDCF6AF067516925AC
:100F70006B6F68516A216C6F830E6B256F6FFF0E6C
:100F80006C21706FBBD8DA22DF506D6FB7D87ED876
:100F90006551BAEC97F0DF2A716B63D07151140D73
:100FA000B7D867516F25696F685170216A6F070E56
:100FB0006925726F000E6A21736F6551BAEC97F064
:100FC0008DD871C0DFFF6551BAEC97F0DF2A6E6BE8
:100FD00025D06E517225676F000E7321686F030E66
:100FE0006725D96E000E6821DA6E6551E3EC97F043
:100FF000E750696F6551E16EE26AE6CF6AF0E5CFCE
:101000006BF069516A25E16E000E6B21E26EDFCF55
:10101000E7FF6551BAEC97F0DF2A6E2B20EE02F065
:1010200073D8DA22DE506E5DD4E301D0D2D7655199
:10103000BAEC97F053D8DF6A6551BAEC97F0DF2A23
:1010400020EE12F061D822D86551BAEC97F0DF2A71
:1010500020EE13F059D81AD86551BAEC97F0DF2A70
:10106000712B6D51715D9AE301D098D7745172EC78
:101070009FF0A6ECA9F0E76A745177EC9FF0A6EC1C
:10108000A9F07451BAEC97F0C6EFC3F0DA226551BB
:10109000E16EE26A020EE126E750676F6551E16E8C
:1010A000E26AE6CF68F0E5CF69F067516825E16E46
:1010B000000E6921E26EDFCFE7FF1200DF50756F8F
:1010C0007451D96EDA6ADECF76F0DDCF77F07551E4
:1010D0007625D96E000E7721DA6E1200DF50676F29
:1010E0006551D96EDA6ADECF68F0DDCF69F06751FD
:1010F0006825D96E000E6921DA6E120020EE05F027
:101100006F51D926705112007251D92673511200B5
:10111000F3CF67F0F4CF68F012006851800B716F65
:1011200068516825736F67BF7381735105E0732938
:1011300001E106D9678F03D0656B666B676B686BDF
:101140006C51800B726F711901E0718D6C516C25BF
:10115000726F6BBF7281725108E0722904E1696B92
:101160006A6B6B6B6C6B6B8F03D0696B6A6B6B6BB1
:101170006C6B7351725D22E271AD02D0800E711BF7
:1011800073C074F072C073F074C072F065C074F014
:1011900069C065F074C069F066C074F06AC066F03A
:1011A00074C06AF067C074F06BC067F074C06BF015
:1011B00068C074F06CC068F074C06CF0746B7351EC
:1011C00072C06DF06E6B6D5F000E6E5B6EBF15D002
:1011D0006E5103E11A0E6D5D10E3C7D8010ED8B44D
:1011E000000E746FADD872C073F00AD074A102D033
:1011F000B7D802D0D89074339AD87251735DF6E3A1
:1012000071BD15D0735101E1A0D0695165276A51B4
:1012100066236B5167236C51682368A153D074A176
:1012200002D09ED802D0D890743381D84BD0695167
:10123000655D6A5166596B5167596851800A6D6FD7
:101240006C51800A6D591FE26551695D6D6F665181
:101250006A596E6F67516B596F6F68516C59706F37
:10126000FF0E6D25656FFF0E6E21666FFF0E6F21FD
:10127000676FFF0E7021686F800E711B746D745163
:101280000AE168D808D06951655F6A51665B6B51A5
:10129000675B6C51685B69D813E1745111E155D0FB
:1012A000D890653766376737683774BF658174A132
:1012B00002D0D88001D0D8907437735101E0730701
:1012C00067AFEED7726B74AF0AD074C06DF07F0E4B
:1012D0006D1703E0010E726F02D065B1FBD772513A
:1012E0000BE038D868A108D06835683367336633B7
:1012F0006533732901E0732B732902E0735104E114
:101300001FD8735101E1716B73A102D0678F01D0B7
:10131000679FD8907331686F71BF688F65C065F043
:1013200066C066F067C067F068C068F0120065B11B
:10133000748F68356833673366336533732B1200F7
:10134000656B666B676B686B1200656B666B676BD2
:10135000686B1200652B000E662367236823000C60
:10136000D89074310109746F1200655166116711CC
:10137000681112001FECE4F007D90FD912ECEBF062
:10138000F4D8DAECD5F07DC0E2F07EC0E3F07FC0A7
:10139000E4F080C0E5F0DEC0D1F0DFC0D2F0E0C004
:1013A000D3F0E1C0D4F0E2C0D5F0E3C0D6F0E4C0A1
:1013B000D7F0E5C0D8F0BC0ED96F020EDA6FB30ECD
:1013C000DB6F020EDC6FC3ECDAF0D1C027F2D2C0C3
:1013D00028F2DAD8320EE8D812ECEBF0C6D8DAEC04
:1013E000D5F07DC0E6F07EC0E7F07FC0E8F080C0B9
:1013F000E9F0CAD8D2D812ECEBF0B7D8DAECD5F0D5
:101400007DC0EAF07EC0EBF07FC0ECF080C0EDF074
:10141000E6C09AF0E7C09BF0E8C09CF0E9C09DF000
:10142000EAC09EF0EBC09FF0ECC0A0F0EDC0A1F0D0
:10143000E20EA26F030EA36FB3EC9CF09AC029F2E8
:101440009BC02AF2A1D8640EAFD812ECEBF08DD875
:10145000DAECD5F07DC08AF07EC08BF07FC08CF0D6
:1014600080C08DF032ECF9F08AC02BF28BC02CF2E8
:101470008BD8640E99D812ECEBF077D8DAECD5F073
:101480007DC0EEF07EC0EFF07FC0F0F080C0F1F0E4
:10149000DEC08AF0DFC08BF0E0C08CF0E1C08DF0E0
:1014A000EEC08EF0EFC08FF0F0C090F0F1C091F080
:1014B000E8ECD4F08AC02DF28BC02EF265D86DD83E
:1014C00012ECEBF052D8DAECD5F07DC08AF07EC099
:1014D0008BF07FC08CF080C08DF06EECF7F08AC08E
:1014E0002FF28BC030F250D858D812ECEBF03DD828
:1014F000DAECD5F07DC08AF07EC08BF07FC08CF036
:1015000080C08DF055ECF1F08AC031F28BC032F220
:101510003BD83C0E49D812ECEBF027D8DAECD5F0EA
:101520007DC093F07EC094F07FC095F080C096F0AF
:1015300055ECEDF093C033F294C034F2270E656F92
:10154000020E666F686B070E676FDEC069F0DFC062
:101550006AF0E0C06BF0E1C06CF0AA0E6D6FF50EA2
:101560006E6F010E6F6F0BEFF8F071C07DF072C0FF
:101570007EF073C07FF074C080F0E80E816F030EC0
:10158000826F836B846B030CDEC071F0DFC072F07E
:10159000E0C073F0E1C074F01200E80E756F030E46
:1015A000766F776B786B030C756F766B776B786BF8
:1015B00012007AC1D9FF7BC1DAFF01D80AD0050039
:1015C000FA6EDE50FD6EDE50FE6EDE50FF6EFA509B
:1015D000120065C0FAF266C0FBF20201FA51FB117B
:1015E0003BE0010178510201FA1936E1010179511C
:1015F0000201FB1931E1000E0001676F0C0E686FEC
:101600006A6BFA0E696F010120EE03F07A51D92658
:101610007B51DA2201D80AD00500FA6EDE50FD6E49
:10162000DE50FE6EDE50FF6EFA50120067C0F8F218
:1016300068C0F9F2000EE16F0C0EE26FF8C2E3F041
:10164000F9C2E4F0000EE56F0B0EE66F000EE86FD6
:10165000FA0EE76F39ECACF0FAC278F1FBC279F11F
:1016600000C26EF001C26FF002C270F003C271F0EE
:101670000201002B000E0123022303236EC065F03C
:101680006FC066F070C067F071C068F004C269F0A6
:1016900005C26AF006C26BF007C26CF084ECDFF0A2
:1016A000655166116711681101E002D0010E01D089
:1016B000000E00095CE0000E0201FC6F0B0EFD6FD6
:1016C000FC0E0001826F020E836F856BFA0E846F31
:1016D000FE0E866F020E876F7CECFBF0FCC266F09C
:1016E000FDC267F0FEC268F0FFC269F0010120EEA2
:1016F00006F07A51D9267B51DA2201D80AD00500AA
:10170000FA6EDE50FD6EDE50FE6EDE50FF6EFA5059
:10171000120020EE01F03650D9263750DA22DFB61B
:1017200011D001D00FD020EE01F03650D92637501D
:10173000DA22DFBA01D002D0010E01D0000E656FAF
:10174000666B0AD020EE01F03650D9263750DA22E7
:10175000DF96666B010E656F20EE01F03650D926DC
:101760003750DA2265B102D0DF9A01D0DF8A20EE4D
:1017700001F03650D9263750DA22DFAA010C01D009
:10178000010C20EE02F03650D9263750DA22DE2A3C
:10179000000EDE22DE22DD22DD52DD52030EDB50A2
:1017A0000BE1020EDB5008E1010EDB5005E10A0EF1
:1017B000DE5C1AE301D0010C20EE01F03650D92690
:1017C0003750DA22DF8820EE01F03650D926375024
:1017D000DA22DF9A20EE02F03650D9263750DA228C
:1017E000DE6ADE6ADE6ADD6A010C8051800B896F79
:1017F000805180258B6F7FBF8B818B5105E08B29BA
:1018000001E1FDD87F8F01D0FAD88451800B891B6C
:10181000845184258A6F83BF8A818A5105E08A2991
:1018200001E1F2D8838F01D0EFD88A5102E08B51C9
:1018300005E17D6B7E6B7F6B806B120083517D03B6
:10184000B1D88C6F8D6B8E6B8F6B9551906F916B48
:10185000926B936B82517E03A5D8B2D881517F03DE
:10186000A1D8AED8A5D881517E039CD8B5D88251D5
:101870007D0398D8B1D89CD881517D0393D8ACD83A
:1018800083517E038FD8B4D882517F038BD8B0D8D0
:1018900083517F0387D8856F9551866F876B886BDF
:1018A00087C088F086C087F085C086F0856B85513B
:1018B00090278651912387519223885193238F51EA
:1018C000902791D875D88A518BC085F0866B852773
:1018D000000E8623820E8525946FFF0E8621956F5C
:1018E0000FD0D89090379137923793378FBF908130
:1018F000D8908C378D378E378F379407D8A09507BF
:1019000092AFEFD78A6B8FAF13D08C51856F8D510B
:10191000866F8E51876F7F0E8F15886F8551861168
:101920008711881103E0010E8A6F02D090B1FBD7B6
:101930008A510BE0902B57D893A107D0933593335E
:10194000923391339033944B952B95BF0AD0955198
:1019500002E1942906E3906B916B800E926F7F0EEB
:1019600015D095BF04D0955108E1940506E2906B1F
:10197000916B926B936B896B0AD094C08BF07F0E46
:101980009217936B8BB1928FD8908B31936F895153
:10199000931390C07DF091C07EF092C07FF093C011
:1019A00080F01200F3CF94F0F4CF95F09451120030
:1019B0008EC08FF08DC08EF08CC08DF08C6B1200BD
:1019C0008C27000E8D238E238F2395519027000E98
:1019D000912392239323000C8C2795518D23000E85
:1019E0008E238F23000C000E912392239323000C4F
:1019F000902795519123000E92239323000C7D6B29
:101A00007E6B7F6B806B1200816B826B836B846B50
:101A100012008A6F00018B6B070E8A190FE189ECA7
:101A2000F3F0F1D827ECFAF085ECF3F0ECD827ECE2
:101A3000FAF081ECF3F0E7D827EFFAF0090E8A19F3
:101A4000D8B41200896BA5D085C0D9FF86C0DAFF53
:101A500083C0E1FF84C0E2FFDE50E61801E1A7D0B9
:101A60008B51220F7E6F300E7F6F83C0D9FF84C0F1
:101A7000DAFFDF50806F8B511B0F27ECFAF097D005
:101A800020EE01F0C8D810EE01F08351E126845118
:101A9000E222DE50E61801E18AD08B51770F7E6F8B
:101AA000300E7F6F20EE01F09AD8700F27ECFAF01D
:101AB0007ED020EE02F0AFD810EE02F08351E12686
:101AC0008451E222DE50E61872E08B51470F8FD826
:101AD00086D8440F27ECFAF0A3D889D880D84B0FCA
:101AE00027ECFAF0A1D883D87AD84B0F27ECFAF07C
:101AF0005ED020EE03F08FD810EE03F08351E12684
:101B00008451E222DE50E61852E08B51220F7E6FA4
:101B1000370E7F6F20EE03F062D81B0F27ECFAF030
:101B200046D020EE04F077D810EE04F08351E12681
:101B30008451E222DE50E6183AE08B51770F7E6F37
:101B4000370E7F6F20EE04F04AD8700F27ECFAF0C2
:101B50002ED020EE05F05FD810EE05F08351E1267F
:101B60008451E222DE50E61822E08B51470F45D81F
:101B700036D8440F27ECFAF053D83FD830D84B0F63
:101B800027ECFAF051D839D82AD84B0F27ECFAF0C5
:101B90000ED08A5101E158D7010A01E171D7030A39
:101BA00088E0010AA6E0070ABCE0010AD2E00B0EB9
:101BB00000018B27892B030E8965EBD7060E8A61FE
:101BC000060C8A518325D96E000E8421DA6E8A5163
:101BD0008525E16E000E8621E26ECDEFC2F08351C5
:101BE000D9268451DA22DF50806F8B5112007E6F2C
:101BF000300E7F6F20EE02F0300C7E6F370E7F6F5D
:101C000020EE05F0370C7F6F83C0D9FF84C0DAFF68
:101C1000DF50806F180C8551D9268651DA221200C8
:101C200000018B514B0F120000018B514E0F12001F
:101C3000966F000196515DECEBF067C097F068C0BD
:101C400098F0000197519811D8B4120097C065F030
:101C500098C066F0C3ECF9F00009D8B41200250E64
:101C6000996F9A0E916F9151DCD89151D96EDA6AC1
:101C7000D92A10EE3AF0DAD8E222E75054EC07F015
:101C8000DF6E990EA5D8DDECC6F020EE22F0ADD8BF
:101C9000DF5018E1260E996F9A0E926F9251C1D8BB
:101CA00020EE25F0A2D89251A5D89AD820EE1FF0A8
:101CB0009CD89251E16EE26A030EAED889D8DDEC71
:101CC000C6F044D0270E996F9A0E946F9451A9D8FC
:101CD00020EE25F08AD810EE23F0A8D885ECB6F0D7
:101CE0008DD8D8A020EE23F080D8DECF8DF0DDCFC8
:101CF0008EF09451D96EDA6AD92A8DC0DEFF8EC07B
:101D0000DDFF20EE1FF071D894517FD820EE23F034
:101D10006CD810EE25F08AD885ECB6F06FD8D8A034
:101D200020EE23F062D8DECF8FF0DDCF90F094511B
:101D3000F9ECAEF08FC0DEFF90C0DDFF20EE1FF0AB
:101D400054D89451E16EE26A060EB7D7290E996F06
:101D50009A0E936F935165D820EE2BF046D893518D
:101D600049D83ED8990E34D8DDECC6F02A0E996FCA
:101D7000935157D820EE2DF038D893513BD830D816
:101D8000990E26D8DDECC6F02B0E996F9A0E956F42
:101D9000955147D820EE27F028D895512BD820D838
:101DA00020EE1FF022D8955130D820EE29F01DD812
:101DB0009551E16EE26A040EE12612D820EE1FF082
:101DC00014D8955133ECB6F027D802D8DDEFC6F021
:101DD0007E6FF6C07FF0F7C080F0F8C081F012008F
:101DE000DECFE6FFDDCFE5FF12009751D9269851EF
:101DF000DA221200E16EE26AE12A12008C6FDE50F4
:101E0000800A8C5920EE25F01200E16EE26A030E82
:101E1000E126DFCFE7FF030CE126DFCFE7FF990ED6
:101E20001200D96EDA6A96C0DFFF12009751E126E0
:101E300098511200656B0101BBAB0AD001D008D0EC
:101E4000E4D8DAD8DFB204D001D002D0010E656F39
:101E500000016551000927E022EE0EF0CDD8DF50D9
:101E6000C30B0409DF6E0101BBA91AD0CAD8C4D8BC
:101E7000DF5006E0BAD8DF9C030EFAECFFF00BD07F
:101E8000B4D8DF8CB2D8DF9EB0D8DF98AED8DF866A
:101E9000040EFAECFFF0B5D8AFD8BFD8DFCFE7FF1C
:101EA000B4D8AAD8DF82A1D8DFB409D001D007D036
:101EB00022EE0EF0A1D8DFA004D001D002D0000E97
:101EC00026D00101A72BA7050001656FA60E656549
:101ED000F6D701D0F4D722EE0EF08ED8DF30E832FC
:101EE0000F0B12E001D010D022EE0EF085D8DF30BB
:101EF000656F65310F0B656F652B65376537DF5093
:101F00006519C30B6519DF6E0101A76B010E00098E
:101F100004E0010EFAECFFF03BD07BD86DD8DFA0D7
:101F200004D001D002D0000E20D0696B6951020D9F
:101F3000F3CF65F0F4CF66F06551F925676F665110
:101F4000FA21686F070E6725D96E020E6821DA6ED6
:101F5000DFA004D001D002D0010E07D0692B030E00
:101F60006965E4D7E0D7E2D7DED7000911E03DD8B4
:101F7000DF923BD8DF9039D8DF8422EE0EF03CD8D8
:101F8000DF8022EE0EF038D8DF92090EFAECFFF077
:101F90003CD832D8DFA2120001D012000101BBAB45
:101FA000120001D01200010E0001656F000E9CECC2
:101FB000FAF022EE0EF020D8DF30E8320F0B676F18
:101FC000010E6765010C01D0120022EE07F014D853
:101FD000DF920101BB9B1DD80FD8C30EDF16050E83
:101FE000656F010E9CECFAF0120022EE01F0F9513F
:101FF000D926FA51DA221200F951D926FA51DA22F9
:102000001200000121EEFEF01200000122EE07F0A6
:102010001200000122EE0EF0120010EE01F0F95154
:10202000E126FA51E22212009DD020EE01F0DF51AC
:10203000D926E051DA22DF5028EF08F0010122EE24
:1020400001F0BC51D926BD51DA22DFA495EFB9F0D9
:10205000120020EE01F0DF51D926E051DA22DF50E4
:102060008FEFE9F020EE01F0DF51D926E051DA22BE
:10207000DF501DEF08F020EE01F0DF51D926E051CE
:10208000DA22DF50D3EFFFF0DF29976F000EE02157
:10209000986F7EEFD2F0DF29976F000EE021986FE6
:1020A00012EF08F0DF29976F000EE021986FBCEF68
:1020B000B7F0DF29976F000EE021986F19EF98F0C5
:1020C000DF29976F000EE021986FB7EFD3F0DF297B
:1020D000976F000EE021986FCBEFCDF0DF29976F5F
:1020E000000EE021986F30EFA0F020EE01F0DF51FC
:1020F000D926E051DA22DF5030EF07F020EE01F070
:10210000DF51D926E051DA22DECF97F0DDCF98F00B
:10211000E4EF08F020EE01F0DF51D926E051DA2299
:10212000DECF97F0DDCF98F0DDEF0AF0DF29976F73
:10213000000EE021986F02EF82F0DF29656F000E3C
:10214000E021666FEDEFF1F0DF29656F000EE02111
:10215000666F77EFFCF0DF29936F000EE021946F3C
:102160006AEF0BF0DFC0D9FFE0C0DAFFDF5002E119
:10217000C8EFE8F0010AD8B41200030A02E168EFE0
:10218000CCF0010AD8B41200070A01E14ED7140AB4
:1021900002E1E0EFFFF0080A02E1FFEF08F0380A81
:1021A00001E14CD7610A01E154D7030A01E15AD792
:1021B000010A01E160D7070A01E166D7010A01E1DE
:1021C0006AD7030A01E16ED7010A01E172D70E0A4C
:1021D00001E176D7030A01E17AD7010A01E17ED74E
:1021E0001A0AA4E0310AD8B41200010AADE0100ABC
:1021F000D8B41200F10A01E178D7030A01E17ED7D1
:10220000070A88E0140AD8B41200010AA4E0030AFD
:1022100094E01200F1C072F0F2C073F0F3C074F0F9
:10222000F4C075F01AECF4F0000901E012008EEC35
:10223000FBF070C0E7F171C0E8F1E7C1D9FFE8C178
:10224000DAFFDF50030B030A03E1010E0101A96F5E
:102250000101A90514E1E7C1D9FFE8C1DAFFDF50A8
:10226000030B030A0CE0E7C1D9FFE8C1DAFFDF5036
:102270000001F56F700EF51702E10101A96B010174
:10228000A90501E0A5D090EC0AF065C0E9F166C0AF
:10229000EAF1E7C1D9FFE8C1DAFFDFA817D0898EDC
:1022A000898C010E0001656F010120EE3AF0E951C1
:1022B000D926EA51DA22DE04010ED8A4000E00016C
:1022C000666F000E676BDDECF2F015D0899E899C7D
:1022D0000001656B010120EE3AF0E951D926EA517F
:1022E000DA22DE04010ED8A4000E0001666F000E93
:1022F000676BDDECF2F084EC0AF065C0E9F166C0D2
:10230000EAF1E7C1D9FFE8C1DAFFDFAA16D08F866C
:10231000010E0001656F010120EE3AF0E951D92666
:10232000EA51DA22DE04010ED8A4000E0001666F25
:10233000676B010EDDECF2F014D08F960001656B37
:10234000010120EE3AF0E951D926EA51DA22DE0401
:10235000010ED8A4000E0001666F676B010EDDEC64
:10236000F2F08AEC0AF065C0E9F166C0EAF1E7C173
:10237000D9FFE8C1DAFFDFAC16D08F80010E000173
:10238000656F010120EE3AF0E951D926EA51DA22CF
:10239000DE04010ED8A4000E0001666F676B020E0A
:1023A000DDECF2F019D08F900001656B010120EE99
:1023B0003AF0E951D926EA51DA22DE04010ED8A416
:1023C000000E0001666F676B020EDDECF2F004D0C8
:1023D000899E899C8F968F90F1C0E3F0F2C0E4F063
:1023E000F3C0E5F0F4C0E6F0010E0001E76FE86B22
:1023F000E96BEA6BEB6B7BEF9AF080EC0BF01EEC79
:10240000DAF00001926B936B946B956B916B030EFA
:10241000D5D87E6BC0EC07F01EECDAF0680E000138
:10242000906FE40EE82EFED7902FFCD700F0030E3D
:102430000001C4D87E6FC0EC07F01EECDAF0680E25
:102440000001906FE40EE82EFED7902FFCD700F02D
:102450000001912B020E9165DAD79281920E8D6F59
:1024600038ECEBF000019283920E8D6F38ECEBF0BC
:1024700000019285920E8D6F38ECEBF0000192878F
:10248000920E8D6F38ECEBF000019289920E8D6FF9
:1024900038ECEBF00001928B920E8D6F38ECEBF084
:1024A0000001928D920E8D6F38ECEBF00001928F4F
:1024B000920E8D6F38ECEBF00001938B920E8D6FC6
:1024C00038ECEBF000019389920E8D6F38ECEBF055
:1024D00000019387920E8D6F38ECEBF0000193852D
:1024E000920E8D6F38ECEBF000019383920E8D6F9E
:1024F00038ECEBF000019381920E8D6F38ECEBF02D
:102500000001938F920E8D6F38ECEBF000019481F7
:10251000920E8D6F38ECEBF00001938D920E8D6F63
:1025200038ECEBF000019483920E8D6F38ECEBF0F9
:1025300000019487920E8D6F38ECEBF000019485CA
:10254000920E8D6F38ECEBF000019489920E8D6F36
:1025500038ECEBF000019589920E8D6F38ECEBF0C2
:1025600000019583920E8D6F38ECEBF00001948B97
:10257000920E8D6F38ECEBF00001948F920E8D6F00
:1025800038ECEBF00001948D920E8D6F38ECEBF08F
:1025900000019581920E8D6F38ECEBF00001958B68
:1025A000920E8D6F38ECEBF000019585920E8D6FD9
:1025B00038ECEBF080EC0BF01EEFDAF07A6FFF0EE8
:1025C0007B6F010E7C6F91C07DF0010C686F82D033
:1025D000B20E656F160E666F000E676F1200F20E78
:1025E000656FAE0E666F010E676F1200180E656F95
:1025F000F80E666F010E676F1200760E656FF40EAF
:10260000666F010E676F1200480E656FC40E666F2D
:10261000010E676F1200EC0E656F990E666F010E6A
:10262000676F12004A0E656FDC0E666F010E676FF2
:102630001200100E656FF20E666F010E676F1200CA
:10264000A40E656FD40E666F010E676F12005A0EEE
:10265000656FDD0E666F010E676F1200160E656FF7
:10266000DD0E666F010E676F1200F00E656FDA0EF9
:10267000666F010E676F1200D20E656FDC0E666F1B
:10268000010E676F1200020E656FCB0E666F010EB2
:10269000676F1200FE0E656FCE0E666F010E676FDC
:1026A0001200180E656FB50E666F010E676F12008F
:1026B000540E656F8E0E666F010E676F12008E0EE0
:1026C000656FDC0E666F010E676F1200656B666BDF
:1026D000676B12000001685182E0020AF0E0010A13
:1026E00085E0070A8AE0010A88E0030ABEE0010AE1
:1026F00084E00F0AACE0180AE2E0010A85E0090A6A
:10270000DEE0010A88E0030A8DE03A0AD8E0010A17
:1027100001E16CD7030A01E169D7010A8AE0070ADF
:102720008FE0010A9BE0030AA7E0010AACE00E0A71
:10273000B1E0030AAFE0010AA6E01B0AB2E0010A19
:10274000B7E0700ABCE0030ABAE0010AB8E0070A81
:10275000B6E0010AB4E0030AB2E0010AB0E00E0AF2
:10276000AEE0030AACE0010AAAE01A0AA8E0310AC6
:1027700001E12ED7110A01E163D7F10AA0E0030AB3
:102780009EE0070A9CE0140A01E153D7010A01E127
:102790001FD7030A01E11CD799D79D6B9E6B9F6BD6
:1027A000A06B9E0E9D6FEF0E9E6FE10E9F6F410E10
:1027B000A06FA3D8ACECA8F0CED85C0E816FFE0E53
:1027C000826FE80E836F3A0E846FF5EC8BF07DC05C
:1027D00099F07CD88DEC88F0ACD88FD8ACECA8F010
:1027E000BAD88BD8ACECA8F0ADD8F5EC8BF09CD86F
:1027F0008ED8ED0E816F450E826FDE0E836FB20EA6
:10280000846FF5EC8BF07DC099F060D88DEC88F08A
:1028100090D873D8ACECA8F09ED86FD8ACECA8F0E8
:1028200091D8F5EC8BF080D872D867D8ACECA8F0D2
:1028300089D8F5EC8BF078D86AD83A0E816F6D0E96
:10284000826FA00E836F2B0E846FF5EC8BF07DC032
:1028500099F03CD88DEC88F06CD89DC07DF09EC07E
:102860007EF09FC07FF0A0C080F0816B826B200E55
:10287000836F410E846FF5EC8BF07DC09DF07EC0C0
:102880009EF07FC09FF080C0A0F09DC08FF09EC0E2
:1028900090F09FC091F0A0C092F0C3ECC7F08FC041
:1028A0009DF090C09EF091C09FF092C0A0F09DC09E
:1028B00065F09EC066F09FC067F0A0C068F0F3ECC2
:1028C000C5F065C097F066C098F012007EC09AF01F
:1028D0007FC09BF080C09CF09DC065F09EC066F0FC
:1028E0009FC067F0A0C068F099C069F09AC06AF014
:1028F0009BC06BF09CC06CF0120097C06FF098C04A
:1029000070F0000E70BFFF0E716F726F010C7FC010
:102910009BF080C09CF099C07DF09AC07EF09BC077
:102920007FF09CC080F012007DC099F07EC09AF0CC
:10293000120065C09DF066C09EF067C09FF068C041
:10294000A0F012006FC081F070C082F071C083F0FF
:1029500072C084F012006FC07DF070C07EF071C054
:102960007FF072C080F0120070EC0AF065C079F060
:1029700066C07AF0AED88FD8C80EDE6EDD6A20EE63
:1029800027F089D86E0EB0D886D8B40EDE6EBAD8CD
:1029900082D8B40EAED87FD8010EDE6E81D87BD837
:1029A00083D879D8010EDF6E98D8FCECD2F0E4EC35
:1029B00007F065C079F066C07AF08BD86CD82C0E21
:1029C000DE6E010E9BD867D8640E8ED864D8960E42
:1029D000DE6E98D860D8FA0E8CD85DD8DE6A60D8E2
:1029E0005AD862D858D8DF6A78D8FCECD2F0F0EC2C
:1029F00007F065C079F066C07AF06BD84CD88A0EC3
:102A0000DE6E020E7BD847D8300EDE6E020EDD6E13
:102A100020EE23F040D87FD820EE25F03CD87BD89C
:102A200020EE2BF038D8010EDE6E3AD834D83CD8E0
:102A300032D8020EDF6E51D8FCECD2F020EE38F026
:102A40002AD8DE6ADD6A0101AF6B040EBA6F060E8A
:102A5000BB6F5CD804ECEDF02ED85C6ADE6BDF6BEC
:102A6000C0EC0AF065C067F066C068F06A6B696B1D
:102A7000020E6C6F0F0E6B6F47ECF9F0786B782BD2
:102A80000E0E7865FCD70101C381010E986F0CEC26
:102A900086F000F012007951D9267A51DA2212001C
:102AA000DD6A20EE2DF01200580EDE6E020EDD6E95
:102AB00020EE3AF0020C020EDC6FDD6B080ED66FD2
:102AC000640ED76FFD0ED86FD969E56B140EE46FF5
:102AD000140C000120EE29F0120079C065F07AC0D4
:102AE00066F0686B676B1200DE6EDD6A20EE23F025
:102AF0001200DE6EDD6A20EE2BF01200DD6E20EE9D
:102B000027F01200DD6A20EE25F01200556A566AA1
:102B1000576A586AF80C440EDE6E020EDD6E020C27
:102B2000B3D8DA22DECF7AF0DDCF7BF0ADD842EC3D
:102B3000A3F0A6ECA9F0E7507D6FA6D8BBD8A6EC11
:102B4000A9F0E7507C6FF9C07EF0FAC07FF07A0EF2
:102B5000796FB0ECD9F0000901E090D07A0E6C6F7B
:102B6000726B736B6C5177EC9FF0A6ECA9F0E75099
:102B7000030F706F000E7EEC0AF000016C51D96EED
:102B8000DA6ADECF68F0DDCF69F070C06AF0E9EC98
:102B9000F5F0010E716F3CD0720E656F6C51D96EFD
:102BA000DA6ADECF6DF0DDCF6EF071516D25D96E32
:102BB000000E6E21DA6EDF50666F6651686F676BCC
:102BC0006551D96EDA6A6751DE1A6851DD1A080E4E
:102BD0006B6F74D868AF14D001D012D06FD8D89072
:102BE00067376837210E6719696F100E68196A6FA9
:102BF0006551D96EDA6A69C0DEFF6AC0DDFF02D0B6
:102C0000655164D86B076B51E4E101D0E2D7712BB9
:102C10007051715DC1E301D0BFD76C51BAEC97F030
:102C200039D873C0DFFF6C51BAEC97F0DF2A6C51D2
:102C3000BAEC97F02FD872C0DFFF6C51BAEC97F066
:102C4000DF2A6C51BAEC97F025D80D0EDF6E6C516F
:102C5000BAEC97F0DF2A7AC066F07BC067F07CC0E0
:102C600068F001D80BD00500FA6E01016451FD6EC9
:102C70006551FE6E6651FF6EFA50120005D81AD8E3
:102C8000A6ECA9F0E76A000C20EE02F03850D92635
:102C900039501200DF506D6F6C51D96EDA6ADECF99
:102CA0006EF0DDCF6FF06D516E25D96E000E6F2185
:102CB000DA6E1200DA2210EE64F012006551D96E5D
:102CC000DA6ADECF67F0DDCF68F01200D96EDA6A1B
:102CD000D890DE36DD3612000001786F78511FE0A3
:102CE000816B826B000E716F030E726FD89081350D
:102CF000D96E8235DA6ED890D936DA367151D92646
:102D00007251DA22B9D8814B822B82BFEBD7825124
:102D100003E10B0E815DE6E30101A16B000C0101F3
:102D2000A151040D000EF324D96E030EF420DA6EC7
:102D3000A3D86DC079F06EC07AF06FC07BF070C020
:102D40007CF06DC07DF06EC07EF06FC07FF070C013
:102D500080F0A12B090EA16501D0A16B0001876B4A
:102D6000886B79D8DE50795DDE507A59DE507B5918
:102D70007C51800A776FDE50800A775909E26BD860
:102D8000DECF79F0DECF7AF0DECF7BF0DECF7CF0E5
:102D900062D87D51DE5C7E51DE587F51DE58DE50B8
:102DA000800A776F8051800A775909E254D8DECFC4
:102DB0007DF0DECF7EF0DECF7FF0DECF80F0874B80
:102DC000882B88BFCED7885103E10A0E875DC9E3FF
:102DD0007D51795D656F7E517A59666F7F517B5960
:102DE000676F80517C59686FCCECEBF065C083F065
:102DF00066C084F067C085F068C086F086BF09D0E1
:102E00008651851105E1C00E835D5D0E845901E395
:102E1000000C86BF09D08651851105E1E00E835D67
:102E20002E0E845901E3010C86BF09D0865185110D
:102E300005E1700E835D170E845901E3020C86BF15
:102E4000040C8651851105E1B80E835D0B0E845983
:102E500001E3030C040C000E716F030E726FD89027
:102E60008735D96E8835DA6ED890D936DA36715111
:102E7000D9267251DA2212006DC0DEFF6EC0DEFF6D
:102E80006FC0DEFF70C0DEFF1200705173D8030EFA
:102E9000DF6E7051D96EDA6ADECF71F0DDCF72F07D
:102EA00071C0D9FF72C0DAFF1B0EDF6E705162D89D
:102EB0006AD8500EDF6E70515DD8DF2A70515AD833
:102EC00062D8DF6A705156D8DF2A705153D85BD868
:102ED000DF6870514FD87CEC9FF070C06BF0A4D8C5
:102EE000686B9AD803E008D001D006D0682B050E95
:102EF0006865F7D701D0F5D76F6B6ED864D87BD8EB
:102F00006F2B050E6F65F9D701D0F7D76B5132D80B
:102F100036D830D848D85CD82DD8DF2A6B512AD87B
:102F200042D876D827D8DF2A705124D82CD8010E61
:102F3000DF6E70511FD8DF2A70511CD824D8640E60
:102F4000DF6E705117D8DF2A705172EC9FF0A6EC3B
:102F5000A9F0E76A705177EC9FF0A6ECA9F07051E8
:102F600009D8DF50FD0FE76E705104D8640EDF60A2
:102F7000010C000CD96EDA6A020ED926020C060E7C
:102F8000DF266B511200DF50716F7051D96EDA6A13
:102F9000DECF72F0DDCF73F071517225D96E000E65
:102FA0007321DA6E1200DF506C6F6B51D96EDA6AE2
:102FB000DECF6DF0DDCF6EF06C516D25D96E000E59
:102FC0006E21DA6E1200E16EE26A020EE126020C58
:102FD000CA0EDF6E6B5112006F516925D96E000E5B
:102FE0006A21DA6E6B51E16EE26AE6CF6CF0E5CFF2
:102FF0006DF06B511200E7506C27000E6D236F517E
:103000006C25E16E000E6D21E26EDFCFE7FF12004E
:10301000FE0EDF6E6B51120068516525D96E000EF1
:103020006621DA6EDE28120069C065F06AC066F0BB
:103030001200C0D85DECEBF067C0A3F068C0A4F04C
:103040000001A351A41104E1B5D8886F020E4FD03E
:10305000040E9725A0D83DECC0F07FC09FF080C043
:10306000A0F0972998D83DECC0F07FC0A1F080C0B7
:10307000A2F0A1C06DF0A2C06EF09FC06FF0A0C022
:1030800070F0A3C071F0A4C072F0746BCEECA0F02D
:1030900028E201D026D0BCECA0F06C6B5ED808E32F
:1030A00001D006D069D804E301D002D0010E6C6FC4
:1030B0006C51000916E001D014D0C5ECA0F06C6B87
:1030C0004CD808E301D006D057D804E301D002D091
:1030D000010E6C6F6C51000904E001D002D0010EAA
:1030E000746F7451000905E165D8886F030E896F0C
:1030F00031D020EE3AF064D8020EDE18010ED8A4CA
:10310000000E9E6F9E5105E1A1C09AF0A2C09BF0F7
:1031100004D09FC09AF0A0C09BF020EE23F050D8BE
:103120009AC0DEFF9BC0DDFF9E5105E19FC09CF071
:10313000A0C09DF004D0A1C09CF0A2C09DF020EEE4
:1031400025F03ED89CC0DEFF9DC0DDFFA9ECFDF060
:1031500031D83BD8470EB3EFF7F020EE13F06751AC
:10316000D9266851DA22DE50655D6651800A6B6FA0
:10317000DE50800A6B59120020EE15F06751D926F7
:103180006851DA226551DE5CDE50800A6B6F665151
:10319000800A6B5912007F6F000E9821806F20EE1D
:1031A0001FF0A351D926A451DA22DECF81F0DDCF62
:1031B00082F0120097C0D9FF98C0DAFFDF501200EA
:1031C000A351D926A451DA2212000001886F896B1D
:1031D0001200939A8A9A1A0E0001816FF80EE82E57
:1031E000FED7812FFCD700F08A8A200E0001816F64
:1031F000290EE82EFED7812FFCD700D0C00E00018B
:10320000A0D8300EE9ECFDF0C00E9BD8370EE9ECEB
:10321000FDF0C00E96D8360EE9ECFDF0A3D83F0EB7
:103220007C6F300EE9ECFDF09DD83F0E7C6F370EC1
:10323000E9ECFDF097D8280E7C6F360EE9ECFDF036
:1032400066D8300EE9ECFDF062D8370EE9ECFDF0FF
:103250005ED8360EE9ECFDF06ED8300EE9ECFDF0EC
:103260006AD8370EE9ECFDF066D8360EE9ECFDF0D1
:103270006ED8300EE9ECFDF06AD8370EE9ECFDF0BF
:1032800066D8360EE9ECFDF0010E7E6F300ED9ECFB
:10329000FDF0010E7E6F370ED9ECFDF0010E7E6F52
:1032A000360ED9ECFDF03AD8300EE9ECFDF036D808
:1032B000370EE9ECFDF032D8360EE9ECFDF0826B0A
:1032C00034D8300EE9ECFDF030D8370EE9ECFDF0E3
:1032D0002CD8360EE9ECFDF0822B170E8265F0D764
:1032E000180E826F400E39D8300EE9ECFDF0400E1A
:1032F00034D8370EE9ECFDF0400E2FD8360EE9EC4D
:10330000FDF0822B9B0E8265EDD700F09B0CC00E6A
:103310007A6F040E7B6FEB0E7C6FEB0CC00E7A6F36
:10332000090E7B6F030E7C6F030C400E7A6F82C018
:103330007BF07C6B400CC00E7A6F010E7B6F7C6B58
:10334000010C7A6F060E7B6F020E7C6F020CC00EB2
:103350007A6F7B6B400E7C6F400C7A6F82C07BF083
:103360007C691200C00E7A6F050E7B6F050C8C0E07
:10337000F66EF60EF76E010EF86E06EEA4F010EE85
:1033800024F00900F5CFEEFFE550E150FAE1680EB8
:10339000F66EF60EF76E010EF86E05EECFF010EE3B
:1033A00024F00900F5CFEEFFE550E150FAE17C0E84
:1033B000F66EDB0EF76E010EF86E04EEB4F010EE52
:1033C00045F00900F5CFEEFFE550E150FAE1480E77
:1033D000F66E0E0EF76E000EF86E03EED6F010EEDF
:1033E00018F00900F5CFEEFFE550E150FAE1EE0EDE
:1033F000F66ED00EF76E010EF86E02EE85F010EE4E
:1034000051F00900F5CFEEFFE550E150FAE17C0EF6
:10341000F66E160EF76E000EF86E01EEF8F010EE76
:1034200006F00900F5CFEEFFE550E150FAE10CEEB1
:10343000FAF012EE0FF0EE6AE550E150FCE1E250D6
:10344000FAE10CEE00F0FA0EEE6AE806FDE10BEE92
:1034500000F0FA0EEE6AE806FDE10AEE00F0FA0E60
:10346000EE6AE806FDE109EE00F0FA0EEE6AE80603
:10347000FDE108EE00F0D50EEE6AE806FDE107EE8C
:1034800000F0FA0EEE6AE806FDE106EE00F0A40E8A
:10349000EE6AE806FDE105EE00F0CF0EEE6AE80602
:1034A000FDE104EE00F0B40EEE6AE806FDE103EE85
:1034B00000F0D60EEE6AE806FDE102EE00F0850EA1
:1034C000EE6AE806FDE101EE00F0E70EEE6AE806BE
:1034D000FDE10001FA6BF96BF86BF76BF66B5E6A56
:1034E00000EE32F02C0EEE6AE806FDE15F905F928E
:1034F000000166EFBBF0EE0E726F736BDFECE2F073
:1035000072C0EFF073C0F0F020EE02F0EF51D92658
:10351000F051DA22DFA00AD0E3C065F0E4C066F023
:10352000E5C067F0E6C068F035EC09F00001E8514D
:10353000E91108E0E8C0D9FFE9C0DAFFEFC0DEFF1B
:10354000F0C0DDFFEA51EB1106E0EAC0D9FFEBC0A5
:10355000DAFFEEC0DFFFEFC0D9FFF0C0DAFFDE50C8
:103560001FE1DE041DE1EE511BE020EE02F0EF5101
:10357000D926F051DA22DFB413D020EE02F0EF5159
:10358000D926F051DA22DFB60BD0E3C0D5F0E4C083
:10359000D6F0E5C0D7F0E6C0D8F0C9ECF7F0010CE2
:1035A000EFC0D9FFF0C0DAFFDE04DE1008E0EFC0A4
:1035B000D9FFF0C0DAFF020EDE18DE103DE1EE5159
:1035C00008E120EE02F0EF51D926F051DA22DFA413
:1035D000010C20EE02F0EF51D926F051DA22DFB2D1
:1035E000010CEFC0D9FFF0C0DAFFDE04DE100DE100
:1035F000DC69DB69E3C0DDF0E4C0DEF0E5C0DFF0EC
:10360000E6C0E0F0DFECF7F0010CEFC0D9FFF0C04E
:10361000DAFF020EDE18DE10D8A4010CDC6B010EFE
:10362000DB6FE3C0DDF0E4C0DEF0E5C0DFF0E6C054
:10363000E0F0DFECF7F0010CEFC0D9FFF0C0DAFFEB
:10364000800EDE18DE1018E1E75116E0EE51D8B416
:10365000010C20EE02F0EF51D926F051DA22DFB250
:10366000010CE3C0D5F0E4C0D6F0E5C0D7F0E6C069
:10367000D8F0AFECF9F0010C000CE5C0D9FFE6C0C2
:10368000DAFFDECFE7F0DDCFE8F0895107E1000196
:103690006E6B020EC8EC09F01EECDAF00001666BEE
:1036A000080E656FE7C067F0E8C068F065516719FC
:1036B00006E16651681901E002D0010E01D0000E4A
:1036C000000917E06E6B010EC8EC09F0DB0E7A6F93
:1036D000FF0E7B6F010E7C6F7D6F7E6BC0EC07F081
:1036E000010E0201896F0201866B876B1EECDAF016
:1036F00064D0666B040E656FE7C067F0E8C068F0E1
:103700006551671906E16651681901E002D0010EA2
:1037100001D0000E000916E06E6B010EC8EC09F036
:10372000C30E7A6FFF0E7B6F010E7C6F7D6F7E6B19
:10373000C0EC07F00201896B00016E6B020EC8EC51
:1037400009F0D1D7010E666F656BE7C067F0E8C07E
:1037500068F06551671906E16651681901E002D009
:10376000010E01D0000E000928E00101010EC3A1E5
:10377000000E020189190BE089B103D00101C39148
:1037800002D00101C38102018951E2EC0AF0E1C0DB
:10379000DDF0E2C0DEF0E3C0DFF0E4C0E0F022EEF6
:1037A0009BF001D80AD00500FA6EDE50FD6EDE50A7
:1037B000FE6EDE50FF6EFA50120002018951D8B43D
:1037C000120088510101C019D8B4120000016E6BBB
:1037D000020EC8EC09F047ECF2F065C07AF066C062
:1037E0007BF0010E7C6F020E7D6F7E6BC0EC07F0EC
:1037F0001EEFDAF0D5C0D9FFD6C0DAFF0001DFAE88
:10380000000C3EC065F03FC066F030ECFCF00009F3
:1038100001E1A8D0000E2EECE6F065C0DDF066C038
:10382000DEF020EE33F03E50D9263F50DA2210EE83
:1038300004F0DE50E126DD50E222E6CFDFF0E5CFF6
:10384000E0F0E56BE66B45D020EE0DF03E50D9265A
:103850003F50DA22DECFDBF0DDCFDCF0DD51E55D7D
:10386000656FDE51E659666FDFC067F0E0C068F053
:103870000EECFBF0DB516525E16FDC516621E26F58
:103880003EC0A5F03FC0A6F0E1C0A7F0E2C0A8F09E
:10389000D5ECB0F0A5C0E3F0A6C0E4F0C60E716FA1
:1038A000010E726F3CC073F03DC074F0E5C075F05E
:1038B000E6C076F0E3C077F0E4C078F0000E7A6FEF
:1038C000796F92C17BF093C17CF004ECB5F0E54BCD
:1038D000E62B3C50E55DE651800ADB6F3D50800AE7
:1038E000DB59B2E3E56BE66B2AD03EC0A7F03FC0E0
:1038F000A8F0D890E535D96EE635DA6EC60ED92631
:10390000010EDA22DECFA9F0DDCFAAF0A9ECADF0EE
:10391000D890E535D96EE635DA6E520ED926020E0C
:10392000DA22DECFDBF0DDCFDCF0DBC0D9FFDCC09C
:10393000DAFFA7C0DEFFA8C0DDFFE54BE62B3C5059
:10394000E55DE651800ADB6F3D50800ADB59CDE32F
:10395000D7C0CFF0D8C0D0F0D9C0D1F0DAC0D2F003
:10396000A7ECEBF0010C9E519A5D9F519B59A05121
:103970009C59A1519D590AE3000E836F1E0E9ED8DB
:103980007B0E866FFE0E876F4FECFAF0A2C0D9FF58
:10399000A3C0DAFFDE50DE10DE100BE1000E0001E6
:1039A000836F1F0E8BD8130E866FFE0E876F4FEC42
:1039B000FAF0000120EE03F087D80AE1000E836FD1
:1039C000200E7CD8620E866FFE0E876F4FECFAF0E9
:1039D000000120EE06F078D80AE1000E836F210E78
:1039E0006DD82E0E866FFE0E876F4FECFAF0000139
:1039F00020EE09F069D80AE1000E836F220E5ED82E
:103A0000DB0E866FFD0E876F4FECFAF09AC097F3CE
:103A10009BC098F39CC099F39DC09AF3B20E03012A
:103A20009B6F150E9C6F010E9D6F9EC07DF09FC019
:103A30007EF0A0C07FF0A1C080F09AC081F09BC052
:103A400082F09CC083F09DC084F0DAECD5F07DC09C
:103A500004F27EC005F27FC006F280C007F2A2C069
:103A60007AF1A3C07BF10101786B796B0201006BE5
:103A7000016B026B036B000E0101BC25366E020E5A
:103A8000BD21376E000E0001936F0B0E946F966B85
:103A9000FA0E956F010120EE09F07A51D9267B517B
:103AA000DA22DECF97F0DECF98F0DDCF99F032EC5E
:103AB000EDF0970E9A6F030E9B6F1200826FAB0EA4
:103AC000846FFE0E856F1200A251D926A351DA220F
:103AD000DE50DE10DE101200730E7C6F8BD0250ED0
:103AE000811904E08151A7EC0BF084D07A6B27D0C8
:103AF0007C51D96EDA6ADECF7DF0DDCF7EF0020E2A
:103B00007C277D517E1111E10C0E7D6FFF0E7E6FC3
:103B10000CD08CD8F76403D00800F55001D080D8C1
:103B2000A7EC0BF000017D4B7E2B80D8F76403D00F
:103B30000800F55001D074D800095CE0EAD77ED8BF
:103B400066D8D8B41200640A05E00D0A03E01A0A28
:103B5000CFE050D07C51D96EDA6ADECF7FF0DDCF76
:103B600080F0020E7C2780AF06D0030E7A137F6DA3
:103B7000801FD8B0802B010E816F815141D849EC54
:103B8000C5F00900F5507F5D0900F550805904E348
:103B9000812B050E8119F1E17AC079F0030E7917B6
:103BA00003E02D0EA7EC0BF081C07BF01FD07B5102
:103BB00027D849ECC5F00900F5CF67F00A00F5CF2A
:103BC00068F07FC065F080C066F016ECECF065C070
:103BD0006CF066C06DF06F6B0A0E6E6F36ECF1F034
:103BE0006C51300F816F8151A7EC0BF000017B0706
:103BF0007B29DDE123D800010AD801E070D712004B
:103C0000020D610EF324F66EFC0EF4201200714BCF
:103C1000722B000EF86E0800F5CF81F08151120072
:103C2000F6CFE9FFF7CFEAFFEF5012007DC0F6FFB5
:103C30007EC0F7FF000EF86E0F0E120071C0F6FF87
:103C400072C0F7FF12006651D96EDA6ADECF76F0E5
:103C5000DDCF77F06651F9ECAEF0DECF6BF0DDCF63
:103C60006CF020EE05F095D8676F6705706F060E53
:103C7000706501D0010C20EE06F08BD8716F060E36
:103C8000716501D0010C70517F0D74D86B25696F7F
:103C900068516C216A6F020E69256E6F000E6A21F1
:103CA0006F6F070E6E25736F000E6F21746F20EE1D
:103CB00005F06E51D9266F51DA2271C0DFFF070E71
:103CC000756F6D6B3CD0726B4ED8DF50786F752B73
:103CD000060E786501D0010C39D8692960D878C002
:103CE000DFFF7851140D46D87325D96E68517421C1
:103CF000DA6E70C0DFFF09D036D828D87251692734
:103D0000000E6A23030E3CD8722B2DD8DF5003E03F
:103D10000E0E7265F1D70F0E726501D0010C16D828
:103D2000020E69253CD872C0DFFF752B1CD80ED857
:103D3000120E26D818D80AD8130E22D86D2B71511E
:103D40006D5DC1E3080EFAECFFF0000C7851140D24
:103D5000F3CF67F0F4CF68F067517325696F68514E
:103D600074216A6F120075517625D96E000E772185
:103D7000DA6E1200F3CF67F0F4CF68F067511200EB
:103D80006925E16E000E6A21E26EDFCFE7FF752B39
:103D900012007651D9267751DA22DF501200D96EFF
:103DA000000E6A21DA6E12007051BAEC97F0030E21
:103DB000DF6E7051D96EDA6ADECF71F0DDCF72F04E
:103DC00071C0D9FF72C0DAFF1B0EDF6E7051BAEC02
:103DD00097F078D8510EDF6E7051BAEC97F0DF2A69
:103DE0007051BAEC97F06ED8DF6A7051BAEC97F068
:103DF000DF2A7051BAEC97F065D8DF687051BAECE1
:103E000097F07AD870C06BF014EC98F0686B0CECFB
:103E100098F003E008D001D006D0682B050E686545
:103E2000F6D701D0F4D76F6BECEC97F0E3EC97F09A
:103E3000FBEC97F06F2B050E6F65F6D701D0F4D72A
:103E40006B51BAEC97F0BFEC97F0BAEC97F0D3EC6B
:103E500097F0E8EC97F0BAEC97F0DF2A6B51BAECE8
:103E600097F0D3EC97F008EC98F0BAEC97F0DF2AD3
:103E70007051BAEC97F026D8010EDF6E7051BAEC93
:103E800097F0DF2A7051BAEC97F01CD8640EDF6E01
:103E90007051BAEC97F0DF2A705124D8A6ECA9F043
:103EA000E76A705124D8A6ECA9F07051BAEC97F0EB
:103EB000DF50FD0FE76E7051BAEC97F0640EDF60D3
:103EC000010C000CDF50716F7051D96EDA6ADECFD1
:103ED00072F0DDCF73F071517225D96E000E73212F
:103EE000DA6E1200D96EDA6A10EE01F01200D96EA5
:103EF000DA6A10EE02F01200DF2ABEC169F0BFC11B
:103F00006AF0120020EE38F097D8DFAE16D020EE1F
:103F100039F092D8DFB211D077D8DA5D9CD8DB596E
:103F200090D8DC5993D8DD597BD891C0D6F192C096
:103F3000D7F193C0D8F194C0D9F120EE39F07CD8F4
:103F4000DFA216D020EE38F077D8DFBE11D05CD8D3
:103F5000D65D81D8D75975D8D85978D8D95960D86D
:103F600091C0DAF192C0DBF193C0DCF194C0DDF1D5
:103F700055500101DA5D5A6F5650DB595B6F57504F
:103F8000DC595C6F5850DD595D6F5AC17DF05BC1E3
:103F90007EF05CC17FF05DC180F02C0E0001816F6E
:103FA000010E61ECB0F037ECB9F07DC05AF17EC083
:103FB0005BF17FC05CF180C05DF155500101D65DC1
:103FC000566F5650D759576F5750D859586F585049
:103FD000D959596F56C17DF057C17EF058C17FF055
:103FE00059C180F0D40E0001816FFE0E826F83698B
:103FF000846937ECB9F07DC056F17EC057F17FC0BF
:1040000058F180C059F11200D89055348D6F563454
:104010008E6F57348F6F5834906F8D51010112009D
:104020000001946F911F921F931F941F912B000EFC
:10403000922393239423000C8B51D9268C51DA229E
:1040400012000001926F8F51010112000001936F65
:104050009051010112000001916F8E510101120077
:1040600085D85DECEBF067C09DF068C09EF0000164
:104070009D519E1104E17AD8886F020E50D0972985
:1040800066D83DECC0F07FC099F080C09AF0040E75
:1040900097255DD83DECC0F07FC09BF080C09CF0C0
:1040A00099C06DF09AC06EF09BC06FF09CC070F02C
:1040B0009DC071F09EC072F0746B70D82AE201D07E
:1040C00028D05AD86C6BADEC98F009E301D007D03A
:1040D000BCEC98F004E301D002D0010E6C6F6C517F
:1040E000000917E001D015D050D86C6BADEC98F0FA
:1040F00009E301D007D0BCEC98F004E301D002D072
:10410000010E6C6F6C51000904E001D002D0010E69
:10411000746F7451000905E129D8886F030E896F07
:1041200013D020EE27F043D899C0DEFF9AC0DDFF00
:1041300020EE29F03CD89BC0DEFF9CC0DDFFA9EC3F
:10414000FDF014D8E5EC98F04B0EB3EFF7F07F6F6D
:10415000000E9821806F20EE1FF09D51D9269E51B0
:10416000DA22DECF81F0DDCF82F0120097C0D9FFD6
:1041700098C0DAFFDF5012006DC065F06EC066F0C7
:1041800071C067F072C068F012006FC065F070C057
:1041900066F071C067F072C068F012006F516D5D1B
:1041A0006E51800A736F7051800A735912009D51CD
:1041B000D9269E51DA221200A1D8DE6ADD6A6CC0CF
:1041C00065F06DC066F07B0E676F79ECE4F065C05A
:1041D00080F066C081F080C065F081C066F06CC080
:1041E00067F06DC068F07DD865C079F066C07AF080
:1041F0007951705D7A51715901E21200030E746FAA
:10420000756B8051745F8151755B7DD87451DE266A
:104210007551DD2273D8DFCF74F0DE2ADFCF75F061
:10422000000EDD2270D8DECF76F0DDCF77F074514E
:104230007625D96E75517721DA6EAA0EDF6E7E6B08
:104240007F6B21D07E517B0FD96EDA6A72C0E1FF9D
:1042500073C0E2FFE7CF74F0E62AE7CF75F0000EF7
:10426000E5226EC0E1FF6FC0E2FFE6CF76F0E5CF5A
:1042700077F074517625E16E75517721E26EDFCFCC
:10428000E7FF7E4B7F2B80517E5D81517F59DAE3C2
:1042900035D86C51DE266D51DD2235D8DECF65F084
:1042A000DDCF66F02BD8DECF67F0DDCF68F036ECDF
:1042B000F8F0746F23D8DECF75F0DDCF76F023D819
:1042C000DECF77F0DDCF78F075517725D96E765156
:1042D0007821DA6E74C0DFFF11D8DE2A000EDD22ED
:1042E000000C67516525696F685166216A6F020E7F
:1042F0006925656F000E6A21666F120072C0D9FFD2
:1043000073C0DAFF12006EC0D9FF6FC0DAFF12006F
:10431000ADECE6F0B0C0DDF0B1C0DEF0D890010148
:104320009035D96E9135DA6EC60ED926010EDA2295
:10433000DECFDBF0DDCFDCF00001D551DB25DF6F18
:10434000D651DC21E06FC60E716F010E726F3CC05A
:1043500073F03DC074F090C175F091C176F0DFC08C
:1043600077F0E0C078F0DDC079F0DEC07AF092C17D
:104370007BF093C17CF004ECB5F0E16FE1512CE1EE
:104380003EC0A7F03FC0A8F0D89001019035D96E8B
:104390009135DA6EC60ED926010EDA22DECFA9F0EB
:1043A000DDCFAAF0A9ECADF0D89001019035D96E1F
:1043B0009135DA6E520ED926020EDA22DECFDBF00C
:1043C000DDCFDCF0DBC0D9FFDCC0DAFF0001A7C025
:1043D000DEFFA8C0DDFF36D0E26BE36B2AD03EC023
:1043E000A7F03FC0A8F0D890E235D96EE335DA6E79
:1043F000C60ED926010EDA22DECFA9F0DDCFAAF053
:10440000A9ECADF0D890E235D96EE335DA6E520EF4
:10441000D926020EDA22DECFDBF0DDCFDCF0DBC006
:10442000D9FFDCC0DAFFA7C0DEFFA8C0DDFFE24B8A
:10443000E32B3C50E25DE351800ADB6F3D50800A84
:10444000DB59CDE389ECFAF0D7C0CFF0D8C0D0F07B
:10445000D9C0D1F0DAC0D2F0A7EFEBF0010E5AECE0
:10446000F0F08DECFFF0000902E01EEFDAF016EC40
:104470000BF0000904E077ECD0F01EEFDAF0000159
:10448000CB6BCC6B76D0D890CB35D96ECC35A5EC38
:10449000E2F0DECFCDF0DDCFCEF0000120EE33F044
:1044A00076D8DECFC9F0DDCFCAF0C9C0D9FFCAC007
:1044B000DAFFDF50FCECE7F0CDC065F0CEC066F06F
:1044C00030ECFCF0000943E0CDC067F0CEC068F0EE
:1044D0008AECF8F0000907E0CDC084F0CEC085F08A
:1044E000F2ECB9F043D0000120EE3CF050D8DFA24E
:1044F00012D020EE3BF04BD8DFB60DD00101C551F4
:1045000035E1CDC0B9F0CEC0BAF0AEECFEF044D883
:10451000E1ECEDF02BD0CDC067F0CEC068F0AFEC91
:1045200006F0000907E0CDC084F0CEC085F0D5ECE0
:10453000C2F01CD0000120EE3BF029D8DFA2E1D769
:10454000CDC0BBF0CEC0BCF055ECE7F00FD0CDC075
:1045500065F0CEC066F01EECFCF0000904E11CD84A
:10456000E1ECEDF003D00101C551B6E10001CB4B08
:10457000CC2B0101B6510001CB5DCC51800AC96F33
:10458000ACECE2F0C95901E27ED71EEFDAF0CD5172
:10459000D926CE51DA221200CDC0BBF0CEC0BCF07D
:1045A000120020EE33F072D810EE09F0A6ECA9F05C
:1045B000E650E610E61044E020EE0BF067D86BD82A
:1045C00065D88CD876D85ED8A6ECA9F0E7509F6F56
:1045D000A06B20EE33F05AD810EE09F0A6ECA9F04B
:1045E00001D80AD00500FA6EE650FD6EE650FE6E68
:1045F000E650FF6EFA50120020EE0DF047D869D851
:1046000020EE0BF043D847D841D868D8A06B020EF3
:104610009F6F20EE33F03AD810EE09F0A6ECA9F027
:1046200001D80AD00500FA6EE650FD6EE650FE6E27
:10463000E650FF6EFA50120020EE0FF027D849D056
:1046400020EE0BF023D82ED821D839D832D81AD85A
:10465000A6ECA9F0E7507D6F7E6B1FECCCF020EE4E
:104660000DF014D831D820EE0BF010D81BD80ED88E
:1046700026D87E6B020E7D6F1FECCCF020EE0FF083
:1046800005D822D0DA2210EE03F01200A351D92669
:10469000A451DA221200DECF9BF0DDCF9CF020EE99
:1046A0001FF01200DECF79F0DDCF7AF020EE1FF0A0
:1046B000120020EE36F0A351D926A4511200DECF0D
:1046C0007BF0DDCF7CF0120079C0DEFF7AC0DDFF29
:1046D00012009BC0DEFF9CC0DDFF1200DECF9DF00C
:1046E000DDCF9EF012000001D751070ED8A4090EAD
:1046F0003A24DC6F000E3B20DD6FDCC0F6FFDDC02E
:10470000F7FF000EF86E0900F5CFDFF00A00F5CFD5
:10471000E0F08EC165F08FC166F03AC0F6FF3BC095
:10472000F7FF01D80DD00500FA6E0900F550FD6EB7
:104730000900F550FE6E0900F550FF6EFA501200A8
:1047400065C0E1F066C0E2F0E1C0D9FFE2C0DAFF87
:10475000DECFDCF0DDCFDDF0D5C065F0D6C066F091
:10476000DFC067F0E0C068F00EECFBF0DC516525BF
:10477000E36FDD516621E46F030E3A24DC6F000E17
:104780003B20DD6FDCC0F6FFDDC0F7FF000EF86EEA
:104790000900F550E35DE451800ADE6F0900F55031
:1047A000800ADE5902E2030E18D0050E3A24DC6FAF
:1047B000000E3B20DD6FDCC0F6FFDDC0F7FF000E12
:1047C000F86EE3510900F55C0900F550800ADE6FD0
:1047D000E451800ADE5912E2050E3A24DC6F000E25
:1047E0003B20DD6FDCC0F6FFDDC0F7FF000EF86E8A
:1047F0000900F5CFE3F00A00F5CFE4F0E1C0D9FFFE
:10480000E2C0DAFFE3C0DEFFE4C0DDFFD8C0CFF0D6
:10481000D9C0D0F0DAC0D1F0DBC0D2F0A7EFEBF016
:10482000246A256A266A24C001F025C002F02A0EF7
:104830002624D96EDA6A010EDA22DF50036E9BEC71
:10484000EDF001C024F002C025F0262A0D0E2664EA
:10485000EAD7245025107BE12BC127F02EC12BF184
:1048600027C02EF12CC127F02DC12CF127C02DF12E
:104870002BC101F02CC102F02DC103F02EC104F0B8
:104880004EECE8F001C02BF102C02CF103C02DF179
:1048900004C02EF1056A066AC80E076E420E086E45
:1048A0002BC101F02CC102F02DC103F02EC104F088
:1048B000BAEC84F001C01AF002C01BF003C01CF077
:1048C00004C01DF08FECC6F01AC076F11BC077F162
:1048D00030C127F033C130F127C033F131C127F0A7
:1048E00032C131F127C032F130C101F031C102F0E3
:1048F00032C103F033C104F04EECE8F001C030F1F6
:1049000002C031F103C032F104C033F1056A066A16
:10491000C80E076E420E086E30C101F031C102F0C0
:1049200032C103F033C104F0BAEC84F001C01AF0D4
:1049300002C01BF003C01CF004C01DF08FECC6F0D9
:104940001AC074F11BC075F101019E6B04D0010EF9
:1049500001019E6F00F000F012000001686F5FD04F
:10496000420E656F170E666F000E676F1200940E91
:10497000656FC00E666F010E676F1200160E656FD1
:10498000110E666F000E676F1200E20E656FFE0E6D
:10499000666F010E676F1200160E656FE40E666F8C
:1049A000010E676F1200040E656FEC0E666F010E4C
:1049B000676F1200C40E656FE70E666F010E676FBA
:1049C0001200340E656FC00E666F010E676F120025
:1049D000E20E656FDD0E666F010E676F1200900EBE
:1049E000656F0E0E666F000E676F1200DA0E656F50
:1049F000FF0E666F010E676F12008C0E656FE70E7B
:104A0000666F010E676F1200060E656F850E666F8A
:104A1000010E676F1200656B666B676B1200000119
:104A200068519EE0010AA3E0030A9AE0010AA6E0A9
:104A3000070AA4E0140A94E0080A92E0380A90E019
:104A4000610A9CE0030A9AE0010A9FE0070AA4E0D9
:104A5000010AA9E0030AAEE0010AB3E00E0AB8E0D9
:104A6000030AB6E0010AADE01A0ACEE0310AC5E059
:104A7000010A92E0100AC1E0F10A80E0030AAFE007
:104A8000070AADE0140AB9E0010AB7E0030AAEE094
:104A9000C2D768C065F069C066F0CCECFEF06E6FFE
:104AA000736B0101BBA50BD0000120EE3BF06851F8
:104AB000D9266951DA22DFA602D0010E736F73C0C6
:104AC0006FF068C065F069C066F0BDECFEF0706F15
:104AD0006FD8DFB0010E716F6BD8DFB2010E726F4D
:104AE000746B756B44D0D8907435D96E7535A5EC60
:104AF000E2F0DECF76F0DDCF77F076C065F077C0FC
:104B000066F01EECFCF0000930E06F5112E03BD87B
:104B1000DFA80FD06A5174190BE16B51751908E1C8
:104B200020EE3CF07651D9267751DA22DF8001D091
:104B300037D868C065F069C066F01EECFCF000096B
:104B400014E06E5103E01FD8DFB02AD8705103E0A3
:104B50001AD8DFB225D8715103E015D8DFB420D8B8
:104B6000725103E010D8DFB61BD8744B752B0101CE
:104B7000B6510001745D7551800A6C6FACECE2F0C7
:104B80006C59B1E312006A5176256C6F6B51772135
:104B90006D6F500E6C25D96E000E6D21DA6E12000D
:104BA00020EE3CF07651D9267751DA22DF821200CE
:104BB00020EE38F06851D9266951DA22000C270E10
:104BC0007DD8B2C0D9FFB3C0DAFF7ED8250EB0259C
:104BD000B66F6ED864D8BD6B030EBC6F20EE22F0AA
:104BE0007ED8DF5015E0BD6B040EBC6F20EE3AF0AE
