:102000002DEF10F0FFFFFFFF0182ADEF43F0FFFF68
:10201000FFFFFFFFFFFFFFFF0180D8CF60F0E8CF99
:1020200061F0E0CF62F0D9CF63F0DACF64F09DB811
:102030009EA802D082EC88F0A3B8A4A802D004EC39
:1020400087F064C0DAFF63C0D9FF62C0E0FF61C0FF
:10205000E8FF60C0D8FF019010002FEF2FF0007450
:102060002301C01D01A81D018AAA00A4C7002E23B8
:1020700001D6DB006623015823014A23013C2301DA
:102080002023011223010423012C2401C4EA007738
:102090007C585E79716F760600003800545C7300DE
:1020A000506D781C0000006E00777C395E79716F8E
:1020B000760600003800373F7300506D783E000010
:1020C000006E00303132333435363738396162636F
:1020D000646566003F065B4F666D7D077F67051090
:1020E0002030406080A0FF6E67C579DD61021A5420
:1020F00021010A00060E0A003C00000064210100D4
:1021000000580201000A005824000000000000E608
:102110008C00D02F00B22501382001FA640054074A
:1021200001AE250100000082DF0032990044240145
:10213000000000D6E700908A00502401000000D67D
:10214000E700908A00B62501000000402201A87F28
:102150000000000000000084E600F0A9000000007C
:102160000000006AD8008E9A000000000000009273
:102170002501BACB000000000000008E2501F8A464
:1021800000AA02019138616C6C506F6442756666FA
:102190006572735B504F445F4255464645525F52ED
:1021A000585D20213D204E554C4C00616C6C506FA9
:1021B00064427566666572735B504F445F42554674
:1021C0004645525F54585D20213D204E554C4C00F1
:1021D0006F75744361706163697479203E20444176
:1021E00054414752414D5F4D494E5F4F564552480D
:1021F00045414400417373657274696F6E20666176
:10220000696C65643A202573202825733A2025736C
:102210003A202564290A00636F6E6669672D3E7354
:1022200061766553657474696E677320213D204E35
:10223000554C4C00636F6E6669672D3E70726F7609
:1022400069646553697A6520213D204E554C4C00E8
:102250007372632F447269766572732F506F647363
:10226000436861696E556172742E6300636F6E66B8
:1022700069672D3E777269746542797465732021B0
:102280003D204E554C4C00636F6E6669672D3E7263
:10229000656164427974657320213D204E554C4C34
:1022A000007372632F506F6473436861696E2F50BF
:1022B0006F6473436861696E2E6300777269746539
:1022C000506572696F64203E207461736B50657253
:1022D000696F6400636F6D6D756E696361746557D6
:1022E000697468506F6473436861696E00696E70E9
:1022F000757453697A65203E3D2076616C7565532F
:10230000697A6500736574506F6473436F6D6D73A4
:1023100041747472696275746573007372632F54CB
:1023200061736B732F526164696F5461736B2E63B9
:10233000007372632F526164696F2F566172496E28
:10234000742E63007372632F526164696F2F526140
:1023500064696F2E630070726F636573735261649A
:10236000696F427974657300706F6473556172743C
:1023700020213D204E554C4C00526164696F5461E0
:10238000736B5F496E697400636861696E20213DFB
:10239000204E554C4C00696E6974506F64734368ED
:1023A00061696E006465636F6465566172496E743D
:1023B00000382E382E382E382E00302E324C4F005A
:1023C000414C2E484900414C2E4C4F0048454C5042
:1023D00000303030300031313131003232323200B1
:1023E0003333333300343434340035353535002D50
:1023F0002D2D2D006572723100657272320065728A
:1024000072330065727234006572725500446174F3
:102410006100636F6E6E0050726F7500504831300E
:1024200000504820340050482037004641494C00B5
:102430004F4F4F4F0050415353004550742D004EA5
:1024400047452E002D41434300436F6E66006E6387
:102450006E6F006275737900636F6E7400372E3192
:102460000046414300644546006F66660043414CA8
:102470000043484100506F6400457272004F464669
:10248000002575006F6E00627200454C004F5200CF
:102490005552006E63004943007264007048002A80
:1024A00043002A4600454300380000FF01018A51DD
:1024B0008B1170E1680E00019C6F230E9D6F500E12
:1024C0009E6F220E9F6F010EA16F7C0EA06FD40E27
:1024D000A26F220EA36F88EC84F05CD08AC1A1F0B9
:1024E0008BC1A2F000013EDADFA005D001D003D0FD
:1024F00039DADF904FD0A1C06CF0A2C06DF0000EB1
:10250000C8EC91F06CC068F06DC069F0000120EE7D
:10251000CCF06C51D9266D51DA22DF50050F6A6F6D
:10252000FBEC82F0E3EC79F0A1C065F0A2C066F0AC
:10253000000120EECCF0A151D926A251DA22DECF43
:1025400067F0DDCF68F06D6B050E67256B6F000ED1
:1025500068216C6F11D06B516525D96E6C51662165
:10256000DA6E6D516525E16E000E6621E26EDFCFF9
:10257000E7FF6D2B6B4B6C2BEED9DF50696F6A6BED
:1025800069516B5D6A516C59E6E301D0E4D7E3D938
:102590006DC0DFFF8AC179F08BC17AF033D020EEB5
:1025A000CFF07951D9267A51DA2201D80AD0050024
:1025B000FA6EDE50FD6EDE50FE6EDE50FF6EFA509B
:1025C00012007B6FD6D9DF507C6F7C517925D96E94
:1025D000000E7A21DA6E7BC0DFFFCBD910EE64F0FB
:1025E0007951E1267A51E222E7507B6F7B29656FB2
:1025F000666B000E6623686B640E676F38EC6BF0D9
:102600006551DF6E79C065F07AC066F0000120EE9A
:10261000CAF06551D9266651DA22DECF67F0DDCFE8
:1026200068F067C0D9FF68C0DAFFDF500009B7E182
:1026300001D0B5D779C065F07AC066F016D0696B65
:102640000CD05AD969516525E16E000E6621E26E03
:10265000DFCFE7FF51D9DF6A692B5AD9DE50695DB8
:10266000F0E301D0EED754D9DF0665C0D9FF66C0CC
:10267000DAFF1B0EDE1807E001D005D049D9DF5084
:10268000DEE101D0DCD779C072F07AC073F020EEC1
:1026900064F02DD9030EDF6004D001D002D0000E0B
:1026A000AFD072C0D9FF73C0DAFF1B0EDE1803E093
:1026B000F6D701D0F4D720EE02F019D9DF50746FAD
:1026C00020EE01F014D9DF50766F7451756F08D980
:1026D00075C0DEFF76C0DDFF03D9DECF74F0DDCF3D
:1026E00075F0060E7425776F000E7521786F20EE59
:1026F00064F0FDD8DF50746F756B7751745D78515D
:10270000755903E2CCD701D0CAD7EAD8010EDB5005
:1027100005E15D0EDE5C10E301D00ED036D900017C
:10272000676BA1EC3BF0672B630E6765FAD701D0AE
:10273000F8D7A9EC3BF0B3D772C06CF073C06DF062
:10274000CFD8DF50050F6E6F706B716B010E6F6F1E
:1027500039D0700E656F6F516C25D96E000E6D21EA
:10276000DA6EDF50666F6651676F686B67C068F03E
:10277000676B6551D96EDA6A6751DE1A6851DD1AE6
:10278000080E6B6FE0D868AF14D001D012D0DBD840
:10279000D89067376837210E6719696F100E68196E
:1027A0006A6F6551D96EDA6A69C0DEFF6AC0DDFF03
:1027B00003D0655162EC27F06B076B51E3E101D068
:1027C000E1D76F2B6E516F5DC4E301D0C2D770515A
:1027D000711101E002D0010E01D0000E00090FE1DD
:1027E00001D00DD0D2D80001676BA1EC3BF0672B74
:1027F000630E6765FAD79DD7F8D79BD750D7010EE0
:10280000000901E06BD68AC165F08BC166F087D8FC
:10281000DFA213D001D011D020EECEF087D8DFCFC9
:1028200067F0DF2A0F0E676508D001D006D077D891
:10283000DF9220EECEF07AD8DF6A71D8DFB201D015
:1028400002D0010E01D0000E000949E11DEC86F016
:102850000101A45142E042EC85F000016C6B16D0FE
:10286000000E6C25D96EDA6A070EDA226C5101016E
:102870008A2500016A6F84D86B6F650E6A25E16E48
:10288000000E6B21E26EDFCFE7FF6C2B47506C5DD3
:10289000E7E301D0E5D753D89CEC3BF047C0DFFF1E
:1028A000650E8A250001666F6BD8676F47C068F0B8
:1028B00042D89CEC3BF001D80AD00500FA6EDE50FD
:1028C000FD6EDE50FE6EDE50FF6EFA50120037D8FD
:1028D0009CEC3BF0DF6AA46B010C97EC73F0010CED
:1028E00020EECCF07251D9267351DA2212007251C7
:1028F000D9267351DA22120069516525676F000EDF
:102900006621686F6729D96E000E6821DA6E1200A1
:1029100020EE64F06551D9266651DA22120020EECD
:10292000D2F06551D9266651DA2212006551D926B6
:102930006651DA221200010120EED3F012000101EB
:1029400020EEC9F012006551D96EDA6ADECF67F069
:10295000DDCF68F0120020EE64F06551D926665193
:10296000DA22120020EED2F0A151D926A251DA22A9
:10297000120020EE64F07951D9267A51DA22120041
:10298000000E01018B210001120072C065F073C0BE
:1029900066F01200826B836B7A51D96EDA6ADECFF1
:1029A000F6FFDDCFF7FF000EF86E0800F550250AA0
:1029B00001E09AD17A51D96EDA6ADE2A000EDD2260
:1029C0007A51D96EDA6ADECF84F0DDCF85F084C02B
:1029D000F6FF85C0F7FF000EF86E0800F550640A98
:1029E0000AE084C0F6FF85C0F7FF000EF86E08000D
:1029F000F550690A72E17BC0D9FF7CC0DAFF020E94
:102A0000DF26DF5CD96EDA6ADECF86F0DECF87F0B4
:102A100084297D6F000E85217E6F7A51D96EDA6A26
:102A20007DC0DEFF7EC0DDFF200E8A6F010E87AF06
:102A3000000E816F8A07320E8A25D96EDA6A050E7A
:102A4000DA2286C065F087C066F0686B0A0E676F91
:102A500038EC6BF065C06BF066C06CF079EC8DF013
:102A60006B51300FDF6E86C071F087C072F0746BEF
:102A70000A0E736FE5EC62F071C086F072C087F0E9
:102A8000824B832B8651871102E08A51D3E18A5110
:102A90001CE081511AE08A07320E8A25D96EDA6A63
:102AA000050EDA222D0EDF6E824B832B0ED0320EF6
:102AB0008A25D96EDA6A050EDA22DF50656F666BF9
:102AC00079C067F048EC64F08A2B200E8A19EFE198
:102AD00082C079F083C07AF0120084C0F6FF85C00E
:102AE000F7FF000EF86E0800F550750A60E17BC034
:102AF000D9FF7CC0DAFF020EDF26DF5CD96EDA6A0E
:102B0000DECF86F0DECF87F084297D6F000E852131
:102B10007E6F7A51D96EDA6A7DC0DEFF7EC0DDFF3E
:102B20003CD0200E8A6F8A07320E8A25D96EDA6A67
:102B3000050EDA2286C065F087C066F0686B0A0E63
:102B4000676F07EC7FF06551300FDF6E86C065F070
:102B500087C066F0686B0A0E676F51EC79F065C04C
:102B600086F066C087F0824B832B8651871111E077
:102B70008A510FE0D8D7320E8A25D96EDA6A050E4F
:102B8000DA22DF50656F666B79C067F048EC64F05D
:102B90008A2B200E8A199CE0EED784C0F6FF85C0F0
:102BA000F7FF000EF86E0800F550750ABAE0816B69
:102BB0007A51D96EDA6ADECFF6FFDDCFF7FF000E6D
:102BC000F86E0800F550730A09E17A51D96EDA6A95
:102BD000DE2A000EDD22010E816F3CD07A51D96EC3
:102BE000DA6ADECFF6FFDDCFF7FF000EF86E0800E1
:102BF000F5506C0A2FE17A51D96EDA6ADECF7DF09A
:102C0000DDCF7EF07D2B000E7E237DC0F6FF7EC0E3
:102C1000F7FF000EF86E0800F5506C0A1BE17A51C0
:102C2000D96EDA6ADECF7DF0DDCF7EF0020E7D2731
:102C3000000E7E237DC0F6FF7EC0F7FF000EF86E0B
:102C40000800F550730A06E17A51D96EDA6A030E6C
:102C5000DE26BFD781513FE07BC0D9FF7CC0DAFFC1
:102C6000020EDF26DF5CD96EDA6ADECF7FF0DECFC0
:102C700080F01CD07FC0F6FF80C0F7FF000EF86E1A
:102C80000F0EF76403D00800F55005D0F6CFE9FF2A
:102C9000F7CFEAFFEF500001656F666B79C067F010
:102CA00048EC64F0824B832B7F4B802B7FC0F6FF78
:102CB00080C0F7FF000EF86E0F0EF76403D0080017
:102CC000F55005D0F6CFE9FFF7CFEAFFEF50000946
:102CD00001E1FED6CFD77A51D96EDA6ADE2A000E2C
:102CE000DD22796B7A6B12007A51D96EDA6ADECF07
:102CF000F6FFDDCFF7FF000EF86E0800F550656FA8
:102D0000666B79C067F048EC64F07A51D96EDA6A84
:102D1000DE2A000EDD227A6B010E796F010C4AC2A9
:102D2000D9FF4BC2DAFF01D80AD00500FA6EDE5097
:102D3000FD6EDE50FE6EDE50FF6EFA50120065C072
:102D4000CEF366C0CFF30301CE51CF1138E00101BD
:102D50006E510301CE1933E101016F510301CF1907
:102D60002EE1800E0001676F080E686F6A6B800E9F
:102D7000696F020120EE03F01BD901D80AD00500CB
:102D8000FA6EDE50FD6EDE50FE6EDE50FF6EFA50C3
:102D9000120067C0CCF368C0CDF3800E0101DA6F7A
:102DA000080EDB6FCCC3DCF1CDC3DDF1000EDE6FAE
:102DB000080EDF6FE16B800EE06FF0EC37F0CEC3F2
:102DC0006EF1CFC36FF127C26EF028C26FF029C237
:102DD00070F02AC271F00201272B000E282329234C
:102DE0002A236EC065F06FC066F070C067F071C0D6
:102DF00068F02BC269F02CC26AF02DC26BF02EC2B3
:102E00006CF0D1EC6BF0655166116711681101E04F
:102E100002D0010E01D0000E00093CE0000E0301BB
:102E2000D06F080ED16FD00E0001826F030E836F3A
:102E3000856B800E846FD20E866F030E876F77ECE2
:102E400089F0D0C366F0D1C367F0D2C368F0D3C3B2
:102E500069F0020120EE06F0ABD801D80AD00500D7
:102E6000FA6EDE50FD6EDE50FE6EDE50FF6EFA50E2
:102E70001200010191D8DFA606D001D004D08CD871
:102E8000DF968AD8DF8A705104E001D002D07181C8
:102E900001D07191010180D8DFAA20D001D01ED0CD
:102EA00020EE02F080D88FD8DD22DD52DD52030EF5
:102EB000DB500BE1020EDB5008E1010EDB5005E1B7
:102EC0000A0EDE5C0BE301D009D066D8DF8864D837
:102ED000DF9A20EE02F067D80BEC75F00001656B0D
:102EE0000101705109E001D007D071A105D001D0D6
:102EF00003D0010E0001656F0001655100094BE030
:102F000001D0010C5AD8040EB8653AD001D038D09F
:102F1000010170A706D001D004D0C3EC92F00101EA
:102F2000709770A10CD001D00AD0BBB101D002D0F3
:102F3000010E01D0000E91EC83F00101709170A39D
:102F400006D001D004D092EC90F00101709370A5EE
:102F500006D001D004D0C1EC92F00101709570A9A7
:102F60000CD001D00AD0BBB501D002D0010E01D0E7
:102F7000000E49EC8FF0010170997191010E7117EB
:102F80001CD8B82BB837010171510001B819010BD9
:102F9000B8190101716F010C20EE01F07251D926B0
:102FA0007351DA2212007251D9267351DA221200BB
:102FB0004A51D9264B51DA221200010171317F0B9F
:102FC0000001B86F1200DE2A000EDE22DE22000CA5
:102FD000EAC173F0EBC174F0ECC175F0EDC176F0AD
:102FE00034EC81F0000901E01200ADEC89F070C012
:102FF000EDF171C0EEF124D9DF50030B030A03E1B8
:10300000010E0101A06F0101A0050CE119D9DF50EB
:10301000030B030A07E014D9DF50EC6F700EEC17B6
:1030200001E1A06BA00501E0DFD0D4EC91F065C018
:10303000EFF166C0F0F104D9DFA822D0EFC165F04E
:10304000F0C166F0F4D8C6EC85F0EFC16BF0F0C1CA
:103050006CF0010120EE46F005D901D80AD0050038
:10306000FA6EDE50FD6EDE50FE6EDE50FF6EFA50E0
:103070001200010E0001656F000E18EC81F01ED0E9
:10308000EFC165F0F0C166F0C9D8F2EC85F0EFC190
:103090006BF0F0C16CF0010120EE49F0E3D801D8EB
:1030A0000AD00500FA6EDE50FD6EDE50FE6EDE5078
:1030B000FF6EFA501200E0D818EC81F049EC92F063
:1030C00065C0F1F166C0F2F1BBD8DFAA21D0F1C131
:1030D00065F0F2C166F0ABD8C6EC85F0F1C16BF0DB
:1030E000F2C16CF0010120EE46F0C1D801D80AD03F
:1030F0000500FA6EDE50FD6EDE50FE6EDE50FF6E95
:10310000FA501200010E0001656F18EC81F020D01A
:10311000F1C165F0F2C166F081D8F2EC85F0F1C141
:103120006BF0F2C16CF0010120EE49F0A0D801D89B
:103130000AD00500FA6EDE50FD6EDE50FE6EDE50E7
:10314000FF6EFA5012000001656B010E18EC81F061
:103150004EEC92F065C0F3F166C0F4F171D8DFACCB
:1031600022D0F3C165F0F4C166F061D8C6EC85F0F9
:10317000F3C16BF0F4C16CF0010120EE46F06DD8A4
:1031800001D80AD00500FA6EDE50FD6EDE50FE6EEC
:10319000DE50FF6EFA501200010E0001656F020E44
:1031A00018EC81F030D0F3C165F0F4C166F036D888
:1031B000F2EC85F0F3C16BF0F4C16CF0010120EE8C
:1031C00049F04BD801D80AD00500FA6EDE50FD6EEA
:1031D000DE50FE6EDE50FF6EFA5012000001656B8D
:1031E000020E18EC81F00FD0899E899C8F968F90EB
:1031F00043D818EC81F0656B010E18EC81F0656B1B
:10320000020E18EC81F0EAC1DAF1EBC1DBF1ECC19E
:10321000DCF1EDC1DDF119D830EF36F0EAC167F02D
:10322000EBC168F0ECC169F0EDC16AF01200EAC1CF
:1032300067F0EBC168F0ECC169F0EDC16AF0120013
:10324000EDC1D9FFEEC1DAFF1200010E0101DE6F00
:10325000DF6BE06BE16BE26B010CF351D926F451AB
:10326000DA221200EF51D926F051DA221200F15180
:10327000D926F251DA2212000001656B000CC1EC74
:1032800091F065C073F066C074F0290E00012BD96F
:10329000696B020E6B6FDCEC83F0270E24D9020EF3
:1032A000696F6B6FDCEC83F0230E1DD9040E2AD9F5
:1032B000DCEC83F0250E17D9060E24D9DCEC83F064
:1032C0002B0E11D9080E1ED9DCEC83F02D0E0BD974
:1032D0000A0E18D9DCEC83F03A0E05D90C0E16D97B
:1032E000DCEC83F017D90D0E11D9DCEC83F002D998
:1032F00007EC60F010EC8FF065C073F066C074F0FE
:10330000290E0001F0D8100EFDD8DCEC83F0270E5A
:10331000EAD8120EF7D8DCEC83F0230EE4D8140EB2
:10332000F1D8DCEC83F0250EDED8160EEBD8DCEC01
:1033300083F02B0ED8D8180EE5D8DCEC83F02D0ED8
:10334000D2D81A0EDFD8DCEC83F03A0ECCD81C0EA3
:10335000DDD8DCEC83F0DED81D0ED8D8DCEC83F0B1
:10336000C9D807EC60F01CEC8FF065C073F066C044
:1033700074F0290E0001B7D8200EC4D8DCEC83F01D
:10338000270EB1D8220EBED8DCEC83F0230EABD8CA
:10339000240EB8D8DCEC83F0250EA5D8260EB2D8C2
:1033A000DCEC83F02B0E9FD8280EACD8DCEC83F03D
:1033B0002D0E99D82A0EA6D8DCEC83F03A0E93D8BD
:1033C0002C0EA4D8DCEC83F0A5D82D0E9FD8DCEC15
:1033D00083F090D807EC60F0380E85D8440E92D870
:1033E000DCEC83F0A70E676F010E686F6A6B300E1E
:1033F0008DD8DCEC83F0B20E676F010E686F6A6BDC
:10340000310E84D8DCEC83F0B30E676F010E686F69
:103410006A6B320E7BD8DCEC83F00101B397C20EED
:103420000001676F010E686F6A6B330E78D8DCECB1
:1034300083F05A0E676F686B6A6B380E70D8DCECDD
:1034400083F0CA0E676F010E686F6A6B3C0E67D817
:10345000DCEC83F0C60E676F010E686F6A6B400E7E
:103460005ED8DCEC83F05F0E676F686B6A6B460EAC
:103470004DD8DCEC83F0CE0E676F010E686F6A6B7F
:10348000470E40D8DCEC83F0D40E676F010E686FF6
:103490006A6B490E37D8DCEC83F01CEC92F065299E
:1034A0006E6F000E66216F6F6EC067F06FC068F0C0
:1034B0006A6B500E2BD8DCEC83F0706B702B0E0E09
:1034C0007065FCD7710E676F686B6A6B880E1ED8CB
:1034D000DCEC83F071B103D00101BB9102D001019A
:1034E000BB81000012007325676F000E7421686FA6
:1034F0006A6B120073C065F074C066F072C067F04A
:10350000686B1200696F020E6B6F020C696F010E1F
:103510006B6F010C720E676F686B6A6B1200696FDC
:10352000040E6B6F040C0550800B0E6E05500524C5
:10353000146E04BE1480145008E0142804E1026ADA
:10354000036A046A056A048E04D0026A036A046A84
:10355000056A0950800B0E1A095009240F6E08BE27
:103560000F800F5008E00F2804E1066A076A086A16
:10357000096A088E04D0066A076A086A096A0F5049
:1035800002E0145005E1026A036A046A056A120047
:1035900008500202F3CF19F0F4CF1AF01950106E50
:1035A000116A126A136A1A50156E166A176A186A37
:1035B00007500302F3CF19F0F4CF1AF01950102678
:1035C000000E1122122213221A501526000E162266
:1035D0001722182206500402F3CF19F0F4CF1AF084
:1035E00019501026000E1122122213221A501526ED
:1035F000000E16221722182212C013F011C012F06A
:1036000010C011F0106A06500302F3CF19F0F4CF86
:103610001AF0195010261A501122000E12221322ED
:1036200007500202F3CF19F0F4CF1AF01950102608
:103630001A501122000E1222132212C013F011C0D0
:1036400012F010C011F0106A06500202F3CF19F008
:10365000F4CF1AF0195010261A501122000E12221F
:10366000132208500302F3CF19F0F4CF1AF01950C7
:1036700015261A501622000E17221822075004028F
:10368000F3CF19F0F4CF1AF0195015261A5016225C
:10369000000E1722182208500402F3CF19F0F4CFBD
:1036A0001AF019500A6E1A500B6E0C6A0D6A080E49
:1036B000D8900A360B360C360D36E82EF9D70A505C
:1036C00015260B5016220C5017220D50182213509D
:1036D0001526000E16221722182212C013F011C050
:1036E00012F010C011F0106A0F5014C00AF00B6AEB
:1036F0000A26000E0B22820E0A24196EFF0E0B20E2
:103700001A6E0FD0D890153616361736183613BEE7
:103710001580D89010361136123613361906D8A0F7
:103720001A0617AEEFD70F6A13AE13D010500A6EF9
:1037300011500B6E12500C6E7F0E13140D6E0A504A
:103740000B100C100D1003E0010E0F6E02D015B01F
:10375000FBD70F500EE0152A000E16221722182252
:1037600018A007D018341832173216321532194AF9
:103770001A2A1ABE0AD01A5002E1192806E3156A5D
:10378000166A800E176E7F0E15D01ABE04D01A501E
:1037900008E1190406E2156A166A176A186A0E6AC1
:1037A0000AD019C014F07F0E1716186A14B0178EBD
:1037B000D8901430186E0E50181215C002F016C0B2
:1037C00003F017C004F018C005F012008F0501E0E7
:1037D00028D1C1EC91F065C076F066C077F0290E73
:1037E000000123D96B6B020E6D6F2DEC76F0270E66
:1037F0001CD9020E6B6F6D6F2DEC76F0230E15D970
:10380000040E1AD92DEC76F0250E0FD9060E14D918
:103810002DEC76F02B0E09D9080E0ED92DEC76F092
:103820002D0E03D90A0E08D92DEC76F03A0EFDD8EC
:103830000C0E06D92DEC76F0350EF7D80D0E00D90A
:103840002DEC76F010EC8FF065C076F066C077F066
:10385000290E0001EAD8100EEFD82DEC76F0270ED5
:10386000E4D8120EE9D82DEC76F0230EDED8140E33
:10387000E3D82DEC76F0250ED8D8160EDDD82DEC39
:1038800076F02B0ED2D8180ED7D82DEC76F02D0E60
:10389000CCD81A0ED1D82DEC76F03A0EC6D81C0E24
:1038A000CFD82DEC76F0350EC0D81D0EC9D82DEC32
:1038B00076F01CEC8FF065C076F066C077F0290ECC
:1038C0000001B3D8200EB8D82DEC76F0270EADD875
:1038D000220EB2D82DEC76F0230EA7D8240EACD849
:1038E0002DEC76F0250EA1D8260EA6D82DEC76F07C
:1038F0002B0E9BD8280EA0D82DEC76F02D0E95D847
:103900002A0E9AD82DEC76F03A0E8FD82C0E98D835
:103910002DEC76F0350E89D82D0E92D82DEC76F060
:10392000380E83D8440E88D82DEC76F0A70E696F38
:10393000010E6A6F6C6B300E83D82DEC76F0B20EF0
:10394000696F010E6A6F6C6B310E7AD82DEC76F0D0
:10395000B30E696F010E6A6F6C6B320E71D82DEC6D
:1039600076F0C20E696F010E6A6F6C6B330E6CD805
:103970002DEC76F05A0E696F6A6B6C6B380E64D85A
:103980002DEC76F0CA0E696F010E6A6F6C6B3C0EFF
:103990005BD82DEC76F0C60E696F010E6A6F6C6B0A
:1039A000400E52D82DEC76F05F0E696F6A6B6C6B2F
:1039B000460E46D82DEC76F0CE0E696F010E6A6F7A
:1039C0006C6B470E39D82DEC76F0D40E696F010E72
:1039D0006A6F6C6B490E30D82DEC76F01CEC92F0CF
:1039E0006529726F000E6621736F72C069F073C033
:1039F0006AF06C6B500E24D82DEC76F0756B752B3D
:103A00000E0E7565FCD70101010EBBA1000E000171
:103A1000746F740E696F6A6B6C6B880E11D82DEC25
:103A200076F001018F6B000012007625696F000EA1
:103A300077216A6F6C6B12006B6F020E6D6F020C58
:103A40006B6F010E6D6F010C6B6F040E6D6F040CCC
:103A50006851800B716F68516825736F67BF738100
:103A6000735105E0732901E106D9678F03D0656BB7
:103A7000666B676B686B6C51800B726F711901E03C
:103A8000718D6C516C25726F6BBF7281725108E041
:103A9000722904E1696B6A6B6B6B6C6B6B8F03D083
:103AA000696B6A6B6B6B6C6B7351725D22E271AD0B
:103AB00002D0800E711B73C074F072C073F074C0BA
:103AC00072F065C074F069C065F074C069F066C0DA
:103AD00074F06AC066F074C06AF067C074F06BC0BE
:103AE00067F074C06BF068C074F06CC068F074C0AC
:103AF0006CF0746B735172C06DF06E6B6D5F000E85
:103B00006E5B6EBF15D06E5103E11A0E6D5D10E352
:103B1000C7D8010ED8B4000E746FADD872C073F060
:103B20000AD074A102D0B7D802D0D89074339AD8F2
:103B30007251735DF6E371BD15D0735101E1A6D0EA
:103B4000695165276A5166236B5167236C5168235D
:103B500068A153D074A102D09ED802D0D8907433FB
:103B600081D84BD06951655D6A5166596B5167596F
:103B70006851800A6D6F6C51800A6D591FE2655162
:103B8000695D6D6F66516A596E6F67516B596F6FE2
:103B900068516C59706FFF0E6D25656FFF0E6E21B9
:103BA000666FFF0E6F21676FFF0E7021686F800ECA
:103BB000711B746D74510AE163D808D06951655F57
:103BC0006A51665B6B51675B6C51685B69D813E146
:103BD000745111E15BD0D890653766376737683725
:103BE00074BF658174A102D0D88001D0D890743799
:103BF000735101E0730767AFEED7726B74AF0AD0F1
:103C000074C06DF07F0E6D1703E0010E726F02D06D
:103C100065B1FBD772510BE033D868A108D0683585
:103C20006833673366336533732901E0732B732977
:103C300002E0735104E11FD8735101E1716B73A16C
:103C400002D0678F01D0679FD8907331686F71BFC2
:103C5000688F65C065F066C066F067C067F068C0D1
:103C600068F0120065B1748F683568336733663366
:103C70006533732B1200656B666B676B686B1200A4
:103C8000652B000E662367236823000C656B666B4B
:103C9000676B686B1200D89074310109746F120061
:103CA000655166116711681112009B6F00019B51ED
:103CB00007EC79F068C09CF069C09DF000019C5150
:103CC0009D11D8B412009CC065F09DC066F046EC12
:103CD00088F00009D8B41200250E9E6F9F0E916FD8
:103CE000926B91C0D9FF92C0DAFF9BC0DFFF20EE3C
:103CF00001F09151D9269251DA2210EE3AF0F1D822
:103D0000E222E75019EC8AF0DF6E9E0E89EC41F05A
:103D100092EC55F020EE22F0BDD8DF501FE1260EC8
:103D20009E6F9F0E936F946B93C0D9FF94C0DAFF80
:103D3000C8D8B0D810EE01F09351E1269451A4D820
:103D400020EE1FF0A7D810EE03F09351E126945116
:103D5000B3D889EC41F092EC55F04CD0270E9E6F11
:103D60009F0E976F986B97C0D9FF98C0DAFFA9D8BC
:103D700091D810EE23F0B5D85FEC46F096D8D8A0D5
:103D800020EE23F087D8DECF8DF0DDCF8EF020EE51
:103D900001F0ABD88DC0DEFF8EC0DDFF20EE1FF03E
:103DA00079D810EE03F09751E1269851E222DFCF47
:103DB000E7FF20EE23F06ED810EE25F092D85FECEE
:103DC00046F073D8D8A020EE23F064D8DECF8FF071
:103DD000DDCF90F020EE04F088D88FC0DEFF90C0D9
:103DE000DDFF20EE1FF056D810EE06F09751E126C9
:103DF0009851AED7290E9E6F9F0E956F966B6AD81D
:103E000020EE2BF047D84BD83FD89E0E89EC41F0DE
:103E100092EC55F02A0E9E6F5DD820EE2DF03AD828
:103E20003ED832D89E0E89EC41F092EC55F02B0E24
:103E30009E6F9F0E996F9A6B99C0D9FF9AC0DAFF57
:103E40009BC0DFFF20EE27F025D810EE01F03ED812
:103E50001BD820EE1FF01ED810EE03F037D8E22258
:103E6000DFCFE7FF20EE29F015D810EE04F02ED8B2
:103E70000BD820EE1FF00ED810EE06F027D81CD875
:103E800089EC41F092EF55F0E222DECFE6FFDDCF84
:103E9000E5FF12009C51D9269D51DA22120010EE46
:103EA00001F09551E126965112008C6FDE50800A88
:103EB0008C5920EE25F01200E222DFCFE7FF9E0EA4
:103EC00012009BC0DFFF20EE25F012009951E12681
:103ED0009A51120095C0D9FF96C0DAFF9BC0DFFF50
:103EE00012009C51E1269D5112009751D9269851FC
:103EF000DA221200B7EC71F007D90FD972EC78F022
:103F0000F4D8A9EC62F07DC0E6F07EC0E7F07FC097
:103F1000E8F080C0E9F0E2C0D6F0E3C0D7F0E4C03A
:103F2000D8F0E5C0D9F0E6C0DAF0E7C0DBF0E8C0D1
:103F3000DCF0E9C0DDF0EB0EDE6F020EDF6FE20EAB
:103F4000E06F020EE16FB6EC68F0D6C040F3D7C068
:103F500041F3DAD8320EE8D872EC78F0C6D8A9EC82
:103F600062F07DC0EAF07EC0EBF07FC0ECF080C074
:103F7000EDF0CAD8D2D872EC78F0B7D8A9EC62F0DC
:103F80007DC0EEF07EC0EFF07FC0F0F080C0F1F0B9
:103F9000EAC0C2F0EBC0C3F0ECC0C4F0EDC0C5F0A5
:103FA000EEC0C6F0EFC0C7F0F0C0C8F0F1C0C9F075
:103FB000B80ECA6F030ECB6F1CEC2DF0C2C042F3DB
:103FC000C3C043F3A1D8640EAFD872EC78F08DD89B
:103FD000A9EC62F07DC08AF07EC08BF07FC08CF0CF
:103FE00080C08DF0DAEC86F08AC044F38BC045F3D4
:103FF0008BD8640E99D872EC78F077D8A9EC62F07F
:104000007DC0F2F07EC0F3F07FC0F4F080C0F5F028
:10401000E2C08AF0E3C08BF0E4C08CF0E5C08DF024
:10402000F2C08EF0F3C08FF0F4C090F0F5C091F0C4
:104030003EEC61F08AC046F38BC047F365D86DD87B
:1040400072EC78F052D8A9EC62F07DC08AF07EC0A4
:104050008BF07FC08CF080C08DF0FDEC84F08AC0C6
:1040600048F38BC049F350D858D872EC78F03DD85B
:10407000A9EC62F07DC08AF07EC08BF07FC08CF02E
:1040800080C08DF07CEC82F08AC04AF38BC04BF389
:104090003BD83C0E49D872EC78F027D8A9EC62F0F6
:1040A0007DC0ABF07EC0ACF07FC0ADF080C0AEF0A4
:1040B000ADEC7BF0ABC04CF3ACC04DF3400E656F84
:1040C000030E666F686B070E676FE2C069F0E3C0AE
:1040D0006AF0E4C06BF0E5C06CF09E0E6D6F110EDF
:1040E0006E6F010E6F6FDCEF85F071C07DF072C0F6
:1040F0007EF073C07FF074C080F0E80E816F030E15
:10410000826F836B846B030CE2C071F0E3C072F0CA
:10411000E4C073F0E5C074F01200E80E756F030E92
:10412000766F776B786B030C756F766B776B786B4C
:104130001200866F0001876B070E86190FE186EC6F
:1041400080F0FDD8E2EC87F082EC80F0F8D8E2EC69
:1041500087F07EEC80F0F3D8E2EF87F0090E861945
:10416000D8B41200856BA5D081C0D9FF82C0DAFF18
:104170007FC0E1FF80C0E2FFDE50E61801E1B3D06E
:104180008751220F7A6F300E7B6F7FC0D9FF80C0BE
:10419000DAFFDF507C6F87511B0FE2EC87F0A3D072
:1041A00020EE01F0D4D810EE01F07F51E1268051CD
:1041B000E222DE50E61801E196D08751770F7A6F40
:1041C000300E7B6F20EE01F0A6D8700FE2EC87F086
:1041D0008AD020EE02F0BBD810EE02F07F51E1262B
:1041E0008051E222DE50E6187EE08751470F9BD8CF
:1041F00092D8440FE2EC87F0B3D895D88CD84B0F07
:10420000E2EC87F0A9D88FD886D84B0FE2EC87F084
:104210006AD020EE03F09BD810EE03F07F51E12628
:104220008051E222DE50E6185EE08751220F7A6F5D
:10423000370E7B6F20EE03F06ED81B0FE2EC87F099
:1042400052D020EE04F083D810EE04F07F51E12626
:104250008051E222DE50E61846E08751770F7A6FF0
:10426000370E7B6F20EE04F056D8700FE2EC87F02B
:104270003AD020EE05F06BD810EE05F07F51E12624
:104280008051E222DE50E6182EE08751470F51D8C8
:1042900042D8440FE2EC87F063D84BD83CD84B0FA0
:1042A000E2EC87F059D845D836D84B0FE2EC87F0CE
:1042B0001AD08651836F846B845115E1835101E1DB
:1042C00053D7010A01E16CD7030A83E0010AA1E098
:1042D000070AB7E0010ACDE0030A05E0010A03E09E
:1042E0000F0AD8A4010A0B0E00018727852B030EA5
:1042F0008565DFD7060E8661060C86517F25D96E4F
:10430000000E8021DA6E86518125E16E000E822139
:10431000E26E38EF50F07F51D9268051DA22DF501B
:104320007C6F875112007A6F300E7B6F20EE02F0A7
:10433000300C7A6F370E7B6F20EE05F0370C7B6FF9
:104340007FC0D9FF80C0DAFFDF507C6F180C81512D
:10435000D9268251DA221200000187514E0F120035
:10436000000187514B0F12007651800B7F6F765101
:104370007625816F75BF8181815105E0812901E139
:1043800003D9758F01D000D97A51800B7F1B7A51E8
:104390007A25806F79BF8081805105E0802901E115
:1043A000EED8798F01D0EBD8805102E0815105E140
:1043B000736B746B756B766B120079517303B2D8A3
:1043C000826F836B846B856B8B51866F876B886B79
:1043D000896B78517403A6D8B3D877517503A2D8E6
:1043E000AFD8A6D8775174039DD8B6D87851730347
:1043F00099D8B2D89DD87751730394D8ADD8795154
:10440000740390D8B5D8785175038CD8B1D8795148
:10441000750388D87B6F8B517C6F7D6B7E6B080E2C
:10442000D8907B377C377D377E37E82EF9D77B51A4
:1044300086277C5187237D5188237E51892385518E
:10444000862791D875D8805181C07BF07C6B7B2703
:10445000000E7C23820E7B258A6FFF0E7C218B6FE2
:104460000FD0D890863787378837893785BF8681C0
:10447000D89082378337843785378A07D8A08B074F
:1044800088AFEFD7806B85AF13D082517B6F83519C
:104490007C6F84517D6F7F0E85157E6F7B517C1103
:1044A0007D117E1103E0010E806F02D086B1FBD733
:1044B00080510BE0862B57D889A107D089358933E5
:1044C0008833873386338A4B8B2B8BBF0AD08B5133
:1044D00002E18A2906E3866B876B800E886F7F0E68
:1044E00015D08BBF04D08B5108E18A0506E2866B9C
:1044F000876B886B896B7F6B0AD08AC081F07F0ED7
:104500008817896B81B1888FD8908131896F7F51ED
:10451000891386C073F087C074F088C075F089C0B5
:1045200076F01200F3CF8AF0F4CF8BF08A511200AC
:1045300084C085F083C084F082C083F0826B120057
:104540008227000E8323842385238B518627000E28
:10455000872388238923000C82278B518323000E15
:1045600084238523000C000E872388238923000CD5
:1045700086278B518723000E88238923000C776BB5
:10458000786B796B7A6B1200736B746B756B766BEF
:10459000120023C290F024C291F025C292F026C2EC
:1045A00093F07DC090F07EC091F07FC092F080C00B
:1045B00093F090C081F091C082F092C083F093C0DC
:1045C00084F083358435816F826B836B846B823793
:1045D00081518D6F8E6B8EBF0ED08E5103E1960E82
:1045E0008D5D09E37DC07DF07EC07EF07FC07FF0F1
:1045F00080C080F01200010E93AF000E8F6F8F51BC
:1046000012E07DC065F07EC066F07FC067F080C0BC
:1046100068F008EC8CF065C07DF066C07EF067C085
:104620007FF068C080F08EBF05D08E5108E17E0E0D
:104630008D5D05E27D6B7E6B7F6B806B1200696B1D
:104640006A6B6B6B4B0E6C6F7DC065F07EC066F065
:104650007FC067F080C068F028EC1DF091D8696BCE
:104660006A6B6B6BCB0E6C6F94D828EC1DF065C039
:1046700085F066C086F067C087F068C088F085C0A6
:1046800075F086C076F087C077F088C078F07DC07E
:1046900079F07EC07AF07FC07BF080C07CF0C3EC04
:1046A00080F075C098F076C099F077C09AF078C025
:1046B0009BF0896B8A6B8B6B8C6B656B666B676B26
:1046C0003F0E54D899EC5BF003E26CD8BF0E0AD0D1
:1046D000656B666B676BBF0E49D899EC5BF003E3C3
:1046E00061D83F0E8C6F7DC069F07EC06AF07FC0DC
:1046F0006BF080C06CF098C065F099C066F09AC00D
:1047000067F09BC068F028EC1DF03AD842D889C009
:1047100069F08AC06AF08BC06BF08CC06CF028EC3A
:104720001DF065C098F066C099F067C09AF068C047
:104730009BF08F5112E098C065F099C066F09AC066
:1047400067F09BC068F008EC8CF065C098F066C01C
:1047500099F067C09AF068C09BF098C07DF099C04E
:104760007EF09AC07FF09BC080F01200686F98C006
:1047700069F099C06AF09AC06BF09BC06CF01200AF
:1047800065C094F066C095F067C096F068C097F079
:10479000120094C065F095C066F096C067F097C0AF
:1047A00068F01200896B8A6B800E8B6F800CD5ECE1
:1047B00092F07FEC68F000018E6B8F6B906B916BC9
:1047C0008D6BB10ED5D87E6BECEC8EF07FEC68F083
:1047D000680E00018C6FE40EE82EFED78C2FFCD7FC
:1047E0000000B10E0001C4D87E6FECEC8EF07FECBF
:1047F00068F0680E00018C6FE40EE82EFED78C2F57
:10480000FCD7000000018D2B020E8D65DAD78E815A
:104810008E0E896FE7EC74F000018E838E0E896F27
:10482000E7EC74F000018E858E0E896FE7EC74F072
:1048300000018E878E0E896FE7EC74F000018E897F
:104840008E0E896FE7EC74F000018E8B8E0E896FEF
:10485000E7EC74F000018E8D8E0E896FE7EC74F03A
:1048600000018E8F8E0E896FE7EC74F000018F8B44
:104870008E0E896FE7EC74F000018F898E0E896FC0
:10488000E7EC74F000018F878E0E896FE7EC74F00F
:1048900000018F858E0E896FE7EC74F000018F8325
:1048A0008E0E896FE7EC74F000018F818E0E896F98
:1048B000E7EC74F000018F8F8E0E896FE7EC74F0D7
:1048C000000190818E0E896FE7EC74F000018F8DEE
:1048D0008E0E896FE7EC74F0000190838E0E896F65
:1048E000E7EC74F0000190878E0E896FE7EC74F0AE
:1048F000000190858E0E896FE7EC74F000019089BD
:104900008E0E896FE7EC74F0000191898E0E896F2D
:10491000E7EC74F0000191838E0E896FE7EC74F080
:104920000001908B8E0E896FE7EC74F00001908F80
:104930008E0E896FE7EC74F00001908D8E0E896FFA
:10494000E7EC74F0000191818E0E896FE7EC74F052
:104950000001918B8E0E896FE7EC74F00001918558
:104960008E0E896FE7EC74F0D5EC92F07FEF68F073
:104970007A6F230E7B6F010E7C6F8DC07DF0010C72
:10498000A26BA36BA46BA56B9E0EA26FEF0EA36F21
:10499000E10EA46F410EA56FA3D826EC3AF0CED855
:1049A0005C0E776FFE0E786FE80E796F3A0E7A6FB5
:1049B000B4EC21F073C09EF07CD828EC1DF0ACD88C
:1049C0008FD826EC3AF0BAD88BD826EC3AF0ADD88E
:1049D000B4EC21F09CD88ED8ED0E776F450E786F31
:1049E000DE0E796FB20E7A6FB4EC21F073C09EF0D8
:1049F00060D828EC1DF090D873D826EC3AF09ED8F9
:104A00006FD826EC3AF091D8B4EC21F080D872D867
:104A100067D826EC3AF089D8B4EC21F078D86AD877
:104A20003A0E776F6D0E786FA00E796F2B0E7A6F3E
:104A3000B4EC21F073C09EF03CD828EC1DF06CD88B
:104A4000A2C073F0A3C074F0A4C075F0A5C076F046
:104A5000776B786B200E796F410E7A6FB4EC21F092
:104A600073C0A2F074C0A3F075C0A4F076C0A5F026
:104A7000A2C07DF0A3C07EF0A4C07FF0A5C080F0EE
:104A8000C9EC22F07DC0A2F07EC0A3F07FC0A4F0EC
:104A900080C0A5F0A2C065F0A3C066F0A4C067F016
:104AA000A5C068F076EC56F065C09CF066C09DF03D
:104AB000120074C09FF075C0A0F076C0A1F0A2C033
:104AC00065F0A3C066F0A4C067F0A5C068F09EC002
:104AD00069F09FC06AF0A0C06BF0A1C06CF012003A
:104AE0009CC065F09DC066F0000E66BFFF0E676F4C
:104AF000686F010C75C0A0F076C0A1F09EC073F085
:104B00009FC074F0A0C075F0A1C076F0120073C011
:104B10009EF074C09FF0120065C0A2F066C0A3F0C2
:104B200067C0A4F068C0A5F0120065C077F066C049
:104B300078F067C079F068C07AF0120065C073F051
:104B400066C074F067C075F068C076F01200686FD8
:104B50007BD0600E656F250E666F010E676F1200C9
:104B6000020E656FBD0E666F000E676F12007A0E43
:104B7000656F140E666F010E676F1200DC0E656FB5
:104B8000100E666F010E676F1200B20E656FDD0EBC
:104B9000666F000E676F12008A0E656FB50E666F46
:104BA000000E676F12002A0E656FF80E666F000E1A
:104BB000676F1200600E656F0D0E666F010E676FF6
:104BC0001200140E656FF70E666F000E676F12000D
:104BD0003A0E656FF90E666F000E676F1200F60EE3
:104BE000656FF80E666F000E676F1200CE0E656F70
:104BF000F60E666F000E676F1200B20E656FF80E4C
:104C0000666F000E676F1200D00E656FE40E666F60
:104C1000000E676F1200260E656FE90E666F000EBC
:104C2000676F12006E0E656FF80E666F000E676F8D
:104C30001200F20E656FE00E666F000E676F1200D5
:104C4000656B666B676B12000001685189E0020AB0
:104C5000E9E0010A8CE0070A91E0010A8FE0030A0B
:104C6000C5E0010A8BE00F0AB3E0020A80E0010A06
:104C700001E17DD71B0AD6E0010A87E0090AD2E0EC
:104C8000010A8AE0030A8FE03A0ACCE0010A01E156
:104C90006ED7030A01E16BD7010A8CE0070A91E0A5
:104CA000010A9DE0030AA9E0010AAEE00E0AB3E0A2
:104CB000030AB1E0010AA8E01B0ABBE0710AB2E0F6
:104CC000030AB0E0010AAEE0070AACE0010AAAE07C
:104CD000030AA8E0010AA6E00E0AA4E0030AA2E083
:104CE000010AA0E02B0A01E134D7110A01E169D7DA
:104CF000F10A98E0030A96E0070A94E0140A01E139
:104D000059D7010A01E125D7030A01E122D798D733
:104D1000C7D8DA22DECF77F0DDCF78F0C1D891ECBA
:104D200033F05DEC42F0E75000017A6FB9D8BED89D
:104D30005DEC42F0E750796F3CC07BF03DC07CF009
:104D4000770E746FE2EC82F0000901E093D0770EE9
:104D50006C6F726B736B6C517FEC2BF05DEC42F0FF
:104D6000E750030F706F000EC8EC91F000016C511A
:104D7000D96EDA6ADECF68F0DDCF69F070C06AF014
:104D8000FBEC82F0010E716F3FD0720E656F6C51BB
:104D9000D96EDA6ADECF6DF0DDCF6EF071516D2520
:104DA000D96E000E6E21DA6EDF50666F6651676F46
:104DB000686B67C068F0676B6551D96EDA6A6751D6
:104DC000DE1A6851DD1A080E6B6F74D868AF14D004
:104DD00001D012D06FD8D89067376837210E671985
:104DE000696F100E68196A6F6551D96EDA6A69C009
:104DF000DEFF6AC0DDFF02D0655164D86B076B51DE
:104E0000E4E101D0E2D7712B7051715DBEE301D0B6
:104E1000BCD76C5143EC2BF033D873C0DFFF6C511F
:104E200043EC2BF0DF2A6C5143EC2BF029D872C0F5
:104E3000DFFF6C5143EC2BF0DF2A6C5143EC2BF07D
:104E40001FD80D0EDF6E6C5143EC2BF0DF2A77C0BC
:104E500066F078C067F079C068F001D80BD0050023
:104E6000FA6E01013A51FD6E3B51FE6E3C51FF6EF0
:104E7000FA50120015D81AD85DEC42F0E76A120019
:104E8000DF506D6F6C51D96EDA6ADECF6EF0DDCF18
:104E90006FF06D516E25D96E000E6F21DA6E120023
:104EA00020EE02F03A50D9263B501200DA2210EEE2
:104EB00064F012006551D96EDA6ADECF67F0DDCF9B
:104EC00068F01200D96EDA6AD890DE36DD3612004C
:104ED000C1EC91F065C079F066C07AF0ADD88ED89B
:104EE000C80EDE6EDD6A20EE27F088D86E0EAFD8D1
:104EF00085D8B40EDE6EB9D881D8B40EADD87ED8C0
:104F0000010EDE6E80D87AD882D878D8010EDF6E96
:104F100097D807EC60F010EC8FF065C079F066C0B0
:104F20007AF08AD86BD82C0EDE6E010E9AD866D82D
:104F3000640E8DD863D8960EDE6E97D85FD8FA0EC1
:104F40008BD85CD8DE6A5FD859D861D857D8DF6A69
:104F500077D807EC60F01CEC8FF065C079F066C084
:104F60007AF06AD84BD88A0EDE6E020E7AD846D80E
:104F7000300EDE6E020EDD6E20EE23F03FD87ED8BE
:104F800020EE25F03BD87AD820EE2BF037D8010E52
:104F9000DE6E39D833D83BD831D8020EDF6E50D808
:104FA00007EC60F020EE38F029D8DE6ADD6A0101F6
:104FB000A76B040EB26F060EB36F5BD816EC7BF0D6
:104FC0002DD85F6ACE6BCF6B1CEC92F065C068F099
:104FD00066C069F06B6B6A6B6D6B570E6C6FEFECB4
:104FE00086F0786B782B0E0E7865FCD70101BB81BB
:104FF000010E8F6FE6EC1BF0000012007951D926EC
:105000007A51DA221200DD6A20EE2DF01200580EDD
:10501000DE6E020EDD6E20EE3AF0020C020ECC6F58
:10502000CD6B080EC66F640EC76FFD0EC86FC969E1
:10503000D56B140ED46F140C000120EE29F0120071
:1050400079C065F07AC066F0686B676B1200DE6E3F
:10505000DD6A20EE23F01200DE6EDD6A20EE2BF01A
:105060001200DD6E20EE27F01200DD6A20EE25F042
:1050700012005A6A5B6A5C6A5D6AF80C440EDE6E66
:10508000020EDD6E020C70D0C6D844EF92F0C3D889
:1050900017EF73F0C0D858EF85F0BDD8E8EF8DF06A
:1050A000D8290001DE6FBFD8DF6FA4EF65F0D829E3
:1050B0000001986FB8D8996F33EF8FF0D8290001AD
:1050C000986FB1D8996F95EF47F0D8290001986F84
:1050D000AAD8996FF6EF29F0D8290001986FA3D8C4
:1050E000996FF5EF61F0D8290001986F9CD8996FFE
:1050F000EEEF59F0D8290001986F95D8996FDCEF41
:105100002FF089D850EF8EF020EE01F091D8DECF4D
:1051100098F0DDCF99F0CCEF8FF020EE01F088D839
:10512000DECF98F0DDCF99F0CEEF91F0D8290001D5
:10513000656F79D8666F44EF7FF0D8290001656FFD
:1051400072D8666FCCEF8AF0D8290001956F6BD8C2
:10515000966F6CEF92F0D8C16CF0D9C16DF042EF50
:1051600087F059D809EF8DF0D8C1D9FFD9C1DAFF3E
:10517000DF5002E15DEF71F0010AD8B41200030ABA
:1051800002E123EF41F0010AECE0070A01E17CD7DC
:10519000140A02E15DEF8DF0080A02E16FEF90F072
:1051A000380A02E177EF5DF0100AD5E0710A01E1FB
:1051B0006ED7030A01E16ED7010A01E16ED7070A33
:1051C00001E16ED7010A01E172D7030A01E176D746
:1051D000010A01E17AD70E0A01E17ED7030A83E0D2
:1051E000010A88E01A0AD8B41200310AD8B41200B1
:1051F000010AA3E0100AD8B41200F10A82E0030AFF
:1052000083E0070A8AE0140AD8B41200010A9CE07D
:10521000030A8CE0120020EE01F0D851D926D951B2
:10522000DA22DF501200000E0101D9210001120024
:10523000D851D926D951DA2212000001786F78515D
:105240001FE0816B826B000E716F030E726FD8903E
:105250008135D96E8235DA6ED890D936DA36715109
:10526000D9267251DA22B9D8814B822B82BFEBD773
:10527000825103E10B0E815DE6E30101996B000CA5
:1052800001019951040D000EF324D96E030EF42090
:10529000DA6EA3D86DC079F06EC07AF06FC07BF083
:1052A00070C07CF06DC07DF06EC07EF06FC07FF08E
:1052B00070C080F0992B090E996501D0996B00019F
:1052C000876B886B79D8DE50795DDE507A59DE5075
:1052D0007B597C51800A776FDE50800A775909E24A
:1052E0006BD8DECF79F0DECF7AF0DECF7BF0DECF89
:1052F0007CF062D87D51DE5C7E51DE587F51DE58F5
:10530000DE50800A776F8051800A775909E254D8BD
:10531000DECF7DF0DECF7EF0DECF7FF0DECF80F01F
:10532000874B882B88BFCED7885103E10A0E875D53
:10533000C9E37D51795D656F7E517A59666F7F5102
:105340007B59676F80517C59686FE2EC78F065C0DB
:1053500083F066C084F067C085F068C086F086BFC1
:1053600009D08651851105E1C00E835D5D0E84591B
:1053700001E3000C86BF09D08651851105E1E00EDE
:10538000835D2E0E845901E3010C86BF09D086513E
:10539000851105E1700E835D170E845901E3020C3F
:1053A00086BF040C8651851105E1B80E835D0B0E96
:1053B000845901E3030C040C000E716F030E726F2D
:1053C000D8908735D96E8835DA6ED890D936DA36E6
:1053D0007151D9267251DA2212006DC0DEFF6EC003
:1053E000DEFF6FC0DEFF70C0DEFF1200C0D807EC2A
:1053F00079F068C0A4F069C0A5F00001A451A5111E
:1054000004E1B5D8886F020E4FD0040E9825A0D8BD
:10541000F3EC4EF07FC0A0F080C0A1F0982998D89E
:10542000F3EC4EF07FC0A2F080C0A3F0A2C06DF0FC
:10543000A3C06EF0A0C06FF0A1C070F0A4C071F066
:10544000A5C072F0746B7AEC30F028E201D026D05F
:1054500071EC30F06C6B5ED808E301D006D069D8EF
:1054600004E301D002D0010E6C6F6C51000916E00C
:1054700001D014D068EC30F06C6B4CD808E301D04C
:1054800006D057D804E301D002D0010E6C6F6C51E6
:10549000000904E001D002D0010E746F74510009BC
:1054A00005E165D8886F030E896F31D020EE3AF0A0
:1054B00064D8020EDE18010ED8A4000E9F6F9F5113
:1054C00005E1A2C09BF0A3C09CF004D0A0C09BF05B
:1054D000A1C09CF020EE23F050D89BC0DEFF9CC002
:1054E000DDFF9F5105E1A0C09DF0A1C09EF004D05A
:1054F000A2C09DF0A3C09EF020EE25F03ED89DC036
:10550000DEFF9EC0DDFFA8EC8BF031D83BD8470E04
:1055100062EF82F020EE13F06751D9266851DA224B
:10552000DE50655D6651800A6B6FDE50800A6B59F4
:10553000120020EE15F06751D9266851DA22655124
:10554000DE5CDE50800A6B6F6651800A6B59120078
:105550007F6F000E9921806F20EE1FF0A451D92695
:10556000A551DA22DECF81F0DDCF82F0120098C0A3
:10557000D9FF99C0DAFFDF501200A451D926A551F6
:10558000DA2212000001886F896B120070517BD8FB
:10559000030EDF6E7051D96EDA6ADECF71F0DDCFA7
:1055A00072F071C0D9FF72C0DAFF1B0EDF6E56D8E1
:1055B000500EDF6E705167D8DF2A50D8DF6A705105
:1055C00062D8DF2A4BD8DF6870515DD858EC34F0D0
:1055D00070C06BF0A5D8686B9BD803E008D001D0F1
:1055E00006D0682B050E6865F7D701D0F5D76F6B2D
:1055F00067D86F2B050E6F65FBD701D0F9D76B51BC
:1056000042D846D840D848D857D83DD8DF2A6B5121
:105610003AD842D879D837D8DF2A20D8010EDF6EA1
:10562000705131D8DF2A1AD8640EDF6E70512BD832
:10563000DF2A705153EC34F05DEC42F0E76A7051B0
:105640005ED85DEC42F070511ED8DF50FD0FE76E62
:10565000705119D8640EDF60010C000C7051D96EC6
:10566000DA6A020ED926DF50716F7051D96EDA6A8C
:10567000DECF72F0DDCF73F071517225D96E000E5E
:105680007321DA6E1200D96EDA6A020ED926020C84
:10569000060EDF266B511200DF506C6F6B51D96E16
:1056A000DA6ADECF6DF0DDCF6EF06C516D25D96E0C
:1056B000000E6E21DA6E1200CA0EDF6E6B51120000
:1056C0006F516925D96E000E6A21DA6E6B51E16E59
:1056D000E26AE6CF6CF0E5CF6DF06B51E16EE26A05
:1056E000020EE126E7506C27000E6D236F516C25EA
:1056F000E16E000E6D21E26EDFCFE7FF1200D96E82
:10570000DA6A10EE02F01200FE0EDF6E6B5112002C
:1057100068516525D96E000E6621DA6EDE2812000A
:1057200069C065F06AC066F01200939A8A9A1A0EF0
:1057300000017D6FF80EE82EFED77D2FFCD700000C
:105740008A8A200E00017D6F290EE82EFED77D2F5C
:10575000FCD700D0C00E0001A0D8300EE8EC8BF0D2
:10576000C00E9BD8370EE8EC8BF0C00E96D8360EE4
:10577000E8EC8BF0A3D83F0E786F300EE8EC8BF09E
:105780009DD83F0E786F370EE8EC8BF097D8280E37
:10579000786F360EE8EC8BF06DD8300EE8EC8BF0BD
:1057A00069D8370EE8EC8BF065D8360EE8EC8BF054
:1057B0006ED8300EE8EC8BF06AD8370EE8EC8BF040
:1057C00066D8360EE8EC8BF06ED8300EE8EC8BF035
:1057D0006AD8370EE8EC8BF066D8360EE8EC8BF022
:1057E000010E7A6F300ED8EC8BF0010E7A6F370E07
:1057F000D8EC8BF0010E7A6F360ED8EC8BF033D8E4
:10580000300EE8EC8BF02FD8370EE8EC8BF02BD86D
:10581000360EE8EC8BF07E6B34D8300EE8EC8BF073
:1058200030D8370EE8EC8BF02CD8360EE8EC8BF045
:105830007E2B170E7E65F0D7180E7E6F400E39D87E
:10584000300EE8EC8BF0400E34D8370EE8EC8BF0DD
:10585000400E2FD8360EE8EC8BF07E2B9B0E7E652B
:10586000EDD700009B0CC00E766F090E776F030E0C
:10587000786F030CC00E766F040E776FEB0E786FA7
:10588000EB0C400E766F7EC077F0786B400CC00E4C
:10589000766F010E776F786B010C766F060E776F5F
:1058A000020E786F020CC00E766F776B400E786F29
:1058B000400C766F7EC077F078691200C00E766F6C
:1058C000050E776F050CE4C1D9FFE5C1DAFFDECF25
:1058D000F7F0DDCFF8F0AF5105E1ABD827EC91F050
:1058E0007FEC68F00001666B080E656F97D8655114
:1058F000671906E16651681901E002D0010E01D076
:10590000000E000914E06E6B010E27EC91F0840E7E
:105910007A6F240E7B6F78D8ECEC8EF0010E0201CA
:10592000AF6F0201AC6BAD6B7FEC68F058D0666B6B
:10593000040E656F73D86551671906E166516819E1
:1059400001E002D0010E01D0000E000911E06E6BE3
:10595000010E27EC91F0690E7A6F240E7B6F54D8FC
:10596000ECEC8EF00201AF6B64D827EC91F0D9D744
:10597000010E666F656B52D86551671906E1665175
:10598000681901E002D0010E01D0000E000927E0E5
:105990004AD8AF190EE0AFB103D00101BB9102D0DC
:1059A0000101BB81010EF2EC91F078EC92F0E6EC93
:1059B0001BF0E0C1DCF1E1C1DDF1E2C1DEF1E3C1E8
:1059C000DFF122EECAF001D80AD00500FA6EDE50EF
:1059D000FD6EDE50FE6EDE50FF6EFA5012000201C8
:1059E000AF51D8B41200AE510101B819D8B41200A9
:1059F00020D827EC91F062EC7FF00BD814EC3DF04E
:105A0000ECEC8EF07FEF68F0010E7C6F7D6F7E6BAB
:105A1000010C65C07AF066C07BF01200F7C067F039
:105A2000F8C068F012000101010EBBA1000E0201D6
:105A3000120000016E6B020CC651C25DC751C35902
:105A4000C851C459C951C55908E3BB0E9C6F220EF9
:105A500092D82F0E97D888EC84F0CAC0D9FFCBC05B
:105A6000DAFFDE50DE10DE1009E1340E00019C6F1B
:105A7000220E81D8300E86D888EC84F0000120EE0A
:105A800003F086D808E1870E9C6F220E74D8310E81
:105A900079D888EC84F0000120EE06F079D808E18E
:105AA0006C0E9C6F220E67D8320E6CD888EC84F096
:105AB000000120EE09F06CD808E1170E9C6F220E51
:105AC0005AD8330E5FD888EC84F0C2C05BF3C3C0F1
:105AD0005CF3C4C05DF3C5C05EF31E0E03015F6FCF
:105AE0002D0E606F000E616FC6C07DF0C7C07EF0E6
:105AF000C8C07FF0C9C080F0C2C081F0C3C082F0CE
:105B0000C4C083F0C5C084F0A9EC62F07DC02BF264
:105B10007EC02CF27FC02DF280C02EF2CAC04AF2A5
:105B2000CBC04BF201016E6B6F6B0201276B286BD0
:105B3000296B2A6B4F0E0101B425726F000EB5213F
:105B4000736F000E0001BB6F080EBC6FBE6B800E42
:105B5000BD6F020120EE09F0D8EC17F0DECFBFF0E8
:105B6000DECFC0F0DDCFC1F021EC7BF05B0EC26F69
:105B7000030EC36F12009D6F1B0E9E6F230E9F6F4F
:105B8000A16B1200A06F790EA26F230EA36F1200FB
:105B9000CA51D926CB51DA22DE50DE10DE101200B7
:105BA0000001F251070ED8A4090E3E240101D86F5E
:105BB000000E3F20D96FD8C1F6FFD9C1F7FF000E04
:105BC000F86E0900F5CFE1F10A00F5CFE2F152C21B
:105BD00065F053C266F090D801D80DD00500FA6E7A
:105BE0000900F550FD6E0900F550FE6E0900F550F4
:105BF000FF6EFA50120065C0E3F166C0E4F10101E6
:105C0000E1510001F003F3CFD8F1F4CFD9F1F10362
:105C1000F3500101D927E2510001F0030101F350D3
:105C2000D92765D8DECFDAF1DDCFDBF1DA51D8251F
:105C3000E56FD951DB21E66FE86AE836D9BFE8069F
:105C4000E76FE86AE7BFE806E86F030E37D848D881
:105C5000DC51E55DDD51E659DE51E759E851800A36
:105C6000E06FDF51800AE05902E2030E11D0050E09
:105C700025D836D8E551DC5DE651DD59E751DE59CE
:105C8000DF51800AE06FE851800AE05908E2050E12
:105C900015D8DAC1E5F1DBC1E6F1E76BE86B27D88F
:105CA000E5C1DEFFE6C1DDFFF3C0EAF0F4C0EBF0D2
:105CB000F5C0ECF0F6C0EDF0BDEF78F03E24D86F03
:105CC000000E3F20D96FD8C1F6FFD9C1F7FF000EF3
:105CD000F86E0900F5CFDAF10900F5CFDBF112001B
:105CE000DA51DC6FDB51DD6FDE6BDF6B1200E3C17D
:105CF000D9FFE4C1DAFF12003EC0F6FF3FC0F7FF54
:105D0000120020EE38F097D8DFAE16D020EE39F032
:105D100092D8DFB211D077D8CA5D9CD8CB5990D831
:105D2000CC5993D8CD597BD891C0C6F192C0C7F158
:105D300093C0C8F194C0C9F120EE39F07CD8DFA23D
:105D400016D020EE38F077D8DFBE11D05CD8C65D13
:105D500081D8C75975D8C85978D8C95960D891C061
:105D6000CAF192C0CBF193C0CCF194C0CDF15A509E
:105D70000101CA5D306F5B50CB59316F5C50CC591B
:105D8000326F5D50CD59336F30C17DF031C17EF03F
:105D900032C17FF033C180F02C0E0001816F010E03
:105DA000D0EC3FF0B2EC48F07DC030F17EC031F174
:105DB0007FC032F180C033F15A500101C65D2C6FB3
:105DC0005B50C7592D6F5C50C8592E6F5D50C95933
:105DD0002F6F2CC17DF02DC17EF02EC17FF02FC121
:105DE00080F0D40E0001816FFE0E826F836984699A
:105DF000B2EC48F07DC02CF17EC02DF17FC02EF1B9
:105E000080C02FF11200D8905A348D6F5B348E6FA2
:105E10005C348F6F5D34906F8D5101011200000171
:105E2000946F911F921F931F941F912B000E92232A
:105E300093239423000C8B51D9268C51DA22120023
:105E40000001926F8F51010112000001936F905178
:105E5000010112000001916F8E5101011200360EF6
:105E6000F66EF30EF76E000EF86E05EE95F010EE7E
:105E700048F00900F5CFEEFFE550E150FAE1F00EF1
:105E8000F66E030EF76E010EF86E04EE72F010EE71
:105E900036F00900F5CFEEFFE550E150FAE1400E93
:105EA000F66E090EF76E010EF86E03EE9DF010EE21
:105EB0002FF00900F5CFEEFFE550E150FAE1DA0EE0
:105EC000F66EE60EF76E000EF86E02EEABF010EE18
:105ED00054F00900F5CFEEFFE550E150FAE1300E45
:105EE000F66E250EF76E010EF86E01EEFAF010EE6A
:105EF00006F00900F5CFEEFFE550E150FAE10DEEB6
:105F000000F0D60EEE6AE806FDE10CEE00F0FA0EA7
:105F1000EE6AE806FDE10BEE00F0FA0EEE6AE80626
:105F2000FDE10AEE00F0B40EEE6AE806FDE109EECE
:105F300000F0FA0EEE6AE806FDE108EE00F011EE60
:105F400000F0EE6AE550E150FCE1E250FAE107EEC4
:105F500000F0C90EEE6AE806FDE106EE00F0BB0EA9
:105F6000EE6AE806FDE105EE00F0950EEE6AE80641
:105F7000FDE104EE00F0720EEE6AE806FDE103EECC
:105F800000F09D0EEE6AE806FDE102EE00F0AB0EB9
:105F9000EE6AE806FDE101EE00F0D80EEE6AE806D2
:105FA000FDE100EE33F02D0EEE6AE806FDE1019012
:105FB0000192000142EF4CF085D807EC79F068C0FF
:105FC0009EF069C09FF000019E519F1104E17AD8B4
:105FD000886F020E50D0982966D8F3EC4EF07FC03F
:105FE0009AF080C09BF0040E98255DD8F3EC4EF03B
:105FF0007FC09CF080C09DF09AC06DF09BC06EF099
:106000009CC06FF09DC070F09EC071F09FC072F098
:10601000746B70D82AE201D028D063D86C6B8AECFC
:106020002AF009E301D007D099EC2AF004E301D06B
:1060300002D0010E6C6F6C51000917E001D015D031
:1060400047D86C6B8AEC2AF009E301D007D099ECB1
:106050002AF004E301D002D0010E6C6F6C510009EC
:1060600004E001D002D0010E746F7451000905E103
:1060700029D8886F030E896F13D020EE27F043D8FC
:106080009AC0DEFF9BC0DDFF20EE29F03CD89CC00B
:10609000DEFF9DC0DDFFA8EC8BF014D8C2EC2AF027
:1060A0004B0E62EF82F07F6F000E9921806F20EE21
:1060B0001FF09E51D9269F51DA22DECF81F0DDCF2D
:1060C00082F0120098C0D9FF99C0DAFFDF501200A9
:1060D0006FC065F070C066F071C067F072C068F0A4
:1060E00012006DC065F06EC066F071C067F072C0DE
:1060F00068F012006F516D5D6E51800A736F7051C0
:10610000800A735912009E51D9269F51DA2212003B
:10611000A0D8DE6ADD6A6CC065F06DC066F07B0EEB
:10612000676FE4EC71F065C080F066C081F080C0FC
:1061300065F081C066F06CC067F06DC068F07CD817
:1061400065C079F066C07AF07951705D7A51715905
:1061500001E21200030E746F756B8051745F815100
:10616000755B7CD87451DE267551DD2272D8DFCF85
:1061700074F0DE2ADFCF75F0000EDD226FD8DECF9F
:1061800076F0DDCF77F074517625D96E7551772191
:10619000DA6EAA0EDF6E7E6B7F6B20D07E517B0F96
:1061A000D96EDA6A72C0E1FF73C0E2FFE7CF74F024
:1061B000E62AE7CF75F0000EE5226EC0E1FF6FC062
:1061C000E2FFE6CF76F0E5CF77F074517625E16E09
:1061D00075517721A3EC70F07E4B7F2B80517E5D53
:1061E00081517F59DBE335D86C51DE266D51DD22BC
:1061F00035D8DECF65F0DDCF66F02BD8DECF67F087
:10620000DDCF68F032EC86F0746F23D8DECF75F006
:10621000DDCF76F023D8DECF77F0DDCF78F0755183
:106220007725D96E76517821DA6E74C0DFFF11D8E8
:10623000DE2A000EDD22000C67516525696F68516A
:1062400066216A6F020E6925656F000E6A21666F0E
:10625000120072C0D9FF73C0DAFF12006EC0D9FFFE
:106260006FC0DAFF12000001686F66D0E60E656F3E
:10627000250E666F010E676F1200560E656FDA0EFF
:10628000666F000E676F1200AC0E656F1F0E666FB3
:10629000010E676F12002E0E656F1A0E666F010EEB
:1062A000676F1200E40E656FF40E666F000E676F85
:1062B00012008C0E656F060E666F010E676F12007E
:1062C000F80E656F010E666F010E676F1200F60E15
:1062D000656FD90E666F000E676F1200060E656F50
:1062E000FA0E666F000E676F1200D00E656F1C0EFF
:1062F000666F010E676F1200EA0E656F1B0E666F08
:10630000010E676F1200C00E656F010E666F010E01
:10631000676F1200DC0E656F9F0E666F000E676F71
:106320001200BA0E656F150E666F010E676F1200D0
:10633000656B666B676B12000001685197E0010A9C
:106340009CE0030A93E0010A9FE0070A9DE0140A1B
:106350008DE0080A8BE0380A89E0100AE2E0710A51
:1063600093E0030A91E0010A96E0070A9BE0010A24
:10637000A0E0030AA5E0010AAAE00E0AAFE0030AC2
:10638000ADE0010AA4E01A0AC5E0310ABCE0010A46
:1063900089E0100AB8E0F10A01E176D7030AA5E026
:1063A000070AA3E0140AAFE0010AADE0030AA4E083
:1063B000BFD7F0C0D9FFF1C0DAFFDFAE000C42C09A
:1063C00065F043C066F073EC8AF000097EE0000ED1
:1063D0004BEC6EF065C0DEF166C0DFF120EE33F00D
:1063E0000FEC3DF010EE04F05DEC42F0E6CFE0F192
:1063F000E5CFE1F10101E66BE76B3ED020EE0DF059
:106400000FEC3DF071D8DE51E65DDA6FDF51E759F0
:10641000DB6FE051DA03F3CFDCF1F4CFDDF1DB0326
:10642000F350DD27E151DA03F350DD27D851DC25A5
:10643000E26FD951DD21E36F52D8E2C1A7F0E3C189
:10644000A8F0B4EC40F0A5C0E4F1A6C0E5F1780EE8
:10645000E1EC34F0E6C175F0E7C176F0E4C177F025
:10646000E5C178F07A6B000E796FF5EC34F015EC3D
:1064700044F00101E64BE72B29D8C0E3E66BE76B5C
:1064800018D0D6EC34F035D8C0EC34F095EC3DF0B3
:10649000D89001012ED8DA6E700ED926020EDA22BB
:1064A00023D8D8C1D9FFD9C1DAFFDCEC34F0E64BF0
:1064B000E72B0CD8E6E3F2C0EAF0F3C0EBF0F4C04F
:1064C000ECF0F5C0EDF0BDEC78F0010C4050E65D6D
:1064D000E751800AD86F4150800AD859120042C053
:1064E000A5F043C0A6F01200DECFD8F1DDCFD9F180
:1064F0001200E635D96EE7351200010E4AEC7EF047
:1065000080EC8EF0000902E07FEF68F074EC92F00E
:10651000000904E0F1EC5CF07FEF68F00001E66B4D
:10652000E76B76D0D890E635D96EE73592EC5BF024
:10653000DECFE8F0DDCFE9F0000120EE33F076D8D1
:10654000DECFE4F0DDCFE5F0E4C0D9FFE5C0DAFF4F
:10655000DF50EFEC6FF0E8C065F0E9C066F073EC77
:106560008AF0000943E0E8C067F0E9C068F05CEC3D
:1065700086F0000907E0E8C084F0E9C085F06DEC22
:1065800049F043D0000120EE3CF050D8DFA212D0F9
:1065900020EE3BF04BD8DFB60DD00101BD5135E107
:1065A000E8C0D2F0E9C0D3F0A0EC8CF044D8A4EC61
:1065B00076F02BD0E8C067F0E9C068F002EC8EF00E
:1065C000000907E0E8C084F0E9C085F092EC50F0E3
:1065D0001CD0000120EE3BF029D8DFA2E1D7E8C0B3
:1065E000D4F0E9C0D5F03FEC74F00FD0E8C065F00E
:1065F000E9C066F04FEC8AF0000904E11CD8A4EC75
:1066000076F003D00101BD51B6E10001E64BE72B66
:106610000101AE510001E65DE751800AE46FD8EC5C
:1066200075F0E45901E27ED77FEF68F0E851D92692
:10663000E951DA221200E8C0D4F0E9C0D5F0120026
:1066400020EE33F072D810EE09F05DEC42F0E65027
:10665000E610E61044E020EE0BF067D872D865D85B
:1066600087D876D85ED85DEC42F0E7509F6FA06B7C
:1066700020EE33F05AD810EE09F05DEC42F001D86C
:106680000AD00500FA6EE650FD6EE650FE6EE6504A
:10669000FF6EFA50120020EE0DF047D864D820EEBD
:1066A0000BF043D84ED841D863D8A06B020E9F6F31
:1066B00020EE33F03AD810EE09F05DEC42F001D84C
:1066C0000AD00500FA6EE650FD6EE650FE6EE6500A
:1066D000FF6EFA50120020EE0FF027D844D020EEC3
:1066E0000BF023D827D821D848D832D81AD85DEC57
:1066F00042F0E7507D6F7E6BA5EC59F020EE0DF077
:1067000014D82CD820EE0BF010D814D80ED835D8C9
:106710007E6B020E7D6FA5EC59F020EE0FF005D8D0
:106720001DD0DA2210EE03F01200A351D926A45195
:10673000DA221200DECF79F0DDCF7AF020EE1FF002
:106740001200DECF9BF0DDCF9CF020EE1FF0120098
:1067500020EE36F0A351D926A451120079C0DEFFF5
:106760007AC0DDFF12009BC0DEFF9CC0DDFF12007F
:10677000DECF9DF0DDCF9EF01200DECF7BF0DDCFCF
:106780007CF01200705143EC2BF0030EDF6E705161
:10679000D96EDA6ADECF71F0DDCF72F071C0D9FF49
:1067A00072C0DAFF1B0EDF6E69D8510EDF6E7051BA
:1067B00043EC2BF0DF2A62D8DF6A705143EC2BF0F8
:1067C000DF2A5CD8DF68705143EC2BF071D870C0C1
:1067D0006BF090EC2BF0686B88EC2BF003E008D0AA
:1067E00001D006D0682B050E6865F6D701D0F4D726
:1067F0006F6B60EC2BF06F2B050E6F65FAD701D035
:10680000F8D76B5143EC2BF048EC2BF043EC2BF01A
:106810004CEC2BF05CEC2BF043EC2BF0DF2A6B51B3
:1068200043EC2BF04CEC2BF084EC2BF043EC2BF0F6
:10683000DF2A24D8010EDF6E705143EC2BF0DF2AE3
:106840001DD8FFC1DFFF705143EC2BF0DF2A7051E0
:106850002AD85DEC42F0E76A70517FEC2BF05DECDA
:1068600042F0705143EC2BF0DF50FD0FE76E70519A
:1068700043EC2BF0640EDF60010C000C7051D96EFC
:10688000DA6A020ED926DF50716F7051D96EDA6A5A
:10689000DECF72F0DDCF73F071517225D96E000E2C
:1068A0007321DA6E1200D96EDA6A10EE01F012006E
:1068B000DF2AB6C169F0B7C16AF01200B4EC77F014
:1068C000B0C0D8F1B1C0D9F184D8780ED926020E63
:1068D000DA22DECFF6F0DDCFF7F00001F051F62539
:1068E0000101DA6F0001F151F7210101DB6F780E30
:1068F000000167D882C175F083C176F0DAC177F004
:10690000DBC178F0D8C179F0D9C17AF06ED815EC36
:1069100044F00101DC6FDC510DE148D88235D96EBD
:1069200083352ED895EC3DF054D8700E33D8000145
:1069300043D81AD0DD6BDE6B0DD038D851D820D8B3
:1069400095EC3DF0D8904CD8DA6E700E23D834D840
:10695000DD4BDE2B4050DD5DDE51800A0001F66F1D
:106960004150800AF659E9E39BEC89F0F2C0EAF065
:10697000F3C0EBF0F4C0ECF0F5C0EDF0BDEF78F053
:10698000DA6E780ED926020EDA22DECFA9F0DDCF3C
:10699000AAF01200D926020EDA22DECFF6F0DDCF01
:1069A000F7F0F6C0D9FFF7C0DAFF120042C0A7F037
:1069B00043C0A8F0D8901200A7C0DEFFA8C0DDFF3A
:1069C0001200716F020E726F40C073F041C074F01C
:1069D0001200D89001018235D96E8335DA6E12002B
:1069E0000101DD35D96EDE35120084C17BF085C131
:1069F0007CF01200256A266A276A25C002F026C0AC
:106A000003F0000E2724D96EDA6A010EDA22DF5075
:106A1000046ED0EC7BF002C025F003C026F0272ADC
:106A20000D0E2764EAD7255026107AE101C128F01F
:106A300004C101F128C004F102C128F003C102F130
:106A400028C003F101C102F002C103F003C104F048
:106A500004C105F02BEC7AF002C001F103C002F191
:106A600004C003F105C004F1066A076AC80E086E87
:106A7000420E096E01C102F002C103F003C104F02D
:106A800004C105F093EC1AF002C01BF003C01CF027
:106A900004C01DF005C01EF00CEC57F01BC06CF1DB
:106AA0001CC06DF106C128F009C106F128C009F12A
:106AB00007C128F008C107F128C008F106C102F09B
:106AC00007C103F008C104F009C105F02BEC7AF00E
:106AD00002C006F103C007F104C008F105C009F1C6
:106AE000066A076AC80E086E420E096E06C102F0F9
:106AF00007C103F008C104F009C105F093EC1AF0D6
:106B000002C01BF003C01CF004C01DF005C01EF045
:106B10000CEC57F01BC06AF11CC06BF1966B04D0F3
:106B2000010E0101966F00000000120068C065F0C0
:106B300069C066F0AFEC8CF06E6F736B0101B3A5AA
:106B40000BD0000120EE3BF06851D9266951DA22C2
:106B5000DFA602D0010E736F00017351010ED8B48D
:106B6000000E6F6F68C065F069C066F04FEC8DF085
:106B7000706F6FD8DFA0000E716F6BD8DFA2000EB0
:106B8000726F746B756B44D0D8907435D96E75354F
:106B900092EC5BF0DECF76F0DDCF77F076C065F07B
:106BA00077C066F04FEC8AF0000930E06F5112E0D8
:106BB0003BD8DFA80FD06A5174190BE16B517519DE
:106BC00008E120EE3CF07651D9267751DA22DF80B9
:106BD00001D037D868C065F069C066F04FEC8AF024
:106BE000000914E06E5103E01FD8DFB02AD87051BD
:106BF00003E01AD8DFB225D8715103E015D8DFB40D
:106C000020D8725103E010D8DFB61BD8744B752B17
:106C10000101AE510001745D7551800A6C6FD8ECB2
:106C200075F06C59B1E312006A5176256C6F6B51A7
:106C300077216D6F500E6C25D96E000E6D21DA6EC6
:106C4000120020EE3CF07651D9267751DA22DF820D
:106C5000120020EE38F06851D9266951DA22010C71
:106C6000E50E0001736F010E746F93EC6FF073C04B
:106C7000E6F174C0E7F1010177D8DFA00AD0DAC1EC
:106C800065F0DBC166F0DCC167F0DDC168F081EC66
:106C900090F00101DF51E01108E0DFC1D9FFE0C150
:106CA000DAFFE6C1DEFFE7C1DDFFE151E21106E0F8
:106CB000E1C1D9FFE2C1DAFFE5C1DFFF5CD8DE50F8
:106CC00015E1DE0413E1E55111E04ED8DFB40ED03A
:106CD0004BD8DFB60BD0DAC1F0F0DBC1F1F0DCC18C
:106CE000F2F0DDC1F3F084EC85F0010C44D8DE0451
:106CF000DE1005E040D8020EDE18DE101CE1E55182
:106D000003E132D8DFA4010C2FD8DFB2010C33D855
:106D1000DE04DE1005E134D8FF0EF8EC7FF0010C44
:106D20002AD8020EDE18DE10D8A4010C29D8010ED4
:106D3000F8EC7FF0010C1FD8800EDE18DE1013E196
:106D4000DE5111E0E551D8B4010C0ED8DFB2010CD0
:106D5000DAC1F0F0DBC1F1F0DCC1F2F0DDC1F3F03B
:106D60006AEC87F0010C000C20EE02F0E651D92607
:106D7000E751DA221200E6C1D9FFE7C1DAFF1200BB
:106D8000DAC1F5F0DBC1F6F0DCC1F7F0DDC1F8F0F7
:106D90001200270E7DD8B2C0D9FFB3C0DAFF7ED86B
:106DA000250EB025B66F6ED864D8BD6B030EBC6FD0
:106DB00020EE22F07ED8DF5015E0BD6B040EBC6FD4
:106DC00020EE3AF076D8020EDE1802E1230E06D04D
:106DD000230EB025B66F56D84CD8250E59D820EEC4
:106DE00004F047D8290E54D8BCC0B8F0BDC0B9F0E3
:106DF000D890B837B937B851B225BA6FB951B32165
:106E0000BB6FFE0EBA25D96EFF0EBB21DA6E46D8D7
:106E1000BE6BBF6B20D0B0C0A5F0B1C0A6F043D808
:106E2000B251D926B351DA22DECFB6F0DDCFB7F0BA
:106E3000B6C0D9FFB7C0DAFF9BEC3CF0B4EC40F031
:106E400032D8B451D926B551DA22A5C0DEFFA6C08A
:106E5000DDFFBE4BBF2BBC51BE5DBF51800AB66F7C
:106E6000BD51800AB659D7E3BCC0B0F0BDC0B1F087
:106E70001200B251D926B351DA22B6C0DEFFB7C034
:106E8000DDFF1200000EB121B76F20EE02F01200FC
:106E9000B025B66F000EB121B76F1200B6C0DEFF8D
:106EA000B7C0DDFF1200D890BE35D96EBF35DA6E9F
:106EB0001200B051D926B151DA221200726B706BF8
:106EC0007FD8D96E6A516821DA6E72516525E16EFC
:106ED000000E6621E26EE7506B6FD8906B37D8904A
:106EE0006B37D8906B35DF6E6BD86B6F6A5168214A
:106EF0006C6F6B2959D86D6F050E6E6FD8906D331E
:106F00006E2FFCD76D51DF6E722B702B030E7065E8
:106F1000D7D76F6B5ED86F513BD8100E6B25E16EE3
:106F2000000E6C21E26EDFCFE7FF722B6F2B030E9A
:106F30006F65F0D7716B71512BD8080E6B2534D863
:106F40000F0BDF6E46D8DF50696F693B0F0E691774
:106F500069A10AD071511CD8080E6B25D96E000E9C
:106F60006C21DA6E000EDB8E715112D8090E6B2582
:106F70001BD86D6F050E6E6FD8906D336E2FFCD7DA
:106F80006D51DF6E722B712B030E7165D4D7030C1C
:106F9000696F6A6BD89069376A37695167256B6F7B
:106FA0006A5168216C6F1200D96E000E6C21DA6E86
:106FB00072516525E16E000E6621E26EE750120007
:106FC0007051020DF3CF69F0F4CF6AF06951672573
:106FD000120072516525D96E000E6621DA6E12001C
:106FE000E15115E1040EE05D12E2D00E00019C6F4C
:106FF000210E9D6F440E9E6F230E9F6FA16B2E0E70
:10700000A06F560EA26F230EA36F88EC84F0DAC136
:10701000B3F0DBC1B4F0DCC1B5F0DDC1B6F069ECB2
:107020005CF0000901E012000101E86BE96BDAC1D4
:10703000ADF0DBC1AEF0E80E0001AF6F010EB06F36
:1070400078EC83F0ADC0E2F1AEC0E3F1E8C165F0E9
:10705000E9C166F06529656F000E6621666F65C03F
:10706000E4F166C0E5F1950E656F030E666F0101F0
:10707000E451DA250001676F0101E551DB210001D0
:10708000686FE2C169F0E3C16AF007EC7AF034D8C6
:107090000101DE250001676F000E0101DF21000103
:1070A000686FFB0E0101E0250001696FFF0E010111
:1070B000E12100016A6F94EC72F006D0E6C1D8F1CC
:1070C000E7C1D9F143EC28F0B80E0001796F1C0E2E
:1070D0007A6F010E7B6F3EEC8FF065C07CF066C06E
:1070E0007DF0D9EC42F079C0E6F17AC0E7F1010118
:1070F000E651E711E3E112008D0E656F030E666F36
:10710000040C0101BBA1120000016E6B010E27EC03
:1071100091F06E6B020E27EC91F0000E6E6B27EC77
:1071200091F0170E7A6F240E89EC4CF0ECEC8EF097
:10713000890E656FB9C168F0BAC169F06CD867C0D3
:1071400066F0676B663B0F0E6617661753D8D96EED
:10715000DA6A0800F5CFDFFF69510F0BC30FF66E37
:10716000200ED8B0010FF76EF86A000EF8226551B4
:10717000D96EDA6AD92A0800F5CFDFFF4CD8040EA1
:10718000D89067336633E82EFBD70F0E661732D8D8
:1071900043EC2BF00800F5CFDFFF0F0E6815666F8C
:1071A00029D834D80800F5CFDFFF0101BBB106D0E4
:1071B000EF0E00018D6F230E8E6F04D0890E00013B
:1071C0008D6F8E6B8DC07AF08EC07BF004EC2DF04D
:1071D000ECEC8EF07FEC68F00201AC6BAD6B030E53
:1071E0000001656F65C0ABF20101BB97BB85100E56
:1071F000F2EF91F0676BC30E6625F66E200E6721E5
:10720000F76EF86A000EF82265511200D96EDA6A3C
:10721000030ED926030C68C066F069C067F012003F
:10722000C1EC91F065C0C5F066C0C6F01CEC8FF0F3
:1072300065C0C8F066C0C9F010EC8FF065C0CAF038
:1072400066C0CBF00001C36B0101A25108E0C8C0C9
:1072500065F0C9C066F0EBEC8CF0000903E0010EAC
:107260000001C36FC46B0101A15108E0CAC065F001
:10727000CBC066F0EBEC8CF0000903E0010E0001DE
:10728000C46F010E0101A26FA16FC8C065F0C9C033
:1072900066F0C5EC86F0CAC065F0CBC066F0C5EC00
:1072A00086F0C5C065F0C6C066F0EBEC8CF0000956
:1072B000010ED8A4000EC26FC8C0B6F0C9C0B7F0A6
:1072C000BEC0B8F0BFC0B9F0C2C0BAF020EE19F02D
:1072D000C551D926C651DA22DECFBBF0DDCFBCF0D6
:1072E000C3C0BDF04CEC78F0CAC0B6F0CBC0B7F06C
:1072F000C0C0B8F0C1C0B9F0010EBA6FC0C0BBF0D9
:10730000C1C0BCF0C4C0BDF04CEC78F011D8C76F60
:10731000C8C069F0C9C06AF0C7C06BF09BEC4FF001
:10732000CAC069F0CBC06AF0C7C06BF09BEF4FF0EA
:107330000101010EB3A1000E00011200E4C1D9FF4A
:10734000E5C1DAFFDECFF7F0DDCFF8F00001666BC4
:10735000100E76D86551671906E16651681901E08B
:1073600002D0010E01D0000E00090CE022EEC7F0A1
:107370000500FA6EDE50FD6EDE50FE6EDE50FF6ED2
:10738000FA501200666B200E5BD86551671906E152
:107390006651681901E002D0010E01D0000E00090B
:1073A0000CE022EED0F00500FA6EDE50FD6EDE50ED
:1073B000FE6EDE50FF6EFA501200666B400E40D833
:1073C0006551671906E16651681901E002D0010EA6
:1073D00001D0000E00090CE022EED9F00500FA6E93
:1073E000DE50FD6EDE50FE6EDE50FF6EFA50120073
:1073F000010E666F656BF7C067F0F8C068F0655105
:10740000671906E16651681901E002D0010E01D04A
:10741000000E0009D8B41200E0C1DCF1E1C1DDF1D9
:10742000E2C1DEF1E3C1DFF122EEC1F00500FA6E48
:10743000DE50FD6EDE50FE6EDE50FF6EFA50120022
:10744000656FF7C067F0F8C068F012006D6F00015B
:107450006D511CE068AF1AD065C069F066C06AF073
:1074600067C06BF068C06CF0691F6A1F6B1F6C1FF0
:10747000692B000E6A236B236C2369C06FF06AC00E
:1074800070F06BC071F06CC072F008D065C06FF026
:1074900066C070F067C071F068C072F06551661127
:1074A0006711681105E1656B666B676B686B1200AD
:1074B000960E6E6F02D06E2B44D8696B6A6B6B6B45
:1074C000FE0E721544D808E0F6D76E2B6F2B000E17
:1074D00070237123722335D8696B6A6B6B6B7251A1
:1074E00036D807E0F2D76E07D8906F37703771370C
:1074F000723771BF03D0020E6E61F5D76EA1719F16
:10750000D8906E336EC069F06A6B6B6B6C6B69C040
:107510006CF06B6B6A6B696B69516F136A51701316
:107520006B5171136C5172136D5102E068BF728F11
:107530006FC065F070C066F071C067F072C068F02F
:107540001200D8907233713370336F3312006C6F46
:1075500069516A116B116C111200C9C074F0CAC074
:1075600075F0CBC076F0CCC077F050EC81F0CBC09A
:1075700065F0CCC066F07CEC2EF0000EF86E01D801
:107580000DD00500FA6E0900F550FD6E0900F550AA
:10759000FE6E0900F550FF6EFA50120065C0D9FF6B
:1075A00066C0DAFFDECFD3F0DDCFD4F0D351D411F3
:1075B00011E143D8F5500900F5100CE03ED8F5CFA5
:1075C0007AF00A00F5CF7BF076EC68F044D82FD83B
:1075D000ECEF8EF0D3C065F0D4C066F0686B3C0E63
:1075E000676F51EC79F06551D16FD3C065F0D4C0AD
:1075F00066F0686B3C0E676F07EC7FF06551D26FE9
:10760000D151640DF3CFCDF0F4CFCEF0D251CD25D2
:10761000CF6F000ECE21D06FCFC0C4F0D0C0C5F068
:1076200064EC74F018D85AEC74F08CEF8EF0DA2217
:10763000DF507D6F010E7E6F010C0B0E3E24CD6F6F
:10764000000E3F20CE6FCDC0F6FFCEC0F7FF000E7C
:10765000F86E09001200CB51D926CC511200000E51
:1076600001018A6F0D0E8B6F20EECAF065D8D70E20
:10767000DE6E010EDD6E20EECFF05ED8D40EDE6E33
:10768000FB0EDE6E000EDE6E20EE64F055D8DF6A73
:1076900020EED2F051D8DF6A20EECCF04DD8DE6A71
:1076A000DD6A20EECEF048D8DF6A20EED3F044D871
:1076B000A60EDE6E120EDE6E010EDE6E8AC165F063
:1076C0008BC166F00001676B3CD8672B630E676562
:1076D000FBD701D0F9D73DD8650E01018A250001FD
:1076E000656FC0EC14F0666F0001676B2AD8672BDA
:1076F000630E6765FBD701D0F9D72BD88AC1A7F2F3
:107700008BC1A8F2650E01018A250201A96F000E46
:1077100001018B210201AA6FA70E0001A46F020EC6
:10772000A56F9BEC14F008D8DECFA6F0DECFA7F053
:10773000DDCFA8F031EF65F08A51D9268B51DA22DE
:10774000120067516525D96E000E6621DA6EDF6A78
:10775000120020EE64F06551D9266651DA22DF6A04
:1077600012006FD8DFA01FD0BFC0A0F0C0C0A1F032
:10777000C1C0A2F0C2C0A3F0C3C0A4F0C4C0A5F0B1
:1077800039EC75F0000938E0BFC065F0C0C066F0A4
:10779000C1C067F0C2C068F0C3C069F0C4C06AF07D
:1077A000F2EC85F029D0BFC0A0F0C0C0A1F0C1C0EC
:1077B000A2F0C2C0A3F0C3C0A4F0C4C0A5F000EC06
:1077C00078F0000919E0BFC0B9F0C0C0BAF097EC7A
:1077D00063F0000903E00101B3B50ED0BFC065F04E
:1077E000C0C066F0C1C067F0C2C068F0C3C069F035
:1077F000C4C06AF0C6EC85F024D8DFA011D0BFC0A9
:107800006BF0C0C06CF020EE46F023D80500FA6E95
:10781000DE50FD6EDE50FE6EDE50FF6EFA5012003E
:10782000BFC06BF0C0C06CF020EE49F012D805006C
:10783000FA6EDE50FD6EDE50FE6EDE50FF6EFA50C8
:107840001200000120EE3BF0BF51D926C051DA22D0
:107850001200BF51D926C051DA221200C0C0B0F0C8
:10786000C1C0B1F0C60EB26FB36BCE0EB46FB56BC4
:10787000C9EC36F0B0C0D6F0B1C0D7F0C0C0A5F0AA
:10788000C1C0A6F020EE15F0C051D926C151DA22B0
:1078900052D8B4EC40F0A5C0C4F0A6C0C5F0D86B77
:1078A000D96B1BD0CE0E716F726BD6C073F0D7C080
:1078B00074F0D8C075F0D9C076F042D8DECF77F03A
:1078C000DDCF78F07A6B000E796FC4C07BF0C5C055
:1078D0007CF015EC44F0D84BD92B24D8E3E3D86BDB
:1078E000D96B1DD0C0C0A7F0C1C0A8F029D8DECF89
:1078F000A9F0DDCFAAF095EC3DF0D851020DF35080
:10790000C60FD96EDA6ADECFC2F0DDCFC3F0C2C0D7
:10791000D9FFC3C0DAFFDCEC34F0D84BD92B02D846
:10792000E1E31200D651D85DD951800AC26FD75118
:10793000800AC2591200DECFA7F0DDCFA8F01200F6
:10794000D851020DF350CE0FD96EDA6A1200B0C1D1
:10795000D1F0B1C1D2F020EE33F061D8DECFCFF05C
:10796000DDCFD0F0D1C06EF0D2C06FF040EC84F02B
:10797000D1C06FF0D2C070F020EE3AF050D8DF5096
:107980000001716F15EC80F0CFC0D9FFD0C0DAFFD5
:10799000DF50EFEC6FF0C00E00017A6F230E89EC20
:1079A0004CF0ECEC8EF020EE29F039D843D8CB6BBC
:1079B000010ECC6F95EC7AF020EE22F030D8DF503B
:1079C0000AE020EE23F02BD835D8010ECB6FCC6B1C
:1079D00095EC7AF008D0990E7A6F240E7B6F04EC48
:1079E0002DF0ECEC8EF020EE25F019D823D8010E06
:1079F000CB6FCC6F95EC7AF0C60E7A6F230E7B6F4F
:107A000013D8ECEC8EF020EE27F009D813D8020E34
:107A1000CB6F010ECC6F95EC7AF08BEF6DF042508E
:107A2000D9264350DA221200010E7C6F020E7D6FC0
:107A30007E6B020CDECFC9F0DDCFCAF0120001016F
:107A4000B3A913D020EE4DF06BD8CAEC6BF0DE502A
:107A5000E61801E102D0010E01D0000E000905E197
:107A6000B7EC64F05DD8DF9012000001656B010196
:107A7000B3AB0CD001D00AD020EE55F051D8DFB016
:107A800005D001D003D0010E0001656F00016551E2
:107A900000092BE03CC070F03DC071F030EC90F07C
:107AA000B3A91FD020EE4DF03BD8DF5007E03CECEF
:107AB00068F0DF9C030E3AEC92F00CD03CEC68F0DE
:107AC000DF8C3CEC68F0DF983CEC68F0DF86040E5D
:107AD0003AEC92F020EE4DF023D8CAEC6BF0DFCFF9
