:100D0000ADEF06F0FFFFFFFF5F82C8EFB4F0FFFF1B
:100D1000FFFFFFFFFFFFFFFF5F80D8CF60F0E8CF4E
:100D200061F0E0CF62F0D9CF63F0DACF64F09DB824
:100D30009EA802D0AEECFAF0A3B8A4A802D0BCECF6
:100D4000F9F064C0DAFF63C0D9FF62C0E0FF61C0A0
:100D5000E8FF60C0D8FF5F901000DCEF99F04FEC27
:100D600008F065C067F066C068F0000120EE1BF077
:100D70006751D92668516EEF08F03F0E706F020E72
:100D8000716F7AC072F07BC073F07CC074F07DC06C
:100D900075F059EFCCF06FC04EF170C04FF171C0DB
:100DA00050F172C051F1070EB819D8B430ECF0F020
:100DB0001200B1A407D0B19002C0B3FF01C0B2FFCE
:100DC000B180120002C0B3FF01C0B2FF1200C96FB0
:100DD0000001C9512EECDEF007ECFEF00001886B3B
:100DE000896B430EF8EFF5F0986B98519BECC4F0CB
:100DF000982B020E9865F9D7886B896B100EF8EF67
:100E0000F5F072C074F073C075F074C0D9FF75C08E
:100E1000DAFF70C0DEFF71C0DDFF12000101CE51AC
:100E200009E067C065F068C066F051ECF0F00009B9
:100E300001E0010C000CAEEC0BF0000908E083B4FB
:100E400083B201D0030C83B4020C83A2010C000C0A
:100E500000018C6F6C0E836F020E846F660E856FBF
:100E6000020E866F8C5130EF8EF06BC065F06CC057
:100E700066F06DC067F06EC068F06FC069F0020E7A
:100E80000CEFE2F06BC065F06CC066F06DC067F00F
:100E90006EC068F06FC069F0000E0CEFE2F0010167
:100EA00000A5120065C002F166C003F167C004F13D
:100EB00068C005F10095120065C0F6F066C0F7F055
:100EC00067C0F8F068C064F169C065F16AC066F196
:100ED000120007C001F008C002F009C003F00AC008
:100EE00004F00BC005F0000E16EFD9F0010100A5CB
:100EF000120001C002F102C003F103C004F104C0FA
:100F000005F1009512006FFF51FF56FF5BFF60FF78
:100F100065FF6C160090C5014CEE01F01600986F4D
:100F200098C088F00001896B800EF8ECF5F09829E4
:100F30000101CD6F1200470E656F020E666F70C023
:100F400067F071C068F072C069F0E0EFD5F070C072
:100F500065F071C066F0D5ECFAF072C0D9FF73C0CD
:100F6000DAFF86EFEFF0656F00016551D8B4000C31
:100F7000010AD8B4010C030AD8B4020C000C000119
:100F8000656F6551D8B4000C060AD8B4030C010A89
:100F9000D8B4010C020C93C084F094C085F095C0C5
:100FA00086F096C087F097C088F049EFB8F0898E38
:100FB000898C20EE3AF06B51D9266C51ABECFCF0E9
:100FC000010EDFEF08F001018B4B8C2B8D518B5DF7
:100FD0008E518C59D8A012008B6B8C6B1200D08E66
:100FE000A2869F86F184A282D284D2889F8AA58A13
:100FF0009F98A59812006651030B636E65C062FF4F
:101000007F9C7F9E7F8000000000615012005FA2E5
:1010100002D0E5EF09F00087015101250001656F5D
:1010200065C0C9FF030C5FA202D0EDEF09F0008795
:10103000D88001350001656F65C0C9FF050C7AC015
:101040006DF07BC06EF07CC06FF07DC070F07EC034
:1010500071F0E8EFCAF05A0E0001676F030EABECB7
:10106000DBF0180E6B6F92ECF9F02FEF0AF0666F61
:1010700065C046F166C047F165C048F166C049F1F8
:10108000B9880000120007D896ECBCF0DECF65F0FE
:10109000DDCF66F01200010120EE02F0120007D849
:1010A00096ECBCF0DECF65F0DDCF66F012000101FA
:1010B00020EE04F0120026EC90F021EC90F0DF6AB4
:1010C00021EEFFF021EC90F0DF6A1200656F6A0EEE
:1010D00000016525D96EDA6A010E00D0DA22DF50F0
:1010E000120098C0D9FF99C0DAFFDF50886F020E56
:1010F000896F450EF8EFF5F0986F98C0C3F107ECD3
:10110000FEF00001886B896B420EF8EFF5F0936FEB
:1011100093C0C9F10101CCA312009DEC09F00101BB
:10112000CC93120002014D514B5D0001656F02012D
:101130004E514C590001666F1200886F900E0001ED
:10114000896F88C08AF0890EA3EC8AF0ADEFC7F0F2
:10115000666F010E0001656F665103E0660501E0F0
:10116000656B655112008F8020EE3AF06B51D926E5
:101170006C5167ECFDF0010ED4EF08F08F8620EE85
:101180003AF06B51D9266C5178ECFDF0010E30EF3E
:1011900009F0676F00016751040DF3CF66F06551E8
:1011A0000C0DF350662512006A6F6AC065F069C0C5
:1011B00066F0010E0001676F020E56EFF3F06A6FE2
:1011C0006AC065F069C066F0010E0001676F000E2D
:1011D00056EFF3F070C0D9FF71C0DAFF72C0E1FFC3
:1011E00073C0E2FFAAEFC2F000016E6F6E51D8B477
:1011F00012003584A3ECF3F0FDEFFEF06E6F0001FA
:101200006E51D8B412003580A3ECF3F0FDEFFEF080
:1012100000016E6F6E51D8B41200358AA3ECF3F062
:10122000FDEFFEF08BC08BF08CC08CF0000E8CBFFD
:10123000FF0E8D6F8E6F1200656F0001655103E028
:10124000898A89881200899A8998120077C06EF07D
:1012500078C06FF079C070F07AC071F067EFBEF0BF
:101260006A6F6AC065F069C066F0010E0001676FC1
:1012700056EFF3F020EE59F06651D9266751DA2285
:10128000DF5066EF08F098C0CAF199C0CBF1886BC7
:10129000896B830EF8EFF5F052C165F053C166F02B
:1012A00054C167F055C168F0120065B5010C65B70F
:1012B000020C65B3030C65B1040C000CFAECC7F02A
:1012C000D9ECECF0886B896B180EF8EFF5F0010E95
:1012D0000101CF6FD16BD06BD26B7F6B806B120033
:1012E00000016F6F6DC069F06EC06AF06F5103EF5F
:1012F000F5F00101C4A1000CCDEC09F0000901E0FA
:10130000010C000CC6BA1200C76A280EC66EC56A68
:10131000090EC86E090CC5AC03D08EECC8F002D023
:101320000001656B6531120065C020F266C021F2D4
:1013300067C022F268C023F21200910E0001886F8C
:10134000880EA3EC8AF0ADEFC7F099519A11D8B48A
:1013500012009907D8A09A0712000001696F5B0E6E
:10136000676F69C068F0BAEFC1F04250010AD8B4A3
:10137000000C030AD8B4020C010C716F71C06DF03F
:1013800070C06EF0070E70EF09F0716F71C06DF0F4
:1013900070C06EF0020E70EF09F0B851D8B4010CB5
:1013A000070EB81901E1010C000C5FA203D090EF09
:1013B0000BF000D000910B6B0E0C4250D0ECE6F01D
:1013C00065C093F166C094F11200010100870151DC
:1013D0000125016E01C0C9FF030C01010087D880FF
:1013E0000135016E01C0C9FF050C506A536A546A89
:1013F000516A526A4E6A4F6A12008D518E1101E194
:1014000012006BECE9F0FDD778EC0BF00CEC86F0F9
:10141000060E31EF0BF00101CE51010ED8A4000EE3
:10142000CE6F1200000ED3ECF0F0E8ECAAF09DEFC6
:10143000DAF02D0E6525656F000E6621666F1200CD
:101440002B0E6525656F000E6621666F12006F6FAB
:101450006EC068F000016F511AEFF3F000D0020186
:101460007E6B7F6B806B816B1200666F0001655134
:10147000030DF3506625120065C0F3F266C0F4F266
:1014800067C0F5F2120065C0F6F266C0F7F267C0F9
:10149000F8F2120065C0F0F266C0F1F267C0F2F235
:1014A000120065C0EAF266C0EBF267C0ECF212000F
:1014B00065C0EDF266C0EEF267C0EFF2120065C0E3
:1014C000E7F266C0E8F267C0E9F2120065C0DEF23A
:1014D00066C0DFF267C0E0F2120065C0E1F266C0EC
:1014E000E2F267C0E3F2120065C0DBF266C0DCF234
:1014F00067C0DDF2120065C0E4F266C0E5F267C0C5
:10150000E6F212005FA202D0BDEF0BF0B4EC0BF0DC
:10151000090C5FA202D0C0EF0BF0B4EC0BF00A0C88
:101520005FA202D0C3EF0BF0C59AC588050C5FA27D
:1015300002D08CEF0BF00097C586040C5FA202D09E
:10154000EBEF0BF0DBEC0BF0000C5FA202D0EDEF49
:101550000BF0DDEC0BF0010C5FA202D0EFEF0BF013
:10156000DDEC0BF0020C5FA202D0F1EF0BF0DDEC32
:101570000BF0010C600E886F880EA3EC8AF0ADEFC3
:10158000C7F0920E886F880EA3EC8AF0ADEFC7F01B
:10159000656F00016551010AD8B4010C000CA4EC80
:1015A000BCF0DECF65F0DDCF66F0120001014A2B02
:1015B000000E4B234C234D23000C5A0E0001656F87
:1015C000040E666F1200000E0001656F040E666F58
:1015D0001200320E0001656F050E666F1200F29E5A
:1015E000F29CD088D092FF001200F29EF29CD0882C
:1015F000D082FF0012001BEC07F0000901E0010C93
:10160000000CCF0E0001656F010E666F1200070E11
:101610000101B819D8B4010C000C0E0E01019A6F2B
:10162000100E996F100C700ED36E646A9B6A2A6B51
:101630001200FA0E0001656F0C0E666F1200800E2C
:10164000656FFC0E666F2BEF0BF08D0E656FFC0E59
:10165000666F2BEF0BF065C03AF066C03BF075EF9C
:10166000FFF00001656F65C0B0F1120043C065F086
:101670000001666B1200886B896B840EF8EFF5F041
:101680000001966F9651A9EFF6F00001946F945106
:101690009DEF08F0666B010E656FB2EFFEF0666BB2
:1016A000020E656FB2EFFEF00001696F6951CBEF7A
:1016B000F4F05FB294EF0BF0DAEF09F0000E63EC98
:1016C0000BF0B98412000001656F65C03BFF12008A
:1016D000080E31EC0BF0000C666B656BB2EFFEF0A0
:1016E0000101C4B1010C000C0101C4B9010C000CD2
:1016F000010E01019F6F010C5FA2050C050C050C8A
:101700005FA2010C010C010C5FA2030C030C030C83
:101710004DECBCF0A7EFF9F001010097C586040C71
:10172000010100910B6B0E0C010100910B6B0E0C73
:101730000F01229922891200FFFF1027B404010132
:10174000B0511200B9A4010C000C86B0010C000CC1
:1017500080BE010C000C86B6010C000C83A6010CA7
:10176000000C000EF8EFD7F0C58AC5881200706B28
:10177000716B12000101B16B1200C58AC588090C9A
:10178000C58AC5880A0CC59AC588050CAB98AB8874
:10179000120000EF80F0BAEF0AF0E6EFFCF0D1EFB4
:1017A0000BF021EFBAF09DEFDAF09DEFDAF02EEFBB
:1017B0000AF05C501200C5841200C58212009E9689
:1017C00012002BEF08F0BAEF0AF0C1EF0AF00AEFAF
:1017D000E4F0A9EFF5F0C584000CC582010CC582C8
:1017E000020CC582010CA196120004EFBDF0F8EFC7
:1017F000D3F06DEFFBF0B1EFFFF0C0EFFFF0000CA6
:101800001200120012001200120012001200050C49
:10181000010C030C12001200120012001200120040
:10182000FFFFFFFFFFFFFFFFFFFFFFFFFFFFFFFFC8
:10183000FFFFFFFFFFFFFFFFFFFFFFFFFFFFFFFFB8
:10184000FFFFFFFFFFFFFFFFFFFFFFFFFFFFFFFFA8
:10185000FFFFFFFFFFFFFFFFFFFFFFFFFFFFFFFF98
:10FBC000FFFFFFFF00AA13002610000E10008C900C
:10FBD00001A8B5012E1500ECCB01661500581500E3
:10FBE0004A15003C1500201500121500041500B23E
:10FBF000160010DB017E1E0188F90116670128FD41
:10FC00000164BE010814000AFD01ECFC0154E4018A
:10FC1000CEFC015EB401777C585E79716F76060088
:10FC2000003800545C7300506D781C0000006E00BA
:10FC3000777C395E79716F760600003800373F7344
:10FC400000506D783E0000006E00303132333435A4
:10FC5000363738396162636465660001000A006402
:10FC600000E80310273F065B4F666D7C077F670542
:10FC7000102030406080A0FF6E67C579DD61021AF8
:10FC80003214000A00060E0A003C00000040140076
:10FC90000000580201000A00B5FF0000000000004B
:10FCA0008E6D015E2201CE17004C1200A644014465
:10FCB000E5017417000000003CD101BE7A013E1638
:10FCC0000000000046CF01765E014A1600000000E9
:10FCD00046CF01765E01D217000000002414009A7E
:10FCE0005C01000000000000F4CC018281010000F2
:10FCF00000000000F8BF016E7B0100000000000062
:10FD0000AA170064B001000000000000A61700DA86
:10FD10007E016F75744361706163697479203E2060
:10FD200028444154414752414D5F53594E435F531C
:10FD3000495A45202B20444154414752414D5F4D83
:10FD4000494E5F4C454E4754485F53495A45202B16
:10FD500020444154414752414D5F434845434B5332
:10FD6000554D5F53495A4529004173736572746953
:10FD70006F6E206661696C65643A202573206C693A
:10FD80006E652025643A20222573220A00616C6C7E
:10FD9000506F64427566666572735B504F445F4294
:10FDA00055464645525F52585D20213D2028302956
:10FDB00000616C6C506F64427566666572735B506F
:10FDC0004F445F4255464645525F54585D20213DA1
:10FDD0002028302900636F6E6669672D3E73617657
:10FDE0006553657474696E677320213D202830293E
:10FDF000007372632F447269766572732F506F645B
:10FE000073436861696E556172742E6300636F6E2F
:10FE10006669672D3E70726F7669646553697A65AD
:10FE200020213D2028302900636F6E6669672D3ED2
:10FE30007772697465427974657320213D2028309A
:10FE400029007372632F506F6473436861696E2F6A
:10FE5000506F6473436861696E2E6300636F6E66F2
:10FE600069672D3E72656164427974657320213D36
:10FE700020283029007772697465506572696F6453
:10FE8000203E207461736B506572696F6400696E07
:10FE900070757453697A65203E3D2076616C756596
:10FEA00053697A65007372632F5461736B732F52B9
:10FEB0006164696F5461736B2E63007372632F52B8
:10FEC0006164696F2F566172496E742E630073729C
:10FED000632F526164696F2F526164696F2E6300F2
:10FEE000706F64735561727420213D2028302900A1
:10FEF000636861696E20213D2028302900382E3842
:10FF00002E382E382E00286E756C6C2900302E325B
:10FF10004C4F00414C2E484900414C2E4C4F00485C
:10FF2000454C50003030303000362E323000313108
:10FF3000313100323232320033333333003434342F
:10FF40003400353535350031333039002D2D2D2D28
:10FF50000065727231006572723200657272330030
:10FF60006572723400657272550044617461006399
:10FF70006F6E6E0050726F750050483130005048FF
:10FF800020340050482037004641494C004F4F4F25
:10FF90004F0050415353004550742D004E47452E9D
:10FFA000002D41434300436F6E66006E636E6F0029
:10FFB0006275737900636F6E740046414300644557
:10FFC00046006F66660043414C0043484100506F55
:10FFD0006400457272004F4646006F6E0062720008
:10FFE000454C004F52005552006E63004943007269
:10FFF00064007048002A43002A460045430000FF81
:020000040001F9
:1000000059505A100FE1010E0001836F2F0E826FBD
:10001000F10E846FFD0E856FE00E866FFE0E876F0A
:100020009AECFAF059C078F05AC079F033D020EE4B
:10003000CEF07851D9267951DA2201D80AD00500BC
:10004000FA6EDE50FD6EDE50FE6EDE50FF6EFA5030
:1000500012007A6FC4D9DF507B6F7B517825D96E3F
:10006000000E7921DA6E7AC0DFFFB9D910EE64F0A4
:100070007851E1267951E222E7507A6F7A29656F4B
:10008000666B000E6623686B640E676FC6ECDDF06E
:100090006551DF6E78C065F079C066F0000120EE32
:1000A000CAF06551D9266651DA22DF50D96EDA6A74
:1000B000DF500009BCE101D0BAD778C065F079C043
:1000C00066F016D0696B0CD05CD969516525E16E7C
:1000D000000E6621E26EDFCFE7FF53D9DF6A692B9E
:1000E0005CD9DE50695DF0E301D0EED756D9DF066A
:1000F00065C0D9FF66C0DAFF1B0EDE1807E001D02D
:1001000005D04BD9DF50DEE101D0DCD778C072F0EA
:1001100079C073F072C0D9FF73C0DAFF1B0EDE180E
:100120000DE101D00BD020EE64F07251D92673514D
:10013000DA22030EDF6004D001D002D0000E9AD084
:1001400020EE01F018D9756F746B20EE02F013D910
:1001500074130AD974C0DEFF75C0DDFF05D9010E26
:10016000DB5005E15D0EDE5C0FE301D00DD045D91B
:10017000676BC4ECADF0672B630E6765FAD701D0EF
:10018000F8D7CCECADF0DAD7EFD8DECF74F0DDCF16
:1001900075F0050E7427000E752320EE64F0EBD881
:1001A000766F776B7451765D7551775903E2C6D7D8
:1001B00001D0C4D772C06CF073C06DF0D5D8DF50D9
:1001C000050F6E6F706B716B010E6F6F36D0700E16
:1001D000656F6F516C25D96E000E6D21DA6EDF50A0
:1001E000666F6651686F676B6551D96EDA6A6751E1
:1001F000DE1A6851DD1A080E6B6FE2D868AF14D0B2
:1002000001D012D0DDD8D89067376837210E671932
:10021000696F100E68196A6F6551D96EDA6A69C024
:10022000DEFF6AC0DDFF03D065518BEC96F06B07F3
:100230006B51E3E101D0E1D76F2B6E516F5DC7E3E6
:1002400001D0C5D77051711101E002D0010E01D06B
:10025000000E00090EE101D00CD0CFD8676BC4ECC2
:10026000ADF0672B630E6765FAD78BD7F8D789D7C0
:1002700065D7010E000952E059C080F05AC081F0E4
:10028000A7D8DFA005D001D003D0A2D8DF9019D025
:1002900080C06CF081C06DF0000EF9ECFFF06CC016
:1002A00068F06DC069F0000120EECBF06C51D926EA
:1002B0006D51DA22DF50050F6A6F45ECF6F093ECD2
:1002C000F0F080C065F081C066F0000120EECBF058
:1002D0008051D9268151DA22DECF67F0DDCF68F078
:1002E0006A6B6751050F6B6F10D06B516525D96E26
:1002F000000E6621DA6E6A516525E16E000E6621F8
:10030000E26EDFCFE7FF6A2B6B2B70D8DE506B5DA0
:10031000ECE301D0EAD76AD86AC0DFFF59C065F0C4
:100320005AC066F041D8DFA213D001D011D020EE20
:10033000CDF041D8DFCF67F0DF2A0F0E676508D018
:1003400001D006D031D8DF9220EECDF034D8DF6A6C
:100350002BD8DFB201D002D0010E01D0000E00096F
:1003600002E1E3ECE9F0010C20EECBF07251D9266A
:100370007351DA2212007251D9267351DA22DF50FA
:10038000120069516525676F000E6621686F672945
:10039000D96E000E6821DA6E120020EE64F065510D
:1003A000D9266651DA22120020EED1F06551D92605
:1003B0006651DA2212006551D9266651DA221200FE
:1003C0006551D96EDA6ADECF67F0DDCF68F01200D2
:1003D00020EED1F08051D9268151DA22120020EE90
:1003E00064F07851D9267951DA22120020EE64F0B7
:1003F0006551D9266651DA22120072C065F073C0C9
:1004000066F0120001017AECD9F0DFB42CD122EEB3
:100410000EF079ECBAF0DFA226D1C5C1D9FFC6C172
:10042000DAFF98C0E1FF99C0E2FFDE50E65C05E329
:1004300020D90001886F020E38D01BD97F0D41D919
:1004400000019A510101C52500019C6F9B510101DA
:10045000C62100019D6F020E9C259E6F000E9D21FE
:100460009F6F20EE05F09E51D9269F51DA2210EEA3
:1004700001F09851E1269951E222DE50E65C12E249
:1004800020EE02F00FD9100EDF600CD020EE05F048
:1004900009D9030EDF6006D020EE06F003D9640E02
:1004A000DF6405D0E6D8886F030E896FDFD020EEB9
:1004B00001F0F8D8DF50140D04D99A519E259C6F95
:1004C0009B519F219D6F070E9C25A06F000E9D21C3
:1004D000A16FA0C065F0A1C066F098C067F099C098
:1004E00068F020EE02F0E3D810EE02F0C8D801E187
:1004F00002D0010E01D0000E6F6F716B22D020EE82
:1005000003F0D5D8DECF69F0DDCF6AF071516925EF
:10051000D96E000E6A21DA6E715165256C6F000E7E
:1005200066216D6F030E6C25E16E000E6D21E26E8B
:10053000DE50E61805E001D003D0010E6F6F0CD03D
:10054000712B20EE02F06551D9266651DA22DE5079
:10055000715DD5E301D0D3D7010E706F20EE05F0A9
:10056000A6D810EE12F08BD810E101D00ED020EEFC
:1005700006F09DD810EE13F082D807E101D005D027
:100580006F5103E101D001D0706B7051000967E039
:10059000A0C065F0A1C066F098C067F099C068F08F
:1005A0008BD8DF50020DF3CF69F0F4CF6AF06951B8
:1005B0000101C52500016B6F6A510101C6210001CF
:1005C0006C6F060E6B256D6F020E6C216E6F20EE48
:1005D00002F063D810EE02F059D86F6B1CD020EEF9
:1005E00003F05BD8DECF69F0DDCF6AF06F5169258B
:1005F000D96E000E6A21DA6E6F5165256B6F000EA1
:1006000066216C6F030E6B25E16E000E6C21E26EAD
:10061000DFCFE7FF6F2B20EE02F03FD8DE506F5D9B
:10062000DEE301D0DCD720EE05F037D810EE12F073
:100630002DD820EE06F031D810EE13F027D820EE9A
:1006400001F06D51D9266E51DA22DF8035D86DC0A8
:10065000E1FF6EC0E2FFDFCFE7FF07ECFEF0010134
:100660007AECD9F0DF8205D80AEC99F0510EF8EF58
:10067000F5F098C0D9FF99C0DAFFDF50120065513C
:10068000E1266651E222DE50E61812006551E126AD
:100690006651E222DFCFE7FF12006751D926685189
:1006A000DA2212009851D9269951DA2212006751A4
:1006B000D9266851DA22120067C0D9FF68C0DAFF74
:1006C0001200F3CF9AF0F4CF9BF01200CFEC0AF0B7
:1006D00065C073F066C074F0290E00012BD9696BF8
:1006E000020E6B6FDBECF6F0270E24D9020E696F59
:1006F0006B6FDBECF6F0230E1DD9040E2AD9DBEC70
:10070000F6F0250E17D9060E24D9DBECF6F02B0EE9
:1007100011D9080E1ED9DBECF6F02D0E0BD90A0EFE
:1007200018D9DBECF6F03A0E05D90C0E16D9DBEC35
:10073000F6F017D90D0E11D9DBECF6F002D9BAECB0
:10074000D3F043EC08F065C073F066C074F0290E76
:100750000001F0D8100EFDD8DBECF6F0270EEAD839
:10076000120EF7D8DBECF6F0230EE4D8140EF1D815
:10077000DBECF6F0250EDED8160EEBD8DBECF6F04F
:100780002B0ED8D8180EE5D8DBECF6F02D0ED2D80B
:100790001A0EDFD8DBECF6F03A0ECCD81C0EDDD802
:1007A000DBECF6F0DED81D0ED8D8DBECF6F0C9D8BD
:1007B000BAECD3F04FEC08F065C073F066C074F08B
:1007C000290E0001B7D8200EC4D8DBECF6F0270EB6
:1007D000B1D8220EBED8DBECF6F0230EABD8240E37
:1007E000B8D8DBECF6F0250EA5D8260EB2D8DBEC97
:1007F000F6F02B0E9FD8280EACD8DBECF6F02D0EC1
:1008000099D82A0EA6D8DBECF6F03A0E93D82C0E27
:10081000A4D8DBECF6F0A5D82D0E9FD8DBECF6F0D3
:1008200090D8BAECD3F0380E85D8440E92D8DBECD1
:10083000F6F0B80E676F010E686F6A6B300E8DD8D8
:10084000DBECF6F0C30E676F010E686F6A6B310E5A
:1008500084D8DBECF6F0C40E676F010E686F6A6B2C
:10086000320E7BD8DBECF6F00101C497D30E000109
:10087000676F010E686F6A6B330E78D8DBECF6F0A9
:10088000550E676F686B6A6B380E70D8DBECF6F04C
:10089000DB0E676F010E686F6A6B3C0E67D8DBEC8E
:1008A000F6F0D70E676F010E686F6A6B400E5ED868
:1008B000DBECF6F05C0E676F686B6A6B460E4DD82A
:1008C000DBECF6F0DF0E676F010E686F6A6B470EA8
:1008D00040D8DBECF6F0E50E676F010E686F6A6BCF
:1008E000490E37D8DBECF6F019EC0BF065296E6F8A
:1008F000000E66216F6F6EC067F06FC068F06A6BA4
:10090000500E2BD8DBECF6F0706B702B0E0E706572
:10091000FCD7710E676F686B6A6B880E1ED8DBECB4
:10092000F6F071B103D00101CC9102D00101CC816C
:10093000000012007325676F000E7421686F6A6BE8
:10094000120073C065F074C066F072C067F0686B27
:100950001200696F020E6B6F020C696F010E6B6FF4
:10096000010C720E676F686B6A6B1200696F040E80
:100970006B6F040C0450800B0D6E04500424136E36
:1009800003BE1380135008E0132804E1016A026AD1
:10099000036A046A038E04D0016A026A036A046A65
:1009A0000850800B0D1A085008240E6E07BE0E80EA
:1009B0000E5008E00E2804E1056A066A076A086A14
:1009C000078E04D0056A066A076A086A0E5002E0BC
:1009D000135005E1016A026A036A046A12000750B3
:1009E0000102F3CF18F0F4CF19F018500F6E106A0F
:1009F000116A126A1950146E156A166A176A06503F
:100A00000202F3CF18F0F4CF19F018500F26000EA1
:100A100010221122122219501426000E152216221D
:100A2000172205500302F3CF18F0F4CF19F0185035
:100A30000F26000E10221122122219501426000E29
:100A400015221622172211C012F010C011F00FC08B
:100A500010F00F6A05500202F3CF18F0F4CF19F02E
:100A600018500F2619501022000E11221222065083
:100A70000102F3CF18F0F4CF19F018500F261950D7
:100A80001022000E1122122211C012F010C011F01B
:100A90000FC010F00F6A05500102F3CF18F0F4CF29
:100AA00019F018500F2619501022000E1122122290
:100AB00007500202F3CF18F0F4CF19F018501426A3
:100AC00019501522000E1622172206500302F3CFEA
:100AD00018F0F4CF19F01850142619501522000EF2
:100AE0001622172207500302F3CF18F0F4CF19F0A3
:100AF0001850096E19500A6E0B6A0C6A0BC00CF084
:100B00000AC00BF009C00AF0096A095014260A50FD
:100B100015220B5016220C50172212501426000ECC
:100B200015221622172211C012F010C011F00FC0AA
:100B300010F00F6A0E5013C009F00A6A0926000E61
:100B40000A22820E0924186EFF0E0A20196E0FD099
:100B5000D890143615361636173612BE1480D89033
:100B60000F361036113612361806D8A0190616AEF2
:100B7000EFD70E6A12AE13D00F50096E10500A6EE6
:100B800011500B6E7F0E12140C6E09500A100B10D0
:100B90000C1003E0010E0E6E02D014B0FBD70E5005
:100BA0000EE0142A000E15221622172217A007D0D5
:100BB00017341732163215321432184A192A19BE50
:100BC0000AD0195002E1182806E3146A156A800E4B
:100BD000166E7F0E15D019BE04D0195008E1180406
:100BE00006E2146A156A166A176A0D6A0AD018C0F6
:100BF00013F07F0E1616176A13B0168ED8901330A6
:100C0000176E0D50171214C001F015C002F016C077
:100C100003F017C004F012009F0501E028D1CFECCB
:100C20000AF065C076F066C077F0290E000123D97E
:100C30006B6B020E6D6F93ECE9F0270E1CD9020E60
:100C40006B6F6D6F93ECE9F0230E15D9040E1AD972
:100C500093ECE9F0250E0FD9060E14D993ECE9F0C8
:100C60002B0E09D9080E0ED993ECE9F02D0E03D9FD
:100C70000A0E08D993ECE9F03A0EFDD80C0E06D90D
:100C800093ECE9F0350EF7D80D0E00D993ECE9F0AE
:100C900043EC08F065C076F066C077F0290E0001DD
:100CA000EAD8100EEFD893ECE9F0270EE4D8120E34
:100CB000E9D893ECE9F0230EDED8140EE3D893ECD8
:100CC000E9F0250ED8D8160EDDD893ECE9F02B0EFE
:100CD000D2D8180ED7D893ECE9F02D0ECCD81A0E36
:100CE000D1D893ECE9F03A0EC6D81C0ECFD893ECCD
:100CF000E9F0350EC0D81D0EC9D893ECE9F04FECE1
:100D000008F065C076F066C077F0290E0001B3D810
:100D1000200EB8D893ECE9F0270EADD8220EB2D849
:100D200093ECE9F0230EA7D8240EACD893ECE9F0AD
:100D3000250EA1D8260EA6D893ECE9F02B0E9BD851
:100D4000280EA0D893ECE9F02D0E95D82A0E9AD84B
:100D500093ECE9F03A0E8FD82C0E98D893ECE9F08A
:100D6000350E89D82D0E92D893ECE9F0380E83D841
:100D7000440E88D893ECE9F0B80E696F010E6A6FE3
:100D80006C6B300E83D893ECE9F0C30E696F010EE3
:100D90006A6F6C6B310E7AD893ECE9F0C40E696F10
:100DA000010E6A6F6C6B320E71D893ECE9F0D30EC2
:100DB000696F010E6A6F6C6B330E6CD893ECE9F0BF
:100DC000550E696F6A6B6C6B380E64D893ECE9F062
:100DD000DB0E696F010E6A6F6C6B3C0E5BD893EC97
:100DE000E9F0D70E696F010E6A6F6C6B400E52D836
:100DF00093ECE9F05C0E696F6A6B6C6B460E46D83B
:100E000093ECE9F0DF0E696F010E6A6F6C6B470EB1
:100E100039D893ECE9F0E50E696F010E6A6F6C6BDF
:100E2000490E30D893ECE9F019EC0BF06529726F9C
:100E3000000E6621736F72C069F073C06AF06C6B4C
:100E4000500E24D893ECE9F0756B752B0E0E75657A
:100E5000FCD70101000ECCB1010E0001746F740EBD
:100E6000696F6A6B6C6B880E11D893ECE9F0010125
:100E70009F6B000012007625696F000E77216A6F64
:100E80006C6B12006B6F020E6D6F020C6B6F010EBC
:100E90006D6F010C6B6F040E6D6F040C7451DFEC01
:100EA00097F0030EDF6E7451D96EDA6ADECF75F0FB
:100EB000DDCF76F075C0D9FF76C0DAFF1B0EDF6E8E
:100EC0007451DFEC97F0F9D83D0EDF6E7451DFEC12
:100ED00097F0DF2A7451DFEC97F0EFD8DF6A745196
:100EE000DFEC97F0DF2A745124ECAFF0DECF65F031
:100EF000DDCF66F06B6B6B51020DF3CF67F0F4CF73
:100F000068F067516525696F685166216A6F070E41
:100F10006925D96E020E6A21DA6EDFA004D001D0F5
:100F200002D06B2907D06B2B030E6B65E4D701D081
:100F3000E2D7000E786F785101E1010C7451DFECBB
:100F400097F0BBD878C0DFFF7451DFEC97F0DF2A51
:100F500074C065F078C066F066517F0DD8D86551D1
:100F600024ECAFF0DECF69F0DDCF6AF06751692580
:100F70006B6F68516A216C6F830E6B256F6FFF0E6C
:100F80006C21706FBAD8DA22DF506D6FB6D87DD879
:100F90006551DFEC97F0DF2A716B62D07151140D4F
:100FA000B6D867516F25696F685170216A6F070E57
:100FB0006925726F000E6A21736F6551DFEC97F03F
:100FC0008CD871C0DFFF6551DFEC97F0DF2A6E6BC4
:100FD00024D06E517225676F000E7321686F030E67
:100FE0006725D96E000E6821DA6E655108EC98F01D
:100FF000696F6551E16EE26AE6CF6AF0E5CF6BF0AA
:1010000069516A25E16E000E6B21E26EDFCFE7FFCA
:101010006551DFEC97F0DF2A6E2B20EE02F073D8DB
:10102000DA22DE506E5DD5E301D0D3D76551DFEC17
:1010300097F053D8DF6A6551DFEC97F0DF2A20EE96
:1010400012F061D822D86551DFEC97F0DF2A20EE4C
:1010500013F059D81AD86551DFEC97F0DF2A712BBD
:101060006D51715D9BE301D099D7745197EC9FF05E
:10107000CBECA9F0E76A74519CEC9FF0CBECA9F0A3
:101080007451DFEC97F0F5EFC3F0DA226551E16EB1
:10109000E26A020EE126E750676F6551E16EE26A8F
:1010A000E6CF68F0E5CF69F067516825E16E000E84
:1010B0006921E26EDFCFE7FF1200DF50756F7451D8
:1010C000D96EDA6ADECF76F0DDCF77F0755176250E
:1010D000D96E000E7721DA6E1200DF50676F65510E
:1010E000D96EDA6ADECF68F0DDCF69F06751682526
:1010F000D96E000E6921DA6E120020EE05F06F51F4
:10110000D926705112007251D92673511200F3CFB3
:1011100067F0F4CF68F012006851800B716F68516E
:101120006825736F67BF7381735105E0732901E10F
:1011300006D9678F03D0656B666B676B686B6C5104
:10114000800B726F711901E0718D6C516C25726F9B
:101150006BBF7281725108E0722904E1696B6A6B9E
:101160006B6B6C6B6B8F03D0696B6A6B6B6B6C6BAF
:101170007351725D22E271AD02D0800E711B73C09B
:1011800074F072C073F074C072F065C074F069C01E
:1011900065F074C069F066C074F06AC066F074C02F
:1011A0006AF067C074F06BC067F074C06BF068C021
:1011B00074F06CC068F074C06CF0746B735172C0E2
:1011C0006DF06E6B6D5F000E6E5B6EBF15D06E5175
:1011D00003E11A0E6D5D10E3C7D8010ED8B4000EFE
:1011E000746FADD872C073F00AD074A102D0B7D8B2
:1011F00002D0D89074339AD87251735DF6E371BD02
:1012000015D0735101E1A6D0695165276A51662353
:101210006B5167236C51682368A153D074A102D02D
:101220009ED802D0D890743381D84BD06951655D77
:101230006A5166596B5167596851800A6D6F6C51DC
:10124000800A6D591FE26551695D6D6F66516A597B
:101250006E6F67516B596F6F68516C59706FFF0EED
:101260006D25656FFF0E6E21666FFF0E6F21676F34
:10127000FF0E7021686F800E711B746D74510AE14E
:1012800063D808D06951655F6A51665B6B51675BD3
:101290006C51685B69D813E1745111E15BD0D8904F
:1012A000653766376737683774BF658174A102D0C8
:1012B000D88001D0D8907437735101E0730767AFBD
:1012C000EED7726B74AF0AD074C06DF07F0E6D17DD
:1012D00003E0010E726F02D065B1FBD772510BE0D3
:1012E00033D868A108D0683568336733663365330F
:1012F000732901E0732B732902E0735104E11FD8B5
:10130000735101E1716B73A102D0678F01D0679FA8
:10131000D8907331686F71BF688F65C065F066C023
:1013200066F067C067F068C068F0120065B1748F3E
:1013300068356833673366336533732B1200656B2A
:10134000666B676B686B1200652B000E6623672364
:101350006823000C656B666B676B686B1200D89036
:1013600074310109746F12006551661167116811BB
:1013700012009B6F00019B51D8ECEBF067C09CF012
:1013800068C09DF000019C519D11D8B412009CC012
:1013900065F09DC066F00EECFAF00009D8B41200BA
:1013A000250E9E6F9F0E916F926B91C0D9FF92C0D8
:1013B000DAFF9BC0DFFF20EE01F09151D926925158
:1013C000DA2210EE3AF0F4D8E222E750B3EC07F05C
:1013D000DF6E9E0EB8D8ADECC7F020EE22F0C1D87B
:1013E000DF501EE1260E9E6F9F0E936F946B93C08D
:1013F000D9FF94C0DAFFCCD8B4D810EE01F09351E5
:10140000E1269451A8D820EE1FF0ABD810EE03F0DF
:101410009351E1269451B7D896D8ADECC7F04CD093
:10142000270E9E6F9F0E976F986B97C0D9FF98C03D
:10143000DAFFAED896D810EE23F0BAD8B3ECB6F0F7
:101440009BD8D8A020EE23F08CD8DECF8DF0DDCF56
:101450008EF020EE01F0B0D88DC0DEFF8EC0DDFF33
:1014600020EE1FF07ED810EE03F09751E126985140
:10147000E222DFCFE7FF20EE23F073D810EE25F055
:1014800097D8B3ECB6F078D8D8A020EE23F069D87E
:10149000DECF8FF0DDCF90F020EE04F08DD88FC03E
:1014A000DEFF90C0DDFF20EE1FF05BD810EE06F0EF
:1014B0009751E1269851AFD7290E9E6F9F0E956FD9
:1014C000966B6FD820EE2BF04CD850D844D89E0E97
:1014D0003AD8ADECC7F02A0E9E6F63D820EE2DF0FF
:1014E00040D844D838D89E0E2ED8ADECC7F02B0E7D
:1014F0009E6F9F0E996F9A6B99C0D9FF9AC0DAFFC1
:101500009BC0DFFF20EE27F02CD810EE01F045D86D
:1015100022D820EE1FF025D810EE03F03ED8E222AC
:10152000DFCFE7FF20EE29F01CD810EE04F035D80D
:1015300012D820EE1FF015D810EE06F02ED823D8C2
:1015400002D8ADEFC7F07E6FF6C07FF0F7C080F035
:10155000F8C081F01200E222DECFE6FFDDCFE5FF2A
:1015600012009C51D9269D51DA22120010EE01F092
:101570009551E126965112008C6FDE50800A8C59ED
:1015800020EE25F01200E222DFCFE7FF9E0E1200D0
:101590009BC0DFFF20EE25F012009951E1269A5101
:1015A000120095C0D9FF96C0DAFF9BC0DFFF120082
:1015B0009C51E1269D5112009751D9269851DA226B
:1015C0001200ECECE4F007D90FD98DECEBF0F4D875
:1015D00058ECD6F07DC0E2F07EC0E3F07FC0E4F0CE
:1015E00080C0E5F0DEC0D1F0DFC0D2F0E0C0D3F0C3
:1015F000E1C0D4F0E2C0D5F0E3C0D6F0E4C0D7F04B
:10160000E5C0D8F0C10ED96F020EDA6FB80EDB6FED
:10161000020EDC6F42ECDBF0D1C024F2D2C025F226
:10162000DAD8320EE8D88DECEBF0C6D858ECD6F00C
:101630007DC0E6F07EC0E7F07FC0E8F080C0E9F052
:10164000CAD8D2D88DECEBF0B7D858ECD6F07DC024
:10165000EAF07EC0EBF07FC0ECF080C0EDF0E6C0B9
:101660009AF0E7C09BF0E8C09CF0E9C09DF0EAC0AA
:101670009EF0EBC09FF0ECC0A0F0EDC0A1F0E20E38
:10168000A26F030EA36FD8EC9CF09AC026F29BC009
:1016900027F2A1D8640EAFD88DECEBF08DD858ECC2
:1016A000D6F07DC08AF07EC08BF07FC08CF080C009
:1016B0008DF07DECF9F08AC028F28BC029F28BD82E
:1016C000640E99D88DECEBF077D858ECD6F07DC04D
:1016D000EEF07EC0EFF07FC0F0F080C0F1F0DEC031
:1016E0008AF0DFC08BF0E0C08CF0E1C08DF0EEC07E
:1016F0008EF0EFC08FF0F0C090F0F1C091F02AECC6
:10170000D5F08AC02AF28BC02BF265D86DD88DEC4B
:10171000EBF052D858ECD6F07DC08AF07EC08BF04A
:101720007FC08CF080C08DF0FBECF7F08AC02CF20B
:101730008BC02DF250D858D88DECEBF03DD858EC3A
:10174000D6F07DC08AF07EC08BF07FC08CF080C068
:101750008DF0CEECF1F08AC02EF28BC02FF23BD888
:101760003C0E49D88DECEBF027D858ECD6F07DC074
:1017700093F07EC094F07FC095F080C096F0CEECE0
:10178000EDF093C030F294C031F2240E656F020E7A
:10179000666F686B070E676FDEC069F0DFC06AF0C6
:1017A000E0C06BF0E1C06CF0420E6D6FF60E6E6F34
:1017B000010E6F6F6BEFF8F071C07DF072C07EF0BC
:1017C00073C07FF074C080F0E80E816F030E826FEB
:1017D000836B846B030CDEC071F0DFC072F0E0C07D
:1017E00073F0E1C074F01200E80E756F030E766FAF
:1017F000776B786B030C756F766B776B786B120079
:101800007DC1D9FF7EC1DAFF01D80AD00500FA6E8A
:10181000DE50FD6EDE50FE6EDE50FF6EFA5012009E
:1018200065C0F0F366C0F1F30301F051F1113BE044
:1018300001017B510301F01936E101017C510301E3
:10184000F11931E1000E0001676F0C0E686F6A6BD1
:10185000FA0E696F010120EE03F07D51D9267E5109
:10186000DA2201D80AD00500FA6EDE50FD6EDE5095
:10187000FE6EDE50FF6EFA50120067C0EEF368C0D5
:10188000EFF3000EE16F0C0EE26FEEC3E3F0EFC377
:10189000E4F0000EE56F0B0EE66F000EE86FFA0E37
:1018A000E76F64ECACF0F0C37BF1F1C37CF100C2F4
:1018B0006EF001C26FF002C270F003C271F002015B
:1018C000002B000E0123022303236EC065F06FC0BE
:1018D00066F070C067F071C068F004C269F005C2BC
:1018E0006AF006C26BF007C26CF0CAECDFF065511B
:1018F00066116711681101E002D0010E01D0000EDF
:1019000000095CE0000E0301F26F0B0EF36FF20EA4
:101910000001826F030E836F856BFA0E846FF40EE5
:10192000866F030E876FC8ECFBF0F2C366F0F3C35B
:1019300067F0F4C368F0F5C369F0010120EE06F02A
:101940007D51D9267E51DA2201D80AD00500FA6EDF
:10195000DE50FD6EDE50FE6EDE50FF6EFA5012005D
:1019600020EE01F03650D9263750DA22DFB611D0FA
:1019700001D00FD020EE01F03650D9263750DA22B0
:10198000DFBA01D002D0010E01D0000E656F666B88
:101990000AD020EE01F03650D9263750DA22DF96F1
:1019A000666B010E656F20EE01F03650D926375078
:1019B000DA2265B102D0DF9A01D0DF8A20EE01F091
:1019C0003650D9263750DA22DFAA010C01D0010C9B
:1019D00020EE02F03650D9263750DA22DE2A000EE9
:1019E000DE22DE22DD22DD52DD52030EDB500BE172
:1019F000020EDB5008E1010EDB5005E10A0EDE5C51
:101A00001AE301D0010C20EE01F03650D9263750F0
:101A1000DA22DF8820EE01F03650D9263750DA225C
:101A2000DF9A20EE02F03650D9263750DA22DE6AED
:101A3000DE6ADE6ADD6A010C8051800B896F80519D
:101A400080258B6F7FBF8B818B5105E08B2901E156
:101A500002D97F8F01D0FFD88451800B891B84511C
:101A600084258A6F83BF8A818A5105E08A2901E132
:101A7000EDD8838F01D0EAD88A5102E08B5105E17D
:101A80007D6B7E6B7F6B806B120083517D03B1D8C1
:101A90008C6F8D6B8E6B8F6B9551906F916B926B82
:101AA000936B82517E03A5D8B2D881517F03A1D810
:101AB000AED8A5D881517E039CD8B5D882517D037C
:101AC00098D8B1D89CD881517D0393D8ACD8835194
:101AD0007E038FD8B4D882517F038BD8B0D883517E
:101AE0007F0387D8856F9551866F876B886B87C01A
:101AF00088F086C087F085C086F0856B8551902779
:101B00008651912387519223885193238F51902797
:101B100091D875D88A518BC085F0866B8527000EC9
:101B20008623820E8525946FFF0E8621956F0FD038
:101B3000D89090379137923793378FBF9081D89054
:101B40008C378D378E378F379407D8A0950792AF93
:101B5000EFD78A6B8FAF13D08C51856F8D51866F05
:101B60008E51876F7F0E8F15886F85518611871173
:101B7000881103E0010E8A6F02D090B1FBD78A5121
:101B80000BE0902B57D893A107D093359333923322
:101B900091339033944B952B95BF0AD0955102E128
:101BA000942906E3906B916B800E926F7F0E15D097
:101BB00095BF04D0955108E1940506E2906B916BB6
:101BC000926B936B896B0AD094C08BF07F0E921747
:101BD000936B8BB1928FD8908B31936F8951931304
:101BE00090C07DF091C07EF092C07FF093C080F0F5
:101BF0001200F3CF94F0F4CF95F0945112008EC000
:101C00008FF08DC08EF08CC08DF08C6B12008C2705
:101C1000000E8D238E238F2395519027000E912344
:101C200092239323000C8C2795518D23000E8E2335
:101C30008F23000C000E912392239323000C9027F6
:101C400095519123000E92239323000C816B826B9C
:101C5000836B846B12007D6B7E6B7F6B806B1200DD
:101C60008A6F00018B6B070E8A190FE102ECF4F00A
:101C7000F1D872ECFAF0FEECF3F0ECD872ECFAF07A
:101C8000FAECF3F0E7D872EFFAF0090E8A19D8B43B
:101C90001200896BA5D085C0D9FF86C0DAFF83C04A
:101CA000E1FF84C0E2FFDE50E61801E1A7D08B51CE
:101CB000220F7E6F300E7F6F83C0D9FF84C0DAFFA2
:101CC000DF50806F8B511B0F72ECFAF097D020EE33
:101CD00001F0C8D810EE01F08351E1268451E222D0
:101CE000DE50E61801E18AD08B51770F7E6F300EFF
:101CF0007F6F20EE01F09AD8700F72ECFAF07ED070
:101D000020EE02F0AFD810EE02F08351E1268451AC
:101D1000E222DE50E61872E08B51470F8FD886D84A
:101D2000440F72ECFAF0A3D889D880D84B0F72EC2C
:101D3000FAF0A1D883D87AD84B0F72ECFAF05ED0C3
:101D400020EE03F08FD810EE03F08351E12684518A
:101D5000E222DE50E61852E08B51220F7E6F370EE2
:101D60007F6F20EE03F062D81B0F72ECFAF046D0C2
:101D700020EE04F077D810EE04F08351E126845170
:101D8000E222DE50E6183AE08B51770F7E6F370E75
:101D90007F6F20EE04F04AD8700F72ECFAF02ED06C
:101DA00020EE05F05FD810EE05F08351E126845156
:101DB000E222DE50E61822E08B51470F45D836D894
:101DC000440F72ECFAF053D83FD830D84B0F72EC76
:101DD000FAF051D839D82AD84B0F72ECFAF00ED05D
:101DE0008A5101E158D7010A01E171D7030A88E05D
:101DF000010AA6E0070ABCE0010AD2E00B0E0001CE
:101E00008B27892B030E8965EBD7060E8A61060C9A
:101E10008A518325D96E000E8421DA6E8A51852578
:101E2000E16E000E8621E26EAAEFC2F08351D92640
:101E30008451DA22DF50806F8B5112007E6F300E9A
:101E40007F6F20EE02F0300C7E6F370E7F6F20EE3A
:101E500005F0370C7F6F83C0D9FF84C0DAFFDF50F5
:101E6000806F180C8551D9268651DA2212000001A4
:101E70008B514B0F120000018B514E0F1200656BFE
:101E80000101C4AB0AD001D008D0E4D8DAD8DFB25F
:101E900004D001D002D0010E656F00016551000928
:101EA00027E022EE0EF0CDD8DF50C30B0409DF6E21
:101EB0000101C4A91AD0CAD8C4D8DF5006E0BAD8E4
:101EC000DF9C030E31EC0BF00BD0B4D8DF8CB2D812
:101ED000DF9EB0D8DF98AED8DF86040E31EC0BF071
:101EE000B5D8AFD8BFD8DFCFE7FFB4D8AAD8DF8244
:101EF000A1D8DFB409D001D007D022EE0EF0A1D8CE
:101F0000DFA004D001D002D0000E26D00101AF2BFB
:101F1000AF050001656FA60E6565F6D701D0F4D751
:101F200022EE0EF08ED8DF30E8320F0B12E001D037
:101F300010D022EE0EF085D8DF30656F65310F0BC3
:101F4000656F652B65376537DF506519C30B6519FC
:101F5000DF6E0101AF6B010E000904E0010E31ECF0
:101F60000BF03BD07BD86DD8DFA004D001D002D0DD
:101F7000000E20D0696B6951020DF3CF65F0F4CFEC
:101F800066F06551F925676F6651FA21686F070E93
:101F90006725D96E020E6821DA6EDFA004D001D069
:101FA00002D0010E07D0692B030E6965E4D7E0D794
:101FB000E2D7DED7000911E03DD8DF923BD8DF90B1
:101FC00039D8DF8422EE0EF03CD8DF8022EE0EF00E
:101FD00038D8DF92090E31EC0BF03CD832D8DFA2B2
:101FE000120001D012000101C4AB120001D0120096
:101FF000010E0001656F000EE8ECFAF022EE0EF023
:1020000020D8DF30E8320F0B676F010E6765010CD7
:1020100001D0120022EE07F014D8DF920101C49B18
:102020001DD80FD8C30EDF16050E656F010EE8EC44
:10203000FAF0120022EE01F0F951D926FA51DA2213
:102040001200F951D926FA51DA221200000121EECC
:10205000FEF01200000122EE07F01200000122EE55
:102060000EF0120010EE01F0F951E126FA51E222D1
:1020700012009DD020EE01F0DF51D926E051DA2286
:10208000DF5087EF08F0010122EE01F0C551D9269B
:10209000C651DA22DFA421EFBAF0120020EE01F0DF
:1020A000DF51D926E051DA22DF500AEFEAF020EEC4
:1020B00001F0DF51D926E051DA22DF507CEF08F041
:1020C00020EE01F0DF51D926E051DA22DF50E7EFB0
:1020D00006F0DF29986F000EE021996FBFEFD2F074
:1020E000DF29986F000EE021996F71EF08F0DF296A
:1020F000986F000EE021996FEAEFB7F0DF29986F33
:10210000000EE021996F3EEF98F0DF29986F000EE6
:10211000E021996FA4EFD5F0DF29986F000EE02140
:10212000996FDAEFCEF0DF29986F000EE021996FFA
:1021300055EFA0F020EE01F0DF51D926E051DA2270
:10214000DF508FEF07F020EE01F0DF51D926E0518C
:10215000DA22DECF98F0DDCF99F043EF09F020EEE0
:1021600001F0DF51D926E051DA22DECF98F0DDCF41
:1021700099F03BEF0BF0DF29986F000EE021996F8B
:1021800002EF82F0DF29656F000EE021666F66EFD7
:10219000F2F0DF29656F000EE021666FD5EFFCF0ED
:1021A000DF29936F000EE021946FCBEF0BF0DFC0BF
:1021B000D9FFE0C0DAFFDF5002E1FBEFE6F0010AF1
:1021C000D8B41200030A02E1EBEFCCF0010AD8B454
:1021D0001200070A01E14ED7140A02E1F4EF06F0FB
:1021E000080A02E15EEF09F0380A01E14CD7610A02
:1021F00001E154D7030A01E15AD7010A01E160D78E
:10220000070A01E166D7010A01E16AD7030A01E181
:102210006ED7010A01E172D70E0A01E176D7030AEF
:1022200001E17AD7010A01E17ED71A0AA4E0310A56
:10223000D8B41200010AADE0100AD8B41200F10AB5
:1022400001E178D7030A01E17ED7070A88E0140A82
:10225000D8B41200010AA4E0030A94E01200F1C00D
:1022600072F0F2C073F0F3C074F0F4C075F093EC48
:10227000F4F0000901E01200ECECFBF070C0E8F1B2
:1022800071C0E9F1E8C1D9FFE9C1DAFFDF50030B02
:10229000030A03E1010E0101B26F0101B20514E16D
:1022A000E8C1D9FFE9C1DAFFDF50030B030A0CE0F4
:1022B000E8C1D9FFE9C1DAFFDF500001F56F700E08
:1022C000F51702E10101B26B0101B20501E0A5D0F1
:1022D000E9EC0AF065C0EAF166C0EBF1E8C1D9FFAC
:1022E000E9C1DAFFDFA817D0898E898C010E0001C1
:1022F000656F010120EE3AF0EA51D926EB51DA225E
:10230000DE04010ED8A4000E0001666F000E676B9C
:1023100056ECF3F015D0899E899C0001656B010194
:1023200020EE3AF0EA51D926EB51DA22DE04010E12
:10233000D8A4000E0001666F000E676B56ECF3F038
:10234000DDEC0AF065C0EAF166C0EBF1E8C1D9FF47
:10235000E9C1DAFFDFAA16D08F86010E0001656F92
:10236000010120EE3AF0EA51D926EB51DA22DE04DF
:10237000010ED8A4000E0001666F676B010E56ECCB
:10238000F3F014D08F960001656B010120EE3AF056
:10239000EA51D926EB51DA22DE04010ED8A4000E50
:1023A0000001666F676B010E56ECF3F0E3EC0AF088
:1023B00065C0EAF166C0EBF1E8C1D9FFE9C1DAFF17
:1023C000DFAC16D08F80010E0001656F010120EE99
:1023D0003AF0EA51D926EB51DA22DE04010ED8A4F4
:1023E000000E0001666F676B020E56ECF3F019D019
:1023F0008F900001656B010120EE3AF0EA51D92679
:10240000EB51DA22DE04010ED8A4000E0001666F43
:10241000676B020E56ECF3F004D0899E899C8F9670
:102420008F90F1C0E3F0F2C0E4F0F3C0E5F0F4C047
:10243000E6F0010E0001E76FE86BE96BEA6BEB6B0E
:10244000A0EF9AF0E1EC0BF09DECDAF00001926B5A
:10245000936B946B956B916BFD0ED5D87E6B1FECD7
:1024600008F09DECDAF0680E0001906FE40EE82EA3
:10247000FED7902FFCD70000FD0E0001C4D87E6F60
:102480001FEC08F09DECDAF0680E0001906FE40E8E
:10249000E82EFED7902FFCD700000001912B020EF2
:1024A0009165DAD79281920E8D6FB3ECEBF000015B
:1024B0009283920E8D6FB3ECEBF000019285920E39
:1024C0008D6FB3ECEBF000019287920E8D6FB3EC41
:1024D000EBF000019289920E8D6FB3ECEBF00001EE
:1024E000928B920E8D6FB3ECEBF00001928D920EF9
:1024F0008D6FB3ECEBF00001928F920E8D6FB3EC09
:10250000EBF00001938B920E8D6FB3ECEBF00001BA
:102510009389920E8D6FB3ECEBF000019387920ECE
:102520008D6FB3ECEBF000019385920E8D6FB3ECE1
:10253000EBF000019383920E8D6FB3ECEBF0000192
:102540009381920E8D6FB3ECEBF00001938F920E9E
:102550008D6FB3ECEBF000019481920E8D6FB3ECB4
:10256000EBF00001938D920E8D6FB3ECEBF0000158
:102570009483920E8D6FB3ECEBF000019487920E72
:102580008D6FB3ECEBF000019485920E8D6FB3EC80
:10259000EBF000019489920E8D6FB3ECEBF000012B
:1025A0009589920E8D6FB3ECEBF000019583920E3E
:1025B0008D6FB3ECEBF00001948B920E8D6FB3EC4A
:1025C000EBF00001948F920E8D6FB3ECEBF00001F5
:1025D000948D920E8D6FB3ECEBF000019581920E0D
:1025E0008D6FB3ECEBF00001958B920E8D6FB3EC19
:1025F000EBF000019585920E8D6FB3ECEBF0E1EC02
:102600000BF09DEFDAF07A6FFE0E7B6F010E7C6FA0
:1026100091C07DF0010C686F82D06E0E656F170E51
:10262000666F000E676F1200740E656FA20E666F04
:10263000010E676F1200D40E656FF80E666F010E03
:10264000676F12000C0E656FF50E666F010E676FF7
:102650001200760E656FC40E666F010E676F120072
:10266000F20E656F9A0E666F010E676F12003C0ED8
:10267000656FDD0E666F010E676F1200A60E656F47
:10268000F20E666F010E676F12009A0E656FD50E1F
:10269000666F010E676F12004C0E656FDE0E666F7F
:1026A000010E676F1200080E656FDE0E666F010E79
:1026B000676F1200E20E656FDB0E666F010E676FCB
:1026C0001200C40E656FDD0E666F010E676F12009B
:1026D0009C0E656FCC0E666F010E676F1200420E86
:1026E000656FD00E666F010E676F1200160E656F74
:1026F000B60E666F010E676F1200940E656F880E3E
:10270000666F010E676F1200800E656FDD0E666FDB
:10271000010E676F1200656B666B676B120000013C
:10272000685182E0020AF0E0010A85E0070A8AE0C7
:10273000010A88E0030ABEE0010A84E00F0AACE067
:10274000180AE2E0010A85E0090ADEE0010A88E0F1
:10275000030A8DE03A0AD8E0010A01E16CD7030AC6
:1027600001E169D7010A8AE0070A8FE0010A9BE0CC
:10277000030AA7E0010AACE00E0AB1E0030AAFE0E9
:10278000010AA6E01B0AB2E0010AB7E0700ABCE049
:10279000030ABAE0010AB8E0070AB6E0010AB4E0A9
:1027A000030AB2E0010AB0E00E0AAEE0030AACE0B0
:1027B000010AAAE01A0AA8E0310A01E12ED7110A9B
:1027C00001E163D7F10AA0E0030A9EE0070A9CE05A
:1027D000140A01E153D7010A01E11FD7030A01E1FD
:1027E0001CD799D79D6B9E6B9F6BA06B9E0E9D6FA8
:1027F000EF0E9E6FE10E9F6F410EA06FA3D8D1EC3C
:10280000A8F0CED85C0E816FFE0E826FE80E836F4B
:102810003A0E846F1CEC8DF07DC099F07CD88CEC66
:1028200088F0ACD88FD8D1ECA8F0BAD88BD8D1EC3E
:10283000A8F0ADD81CEC8DF09CD88ED8ED0E816F31
:10284000450E826FDE0E836FB20E846F1CEC8DF02E
:102850007DC099F060D88CEC88F090D873D8D1EC1A
:10286000A8F09ED86FD8D1ECA8F091D81CEC8DF0D0
:1028700080D872D867D8D1ECA8F089D81CEC8DF03C
:1028800078D86AD83A0E816F6D0E826FA00E836F72
:102890002B0E846F1CEC8DF07DC099F03CD88CEC35
:1028A00088F06CD89DC07DF09EC07EF09FC07FF008
:1028B000A0C080F0816B826B200E836F410E846F0D
:1028C0001CEC8DF07DC09DF07EC09EF07FC09FF01F
:1028D00080C0A0F09DC08FF09EC090F09FC091F08E
:1028E000A0C092F092ECC8F08FC09DF090C09EF016
:1028F00091C09FF092C0A0F09DC065F09EC066F0B0
:102900009FC067F0A0C068F0C3ECC6F065C097F048
:1029100066C098F012007EC09AF07FC09BF080C025
:102920009CF09DC065F09EC066F09FC067F0A0C09F
:1029300068F099C069F09AC06AF09BC06BF09CC0C7
:102940006CF0120097C06FF098C070F0000E70BF6E
:10295000FF0E716F726F010C7FC09BF080C09CF006
:1029600099C07DF09AC07EF09BC07FF09CC080F043
:1029700012007DC099F07EC09AF0120065C09DF0F3
:1029800066C09EF067C09FF068C0A0F012006FC0E4
:1029900081F070C082F071C083F072C084F01200C8
:1029A0006FC07DF070C07EF071C07FF072C080F0AB
:1029B0001200CFEC0AF065C079F066C07AF0AED8AC
:1029C0008FD8C80EDE6EDD6A20EE27F089D86E0E35
:1029D000B5D886D8B40EDE6EB6D882D8B40EA9D8D3
:1029E0007FD8010EDE6E81D87BD883D879D8010ECE
:1029F000DF6E98D8BAECD3F043EC08F065C079F0FC
:102A000066C07AF08BD86CD82C0EDE6E010E9FD883
:102A100067D8640E93D864D8960EDE6E94D860D8CA
:102A2000FA0E87D85DD8DE6A60D85AD862D858D8EE
:102A3000DF6A78D8BAECD3F04FEC08F065C079F0D3
:102A400066C07AF06BD84CD88A0EDE6E020E7FD844
:102A500047D8300EDE6E020EDD6E20EE23F040D839
:102A60007FD820EE25F03CD87BD820EE2BF038D84C
:102A7000010EDE6E3AD834D83CD832D8020EDF6E62
:102A800051D8BAECD3F020EE38F02AD8DE6ADD6AED
:102A90000101B86B040EC36F060EC46F5CD87DECE9
:102AA000EDF02ED85C6ADF6BE06B19EC0BF065C0C3
:102AB00067F066C068F06A6B696B020E6C6F0F0E90
:102AC0006B6F92ECF9F0786B782B0E0E7865FCD773
:102AD0000101CC81010E9F6F0CEC86F0000012000A
:102AE0007951D9267A51DA221200DD6A20EE2DF0D2
:102AF0001200580EDE6E020EDD6E20EE3AF0020C71
:102B0000020EDD6FDE6B080ED76F640ED86FFD0E00
:102B1000D96FDA69E66B140EE56F140C000120EE34
:102B200029F0120079C065F07AC066F0686B676BB7
:102B30001200DE6EDD6A20EE2BF01200DE6EDD6A22
:102B400020EE23F01200DD6A20EE25F01200DD6E8B
:102B500020EE27F01200556A566A576A586AF80C38
:102B6000440EDE6E020EDD6E020CB3D8DA22DECF2A
:102B70007AF0DDCF7BF0ADD867ECA3F0CBECA9F019
:102B8000E7507D6FA6D8BBD8CBECA9F0E7507C6F9F
:102B9000F9C07EF0FAC07FF07A0E796F48ECD7F07A
:102BA000000901E090D07A0E6C6F726B736B6C5100
:102BB0009CEC9FF0CBECA9F0E750030F706F000E78
:102BC000F9ECFFF000016C51D96EDA6ADECF68F0E3
:102BD000DDCF69F070C06AF045ECF6F0010E716F60
:102BE0003CD0720E656F6C51D96EDA6ADECF6DF033
:102BF000DDCF6EF071516D25D96E000E6E21DA6E4B
:102C0000DF50666F6651686F676B6551D96EDA6A1F
:102C10006751DE1A6851DD1A080E6B6F74D868AF01
:102C200014D001D012D06FD8D89067376837210EF2
:102C30006719696F100E68196A6F6551D96EDA6A83
:102C400069C0DEFF6AC0DDFF02D0655164D86B0742
:102C50006B51E4E101D0E2D7712B7051715DC1E39A
:102C600001D0BFD76C51DFEC97F039D873C0DFFFCC
:102C70006C51DFEC97F0DF2A6C51DFEC97F02FD826
:102C800072C0DFFF6C51DFEC97F0DF2A6C51DFEC94
:102C900097F025D80D0EDF6E6C51DFEC97F0DF2A30
:102CA0007AC066F07BC067F07CC068F001D80BD0BA
:102CB0000500FA6E01016751FD6E6851FE6E6951A3
:102CC000FF6EFA50120005D81AD8CBECA9F0E76ACB
:102CD000120020EE02F03850D92639501200DF5091
:102CE0006D6F6C51D96EDA6ADECF6EF0DDCF6FF0AA
:102CF0006D516E25D96E000E6F21DA6E1200DA2248
:102D000010EE64F012006551D96EDA6ADECF67F01A
:102D1000DDCF68F01200D96EDA6AD890DE36DD3683
:102D200012000001786F78511FE0816B826B000EFA
:102D3000716F030E726FD8908135D96E8235DA6E5D
:102D4000D890D936DA367151D9267251DA22B9D8EB
:102D5000814B822B82BFEBD7825103E10B0E815D49
:102D6000E6E30101A96B000C0101A951040D000E5D
:102D7000F324D96E030EF420DA6EA3D86DC079F077
:102D80006EC07AF06FC07BF070C07CF06DC07DF0DB
:102D90006EC07EF06FC07FF070C080F0A92B090E6E
:102DA000A96501D0A96B0001876B886B79D8DE50CB
:102DB000795DDE507A59DE507B597C51800A776FFD
:102DC000DE50800A775909E26BD8DECF79F0DECF8A
:102DD0007AF0DECF7BF0DECF7CF062D87D51DE5C16
:102DE0007E51DE587F51DE58DE50800A776F805169
:102DF000800A775909E254D8DECF7DF0DECF7EF02D
:102E0000DECF7FF0DECF80F0874B882B88BFCED718
:102E1000885103E10A0E875DC9E37D51795D656FD5
:102E20007E517A59666F7F517B59676F80517C590B
:102E3000686F22ECECF065C083F066C084F067C078
:102E400085F068C086F086BF09D08651851105E1FE
:102E5000C00E835D5D0E845901E3000C86BF09D06E
:102E60008651851105E1E00E835D2E0E845901E344
:102E7000010C86BF09D08651851105E1700E835D76
:102E8000170E845901E3020C86BF040C865185118C
:102E900005E1B80E835D0B0E845901E3030C040CAD
:102EA000000E716F030E726FD8908735D96E88351A
:102EB000DA6ED890D936DA367151D9267251DA22C3
:102EC00012006DC0DEFF6EC0DEFF6FC0DEFF70C09F
:102ED000DEFF1200705173D8030EDF6E7051D96E91
:102EE000DA6ADECF71F0DDCF72F071C0D9FF72C047
:102EF000DAFF1B0EDF6E705162D86AD8500EDF6E9B
:102F000070515DD8DF2A70515AD862D8DF6A70518B
:102F100056D8DF2A705153D85BD8DF6870514FD82C
:102F2000A1EC9FF070C06BF0A4D8686B9AD803E056
:102F300008D001D006D0682B050E6865F7D701D000
:102F4000F5D76F6B6FD864D87CD86F2B050E6F6583
:102F5000F9D701D0F7D76B5132D836D830D848D806
:102F60005DD82DD8DF2A6B512AD842D876D827D8F9
:102F7000DF2A705124D82CD8010EDF6E70511FD873
:102F8000DF2A70511CD824D8640EDF6E705117D818
:102F9000DF2A705197EC9FF0CBECA9F0E76A7051F3
:102FA0009CEC9FF0CBECA9F0705109D8DF50FD0FDD
:102FB000E76E705104D8640EDF60010C000CD96E0E
:102FC000DA6A020ED926020C060EDF266B511200B9
:102FD000DF50716F7051D96EDA6ADECF72F0DDCFDB
:102FE00073F071517225D96E000E7321DA6E1200E2
:102FF000DF506C6F6B51D96EDA6ADECF6DF0DDCFCA
:103000006EF06C516D25D96E000E6E21DA6E1200D5
:10301000E16EE26A020EE126E7501200CA0EDF6E90
:103020006B5112006F516925D96E000E6A21DA6E5C
:103030006B51E16EE26AE6CF6CF0E5CF6DF06B515B
:1030400012006C27000E6D236F516C25E16E000E8F
:103050006D21E26EDFCFE7FF1200FE0EDF6E6B51D7
:10306000120068516525D96E000E6621DA6EDE28E1
:10307000120069C065F06AC066F01200C0D8D8ECD2
:10308000EBF067C0A4F068C0A5F00001A451A51141
:1030900004E1B5D8886F020E4FD0040E9825A0D851
:1030A0006DECC0F07FC0A0F080C0A1F0982998D846
:1030B0006DECC0F07FC0A2F080C0A3F0A2C06DF0A4
:1030C000A3C06EF0A0C06FF0A1C070F0A4C071F0FA
:1030D000A5C072F0746BF3ECA0F028E201D026D00A
:1030E000E1ECA0F06C6B6DD808E301D006D05AD8A3
:1030F00004E301D002D0010E6C6F6C51000916E0A0
:1031000001D014D0EAECA0F06C6B5BD808E301D0DE
:1031100006D048D804E301D002D0010E6C6F6C5188
:10312000000904E001D002D0010E746F745100094F
:1031300005E165D8886F030E896F31D020EE3AF033
:1031400064D8020EDE18010ED8A4000E9F6F9F51A6
:1031500005E1A2C09BF0A3C09CF004D0A0C09BF0EE
:10316000A1C09CF020EE23F050D89BC0DEFF9CC095
:10317000DDFF9F5105E1A0C09DF0A1C09EF004D0ED
:10318000A2C09DF0A3C09EF020EE25F03ED89DC0C9
:10319000DEFF9EC0DDFF07ECFEF031D83BD8470EC6
:1031A000F8EFF5F020EE15F06751D9266851DA22D4
:1031B0006551DE5CDE50800A6B6F6651800A6B5988
:1031C000120020EE13F06751D9266851DA22DE5042
:1031D000655D6651800A6B6FDE50800A6B59120084
:1031E0007F6F000E9921806F20EE1FF0A451D92629
:1031F000A551DA22DECF81F0DDCF82F0120098C037
:10320000D9FF99C0DAFFDF501200A451D926A55189
:10321000DA2212000001886F896B1200939A8A9A51
:103220001A0E0001816FF80EE82EFED7812FFCD711
:1032300000008A8A200E0001816F290EE82EFED739
:10324000812FFCD700D0C00E00019AD8300E47EC79
:10325000FEF0C00E95D8370E47ECFEF0C00E90D8A9
:10326000360E47ECFEF0A3D83F0E7C6F300E47ECD5
:10327000FEF09DD83F0E7C6F370E47ECFEF097D8DE
:10328000280E7C6F360E47ECFEF066D8300E47EC09
:10329000FEF062D8370E47ECFEF05ED8360E47ECF3
:1032A000FEF07AD8300E47ECFEF076D8370E47ECB9
:1032B000FEF072D8360E47ECFEF068D8300E47ECC0
:1032C000FEF064D8370E47ECFEF060D8360E47ECBF
:1032D000FEF0010E7E6F300E37ECFEF0010E7E6FB9
:1032E000370E37ECFEF0010E7E6F360E37ECFEF037
:1032F0003AD8300E47ECFEF036D8370E47ECFEF0E9
:1033000032D8360E47ECFEF0826B34D8300E47ECE4
:10331000FEF030D8370E47ECFEF02CD8360E47ECD6
:10332000FEF0822B170E8265F0D7180E826F400ECA
:1033300039D8300E47ECFEF0400E34D8370E47EC4B
:10334000FEF0400E2FD8360E47ECFEF0822B9B0E7F
:103350008265EDD700009B0CC00E7A6F040E7B6F68
:10336000EB0E7C6FEB0CC00E7A6F090E7B6F030EB9
:103370007C6F030C400E7A6F82C07BF07C6B400C3C
:103380007A6F060E7B6F020E7C6F020CC00E7A6F96
:103390007B6B400E7C6F400CC00E7A6F010E7B6F12
:1033A0007C6B010C7A6F82C07BF07C691200C00ECE
:1033B0007A6F050E7B6F050C240EF66EF70EF76E16
:1033C000010EF86E06EEA4F010EE24F00900F5CF21
:1033D000EEFFE550E150FAE1000EF66EF70EF76EE3
:1033E000010EF86E05EECFF010EE24F00900F5CFD7
:1033F000EEFFE550E150FAE16E0EF66EDC0EF76E70
:10340000010EF86E04EEB4F010EE45F00900F5CFB1
:10341000EEFFE550E150FAE1060EF66E0F0EF76E84
:10342000000EF86E03EED6F010EE18F00900F5CF9E
:10343000EEFFE550E150FAE1840EF66ED20EF76E23
:10344000010EF86E02EE8AF010EE51F00900F5CF91
:10345000EEFFE550E150FAE1380EF66E170EF76E0A
:10346000000EF86E01EEFAF010EE06F00900F5CF4E
:10347000EEFFE550E150FAE10CEEFAF012EE0FF03B
:10348000EE6AE550E150FCE1E250FAE10CEE00F0AA
:10349000FA0EEE6AE806FDE10BEE00F0FA0EEE6AB7
:1034A000E806FDE10AEE00F0FA0EEE6AE806FDE13C
:1034B00009EE00F0FA0EEE6AE806FDE108EE00F013
:1034C000D50EEE6AE806FDE107EE00F0FA0EEE6AB0
:1034D000E806FDE106EE00F0A40EEE6AE806FDE166
:1034E00005EE00F0CF0EEE6AE806FDE104EE00F016
:1034F000B40EEE6AE806FDE103EE00F0D60EEE6AC9
:10350000E806FDE102EE00F08A0EEE6AE806FDE153
:1035100001EE00F0E80EEE6AE806FDE10001FA6B4C
:10352000F96BF86BF76BF66B5E6A00EE32F02C0EFF
:10353000EE6AE806FDE15F905F92000195EFBBF057
:10354000EE0E726F736B52ECE3F072C0EFF073C06B
:10355000F0F020EE02F0EF51D926F051DA22DFA090
:103560000AD0E3C065F0E4C066F0E5C067F0E6C0ED
:1035700068F094EC09F00001E851E91108E0E8C0B6
:10358000D9FFE9C0DAFFEFC0DEFFF0C0DDFFEA518E
:10359000EB1106E0EAC0D9FFEBC0DAFFEEC0DFFFB7
:1035A000EFC0D9FFF0C0DAFFDE501FE1DE041DE1FD
:1035B000EE511BE020EE02F0EF51D926F051DA2255
:1035C000DFB413D020EE02F0EF51D926F051DA2209
:1035D000DFB60BD0E3C0D5F0E4C0D6F0E5C0D7F03D
:1035E000E6C0D8F029ECF8F0010CEFC0D9FFF0C02C
:1035F000DAFFDE04DE1008E0EFC0D9FFF0C0DAFF2A
:10360000020EDE18DE103DE1EE5108E120EE02F080
:10361000EF51D926F051DA22DFA4010C20EE02F09E
:10362000EF51D926F051DA22DFB2010CEFC0D9FFF9
:10363000F0C0DAFFDE04DE100DE1DC69DB69E3C017
:10364000DDF0E4C0DEF0E5C0DFF0E6C0E0F03FEC26
:10365000F8F0010CEFC0D9FFF0C0DAFF020EDE185F
:10366000DE10D8A4010CDC6B010EDB6FE3C0DDF0D3
:10367000E4C0DEF0E5C0DFF0E6C0E0F03FECF8F0DB
:10368000010CEFC0D9FFF0C0DAFF800EDE18DE10AB
:1036900018E1E75116E0EE51D8B4010C20EE02F02B
:1036A000EF51D926F051DA22DFB2010CE3C0D5F098
:1036B000E4C0D6F0E5C0D7F0E6C0D8F0FAECF9F0F7
:1036C000010C000CE5C0D9FFE6C0DAFFDECFE7F061
:1036D000DDCFE8F08E5107E100016E6B020E27ECA2
:1036E0000AF09DECDAF00001666B080E656FE7C02A
:1036F00067F0E8C068F06551671906E1665168191E
:1037000001E002D0010E01D0000E000917E06E6B3F
:10371000010E27EC0AF0DA0E7A6FFF0E7B6F010EB6
:103720007C6F7D6F7E6B1FEC08F0010E02018E6FC7
:1037300002018B6B8C6B9DECDAF064D0666B040E2F
:10374000656FE7C067F0E8C068F06551671906E18A
:103750006651681901E002D0010E01D0000E000987
:1037600016E06E6B010E27EC0AF0C20E7A6FFF0EA8
:103770007B6F010E7C6F7D6F7E6B1FEC08F002018A
:103780008E6B00016E6B020E27EC0AF0D1D7010E92
:10379000666F656BE7C067F0E8C068F06551671950
:1037A00006E16651681901E002D0010E01D0000E59
:1037B000000928E00101010ECCA1000E02018E19C2
:1037C0000BE08EB103D00101CC9102D00101CC817C
:1037D00002018E5140EC0BF0E1C0DDF0E2C0DEF002
:1037E000E3C0DFF0E4C0E0F022EEA0F001D80AD0A0
:1037F0000500FA6EDE50FD6EDE50FE6EDE50FF6E8E
:10380000FA50120002018E51D8B412008D510101FC
:10381000C919D8B4120000016E6B020E27EC0AF031
:10382000C0ECF2F065C07AF066C07BF0010E7C6FF0
:10383000020E7D6F7E6B1FEC08F09DEFDAF0D5C0B5
:10384000D9FFD6C0DAFF0001DFAE000C3EC065F044
:103850003FC066F08EECFCF0000901E1A8D0000E3C
:10386000D0ECE6F065C0DDF066C0DEF020EE33F0AF
:103870003E50D9263F50DA2210EE04F0DE50E12609
:10388000DD50E222E6CFDFF0E5CFE0F0E56BE66B5E
:1038900045D020EE0DF03E50D9263F50DA22DECF43
:1038A000DBF0DDCFDCF0DD51E55D656FDE51E65923
:1038B000666FDFC067F0E0C068F05AECFBF0DB51E8
:1038C0006525E16FDC516621E26F3EC0A5F03FC087
:1038D000A6F0E1C0A7F0E2C0A8F000ECB1F0A5C0EE
:1038E000E3F0A6C0E4F0570E716F020E726F3CC099
:1038F00073F03DC074F0E5C075F0E6C076F0E3C04B
:1039000077F0E4C078F0000E7A6F796F95C17BF0A4
:1039100096C17CF097ECB5F0E54BE62B3C50E55DAD
:10392000E651800ADB6F3D50800ADB59B2E3E56B5C
:10393000E66B2AD03EC0A7F03FC0A8F0D890E5358E
:10394000D96EE635DA6E570ED926020EDA22DECFB0
:10395000A9F0DDCFAAF0D4ECADF0D890E535D96E62
:10396000E635DA6E4F0ED926020EDA22DECFDBF014
:10397000DDCFDCF0DBC0D9FFDCC0DAFFA7C0DEFFA3
:10398000A8C0DDFFE54BE62B3C50E55DE651800A23
:10399000DB6F3D50800ADB59CDE3D7C0CFF0D8C0F4
:1039A000D0F0D9C0D1F0DAC0D2F0FDECEBF0010CD0
:1039B0009E519A5D9F519B59A0519C59A1519D596F
:1039C0000AE3000E836F1E0E9ED8750E866FFE0EE4
:1039D000876F9AECFAF0A2C0D9FFA3C0DAFFDE50DD
:1039E000DE10DE100BE1000E0001836F1F0E8BD87E
:1039F0000D0E866FFE0E876F9AECFAF0000120EE36
:103A000003F087D80AE1000E836F200E7CD85C0E8D
:103A1000866FFE0E876F9AECFAF0000120EE06F03A
:103A200078D80AE1000E836F210E6DD8280E866FBC
:103A3000FE0E876F9AECFAF0000120EE09F069D8CB
:103A40000AE1000E836F220E5ED8D50E866FFD0E42
:103A5000876F9AECFAF09AC097F39BC098F39CC0DA
:103A600099F39DC09AF3000E03019B6F180E9C6F93
:103A7000010E9D6F9EC07DF09FC07EF0A0C07FF0C4
:103A8000A1C080F09AC081F09BC082F09CC083F0FE
:103A90009DC084F058ECD6F07DC004F27EC005F2E3
:103AA0007FC006F280C007F2A2C07DF1A3C07EF104
:103AB00001017B6B7C6B0201006B016B026B036B82
:103AC000000E0101C525366E020EC621376E000EAE
:103AD0000001936F0B0E946F966BFA0E956F0101B8
:103AE00020EE09F07D51D9267E51DA22DECF97F003
:103AF000DECF98F0DDCF99F0ABECEDF0970E9A6F3A
:103B0000030E9B6F1200826FA50E846FFE0E856FF1
:103B10001200A251D926A351DA22DE50DE10DE10A7
:103B20001200730E7C6F8BD0250E811904E0815139
:103B300006EC0CF084D07A6B27D07C51D96EDA6A0F
:103B4000DECF7DF0DDCF7EF0020E7C277D517E1131
:103B500011E1060E7D6FFF0E7E6F0CD08CD8F764DE
:103B600003D00800F55001D080D806EC0CF000011D
:103B70007D4B7E2B80D8F76403D00800F55001D030
:103B800074D800095CE0EAD77ED866D8D8B41200B1
:103B9000640A05E00D0A03E01A0ACFE050D07C5118
:103BA000D96EDA6ADECF7FF0DDCF80F0020E7C279F
:103BB00080AF06D0030E7A137F6D801FD8B0802BA4
:103BC000010E816F815141D819ECC6F00900F55002
:103BD0007F5D0900F550805904E3812B050E8119A2
:103BE000F1E17AC079F0030E791703E02D0E06ECAF
:103BF0000CF081C07BF01FD07B5127D819ECC6F0A8
:103C00000900F5CF67F00A00F5CF68F07FC065F0D6
:103C100080C066F06CECECF065C06CF066C06DF0D6
:103C20006F6B0A0E6E6FAFECF1F06C51300F816F5D
:103C3000815106EC0CF000017B077B29DDE123D8E4
:103C400000010AD801E070D71200020D5B0EF324C8
:103C5000F66EFC0EF4201200714B722B000EF86E03
:103C60000800F5CF81F081511200F6CFE9FFF7CFC0
:103C7000EAFFEF5012007DC0F6FF7EC0F7FF000E96
:103C8000F86E0F0E120071C0F6FF72C0F7FF12003F
:103C90006651D96EDA6ADECF76F0DDCF77F0665105
:103CA00024ECAFF0DECF6BF0DDCF6CF020EE05F052
:103CB00095D8676F6705706F060E706501D0010CAF
:103CC00020EE06F08BD8716F060E716501D0010CE5
:103CD00070517F0D74D86B25696F68516C216A6FC4
:103CE000020E69256E6F000E6A216F6F070E6E253A
:103CF000736F000E6F21746F20EE05F06E51D926A0
:103D00006F51DA2271C0DFFF070E756F6D6B3CD00B
:103D1000726B4ED8DF50786F752B060E786501D028
:103D2000010C39D8692960D878C0DFFF7851140DAB
:103D300046D87325D96E68517421DA6E70C0DFFFE2
:103D400009D036D828D872516927000E6A23030E8D
:103D50003CD8722B2DD8DF5003E00E0E7265F1D7E0
:103D60000F0E726501D0010C16D8020E69253CD8E1
:103D700072C0DFFF752B1CD80ED8120E26D818D8AB
:103D80000AD8130E22D86D2B71516D5DC1E3080E58
:103D900031EC0BF0000C7851140DF3CF67F0F4CF39
:103DA00068F067517325696F685174216A6F12005A
:103DB00075517625D96E000E7721DA6E1200F3CF99
:103DC00067F0F4CF68F0675112006925E16E000ECC
:103DD0006A21E26EDFCFE7FF752B12007651D926FC
:103DE0007751DA22DF501200D96E000E6A21DA6EA6
:103DF00012007051DFEC97F0030EDF6E7051D96E38
:103E0000DA6ADECF71F0DDCF72F071C0D9FF72C017
:103E1000DAFF1B0EDF6E7051DFEC97F078D8510E91
:103E2000DF6E7051DFEC97F0DF2A7051DFEC97F016
:103E30006ED8DF6A7051DFEC97F0DF2A7051DFEC4B
:103E400097F065D8DF687051DFEC97F07AD870C0D2
:103E50006BF039EC98F0686B31EC98F003E008D027
:103E600001D006D0682B050E6865F6D701D0F4D7CF
:103E70006F6B12EC98F008EC98F021EC98F06F2B37
:103E8000050E6F65F6D701D0F4D76B51DFEC97F0D4
:103E9000E4EC97F0DFEC97F0F8EC97F00EEC98F08C
:103EA000DFEC97F0DF2A6B51DFEC97F0F8EC97F03E
:103EB0002DEC98F0DFEC97F0DF2A7051DFEC97F0F3
:103EC00026D8010EDF6E7051DFEC97F0DF2A7051BB
:103ED000DFEC97F01CD8640EDF6E7051DFEC97F0CA
:103EE000DF2A705124D8CBECA9F0E76A705124D8AE
:103EF000CBECA9F07051DFEC97F0DF50FD0FE76ECF
:103F00007051DFEC97F0640EDF60010C000CDF50A5
:103F1000716F7051D96EDA6ADECF72F0DDCF73F057
:103F200071517225D96E000E7321DA6E1200D96EAE
:103F3000DA6A10EE01F01200D96EDA6A10EE02F0C1
:103F40001200DF2AC7C169F0C8C16AF0120020EE72
:103F500038F097D8DFAE16D020EE39F092D8DFB225
:103F600011D077D8DB5D92D8DC5995D8DD5998D837
:103F7000DE597BD891C0D7F192C0D8F193C0D9F166
:103F800094C0DAF120EE39F07CD8DFA216D020EE12
:103F900038F077D8DFBE11D05CD8D75D77D8D85944
:103FA0007AD8D9597DD8DA5960D891C0DBF192C05E
:103FB000DCF193C0DDF194C0DEF155500101DB5D11
:103FC0005A6F5650DC595B6F5750DD595C6F585033
:103FD000DE595D6F5AC17DF05BC17EF05CC17FF040
:103FE0005DC180F02C0E0001816F010E8CECB0F0F1
:103FF000C3ECB9F07DC05AF17EC05BF17FC05CF1CB
:1040000080C05DF155500101D75D566F5650D859AB
:10401000576F5750D959586F5850DA59596F56C180
:104020007DF057C17EF058C17FF059C180F0D40EA9
:104030000001816FFE0E826F83698469C3ECB9F061
:104040007DC056F17EC057F17FC058F180C059F154
:104050001200D89055348D6F56348E6F57348F6F51
:104060005834906F8D51010112000001946F911F1F
:10407000921F931F941F912B000E9223932394233E
:10408000000C8B51D9268C51DA2212000001916F5D
:104090008E51010112000001926F8F510101120037
:1040A0000001936F90510101120085D8D8ECEBF01C
:1040B00067C09EF068C09FF000019E519F1104E10F
:1040C0007AD8886F020E50D0982966D86DECC0F06F
:1040D0007FC09AF080C09BF0040E98255DD86DECEF
:1040E000C0F07FC09CF080C09DF09AC06DF09BC076
:1040F0006EF09CC06FF09DC070F09EC071F09FC0CC
:1041000072F0746B70D82AE201D028D05AD86C6B48
:10411000E1EC98F009E301D007D0D2EC98F004E389
:1041200001D002D0010E6C6F6C51000917E001D074
:1041300015D050D86C6BE1EC98F009E301D007D0B2
:10414000D2EC98F004E301D002D0010E6C6F6C51F8
:10415000000904E001D002D0010E746F745100090F
:1041600005E129D8886F030E896F13D020EE27F060
:1041700043D89AC0DEFF9BC0DDFF20EE29F03CD87B
:104180009CC0DEFF9DC0DDFF07ECFEF014D80AECFA
:1041900099F04B0EF8EFF5F07F6F000E9921806FCC
:1041A00020EE1FF09E51D9269F51DA22DECF81F0FA
:1041B000DDCF82F0120098C0D9FF99C0DAFFDF503E
:1041C00012006DC065F06EC066F071C067F072C01D
:1041D00068F012006FC065F070C066F071C067F0E3
:1041E00072C068F012006F516D5D6E51800A736F7E
:1041F0007051800A735912009E51D9269F51DA22BC
:104200001200A1D8DE6ADD6A6CC065F06DC066F090
:104210007B0E676F46ECE5F065C080F066C081F00C
:1042200080C065F081C066F06CC067F06DC068F05A
:104230007DD865C079F066C07AF07951705D7A51A9
:10424000715901E21200030E746F756B8051745F37
:104250008151755B7DD87451DE267551DD2273D88E
:10426000DFCF74F0DE2ADFCF75F0000EDD2270D8CC
:10427000DECF76F0DDCF77F074517625D96E7551AB
:104280007721DA6EAA0EDF6E7E6B7F6B21D07E51B6
:104290007B0FD96EDA6A72C0E1FF73C0E2FFE7CF2D
:1042A00074F0E62AE7CF75F0000EE5226EC0E1FF5C
:1042B0006FC0E2FFE6CF76F0E5CF77F07451762558
:1042C000E16E75517721E26EDFCFE7FF7E4B7F2BEA
:1042D00080517E5D81517F59DAE335D86C51DE26FD
:1042E0006D51DD2235D8DECF65F0DDCF66F02BD8FD
:1042F000DECF67F0DDCF68F096ECF8F0746F23D86E
:10430000DECF75F0DDCF76F023D8DECF77F0DDCFCE
:1043100078F075517725D96E76517821DA6E74C0B0
:10432000DFFF11D8DE2A000EDD22000C6751652563
:10433000696F685166216A6F020E6925656F000E0C
:104340006A21666F120072C0D9FF73C0DAFF1200D3
:104350006EC0D9FF6FC0DAFF12004FECE7F0B0C0BB
:10436000DDF0B1C0DEF0D89001019335D96E9435FF
:10437000DA6E570ED926020EDA22DECFDBF0DDCF61
:10438000DCF00001D551DB25DF6FD651DC21E06F79
:10439000570E716F020E726F3CC073F03DC074F027
:1043A00093C175F094C176F0DFC077F0E0C078F08B
:1043B000DDC079F0DEC07AF095C17BF096C17CF06B
:1043C00097ECB5F0E16FE1512CE13EC0A7F03FC0A2
:1043D000A8F0D89001019335D96E9435DA6E570E56
:1043E000D926020EDA22DECFA9F0DDCFAAF0D4EC76
:1043F000ADF0D89001019335D96E9435DA6E4F0E39
:10440000D926020EDA22DECFDBF0DDCFDCF0DBC016
:10441000D9FFDCC0DAFF0001A7C0DEFFA8C0DDFFC6
:1044200036D0E26BE36B2AD03EC0A7F03FC0A8F0C5
:10443000D890E235D96EE335DA6E570ED926020EE2
:10444000DA22DECFA9F0DDCFAAF0D4ECADF0D8901F
:10445000E235D96EE335DA6E4F0ED926020EDA2236
:10446000DECFDBF0DDCFDCF0DBC0D9FFDCC0DAFF74
:10447000A7C0DEFFA8C0DDFFE24BE32B3C50E25DAE
:10448000E351800ADB6F3D50800ADB59CDE3DAEC63
:10449000FBF0D7C0CFF0D8C0D0F0D9C0D1F0DAC08F
:1044A000D2F0FDEFEBF0010ED3ECF0F0EBECFFF00F
:1044B000000902E09DEFDAF074EC0BF0000904E073
:1044C000B6ECD0F09DEFDAF00001CB6BCC6B76D080
:1044D000D890CB35D96ECC35BCECE2F0DECFCDF048
:1044E000DDCFCEF0000120EE33F076D8DECFC9F07C
:1044F000DDCFCAF0C9C0D9FFCAC0DAFFDF50C7ECB0
:10450000E8F0CDC065F0CEC066F08EECFCF000099E
:1045100043E0CDC067F0CEC068F0D5ECF8F00009FC
:1045200007E0CDC084F0CEC085F07EECBAF043D079
:10453000000120EE3CF050D8DFA212D020EE3BF07C
:104540004BD8DFB60DD00101CE5135E1CDC0B9F069
:10455000CEC0BAF00CECFFF044D85AECEEF02BD001
:10456000CDC067F0CEC068F00EEC07F0000907E0A0
:10457000CDC084F0CEC085F0B2ECC2F01CD00001FA
:1045800020EE3BF029D8DFA2E1D7CDC0BBF0CEC0F2
:10459000BCF0F7ECE7F00FD0CDC065F0CEC066F010
:1045A0007CECFCF0000904E11CD85AECEEF003D0DE
:1045B0000101CE51B6E10001CB4BCC2B0101BF5123
:1045C0000001CB5DCC51800AC96FC3ECE2F0C95940
:1045D00001E27ED79DEFDAF0CD51D926CE51DA2215
:1045E0001200CDC0BBF0CEC0BCF0120020EE33F004
:1045F00072D810EE09F0CBECA9F0E650E610E61008
:1046000044E020EE0BF067D86BD865D887D876D811
:104610005ED8CBECA9F0E7509F6FA06B20EE33F093
:104620005AD810EE09F0CBECA9F001D80AD0050059
:10463000FA6EE650FD6EE650FE6EE650FF6EFA50E2
:10464000120020EE0DF047D864D820EE0BF043D8CE
:1046500047D841D863D8A06B020E9F6F20EE33F08D
:104660003AD810EE09F0CBECA9F001D80AD0050039
:10467000FA6EE650FD6EE650FE6EE650FF6EFA50A2
:10468000120020EE0FF027D844D020EE0BF023D8F4
:104690002ED821D848D832D81AD8CBECA9F0E75078
:1046A0007D6F7E6BA2ECCCF020EE0DF014D82CD8F0
:1046B00020EE0BF010D81BD80ED835D87E6B020E2A
:1046C0007D6FA2ECCCF020EE0FF005D81DD0DA22E1
:1046D00010EE03F01200A351D926A451DA221200E1
:1046E000DECF9BF0DDCF9CF020EE1FF01200DECF7E
:1046F00079F0DDCF7AF020EE1FF0120020EE36F0D8
:10470000A351D926A451120079C0DEFF7AC0DDFF83
:1047100012009BC0DEFF9CC0DDFF1200DECF9DF0CB
:10472000DDCF9EF01200DECF7BF0DDCF7CF01200FB
:104730000001D751070ED8A4090E3A24DC6F000EF1
:104740003B20DD6FDCC0F6FFDDC0F7FF000EF86E2A
:104750000900F5CFDFF00A00F5CFE0F091C165F078
:1047600092C166F03AC0F6FF3BC0F7FF01D80DD00A
:104770000500FA6E0900F550FD6E0900F550FE6E59
:104780000900F550FF6EFA50120065C0E1F066C0F6
:10479000E2F0E1C0D9FFE2C0DAFFDECFDCF0DDCF2E
:1047A000DDF0D5C065F0D6C066F0DFC067F0E0C0D0
:1047B00068F05AECFBF0DC516525E36FDD516621B2
:1047C000E46F030E3A24DC6F000E3B20DD6FDCC08B
:1047D000F6FFDDC0F7FF000EF86E0900F550E35D4F
:1047E000E451800ADE6F0900F550800ADE5902E2CA
:1047F000030E18D0050E3A24DC6F000E3B20DD6F4F
:10480000DCC0F6FFDDC0F7FF000EF86EE3510900D3
:10481000F55C0900F550800ADE6FE451800ADE592C
:1048200012E2050E3A24DC6F000E3B20DD6FDCC087
:10483000F6FFDDC0F7FF000EF86E0900F5CFE3F0DC
:104840000A00F5CFE4F0E1C0D9FFE2C0DAFFE3C02F
:10485000DEFFE4C0DDFFD8C0CFF0D9C0D0F0DAC0B1
:10486000D1F0DBC0D2F0FDEFEBF0246A256A266AB6
:1048700024C001F025C002F02A0E2624D96EDA6A7F
:10488000010EDA22DF50036E14ECEEF001C024F0CA
:1048900002C025F0262A0D0E2664EAD724502510E2
:1048A0007BE12BC127F02EC12BF127C02EF12CC1AB
:1048B00027F02DC12CF127C02DF12BC101F02CC107
:1048C00002F02DC103F02EC104F019ECE9F001C093
:1048D0002BF102C02CF103C02DF104C02EF1056AAA
:1048E000066AC80E076E420E086E2BC101F02CC17D
:1048F00002F02DC103F02EC104F0BAEC84F001C027
:104900001AF002C01BF003C01CF004C01DF05FECE5
:10491000C7F01AC079F11BC07AF130C127F033C15A
:1049200030F127C033F131C127F032C131F127C056
:1049300032F130C101F031C102F032C103F033C1B4
:1049400004F019ECE9F001C030F102C031F103C00C
:1049500032F104C033F1056A066AC80E076E420ED2
:10496000086E30C101F031C102F032C103F033C131
:1049700004F0BAEC84F001C01AF002C01BF003C0CE
:104980001CF004C01DF05FECC7F01AC077F11BC02B
:1049900078F10101A66B04D0010E0101A66F0000A1
:1049A000000012000001686F5FD0000E656F180EE6
:1049B000666F000E676F1200200E656FC10E666F86
:1049C000010E676F1200D40E656F110E666F000E38
:1049D000676F12009E0E656FFF0E666F010E676FA8
:1049E0001200080E656FE50E666F010E676F12000C
:1049F000EE0E656FEC0E666F010E676F1200B60E5D
:104A0000656FE80E666F010E676F1200C00E656F6E
:104A1000C00E666F010E676F1200D40E656FDE0E5A
:104A2000666F010E676F12004E0E656F0F0E666F98
:104A3000000E676F1200020E656F0E0E666F000E9D
:104A4000676F12007E0E656FE80E666F010E676F6E
:104A50001200C00E656F840E666F010E676F120044
:104A6000656B666B676B1200000168519EE0010A7E
:104A7000A3E0030A9AE0010AA6E0070AA4E0140AE8
:104A800094E0080A92E0380A90E0610A9CE0030A88
:104A90009AE0010A9FE0070AA4E0010AA9E0030ADC
:104AA000AEE0010AB3E00E0AB8E0030AB6E0010A7C
:104AB000ADE01A0ACEE0310AC5E0010A92E0100A20
:104AC000C1E0F10A80E0030AAFE0070AADE0140A92
:104AD000B9E0010AB7E0030AAEE0C2D768C065F0EA
:104AE00069C066F02AECFFF06E6F736B0101C4A51C
:104AF0000BD0000120EE3BF06851D9266951DA2233
:104B0000DFA602D0010E736F73C06FF068C065F04E
:104B100069C066F01BECFFF0706F6FD8DFB0010E5C
:104B2000716F6BD8DFB2010E726F746B756B44D00E
:104B3000D8907435D96E7535BCECE2F0DECF76F0E6
