:102000002DEF10F0FFFFFFFF0182CEEF43F0FFFF47
:10201000FFFFFFFFFFFFFFFF0180D8CF60F0E8CF99
:1020200061F0E0CF62F0D9CF63F0DACF64F09DB811
:102030009EA802D0A7EC88F0A3B8A4A802D015EC03
:1020400087F064C0DAFF63C0D9FF62C0E0FF61C0FF
:10205000E8FF60C0D8FF019010001BEF2DF0008258
:102060002301BA1D01A21D01EAAA00F2C6003C2309
:10207000019ADB007423016623015823014A2301DE
:102080002E23012023011223013A2401ECEA0077D8
:102090007C585E79716F760600003800545C7300DE
:1020A000506D781C0000006E00777C395E79716F8E
:1020B000760600003800373F7300506D783E000010
:1020C000006E00303132333435363738396162636F
:1020D000646566003F065B4F666D7D077F67051090
:1020E0002030406080A0FF6E67C579DD61021A6212
:1020F00021010A00060E0A003C00000072210100C6
:1021000000580201000A0058240000000000002AC4
:102110008D00D02F00C225014820013065007607D0
:1021200001BE2501000000A6DF002E9A0052240106
:10213000000000ACE700D28A005E2401000000AC81
:10214000E700D28A00C625010000004E2201067F6A
:1021500000000000000000AEE600B2A90000000090
:10216000000000F0D800DC9A00000000000000A28F
:10217000250196CA000000000000009E250156A51A
:1021800000AA02019138616C6C506F6442756666FA
:102190006572735B504F445F4255464645525F52ED
:1021A000585D20213D204E554C4C00616C6C506FA9
:1021B00064427566666572735B504F445F42554674
:1021C0004645525F54585D20213D204E554C4C00F1
:1021D0006F75744361706163697479203E20444176
:1021E00054414752414D5F4D494E5F4F564552480D
:1021F00045414400417373657274696F6E20666176
:10220000696C65643A202573202825733A2025736C
:102210003A202564290A00636F6E6669672D3E7354
:1022200061766553657474696E677320213D204E35
:10223000554C4C00636F6E6669672D3E70726F7609
:1022400069646553697A6520213D204E554C4C00E8
:102250007372632F447269766572732F506F647363
:10226000436861696E556172742E6300636F6E66B8
:1022700069672D3E777269746542797465732021B0
:102280003D204E554C4C00636F6E6669672D3E7263
:10229000656164427974657320213D204E554C4C34
:1022A000007372632F506F6473436861696E2F50BF
:1022B0006F6473436861696E2E6300777269746539
:1022C000506572696F64203E207461736B50657253
:1022D000696F6400636F6D6D756E696361746557D6
:1022E000697468506F6473436861696E00696E70E9
:1022F000757453697A65203E3D2076616C7565532F
:10230000697A6500736574506F6473436F6D6D73A4
:1023100041747472696275746573007372632F54CB
:1023200061736B732F526164696F5461736B2E63B9
:10233000007372632F526164696F2F566172496E28
:10234000742E63007372632F526164696F2F526140
:1023500064696F2E630070726F636573735261649A
:10236000696F427974657300706F6473556172743C
:1023700020213D204E554C4C00526164696F5461E0
:10238000736B5F496E697400636861696E20213DFB
:10239000204E554C4C00696E6974506F64734368ED
:1023A00061696E006465636F6465566172496E743D
:1023B00000382E382E382E382E00302E324C4F005A
:1023C000414C2E484900414C2E4C4F0048454C5042
:1023D00000303030300031313131003232323200B1
:1023E0003333333300343434340035353535002D50
:1023F0002D2D2D006572723100657272320065728A
:1024000072330065727234006572725500446174F3
:102410006100636F6E6E0050726F7500504831300E
:1024200000504820340050482037004641494C00B5
:102430004F4F4F4F0050415353004550742D004EA5
:1024400047452E002D41434300436F6E66006E6387
:102450006E6F006275737900636F6E7400372E3192
:102460000046414300644546006F66660043414CA8
:102470000043484100506F6400457272004F464669
:10248000002575006F6E00627200454C004F5200CF
:102490005552006E63004943007264007048002A80
:1024A00043002A460045430000FF01018651871181
:1024B00070E1680E00019C6F230E9D6F500E9E6FA1
:1024C000220E9F6F010EA16F7C0EA06FD40EA26F23
:1024D000220EA36F99EC84F05CD086C1A1F087C175
:1024E000A2F0000147DADFA005D001D003D042DA24
:1024F000DF904FD0A1C06CF0A2C06DF0000ECFEC09
:1025000091F06CC068F06DC069F0000120EECCF075
:102510006C51D9266D51DA22DF50050F6A6F0CEC31
:1025200083F0D6EC79F0A1C065F0A2C066F000019E
:1025300020EECCF0A151D926A251DA22DECF67F0ED
:10254000DDCF68F06D6B050E67256B6F000E68219F
:102550006C6F11D06B516525D96E6C516621DA6EA6
:102560006D516525E16E000E6621E26EDFCFE7FF5B
:102570006D2B6B4B6C2BF7D9DF50696F6A6B695110
:102580006B5D6A516C59E6E301D0E4D7ECD96DC0BC
:10259000DFFF86C179F087C17AF033D020EECFF02B
:1025A0007951D9267A51DA2201D80AD00500FA6E7B
:1025B000DE50FD6EDE50FE6EDE50FF6EFA501200F1
:1025C0007B6FCAD9DF507C6F7C517925D96E000EA4
:1025D0007A21DA6E7BC0DFFFBFD910EE64F079514B
:1025E000E1267A51E222E7507B6F7B29656F666BAB
:1025F000000E6623686B640E676F48EC6BF06551E4
:10260000DF6E79C065F07AC066F0000120EECAF096
:102610006551D9266651DA22DECF67F0DDCF68F04A
:1026200067C0D9FF68C0DAFFDF500009B7E101D009
:10263000B5D779C065F07AC066F016D0696B0CD05A
:102640005CD969516525E16E000E6621E26EDFCF2F
:10265000E7FF53D9DF6A692B63D9DE50695DF0E388
:1026600001D0EED75DD9DF0665C0D9FF66C0DAFFBD
:102670001B0EDE1807E001D005D052D9DF50DEE195
:1026800001D0DCD779C072F07AC073F020EE64F02C
:102690002FD9030EDF6004D001D002D0000EAFD0DE
:1026A00072C0D9FF73C0DAFF1B0EDE1803E0F6D745
:1026B00001D0F4D720EE02F01BD9DF50746F20EE6A
:1026C00001F016D9DF50766F7451756F0AD975C055
:1026D000DEFF76C0DDFF05D9DECF74F0DDCF75F00B
:1026E000060E7425776F000E7521786F20EE64F06A
:1026F000FFD8DF50746F756B7751745D78517559E1
:1027000003E2CCD701D0CAD7ECD8010EDB5005E1EB
:102710005D0EDE5C10E301D00ED038D90001676B8E
:10272000C1EC3BF0672B630E6765FAD701D0F8D791
:10273000C9EC3BF0B3D772C06CF073C06DF0D1D868
:10274000DF50050F6E6F706B716B010E6F6F39D0BC
:10275000700E656F6F516C25D96E000E6D21DA6EAB
:10276000DF50666F6651676F686B67C068F0676BB4
:102770006551D96EDA6A6751DE1A6851DD1A080EA2
:102780006B6FE2D868AF14D001D012D0DDD8D890EA
:1027900067376837210E6719696F100E68196A6FFD
:1027A0006551D96EDA6A69C0DEFF6AC0DDFF03D009
:1027B000655162EC27F06B076B51E3E101D0E1D783
:1027C0006F2B6E516F5DC4E301D0C2D77051711190
:1027D00001E002D0010E01D0000E00090FE101D08E
:1027E0000DD0D4D80001676BC1EC3BF0672B630EB2
:1027F0006765FAD79DD7F8D79BD750D7010E000948
:1028000001E06BD686C165F087C166F082D8DFA291
:1028100013D001D011D020EECEF089D8DFCF67F0F1
:10282000DF2A0F0E676508D001D006D072D8DF927C
:1028300020EECEF07CD8DF6A6CD8DFB201D002D0B7
:10284000010E01D0000E00094BE12EEC86F00101D3
:102850009E5144E053EC85F000016C6B16D0000EE5
:102860006C25D96EDA6A060EDA226C5101018625D2
:1028700000016A6F86D86B6F650E6A25E16E000EE7
:102880006B21E26EDFCFE7FF6C2B01019F5100014E
:102890006C5DE5E301D0E3D753D8BCEC3BF09FC1BE
:1028A000DFFF650E86250001666F6BD8676F9FC1DD
:1028B00068F042D8BCEC3BF001D80AD00500FA6EB3
:1028C000DE50FD6EDE50FE6EDE50FF6EFA501200DE
:1028D00037D8BCEC3BF0DF6A9E6B010C82EC73F0E6
:1028E000010C20EECCF07251D9267351DA2212007D
:1028F0007251D9267351DA22120069516525676F2A
:10290000000E6621686F6729D96E000E6821DA6EA5
:10291000120020EED2F06551D9266651DA2212005B
:1029200020EE64F06551D9266651DA221200655115
:10293000D9266651DA221200010120EED3F01200EE
:10294000010120EEC9F012006551D96EDA6ADECFBE
:1029500067F0DDCF68F0120020EE64F07951D926DF
:102960007A51DA22120020EE64F06551D9266651C0
:10297000DA22120020EED2F0A151D926A251DA2299
:102980001200000E010187210001120072C065F0E3
:1029900073C066F01200826B836B7A51D96EDA6A6B
:1029A000DECFF6FFDDCFF7FF000EF86E0800F55022
:1029B000250A01E09AD17A51D96EDA6ADE2A000E30
:1029C000DD227A51D96EDA6ADECF84F0DDCF85F070
:1029D00084C0F6FF85C0F7FF000EF86E0800F550C2
:1029E000640A0AE084C0F6FF85C0F7FF000EF86EA7
:1029F0000800F550690A72E17BC0D9FF7CC0DAFF9C
:102A0000020EDF26DF5CD96EDA6ADECF86F0DECF1B
:102A100087F084297D6F000E85217E6F7A51D96EF3
:102A2000DA6A7DC0DEFF7EC0DDFF200E8A6F010EF8
:102A300087AF000E816F8A07320E8A25D96EDA6A57
:102A4000050EDA2286C065F087C066F0686B0A0E54
:102A5000676F48EC6BF065C06BF066C06CF082ECA1
:102A60008DF06B51300FDF6E86C071F087C072F051
:102A7000746B0A0E736F8CEC62F071C086F072C0DA
:102A800087F0824B832B8651871102E08A51D3E174
:102A90008A511CE081511AE08A07320E8A25D96ECC
:102AA000DA6A050EDA222D0EDF6E824B832B0ED0F2
:102AB000320E8A25D96EDA6A050EDA22DF50656F8A
:102AC000666B79C067F0EFEC63F08A2B200E8A19F1
:102AD000EFE182C079F083C07AF0120084C0F6FF83
:102AE00085C0F7FF000EF86E0800F550750A60E12A
:102AF0007BC0D9FF7CC0DAFF020EDF26DF5CD96E17
:102B0000DA6ADECF86F0DECF87F084297D6F000E93
:102B100085217E6F7A51D96EDA6A7DC0DEFF7EC074
:102B2000DDFF3CD0200E8A6F8A07320E8A25D96ECF
:102B3000DA6A050EDA2286C065F087C066F0686B37
:102B40000A0E676FFAEC7EF06551300FDF6E86C0BB
:102B500065F087C066F0686B0A0E676F8CEC79F0E1
:102B600065C086F066C087F0824B832B8651871143
:102B700011E08A510FE0D8D7320E8A25D96EDA6A71
:102B8000050EDA22DF50656F666B79C067F0EFECF7
:102B900063F08A2B200E8A199CE0EED784C0F6FFE2
:102BA00085C0F7FF000EF86E0800F550750ABAE010
:102BB000816B7A51D96EDA6ADECFF6FFDDCFF7FF8F
:102BC000000EF86E0800F550730A09E17A51D96ECB
:102BD000DA6ADE2A000EDD22010E816F3CD07A51C6
:102BE000D96EDA6ADECFF6FFDDCFF7FF000EF86EA2
:102BF0000800F5506C0A2FE17A51D96EDA6ADECFFF
:102C00007DF0DDCF7EF07D2B000E7E237DC0F6FFB4
:102C10007EC0F7FF000EF86E0800F5506C0A1BE14D
:102C20007A51D96EDA6ADECF7DF0DDCF7EF0020E0A
:102C30007D27000E7E237DC0F6FF7EC0F7FF000ECD
:102C4000F86E0800F550730A06E17A51D96EDA6A17
:102C5000030EDE26BFD781513FE07BC0D9FF7CC089
:102C6000DAFF020EDF26DF5CD96EDA6ADECF7FF094
:102C7000DECF80F01CD07FC0F6FF80C0F7FF000ED3
:102C8000F86E0F0EF76403D00800F55005D0F6CFAC
:102C9000E9FFF7CFEAFFEF500001656F666B79C07F
:102CA00067F0EFEC63F0824B832B7F4B802B7FC070
:102CB000F6FF80C0F7FF000EF86E0F0EF76403D02A
:102CC0000800F55005D0F6CFE9FFF7CFEAFFEF5047
:102CD000000901E1FED6CFD77A51D96EDA6ADE2A31
:102CE000000EDD22796B7A6B12007A51D96EDA6AA6
:102CF000DECFF6FFDDCFF7FF000EF86E0800F550CF
:102D0000656F666B79C067F0EFEC63F07A51D96E4E
:102D1000DA6ADE2A000EDD227A6B010E796F010C71
:102D200066C1D9FF67C1DAFF01D80AD00500FA6E83
:102D3000DE50FD6EDE50FE6EDE50FF6EFA50120069
:102D400065C0F5F366C0F6F30301F551F61138E0FE
:102D5000010164510301F51933E1010165510301DA
:102D6000F6192EE1000E0001676F090E686F6A6B9D
:102D7000800E696F010120EE03F01AD901D80AD044
:102D80000500FA6EDE50FD6EDE50FE6EDE50FF6E08
:102D9000FA50120067C0F3F368C0F4F3000E0101AB
:102DA000DD6F090EDE6FF3C3DFF1F4C3E0F1000E57
:102DB000E16F070EE26FE46B800EE36F7DEC37F09E
:102DC000F5C364F1F6C365F127C26EF028C26FF057
:102DD00029C270F02AC271F00201272B000E2823AD
:102DE00029232A236EC065F06FC066F070C067F0BB
:102DF00071C068F02BC269F02CC26AF02DC26BF072
:102E00002EC26CF014EC6CF06551661167116811FC
:102E100001E002D0010E01D0000E00093CE0000EDE
:102E20000301F76F070EF86FF70E0001826F030EB4
:102E3000836F856B800E846FF90E866F030E876F2C
:102E4000B0EC89F0F7C366F0F8C367F0F9C368F037
:102E5000FAC369F0010120EE06F0AAD801D80AD021
:102E60000500FA6EDE50FD6EDE50FE6EDE50FF6E27
:102E7000FA50120091D8DFA606D001D004D08CD829
:102E8000DF968AD8DF8A0101685104E001D002D0C0
:102E9000698101D0699100017FD8DFAA20D001D0DB
:102EA0001ED020EE02F07FD88ED8DD22DD52DD521A
:102EB000030EDB500BE1020EDB5008E1010EDB508C
:102EC00005E10A0EDE5C0BE301D009D065D8DF888E
:102ED00063D8DF9A20EE02F066D81FEC75F0656BC0
:102EE0000101685109E001D007D069A105D001D0E6
:102EF00003D0010E0001656F0001655100094BE030
:102F000001D0010C5AD8040EB8653AD001D038D09F
:102F1000010168A706D001D004D0CBEC92F00101EA
:102F2000689768A10CD001D00AD0B6B101D002D008
:102F3000010E01D0000EA2EC83F00101689168A39C
:102F400006D001D004D091EC90F00101689368A5FF
:102F500006D001D004D0C9EC92F00101689568A9AF
:102F60000CD001D00AD0B6B501D002D0010E01D0EC
:102F7000000E46EC8FF0010168996991010E691706
:102F80001CD8B82BB837010169510001B819010BE1
:102F9000B8190101696F010C20EE01F0F651D92634
:102FA000F751DA221200F651D926F751DA2212002F
:102FB0006651D9266751DA221200010169317F0B6F
:102FC0000001B86F1200DE2A000EDE22DE22000CA5
:102FD000FCC273F0FDC274F0FEC275F0FFC276F061
:102FE000EBEC7FF0000901E01200E6EC89F070C024
:102FF000DFF371C0E0F324D9DF50030B030A03E1D0
:10300000010E01019A6F01019A050CE119D9DF50F7
:10301000030B030A07E014D9DF50E86F700EE817BE
:1030200001E19A6B9A0501E0DFD0DBEC91F065C01D
:10303000E1F366C0E2F304D9DFA822D0E1C365F072
:10304000E2C366F0F4D8D7EC85F0E1C36BF0E2C3DD
:103050006CF0030120EE46F000D901D80AD005003B
:10306000FA6EDE50FD6EDE50FE6EDE50FF6EFA50E0
:103070001200010E0001656F000E45EC81F01ED0BC
:10308000E1C365F0E2C366F0C9D803EC86F0E1C3A2
:103090006BF0E2C36CF0030120EE49F0DED801D8FA
:1030A0000AD00500FA6EDE50FD6EDE50FE6EDE5078
:1030B000FF6EFA501200E0D845EC81F050EC92F02F
:1030C00065C0E3F366C0E4F3BBD8DFAA21D0E3C355
:1030D00065F0E4C366F0ABD8D7EC85F0E3C36BF0E2
:1030E000E4C36CF0030120EE46F0BCD801D80AD04E
:1030F0000500FA6EDE50FD6EDE50FE6EDE50FF6E95
:10310000FA501200010E0001656F45EC81F020D0ED
:10311000E3C365F0E4C366F081D803EC86F0E3C353
:103120006BF0E4C36CF0030120EE49F09BD801D8AA
:103130000AD00500FA6EDE50FD6EDE50FE6EDE50E7
:10314000FF6EFA5012000001656B010E45EC81F034
:1031500055EC92F065C0E5F366C0E6F371D8DFACDC
:1031600022D0E5C365F0E6C366F061D8D7EC85F000
:10317000E5C36BF0E6C36CF0030120EE46F077D8B0
:1031800001D80AD00500FA6EDE50FD6EDE50FE6EEC
:10319000DE50FF6EFA501200010E0001656F020E44
:1031A00045EC81F030D0E5C365F0E6C366F036D873
:1031B00003EC86F0E5C36BF0E6C36CF0030120EE90
:1031C00049F055D801D80AD00500FA6EDE50FD6EE0
:1031D000DE50FE6EDE50FF6EFA5012000001656B8D
:1031E000020E45EC81F00FD0899E899C8F968F90BE
:1031F00043D845EC81F0656B010E45EC81F0656BC1
:10320000020E45EC81F0FCC2DDF1FDC2DEF1FEC232
:10321000DFF1FFC2E0F119D8DDEF33F0FCC267F057
:10322000FDC268F0FEC269F0FFC26AF01200FCC283
:1032300067F0FDC268F0FEC269F0FFC26AF01200DA
:10324000DFC3D9FFE0C3DAFF1200010E0101E16F15
:10325000E26BE36BE46BE56B010CE151D926E251C3
:10326000DA221200E351D926E451DA221200E551A4
:10327000D926E651DA2212000001656B000CC8EC79
:1032800091F065C073F066C074F0290E00012BD96F
:10329000696B020E6B6FEDEC83F0270E24D9020EE2
:1032A000696F6B6FEDEC83F0230E1DD9040E2AD9E4
:1032B000EDEC83F0250E17D9060E24D9EDEC83F042
:1032C0002B0E11D9080E1ED9EDEC83F02D0E0BD963
:1032D0000A0E18D9EDEC83F03A0E05D90C0E16D96A
:1032E000EDEC83F017D90D0E11D9EDEC83F002D976
:1032F000AFEC5FF00DEC8FF065C073F066C074F05A
:10330000290E0001F0D8100EFDD8EDEC83F0270E49
:10331000EAD8120EF7D8EDEC83F0230EE4D8140EA1
:10332000F1D8EDEC83F0250EDED8160EEBD8EDECDF
:1033300083F02B0ED8D8180EE5D8EDEC83F02D0EC7
:10334000D2D81A0EDFD8EDEC83F03A0ECCD81C0E92
:10335000DDD8EDEC83F0DED81D0ED8D8EDEC83F08F
:10336000C9D8AFEC5FF019EC8FF065C073F066C0A0
:1033700074F0290E0001B7D8200EC4D8EDEC83F00C
:10338000270EB1D8220EBED8EDEC83F0230EABD8B9
:10339000240EB8D8EDEC83F0250EA5D8260EB2D8B1
:1033A000EDEC83F02B0E9FD8280EACD8EDEC83F01B
:1033B0002D0E99D82A0EA6D8EDEC83F03A0E93D8AC
:1033C0002C0EA4D8EDEC83F0A5D82D0E9FD8EDECF3
:1033D00083F090D8AFEC5FF0380E85D8440E92D8C9
:1033E000EDEC83F0A20E676F010E686F6A6B300E12
:1033F0008DD8EDEC83F0AD0E676F010E686F6A6BD0
:10340000310E84D8EDEC83F0AE0E676F010E686F5D
:103410006A6B320E7BD8EDEC83F00101AE97BD0EE6
:103420000001676F010E686F6A6B330E78D8EDECA0
:1034300083F0590E676F686B6A6B380E70D8EDECCD
:1034400083F0C50E676F010E686F6A6B3C0E67D81C
:10345000EDEC83F0C10E676F010E686F6A6B400E72
:103460005ED8EDEC83F05E0E676F686B6A6B460E9C
:103470004DD8EDEC83F0C90E676F010E686F6A6B73
:10348000470E40D8EDEC83F0CF0E676F010E686FEA
:103490006A6B490E37D8EDEC83F023EC92F0652986
:1034A0006E6F000E66216F6F6EC067F06FC068F0C0
:1034B0006A6B500E2BD8EDEC83F0706B702B0E0EF8
:1034C0007065FCD7710E676F686B6A6B880E1ED8CB
:1034D000EDEC83F071B103D00101B69102D001018E
:1034E000B681000012007325676F000E7421686FAB
:1034F0006A6B120073C065F074C066F072C067F04A
:10350000686B1200696F020E6B6F020C696F010E1F
:103510006B6F010C720E676F686B6A6B1200696FDC
:10352000040E6B6F040C0550800B0E6E05500524C5
:10353000146E04BE1480145008E0142804E1026ADA
:10354000036A046A056A048E04D0026A036A046A84
:10355000056A0950800B0E1A095009240F6E08BE27
:103560000F800F5008E00F2804E1066A076A086A16
:10357000096A088E04D0066A076A086A096A0F5049
:1035800002E0145005E1026A036A046A056A120047
:1035900008500202F3CF19F0F4CF1AF01950106E50
:1035A000116A126A136A1A50156E166A176A186A37
:1035B00007500302F3CF19F0F4CF1AF01950102678
:1035C000000E1122122213221A501526000E162266
:1035D0001722182206500402F3CF19F0F4CF1AF084
:1035E00019501026000E1122122213221A501526ED
:1035F000000E16221722182212C013F011C012F06A
:1036000010C011F0106A06500302F3CF19F0F4CF86
:103610001AF0195010261A501122000E12221322ED
:1036200007500202F3CF19F0F4CF1AF01950102608
:103630001A501122000E1222132212C013F011C0D0
:1036400012F010C011F0106A06500202F3CF19F008
:10365000F4CF1AF0195010261A501122000E12221F
:10366000132208500302F3CF19F0F4CF1AF01950C7
:1036700015261A501622000E17221822075004028F
:10368000F3CF19F0F4CF1AF0195015261A5016225C
:10369000000E1722182208500402F3CF19F0F4CFBD
:1036A0001AF019500A6E1A500B6E0C6A0D6A080E49
:1036B000D8900A360B360C360D36E82EF9D70A505C
:1036C00015260B5016220C5017220D50182213509D
:1036D0001526000E16221722182212C013F011C050
:1036E00012F010C011F0106A0F5014C00AF00B6AEB
:1036F0000A26000E0B22820E0A24196EFF0E0B20E2
:103700001A6E0FD0D890153616361736183613BEE7
:103710001580D89010361136123613361906D8A0F7
:103720001A0617AEEFD70F6A13AE13D010500A6EF9
:1037300011500B6E12500C6E7F0E13140D6E0A504A
:103740000B100C100D1003E0010E0F6E02D015B01F
:10375000FBD70F500EE0152A000E16221722182252
:1037600018A007D018341832173216321532194AF9
:103770001A2A1ABE0AD01A5002E1192806E3156A5D
:10378000166A800E176E7F0E15D01ABE04D01A501E
:1037900008E1190406E2156A166A176A186A0E6AC1
:1037A0000AD019C014F07F0E1716186A14B0178EBD
:1037B000D8901430186E0E50181215C002F016C0B2
:1037C00003F017C004F018C005F012008B0501E0EB
:1037D00028D1C8EC91F065C076F066C077F0290E6C
:1037E000000123D96B6B020E6D6F41EC76F0270E52
:1037F0001CD9020E6B6F6D6F41EC76F0230E15D95C
:10380000040E1AD941EC76F0250E0FD9060E14D904
:1038100041EC76F02B0E09D9080E0ED941EC76F06A
:103820002D0E03D90A0E08D941EC76F03A0EFDD8D8
:103830000C0E06D941EC76F0350EF7D80D0E00D9F6
:1038400041EC76F00DEC8FF065C076F066C077F055
:10385000290E0001EAD8100EEFD841EC76F0270EC1
:10386000E4D8120EE9D841EC76F0230EDED8140E1F
:10387000E3D841EC76F0250ED8D8160EDDD841EC11
:1038800076F02B0ED2D8180ED7D841EC76F02D0E4C
:10389000CCD81A0ED1D841EC76F03A0EC6D81C0E10
:1038A000CFD841EC76F0350EC0D81D0EC9D841EC0A
:1038B00076F019EC8FF065C076F066C077F0290ECF
:1038C0000001B3D8200EB8D841EC76F0270EADD861
:1038D000220EB2D841EC76F0230EA7D8240EACD835
:1038E00041EC76F0250EA1D8260EA6D841EC76F054
:1038F0002B0E9BD8280EA0D841EC76F02D0E95D833
:103900002A0E9AD841EC76F03A0E8FD82C0E98D821
:1039100041EC76F0350E89D82D0E92D841EC76F038
:10392000380E83D8440E88D841EC76F0A20E696F29
:10393000010E6A6F6C6B300E83D841EC76F0AD0EE1
:10394000696F010E6A6F6C6B310E7AD841EC76F0BC
:10395000AE0E696F010E6A6F6C6B320E71D841EC5E
:1039600076F0BD0E696F010E6A6F6C6B330E6CD80A
:1039700041EC76F0590E696F6A6B6C6B380E64D847
:1039800041EC76F0C50E696F010E6A6F6C6B3C0EF0
:103990005BD841EC76F0C10E696F010E6A6F6C6BFB
:1039A000400E52D841EC76F05E0E696F6A6B6C6B1C
:1039B000460E46D841EC76F0C90E696F010E6A6F6B
:1039C0006C6B470E39D841EC76F0CF0E696F010E63
:1039D0006A6F6C6B490E30D841EC76F023EC92F0B4
:1039E0006529726F000E6621736F72C069F073C033
:1039F0006AF06C6B500E24D841EC76F0756B752B29
:103A00000E0E7565FCD70101010EB6A1000E000176
:103A1000746F740E696F6A6B6C6B880E11D841EC11
:103A200076F001018B6B000012007625696F000EA5
:103A300077216A6F6C6B12006B6F020E6D6F020C58
:103A40006B6F010E6D6F010C6B6F040E6D6F040CCC
:103A50006851800B716F68516825736F67BF738100
:103A6000735105E0732901E106D9678F03D0656BB7
:103A7000666B676B686B6C51800B726F711901E03C
:103A8000718D6C516C25726F6BBF7281725108E041
:103A9000722904E1696B6A6B6B6B6C6B6B8F03D083
:103AA000696B6A6B6B6B6C6B7351725D22E271AD0B
:103AB00002D0800E711B73C074F072C073F074C0BA
:103AC00072F065C074F069C065F074C069F066C0DA
:103AD00074F06AC066F074C06AF067C074F06BC0BE
:103AE00067F074C06BF068C074F06CC068F074C0AC
:103AF0006CF0746B735172C06DF06E6B6D5F000E85
:103B00006E5B6EBF15D06E5103E11A0E6D5D10E352
:103B1000C7D8010ED8B4000E746FADD872C073F060
:103B20000AD074A102D0B7D802D0D89074339AD8F2
:103B30007251735DF6E371BD15D0735101E1A6D0EA
:103B4000695165276A5166236B5167236C5168235D
:103B500068A153D074A102D09ED802D0D8907433FB
:103B600081D84BD06951655D6A5166596B5167596F
:103B70006851800A6D6F6C51800A6D591FE2655162
:103B8000695D6D6F66516A596E6F67516B596F6FE2
:103B900068516C59706FFF0E6D25656FFF0E6E21B9
:103BA000666FFF0E6F21676FFF0E7021686F800ECA
:103BB000711B746D74510AE163D808D06951655F57
:103BC0006A51665B6B51675B6C51685B69D813E146
:103BD000745111E15BD0D890653766376737683725
:103BE00074BF658174A102D0D88001D0D890743799
:103BF000735101E0730767AFEED7726B74AF0AD0F1
:103C000074C06DF07F0E6D1703E0010E726F02D06D
:103C100065B1FBD772510BE033D868A108D0683585
:103C20006833673366336533732901E0732B732977
:103C300002E0735104E11FD8735101E1716B73A16C
:103C400002D0678F01D0679FD8907331686F71BFC2
:103C5000688F65C065F066C066F067C067F068C0D1
:103C600068F0120065B1748F683568336733663366
:103C70006533732B1200656B666B676B686B1200A4
:103C8000652B000E662367236823000C656B666B4B
:103C9000676B686B1200D89074310109746F120061
:103CA000655166116711681112009B6F00019B51ED
:103CB00042EC79F068C09CF069C09DF000019C5115
:103CC0009D11D8B412009CC065F09DC066F057EC01
:103CD00088F00009D8B41200250E9E6F9F0E916FD8
:103CE000926B91C0D9FF92C0DAFF9BC0DFFF20EE3C
:103CF00001F09151D9269251DA2210EE3AF0F1D822
:103D0000E222E75052EC8AF0DF6E9E0EAAEC41F000
:103D1000C2EC55F020EE22F0BDD8DF501FE1260E98
:103D20009E6F9F0E936F946B93C0D9FF94C0DAFF80
:103D3000C8D8B0D810EE01F09351E1269451A4D820
:103D400020EE1FF0A7D810EE03F09351E126945116
:103D5000B3D8AAEC41F0C2EC55F04CD0270E9E6FC0
:103D60009F0E976F986B97C0D9FF98C0DAFFA9D8BC
:103D700091D810EE23F0B5D881EC46F096D8D8A0B3
:103D800020EE23F087D8DECF8DF0DDCF8EF020EE51
:103D900001F0ABD88DC0DEFF8EC0DDFF20EE1FF03E
:103DA00079D810EE03F09751E1269851E222DFCF47
:103DB000E7FF20EE23F06ED810EE25F092D881ECCC
:103DC00046F073D8D8A020EE23F064D8DECF8FF071
:103DD000DDCF90F020EE04F088D88FC0DEFF90C0D9
:103DE000DDFF20EE1FF056D810EE06F09751E126C9
:103DF0009851AED7290E9E6F9F0E956F966B6AD81D
:103E000020EE2BF047D84BD83FD89E0EAAEC41F0BD
:103E1000C2EC55F02A0E9E6F5DD820EE2DF03AD8F8
:103E20003ED832D89E0EAAEC41F0C2EC55F02B0ED3
:103E30009E6F9F0E996F9A6B99C0D9FF9AC0DAFF57
:103E40009BC0DFFF20EE27F025D810EE01F03ED812
:103E50001BD820EE1FF01ED810EE03F037D8E22258
:103E6000DFCFE7FF20EE29F015D810EE04F02ED8B2
:103E70000BD820EE1FF00ED810EE06F027D81CD875
:103E8000AAEC41F0C2EF55F0E222DECFE6FFDDCF33
:103E9000E5FF12009C51D9269D51DA22120010EE46
:103EA00001F09551E126965112008C6FDE50800A88
:103EB0008C5920EE25F01200E222DFCFE7FF9E0EA4
:103EC00012009BC0DFFF20EE25F012009951E12681
:103ED0009A51120095C0D9FF96C0DAFF9BC0DFFF50
:103EE00012009C51E1269D5112009751D9269851FC
:103EF000DA221200F6EC71F007D90FD9ADEC78F0A8
:103F0000F4D850EC62F07DC0D3F17EC0D4F17FC014
:103F1000D5F180C0D6F1E2C0D6F0E3C0D7F0E4C05E
:103F2000D8F0E5C0D9F0D3C1DAF0D4C1DBF0D5C107
:103F3000DCF0D6C1DDF0E70EDE6F020EDF6FDE0EC5
:103F4000E06F020EE16F5DEC68F0D6C053F3D7C0AE
:103F500054F3DAD8320EE8D8ADEC78F0C6D850EC8D
:103F600062F07DC0D7F17EC0D8F17FC0D9F180C0AA
:103F7000DAF1CAD8D2D8ADEC78F0B7D850EC62F00C
:103F80007DC0DBF17EC0DCF17FC0DDF180C0DEF101
:103F9000D7C1C2F0D8C1C3F0D9C1C4F0DAC1C5F0ED
:103FA000DBC1C6F0DCC1C7F0DDC1C8F0DEC1C9F0BD
:103FB000CB0ECA6F030ECB6F93EC2EF0C2C055F33D
:103FC000C3C056F3A1D8640EAFD8ADEC78F08DD84D
:103FD00050EC62F07DC08AF07EC08BF07FC08CF028
:103FE00080C08DF0EBEC86F08AC057F38BC058F39D
:103FF0008BD8640E99D8ADEC78F077D850EC62F09D
:104000007DC0DFF17EC0E0F17FC0E1F180C0E2F170
:10401000E2C08AF0E3C08BF0E4C08CF0E5C08DF024
:10402000DFC18EF0E0C18FF0E1C190F0E2C191F00C
:10403000E5EC60F08AC059F38BC05AF365D86DD8AF
:10404000ADEC78F052D850EC62F07DC08AF07EC0C2
:104050008BF07FC08CF080C08DF00EEC85F08AC0B4
:104060005BF38BC05CF350D858D8ADEC78F03DD8FA
:1040700050EC62F07DC08AF07EC08BF07FC08CF087
:1040800080C08DF08DEC82F08AC05DF38BC05EF352
:104090003BD83C0E49D8ADEC78F027D850EC62F014
:1040A0007DC0ABF07EC0ACF07FC0ADF080C0AEF0A4
:1040B000A0EC7BF0ABC05FF3ACC060F3530E656F58
:1040C000030E666F686B070E676FE2C069F0E3C0AE
:1040D0006AF0E4C06BF0E5C06CF00E0E6D6F120E6E
:1040E0006E6F010E6F6FEDEF85F071C07DF072C0E5
:1040F0007EF073C07FF074C080F0E80E816F030E15
:10410000826F836B846B030CE2C071F0E3C072F0CA
:10411000E4C073F0E5C074F01200E80E756F030E92
:10412000766F776B786B030C756F766B776B786B4C
:104130001200866F0001876B070E86190FE196EC5F
:1041400080F0FDD8F3EC87F092EC80F0F8D8F3EC37
:1041500087F08EEC80F0F3D8F3EF87F0090E861924
:10416000D8B41200856BA5D081C0D9FF82C0DAFF18
:104170007FC0E1FF80C0E2FFDE50E61801E1B3D06E
:104180008751220F7A6F300E7B6F7FC0D9FF80C0BE
:10419000DAFFDF507C6F87511B0FF3EC87F0A3D061
:1041A00020EE01F0D4D810EE01F07F51E1268051CD
:1041B000E222DE50E61801E196D08751770F7A6F40
:1041C000300E7B6F20EE01F0A6D8700FF3EC87F075
:1041D0008AD020EE02F0BBD810EE02F07F51E1262B
:1041E0008051E222DE50E6187EE08751470FA1D8C9
:1041F00092D8440FF3EC87F0B3D89BD88CD84B0FF0
:10420000F3EC87F0A9D895D886D84B0FF3EC87F05C
:104210006AD020EE03F09BD810EE03F07F51E12628
:104220008051E222DE50E6185EE08751220F7A6F5D
:10423000370E7B6F20EE03F06ED81B0FF3EC87F088
:1042400052D020EE04F083D810EE04F07F51E12626
:104250008051E222DE50E61846E08751770F7A6FF0
:10426000370E7B6F20EE04F056D8700FF3EC87F01A
:104270003AD020EE05F06BD810EE05F07F51E12624
:104280008051E222DE50E6182EE08751470F4BD8CE
:1042900042D8440FF3EC87F063D845D83CD84B0F95
:1042A000F3EC87F059D83FD836D84B0FF3EC87F0B2
:1042B0001AD08651836F846B845115E1835101E1DB
:1042C00053D7010A01E16CD7030A83E0010AA1E098
:1042D000070AB7E0010ACDE0030A05E0010A03E09E
:1042E0000F0AD8A4010A0B0E00018727852B030EA5
:1042F0008565DFD7060E8661060C86517F25D96E4F
:10430000000E8021DA6E86518125E16E000E822139
:10431000E26E0BEF51F07F51D9268051DA22DF5047
:104320007C6F875112007A6F370E7B6F20EE05F09D
:10433000370C7A6F300E7B6F20EE02F0300C7B6F03
:104340007FC0D9FF80C0DAFFDF507C6F180C81512D
:10435000D9268251DA221200000187514E0F120035
:10436000000187514B0F12007651800B7F6F765101
:104370007625816F75BF8181815105E0812901E139
:1043800003D9758F01D000D97A51800B7F1B7A51E8
:104390007A25806F79BF8081805105E0802901E115
:1043A000EED8798F01D0EBD8805102E0815105E140
:1043B000736B746B756B766B120079517303B2D8A3
:1043C000826F836B846B856B8B51866F876B886B79
:1043D000896B78517403A6D8B3D877517503A2D8E6
:1043E000AFD8A6D8775174039DD8B6D87851730347
:1043F00099D8B2D89DD87751730394D8ADD8795154
:10440000740390D8B5D8785175038CD8B1D8795148
:10441000750388D87B6F8B517C6F7D6B7E6B080E2C
:10442000D8907B377C377D377E37E82EF9D77B51A4
:1044300086277C5187237D5188237E51892385518E
:10444000862791D875D8805181C07BF07C6B7B2703
:10445000000E7C23820E7B258A6FFF0E7C218B6FE2
:104460000FD0D890863787378837893785BF8681C0
:10447000D89082378337843785378A07D8A08B074F
:1044800088AFEFD7806B85AF13D082517B6F83519C
:104490007C6F84517D6F7F0E85157E6F7B517C1103
:1044A0007D117E1103E0010E806F02D086B1FBD733
:1044B00080510BE0862B57D889A107D089358933E5
:1044C0008833873386338A4B8B2B8BBF0AD08B5133
:1044D00002E18A2906E3866B876B800E886F7F0E68
:1044E00015D08BBF04D08B5108E18A0506E2866B9C
:1044F000876B886B896B7F6B0AD08AC081F07F0ED7
:104500008817896B81B1888FD8908131896F7F51ED
:10451000891386C073F087C074F088C075F089C0B5
:1045200076F01200F3CF8AF0F4CF8BF08A511200AC
:1045300084C085F083C084F082C083F0826B120057
:104540008227000E8323842385238B518627000E28
:10455000872388238923000C82278B518323000E15
:1045600084238523000C000E872388238923000CD5
:1045700086278B518723000E88238923000C776BB5
:10458000786B796B7A6B1200736B746B756B766BEF
:10459000120023C290F024C291F025C292F026C2EC
:1045A00093F07DC090F07EC091F07FC092F080C00B
:1045B00093F090C081F091C082F092C083F093C0DC
:1045C00084F083358435816F826B836B846B823793
:1045D00081518D6F8E6B8EBF0ED08E5103E1960E82
:1045E0008D5D09E37DC07DF07EC07EF07FC07FF0F1
:1045F00080C080F01200010E93AF000E8F6F8F51BC
:1046000012E07DC065F07EC066F07FC067F080C0BC
:1046100068F01FEC8CF065C07DF066C07EF067C06E
:104620007FF068C080F08EBF05D08E5108E17E0E0D
:104630008D5D05E27D6B7E6B7F6B806B1200696B1D
:104640006A6B6B6B4B0E6C6F7DC065F07EC066F065
:104650007FC067F080C068F028EC1DF09AD8696BC5
:104660006A6B6B6BCB0E6C6F8BD828EC1DF065C042
:1046700085F066C086F067C087F068C088F085C0A6
:1046800075F086C076F087C077F088C078F07DC07E
:1046900079F07EC07AF07FC07BF080C07CF0D3ECF4
:1046A00080F075C098F076C099F077C09AF078C025
:1046B0009BF0896B8A6B8B6B8C6B656B666B676B26
:1046C0003F0E54D8C9EC5BF003E26CD8BF0E0AD0A1
:1046D000656B666B676BBF0E49D8C9EC5BF003E393
:1046E00061D83F0E8C6F7DC069F07EC06AF07FC0DC
:1046F0006BF080C06CF098C065F099C066F09AC00D
:1047000067F09BC068F028EC1DF043D839D889C009
:1047100069F08AC06AF08BC06BF08CC06CF028EC3A
:104720001DF065C098F066C099F067C09AF068C047
:104730009BF08F5112E098C065F099C066F09AC066
:1047400067F09BC068F01FEC8CF065C098F066C005
:1047500099F067C09AF068C09BF098C07DF099C04E
:104760007EF09AC07FF09BC080F01200686F98C006
:1047700069F099C06AF09AC06BF09BC06CF01200AF
:1047800094C065F095C066F096C067F097C068F079
:10479000120065C094F066C095F067C096F068C0DE
:1047A00097F01200896B8A6B800E8B6F800CDDECAA
:1047B00092F026EC68F000018E6B8F6B906B916B22
:1047C0008D6BB10ED5D87E6BE9EC8EF026EC68F0DF
:1047D000680E00018C6FE40EE82EFED78C2FFCD7FC
:1047E0000000B10E0001C4D87E6FE9EC8EF026EC1B
:1047F00068F0680E00018C6FE40EE82EFED78C2F57
:10480000FCD7000000018D2B020E8D65DAD78E815A
:104810008E0E896FFBEC74F000018E838E0E896F13
:10482000FBEC74F000018E858E0E896FFBEC74F04A
:1048300000018E878E0E896FFBEC74F000018E896B
:104840008E0E896FFBEC74F000018E8B8E0E896FDB
:10485000FBEC74F000018E8D8E0E896FFBEC74F012
:1048600000018E8F8E0E896FFBEC74F000018F8B30
:104870008E0E896FFBEC74F000018F898E0E896FAC
:10488000FBEC74F000018F878E0E896FFBEC74F0E7
:1048900000018F858E0E896FFBEC74F000018F8311
:1048A0008E0E896FFBEC74F000018F818E0E896F84
:1048B000FBEC74F000018F8F8E0E896FFBEC74F0AF
:1048C000000190818E0E896FFBEC74F000018F8DDA
:1048D0008E0E896FFBEC74F0000190838E0E896F51
:1048E000FBEC74F0000190878E0E896FFBEC74F086
:1048F000000190858E0E896FFBEC74F000019089A9
:104900008E0E896FFBEC74F0000191898E0E896F19
:10491000FBEC74F0000191838E0E896FFBEC74F058
:104920000001908B8E0E896FFBEC74F00001908F6C
:104930008E0E896FFBEC74F00001908D8E0E896FE6
:10494000FBEC74F0000191818E0E896FFBEC74F02A
:104950000001918B8E0E896FFBEC74F00001918544
:104960008E0E896FFBEC74F0DDEC92F026EF68F0B0
:104970007A6F230E7B6F010E7C6F8DC07DF0010C72
:10498000A26BA36BA46BA56B9E0EA26FEF0EA36F21
:10499000E10EA46F410EA56FA3D846EC3AF0CED835
:1049A0005C0E776FFE0E786FE80E796F3A0E7A6FB5
:1049B000B4EC21F073C09EF07CD828EC1DF0ACD88C
:1049C0008FD846EC3AF0BAD88BD846EC3AF0ADD84E
:1049D000B4EC21F09CD88ED8ED0E776F450E786F31
:1049E000DE0E796FB20E7A6FB4EC21F073C09EF0D8
:1049F00060D828EC1DF090D873D846EC3AF09ED8D9
:104A00006FD846EC3AF091D8B4EC21F080D872D847
:104A100067D846EC3AF089D8B4EC21F078D86AD857
:104A20003A0E776F6D0E786FA00E796F2B0E7A6F3E
:104A3000B4EC21F073C09EF03CD828EC1DF06CD88B
:104A4000A2C073F0A3C074F0A4C075F0A5C076F046
:104A5000776B786B200E796F410E7A6FB4EC21F092
:104A600073C0A2F074C0A3F075C0A4F076C0A5F026
:104A7000A2C07DF0A3C07EF0A4C07FF0A5C080F0EE
:104A8000C9EC22F07DC0A2F07EC0A3F07FC0A4F0EC
:104A900080C0A5F0A2C065F0A3C066F0A4C067F016
:104AA000A5C068F0A6EC56F065C09CF066C09DF00D
:104AB000120074C09FF075C0A0F076C0A1F0A2C033
:104AC00065F0A3C066F0A4C067F0A5C068F09EC002
:104AD00069F09FC06AF0A0C06BF0A1C06CF012003A
:104AE0009CC065F09DC066F0000E66BFFF0E676F4C
:104AF000686F010C75C0A0F076C0A1F09EC073F085
:104B00009FC074F0A0C075F0A1C076F0120073C011
:104B10009EF074C09FF0120065C0A2F066C0A3F0C2
:104B200067C0A4F068C0A5F0120065C077F066C049
:104B300078F067C079F068C07AF0120065C073F051
:104B400066C074F067C075F068C076F01200686FD8
:104B50007BD0700E656F250E666F010E676F1200B9
:104B6000D20E656FBB0E666F000E676F1200EC0E03
:104B7000656F140E666F010E676F1200FE0E656F93
:104B8000100E666F010E676F1200320E656FDE0E3B
:104B9000666F000E676F1200EA0E656FB50E666FE6
:104BA000000E676F1200100E656FF80E666F000E34
:104BB000676F1200820E656F0D0E666F010E676FD4
:104BC0001200FA0E656FF60E666F000E676F120028
:104BD000200E656FF90E666F000E676F1200DC0E17
:104BE000656FF80E666F000E676F1200B40E656F8A
:104BF000F60E666F000E676F1200980E656FF80E66
:104C0000666F000E676F1200A60E656FE50E666F89
:104C1000000E676F1200FC0E656FE80E666F000EE7
:104C2000676F1200540E656FF80E666F000E676FA7
:104C30001200160E656FE10E666F000E676F1200B0
:104C4000656B666B676B12000001685189E0020AB0
:104C5000E9E0010A8CE0070A91E0010A8FE0030A0B
:104C6000C5E0010A8BE00F0AB3E0020A80E0010A06
:104C700001E17DD71B0AD6E0010A87E0090AD2E0EC
:104C8000010A8AE0030A8FE03A0ACCE0010A01E156
:104C90006ED7030A01E16BD7010A8CE0070A91E0A5
:104CA000010A9DE0030AA9E0010AAEE00E0AB3E0A2
:104CB000030AB1E0010AA8E01B0ABBE0710AB2E0F6
:104CC000030AB0E0010AAEE0070AACE0010AAAE07C
:104CD000030AA8E0010AA6E00E0AA4E0030AA2E083
:104CE000010AA0E02B0A01E134D7110A01E169D7DA
:104CF000F10A98E0030A96E0070A94E0140A01E139
:104D000059D7010A01E125D7030A01E122D798D733
:104D1000C7D8DA22DECF77F0DDCF78F0C1D8ACEC9F
:104D200033F07EEC42F0E75000017A6FB9D8BED87C
:104D30007EEC42F0E750796F3CC07BF03DC07CF0E8
:104D4000770E746FF3EC82F0000901E093D0770ED8
:104D50006C6F726B736B6C51A5EC2AF07EEC42F0B9
:104D6000E750030F706F000ECFEC91F000016C5113
:104D7000D96EDA6ADECF68F0DDCF69F070C06AF014
:104D80000CEC83F0010E716F3FD0720E656F6C51A9
:104D9000D96EDA6ADECF6DF0DDCF6EF071516D2520
:104DA000D96E000E6E21DA6EDF50666F6651676F46
:104DB000686B67C068F0676B6551D96EDA6A6751D6
:104DC000DE1A6851DD1A080E6B6F74D868AF14D004
:104DD00001D012D06FD8D89067376837210E671985
:104DE000696F100E68196A6F6551D96EDA6A69C009
:104DF000DEFF6AC0DDFF02D0655164D86B076B51DE
:104E0000E4E101D0E2D7712B7051715DBEE301D0B6
:104E1000BCD76C5169EC2AF033D873C0DFFF6C51FA
:104E200069EC2AF0DF2A6C5169EC2AF029D872C0AB
:104E3000DFFF6C5169EC2AF0DF2A6C5169EC2AF033
:104E40001FD80D0EDF6E6C5169EC2AF0DF2A77C097
:104E500066F078C067F079C068F001D80BD0050023
:104E6000FA6E02014D51FD6E4E51FE6E4F51FF6EB6
:104E7000FA50120015D81AD87EEC42F0E76A1200F8
:104E8000DF506D6F6C51D96EDA6ADECF6EF0DDCF18
:104E90006FF06D516E25D96E000E6F21DA6E120023
:104EA00020EE02F03A50D9263B501200DA2210EEE2
:104EB00064F012006551D96EDA6ADECF67F0DDCF9B
:104EC00068F01200D96EDA6AD890DE36DD3612004C
:104ED000C8EC91F065C079F066C07AF0ADD88ED894
:104EE000C80EDE6EDD6A20EE27F088D86E0EB4D8CC
:104EF00085D8B40EDE6EB9D881D8B40EA8D87ED8C5
:104F0000010EDE6E80D87AD882D878D8010EDF6E96
:104F100097D8AFEC5FF00DEC8FF065C079F066C00C
:104F20007AF08AD86BD82C0EDE6E010E9AD866D82D
:104F3000640E92D863D8960EDE6E97D85FD8FA0EBC
:104F400086D85CD8DE6A5FD859D861D857D8DF6A6E
:104F500077D8AFEC5FF019EC8FF065C079F066C0E0
:104F60007AF06AD84BD88A0EDE6E020E7AD846D80E
:104F7000300EDE6E020EDD6E20EE23F03FD87ED8BE
:104F800020EE25F03BD87AD820EE2BF037D8010E52
:104F9000DE6E39D833D83BD831D8020EDF6E50D808
:104FA000AFEC5FF020EE38F029D8DE6ADD6A01014F
:104FB000A26B040EAD6F060EAE6F5BD809EC7BF0F2
:104FC0002DD85E6AC96BCA6B23EC92F065C068F09D
:104FD00066C069F06B6B6A6B6D6B340E6C6F00ECC6
:104FE00087F0786B782B0E0E7865FCD70101B681BF
:104FF000010E8B6FE6EC1BF0000012007951D926F0
:105000007A51DA221200DD6A20EE2DF01200580EDD
:10501000DE6E020EDD6E20EE3AF0020C020EC76F5D
:10502000C86B080EC16F640EC26FFD0EC36FC469FA
:10503000D06B140ECF6F140C000120EE29F012007B
:1050400079C065F07AC066F0686B676B1200DE6E3F
:10505000DD6A20EE2BF01200DE6EDD6A20EE23F01A
:105060001200DD6E20EE27F01200DD6A20EE25F042
:105070001200596A5A6A5B6A5C6AF80C440EDE6E6A
:10508000020EDD6E020C0001786F78511FE0816B1B
:10509000826B000E716F030E726FD8908135D96EDE
:1050A0008235DA6ED890D936DA367151D9267251F6
:1050B000DA22B9D8814B822B82BFEBD7825103E130
:1050C0000B0E815DE6E30101946B000C010194512C
:1050D000040D000EF324D96E030EF420DA6EA3D86B
:1050E0006DC079F06EC07AF06FC07BF070C07CF05C
:1050F0006DC07DF06EC07EF06FC07FF070C080F03C
:10510000942B090E946501D0946B0001876B886B1A
:1051100079D8DE50795DDE507A59DE507B597C516A
:10512000800A776FDE50800A775909E26BD8DECFAC
:1051300079F0DECF7AF0DECF7BF0DECF7CF062D884
:105140007D51DE5C7E51DE587F51DE58DE50800A94
:10515000776F8051800A775909E254D8DECF7DF00D
:10516000DECF7EF0DECF7FF0DECF80F0874B882B66
:1051700088BFCED7885103E10A0E875DC9E37D5110
:10518000795D656F7E517A59666F7F517B59676F84
:1051900080517C59686F1DEC79F065C083F066C062
:1051A00084F067C085F068C086F086BF09D086515C
:1051B000851105E1C00E835D5D0E845901E3000C8D
:1051C00086BF09D08651851105E1E00E835D2E0E64
:1051D000845901E3010C86BF09D08651851105E190
:1051E000700E835D170E845901E3020C86BF040C18
:1051F0008651851105E1B80E835D0B0E845901E3DC
:10520000030C040C000E716F030E726FD89087357B
:10521000D96E8835DA6ED890D936DA367151D926FA
:105220007251DA2212006DC0DEFF6EC0DEFF6FC069
:10523000DEFF70C0DEFF1200C0D842EC79F068C01B
:10524000A4F069C0A5F00001A451A51104E1B5D8EE
:10525000886F020E4FD0040E9825A0D872EC4FF044
:105260007FC0A0F080C0A1F0982998D872EC4FF0D0
:105270007FC0A2F080C0A3F0A2C06DF0A3C06EF00A
:10528000A0C06FF0A1C070F0A4C071F0A5C072F012
:10529000746B95EC30F028E201D026D083EC30F02E
:1052A0006C6B5ED808E301D006D069D804E301D066
:1052B00002D0010E6C6F6C51000916E001D014D0C1
:1052C0008CEC30F06C6B4CD808E301D006D057D88A
:1052D00004E301D002D0010E6C6F6C51000904E0B0
:1052E00001D002D0010E746F7451000905E165D838
:1052F000886F030E896F31D020EE3AF064D8020E29
:10530000DE18010ED8A4000E9F6F9F5105E1A2C0C8
:105310009BF0A3C09CF004D0A0C09BF0A1C09CF067
:1053200020EE23F050D89BC0DEFF9CC0DDFF9F51D4
:1053300005E1A0C09DF0A1C09EF004D0A2C09DF0E8
:10534000A3C09EF020EE25F03ED89DC0DEFF9EC09B
:10535000DDFFCFEC8BF031D83BD8470E73EF82F0F6
:1053600020EE13F06751D9266851DA22DE50655DD0
:105370006651800A6B6FDE50800A6B59120020EE76
:1053800015F06751D9266851DA226551DE5CDE508E
:10539000800A6B6F6651800A6B5912007F6F000E96
:1053A0009921806F20EE1FF0A451D926A551DA2251
:1053B000DECF81F0DDCF82F0120098C0D9FF99C016
:1053C000DAFFDF501200A451D926A551DA221200CB
:1053D0000001886F896B120070517BD8030EDF6E5D
:1053E0007051D96EDA6ADECF71F0DDCF72F071C024
:1053F000D9FF72C0DAFF1B0EDF6E56D8500EDF6E7B
:10540000705167D8DF2A50D8DF6A705162D8DF2A1E
:105410004BD8DF6870515DD810EC35F070C06BF080
:10542000A5D8686B9BD803E008D001D006D0682BC4
:10543000050E6865F7D701D0F5D76F6B67D86F2B6E
:10544000050E6F65FBD701D0F9D76B5142D846D80E
:1054500040D848D857D83DD8DF2A6B513AD842D8DF
:1054600079D837D8DF2A20D8010EDF6E705131D8B5
:10547000DF2A1AD8640EDF6E70512BD8DF2A7051E4
:105480000BEC35F07EEC42F0E76A70515ED87EECB2
:1054900042F070511ED8DF50FD0FE76E705119D8E1
:1054A000640EDF60010C000C7051D96EDA6A020ED6
:1054B000D926DF50716F7051D96EDA6ADECF72F083
:1054C000DDCF73F071517225D96E000E7321DA6E43
:1054D0001200D96EDA6A020ED926020C060EDF26F9
:1054E0006B511200DF506C6F6B51D96EDA6ADECFF0
:1054F0006DF0DDCF6EF06C516D25D96E000E6E2112
:10550000DA6E1200CA0EDF6E6B5112006F51692500
:10551000D96E000E6A21DA6E6B51E16EE26AE6CF57
:105520006CF0E5CF6DF06B51E16EE26A020EE126A0
:10553000E7506C27000E6D236F516C25E16E000E55
:105540006D21E26EDFCFE7FF1200D96EDA6A10EE4E
:1055500002F01200FE0EDF6E6B51120068516525DD
:10556000D96E000E6621DA6EDE28120069C065F081
:105570006AC066F0120061D0B3D84BEF92F0B0D899
:1055800015EF71F0ADD869EF85F0AAD8F1EF8DF085
:10559000BCD8DE6FB5D8DF6F12EF65F0B6D8986F64
:1055A000AFD8996F30EF8FF0B0D8986FA9D8996FB6
:1055B000B7EF47F0AAD8986FA3D8996F1CEF29F0DE
:1055C000A4D8986F9DD8996F9CEF61F09ED8986F82
:1055D00097D8996F1EEF5AF098D8986F91D8996F15
:1055E000F7EF2FF07DD859EF8EF0010182D8DECF92
:1055F00098F0DDCF99F0D4EF8FF001017AD8DECFAB
:1056000098F0DDCF99F0D5EF91F07FD8656F78D81D
:10561000666F37EF7FF079D8656F72D8666FF3EFFA
:105620008AF073D8956F6CD8966F77EF92F0DBC1E4
:105630006CF0DCC16DF053EF87F0DBC1D9FFDCC14A
:10564000DAFFDF5002E19CEF71F0010AD8B41200DA
:10565000030A02E144EF41F0010AD8B41200070A3C
:105660008BE0140A02E166EF8DF0080A02E177EFA1
:1056700090F0380A02E12FEF5FF0100AD8E0710ACB
:1056800001E17DD7030A01E17DD7010A01E17DD760
:10569000070A01E17DD7010A81E0030A85E0010ADA
:1056A00089E00E0A8DE0030A91E0010A95E01A0AEA
:1056B000D8B41200310AD8B41200010AACE0100AC2
:1056C000D8B41200F10A8EE0030A8FE0070A95E0D1
:1056D000140AD8B41200010AA4E0030A96E01200EA
:1056E000010120EE01F0DB51D926DC51DA22DF5036
:1056F000120020EE01F0DB51D926DC51DA22120033
:10570000000E0101DC2100011200010E0101DB2568
:1057100000011200939A8A9A1A0E00017D6FF80E0A
:10572000E82EFED77D2FFCD700008A8A200E0001CC
:105730007D6F290EE82EFED77D2FFCD700D0C00E3E
:1057400000019AD8300E0FEC8CF0C00E95D8370EB1
:105750000FEC8CF0C00E90D8360E0FEC8CF0A3D866
:105760003F0E786F300E0FEC8CF09DD83F0E786FA7
:10577000370E0FEC8CF097D8280E786F360E0FECA2
:105780008CF06DD8300E0FEC8CF069D8370E0FEC22
:105790008CF065D8360E0FEC8CF07AD8300E0FEC0A
:1057A0008CF076D8370E0FEC8CF072D8360E0FECEA
:1057B0008CF068D8300E0FEC8CF064D8370E0FECFC
:1057C0008CF060D8360E0FEC8CF0010E7A6F300E34
:1057D000FFEC8BF0010E7A6F370EFFEC8BF0010EB1
:1057E0007A6F360EFFEC8BF033D8300E0FEC8CF066
:1057F0002FD8370E0FEC8CF02BD8360E0FEC8CF028
:105800007E6B34D8300E0FEC8CF030D8370E0FECA6
:105810008CF02CD8360E0FEC8CF07E2B170E7E659C
:10582000F0D7180E7E6F400E39D8300E0FEC8CF08A
:10583000400E34D8370E0FEC8CF0400E2FD8360EB9
:105840000FEC8CF07E2B9B0E7E65EDD700009B0C41
:10585000C00E766F090E776F030E786F030CC00EC3
:10586000766F040E776FEB0E786FEB0C400E766F51
:105870007EC077F0786B400C766F060E776F020E65
:10588000786F020CC00E766F776B400E786F400C0D
:10589000C00E766F010E776F786B010C766F7EC04D
:1058A00077F078691200C00E766F050E776F050CE1
:1058B0000101D551070ED8A4090E3E249CD8F5CF7E
:1058C000DFF30A00F5CFE0F37CC165F07DC166F03F
:1058D000A8D801D80DD00500FA6E0900F550FD6E6C
:1058E0000900F550FE6E0900F550FF6EFA501200E7
:1058F00065C0E1F366C0E2F30301DF510101D303A8
:10590000F3CFDAF1F4CFDBF1D403F350DB2703015B
:10591000E0510101D303F350DB2788D8DECFDCF15F
:10592000DDCFDDF1DC51DA250301E36F0101DB514D
:10593000DD210301E46FE86AE8360101DBBFE80618
:105940000301E56FE86AE5BFE806E66F030E3E2453
:10595000010151D8F5CFDCF15AD8DE510301E35DE6
:105960000101DF510301E4590101E0510301E5594F
:10597000E651800A0101E26FE151800AE25902E238
:10598000030E1CD0050E3E2436D8F5CFDCF13FD8EF
:105990000301E3510101DE5D0301E4510101DF591F
:1059A0000301E5510101E059E151800AE26F030171
:1059B000E651800A0101E2590FE2050E3E241BD890
:1059C000F5CFDCF10900F5CFDDF1DCC1E3F3DDC19A
:1059D000E4F30301E56BE66B29D8E3C3DEFFE4C320
:1059E000DDFFD6C1EAF0D7C1EBF0D8C1ECF0D9C1E8
:1059F000EDF0F8EF78F0DA6F000E3F20DB6FDAC1E0
:105A0000F6FFDBC1F7FF000EF86E09001200090077
:105A1000F5CFDDF1DC51DE6FDD51DF6FE06BE16B67
:105A200012003EC0F6FF3FC0F7FF1200E1C3D9FFEE
:105A3000E2C3DAFF1200700EF66E200EF76E010E52
:105A4000F86E06EEC9F010EE12F00900F5CFEEFF89
:105A5000E550E150FAE1480EF66E040EF76E010EC5
:105A6000F86E05EEB6F010EE36F00900F5CFEEFF59
:105A7000E550E150FAE1120EF66E040EF76E010EDB
:105A8000F86E04EE72F010EE36F00900F5CFEEFF7E
:105A9000E550E150FAE1620EF66E090EF76E010E66
:105AA000F86E03EEB0F010EE2FF00900F5CFEEFF28
:105AB000E550E150FAE1A40EF66EE90EF76E000E25
:105AC000F86E02EEA7F010EE52F00900F5CFEEFFEF
:105AD000E550E150FAE1E60EF66E240EF76E010E87
:105AE000F86E01EEE9F010EE08F00900F5CFEEFFD8
:105AF000E550E150FAE10DEE00F0D60EEE6AE80650
:105B0000FDE10CEE00F0FA0EEE6AE806FDE10BEEA8
:105B100000F0FA0EEE6AE806FDE10AEE00F05A0E19
:105B2000EE6AE806FDE109EE00F0DA0EEE6AE8063C
:105B3000FDE108EE00F0FA0EEE6AE806FDE107EE80
:105B400000F0E40EEE6AE806FDE106EE00F0C90E94
:105B5000EE6AE806FDE105EE00F0B60EEE6AE80634
:105B6000FDE104EE00F0720EEE6AE806FDE103EEE0
:105B700000F0B00EEE6AE806FDE102EE00F0A70EBE
:105B8000EE6AE806FDE101EE00F0D30EEE6AE806EB
:105B9000FDE100EEF2F0090EEE6AE806FDE100EE2E
:105BA00033F02C0EEE6AE806FDE10190019200014F
:105BB000C0EF4CF0E3C1D9FFE4C1DAFFDECFE5F17D
:105BC000DDCFE6F1AB5105E1ABD82EEC91F026EC40
:105BD00068F00001666B080E656F97D8655167190C
:105BE00006E16651681901E002D0010E01D0000EF5
:105BF000000914E06E6B010E2EEC91F0840E7A6FAA
:105C0000240E7B6F78D8E9EC8EF0010E0201AB6FA9
:105C10000201A86BA96B26EC68F058D0666B040EE5
:105C2000656F73D86551671906E16651681901E01F
:105C300002D0010E01D0000E000911E06E6B010EC2
:105C40002EEC91F0690E7A6F240E7B6F54D8E9EC3C
:105C50008EF00201AB6B64D82EEC91F0D9D7010E17
:105C6000666F656B52D86551671906E16651681910
:105C700001E002D0010E01D0000E000927E04AD851
:105C8000AB190EE0ABB103D00101B69102D0010116
:105C9000B681010EF9EC91F083EC92F0E6EC1BF08A
:105CA000DFC1DBF1E0C1DCF1E1C1DDF1E2C1DEF138
:105CB00022EEC6F001D80AD00500FA6EDE50FD6E65
:105CC000DE50FE6EDE50FF6EFA5012000201AB5144
:105CD000D8B41200AA510101B319D8B4120020D8C7
:105CE0002EEC91F055EC7FF00BD834EC3DF0E9EC64
:105CF0008EF026EF68F0010E7C6F7D6F7E6B010CDD
:105D000065C07AF066C07BF01200E5C167F0E6C1BD
:105D100068F012000101010EB6A1000E020112008E
:105D200000016E6B020CC651C25DC751C359C85108
:105D3000C459C951C55908E3BB0E9C6F220E94D8B3
:105D40002F0E99D899EC84F0CAC0D9FFCBC0DAFFE6
:105D5000DE50DE10DE1009E1340E00019C6F220ED1
:105D600083D8300E88D899EC84F0000120EE03F03F
:105D700088D808E1870E9C6F220E76D8310E7BD82A
:105D800099EC84F0000120EE06F07BD808E16C0E5F
:105D90009C6F220E69D8320E6ED899EC84F0000107
:105DA00020EE09F06ED808E1170E9C6F220E5CD829
:105DB000330E61D899EC84F0C2C06EF3C3C06FF3A8
:105DC000C4C070F3C5C071F3200E0301726F2D0EB5
:105DD000736F000E746FC6C07DF0C7C07EF0C8C080
:105DE0007FF0C9C080F0C2C081F0C3C082F0C4C0DF
:105DF00083F0C5C084F050EC62F07DC02BF27EC011
:105E00002CF27FC02DF280C02EF2CAC066F1CBC04A
:105E100067F10101646B656B0201276B286B296BCD
:105E20002A6B2C0E0101AF250001F66F000E010157
:105E3000B0210001F76F000EBB6F070EBC6FBE6B89
:105E4000800EBD6F010120EE09F0D8EC17F0DECF17
:105E5000BFF0DECFC0F0DDCFC1F014EC7BF06E0EF2
:105E6000C26F030EC36F12009D6F1B0E9E6F230E39
:105E70009F6FA16B1200A06F790EA26F230EA36F0C
:105E80001200CA51D926CB51DA22DE50DE10DE10C4
:105E9000120020EE38F097D8DFAE16D020EE39F0A1
:105EA00092D8DFB211D077D8C55D92D8C65995D8AF
:105EB000C75998D8C8597BD891C0C1F192C0C2F1D6
:105EC00093C0C3F194C0C4F120EE39F07CD8DFA2B6
:105ED00016D020EE38F077D8DFBE11D05CD8C15D87
:105EE00077D8C2597AD8C3597DD8C45960D891C0DF
:105EF000C5F192C0C6F193C0C7F194C0C8F1595022
:105F00000101C55D2C6F5A50C6592D6F5B50C759A2
:105F10002E6F5C50C8592F6F2CC17DF02DC17EF0C3
:105F20002EC17FF02FC180F02C0E0001816F010E79
:105F300061EC40F0D4EC48F07DC02CF17EC02DF136
:105F40007FC02EF180C02FF159500101C15D286F33
:105F50005A50C259296F5B50C3592A6F5C50C459BB
:105F60002B6F28C17DF029C17EF02AC17FF02BC1A3
:105F700080F0D40E0001816FFE0E826F8369846908
:105F8000D4EC48F07DC028F17EC029F17FC02AF111
:105F900080C02BF11200D89059348D6F5A348E6F17
:105FA0005B348F6F5C34906F8D51010112000001E2
:105FB000946F911F921F931F941F912B000E922399
:105FC00093239423000C8B51D9268C51DA22120092
:105FD0000001916F8E51010112000001926F8F51EB
:105FE000010112000001936F90510101120085D848
:105FF00042EC79F068C09EF069C09FF000019E51AC
:106000009F1104E17AD8886F020E50D0982966D883
:1060100072EC4FF07FC09AF080C09BF0040E982580
:106020005DD872EC4FF07FC09CF080C09DF09AC0AC
:106030006DF09BC06EF09CC06FF09DC070F09EC074
:1060400071F09FC072F0746B70D82AE201D028D032
:106050005AD86C6BB0EC29F009E301D007D0BFEC43
:1060600029F004E301D002D0010E6C6F6C510009DD
:1060700017E001D015D050D86C6BB0EC29F009E3D3
:1060800001D007D0BFEC29F004E301D002D0010E0B
:106090006C6F6C51000904E001D002D0010E746FE6
:1060A0007451000905E129D8886F030E896F13D058
:1060B00020EE27F043D89AC0DEFF9BC0DDFF20EE24
:1060C00029F03CD89CC0DEFF9DC0DDFFCFEC8BF0FB
:1060D00014D8E8EC29F04B0E73EF82F07F6F000EBE
:1060E0009921806F20EE1FF09E51D9269F51DA2210
:1060F000DECF81F0DDCF82F0120098C0D9FF99C0C9
:10610000DAFFDF5012006DC065F06EC066F071C03E
:1061100067F072C068F012006FC065F070C066F082
:1061200071C067F072C068F012006F516D5D6E5102
:10613000800A736F7051800A735912009E51D926DC
:106140009F51DA221200A0D8DE6ADD6A6CC065F0C9
:106150006DC066F07B0E676F4FEC72F065C080F02B
:1061600066C081F080C065F081C066F06CC067F0E9
:106170006DC068F07CD865C079F066C07AF079515E
:10618000705D7A51715901E21200030E746F756BE4
:106190008051745F8151755B7CD87451DE267551D6
:1061A000DD2272D8DFCF74F0DE2ADFCF75F0000E6B
:1061B000DD226FD8DECF76F0DDCF77F07451762513
:1061C000D96E75517721DA6EAA0EDF6E7E6B7F6B0A
:1061D00020D07E517B0FD96EDA6A72C0E1FF73C0A6
:1061E000E2FFE7CF74F0E62AE7CF75F0000EE52274
:1061F0006EC0E1FF6FC0E2FFE6CF76F0E5CF77F04B
:1062000074517625E16E75517721B5EC70F07E4BB7
:106210007F2B80517E5D81517F59DBE335D86C51F6
:10622000DE266D51DD2235D8DECF65F0DDCF66F09C
:106230002BD8DECF67F0DDCF68F043EC86F0746FCB
:1062400023D8DECF75F0DDCF76F023D8DECF77F020
:10625000DDCF78F075517725D96E76517821DA6ED9
:1062600074C0DFFF11D8DE2A000EDD22000C67515A
:106270006525696F685166216A6F020E6925656F31
:10628000000E6A21666F120072C0D9FF73C0DAFF78
:1062900012006EC0D9FF6FC0DAFF12000001686FF4
:1062A00066D0F60E656F250E666F010E676F1200E1
:1062B0007A0E656FDA0E666F000E676F1200BC0E05
:1062C000656F1F0E666F010E676F1200400E656FDF
:1062D0001A0E666F010E676F1200CA0E656FF40E1C
:1062E000666F000E676F1200AE0E656F060E666F6A
:1062F000010E676F1200520E656F020E666F010E7F
:10630000676F12001A0E656FDA0E666F000E676F08
:106310001200EC0E656FF90E666F000E676F1200CB
:10632000E20E656F1C0E666F010E676F1200FC0EA9
:10633000656F1B0E666F010E676F12001A0E656F98
:10634000020E666F010E676F1200820E656FA10E5E
:10635000666F000E676F1200080E656F160E666F8F
:10636000010E676F1200656B666B676B12000001B0
:10637000685197E0010A9CE0030A93E0010A9FE05C
:10638000070A9DE0140A8DE0080A8BE0380A89E0CC
:10639000100AE2E0710A93E0030A91E0010A96E034
:1063A000070A9BE0010AA0E0030AA5E0010AAAE0AF
:1063B0000E0AAFE0030AADE0010AA4E01A0AC5E044
:1063C000310ABCE0010A89E0100AB8E0F10A01E1F3
:1063D00076D7030AA5E0070AA3E0140AAFE0010A92
:1063E000ADE0030AA4E0BFD7D3C1D9FFD4C1DAFF1F
:1063F000DFAE000C42C065F043C066F09AEC8AF054
:1064000000097EE0000E2DEC6EF065C0DFF166C085
:10641000E0F120EE33F02FEC3DF010EE04F07EECD6
:1064200042F0E6CFE1F1E5CFE2F10101E76BE86B85
:106430003ED020EE0DF02FEC3DF071D8DF51E75D3E
:10644000DB6FE051E859DC6FE151DB03F3CFDDF1A5
:10645000F4CFDEF1DC03F350DE27E251DB03F3502F
:10646000DE27D951DD25E36FDA51DE21E46F52D802
:10647000E3C1A7F0E4C1A8F0D5EC40F0A5C0E5F178
:10648000A6C0E6F1740E99EC35F0E7C175F0E8C1ED
:1064900076F0E5C177F0E6C178F07A6B000E796F9F
:1064A000ADEC35F036EC44F00101E74BE82B29D890
:1064B000C0E3E76BE86B18D08EEC35F035D878EC9C
:1064C00035F0B5EC3DF0D89001012ED8DA6E6C0EA7
:1064D000D926020EDA2223D8D9C1D9FFDAC1DAFFD0
:1064E00094EC35F0E74BE82B0CD8E6E3D5C1EAF0A5
:1064F000D6C1EBF0D7C1ECF0D8C1EDF0F8EC78F0F4
:10650000010C4050E75DE851800AD96F4150800A84
:10651000D959120042C0A5F043C0A6F01200DECF48
:10652000D9F1DDCFDAF11200E735D96EE835120086
:10653000010E3DEC7EF07DEC8EF0000902E026EFCE
:1065400068F07FEC92F0000904E021EC5DF026EFAA
:1065500068F00001E66BE76B76D0D890E635D96E2F
:10656000E735C2EC5BF0DECFE8F0DDCFE9F000010B
:1065700020EE33F076D8DECFE4F0DDCFE5F0E4C0F6
:10658000D9FFE5C0DAFFDF5001EC70F0E8C065F03C
:10659000E9C066F09AEC8AF0000943E0E8C067F0D1
:1065A000E9C068F06DEC86F0000907E0E8C084F00F
:1065B000E9C085F08FEC49F043D0000120EE3CF0BB
:1065C00050D8DFA212D020EE3BF04BD8DFB60DD072
:1065D0000101B85135E1E8C0D2F0E9C0D3F0B7EC21
:1065E0008CF044D8DFEC76F02BD0E8C067F0E9C03F
:1065F00068F00BEC8EF0000907E0E8C084F0E9C019
:1066000085F0C6EC4FF01CD0000120EE3BF029D8FD
:10661000DFA2E1D7E8C0D4F0E9C0D5F02AEC74F0ED
:106620000FD0E8C065F0E9C066F088EC8AF0000998
:1066300004E11CD8DFEC76F003D00101B851B6E1DB
:106640000001E64BE72B0101A9510001E65DE7518E
:10665000800AE46FECEC75F0E45901E27ED726EF96
:1066600068F0E851D926E951DA221200E8C0D4F0E6
:10667000E9C0D5F0120020EE33F072D810EE09F028
:106680007EEC42F0E650E610E61044E020EE0BF01F
:1066900067D86BD865D88CD876D85ED87EEC42F0B7
:1066A000E7509F6FA06B20EE33F05AD810EE09F040
:1066B0007EEC42F001D80AD00500FA6EE650FD6E7D
:1066C000E650FE6EE650FF6EFA50120020EE0DF01E
:1066D00047D869D820EE0BF043D847D841D868D8BE
:1066E000A06B020E9F6F20EE33F03AD810EE09F047
:1066F0007EEC42F001D80AD00500FA6EE650FD6E3D
:10670000E650FE6EE650FF6EFA50120020EE0FF0DB
:1067100027D849D020EE0BF023D82ED821D839D84D
:1067200032D81AD87EEC42F0E7507D6F7E6BD5EC04
:1067300059F020EE0DF014D831D820EE0BF010D81F
:106740001BD80ED826D87E6B020E7D6FD5EC59F083
:1067500020EE0FF005D822D0DA2210EE03F012005E
:10676000A351D926A451DA221200DECF9BF0DDCF4F
:106770009CF020EE1FF01200DECF79F0DDCF7AF032
:1067800020EE1FF0120020EE36F0A351D926A451BE
:106790001200DECF7BF0DDCF7CF0120079C0DEFF8F
:1067A0007AC0DDFF12009BC0DEFF9CC0DDFF12003F
:1067B000DECF9DF0DDCF9EF01200F90E0001736F69
:1067C000020E746FA5EC6FF073C0FAF274C0FBF2A6
:1067D00002017BD8DFA00AD0DDC165F0DEC166F022
:1067E000DFC167F0E0C168F080EC90F00101E25198
:1067F000E31108E0E2C1D9FFE3C1DAFFFAC2DEFF2C
:10680000FBC2DDFFE451E51106E0E4C1D9FFE5C1BB
:10681000DAFFF9C2DFFF60D8DE5016E1DE0414E1D2
:106820000201F95111E051D8DFB40ED04ED8DFB6D5
:106830000BD0DDC1D3F1DEC1D4F1DFC1D5F1E0C1B0
:10684000D6F195EC85F0010C47D8DE04DE1005E0AA
:1068500043D8020EDE18DE101DE10201F95103E1FA
:1068600034D8DFA4010C31D8DFB2010C35D8DE04F6
:10687000DE1005E136D8FF0E08EC80F0010C2CD8B4
:10688000020EDE18DE10D8A4010C2BD8010E08EC85
:1068900080F0010C21D8800EDE18DE1015E1010118
:1068A000E15112E00201F951D8B4010C0ED8DFB267
:1068B000010CDDC1D3F1DEC1D4F1DFC1D5F1E0C1FE
:1068C000D6F17BEC87F0010C000C20EE02F0FA51BF
:1068D000D926FB51DA221200FAC2D9FFFBC2DAFF35
:1068E0001200DDC1D7F1DEC1D8F1DFC1D9F1E0C1BD
:1068F000DAF11200705169EC2AF0030EDF6E70516C
:10690000D96EDA6ADECF71F0DDCF72F071C0D9FFD7
:1069100072C0DAFF1B0EDF6E69D8510EDF6E705148
:1069200069EC2AF0DF2A62D8DF6A705169EC2AF03C
:10693000DF2A5CD8DF68705169EC2AF071D870C02A
:106940006BF0B6EC2AF0686BAEEC2AF003E008D0EE
:1069500001D006D0682B050E6865F6D701D0F4D7B4
:106960006F6B86EC2AF06F2B050E6F65FAD701D09E
:10697000F8D76B5169EC2AF06EEC2AF069EC2AF03A
:1069800072EC2AF082EC2AF069EC2AF0DF2A6B51D3
:1069900069EC2AF072EC2AF0AAEC2AF069EC2AF0F1
:1069A000DF2A24D8010EDF6E705169EC2AF0DF2A4D
:1069B0001DD8EEC1DFFF705169EC2AF0DF2A70515B
:1069C0002AD87EEC42F0E76A7051A5EC2AF07EEC02
:1069D00042F0705169EC2AF0DF50FD0FE76E705104
:1069E00069EC2AF0640EDF60010C000C7051D96E66
:1069F000DA6A020ED926DF50716F7051D96EDA6AE9
:106A0000DECF72F0DDCF73F071517225D96E000EBA
:106A10007321DA6E1200D96EDA6A10EE01F01200FC
:106A2000DF2AB1C169F0B2C16AF01200EFEC77F071
:106A3000B0C0D9F1B1C0DAF184D8740ED926020EF3
:106A4000DA22DECFF0F0DDCFF1F0D3510001F025F6
:106A50000101DB6FD4510001F1210101DC6F740EE3
:106A6000000167D87EC175F07FC176F0DBC177F099
:106A7000DCC178F0D9C179F0DAC17AF06ED836ECA1
:106A800044F00101DD6FDD510DE148D87E35D96E4E
:106A90007F352ED8B5EC3DF054D86C0E33D80001BC
:106AA00043D81AD0DE6BDF6B0DD038D851D820D840
:106AB000B5EC3DF0D8904CD8DA6E6C0E23D834D8B3
:106AC000DE4BDF2B4050DE5DDF51800A0001F06FAE
:106AD0004150800AF059E9E3D4EC89F0D5C1EAF0DD
:106AE000D6C1EBF0D7C1ECF0D8C1EDF0F8EF78F0FB
:106AF000DA6E740ED926020EDA22DECFA9F0DDCFCF
:106B0000AAF01200D926020EDA22DECFF0F0DDCF95
:106B1000F1F0F0C0D9FFF1C0DAFF120042C0A7F0D7
:106B200043C0A8F0D8901200A7C0DEFFA8C0DDFFC8
:106B30001200716F020E726F40C073F041C074F0AA
:106B40001200D89001017E35D96E7F35DA6E1200C1
:106B50000101DE35D96EDF35120080C17BF081C1C5
:106B60007CF01200256A266A276A25C002F026C03A
:106B700003F0000E2724D96EDA6A010EDA22DF5004
:106B8000046EC3EC7BF002C025F003C026F0272A78
:106B90000D0E2764EAD7255026107AE101C128F0AE
:106BA00004C101F128C004F102C128F003C102F1BF
:106BB00028C003F101C102F002C103F003C104F0D7
:106BC00004C105F01EEC7AF002C001F103C002F12D
:106BD00004C003F105C004F1066A076AC80E086E16
:106BE000420E096E01C102F002C103F003C104F0BC
:106BF00004C105F093EC1AF002C01BF003C01CF0B6
:106C000004C01DF005C01EF03CEC57F01BC062F143
:106C10001CC063F106C128F009C106F128C009F1C2
:106C200007C128F008C107F128C008F106C102F029
:106C300007C103F008C104F009C105F01EEC7AF0A9
:106C400002C006F103C007F104C008F105C009F154
:106C5000066A076AC80E086E420E096E06C102F087
:106C600007C103F008C104F009C105F093EC1AF064
:106C700002C01BF003C01CF004C01DF005C01EF0D4
:106C80003CEC57F01BC060F11CC061F1916B04D06B
:106C9000010E0101916F00000000120068C065F054
:106CA00069C066F0C6EC8CF06E6F736B0101AEA527
:106CB0000BD0000120EE3BF06851D9266951DA2251
:106CC000DFA602D0010E736F00017351010ED8B41C
:106CD000000E6F6F68C065F069C066F058EC8DF00B
:106CE000706F6FD8DFA0000E716F6BD8DFA2000E3F
:106CF000726F746B756B44D0D8907435D96E7535DE
:106D0000C2EC5BF0DECF76F0DDCF77F076C065F0D9
:106D100077C066F088EC8AF0000930E06F5112E02D
:106D20003BD8DFA80FD06A5174190BE16B5175196C
:106D300008E120EE3CF07651D9267751DA22DF8047
:106D400001D037D868C065F069C066F088EC8AF079
:106D5000000914E06E5103E01FD8DFB02AD870514B
:106D600003E01AD8DFB225D8715103E015D8DFB49B
:106D700020D8725103E010D8DFB61BD8744B752BA6
:106D80000101A9510001745D7551800A6C6FECEC32
:106D900075F06C59B1E312006A5176256C6F6B5136
:106DA00077216D6F500E6C25D96E000E6D21DA6E55
:106DB000120020EE3CF07651D9267751DA22DF829C
:106DC000120020EE38F06851D9266951DA22010C00
:106DD000270E7DD8B2C0D9FFB3C0DAFF7ED8250E0A
:106DE000B025B66F6ED864D8BD6B030EBC6F20EEB5
:106DF00022F07ED8DF5015E0BD6B040EBC6F20EE94
:106E00003AF076D8020EDE1802E1230E06D0230EE9
:106E1000B025B66F56D84CD8250E59D820EE04F0C0
:106E200047D8290E54D8BCC0B8F0BDC0B9F0D8902E
:106E3000B837B937B851B225BA6FB951B321BB6F62
:106E4000FE0EBA25D96EFF0EBB21DA6E46D8BE6B98
:106E5000BF6B20D0B0C0A5F0B1C0A6F043D8B251EE
:106E6000D926B351DA22DECFB6F0DDCFB7F0B6C007
:106E7000D9FFB7C0DAFFBBEC3CF0D5EC40F032D81C
:106E8000B451D926B551DA22A5C0DEFFA6C0DDFF78
:106E9000BE4BBF2BBC51BE5DBF51800AB66FBD510A
:106EA000800AB659D7E3BCC0B0F0BDC0B1F0120043
:106EB000B251D926B351DA22B6C0DEFFB7C0DDFF2A
:106EC0001200000EB121B76F20EE02F01200B025C3
:106ED000B66F000EB121B76F1200B6C0DEFFB7C0AB
:106EE000DDFF1200D890BE35D96EBF35DA6E1200C4
:106EF000B051D926B151DA221200E45115E1040E45
:106F0000E35D12E2D00E00019C6F210E9D6F440ED6
:106F10009E6F230E9F6FA16B2E0EA06F560EA26F59
:106F2000230EA36F99EC84F0DDC1B3F0DEC1B4F0A1
:106F3000DFC1B5F0E0C1B6F099EC5CF0000901E00A
:106F400012000301E56BE66BDDC1ADF0DEC1AEF012
:106F5000E50E0001AF6F030EB06F89EC83F0ADC09A
:106F6000DFF3AEC0E0F3E5C365F0E6C366F0652984
:106F7000656F000E6621666F65C0E1F366C0E2F3DF
:106F8000A80E656F030E666F0301E1510101DD2557
:106F90000001676F0301E2510101DE210001686F0A
:106FA000DFC369F0E0C36AF0FAEC79F034D801018C
:106FB000E1250001676F000E0101E2210001686F09
:106FC000FB0E0101E3250001696FFF0E0101E421C1
:106FD00000016A6FFFEC72F006D0E3C3DBF1E4C39B
:106FE000DCF1BBEC2AF0CA0E0001796F1C0E7A6F3F
:106FF000010E7B6F3BEC8FF065C07CF066C07DF0CE
:10700000FAEC42F079C0E3F37AC0E4F30301E35110
:10701000E411E3E11200A00E656F030E666F040C2D
:10702000726B706B7FD8D96E6A516821DA6E7251BB
:107030006525E16E000E6621E26EE7506B6FD89019
:107040006B37D8906B37D8906B35DF6E6BD86B6F22
:107050006A5168216C6F6B2959D86D6F050E6E6F80
:10706000D8906D336E2FFCD76D51DF6E722B702B65
:10707000030E7065D7D76F6B5ED86F513BD8100E7B
:107080006B25E16E000E6C21E26EDFCFE7FF722B05
:107090006F2B030E6F65F0D7716B71512BD8080EF3
:1070A0006B2534D80F0BDF6E46D8DF50696F693B14
:1070B0000F0E691769A10AD071511CD8080E6B25F3
:1070C000D96E000E6C21DA6E000EDB8E715112D873
:1070D000090E6B251BD86D6F050E6E6FD8906D3342
:1070E0006E2FFCD76D51DF6E722B712B030E716505
:1070F000D4D7030C696F6A6BD89069376A376951C6
:1071000067256B6F6A5168216C6F1200D96E000E93
:107110006C21DA6E72516525E16E000E6621E26E19
:10712000E75012007051020DF3CF69F0F4CF6AF00E
:1071300069516725120072516525D96E000E6621CE
:10714000DA6E12000101B6A1120000016E6B010E91
:107150002EEC91F06E6B020E2EEC91F0000E6E6B29
:107160002EEC91F0170E7A6F240E07EC4DF0E9EC3F
:107170008EF0890E656FB4C168F0B5C169F06BD847
:1071800067C066F0676B663B0F0E6617661752D8CE
:10719000D96EDA6A0800F5CFDFFF69510F0BC30F14
:1071A000F66E200ED8B0010FF76EF86A000EF822C6
:1071B0006551D96EDA6AD92A0800F5CFDFFF4BD8BE
:1071C000040ED89067336633E82EFBD70F0E661790
:1071D00031D869EC2AF00800F5CFDFFF0F0E6815F3
:1071E000666F28D833D80800F5CFDFFF0101B6B1AC
:1071F00006D0EF0E00018D6F230E8E6F04D0890E26
:1072000000018D6F8E6B8DC07AF08EC07BF07BECB1
:107210002EF0E9EC8EF026EC68F00201A86BA96B69
:10722000030E0001656F65C0A7F20101B685100E5F
:10723000F9EF91F0676BC30E6625F66E200E67219D
:10724000F76EF86A000EF82265511200D96EDA6AFC
:10725000030ED926030C68C066F069C067F01200FF
:10726000C8EC91F065C0C5F066C0C6F019EC8FF0AF
:1072700065C0C8F066C0C9F00DEC8FF065C0CAF0FB
:1072800066C0CBF00001C36B01019C5108E0C8C08F
:1072900065F0C9C066F002EC8DF0000903E0010E54
:1072A0000001C36FC46B01019B5108E0CAC065F0C7
:1072B000CBC066F002EC8DF0000903E0010E000186
:1072C000C46F010E01019C6F9B6FC8C065F0C9C0FF
:1072D00066F0D6EC86F0CAC065F0CBC066F0D6EC9E
:1072E00086F0C5C065F0C6C066F002EC8DF00009FE
:1072F000010ED8A4000EC26FC8C0B6F0C9C0B7F066
:10730000BEC0B8F0BFC0B9F0C2C0BAF020EE19F0EC
:10731000C551D926C651DA22DECFBBF0DDCFBCF095
:10732000C3C0BDF087EC78F0CAC0B6F0CBC0B7F0F0
:10733000C0C0B8F0C1C0B9F0010EBA6FC0C0BBF098
:10734000C1C0BCF0C4C0BDF087EC78F011D8C76FE5
:10735000C8C069F0C9C06AF0C7C06BF06EEC50F0ED
:10736000CAC069F0CBC06AF0C7C06BF06EEF50F0D6
:107370000101010EAEA1000E00011200E3C1D9FF10
:10738000E4C1DAFFDECFE5F1DDCFE6F10001666BA7
:10739000100E76D86551671906E16651681901E04B
:1073A00002D0010E01D0000E00090CE022EEC3F065
:1073B0000500FA6EDE50FD6EDE50FE6EDE50FF6E92
:1073C000FA501200666B200E5BD86551671906E112
:1073D0006651681901E002D0010E01D0000E0009CB
:1073E0000CE022EECCF00500FA6EDE50FD6EDE50B1
:1073F000FE6EDE50FF6EFA501200666B400E40D8F3
:107400006551671906E16651681901E002D0010E65
:1074100001D0000E00090CE022EED5F00500FA6E56
:10742000DE50FD6EDE50FE6EDE50FF6EFA50120032
:10743000010E666F656BE5C167F0E6C168F06551E6
:10744000671906E16651681901E002D0010E01D00A
:10745000000E0009D8B41200DFC1DBF1E0C1DCF19D
:10746000E1C1DDF1E2C1DEF122EEBDF00500FA6E10
:10747000DE50FD6EDE50FE6EDE50FF6EFA501200E2
:10748000656FE5C167F0E6C168F012006D6F00013D
:107490006D511CE068AF1AD065C069F066C06AF033
:1074A00067C06BF068C06CF0691F6A1F6B1F6C1FB0
:1074B000692B000E6A236B236C2369C06FF06AC0CE
:1074C00070F06BC071F06CC072F008D065C06FF0E6
:1074D00066C070F067C071F068C072F065516611E7
:1074E0006711681105E1656B666B676B686B12006D
:1074F000960E6E6F02D06E2B4AD8696B6A6B6B6BFF
:10750000FE0E72153ED808E0F6D76E2B6F2B000EDC
:107510007023712372233BD8696B6A6B6B6B72515A
:1075200030D807E0F2D76E07D8906F3770377137D1
:10753000723771BF03D0020E6E61F5D76EA1719FD5
:10754000D8906E336EC069F06A6B6B6B6C6B69C000
:107550006CF06B6B6A6B696B69516F136A517013D6
:107560006B5171136C5172136D5102E068BF728FD1
:107570006FC065F070C066F071C067F072C068F0EF
:1075800012006C6F69516A116B116C111200D89066
:107590007233713370336F331200C9C074F0CAC0D4
:1075A00075F0CBC076F0CCC077F061EC81F0CBC049
:1075B00065F0CCC066F011EC2DF0000EF86E01D82D
:1075C0000DD00500FA6E0900F550FD6E0900F5506A
:1075D000FE6E0900F550FF6EFA50120065C0D9FF2B
:1075E00066C0DAFFDECFD3F0DDCFD4F0D351D411B3
:1075F00011E143D8F5500900F5100CE03ED8F5CF65
:107600007AF00A00F5CF7BF01DEC68F044D82FD853
:10761000E9EF8EF0D3C065F0D4C066F0686B3C0E25
:10762000676F8CEC79F06551D16FD3C065F0D4C031
:1076300066F0686B3C0E676FFAEC7EF06551D26FB6
:10764000D151640DF3CFCDF0F4CFCEF0D251CD2592
:10765000CF6F000ECE21D06FCFC0C4F0D0C0C5F028
:107660004FEC74F018D845EC74F089EF8EF0DA2204
:10767000DF507D6F010E7E6F010C0B0E3E24CD6F2F
:10768000000E3F20CE6FCDC0F6FFCEC0F7FF000E3C
:10769000F86E09001200CB51D926CC511200000E11
:1076A0000101866F0D0E876F20EECAF065D8D20EED
:1076B000DE6E010EDD6E20EECFF05ED8BA0EDE6E0D
:1076C000FB0EDE6E000EDE6E20EE64F055D8DF6A33
:1076D00020EED2F051D8DF6A20EECCF04DD8DE6A31
:1076E000DD6A20EECEF048D8DF6A20EED3F044D831
:1076F0003C0EDE6E130EDE6E010EDE6E86C165F090
:1077000087C166F00001676B3CD8672B630E676525
:10771000FBD701D0F9D73DD8650E010186250001C0
:10772000656FC1EC14F0666F0001676B2AD8672B98
:10773000630E6765FBD701D0F9D72BD886C1A3F2BA
:1077400087C1A4F2650E010186250201A56F000E16
:10775000010187210201A66FA30E0001A46F020E92
:10776000A56F9CEC14F008D8DECFA6F0DECFA7F012
:10777000DDCFA8F0D8EF64F08651D9268751DA2200
:10778000120067516525D96E000E6621DA6EDF6A38
:10779000120020EE64F06551D9266651DA22DF6AC4
:1077A00012006FD8DFA01FD0BFC0A0F0C0C0A1F0F2
:1077B000C1C0A2F0C2C0A3F0C3C0A4F0C4C0A5F071
:1077C0004DEC75F0000938E0BFC065F0C0C066F050
:1077D000C1C067F0C2C068F0C3C069F0C4C06AF03D
:1077E00003EC86F029D0BFC0A0F0C0C0A1F0C1C09A
:1077F000A2F0C2C0A3F0C3C0A4F0C4C0A5F03BEC8B
:1078000078F0000919E0BFC0B9F0C0C0BAF03EEC92
:1078100063F0000903E00101AEB50ED0BFC065F012
:10782000C0C066F0C1C067F0C2C068F0C3C069F0F4
:10783000C4C06AF0D7EC85F024D8DFA011D0BFC057
:107840006BF0C0C06CF020EE46F023D80500FA6E55
:10785000DE50FD6EDE50FE6EDE50FF6EFA501200FE
:10786000BFC06BF0C0C06CF020EE49F012D805002C
:10787000FA6EDE50FD6EDE50FE6EDE50FF6EFA5088
:107880001200000120EE3BF0BF51D926C051DA2290
:107890001200BF51D926C051DA221200C0C0B0F088
:1078A000C1C0B1F0C60EB26FB36BCE0EB46FB56B84
:1078B000E8EC36F0B0C0D6F0B1C0D7F0C0C0A5F04B
:1078C000C1C0A6F020EE15F0C051D926C151DA2270
:1078D00052D8D5EC40F0A5C0C4F0A6C0C5F0D86B16
:1078E000D96B1BD0CE0E716F726BD6C073F0D7C040
:1078F00074F0D8C075F0D9C076F042D8DECF77F0FA
:10790000DDCF78F07A6B000E796FC4C07BF0C5C014
:107910007CF036EC44F0D84BD92B24D8E3E3D86B79
:10792000D96B1DD0C0C0A7F0C1C0A8F029D8DECF48
:10793000A9F0DDCFAAF0B5EC3DF0D851020DF3501F
:10794000C60FD96EDA6ADECFC2F0DDCFC3F0C2C097
:10795000D9FFC3C0DAFF94EC35F0D84BD92B02D84D
:10796000E1E31200D651D85DD951800AC26FD751D8
:10797000800AC2591200DECFA7F0DDCFA8F01200B6
:10798000D851020DF350CE0FD96EDA6A1200ABC196
:10799000D1F0ACC1D2F020EE33F061D8DECFCFF021
:1079A000DDCFD0F0D1C06EF0D2C06FF051EC84F0DA
:1079B000D1C06FF0D2C070F020EE3AF050D8DF5056
:1079C0000001716F25EC80F0CFC0D9FFD0C0DAFF85
:1079D000DF5001EC70F0C00E00017A6F230E07EC4F
:1079E0004DF0E9EC8EF020EE29F039D843D8CB6B7E
:1079F000010ECC6F88EC7AF020EE22F030D8DF5008
:107A00000AE020EE23F02BD835D8010ECB6FCC6BDB
:107A100088EC7AF008D0990E7A6F240E7B6F7BEC9D
:107A20002EF0E9EC8EF020EE25F019D823D8010EC7
:107A3000CB6FCC6F88EC7AF0C60E7A6F230E7B6F1B
:107A400013D8E9EC8EF020EE27F009D813D8020EF7
:107A5000CB6F010ECC6F88EC7AF09DEF6DF0425049
:107A6000D9264350DA221200010E7C6F020E7D6F80
:107A70007E6B020CDECFC9F0DDCFCAF0120001012F
:107A8000AEA913D020EE2AF06BD80DEC6CF0DE50CE
:107A9000E61801E102D0010E01D0000E000905E157
:107AA0005EEC64F05DD8DF9012000001656B0101AF
:107AB000AEAB0CD001D00AD020EE32F051D8DFB0FE
:107AC00005D001D003D0010E0001656F00016551A2
:107AD00000092BE03CC070F03DC071F041EC90F02B
