:102000002DEF10F0FFFFFFFF5F82B1EF47F0FFFF02
:10201000FFFFFFFFFFFFFFFF5F80D8CF60F0E8CF3B
:1020200061F0E0CF62F0D9CF63F0DACF64F09DB811
:102030009EA802D08BEC8DF0A3B8A4A802D099EC96
:102040008CF064C0DAFF63C0D9FF62C0E0FF61C0FA
:10205000E8FF60C0D8FF5F90100016EF2CF000C4BE
:102060002B01402801282801D6B6004ADB00482D64
:1020700001E8F100802D01722D01642D01562D0122
:102080003A2D012C2D011E2D01D82E01660001DCF8
:102090004600441F01168C00E4220108E400222CB3
:1020A00001C62201A82201A609018A220100DA0044
:1020B000777C585E79716F760600003800545C7347
:1020C00000506D781C0000006E00777C395E7971DD
:1020D0006F760600003800373F7300506D783E0081
:1020E00000006E00303132333435363738396162B2
:1020F000636465660001000A006400E80310273F7E
:10210000065B4F666D7C077F67051020304060805E
:10211000A0FF6E67C579DD61021A4C2C010A00062A
:102120000E0A003C0000005A2C0100005802010079
:102130000A004A24000000000000609300F64400FA
:10214000F42F01662A01846A00960A019A2F010081
:102150000000E4F6001E9F00642E01000000EEF473
:10216000004C8400702E01000000EEF4004C84004E
:10217000F82F010000003E2C0170820000000000DA
:102180000000F0F2008EA6000000000000009CE5B8
:1021900000CE9F00000000000000D02F0196D50067
:1021A000000000000000CC2F013AA3006F757443BB
:1021B00061706163697479203E202844415441472D
:1021C00052414D5F53594E435F53495A45202B208E
:1021D000444154414752414D5F4D494E5F4C454E3D
:1021E0004754485F53495A45202B204441544147A6
:1021F00052414D5F434845434B53554D5F53495AF8
:10220000452900417373657274696F6E2066616958
:102210006C65643A202573206C696E652025643AEC
:1022200020222573220A00616C6C506F644275662F
:10223000666572735B504F445F4255464645525F38
:1022400052585D20213D2028302900616C6C506F70
:1022500064427566666572735B504F445F425546D3
:102260004645525F54585D20213D202830290063A7
:102270006F6E6669672D3E73617665536574746928
:102280006E677320213D20283029007372632F442C
:102290007269766572732F506F6473436861696EFB
:1022A000556172742E6300636F6E6669672D3E70B0
:1022B000726F7669646553697A6520213D20283004
:1022C0002900636F6E6669672D3E77726974654297
:1022D0007974657320213D20283029007372632FA3
:1022E000506F6473436861696E2F506F6473436805
:1022F00061696E2E6300636F6E6669672D3E72655D
:102300006164427974657320213D2028302900776B
:1023100072697465506572696F64203E20746173E0
:102320006B506572696F6400696E70757453697A79
:1023300065203E3D2076616C756553697A65007352
:1023400072632F5461736B732F526164696F5461B0
:10235000736B2E63007372632F526164696F2F5623
:102360006172496E742E63007372632F52616469E7
:102370006F2F526164696F2E6300706F64735561D3
:10238000727420213D2028302900636861696E2025
:10239000213D2028302900382E382E382E382E00A6
:1023A000286E756C6C2900302E324C4F00414C2E3B
:1023B000484900414C2E4C4F0048454C50003030AD
:1023C0003030003131313100323232320033333388
:1023D00033003434343400352E3535003535353559
:1023E000002D2D2D2D006572723100657272320044
:1023F0006572723300657272340065727255004402
:1024000061746100636F6E6E0050726F75005048AA
:1024100031300050482034005048203700464149B0
:102420004C004F4F4F4F0050415353004550742DB7
:10243000004E47452E002D41434300436F6E66001A
:102440006E636E6F006275737900636F6E74004621
:10245000414300644546006F66660043414C0043BB
:10246000484100506F6400457272004F4646006F4D
:102470006E00627200454C004F52005552006E6370
:10248000004943007264007048002A43002A460055
:102490004543000059505A100FE1010E0001836FAF
:1024A000300E826F8B0E846F220E856F7A0E866FD0
:1024B000230E876F63EC8DF059C078F05AC079F025
:1024C00033D020EECEF07851D9267951DA2201D8D6
:1024D0000AD00500FA6EDE50FD6EDE50FE6EDE5054
:1024E000FF6EFA5012007A6FCBD9DF507B6F7B51B1
:1024F0007825D96E000E7921DA6E7AC0DFFFC0D957
:1025000010EE64F07851E1267951E222E7507A6FBB
:102510007A29656F666B000E6623686B640E676FC1
:10252000CCEC70F06551DF6E78C065F079C066F074
:10253000000120EECAF06551D9266651DA22DF503B
:10254000D96EDA6ADF500009BCE101D0BAD778C091
:1025500065F079C066F016D0696B0CD05CD9695112
:102560006525E16E000E6621E26EDFCFE7FF53D9ED
:10257000DF6A692B63D9DE50695DF0E301D0EED7E5
:102580005DD9DF0665C0D9FF66C0DAFF1B0EDE1815
:1025900007E001D005D052D9DF50DEE101D0DCD711
:1025A00078C072F079C073F072C0D9FF73C0DAFFDF
:1025B0001B0EDE180DE101D00BD020EE64F072513D
:1025C000D9267351DA22030EDF6004D001D002D085
:1025D000000E9AD020EE01F018D9756F746B20EEC2
:1025E00002F013D974130AD974C0DEFF75C0DDFF81
:1025F00005D9010EDB5005E15D0EDE5C0FE301D075
:102600000DD045D9676BAFEC40F0672B630E676563
:10261000FAD701D0F8D7B7EC40F0DAD7EFD8DECF51
:1026200074F0DDCF75F0050E7427000E752320EED3
:1026300064F0EBD8766F776B7451765D755177598E
:1026400003E2C6D701D0C4D772C06CF073C06DF07E
:10265000D5D8DF50050F6E6F706B716B010E6F6F09
:1026600036D0700E656F6F516C25D96E000E6D21DE
:10267000DA6EDF50666F6651686F676B6551D96EB1
:10268000DA6A6751DE1A6851DD1A080E6B6FE2D8FC
:1026900068AF14D001D012D0DDD8D8906737683732
:1026A000210E6719696F100E68196A6F6551D96E2E
:1026B000DA6A69C0DEFF6AC0DDFF03D06551C5EC90
:1026C00028F06B076B51E3E101D0E1D76F2B6E511E
:1026D0006F5DC7E301D0C5D77051711101E002D021
:1026E000010E01D0000E00090EE101D00CD0CFD8B0
:1026F000676BAFEC40F0672B630E6765FAD78BD73B
:10270000F8D789D765D7010E000952E059C080F08B
:102710005AC081F0AED8DFA005D001D003D0A9D82F
:10272000DF9019D080C06CF081C06DF0000EEAEC33
:1027300096F06CC068F06DC069F0000120EECBF03F
:102740006C51D9266D51DA22DF50050F6A6F09EC02
:1027500089F01CEC83F080C065F081C066F0000158
:1027600020EECBF08051D9268151DA22DECF67F0FE
:10277000DDCF68F06A6B6751050F6B6F10D06B513E
:102780006525D96E000E6621DA6E6A516525E16E07
:10279000000E6621E26EDFCFE7FF6A2B6B2B62D85B
:1027A000DE506B5DECE301D0EAD75CD86AC0DFFF96
:1027B00059C065F05AC066F03AD8DFA213D001D0F4
:1027C00011D020EECDF041D8DFCF67F0DF2A0F0E19
:1027D000676508D001D006D02AD8DF9220EECDF070
:1027E00034D8DF6A24D8DFB201D002D0010E01D084
:1027F000000E000902E18EEC7CF0010C20EECBF023
:102800007251D9267351DA2212007251D9267351AE
:10281000DA22DF50120069516525676F000E6621CC
:10282000686F6729D96E000E6821DA6E120020EEFB
:10283000D1F06551D9266651DA22120020EE64F0FB
:102840006551D9266651DA2212006551D9266651A2
:10285000DA2212006551D96EDA6ADECF67F0DDCF79
:1028600068F0120020EE64F06551D9266651DA2234
:10287000120020EED1F08051D9268151DA221200C7
:1028800020EE64F07851D9267951DA22120072C014
:1028900065F073C066F01200010113EC6CF0DFB458
:1028A0002CD122EE0EF044EC52F0DFA226D1C2C1B0
:1028B000D9FFC3C1DAFF98C0E1FF99C0E2FFDE5043
:1028C000E65C05E320D90001886F020E38D01BD9E1
:1028D0007F0D41D900019A510101C22500019C6F71
:1028E0009B510101C32100019D6F020E9C259E6F2B
:1028F000000E9D219F6F20EE05F09E51D9269F511D
:10290000DA2210EE01F09851E1269951E222DE50D0
:10291000E65C12E220EE02F00FD9100EDF600CD060
:1029200020EE05F009D9030EDF6006D020EE06F098
:1029300003D9640EDF6405D0E6D8886F030E896F73
:10294000DFD020EE01F0F8D8DF50140D04D99A51F1
:102950009E259C6F9B519F219D6F070E9C25A06F0C
:10296000000E9D21A16FA0C065F0A1C066F098C0C7
:1029700067F099C068F020EE02F0E3D810EE02F0A4
:10298000CFD801E102D0010E01D0000E6F6F716B44
:1029900022D020EE03F0D5D8DECF69F0DDCF6AF08B
:1029A00071516925D96E000E6A21DA6E7151652563
:1029B0006C6F000E66216D6F030E6C25E16E000ECC
:1029C0006D21E26EDE50E61805E001D003D0010E65
:1029D0006F6F0CD0712B20EE02F06551D926665135
:1029E000DA22DE50715DD5E301D0D3D7010E706FCE
:1029F00020EE05F0A6D810EE12F092D810E101D02A
:102A00000ED020EE06F09DD810EE13F089D807E125
:102A100001D005D06F5103E101D001D0706B70512E
:102A2000000967E0A0C065F0A1C066F098C067F03B
:102A300099C068F08BD8DF50020DF3CF69F0F4CF66
:102A40006AF069510101C22500016B6F6A510101F1
:102A5000C32100016C6F060E6B256D6F020E6C2199
:102A60006E6F20EE02F063D810EE02F052D86F6B5A
:102A70001CD020EE03F05BD8DECF69F0DDCF6AF02A
:102A80006F516925D96E000E6A21DA6E6F51652586
:102A90006B6F000E66216C6F030E6B25E16E000EEE
:102AA0006C21E26EDFCFE7FF6F2B20EE02F03FD804
:102AB000DE506F5DDEE301D0DCD720EE05F037D8C5
:102AC00010EE12F026D820EE06F031D810EE13F0FA
:102AD00020D820EE01F06D51D9266E51DA22DF8028
:102AE00035D86DC0E1FF6EC0E2FFDFCFE7FFE5EC58
:102AF00090F0010113EC6CF0DF8205D844EC2BF070
:102B0000510EBCEF88F098C0D9FF99C0DAFFDF50B2
:102B100012006551E1266651E222DFCFE7FF120085
:102B20006551E1266651E222DE50E6181200675137
:102B3000D9266851DA2212009851D9269951DA2201
:102B400012006751D9266851DA22120067C0D9FFF6
:102B500068C0DAFF1200F3CF9AF0F4CF9BF01200B6
:102B6000DCEC96F065C073F066C074F0290E0001CD
:102B70002BD9696B020E6B6F9FEC89F0270E24D95D
:102B8000020E696F6B6F9FEC89F0230E1DD9040E46
:102B90002AD99FEC89F0250E17D9060E24D99FEC6F
:102BA00089F02B0E11D9080E1ED99FEC89F02D0E3D
:102BB0000BD90A0E18D99FEC89F03A0E05D90C0EE4
:102BC00016D99FEC89F017D90D0E11D99FEC89F019
:102BD00002D919EC66F050EC94F065C073F066C051
:102BE00074F0290E0001F0D8100EFDD89FEC89F08A
:102BF000270EEAD8120EF7D89FEC89F0230EE4D8FE
:102C0000140EF1D89FEC89F0250EDED8160EEBD805
:102C10009FEC89F02B0ED8D8180EE5D89FEC89F0E0
:102C20002D0ED2D81A0EDFD89FEC89F03A0ECCD8F0
:102C30001C0EDDD89FEC89F0DED81D0ED8D89FEC95
:102C400089F0C9D819EC66F05CEC94F065C073F0BB
:102C500066C074F0290E0001B7D8200EC4D89FECCE
:102C600089F0270EB1D8220EBED89FEC89F0230E32
:102C7000ABD8240EB8D89FEC89F0250EA5D8260E27
:102C8000B2D89FEC89F02B0E9FD8280EACD89FECC1
:102C900089F02D0E99D82A0EA6D89FEC89F03A0E0D
:102CA00093D82C0EA4D89FEC89F0A5D82D0E9FD8D0
:102CB0009FEC89F090D819EC66F0380E85D8440E58
:102CC00092D89FEC89F0B50E676F010E686F6A6B42
:102CD000300E8DD89FEC89F0C00E676F010E686FC3
:102CE0006A6B310E84D89FEC89F0C10E676F010EBC
:102CF000686F6A6B320E7BD89FEC89F00101C19737
:102D0000D00E0001676F010E686F6A6B330E78D8C2
:102D10009FEC89F0550E676F686B6A6B380E70D840
:102D20009FEC89F0D80E676F010E686F6A6B3C0EDE
:102D300067D89FEC89F0D40E676F010E686F6A6BDD
:102D4000400E5ED89FEC89F05C0E676F686B6A6B13
:102D5000460E4DD89FEC89F0DC0E676F010E686F50
:102D60006A6B470E40D89FEC89F0E20E676F010E48
:102D7000686F6A6B490E37D89FEC89F02CEC97F09E
:102D800065296E6F000E66216F6F6EC067F06FC0B1
:102D900068F06A6B500E2BD89FEC89F0706B702B2B
:102DA0000E0E7065FCD7710E676F686B6A6B880ECC
:102DB0001ED89FEC89F071B103D00101C99102D0F6
:102DC0000101C981000012007325676F000E742194
:102DD000686F6A6B120073C065F074C066F072C0F1
:102DE00067F0686B1200696F020E6B6F020C696FFF
:102DF000010E6B6F010C720E676F686B6A6B1200CD
:102E0000696F040E6B6F040C0450800B0D6E045040
:102E10000424136E03BE1380135008E0132804E14A
:102E2000016A026A036A046A038E04D0016A026AB4
:102E3000036A046A0850800B0D1A085008240E6EAD
:102E400007BE0E800E5008E00E2804E1056A066AEF
:102E5000076A086A078E04D0056A066A076A086A64
:102E60000E5002E0135005E1016A026A036A046A27
:102E7000120007500102F3CF18F0F4CF19F01850E8
:102E80000F6E106A116A126A1950146E156A166A6A
:102E9000176A06500202F3CF18F0F4CF19F0185059
:102EA0000F26000E10221122122219501426000E95
:102EB00015221622172205500302F3CF18F0F4CF83
:102EC00019F018500F26000E10221122122219504C
:102ED0001426000E15221622172211C012F010C05F
:102EE00011F00FC010F00F6A05500202F3CF18F076
:102EF000F4CF19F018500F2619501022000E11228D
:102F0000122206500102F3CF18F0F4CF19F0185036
:102F10000F2619501022000E1122122211C012F099
:102F200010C011F00FC010F00F6A05500102F3CF6E
:102F300018F0F4CF19F018500F2619501022000E77
:102F40001122122207500202F3CF18F0F4CF19F029
:102F50001850142619501522000E1622172206505A
:102F60000302F3CF18F0F4CF19F0185014261950BB
:102F70001522000E1622172207500302F3CF18F075
:102F8000F4CF19F01850096E19500A6E0B6A0C6ACA
:102F90000BC00CF00AC00BF009C00AF0096A095016
:102FA00014260A5015220B5016220C5017221250CC
:102FB0001426000E15221622172211C012F010C07E
:102FC00011F00FC010F00F6A0E5013C009F00A6A1A
:102FD0000926000E0A22820E0924186EFF0E0A200E
:102FE000196E0FD0D890143615361636173612BE15
:102FF0001480D8900F361036113612361806D8A025
:10300000190616AEEFD70E6A12AE13D00F50096E26
:1030100010500A6E11500B6E7F0E12140C6E095078
:103020000A100B100C1003E0010E0E6E02D014B04B
:10303000FBD70E500EE0142A000E1522162217227E
:1030400017A007D017341732163215321432184A27
:10305000192A19BE0AD0195002E1182806E3146A89
:10306000156A800E166E7F0E15D019BE04D0195049
:1030700008E1180406E2146A156A166A176A0D6AEE
:103080000AD018C013F07F0E1616176A13B0168EEA
:10309000D8901330176E0D50171214C001F015C0E0
:1030A00002F016C003F017C004F012009C0501E006
:1030B00028D1DCEC96F065C076F066C077F0290E7A
:1030C000000123D96B6B020E6D6F3EEC7CF0270E76
:1030D0001CD9020E6B6F6D6F3EEC7CF0230E15D980
:1030E000040E1AD93EEC7CF0250E0FD9060E14D929
:1030F0003EEC7CF02B0E09D9080E0ED93EEC7CF08C
:103100002D0E03D90A0E08D93EEC7CF03A0EFDD8FC
:103110000C0E06D93EEC7CF0350EF7D80D0E00D91A
:103120003EEC7CF050EC94F065C076F066C077F031
:10313000290E0001EAD8100EEFD83EEC7CF0270EE5
:10314000E4D8120EE9D83EEC7CF0230EDED8140E43
:10315000E3D83EEC7CF0250ED8D8160EDDD83EEC38
:103160007CF02B0ED2D8180ED7D83EEC7CF02D0E6A
:10317000CCD81A0ED1D83EEC7CF03A0EC6D81C0E34
:10318000CFD83EEC7CF0350EC0D81D0EC9D83EEC31
:103190007CF05CEC94F065C076F066C077F0290EA8
:1031A0000001B3D8200EB8D83EEC7CF0270EADD885
:1031B000220EB2D83EEC7CF0230EA7D8240EACD859
:1031C0003EEC7CF0250EA1D8260EA6D83EEC7CF075
:1031D0002B0E9BD8280EA0D83EEC7CF02D0E95D857
:1031E0002A0E9AD83EEC7CF03A0E8FD82C0E98D846
:1031F0003EEC7CF0350E89D82D0E92D83EEC7CF05A
:10320000380E83D8440E88D83EEC7CF0B50E696F3A
:10321000010E6A6F6C6B300E83D83EEC7CF0C00EF2
:10322000696F010E6A6F6C6B310E7AD83EEC7CF0E0
:10323000C10E696F010E6A6F6C6B320E71D83EEC75
:103240007CF0D00E696F010E6A6F6C6B330E6CD818
:103250003EEC7CF0550E696F6A6B6C6B380E64D86F
:103260003EEC7CF0D80E696F010E6A6F6C6B3C0E01
:103270005BD83EEC7CF0D40E696F010E6A6F6C6B0C
:10328000400E52D83EEC7CF05C0E696F6A6B6C6B42
:10329000460E46D83EEC7CF0DC0E696F010E6A6F7C
:1032A0006C6B470E39D83EEC7CF0E20E696F010E74
:1032B0006A6F6C6B490E30D83EEC7CF02CEC97F0CA
:1032C0006529726F000E6621736F72C069F073C05A
:1032D0006AF06C6B500E24D83EEC7CF0756B752B4D
:1032E0000E0E7565FCD70101000EC9B1010E00017B
:1032F000746F740E696F6A6B6C6B880E11D83EEC3C
:103300007CF001019C6B000012007625696F000EB5
:1033100077216A6F6C6B12006B6F020E6D6F020C7F
:103320006B6F010E6D6F010C6B6F040E6D6F040CF3
:10333000745119EC2AF0030EDF6E7451D96EDA6AFB
:10334000DECF75F0DDCF76F075C0D9FF76C0DAFF3D
:103350001B0EDF6E745119EC2AF0F9D83D0EDF6EAA
:10336000745119EC2AF0DF2A745119EC2AF0EFD8C5
:10337000DF6A745119EC2AF0DF2A74510FEC42F025
:10338000DECF65F0DDCF66F06B6B6B51020DF3CFD6
:1033900067F0F4CF68F067516525696F6851662161
:1033A0006A6F070E6925D96E020E6A21DA6EDFA0F8
:1033B00004D001D002D06B2907D06B2B030E6B65B4
:1033C000E4D701D0E2D7000E786F785101E1010C0B
:1033D000745119EC2AF0BBD878C0DFFF745119EC96
:1033E0002AF0DF2A74C065F078C066F066517F0D60
:1033F000D8D865510FEC42F0DECF69F0DDCF6AF02E
:10340000675169256B6F68516A216C6F830E6B255C
:103410006F6FFF0E6C21706FBAD8DA22DF506D6FBC
:10342000B6D87DD8655119EC2AF0DF2A716B62D0CD
:103430007151140DB6D867516F25696F68517021AD
:103440006A6F070E6925726F000E6A21736F6551EE
:1034500019EC2AF08CD871C0DFFF655119EC2AF005
:10346000DF2A6E6B24D06E517225676F000E7321B8
:10347000686F030E6725D96E000E6821DA6E6551FC
:1034800042EC2AF0696F6551E16EE26AE6CF6AF0BC
:10349000E5CF6BF069516A25E16E000E6B21E26E9B
:1034A000DFCFE7FF655119EC2AF0DF2A6E2B20EE03
:1034B00002F073D8DA22DE506E5DD5E301D0D3D7A7
:1034C000655119EC2AF053D8DF6A655119EC2AF0DE
:1034D000DF2A20EE12F061D822D8655119EC2AF0CB
:1034E000DF2A20EE13F059D81AD8655119EC2AF0CA
:1034F000DF2A712B6D51715D9BE301D099D7745117
:1035000086EC32F0BAEC3CF0E76A74518BEC32F0A6
:10351000BAEC3CF0745119EC2AF0CDEF56F0DA22F7
:103520006551E16EE26A020EE126E750676F655170
:10353000E16EE26AE6CF68F0E5CF69F06751682591
:10354000E16E000E6921E26EDFCFE7FF1200DF506F
:10355000756F7451D96EDA6ADECF76F0DDCF77F011
:1035600075517625D96E000E7721DA6E1200DF5084
:10357000676F6551D96EDA6ADECF68F0DDCF69F02A
:1035800067516825D96E000E6921DA6E120020EEAF
:1035900005F06F51D926705112007251D92673511E
:1035A0001200F3CF67F0F4CF68F012006851800B7F
:1035B000716F68516825736F67BF7381735105E040
:1035C000732901E106D9678F03D0656B666B676B62
:1035D000686B6C51800B726F711901E0718D6C51C9
:1035E0006C25726F6BBF7281725108E0722904E121
:1035F000696B6A6B6B6B6C6B6B8F03D0696B6A6BFF
:103600006B6B6C6B7351725D22E271AD02D0800EF8
:10361000711B73C074F072C073F074C072F065C037
:1036200074F069C065F074C069F066C074F06AC077
:1036300066F074C06AF067C074F06BC067F074C065
:103640006BF068C074F06CC068F074C06CF0746BA0
:10365000735172C06DF06E6B6D5F000E6E5B6EBF6E
:1036600015D06E5103E11A0E6D5D10E3C7D8010E3F
:10367000D8B4000E746FADD872C073F00AD074A1C4
:1036800002D0B7D802D0D89074339AD87251735DF3
:10369000F6E371BD15D0735101E1A6D069516527DC
:1036A0006A5166236B5167236C51682368A153D01C
:1036B00074A102D09ED802D0D890743381D84BD058
:1036C0006951655D6A5166596B5167596851800A45
:1036D0006D6F6C51800A6D591FE26551695D6D6FA8
:1036E00066516A596E6F67516B596F6F68516C59AB
:1036F000706FFF0E6D25656FFF0E6E21666FFF0EFA
:103700006F21676FFF0E7021686F800E711B746DE3
:1037100074510AE163D808D06951655F6A51665BEC
:103720006B51675B6C51685B69D813E1745111E1AF
:103730005BD0D890653766376737683774BF658167
:1037400074A102D0D88001D0D8907437735101E0B1
:10375000730767AFEED7726B74AF0AD074C06DF0A9
:103760007F0E6D1703E0010E726F02D065B1FBD7BB
:1037700072510BE033D868A108D0683568336733DD
:1037800066336533732901E0732B732902E07351AB
:1037900004E11FD8735101E1716B73A102D0678FEF
:1037A00001D0679FD8907331686F71BF688F65C013
:1037B00065F066C066F067C067F068C068F0120028
:1037C00065B1748F68356833673366336533732B3F
:1037D0001200656B666B676B686B1200652B000EE1
:1037E000662367236823000C656B666B676B686BE9
:1037F0001200D89074310109746F1200655166117E
:103800006711681112009B6F00019B5183EC7EF0E1
:1038100067C09CF068C09DF000019C519D11D8B418
:1038200012009CC065F09DC066F0D7EC8CF00009DA
:10383000D8B41200250E9E6F9F0E916F926B91C0AF
:10384000D9FF92C0DAFF9BC0DFFF20EE01F091515B
:10385000D9269251DA2210EE3AF0F4D8E222E7505B
:10386000C0EC93F0DF6E9E0EB8D8D2EC5AF020EE8A
:1038700022F0C1D8DF501EE1260E9E6F9F0E936F7F
:10388000946B93C0D9FF94C0DAFFCCD8B4D810EEB3
:1038900001F09351E1269451A8D820EE1FF0ABD847
:1038A00010EE03F09351E1269451B7D896D8D2EC9C
:1038B0005AF04CD0270E9E6F9F0E976F986B97C053
:1038C000D9FF98C0DAFFAED896D810EE23F0BAD858
:1038D0009CEC49F09BD8D8A020EE23F08CD8DECF0A
:1038E0008DF0DDCF8EF020EE01F0B0D88DC0DEFF80
:1038F0008EC0DDFF20EE1FF07ED810EE03F0975152
:10390000E1269851E222DFCFE7FF20EE23F073D8C3
:1039100010EE25F097D89CEC49F078D8D8A020EE8E
:1039200023F069D8DECF8FF0DDCF90F020EE04F0E9
:103930008DD88FC0DEFF90C0DDFF20EE1FF05BD87A
:1039400010EE06F09751E1269851AFD7290E9E6FE1
:103950009F0E956F966B6FD820EE2BF04CD850D8F9
:1039600044D89E0E3AD8D2EC5AF02A0E9E6F63D8F5
:1039700020EE2DF040D844D838D89E0E2ED8D2EC68
:103980005AF02B0E9E6F9F0E996F9A6B99C0D9FFBC
:103990009AC0DAFF9BC0DFFF20EE27F02CD810EE94
:1039A00001F045D822D820EE1FF025D810EE03F004
:1039B0003ED8E222DFCFE7FF20EE29F01CD810EE40
:1039C00004F035D812D820EE1FF015D810EE06F00E
:1039D0002ED823D802D8D2EF5AF07E6FF6C07FF0EF
:1039E000F7C080F0F8C081F01200E222DECFE6FFDF
:1039F000DDCFE5FF12009C51D9269D51DA2212003D
:103A000010EE01F09551E126965112008C6FDE50B8
:103A1000800A8C5920EE25F01200E222DFCFE7FF6A
:103A20009E0E12009BC0DFFF20EE25F01200995180
:103A3000E1269A51120095C0D9FF96C0DAFF9BC0CB
:103A4000DFFF12009C51E1269D5112009751D926AB
:103A50009851DA221200BEEC77F007D90FD938EC72
:103A60007EF0F4D8B8EC68F07DC0E2F07EC0E3F000
:103A70007FC0E4F080C0E5F0DEC0D1F0DFC0D2F05E
:103A8000E0C0D3F0E1C0D4F0E2C0D5F0E3C0D6F09E
:103A9000E4C0D7F0E5C0D8F0C00ED96F020EDA6FDF
:103AA000B70EDB6F020EDC6F13EC6EF0D1C027F2A5
:103AB000D2C028F2DAD8320EE8D838EC7EF0C6D878
:103AC000B8EC68F07DC0E6F07EC0E7F07FC0E8F0BB
:103AD00080C0E9F0CAD8D2D838EC7EF0B7D8B8ECBC
:103AE00068F07DC0EAF07EC0EBF07FC0ECF080C0F3
:103AF000EDF0E6C09AF0E7C09BF0E8C09CF0E9C0AA
:103B00009DF0EAC09EF0EBC09FF0ECC0A0F0EDC0CD
:103B1000A1F0E60EA26F030EA36F12EC2FF09AC075
:103B200029F29BC02AF2A1D8640EAFD838EC7EF0FF
:103B30008DD8B8EC68F07DC08AF07EC08BF07FC075
:103B40008CF080C08DF06FEC8CF08AC02BF28BC0B3
:103B50002CF28BD8640E99D838EC7EF077D8B8EC7C
:103B600068F07DC0EEF07EC0EFF07FC0F0F080C066
:103B7000F1F0DEC08AF0DFC08BF0E0C08CF0E1C075
:103B80008DF0EEC08EF0EFC08FF0F0C090F0F1C07D
:103B900091F057EC66F08AC02DF28BC02EF265D8FA
:103BA0006DD838EC7EF052D8B8EC68F07DC08AF061
:103BB0007EC08BF07FC08CF080C08DF0D7EC8AF097
:103BC0008AC02FF28BC030F250D858D838EC7EF033
:103BD0003DD8B8EC68F07DC08AF07EC08BF07FC025
:103BE0008CF080C08DF077EC84F08AC031F28BC00D
:103BF00032F23BD83C0E49D838EC7EF027D8B8ECEE
:103C000068F07DC093F07EC094F07FC095F080C0D6
:103C100096F079EC80F093C033F294C034F2270E22
:103C2000656F020E666F686B070E676FDEC069F026
:103C3000DFC06AF0E0C06BF0E1C06CF0FE0E6D6FAB
:103C40001B0E6E6F010E6F6F47EF8BF071C07DF032
:103C500072C07EF073C07FF074C080F0E80E816F98
:103C6000030E826F836B846B030CDEC071F0DFC0C8
:103C700072F0E0C073F0E1C074F01200E80E756FEE
:103C8000030E766F776B786B030C756F766B776BC3
:103C9000786B12007AC1D9FF7BC1DAFF01D80AD054
:103CA0000500FA6EDE50FD6EDE50FE6EDE50FF6ED9
:103CB000FA50120065C0F3F166C0F4F10101F3514E
:103CC000F41137E07851F31934E17951F41931E105
:103CD000000E0001676F0C0E686F6A6BFA0E696F59
:103CE000010120EE03F07A51D9267B51DA2201D866
:103CF0000AD00500FA6EDE50FD6EDE50FE6EDE501C
:103D0000FF6EFA50120067C0F1F168C0F2F1000EC8
:103D1000E46F0C0EE56FF1C1E6F0F2C1E7F0000EC2
:103D2000E86F0B0EE96F000EEB6FFA0EEA6F4FECC7
:103D30003FF0F3C178F1F4C179F100C26EF001C235
:103D40006FF002C270F003C271F00201002B000E8E
:103D50000123022303236EC065F06FC066F070C0BC
:103D600067F071C068F004C269F005C26AF006C26B
:103D70006BF007C26CF09CEC72F065516611671134
:103D8000681101E002D0010E01D0000E00095CE0D4
:103D9000000E0101F56F0B0EF66FF50E0001826F3C
:103DA000010E836F856BFA0E846FF70E866F010E1E
:103DB000876FA6EC8EF0F5C166F0F6C167F0F7C12B
:103DC00068F0F8C169F0010120EE06F07A51D926B9
:103DD0007B51DA2201D80AD00500FA6EDE50FD6E62
:103DE000DE50FE6EDE50FF6EFA50120020EE01F043
:103DF0003650D9263750DA22DFB611D001D00FD095
:103E000020EE01F03650D9263750DA22DFBA01D041
:103E100002D0010E01D0000E656F666B0AD020EE55
:103E200001F03650D9263750DA22DF96666B010E44
:103E3000656F20EE01F03650D9263750DA2265B191
:103E400002D0DF9A01D0DF8A20EE01F03650D92669
:103E50003750DA22DFAA010C01D0010C20EE02F06B
:103E60003650D9263750DA22DE2A000EDE22DE2234
:103E7000DD22DD52DD52030EDB500BE1020EDB5082
:103E800008E1010EDB5005E10A0EDE5C1AE301D009
:103E9000010C20EE01F03650D9263750DA22DF88A7
:103EA00020EE01F03650D9263750DA22DF9A20EE84
:103EB00002F03650D9263750DA22DE6ADE6ADE6A30
:103EC000DD6A010C8051800B896F805180258B6FDA
:103ED0007FBF8B818B5105E08B2901E102D97F8F58
:103EE00001D0FFD88451800B891B845184258A6FAF
:103EF00083BF8A818A5105E08A2901E1EDD8838F49
:103F000001D0EAD88A5102E08B5105E17D6B7E6BCE
:103F10007F6B806B120083517D03B1D88C6F8D6BEA
:103F20008E6B8F6B9551906F916B926B936B8251EF
:103F30007E03A5D8B2D881517F03A1D8AED8A5D829
:103F400081517E039CD8B5D882517D0398D8B1D8D1
:103F50009CD881517D0393D8ACD883517E038FD8F0
:103F6000B4D882517F038BD8B0D883517F0387D8D0
:103F7000856F9551866F876B886B87C088F086C088
:103F800087F085C086F0856B8551902786519123F7
:103F900087519223885193238F51902791D875D8B8
:103FA0008A518BC085F0866B8527000E8623820E92
:103FB0008525946FFF0E8621956F0FD0D89090378E
:103FC0009137923793378FBF9081D8908C378D3748
:103FD0008E378F379407D8A0950792AFEFD78A6BAB
:103FE0008FAF13D08C51856F8D51866F8E51876F37
:103FF0007F0E8F15886F855186118711881103E018
:10400000010E8A6F02D090B1FBD78A510BE0902B42
:1040100057D893A107D0933593339233913390338C
:10402000944B952B95BF0AD0955102E1942906E354
:10403000906B916B800E926F7F0E15D095BF04D060
:10404000955108E1940506E2906B916B926B936B2E
:10405000896B0AD094C08BF07F0E9217936B8BB153
:10406000928FD8908B31936F8951931390C07DF0CC
:1040700091C07EF092C07FF093C080F01200F3CF29
:1040800094F0F4CF95F0945112008EC08FF08DC053
:104090008EF08CC08DF08C6B12008C27000E8D235F
:1040A0008E238F2395519027000E912392239323E3
:1040B000000C8C2795518D23000E8E238F23000C2E
:1040C000000E912392239323000C90279551912366
:1040D000000E92239323000C816B826B836B846BA5
:1040E00012007D6B7E6B7F6B806B12008A6F00010C
:1040F0008B6B070E8A190FE1ABEC86F0F1D83BEC25
:104100008DF0A7EC86F0ECD83BEC8DF0A3EC86F0BC
:10411000E7D83BEF8DF0090E8A19D8B41200896BED
:10412000A5D085C0D9FF86C0DAFF83C0E1FF84C077
:10413000E2FFDE50E61801E1A7D08B51220F7E6F1F
:10414000300E7F6F83C0D9FF84C0DAFFDF50806FED
:104150008B511B0F3BEC8DF097D020EE01F0C8D8AF
:1041600010EE01F08351E1268451E222DE50E61880
:1041700001E18AD08B51770F7E6F300E7F6F20EE7A
:1041800001F09AD8700F3BEC8DF07ED020EE02F05B
:10419000AFD810EE02F08351E1268451E222DE50C6
:1041A000E61872E08B51470F8FD886D8440F3BEC4E
:1041B0008DF0A7D889D880D84B0F3BEC8DF09DD8D7
:1041C00083D87AD84B0F3BEC8DF05ED020EE03F015
:1041D0008FD810EE03F08351E1268451E222DE50A5
:1041E000E61852E08B51220F7E6F370E7F6F20EE64
:1041F00003F062D81B0F3BEC8DF046D020EE04F0AC
:1042000077D810EE04F08351E1268451E222DE508B
:10421000E6183AE08B51770F7E6F370E7F6F20EEF6
:1042200004F04AD8700F3BEC8DF02ED020EE05F054
:104230005FD810EE05F08351E1268451E222DE5072
:10424000E61822E08B51470F45D836D8440F3BEC97
:104250008DF057D83FD830D84B0F3BEC8DF04DD870
:1042600039D82AD84B0F3BEC8DF00ED08A5101E1A2
:1042700058D7010A01E171D7030A88E0010AA6E0D4
:10428000070ABCE0010AD2E00B0E00018B27892B44
:10429000030E8965EBD7060E8A61060C8A518325C9
:1042A000D96E000E8421DA6E8A518525E16E000EEA
:1042B0008621E26E82EF55F08351D9268451DA22AD
:1042C000DF50806F8B5112007E6F300E7F6F20EEBB
:1042D00002F0300C7E6F370E7F6F20EE05F0370C4A
:1042E0007F6F83C0D9FF84C0DAFFDF50806F180C66
:1042F0008551D9268651DA22120000018B514E0FCA
:10430000120000018B514B0F12009DD020EE01F0E6
:10431000E251D926E351DA22DF5094EF94F0010103
:1043200022EE01F0C251D926C351DA22DFA4F3EF05
:1043300051F0120020EE01F0E251D926E351DA22C9
:10434000DF50B5EF7CF020EE01F0E251D926E351C9
:10435000DA22DF5089EF94F020EE01F0E251D92605
:10436000E351DA22DF5000EF93F0E229DE6F000E16
:10437000E321DF6F92EF6AF0E229986F000EE321EC
:10438000996F7EEF94F0E229986F000EE321996F08
:10439000D3EF4AF0E229986F000EE321996F78EF8E
:1043A0002AF0E229986F000EE321996F04EF68F07C
:1043B000E229986F000EE321996FFBEF61F0E2298B
:1043C000986F000EE321996F44EF33F020EE01F077
:1043D000E251D926E351DA22DF509CEF93F020EE30
:1043E00001F0E251D926E351DA22DECF98F0DDCF99
:1043F00099F050EF95F020EE01F0E251D926E3510B
:10440000DA22DECF98F0DDCF99F04EEF97F0E22977
:10441000986F000EE321996F4CEF14F0E229656F5D
:10442000000EE321666F0FEF85F0E229656F000E45
:10443000E321666FB3EF8FF0E229936F000EE32163
:10444000946FDEEF97F0E2C0D9FFE3C0DAFFDF50F0
:1044500002E1F9EF79F0010AD8B41200030A02E18F
:10446000E6EF54F0010AD8B41200070A01E14ED772
:10447000140A02E10DEF93F0080A02E16BEF95F0E8
:10448000380A01E14CD7610A01E154D7030A01E17E
:104490005AD7010A01E160D7070A01E166D7010A8C
:1044A00001E16AD7030A01E16ED7010A01E172D77F
:1044B0000E0A01E176D7030A01E17AD7010A01E188
:1044C0007ED71A0AA4E0310AD8B41200010AADE07E
:1044D000100AD8B41200F10A01E178D7030A01E109
:1044E0007ED7070A88E0140AD8B41200010AA4E0B3
:1044F000030A94E01200F1C072F0F2C073F0F3C04E
:1045000074F0F4C075F03CEC87F0000901E0120093
:10451000CAEC8EF070C0E5F171C0E6F1E5C1D9FFDB
:10452000E6C1DAFFDF50030B030A03E1010E0101CC
:10453000AF6F0101AF0514E1E5C1D9FFE6C1DAFFB4
:10454000DF50030B030A0CE0E5C1D9FFE6C1DAFF37
:10455000DF500001F56F700EF51702E10101AF6B3E
:104560000101AF0501E0A5D0FCEC96F065C0E7F1D4
:1045700066C0E8F1E5C1D9FFE6C1DAFFDFA817D0D0
:10458000898E898C010E0001656F010120EE3AF0E1
:10459000E751D926E851DA22DE04010ED8A4000E34
:1045A0000001666F000E676BFFEC85F015D0899EE9
:1045B000899C0001656B010120EE3AF0E751D92694
:1045C000E851DA22DE04010ED8A4000E0001666F65
:1045D000000E676BFFEC85F0F0EC96F065C0E7F13C
:1045E00066C0E8F1E5C1D9FFE6C1DAFFDFAA16D05F
:1045F0008F86010E0001656F010120EE3AF0E75150
:10460000D926E851DA22DE04010ED8A4000E0001FA
:10461000666F676B010EFFEC85F014D08F9600017A
:10462000656B010120EE3AF0E751D926E851DA2214
:10463000DE04010ED8A4000E0001666F676B010E48
:10464000FFEC85F0F6EC96F065C0E7F166C0E8F1A6
:10465000E5C1D9FFE6C1DAFFDFAC16D08F80010ECD
:104660000001656F010120EE3AF0E751D926E851CB
:10467000DA22DE04010ED8A4000E0001666F676B1B
:10468000020EFFEC85F019D08F900001656B0101DF
:1046900020EE3AF0E751D926E851DA22DE04010E85
:1046A000D8A4000E0001666F676B020EFFEC85F068
:1046B00004D0899E899C8F968F90F1C0E3F0F2C060
:1046C000E4F0F3C0E5F0F4C0E6F0010E0001E76F9E
:1046D000E86BE96BEA6BEB6BDAEF2CF0656B0101D1
:1046E000C1AB0AD001D008D0D4D8CED8DFB204D024
:1046F00001D002D0010E656F00016551000927E06D
:1047000022EE0EF0C1D8DF50C30B0409DF6E0101A9
:10471000C1A91AD0C2D8B8D8DF5006E0AED8DF9C05
:10472000030E44EC97F00BD0A8D8DF8CA6D8DF9E00
:10473000A4D8DF98A2D8DF86040E44EC97F0ADD859
:10474000A3D8B3D8DFCFE7FFA4D89ED8DF8295D80F
:10475000DFB409D001D007D022EE0EF095D8DFA04B
:1047600004D001D002D0000E26D00101AC2BAC0544
:104770000001656FA60E6565F6D701D0F4D722EE6D
:104780000EF082D8DF30E8320F0B12E001D010D0EB
:1047900022EE0EF079D8DF30656F65310F0B656F53
:1047A000652B65376537DF506519C30B6519DF6EFB
:1047B0000101AC6B010E000904E0010E44EC97F01E
:1047C0003BD06FD861D8DFA004D001D002D0000E5A
:1047D00020D0696B6951020DF3CF65F0F4CF66F01C
:1047E0006551F925676F6651FA21686F070E6725D5
:1047F000D96E020E6821DA6EDFA004D001D002D09B
:10480000010E07D0692B030E6965E4D7E0D7E2D724
:10481000DED7000911E031D8DF922FD8DF902DD8F4
:10482000DF8422EE0EF030D8DF8022EE0EF02CD89E
:10483000DF92090E44EC97F02CD826D8DFA21200A4
:1048400001D012000101C1AB120001D0120029D821
:104850001BD8DF30E8320F0B656F010E6565010C68
:1048600001D0120022EE07F00FD8DF920101C19BA8
:1048700018D80AD8C30EDF16120022EE01F0F95143
:10488000D926FA51DA221200F951D926FA51DA2240
:104890001200000122EE07F01200000121EEFEF0EE
:1048A0001200000122EE0EF0120010EE01F0F9519C
:1048B000E126FA51E2221200F4EC97F06EEC6DF072
:1048C0000001926B936B946B956B916B970ED5D89F
:1048D0007E6B2CEC94F06EEC6DF0680E0001906F26
:1048E000E40EE82EFED7902FFCD70000970E0001B3
:1048F000C4D87E6F2CEC94F06EEC6DF0680E000165
:10490000906FE40EE82EFED7902FFCD70000000138
:10491000912B020E9165DAD79281920E8D6F5EEC2B
:104920007EF000019283920E8D6F5EEC7EF00001AE
:104930009285920E8D6F5EEC7EF000019287920E52
:104940008D6F5EEC7EF000019289920E8D6F5EECB1
:104950007EF00001928B920E8D6F5EEC7EF0000176
:10496000928D920E8D6F5EEC7EF00001928F920E12
:104970008D6F5EEC7EF00001938B920E8D6F5EEC7E
:104980007EF000019389920E8D6F5EEC7EF0000147
:104990009387920E8D6F5EEC7EF000019385920EF0
:1049A0008D6F5EEC7EF000019383920E8D6F5EEC56
:1049B0007EF000019381920E8D6F5EEC7EF000011F
:1049C000938F920E8D6F5EEC7EF000019481920EBB
:1049D0008D6F5EEC7EF00001938D920E8D6F5EEC1C
:1049E0007EF000019483920E8D6F5EEC7EF00001EC
:1049F0009487920E8D6F5EEC7EF000019485920E8E
:104A00008D6F5EEC7EF000019489920E8D6F5EECEE
:104A10007EF000019589920E8D6F5EEC7EF00001B4
:104A20009583920E8D6F5EEC7EF00001948B920E5A
:104A30008D6F5EEC7EF00001948F920E8D6F5EECB8
:104A40007EF00001948D920E8D6F5EEC7EF0000181
:104A50009581920E8D6F5EEC7EF00001958B920E2B
:104A60008D6F5EEC7EF000019585920E8D6F5EEC91
:104A70007EF0F4EC97F06EEF6DF07A6F230E7B6FA3
:104A8000010E7C6F91C07DF0010C686F82D0940E96
:104A9000656F2F0E666F010E676F1200320E656F25
:104AA000C80E666F000E676F1200900E656F1E0EC7
:104AB000666F010E676F12009E0E656F1A0E666FAD
:104AC000010E676F12001A0E656FEA0E666F000E18
:104AD000676F1200AA0E656FC00E666F000E676FDB
:104AE0001200900E656F020E666F010E676F120066
:104AF0008A0E656F180E666F010E676F1200F00E5A
:104B0000656FFA0E666F000E676F1200A00E656F7C
:104B1000030E666F010E676F12005C0E656F030E69
:104B2000666F010E676F1200380E656F010E666FBB
:104B3000010E676F1200180E656F030E666F010E8F
:104B4000676F1200980E656FF20E666F000E676F4A
:104B50001200EA0E656FF50E666F000E676F1200A9
:104B6000B80E656FDB0E666F000E676F1200440EA5
:104B7000656FAE0E666F000E676F1200D40E656F24
:104B8000020E666F010E676F1200656B666B676BD6
:104B900012000001685182E0020AF0E0010A85E09B
:104BA000070A8AE0010A88E0030ABEE0010A84E0FD
:104BB0000F0AACE0180AE2E0010A85E0090ADEE02B
:104BC000010A88E0030A8DE03A0AD8E0010A01E10F
:104BD0006CD7030A01E169D7010A8AE0070A8FE06E
:104BE000010A9BE0030AA7E0010AACE00E0AB1E06B
:104BF000030AAFE0010AA6E01B0AB2E0010AB7E02F
:104C0000700ABCE0030ABAE0010AB8E0070AB6E09D
:104C1000010AB4E0030AB2E0010AB0E00E0AAEE015
:104C2000030AACE0010AAAE01A0AA8E0310A01E18D
:104C30002ED7110A01E163D7F10AA0E0030A9EE032
:104C4000070A9CE0140A01E153D7010A01E11FD7CA
:104C5000030A01E11CD799D79D6B9E6B9F6BA06BDC
:104C60009E0E9D6FEF0E9E6FE10E9F6F410EA06F27
:104C7000A3D8C0EC3BF0CED85C0E816FFE0E826FE5
:104C8000E80E836F3A0E846F62EC1FF07DC099F0DE
:104C90007CD8D6EC1AF0ACD88FD8C0EC3BF0BAD8A0
:104CA0008BD8C0EC3BF0ADD862EC1FF09CD88ED80E
:104CB000ED0E816F450E826FDE0E836FB20E846F34
:104CC00062EC1FF07DC099F060D8D6EC1AF090D855
:104CD00073D8C0EC3BF09ED86FD8C0EC3BF091D8B5
:104CE00062EC1FF080D872D867D8C0EC3BF089D84E
:104CF00062EC1FF078D86AD83A0E816F6D0E826F21
:104D0000A00E836F2B0E846F62EC1FF07DC099F0B4
:104D10003CD8D6EC1AF06CD89DC07DF09EC07EF0D9
:104D20009FC07FF0A0C080F0816B826B200E836FEC
:104D3000410E846F62EC1FF07DC09DF07EC09EF03E
:104D40007FC09FF080C0A0F09DC08FF09EC090F00B
:104D50009FC091F0A0C092F0B7EC5BF08FC09DF0C7
:104D600090C09EF091C09FF092C0A0F09DC065F0F1
:104D70009EC066F09FC067F0A0C068F09BEC59F041
:104D800065C097F066C098F012007EC09AF07FC0B0
:104D90009BF080C09CF09DC065F09EC066F09FC0F7
:104DA00067F0A0C068F099C069F09AC06AF09BC033
:104DB0006BF09CC06CF0120097C06FF098C070F060
:104DC000000E70BFFF0E716F726F010C7FC09BF001
:104DD00080C09CF099C07DF09AC07EF09BC07FF0AF
:104DE0009CC080F012007DC099F07EC09AF0120045
:104DF00065C09DF066C09EF067C09FF068C0A0F0DF
:104E000012006FC081F070C082F071C083F072C078
:104E100084F012006FC07DF070C07EF071C07FF032
:104E200072C080F01200DCEC96F065C079F066C0CC
:104E30007AF0AED88FD8C80EDE6EDD6A20EE27F08D
:104E400089D86E0EB0D886D8B40EDE6EBAD882D8A5
:104E5000B40EAED87FD8010EDE6E81D87BD883D851
:104E600079D8010EDF6E98D819EC66F050EC94F00A
:104E700065C079F066C07AF08BD86CD82C0EDE6EE7
:104E8000010E9BD867D8640E8ED864D8960EDE6E5D
:104E900098D860D8FA0E8CD85DD8DE6A60D85AD817
:104EA00062D858D8DF6A78D819EC66F05CEC94F0D8
:104EB00065C079F066C07AF06BD84CD88A0EDE6E89
:104EC000020E7BD847D8300EDE6E020EDD6E20EE6D
:104ED00023F040D87FD820EE25F03CD87BD820EEB8
:104EE0002BF038D8010EDE6E3AD834D83CD832D800
:104EF000020EDF6E51D819EC66F020EE38F02AD899
:104F0000DE6ADD6A0101B56B040EC06F060EC16F6B
:104F10005CD828EC80F02ED85C6ADC6BDD6B2CEC66
:104F200097F065C067F066C068F06A6B696B020E47
:104F30006C6F0F0E6B6F84EC8CF0786B782B0E0E11
:104F40007865FCD70101C981010E9C6F56EC18F001
:104F5000000012007951D9267A51DA221200DD6A56
:104F600020EE2DF01200580EDE6E020EDD6E20EEE9
:104F70003AF0020C020EDA6FDB6B080ED46F640E8F
:104F8000D56FFD0ED66FD769E36B140EE26F140C6C
:104F9000000120EE29F0120079C065F07AC066F0B9
:104FA000686B676B1200DE6EDD6A20EE23F0120084
:104FB000DE6EDD6A20EE2BF01200DD6E20EE27F0B3
:104FC0001200DD6A20EE25F01200556A566A576A13
:104FD000586AF80C440EDE6E020EDD6E020CB3D879
:104FE000DA22DECF7AF0DDCF7BF0ADD856EC36F0AA
:104FF000BAEC3CF0E7507D6FA6D8BBD8BAEC3CF0D9
:10500000E7507C6FF9C07EF0FAC07FF07A0E796FBE
:10501000A8EC69F0000901E090D07A0E6C6F726B19
:10502000736B6C518BEC32F0BAEC3CF0E750030F31
:10503000706F000EEAEC96F000016C51D96EDA6ADE
:10504000DECF68F0DDCF69F070C06AF009EC89F05E
:10505000010E716F3CD0720E656F6C51D96EDA6AB9
:10506000DECF6DF0DDCF6EF071516D25D96E000E83
:105070006E21DA6EDF50666F6651686F676B65513F
:10508000D96EDA6A6751DE1A6851DD1A080E6B6F45
:1050900074D868AF14D001D012D06FD8D8906737C9
:1050A0006837210E6719696F100E68196A6F6551AC
:1050B000D96EDA6A69C0DEFF6AC0DDFF02D06551D1
:1050C00064D86B076B51E4E101D0E2D7712B7051CA
:1050D000715DC1E301D0BFD76C5119EC2AF039D80A
:1050E00073C0DFFF6C5119EC2AF0DF2A6C5119EC08
:1050F0002AF02FD872C0DFFF6C5119EC2AF0DF2A9A
:105100006C5119EC2AF025D80D0EDF6E6C5119EC9C
:105110002AF0DF2A7AC066F07BC067F07CC068F0B6
:1051200001D80BD00500FA6E01016451FD6E655186
:10513000FE6E6651FF6EFA50120005D81AD8BAEC0E
:105140003CF0E76A120020EE02F03850D9263950C0
:105150001200DF506D6F6C51D96EDA6ADECF6EF0DF
:10516000DDCF6FF06D516E25D96E000E6F21DA6EB6
:105170001200DA2210EE64F012006551D96EDA6A7C
:10518000DECF67F0DDCF68F01200D96EDA6AD89012
:10519000DE36DD3612000001786F78511FE0816B3A
:1051A000826B000E716F030E726FD8908135D96ECD
:1051B0008235DA6ED890D936DA367151D9267251E5
:1051C000DA22B9D8814B822B82BFEBD7825103E11F
:1051D0000B0E815DE6E30101A66B000C0101A651F7
:1051E000040D000EF324D96E030EF420DA6EA3D85A
:1051F0006DC079F06EC07AF06FC07BF070C07CF04B
:105200006DC07DF06EC07EF06FC07FF070C080F02A
:10521000A62B090EA66501D0A66B0001876B886BD3
:1052200079D8DE50795DDE507A59DE507B597C5159
:10523000800A776FDE50800A775909E26BD8DECF9B
:1052400079F0DECF7AF0DECF7BF0DECF7CF062D873
:105250007D51DE5C7E51DE587F51DE58DE50800A83
:10526000776F8051800A775909E254D8DECF7DF0FC
:10527000DECF7EF0DECF7FF0DECF80F0874B882B55
:1052800088BFCED7885103E10A0E875DC9E37D51FF
:10529000795D656F7E517A59666F7F517B59676F73
:1052A00080517C59686FCDEC7EF065C083F066C09C
:1052B00084F067C085F068C086F086BF09D086514B
:1052C000851105E1C00E835D5D0E845901E3000C7C
:1052D00086BF09D08651851105E1E00E835D2E0E53
:1052E000845901E3010C86BF09D08651851105E17F
:1052F000700E835D170E845901E3020C86BF040C07
:105300008651851105E1B80E835D0B0E845901E3CA
:10531000030C040C000E716F030E726FD89087356A
:10532000D96E8835DA6ED890D936DA367151D926E9
:105330007251DA2212006DC0DEFF6EC0DEFF6FC058
:10534000DEFF70C0DEFF1200705173D8030EDF6EF7
:105350007051D96EDA6ADECF71F0DDCF72F071C0B4
:10536000D9FF72C0DAFF1B0EDF6E705162D86AD8A7
:10537000500EDF6E70515DD8DF2A70515AD862D856
:10538000DF6A705156D8DF2A705153D85BD8DF6876
:1053900070514FD890EC32F070C06BF0A4D8686BAD
:1053A0009AD803E008D001D006D0682B050E6865B6
:1053B000F7D701D0F5D76F6B6FD864D87CD86F2B37
:1053C000050E6F65F9D701D0F7D76B5132D836D8B3
:1053D00030D848D85DD82DD8DF2A6B512AD842D88A
:1053E00076D827D8DF2A705124D82CD8010EDF6E4A
:1053F00070511FD8DF2A70511CD824D8640EDF6E7C
:10540000705117D8DF2A705186EC32F0BAEC3CF0BC
:10541000E76A70518BEC32F0BAEC3CF0705109D86D
:10542000DF50FD0FE76E705104D8640EDF60010C91
:10543000000CD96EDA6A020ED926020C060EDF269F
:105440006B511200DF50716F7051D96EDA6ADECF86
:1054500072F0DDCF73F071517225D96E000E732199
:10546000DA6E1200DF506C6F6B51D96EDA6ADECFE4
:105470006DF0DDCF6EF06C516D25D96E000E6E2192
:10548000DA6E1200E16EE26A020EE126E7501200C7
:10549000CA0EDF6E6B5112006F516925D96E000E76
:1054A0006A21DA6E6B51E16EE26AE6CF6CF0E5CF0D
:1054B0006DF06B5112006C27000E6D236F516C253F
:1054C000E16E000E6D21E26EDFCFE7FF1200FE0EEF
:1054D000DF6E6B51120068516525D96E000E662192
:1054E000DA6EDE28120069C065F06AC066F012004C
:1054F000C0D883EC7EF067C0A4F068C0A5F00001BE
:10550000A451A51104E1B5D8886F020E4FD0040E46
:105510009825A0D8F3EC52F07FC0A0F080C0A1F095
:10552000982998D8F3EC52F07FC0A2F080C0A3F085
:10553000A2C06DF0A3C06EF0A0C06FF0A1C070F06B
:10554000A4C071F0A5C072F0746BE2EC33F028E2F5
:1055500001D026D0D9EC33F06C6B5ED808E301D0D3
:1055600006D069D804E301D002D0010E6C6F6C51F3
:10557000000916E001D014D0D0EC33F06C6B4CD89D
:1055800008E301D006D057D804E301D002D0010EC1
:105590006C6F6C51000904E001D002D0010E746FF1
:1055A0007451000905E165D8886F030E896F31D009
:1055B00020EE3AF064D8020EDE18010ED8A4000ED8
:1055C0009F6F9F5105E1A2C09BF0A3C09CF004D047
:1055D000A0C09BF0A1C09CF020EE23F050D89BC04F
:1055E000DEFF9CC0DDFF9F5105E1A0C09DF0A1C082
:1055F0009EF004D0A2C09DF0A3C09EF020EE25F046
:105600003ED89DC0DEFF9EC0DDFFE5EC90F031D8B6
:105610003BD8470EBCEF88F020EE13F06751D92637
:105620006851DA22DE50655D6651800A6B6FDE508C
:10563000800A6B59120020EE15F06751D926685187
:10564000DA226551DE5CDE50800A6B6F6651800A9B
:105650006B5912007F6F000E9921806F20EE1FF0B2
:10566000A451D926A551DA22DECF81F0DDCF82F018
:10567000120098C0D9FF99C0DAFFDF501200A45180
:10568000D926A551DA2212000001886F896B120019
:10569000939A8A9A1A0E0001816FF80EE82EFED7AF
:1056A000812FFCD700008A8A200E0001816F290E0D
:1056B000E82EFED7812FFCD700D0C00E0001A6D85F
:1056C000300E25EC91F0C00EA1D8370E25EC91F0EC
:1056D000C00E9CD8360E25EC91F0A3D83F0E7C6FFF
:1056E000300E25EC91F09DD83F0E7C6F370E25ECE7
:1056F00091F097D8280E7C6F360E25EC91F06DD87E
:10570000300E25EC91F069D8370E25EC91F065D874
:10571000360E25EC91F074D8300E25EC91F070D84F
:10572000370E25EC91F06CD8360E25EC91F062D84E
:10573000300E25EC91F05ED8370E25EC91F05AD85A
:10574000360E25EC91F0010E7E6F300E15EC91F0C7
:10575000010E7E6F370E15EC91F0010E7E6F360E46
:1057600015EC91F033D8300E25EC91F02FD8370E90
:1057700025EC91F02BD8360E25EC91F0826B34D8C5
:10578000300E25EC91F030D8370E25EC91F02CD866
:10579000360E25EC91F0822B170E8265F0D7180E8D
:1057A000826F400E39D8300E25EC91F0400E34D87F
:1057B000370E25EC91F0400E2FD8360E25EC91F0E7
:1057C000822B9B0E8265EDD700009B0CC00E7A6F7A
:1057D000090E7B6F030E7C6F030CC00E7A6F040EF4
:1057E0007B6FEB0E7C6FEB0C400E7A6F82C07BF010
:1057F0007C6B400CC00E7A6F7B6B400E7C6F400C54
:10580000C00E7A6F010E7B6F7C6B010C7A6F060EF7
:105810007B6F020E7C6F020C7A6F82C07BF07C691A
:105820001200C00E7A6F050E7B6F050C380EF66EF7
:10583000100EF76E010EF86E06EEA4F010EE36F0C4
:105840000900F5CFEEFFE550E150FAE1E00EF66E0B
:105850001C0EF76E010EF86E05EECFF010EE24F080
:105860000900F5CFEEFFE550E150FAE1BC0EF66E0F
:105870001C0EF76E010EF86E04EECCF010EE24F064
:105880000900F5CFEEFFE550E150FAE13E0EF66E6D
:105890001B0EF76E010EF86E03EECBF010EE27F044
:1058A0000900F5CFEEFFE550E150FAE1140EF66E77
:1058B000EE0EF76E000EF86E02EE80F010EE5AF06B
:1058C0000900F5CFEEFFE550E150FAE15E0EF66E0D
:1058D0002F0EF76E010EF86E01EEFAF010EE06F0E4
:1058E0000900F5CFEEFFE550E150FAE10CEEFAF0D9
:1058F00012EE0FF0EE6AE550E150FCE1E250FAE101
:105900000CEE00F0FA0EEE6AE806FDE10BEE00F098
:10591000FA0EEE6AE806FDE10AEE00F0FA0EEE6A13
:10592000E806FDE109EE00F0FA0EEE6AE806FDE198
:1059300008EE00F0D50EEE6AE806FDE107EE00F095
:10594000FA0EEE6AE806FDE106EE00F0A40EEE6A3D
:10595000E806FDE105EE00F0CF0EEE6AE806FDE197
:1059600004EE00F0CC0EEE6AE806FDE103EE00F076
:10597000CB0EEE6AE806FDE102EE00F0800EEE6A64
:10598000E806FDE101EE00F0E50EEE6AE806FDE155
:105990000001FA6BF96BF86BF76BF66B5E6A00EE61
:1059A00032F02C0EEE6AE806FDE15F905F92000196
:1059B00082EF30F0EE0E726F736B24EC76F072C0F3
:1059C000EFF073C0F0F020EE02F0EF51D926F05165
:1059D000DA22DFA00AD0E3C065F0E4C066F0E5C0DB
:1059E00067F0E6C068F0A1EC95F00001E851E9111C
:1059F00008E0E8C0D9FFE9C0DAFFEFC0DEFFF0C081
:105A0000DDFFEA51EB1106E0EAC0D9FFEBC0DAFF97
:105A1000EEC0DFFFEFC0D9FFF0C0DAFFDE501FE1BC
:105A2000DE041DE1EE511BE020EE02F0EF51D9261D
:105A3000F051DA22DFB413D020EE02F0EF51D92674
:105A4000F051DA22DFB60BD0E3C0D5F0E4C0D6F0D7
:105A5000E5C0D7F0E6C0D8F01BEC8BF0010CEFC02E
:105A6000D9FFF0C0DAFFDE04DE1008E0EFC0D9FF96
:105A7000F0C0DAFF020EDE18DE103DE1EE5108E163
:105A800020EE02F0EF51D926F051DA22DFA4010C0A
:105A900020EE02F0EF51D926F051DA22DFB2010CEC
:105AA000EFC0D9FFF0C0DAFFDE04DE100DE1DC69E3
:105AB000DB69E3C0DDF0E4C0DEF0E5C0DFF0E6C0A6
:105AC000E0F01AEC8AF0010CEFC0D9FFF0C0DAFF69
:105AD000020EDE18DE10D8A4010CDC6B010EDB6FA9
:105AE000E3C0DDF0E4C0DEF0E5C0DFF0E6C0E0F0EA
:105AF0001AEC8AF0010CEFC0D9FFF0C0DAFF800E7B
:105B0000DE18DE1018E1E75116E0EE51D8B4010CB2
:105B100020EE02F0EF51D926F051DA22DFB2010C6B
:105B2000E3C0D5F0E4C0D6F0E5C0D7F0E6C0D8F0C9
:105B3000C3EC8CF0010C000CE5C0D9FFE6C0DAFF25
:105B4000DECFE7F0DDCFE8F0845107E100016E6BB6
:105B5000020E34EC96F06EEC6DF00001666B080EF0
:105B6000656FE7C067F0E8C068F06551671906E146
:105B70006651681901E002D0010E01D0000E000943
:105B800017E06E6B010E34EC96F06F0E7A6F240EF8
:105B90007B6F010E7C6F7D6F7E6B2CEC94F0010EA1
:105BA0000201846F0201816B826B6EEC6DF064D038
:105BB000666B040E656FE7C067F0E8C068F065517A
:105BC000671906E16651681901E002D0010E01D0A3
:105BD000000E000916E06E6B010E34EC96F0570EC5
:105BE0007A6F240E7B6F010E7C6F7D6F7E6B2CECC9
:105BF00094F00201846B00016E6B020E34EC96F09F
:105C0000D1D7010E666F656BE7C067F0E8C068F03A
:105C10006551671906E16651681901E002D0010E6D
:105C200001D0000E000928E00101010EC9A1000EFB
:105C3000020184190BE084B103D00101C99102D0A3
:105C40000101C9810201845153EC97F0E1C0DDF0FC
:105C5000E2C0DEF0E3C0DFF0E4C0E0F022EE9FF04F
:105C600001D80AD00500FA6EDE50FD6EDE50FE6EE1
:105C7000DE50FF6EFA50120002018451D8B41200B7
:105C800083510101C619D8B4120000016E6B020ED7
:105C900034EC96F069EC85F065C07AF066C07BF074
:105CA000010E7C6F020E7D6F7E6B2CEC94F06EEF1C
:105CB0006DF0D5C0D9FFD6C0DAFF0001DFAE000C11
:105CC0003EC065F03FC066F06CEC8FF0000901E16A
:105CD000A8D0000ECEEC79F065C0DDF066C0DEF035
:105CE00020EE33F03E50D9263F50DA2210EE04F079
:105CF000DE50E126DD50E222E6CFDFF0E5CFE0F036
:105D0000E56BE66B45D020EE0DF03E50D9263F50B6
:105D1000DA22DECFDBF0DDCFDCF0DD51E55D656F53
:105D2000DE51E659666FDFC067F0E0C068F038EC1E
:105D30008EF0DB516525E16FDC516621E26F3EC0DC
:105D4000A5F03FC0A6F0E1C0A7F0E2C0A8F0EBECE0
:105D500043F0A5C0E3F0A6C0E4F04D0E716F020E53
:105D6000726F3CC073F03DC074F0E5C075F0E6C0E2
:105D700076F0E3C077F0E4C078F0000E7A6F796FC8
:105D800092C17BF093C17CF080EC48F0E54BE62BB0
:105D90003C50E55DE651800ADB6F3D50800ADB59DF
:105DA000B2E3E56BE66B2AD03EC0A7F03FC0A8F097
:105DB000D890E535D96EE635DA6E4D0ED926020E4D
:105DC000DA22DECFA9F0DDCFAAF0BFEC40F0D89008
:105DD000E535D96EE635DA6E450ED926020EDA22A1
:105DE000DECFDBF0DDCFDCF0DBC0D9FFDCC0DAFFDB
:105DF000A7C0DEFFA8C0DDFFE54BE62B3C50E55D0C
:105E0000E651800ADB6F3D50800ADB59CDE3D7C0F5
:105E1000CFF0D8C0D0F0D9C0D1F0DAC0D2F0A8EC21
:105E20007EF0010C9E519A5D9F519B59A0519C5947
:105E3000A1519D590AE3000E836F1E0E9ED80F0ECE
:105E4000866F230E876F63EC8DF0A2C0D9FFA3C0CD
:105E5000DAFFDE50DE10DE100BE1000E0001836F72
:105E60001F0E8BD8A70E866F220E876F63EC8DF006
:105E7000000120EE03F087D80AE1000E836F200EA8
:105E80007CD8F60E866F220E876F63EC8DF00001D2
:105E900020EE06F078D80AE1000E836F210E6DD84F
:105EA000C20E866F220E876F63EC8DF0000120EE2C
:105EB00009F069D80AE1000E836F220E5ED86F0EDA
:105EC000866F220E876F63EC8DF09AC07FF39BC0C4
:105ED00080F39CC081F39DC082F3940E0301836F15
:105EE0003C0E846F000E856F9EC07DF09FC07EF0DB
:105EF000A0C07FF0A1C080F09AC081F09BC082F06A
:105F00009CC083F09DC084F0B8EC68F07DC004F2C2
:105F10007EC005F27FC006F280C007F2A2C07AF10F
:105F2000A3C07BF10101786B796B0201006B016BFF
:105F3000026B036B000E0101C225366E020EC321F7
:105F4000376E000E0001936F0B0E946F966BFA0E76
:105F5000956F010120EE09F07A51D9267B51DA22A2
:105F6000DECF97F0DECF98F0DDCF99F056EC80F0E1
:105F70007F0E9A6F030E9B6F1200826F3F0E846F2D
:105F8000230E856F1200A251D926A351DA22DE50CA
:105F9000DE10DE101200730E7C6F8BD0250E81197F
:105FA00004E0815119EC98F084D07A6B27D07C51B1
:105FB000D96EDA6ADECF7DF0DDCF7EF0020E7C276F
:105FC0007D517E1111E1A00E7D6F230E7E6F0CD0EE
:105FD0008CD8F76403D00800F55001D080D819ECB4
:105FE00098F000017D4B7E2B80D8F76403D0080029
:105FF000F55001D074D800095CE0EAD77ED866D8A5
:10600000D8B41200640A05E00D0A03E01A0ACFE0D2
:1060100050D07C51D96EDA6ADECF7FF0DDCF80F0D0
:10602000020E7C2780AF06D0030E7A137F6D801F8F
:10603000D8B0802B010E816F815141D8F1EC58F01E
:106040000900F5507F5D0900F550805904E3812B6C
:10605000050E8119F1E17AC079F0030E791703E09A
:106060002D0E19EC98F081C07BF01FD07B5127D802
:10607000F1EC58F00900F5CF67F00A00F5CF68F0B1
:106080007FC065F080C066F017EC7FF065C06CF0F3
:1060900066C06DF06F6B0A0E6E6F58EC84F06C5139
:1060A000300F816F815119EC98F000017B077B293B
:1060B000DDE123D800010AD801E070D71200020DFB
:1060C000F50EF324F66E200EF4201200714B722BA5
:1060D000000EF86E0800F5CF81F081511200F6CF66
:1060E000E9FFF7CFEAFFEF5012007DC0F6FF7EC058
:1060F000F7FF000EF86E0F0E120071C0F6FF72C0AF
:10610000F7FF120012EC8FF097929794010E8EA277
:10611000000EFF0A0301F46FF4478E50F419FD0BD3
:10612000F4198E6E010E8EA2000EFF0AF46FF44772
:106130008E50F419FD0BF4198E6E010E8EA4000E14
:10614000FF0AF46FF447F4478E50F419FB0BF4196F
:106150008E6E010E8EA4000EFF0AF46FF447F44712
:106160008E50F419FB0BF4198E6E77EC82F0F28EE0
:10617000F28C66EC7CF01BEC8CF0D0B62FD0010ECC
:106180008EA2000EFF0A0301F46FF4478E50F4193B
:10619000FD0BF4198E6E010E8EA2000EFF0AF46F35
:1061A000F4478E50F419FD0BF4198E6EB90E0001F0
:1061B0007A6F230E7B6F010E7C6F7D6B7E6B2CECF8
:1061C00094F0C60E7A6F230E7B6F010E7C6F7D6B91
:1061D0007E6F2CEC94F06EEC6DF0FFD7D0BA31D01E
:1061E000010E8EA4000EFF0A0301F46FF447F4477A
:1061F0008E50F419FB0BF4198E6E010E8EA4000E56
:10620000FF0AF46FF447F4478E50F419FB0BF419AE
:106210008E6EB90E00017A6F230E7B6F010E7C6FBC
:106220007D6B7E6B2CEC94F0CB0E7A6F230E7B6F24
:10623000010E7C6F7D6B7E6F2CEC94F06EEC6DF03C
:10624000FFD79BEC97F064EC70F0B0EC15F018EC15
:1062500098F0090E0001DE6F3D0EDF6FE06BE16B21
:106260002BEC1DF0D1800AEC96F02DEF10F066516A
:10627000D96EDA6ADECF76F0DDCF77F066510FECBB
:1062800042F0DECF6BF0DDCF6CF020EE05F095D85C
:10629000676F6705706F060E706501D0010C20EE08
:1062A00006F08BD8716F060E716501D0010C70512C
:1062B0007F0D74D86B25696F68516C216A6F020E6F
:1062C00069256E6F000E6A216F6F070E6E25736F62
:1062D000000E6F21746F20EE05F06E51D9266F51BC
:1062E000DA2271C0DFFF070E756F6D6B3CD0726BE9
:1062F0004ED8DF50786F752B060E786501D0010CF3
:1063000039D8692960D878C0DFFF7851140D46D894
:106310007325D96E68517421DA6E70C0DFFF09D021
:1063200036D828D872516927000E6A23030E3CD84C
:10633000722B2DD8DF5003E00E0E7265F1D70F0ED1
:10634000726501D0010C16D8020E69253CD872C0C6
:10635000DFFF752B1CD80ED8120E26D818D80AD8F5
:10636000130E22D86D2B71516D5DC1E3080E44EC04
:1063700097F0000C7851140DF3CF67F0F4CF68F06C
:1063800067517325696F685174216A6F12007551E6
:106390007625D96E000E7721DA6E1200F3CF67F002
:1063A000F4CF68F0675112006925E16E000E6A2192
:1063B000E26EDFCFE7FF752B12007651D9267751B9
:1063C000DA22DF501200D96E000E6A21DA6E120056
:1063D000705119EC2AF0030EDF6E7051D96EDA6A33
:1063E000DECF71F0DDCF72F071C0D9FF72C0DAFF7D
:1063F0001B0EDF6E705119EC2AF078D8510EDF6E4B
:10640000705119EC2AF0DF2A705119EC2AF06ED87D
:10641000DF6A705119EC2AF0DF2A705119EC2AF06A
:1064200065D8DF68705119EC2AF07AD870C06BF02B
:1064300073EC2AF0686B6BEC2AF003E008D001D013
:1064400006D0682B050E6865F6D701D0F4D76F6BC0
:106450004CEC2AF042EC2AF05BEC2AF06F2B050E94
:106460006F65F6D701D0F4D76B5119EC2AF01EEC0A
:106470002AF019EC2AF032EC2AF048EC2AF019EC58
:106480002AF0DF2A6B5119EC2AF032EC2AF067EC83
:106490002AF019EC2AF0DF2A705119EC2AF026D8DC
:1064A000010EDF6E705119EC2AF0DF2A705119ECE1
:1064B0002AF01CD8640EDF6E705119EC2AF0DF2A26
:1064C000705124D8BAEC3CF0E76A705124D8BAEC89
:1064D0003CF0705119EC2AF0DF50FD0FE76E70515F
:1064E00019EC2AF0640EDF60010C000CDF50716FB4
:1064F0007051D96EDA6ADECF72F0DDCF73F0715170
:106500007225D96E000E7321DA6E1200D96EDA6A26
:1065100010EE01F01200D96EDA6A10EE02F01200ED
:10652000DF2AC4C169F0C5C16AF0120020EE38F05C
:1065300097D8DFAE16D020EE39F092D8DFB211D066
:1065400077D8D85D9CD8D95990D8DA5993D8DB59E7
:106550007BD891C0D4F192C0D5F193C0D6F194C04C
:10656000D7F120EE39F07CD8DFA216D020EE38F03B
:1065700077D8DFBE11D05CD8D45D81D8D55975D815
:10658000D65978D8D75960D891C0D8F192C0D9F1EE
:1065900093C0DAF194C0DBF155500101D85D5A6F18
:1065A0005650D9595B6F5750DA595C6F5850DB59C8
:1065B0005D6F5AC17DF05BC17EF05CC17FF05DC153
:1065C00080F02C0E0001816F010E77EC43F0ACECF3
:1065D0004CF07DC05AF17EC05BF17FC05CF180C0A1
:1065E0005DF155500101D45D566F5650D559576F26
:1065F0005750D659586F5850D759596F56C17DF0DA
:1066000057C17EF058C17FF059C180F0D40E00010F
:10661000816FFE0E826F83698469ACEC4CF07DC0A3
:1066200056F17EC057F17FC058F180C059F1120079
:10663000D89055348D6F56348E6F57348F6F5834D1
:10664000906F8D51010112000001946F911F921FF4
:10665000931F941F912B000E922393239423000CDD
:106660008B51D9268C51DA2212000001926F8F5182
:10667000010112000001936F90510101120000010D
:10668000916F8E510101120085D883EC7EF067C0B6
:106690009EF068C09FF000019E519F1104E17AD8DE
:1066A000886F020E50D0982966D8F3EC52F07FC064
:1066B0009AF080C09BF0040E98255DD8F3EC52F060
:1066C0007FC09CF080C09DF09AC06DF09BC06EF0C2
:1066D0009CC06FF09DC070F09EC071F09FC072F0C2
:1066E000746B70D82AE201D028D063D86C6B0CECA4
:1066F0002BF009E301D007D01BEC2BF004E301D011
:1067000002D0010E6C6F6C51000917E001D015D05A
:1067100047D86C6B0CEC2BF009E301D007D01BECD5
:106720002BF004E301D002D0010E6C6F6C51000914
:1067300004E001D002D0010E746F7451000905E12C
:1067400029D8886F030E896F13D020EE27F043D825
:106750009AC0DEFF9BC0DDFF20EE29F03CD89CC034
:10676000DEFF9DC0DDFFE5EC90F014D844EC2BF08B
:106770004B0EBCEF88F07F6F000E9921806F20EEEA
:106780001FF09E51D9269F51DA22DECF81F0DDCF56
:1067900082F0120098C0D9FF99C0DAFFDF501200D2
:1067A0006FC065F070C066F071C067F072C068F0CD
:1067B00012006DC065F06EC066F071C067F072C007
:1067C00068F012006F516D5D6E51800A736F7051E9
:1067D000800A735912009E51D9269F51DA22120065
:1067E000A1D8DE6ADD6A6CC065F06DC066F07B0E14
:1067F000676F18EC78F065C080F066C081F080C0EB
:1068000065F081C066F06CC067F06DC068F07DD83F
:1068100065C079F066C07AF07951705D7A5171592E
:1068200001E21200030E746F756B8051745F815129
:10683000755B7DD87451DE267551DD2273D8DFCFAC
:1068400074F0DE2ADFCF75F0000EDD2270D8DECFC7
:1068500076F0DDCF77F074517625D96E75517721BA
:10686000DA6EAA0EDF6E7E6B7F6B21D07E517B0FBE
:10687000D96EDA6A72C0E1FF73C0E2FFE7CF74F04D
:10688000E62AE7CF75F0000EE5226EC0E1FF6FC08B
:10689000E2FFE6CF76F0E5CF77F074517625E16E32
:1068A00075517721E26EDFCFE7FF7E4B7F2B805162
:1068B0007E5D81517F59DAE335D86C51DE266D510A
:1068C000DD2235D8DECF65F0DDCF66F02BD8DECF08
:1068D00067F0DDCF68F088EC8BF0746F23D8DECFE3
:1068E00075F0DDCF76F023D8DECF77F0DDCF78F00E
:1068F00075517725D96E76517821DA6E74C0DFFF35
:1069000011D8DE2A000EDD22000C67516525696F63
:10691000685166216A6F020E6925656F000E6A2153
:10692000666F120072C0D9FF73C0DAFF12006EC02A
:10693000D9FF6FC0DAFF120023EC7AF0B0C0DDF0AF
:10694000B1C0DEF0D89001019035D96E9135DA6E84
:106950004D0ED926020EDA22DECFDBF0DDCFDCF0E1
:106960000001D551DB25DF6FD651DC21E06F4D0EE4
:10697000716F020E726F3CC073F03DC074F090C135
:1069800075F091C176F0DFC077F0E0C078F0DDC03F
:1069900079F0DEC07AF092C17BF093C17CF080EC9C
:1069A00048F0E16FE1512CE13EC0A7F03FC0A8F0F4
:1069B000D89001019035D96E9135DA6E4D0ED926F9
:1069C000020EDA22DECFA9F0DDCFAAF0BFEC40F054
:1069D000D89001019035D96E9135DA6E450ED926E1
:1069E000020EDA22DECFDBF0DDCFDCF0DBC0D9FF38
:1069F000DCC0DAFF0001A7C0DEFFA8C0DDFF36D093
:106A0000E26BE36B2AD03EC0A7F03FC0A8F0D8905D
:106A1000E235D96EE335DA6E4D0ED926020EDA2252
:106A2000DECFA9F0DDCFAAF0BFEC40F0D890E23580
:106A3000D96EE335DA6E450ED926020EDA22DECFA4
:106A4000DBF0DDCFDCF0DBC0D9FFDCC0DAFFA7C0B4
:106A5000DEFFA8C0DDFFE24BE32B3C50E25DE351DB
:106A6000800ADB6F3D50800ADB59CDE3B8EC8EF035
:106A7000D7C0CFF0D8C0D0F0D9C0D1F0DAC0D2F0B2
:106A8000A8EF7EF0010E7CEC83F0BAEC92F00009E6
:106A900002E06EEF6DF087EC97F0000904E00EEC79
:106AA00060F06EEF6DF00001CB6BCC6B76D0D890C0
:106AB000CB35D96ECC358EEC75F0DECFCDF0DDCF99
:106AC000CEF0000120EE33F076D8DECFC9F0DDCF76
:106AD000CAF0C9C0D9FFCAC0DAFFDF509BEC7BF017
:106AE000CDC065F0CEC066F06CEC8FF0000943E0DD
:106AF000CDC067F0CEC068F0C7EC8BF0000907E0AE
:106B0000CDC084F0CEC085F00AEC4DF043D000013A
:106B100020EE3CF050D8DFA212D020EE3BF04BD854
:106B2000DFB60DD00101CB5135E1CDC0B9F0CEC0FB
:106B3000BAF0EAEC91F044D804EC81F02BD0CDC04F
:106B400067F0CEC068F027EC93F0000907E0CDC0F5
:106B500084F0CEC085F08AEC55F01CD0000120EE08
:106B60003BF029D8DFA2E1D7CDC0BBF0CEC0BCF04E
:106B7000CBEC7AF00FD0CDC065F0CEC066F05AEC09
:106B80008FF0000904E11CD804EC81F003D001016E
:106B9000CB51B6E10001CB4BCC2B0101BC51000124
:106BA000CB5DCC51800AC96F95EC75F0C95901E2F3
:106BB0007ED76EEF6DF0CD51D926CE51DA2212007C
:106BC000CDC0BBF0CEC0BCF0120020EE33F072D8C6
:106BD00010EE09F0BAEC3CF0E650E610E61044E0A6
:106BE00020EE0BF067D872D865D887D876D85ED8F3
:106BF000BAEC3CF0E7509F6FA06B20EE33F05AD810
:106C000010EE09F0BAEC3CF001D80AD00500FA6E9B
:106C1000E650FD6EE650FE6EE650FF6EFA50120032
:106C200020EE0DF047D864D820EE0BF043D84ED8B4
:106C300041D863D8A06B020E9F6F20EE33F03AD894
:106C400010EE09F0BAEC3CF001D80AD00500FA6E5B
:106C5000E650FD6EE650FE6EE650FF6EFA501200F2
:106C600020EE0FF027D844D020EE0BF023D827D801
:106C700021D848D832D81AD8BAEC3CF0E7507D6F0A
:106C80007E6B7EEC5FF020EE0DF014D82CD820EE59
:106C90000BF010D814D80ED835D87E6B020E7D6F4D
:106CA0007EEC5FF020EE0FF005D81DD0DA2210EE5A
:106CB00003F01200A351D926A451DA221200DECF2C
:106CC00079F0DDCF7AF020EE1FF01200DECF9BF0DE
:106CD000DDCF9CF020EE1FF0120020EE36F0A35125
:106CE000D926A451120079C0DEFF7AC0DDFF120060
:106CF0009BC0DEFF9CC0DDFF1200DECF9DF0DDCF2C
:106D00009EF01200DECF7BF0DDCF7CF012000001A0
:106D1000D751070ED8A4090E3A24DC6F000E3B2091
:106D2000DD6FDCC0F6FFDDC0F7FF000EF86E090076
:106D3000F5CFDFF00A00F5CFE0F08EC165F08FC12E
:106D400066F03AC0F6FF3BC0F7FF01D80DD0050052
:106D5000FA6E0900F550FD6E0900F550FE6E09004F
:106D6000F550FF6EFA50120065C0E1F066C0E2F027
:106D7000E1C0D9FFE2C0DAFFDECFDCF0DDCFDDF02D
:106D8000D5C065F0D6C066F0DFC067F0E0C068F03F
:106D900038EC8EF0DC516525E36FDD516621E46F40
:106DA000030E3A24DC6F000E3B20DD6FDCC0F6FFE3
:106DB000DDC0F7FF000EF86E0900F550E35DE45109
:106DC000800ADE6F0900F550800ADE5902E2030EE8
:106DD00018D0050E3A24DC6F000E3B20DD6FDCC0BE
:106DE000F6FFDDC0F7FF000EF86EE3510900F55C19
:106DF0000900F550800ADE6FE451800ADE5912E284
:106E0000050E3A24DC6F000E3B20DD6FDCC0F6FF80
:106E1000DDC0F7FF000EF86E0900F5CFE3F00A00C1
:106E2000F5CFE4F0E1C0D9FFE2C0DAFFE3C0DEFF56
:106E3000E4C0DDFFD8C0CFF0D9C0D0F0DAC0D1F0C7
:106E4000DBC0D2F0A8EF7EF0246A256A266A24C04F
:106E500001F025C002F02A0E2624D96EDA6A010E4E
:106E6000DA22DF50036EBFEC80F001C024F002C0D4
:106E700025F0262A0D0E2664EAD7245025107BE142
:106E80002BC127F02EC12BF127C02EF12CC127F0EA
:106E90002DC12CF127C02DF12BC101F02CC102F026
:106EA0002DC103F02EC104F0EDEC7BF001C02BF1FD
:106EB00002C02CF103C02DF104C02EF1056A066A50
:106EC000C80E076E420E086E2BC101F02CC102F0F5
:106ED0002DC103F02EC104F004EC17F001C01AF02C
:106EE00002C01BF003C01CF004C01DF037EC5AF0C8
:106EF0001AC076F11BC077F130C127F033C130F1F1
:106F000027C033F131C127F032C131F127C032F14E
:106F100030C101F031C102F032C103F033C104F0DD
:106F2000EDEC7BF001C030F102C031F103C032F171
:106F300004C033F1056A066AC80E076E420E086E79
:106F400030C101F031C102F032C103F033C104F0AD
:106F500004EC17F001C01AF002C01BF003C01CF0D3
:106F600004C01DF037EC5AF01AC074F11BC075F163
:106F70000101A36B04D0010E0101A36F000000000A
:106F800012000001686F5FD0260E656F300E666FCD
:106F9000010E676F1200C40E656FE60E666F000E7D
:106FA000676F1200EE0E656F290E666F010E676F38
:106FB00012003C0E656F250E666F010E676F1200A2
:106FC0005A0E656F0A0E666F010E676F1200760E1D
:106FD000656F120E666F010E676F1200080E656F07
:106FE0000E0E666F010E676F1200640E656FE60E7F
:106FF000666F000E676F1200280E656F040E666FD5
:10700000010E676F1200680E656F270E666F010E26
:10701000676F1200340E656F260E666F010E676F84
:107020001200D00E656F0D0E666F010E676F1200B5
:10703000700E656FAA0E666F000E676F1200656BAB
:10704000666B676B1200000168519EE0010AA3E0C5
:10705000030A9AE0010AA6E0070AA4E0140A94E0F1
:10706000080A92E0380A90E0610A9CE0030A9AE07C
:10707000010A9FE0070AA4E0010AA9E0030AAEE0C2
:10708000010AB3E00E0AB8E0030AB6E0010AADE077
:107090001A0ACEE0310AC5E0010A92E0100AC1E006
:1070A000F10A80E0030AAFE0070AADE0140AB9E094
:1070B000010AB7E0030AAEE0C2D768C065F069C054
:1070C00066F008EC92F06E6F736B0101C1A50BD0F6
:1070D000000120EE3BF06851D9266951DA22DFA683
:1070E00002D0010E736F73C06FF068C065F069C0A5
:1070F00066F0F9EC91F0706F6FD8DFB0010E716F30
:107100006BD8DFB2010E726F746B756B44D0D89080
:107110007435D96E75358EEC75F0DECF76F0DDCF37
:1071200077F076C065F077C066F05AEC8FF0000912
:1071300030E06F5112E03BD8DFA80FD06A517419CC
:107140000BE16B51751908E120EE3CF07651D92620
:107150007751DA22DF8001D037D868C065F069C086
:1071600066F05AEC8FF0000914E06E5103E01FD86E
:10717000DFB02AD8705103E01AD8DFB225D8715198
:1071800003E015D8DFB420D8725103E010D8DFB681
:107190001BD8744B752B0101BC510001745D7551F6
:1071A000800A6C6F95EC75F06C59B1E312006A516E
:1071B00076256C6F6B5177216D6F500E6C25D96EF3
:1071C000000E6D21DA6E120020EE3CF07651D926C9
:1071D0007751DA22DF82120020EE38F06851D9268A
:1071E0006951DA22000C270E7DD8B2C0D9FFB3C096
:1071F000DAFF7ED8250EB025B66F6ED864D8BD6B89
:10720000030EBC6F20EE22F07ED8DF5015E0BD6B80
:10721000040EBC6F20EE3AF076D8020EDE1802E1C2
:10722000230E06D0230EB025B66F56D84CD8250EA7
:1072300059D820EE04F047D8290E54D8BCC0B8F075
:10724000BDC0B9F0D890B837B937B851B225BA6FC8
:10725000B951B321BB6FFE0EBA25D96EFF0EBB210B
:10726000DA6E46D8BE6BBF6B20D0B0C0A5F0B1C0FF
:10727000A6F043D8B251D926B351DA22DECFB6F008
:10728000DDCFB7F0B6C0D9FFB7C0DAFF39EC40F0B8
:10729000EBEC43F032D8B451D926B551DA22A5C06F
:1072A000DEFFA6C0DDFFBE4BBF2BBC51BE5DBF5194
:1072B000800AB66FBD51800AB659D7E3BCC0B0F0A2
:1072C000BDC0B1F01200B251D926B351DA22B6C016
:1072D000DEFFB7C0DDFF1200000EB121B76F20EE58
:1072E00002F01200B025B66F000EB121B76F120088
:1072F000B6C0DEFFB7C0DDFF1200D890BE35D96E34
:10730000BF35DA6E1200B051D926B151DA2212001F
:10731000726B706B7FD8D96E6A516821DA6E7251C8
:107320006525E16E000E6621E26EE7506B6FD89026
:107330006B37D8906B37D8906B35DF6E6BD86B6F2F
:107340006A5168216C6F6B2959D86D6F050E6E6F8D
:10735000D8906D336E2FFCD76D51DF6E722B702B72
:10736000030E7065D7D76F6B5ED86F513BD8100E88
:107370006B25E16E000E6C21E26EDFCFE7FF722B12
:107380006F2B030E6F65F0D7716B71512BD8080E00
:107390006B2534D80F0BDF6E46D8DF50696F693B21
:1073A0000F0E691769A10AD071511CD8080E6B2500
:1073B000D96E000E6C21DA6E000EDB8E715112D880
:1073C000090E6B251BD86D6F050E6E6FD8906D334F
:1073D0006E2FFCD76D51DF6E722B712B030E716512
:1073E000D4D7030C696F6A6BD89069376A376951D3
:1073F00067256B6F6A5168216C6F1200D96E000EA1
:107400006C21DA6E72516525E16E000E6621E26E26
:10741000E75012007051020DF3CF69F0F4CF6AF01B
:1074200069516725120072516525D96E000E6621DB
:10743000DA6E1200E5C0D9FFE6C0DAFFDECFE7F072
:10744000DDCFE8F00001666B100E656FE7C067F0F6
:10745000E8C068F06551671906E16651681901E0F6
:1074600002D0010E01D0000E00090CE022EE9CF0CB
:107470000500FA6EDE50FD6EDE50FE6EDE50FF6ED1
:10748000FA501200666B200E656FE7C067F0E8C027
:1074900068F06551671906E16651681901E002D08C
:1074A000010E01D0000E00090CE022EEA5F005004F
:1074B000FA6EDE50FD6EDE50FE6EDE50FF6EFA504C
:1074C0001200666B400E656FE7C067F0E8C068F0B9
:1074D0006551671906E16651681901E002D0010E95
:1074E00001D0000E00090CE022EEAEF00500FA6EAD
:1074F000DE50FD6EDE50FE6EDE50FF6EFA50120062
:10750000010E666F656BE7C067F0E8C068F0655113
:10751000671906E16651681901E002D0010E01D039
:10752000000E0009D8B41200E1C0DDF0E2C0DEF0C8
:10753000E3C0DFF0E4C0E0F022EE96F00500FA6E62
:10754000DE50FD6EDE50FE6EDE50FF6EFA50120011
:10755000DCEC96F065C0C0F066C0C1F05CEC94F065
:1075600065C0C3F066C0C4F050EC94F065C0C5F0CF
:1075700066C0C6F00001BE6B0101B15108E0C3C096
:1075800065F0C4C066F044EC92F0000903E0010E1F
:107590000001BE6FBF6B0101B05108E0C5C065F0CE
:1075A000C6C066F044EC92F0000903E0010E000151
:1075B000BF6F010E0101B16FB06FC3C065F0C4C0F1
:1075C00066F05AEC8CF0C5C065F0C6C066F05AECA7
:1075D0008CF0C0C065F0C1C066F044EC92F00009C8
:1075E000010ED8A4000EBD6FC3C0B1F0C4C0B2F08C
:1075F000B9C0B3F0BAC0B4F0BDC0B5F020EE19F018
:10760000C051D926C151DA22DECFB6F0DDCFB7F0B6
:10761000BEC0B8F012EC7EF0C5C0B1F0C6C0B2F08A
:10762000BBC0B3F0BCC0B4F0010EB56FBBC0B6F0C8
:10763000BCC0B7F0BFC0B8F012EC7EF011D8C26F7A
:10764000C3C069F0C4C06AF0C2C06BF093EC54F0E0
:10765000C5C069F0C6C06AF0C2C06BF093EF54F0C9
:107660000101000EC1B1010E000112000101C9A10A
:10767000120000016E6B010E34EC96F06E6B020E80
:1076800034EC96F0000E6E6B34EC96F0090E7A6FC7
:10769000240E7B6FCDEC3EF02CEC94F0950E656FD4
:1076A000C7C169F0C8C16AF062D80C0E686F64D8AF
:1076B000682FFDD70F0E66174CD80800F5CFDFFFF7
:1076C0006A510F0B666F45D8D92A0800F5CFDFFF46
:1076D0004ED8040E686F50D8682FFDD70F0E66176E
:1076E000676BE40E6625F66E200E6721F1EC58F00C
:1076F000655119EC2AF00800F5CFDFFF0F0E691570
:10770000666F27D8030ED9260800F5CFDFFF0101E9
:10771000C9B106D0E10E0001996F230E9A6F04D013
:10772000950E0001996F9A6B99C07AF09AC07BF020
:10773000C8EC3EF02CEC94F06EEC6DF00201816B25
:10774000826B030E0001656F65C080F2010E58EF79
:1077500097F0676BE40E6625F66E200E6721F76ED4
:10776000F86A000EF8226551D96EDA6A120069C013
:1077700066F06AC067F01200D89067336633120073
:10778000776F000177511CE072AF1AD06FC073F0B1
:1077900070C074F071C075F072C076F0731F741F02
:1077A000751F761F732B000E74237523762373C009
:1077B00079F074C07AF075C07BF076C07CF008D0A8
:1077C0006FC079F070C07AF071C07BF072C07CF04D
:1077D0006F5170117111721105E16F6B706B716BEC
:1077E000726B1200960E786F02D0782B44D8736BB0
:1077F000746B756BFE0E7C1544D808E0F6D7782BB9
:10780000792B000E7A237B237C2335D8736B746B22
:10781000756B7C5136D807E0F2D77807D890793766
:107820007A377B377C377BBF03D0020E7861F5D780
:1078300078A17B9FD890783378C073F0746B756BA8
:10784000766B73C076F0756B746B736B73517913D1
:1078500074517A1375517B1376517C13775102E082
:1078600072BF7C8F79C06FF07AC070F07BC071F00E
:107870007CC072F01200D8907C337B337A3379333A
:107880001200766F735174117511761112006651E2
:1078900092EC64F06FD8E750676F67056D6F030E69
:1078A0006D6501D0010C6D517F0DF3CF67F0F4CF02
:1078B00068F066510FEC42F0DECF69F0DDCF6AF080
:1078C000675169256B6F68516A216C6F020E6B25D9
:1078D0006E6F000E6C216F6F6EC0D9FF6FC0DAFF44
:1078E0006DC0DFFF665197EC64F044D820EE01F0E4
:1078F00046D810EE07F03ED820EE04F040D810EE47
:1079000008F038D820EE05F03AD810EE09F032D859
:1079100020EE06F06E51D9266F51DA223AD80FECDC
:1079200042F011EEFEF026D8E72A20EE04F06E5168
:10793000D9266F51DA22DFA0000C66510FEC42F01D
:1079400011EEFEF017D866510FEC42F0DECF67F073
:10795000DDCF68F067C0D9FF68C0DAFF1AD80FEC36
:1079600042F011EEFFF006D8010EE76E020E44EC75
:1079700097F0000CDE50E126DD50E22212006E513D
:10798000D9266F51DA22E7CFDFFF6651D96EDA6A66
:107990001200E7CFDFFF665112000001A86FA85167
:1079A0007F0D7BD80101C2250001A36FA251010107
:1079B000C3210001A46F020EA325A96F000EA4210C
:1079C000AA6F300EAD6FAE0EAB6FAC6BABC0D9FF14
:1079D000ACC0DAFFA8C0DFFF20EE01F059D810EEEE
:1079E00001F04FD820EE02F053D810EE02F049D843
:1079F00020EE03F04DD810EE03F043D820EE04F053
:107A0000AB51D926AC51DA22C2C1E1FFC3C1E2FFBA
:107A1000E750A16FFF0EA125A26FA36BFF0EA3235A
:107A2000A851A46FA56BA251A45DA551800AA66FB1
:107A3000A351800AA659010ED8A0000EDF6EAD0E2C
:107A4000EDEC1CF0D2EC5AF0A76B14D0A751140D3A
:107A500024D8A925A36FA251AA21A46F080EA3259B
:107A6000D96E000EA421DA6EDF50886FA851DFECCA
:107A700046F0A72B20EE05F00BD8DE50A75DE6E31D
:107A80001200AB51E126AC51E222DFCFE7FF12003A
:107A9000A951D926AA51DA221200F3CFA1F0F4CFCE
:107AA000A2F0A151120098C074F099C075F09AC06C
:107AB00076F09BC077F058EC87F09AC065F09BC0D9
:107AC00066F03AC0F6FF3BC0F7FF000EF86E01D833
:107AD0000DD00500FA6E0900F550FD6E0900F55055
