:102000002DEF10F0FFFFFFFF0182D6EF43F0FFFF3F
:10201000FFFFFFFFFFFFFFFF0180D8CF60F0E8CF99
:1020200061F0E0CF62F0D9CF63F0DACF64F09DB811
:102030009EA802D0F3EC88F0A3B8A4A802D061EC6B
:1020400087F064C0DAFF63C0D9FF62C0E0FF61C0FF
:10205000E8FF60C0D8FF0190100090EF2EF000283C
:102060002401721E015A1E01FAAA0094C700E2233D
:102070000146DC001A24010C2401FE2301F0230197
:10208000D42301C62301B82301E024013EEB0077ED
:102090007C585E79716F760600003800545C7300DE
:1020A000506D781C0000006E00777C395E79716F8E
:1020B000760600003800373F7300506D783E000010
:1020C000006E00303132333435363738396162636F
:1020D000646566003F065B4F666D7D077F67051090
:1020E0002030406080A0FF6E67C579DD61021A086C
:1020F00022010A00060E0A003C000000182201001E
:1021000000580201000A0058240000000000003AB4
:102110008D00202D006826010021014065000E0879
:102120000164260100000052E000429A00F82401F8
:10213000000000FEE700E28A00042501000000FE26
:10214000E700E28A006C2601000000F42201167FFD
:102150000000000000000000E700C2A9000000002D
:102160000000009AD900F09A00000000000000482A
:102170002601AACB0000000000000044260166A54D
:1021800000AA02019138616C6C506F6442756666FA
:102190006572735B504F445F4255464645525F52ED
:1021A000585D20213D204E554C4C00616C6C506FA9
:1021B00064427566666572735B504F445F42554674
:1021C0004645525F54585D20213D204E554C4C00F1
:1021D0006F75744361706163697479203E20444176
:1021E00054414752414D5F4D494E5F4F564552480D
:1021F00045414400417373657274696F6E20666176
:10220000696C65643A202573202825733A2025736C
:102210003A202564290A00636F6E6669672D3E7354
:1022200061766553657474696E677320213D204E35
:10223000554C4C00636F6E6669672D3E70726F7609
:1022400069646553697A6520213D204E554C4C00E8
:102250007372632F447269766572732F506F647363
:10226000436861696E556172742E6300636F6E66B8
:1022700069672D3E777269746542797465732021B0
:102280003D204E554C4C00636F6E6669672D3E7263
:10229000656164427974657320213D204E554C4C34
:1022A000007372632F506F6473436861696E2F50BF
:1022B0006F6473436861696E2E6300777269746539
:1022C000506572696F64203E207461736B50657253
:1022D000696F6400636F6D6D756E696361746557D6
:1022E000697468506F6473436861696E00696E70E9
:1022F000757453697A65203E3D2076616C7565532F
:10230000697A6500736574506F6473436F6D6D73A4
:1023100041747472696275746573007372632F54CB
:1023200061736B732F526164696F5461736B2E63B9
:10233000007372632F526164696F2F566172496E28
:10234000742E63007372632F526164696F2F526140
:1023500064696F2E630070726F636573735261649A
:10236000696F427974657300706F6473556172743C
:1023700020213D204E554C4C00526164696F5461E0
:10238000736B5F496E697400636861696E20213DFB
:10239000204E554C4C00696E6974506F64734368ED
:1023A00061696E006465636F6465566172496E743D
:1023B00000382E382E382E382E00302E324C4F005A
:1023C000414C2E484900414C2E4C4F0048454C5042
:1023D00000303030300031313131003232323200B1
:1023E0003333333300343434340035353535002D50
:1023F0002D2D2D006572723100657272320065728A
:1024000072330065727234006572725500446174F3
:102410006100636F6E6E0050726F7500504831300E
:1024200000504820340050482037004641494C00B5
:102430004F4F4F4F0050415353004550742D004EA5
:1024400047452E002D41434300436F6E66006E6387
:102450006E6F006275737900636F6E7400372E3192
:102460000046414300644546006F66660043414CA8
:102470000043484100506F6400457272004F464669
:10248000002575006F6E00627200454C004F5200CF
:102490005552006E63004943007264007048002A80
:1024A00043002A460045430000FF01018351841187
:1024B00070E1680E00019C6F230E9D6F500E9E6FA1
:1024C000220E9F6F010EA16F7C0EA06FD40EA26F23
:1024D000220EA36FE5EC84F05CD083C1A1F084C12F
:1024E000A2F0000140DADFA005D001D003D03BDA32
:1024F000DF904FD0A1C06CF0A2C06DF0000E22ECB6
:1025000092F06CC068F06DC069F0000120EECCF074
:102510006C51D9266D51DA22DF50050F6A6F58ECE5
:1025200083F023EC7AF0A1C065F0A2C066F0000150
:1025300020EECCF0A151D926A251DA22DECF67F0ED
:10254000DDCF68F06D6B050E67256B6F000E68219F
:102550006C6F11D06B516525D96E6C516621DA6EA6
:102560006D516525E16E000E6621E26EDFCFE7FF5B
:102570006D2B6B4B6C2BF0D9DF50696F6A6B695117
:102580006B5D6A516C59E6E301D0E4D7E5D96DC0C3
:10259000DFFF83C179F084C17AF033D020EECFF031
:1025A0007951D9267A51DA2201D80AD00500FA6E7B
:1025B000DE50FD6EDE50FE6EDE50FF6EFA501200F1
:1025C0007B6FD8D9DF507C6F7C517925D96E000E96
:1025D0007A21DA6E7BC0DFFFCDD910EE64F079513D
:1025E000E1267A51E222E7507B6F7B29656F666BAB
:1025F000000E6623686B640E676F9DEC6BF065518F
:10260000DF6E79C065F07AC066F0000120EECAF096
:102610006551D9266651DA22DECF67F0DDCF68F04A
:1026200067C0D9FF68C0DAFFDF500009B7E101D009
:10263000B5D779C065F07AC066F016D0696B0CD05A
:102640005CD969516525E16E000E6621E26EDFCF2F
:10265000E7FF53D9DF6A692B5CD9DE50695DF0E38F
:1026600001D0EED756D9DF0665C0D9FF66C0DAFFC4
:102670001B0EDE1807E001D005D04BD9DF50DEE19C
:1026800001D0DCD779C072F07AC073F020EE64F02C
:102690002FD9030EDF6004D001D002D0000EAFD0DE
:1026A00072C0D9FF73C0DAFF1B0EDE1803E0F6D745
:1026B00001D0F4D720EE02F01BD9DF50746F20EE6A
:1026C00001F016D9DF50766F7451756F0AD975C055
:1026D000DEFF76C0DDFF05D9DECF74F0DDCF75F00B
:1026E000060E7425776F000E7521786F20EE64F06A
:1026F000FFD8DF50746F756B7751745D78517559E1
:1027000003E2CCD701D0CAD7ECD8010EDB5005E1EB
:102710005D0EDE5C10E301D00ED038D90001676B8E
:10272000C9EC3BF0672B630E6765FAD701D0F8D789
:10273000D1EC3BF0B3D772C06CF073C06DF0D1D860
:10274000DF50050F6E6F706B716B010E6F6F39D0BC
:10275000700E656F6F516C25D96E000E6D21DA6EAB
:10276000DF50666F6651676F686B67C068F0676BB4
:102770006551D96EDA6A6751DE1A6851DD1A080EA2
:102780006B6FE2D868AF14D001D012D0DDD8D890EA
:1027900067376837210E6719696F100E68196A6FFD
:1027A0006551D96EDA6A69C0DEFF6AC0DDFF03D009
:1027B000655165EC27F06B076B51E3E101D0E1D780
:1027C0006F2B6E516F5DC4E301D0C2D77051711190
:1027D00001E002D0010E01D0000E00090FE101D08E
:1027E0000DD0D4D80001676BC9EC3BF0672B630EAA
:1027F0006765FAD79DD7F8D79BD750D7010E000948
:1028000001E06BD683C165F084C166F089D8DFA290
:1028100013D001D011D020EECEF089D8DFCF67F0F1
:10282000DF2A0F0E676508D001D006D079D8DF9275
:1028300020EECEF07CD8DF6A73D8DFB201D002D0B0
:10284000010E01D0000E00094BE17AEC86F0010187
:102850009C5144E09FEC85F000016C6B16D0000E9B
:102860006C25D96EDA6A070EDA226C5101018325D4
:1028700000016A6F86D86B6F650E6A25E16E000EE7
:102880006B21E26EDFCFE7FF6C2B01019D51000150
:102890006C5DE5E301D0E3D753D8C4EC3BF09DC1B8
:1028A000DFFF650E83250001666F6BD8676F9DC1E2
:1028B00068F042D8C4EC3BF001D80AD00500FA6EAB
:1028C000DE50FD6EDE50FE6EDE50FF6EFA501200DE
:1028D00037D8C4EC3BF0DF6A9C6B010CABEC73F0B7
:1028E000010C20EECCF07251D9267351DA2212007D
:1028F0007251D9267351DA22120069516525676F2A
:10290000000E6621686F6729D96E000E6821DA6EA5
:10291000120020EE64F06551D9266651DA221200C9
:1029200020EED2F06551D9266651DA2212006551A7
:10293000D9266651DA221200010120EED3F01200EE
:10294000010120EEC9F012006551D96EDA6ADECFBE
:1029500067F0DDCF68F0120020EE64F06551D926F3
:102960006651DA22120020EED2F0A151D926A251EE
:10297000DA22120020EE64F07951D9267A51DA2257
:102980001200000E010184210001120072C065F0E6
:1029900073C066F01200826B836B7A51D96EDA6A6B
:1029A000DECFF6FFDDCFF7FF000EF86E0800F55022
:1029B000250A01E09AD17A51D96EDA6ADE2A000E30
:1029C000DD227A51D96EDA6ADECF84F0DDCF85F070
:1029D00084C0F6FF85C0F7FF000EF86E0800F550C2
:1029E000640A0AE084C0F6FF85C0F7FF000EF86EA7
:1029F0000800F550690A72E17BC0D9FF7CC0DAFF9C
:102A0000020EDF26DF5CD96EDA6ADECF86F0DECF1B
:102A100087F084297D6F000E85217E6F7A51D96EF3
:102A2000DA6A7DC0DEFF7EC0DDFF200E8A6F010EF8
:102A300087AF000E816F8A07320E8A25D96EDA6A57
:102A4000050EDA2286C065F087C066F0686B0A0E54
:102A5000676F9DEC6BF065C06BF066C06CF0DEECF0
:102A60008DF06B51300FDF6E86C071F087C072F051
:102A7000746B0A0E736FDDEC62F071C086F072C089
:102A800087F0824B832B8651871102E08A51D3E174
:102A90008A511CE081511AE08A07320E8A25D96ECC
:102AA000DA6A050EDA222D0EDF6E824B832B0ED0F2
:102AB000320E8A25D96EDA6A050EDA22DF50656F8A
:102AC000666B79C067F040EC64F08A2B200E8A199F
:102AD000EFE182C079F083C07AF0120084C0F6FF83
:102AE00085C0F7FF000EF86E0800F550750A60E12A
:102AF0007BC0D9FF7CC0DAFF020EDF26DF5CD96E17
:102B0000DA6ADECF86F0DECF87F084297D6F000E93
:102B100085217E6F7A51D96EDA6A7DC0DEFF7EC074
:102B2000DDFF3CD0200E8A6F8A07320E8A25D96ECF
:102B3000DA6A050EDA2286C065F087C066F0686B37
:102B40000A0E676F47EC7FF06551300FDF6E86C06D
:102B500065F087C066F0686B0A0E676FB5EC79F0B8
:102B600065C086F066C087F0824B832B8651871143
:102B700011E08A510FE0D8D7320E8A25D96EDA6A71
:102B8000050EDA22DF50656F666B79C067F040ECA6
:102B900064F08A2B200E8A199CE0EED784C0F6FFE1
:102BA00085C0F7FF000EF86E0800F550750ABAE010
:102BB000816B7A51D96EDA6ADECFF6FFDDCFF7FF8F
:102BC000000EF86E0800F550730A09E17A51D96ECB
:102BD000DA6ADE2A000EDD22010E816F3CD07A51C6
:102BE000D96EDA6ADECFF6FFDDCFF7FF000EF86EA2
:102BF0000800F5506C0A2FE17A51D96EDA6ADECFFF
:102C00007DF0DDCF7EF07D2B000E7E237DC0F6FFB4
:102C10007EC0F7FF000EF86E0800F5506C0A1BE14D
:102C20007A51D96EDA6ADECF7DF0DDCF7EF0020E0A
:102C30007D27000E7E237DC0F6FF7EC0F7FF000ECD
:102C4000F86E0800F550730A06E17A51D96EDA6A17
:102C5000030EDE26BFD781513FE07BC0D9FF7CC089
:102C6000DAFF020EDF26DF5CD96EDA6ADECF7FF094
:102C7000DECF80F01CD07FC0F6FF80C0F7FF000ED3
:102C8000F86E0F0EF76403D00800F55005D0F6CFAC
:102C9000E9FFF7CFEAFFEF500001656F666B79C07F
:102CA00067F040EC64F0824B832B7F4B802B7FC01E
:102CB000F6FF80C0F7FF000EF86E0F0EF76403D02A
:102CC0000800F55005D0F6CFE9FFF7CFEAFFEF5047
:102CD000000901E1FED6CFD77A51D96EDA6ADE2A31
:102CE000000EDD22796B7A6B12007A51D96EDA6AA6
:102CF000DECFF6FFDDCFF7FF000EF86E0800F550CF
:102D0000656F666B79C067F040EC64F07A51D96EFC
:102D1000DA6ADE2A000EDD227A6B010E796F010C71
:102D2000D2C373F0D3C374F0D4C375F0D5C376F0B7
:102D300038EC80F0000901E0120032EC8AF070C03B
:102D4000D6F371C0D7F327D9DF50030B030A03E191
:102D5000010E0101986F010198050EE11CD9DF50A9
:102D6000030B030A09E017D9DF500201F96F700E57
:102D7000F91702E10101986B0101980501E0DFD02C
:102D80002EEC92F065C0D8F366C0D9F304D9DFA861
:102D900022D0D8C365F0D9C366F0F4D823EC86F00E
:102DA000D8C36BF0D9C36CF0030120EE46F000D914
:102DB00001D80AD00500FA6EDE50FD6EDE50FE6EC0
:102DC000DE50FF6EFA501200010E0001656F000E1A
:102DD00092EC81F01ED0D8C365F0D9C366F0C9D893
:102DE0004FEC86F0D8C36BF0D9C36CF0030120EE32
:102DF00049F0DED801D80AD00500FA6EDE50FD6E2B
:102E0000DE50FE6EDE50FF6EFA501200E0D892ECFB
:102E100081F0A3EC92F065C0DAF366C0DBF3BBD8B7
:102E2000DFAA21D0DAC365F0DBC366F0ABD823ECB0
:102E300086F0DAC36BF0DBC36CF0030120EE46F0E2
:102E4000BCD801D80AD00500FA6EDE50FD6EDE5007
:102E5000FE6EDE50FF6EFA501200010E0001656F2B
:102E600092EC81F020D0DAC365F0DBC366F081D844
:102E70004FEC86F0DAC36BF0DBC36CF0030120EE9D
:102E800049F09BD801D80AD00500FA6EDE50FD6EDD
:102E9000DE50FE6EDE50FF6EFA5012000001656BD0
:102EA000010E92EC81F0A8EC92F065C0DCF366C0F4
:102EB000DDF371D8DFAC22D0DCC365F0DDC366F092
:102EC00061D823EC86F0DCC36BF0DDC36CF003014A
:102ED00020EE46F077D801D80AD00500FA6EDE5011
:102EE000FD6EDE50FE6EDE50FF6EFA501200010ED7
:102EF0000001656F020E92EC81F030D0DCC365F00A
:102F0000DDC366F036D84FEC86F0DCC36BF0DDC372
:102F10006CF0030120EE49F055D801D80AD0050025
:102F2000FA6EDE50FD6EDE50FE6EDE50FF6EFA5021
:102F300012000001656B020E92EC81F00FD0899EA9
:102F4000899C8F968F9043D892EC81F0656B010E2F
:102F500092EC81F0656B020E92EC81F0D2C3DBF152
:102F6000D3C3DCF1D4C3DDF1D5C3DEF119D8E5EF6D
:102F700033F0D2C367F0D3C368F0D4C369F0D5C3CC
:102F80006AF01200D2C367F0D3C368F0D4C369F00B
:102F9000D5C36AF01200D6C3D9FFD7C3DAFF120037
:102FA000010E0101DF6FE06BE16BE26BE36B010C83
:102FB000D851D926D951DA221200DA51D926DB515B
:102FC000DA221200DC51D926DD51DA22120000018A
:102FD000656B000C63C1D9FF64C1DAFF01D80AD068
:102FE0000500FA6EDE50FD6EDE50FE6EDE50FF6EA6
:102FF000FA50120065C0E0F366C0E1F30301E0514E
:10300000E11138E0010161510301E01933E10101EF
:1030100062510301E1192EE1800E0001676F080E75
:10302000686F6A6B800E696F010120EE03F01AD998
:1030300001D80AD00500FA6EDE50FD6EDE50FE6E3D
:10304000DE50FF6EFA50120067C0DEF368C0DFF397
:10305000800E0101DD6F080EDE6FDEC3DFF1DFC31E
:10306000E0F1000EE16F080EE26FE46B800EE36F9B
:1030700085EC37F0E0C361F1E1C362F127C26EF085
:1030800028C26FF029C270F02AC271F00201272B0A
:10309000000E282329232A236EC065F06FC066F036
:1030A00070C067F071C068F02BC269F02CC26AF082
:1030B0002DC26BF02EC26CF069EC6CF0655166119C
:1030C0006711681101E002D0010E01D0000E000965
:1030D0003CE0000E0301E26F080EE36FE20E000118
:1030E000826F030E836F856B800E846FE40E866F94
:1030F000030E876FFCEC89F0E2C366F0E3C367F070
:10310000E4C368F0E5C369F0010120EE06F0AAD837
:1031100001D80AD00500FA6EDE50FD6EDE50FE6E5C
:10312000DE50FF6EFA50120091D8DFA606D001D013
:1031300004D08CD8DF968AD8DF8A0101655104E07B
:1031400001D002D0668101D0669100017FD8DFAA4C
:1031500020D001D01ED020EE02F07FD88ED8DD2204
:10316000DD52DD52030EDB500BE1020EDB5008E1B5
:10317000010EDB5005E10A0EDE5C0BE301D009D045
:1031800065D8DF8863D8DF9A20EE02F066D848EC75
:1031900075F0656B0101655109E001D007D066A1AA
:1031A00005D001D003D0010E0001656F000165510B
:1031B00000094BE001D0010C5AD8040EB8653AD092
:1031C00001D038D0010165A706D001D004D01EEC93
:1031D00093F00101659765A10CD001D00AD0B4B17C
:1031E00001D002D0010E01D0000EEEEC83F00101FF
:1031F000659165A306D001D004D0E4EC90F0010104
:10320000659365A506D001D004D01CEC93F00101B4
:10321000659565A90CD001D00AD0B4B501D002D013
:10322000010E01D0000EA2EC8FF0010165996691AC
:10323000010E66171CD8B82BB83701016651000182
:10324000B819010BB8190101666F010C20EE01F0ED
:10325000F651D926F751DA221200F651D926F75144
:10326000DA2212006351D9266451DA2212000101D8
:1032700066317F0B0001B86F1200DE2A000EDE22DD
:10328000DE22000C1BEC92F065C073F066C074F097
:10329000290E00012BD9696B020E6B6F39EC84F09B
:1032A000270E24D9020E696F6B6F39EC84F0230E60
:1032B0001DD9040E2AD939EC84F0250E17D9060E33
:1032C00024D939EC84F02B0E11D9080E1ED939EC13
:1032D00084F02D0E0BD90A0E18D939EC84F03A0E71
:1032E00005D90C0E16D939EC84F017D90D0E11D969
:1032F00039EC84F002D93DEC60F069EC8FF065C0E8
:1033000073F066C074F0290E0001F0D8100EFDD8DD
:1033100039EC84F0270EEAD8120EF7D839EC84F095
:10332000230EE4D8140EF1D839EC84F0250EDED843
:10333000160EEBD839EC84F02B0ED8D8180EE5D841
:1033400039EC84F02D0ED2D81A0EDFD839EC84F087
:103350003A0ECCD81C0EDDD839EC84F0DED81D0E28
:10336000D8D839EC84F0C9D83DEC60F075EC8FF01A
:1033700065C073F066C074F0290E0001B7D8200E46
:10338000C4D839EC84F0270EB1D8220EBED839EC5F
:1033900084F0230EABD8240EB8D839EC84F0250E77
:1033A000A5D8260EB2D839EC84F02B0E9FD8280E63
:1033B000ACD839EC84F02D0E99D82A0EA6D839EC69
:1033C00084F03A0E93D82C0EA4D839EC84F0A5D80A
:1033D0002D0E9FD839EC84F090D83DEC60F0380E7B
:1033E00085D8440E92D839EC84F0A00E676F010E98
:1033F000686F6A6B300E8DD839EC84F0AB0E676F56
:10340000010E686F6A6B310E84D839EC84F0AC0E13
:10341000676F010E686F6A6B320E7BD839EC84F0EF
:103420000101AC97BB0E0001676F010E686F6A6BFC
:10343000330E78D839EC84F0590E676F686B6A6B7D
:10344000380E70D839EC84F0C30E676F010E686FC8
:103450006A6B3C0E67D839EC84F0BF0E676F010EC3
:10346000686F6A6B400E5ED839EC84F05E0E676F51
:10347000686B6A6B460E4DD839EC84F0C70E676FE7
:10348000010E686F6A6B470E40D839EC84F0CD0EA0
:10349000676F010E686F6A6B490E37D839EC84F09C
:1034A00076EC92F065296E6F000E66216F6F6EC02C
:1034B00067F06FC068F06A6B500E2BD839EC84F05F
:1034C000706B702B0E0E7065FCD7710E676F686B9A
:1034D0006A6B880E1ED839EC84F071B103D00101FB
:1034E000B49102D00101B481000012007325676F0E
:1034F000000E7421686F6A6B120073C065F074C0AF
:1035000066F072C067F0686B1200696F020E6B6F35
:10351000020C696F010E6B6F010C720E676F686BA6
:103520006A6B1200696F040E6B6F040C0550800B00
:103530000E6E05500524146E04BE1480145008E06D
:10354000142804E1026A036A046A056A048E04D03E
:10355000026A036A046A056A0950800B0E1A095050
:1035600009240F6E08BE0F800F5008E00F2804E1F9
:10357000066A076A086A096A088E04D0066A076A3A
:10358000086A096A0F5002E0145005E1026A036AF2
:10359000046A056A120008500202F3CF19F0F4CF52
:1035A0001AF01950106E116A126A136A1A50156EC9
:1035B000166A176A186A07500302F3CF19F0F4CF9E
:1035C0001AF019501026000E1122122213221A503E
:1035D0001526000E16221722182206500402F3CFD9
:1035E00019F0F4CF1AF019501026000E11221222F1
:1035F00013221A501526000E16221722182212C066
:1036000013F011C012F010C011F0106A065003023E
:10361000F3CF19F0F4CF1AF0195010261A501122D6
:10362000000E1222132207500202F3CF19F0F4CF3A
:103630001AF0195010261A501122000E12221322CD
:1036400012C013F011C012F010C011F0106A065031
:103650000202F3CF19F0F4CF1AF0195010261A50C5
:103660001122000E1222132208500302F3CF19F088
:10367000F4CF1AF0195015261A501622000E1722F0
:10368000182207500402F3CF19F0F4CF1AF01950A2
:1036900015261A501622000E17221822085004026E
:1036A000F3CF19F0F4CF1AF019500A6E1A500B6EBE
:1036B0000C6A0D6A080ED8900A360B360C360D3699
:1036C000E82EF9D70A5015260B5016220C50172257
:1036D0000D50182213501526000E162217221822FC
:1036E00012C013F011C012F010C011F0106A0F5088
:1036F00014C00AF00B6A0A26000E0B22820E0A245E
:10370000196EFF0E0B201A6E0FD0D8901536163694
:103710001736183613BE1580D8901036113612366B
:1037200013361906D8A01A0617AEEFD70F6A13AED4
:1037300013D010500A6E11500B6E12500C6E7F0E8B
:1037400013140D6E0A500B100C100D1003E0010E37
:103750000F6E02D015B0FBD70F500EE0152A000EE9
:1037600016221722182218A007D018341832173240
:1037700016321532194A1A2A1ABE0AD01A5002E114
:10378000192806E3156A166A800E176E7F0E15D08B
:103790001ABE04D01A5008E1190406E2156A166A26
:1037A000176A186A0E6A0AD019C014F07F0E17162D
:1037B000186A14B0178ED8901430186E0E50181264
:1037C00015C002F016C003F017C004F018C005F0D1
:1037D0001200880501E028D11BEC92F065C076F05C
:1037E00066C077F0290E000123D96B6B020E6D6F56
:1037F0006AEC76F0270E1CD9020E6B6F6D6F6AECC7
:1038000076F0230E15D9040E1AD96AEC76F0250E3F
:103810000FD9060E14D96AEC76F02B0E09D9080ED2
:103820000ED96AEC76F02D0E03D90A0E08D96AEC8F
:1038300076F03A0EFDD80C0E06D96AEC76F0350E0D
:10384000F7D80D0E00D96AEC76F069EC8FF065C000
:1038500076F066C077F0290E0001EAD8100EEFD896
:103860006AEC76F0270EE4D8120EE9D86AEC76F00E
:10387000230EDED8140EE3D86AEC76F0250ED8D8E5
:10388000160EDDD86AEC76F02B0ED2D8180ED7D8EB
:103890006AEC76F02D0ECCD81A0ED1D86AEC76F000
:1038A0003A0EC6D81C0ECFD86AEC76F0350EC0D8CA
:1038B0001D0EC9D86AEC76F075EC8FF065C076F015
:1038C00066C077F0290E0001B3D8200EB8D86AEC94
:1038D00076F0270EADD8220EB2D86AEC76F0230E21
:1038E000A7D8240EACD86AEC76F0250EA1D8260E07
:1038F000A6D86AEC76F02B0E9BD8280EA0D86AECDE
:1039000076F02D0E95D82A0E9AD86AEC76F03A0EFB
:103910008FD82C0E98D86AEC76F0350E89D82D0EFB
:1039200092D86AEC76F0380E83D8440E88D86AECC8
:1039300076F0A00E696F010E6A6F6C6B300E83D843
:103940006AEC76F0AB0E696F010E6A6F6C6B310E2C
:103950007AD86AEC76F0AC0E696F010E6A6F6C6B08
:10396000320E71D86AEC76F0BB0E696F010E6A6F89
:103970006C6B330E6CD86AEC76F0590E696F6A6B1B
:103980006C6B380E64D86AEC76F0C30E696F010E6A
:103990006A6F6C6B3C0E5BD86AEC76F0BF0E696F99
:1039A000010E6A6F6C6B400E52D86AEC76F05E0EB8
:1039B000696F6A6B6C6B460E46D86AEC76F0C70E80
:1039C000696F010E6A6F6C6B470E39D86AEC76F03E
:1039D000CD0E696F010E6A6F6C6B490E30D86AECC0
:1039E00076F076EC92F06529726F000E6621736FA7
:1039F00072C069F073C06AF06C6B500E24D86AEC28
:103A000076F0756B752B0E0E7565FCD70101010EF6
:103A1000B4A1000E0001746F740E696F6A6B6C6B59
:103A2000880E11D86AEC76F00101886B0000120054
:103A30007625696F000E77216A6F6C6B12006B6FD1
:103A4000020E6D6F020C6B6F010E6D6F010C6B6FD0
:103A5000040E6D6F040C6851800B716F68516825FE
:103A6000736F67BF7381735105E0732901E106D954
:103A7000678F03D0656B666B676B686B6C51800BEF
:103A8000726F711901E0718D6C516C25726F6BBF93
:103A90007281725108E0722904E1696B6A6B6B6B89
:103AA0006C6B6B8F03D0696B6A6B6B6B6C6B735158
:103AB000725D22E271AD02D0800E711B73C074F092
:103AC00072C073F074C072F065C074F069C065F0C4
:103AD00074C069F066C074F06AC066F074C06AF0C1
:103AE00067C074F06BC067F074C06BF068C074F0AE
:103AF0006CC068F074C06CF0746B735172C06DF080
:103B00006E6B6D5F000E6E5B6EBF15D06E5103E184
:103B10001A0E6D5D10E3C7D8010ED8B4000E746F95
:103B2000ADD872C073F00AD074A102D0B7D802D059
:103B3000D89074339AD87251735DF6E371BD15D085
:103B4000735101E1A6D0695165276A5166236B5113
:103B500067236C51682368A153D074A102D09ED80A
:103B600002D0D890743381D84BD06951655D6A51C9
:103B700066596B5167596851800A6D6F6C51800AA4
:103B80006D591FE26551695D6D6F66516A596E6FBF
:103B900067516B596F6F68516C59706FFF0E6D25CF
:103BA000656FFF0E6E21666FFF0E6F21676FFF0E50
:103BB0007021686F800E711B746D74510AE163D8B7
:103BC00008D06951655F6A51665B6B51675B6C51E8
:103BD000685B69D813E1745111E15BD0D890653707
:103BE00066376737683774BF658174A102D0D880A3
:103BF00001D0D8907437735101E0730767AFEED7E7
:103C0000726B74AF0AD074C06DF07F0E6D1703E055
:103C1000010E726F02D065B1FBD772510BE033D841
:103C200068A108D068356833673366336533732914
:103C300001E0732B732902E0735104E11FD8735123
:103C400001E1716B73A102D0678F01D0679FD8909B
:103C50007331686F71BF688F65C065F066C066F0CC
:103C600067C067F068C068F0120065B1748F68358E
:103C70006833673366336533732B1200656B666B8D
:103C8000676B686B1200652B000E66236723682341
:103C9000000C656B666B676B686B1200D8907431B3
:103CA0000109746F120065516611671168111200E5
:103CB0009B6F00019B516BEC79F068C09CF069C070
:103CC0009DF000019C519D11D8B412009CC065F07C
:103CD0009DC066F0A3EC88F00009D8B41200250E50
:103CE0009E6F9F0E916F926B91C0D9FF92C0DAFFC9
:103CF0009BC0DFFF20EE01F09151D9269251DA22CC
:103D000010EE3AF0F1D8E222E7509EEC8AF0DF6E36
:103D10009E0EB2EC41F0CAEC55F020EE22F0BDD878
:103D2000DF501FE1260E9E6F9F0E936F946B93C022
:103D3000D9FF94C0DAFFC8D8B0D810EE01F0935183
:103D4000E1269451A4D820EE1FF0A7D810EE03F07E
:103D50009351E1269451B3D8B2EC41F0CAEC55F03E
:103D60004CD0270E9E6F9F0E976F986B97C0D9FF10
:103D700098C0DAFFA9D891D810EE23F0B5D889EC15
:103D800046F096D8D8A020EE23F087D8DECF8DF06D
:103D9000DDCF8EF020EE01F0ABD88DC0DEFF8EC0FF
:103DA000DDFF20EE1FF079D810EE03F09751E126E9
:103DB0009851E222DFCFE7FF20EE23F06ED810EE1D
:103DC00025F092D889EC46F073D8D8A020EE23F0E5
:103DD00064D8DECF8FF0DDCF90F020EE04F088D8ED
:103DE0008FC0DEFF90C0DDFF20EE1FF056D810EE32
:103DF00006F09751E1269851AED7290E9E6F9F0E7F
:103E0000956F966B6AD820EE2BF047D84BD83FD8E9
:103E10009E0EB2EC41F0CAEC55F02A0E9E6F5DD8B2
:103E200020EE2DF03AD83ED832D89E0EB2EC41F0BA
:103E3000CAEC55F02B0E9E6F9F0E996F9A6B99C02E
:103E4000D9FF9AC0DAFF9BC0DFFF20EE27F025D80C
:103E500010EE01F03ED81BD820EE1FF01ED810EE59
:103E600003F037D8E222DFCFE7FF20EE29F015D8A4
:103E700010EE04F02ED80BD820EE1FF00ED810EE66
:103E800006F027D81CD8B2EC41F0CAEF55F0E22278
:103E9000DECFE6FFDDCFE5FF12009C51D9269D5114
:103EA000DA22120010EE01F09551E126965112002F
:103EB0008C6FDE50800A8C5920EE25F01200E22231
:103EC000DFCFE7FF9E0E12009BC0DFFF20EE25F044
:103ED00012009951E1269A51120095C0D9FF96C05F
:103EE000DAFF9BC0DFFF12009C51E1269D511200BA
:103EF0009751D9269851DA2212001FEC72F007D997
:103F00000FD9D6EC78F0F4D8A1EC62F07DC0D1F1F5
:103F10007EC0D2F17FC0D3F180C0D4F1E2C0D6F030
:103F2000E3C0D7F0E4C0D8F0E5C0D9F0D1C1DAF0F1
:103F3000D2C1DBF0D3C1DCF0D4C1DDF0E40EDE6F22
:103F4000020EDF6FDB0EE06F020EE16FE7EC68F050
:103F5000D6C040F3D7C041F3DAD8320EE8D8D6EC59
:103F600078F0C6D8A1EC62F07DC0D5F17EC0D6F164
:103F70007FC0D7F180C0D8F1CAD8D2D8D6EC78F0BB
:103F8000B7D8A1EC62F07DC0D9F17EC0DAF17FC074
:103F9000DBF180C0DCF1D5C1C2F0D6C1C3F0D7C11E
:103FA000C4F0D8C1C5F0D9C1C6F0DAC1C7F0DBC1D1
:103FB000C8F0DCC1C9F0BE0ECA6F030ECB6FDAECDD
:103FC0002DF0C2C042F3C3C043F3A1D8640EAFD8F2
:103FD000D6EC78F08DD8A1EC62F07DC08AF07EC07E
:103FE0008BF07FC08CF080C08DF037EC87F08AC0FA
:103FF00044F38BC045F38BD8640E99D8D6EC78F097
:1040000077D8A1EC62F07DC0DDF17EC0DEF17FC02B
:10401000DFF180C0E0F1E2C08AF0E3C08BF0E4C0E1
:104020008CF0E5C08DF0DDC18EF0DEC18FF0DFC118
:1040300090F0E0C191F036EC61F08AC046F38BC09D
:1040400047F365D86DD8D6EC78F052D8A1EC62F081
:104050007DC08AF07EC08BF07FC08CF080C08DF078
:104060005AEC85F08AC048F38BC049F350D858D831
:10407000D6EC78F03DD8A1EC62F07DC08AF07EC02D
:104080008BF07FC08CF080C08DF0D9EC82F08AC0BC
:104090004AF38BC04BF33BD83C0E49D8D6EC78F0B2
:1040A00027D8A1EC62F07DC0ABF07EC0ACF07FC041
:1040B000ADF080C0AEF0EDEC7BF0ABC04CF3ACC02B
:1040C0004DF3400E656F030E666F686B070E676FEA
:1040D000E2C069F0E3C06AF0E4C06BF0E5C06CF0E8
:1040E000A60E6D6F120E6E6F010E6F6F39EF86F0B8
:1040F00071C07DF072C07EF073C07FF074C080F03C
:10410000E80E816F030E826F836B846B030CE2C039
:1041100071F0E3C072F0E4C073F0E5C074F0120017
:10412000E80E756F030E766F776B786B030C756F07
:10413000766B776B786B1200866F0001876B070ECA
:1041400086190FE1E3EC80F0FDD83FEC88F0DFEC5E
:1041500080F0F8D83FEC88F0DBEC80F0F3D83FEF4C
:1041600088F0090E8619D8B41200856BA5D081C0DD
:10417000D9FF82C0DAFF7FC0E1FF80C0E2FFDE50DE
:10418000E61801E1B3D08751220F7A6F300E7B6FB2
:104190007FC0D9FF80C0DAFFDF507C6F87511B0FD3
:1041A0003FEC88F0A3D020EE01F0D4D810EE01F05F
:1041B0007F51E1268051E222DE50E61801E196D0DF
:1041C0008751770F7A6F300E7B6F20EE01F0A6D803
:1041D000700F3FEC88F08AD020EE02F0BBD810EED2
:1041E00002F07F51E1268051E222DE50E6187EE0A7
:1041F0008751470FA1D892D8440F3FEC88F0B3D82D
:104200009BD88CD84B0F3FEC88F0A9D895D886D88E
:104210004B0F3FEC88F06AD020EE03F09BD810EEF5
:1042200003F07F51E1268051E222DE50E6185EE085
:104230008751220F7A6F370E7B6F20EE03F06ED816
:104240001B0F3FEC88F052D020EE04F083D810EE24
:1042500004F07F51E1268051E222DE50E61846E06C
:104260008751770F7A6F370E7B6F20EE04F056D8A8
:10427000700F3FEC88F03AD020EE05F06BD810EECE
:1042800005F07F51E1268051E222DE50E6182EE053
:104290008751470F4BD842D8440F3FEC88F063D882
:1042A00045D83CD84B0F3FEC88F059D83FD836D88A
:1042B0004B0F3FEC88F01AD08651836F846B84518A
:1042C00015E1835101E153D7010A01E16CD7030ADB
:1042D00083E0010AA1E0070AB7E0010ACDE0030A82
:1042E00005E0010A03E00F0AD8A4010A0B0E000141
:1042F0008727852B030E8565DFD7060E8661060CA2
:1043000086517F25D96E000E8021DA6E8651812577
:10431000E16E000E8221E26EC1EF50F07F51D9268E
:104320008051DA22DF507C6F875112007A6F370E8E
:104330007B6F20EE05F0370C7A6F300E7B6F20EE2E
:1043400002F0300C7B6F7FC0D9FF80C0DAFFDF50F6
:104350007C6F180C8151D9268251DA22120000019B
:1043600087514E0F1200000187514B0F12007651FA
:10437000800B7F6F76517625816F75BF818181516A
:1043800005E0812901E103D9758F01D000D97A5167
:10439000800B7F1B7A517A25806F79BF8081805195
:1043A00005E0802901E1EED8798F01D0EBD880516A
:1043B00002E0815105E1736B746B756B766B1200D3
:1043C00079517303B2D8826F836B846B856B8B5189
:1043D000866F876B886B896B78517403A6D8B3D8C6
:1043E00077517503A2D8AFD8A6D8775174039DD85A
:1043F000B6D87851730399D8B2D89DD87751730342
:1044000094D8ADD87951740390D8B5D87851750344
:104410008CD8B1D87951750388D87B6F8B517C6F5C
:104420007D6B7E6B080ED8907B377C377D377E376F
:10443000E82EF9D77B5186277C5187237D5188232D
:104440007E5189238551862791D875D8805181C0A6
:104450007BF07C6B7B27000E7C23820E7B258A6F92
:10446000FF0E7C218B6F0FD0D89086378737883727
:10447000893785BF8681D8908237833784378537DF
:104480008A07D8A08B0788AFEFD7806B85AF13D092
:1044900082517B6F83517C6F84517D6F7F0E8515B8
:1044A0007E6F7B517C117D117E1103E0010E806FC8
:1044B00002D086B1FBD780510BE0862B57D889A15B
:1044C00007D0893589338833873386338A4B8B2BE2
:1044D0008BBF0AD08B5102E18A2906E3866B876B7A
:1044E000800E886F7F0E15D08BBF04D08B5108E1F2
:1044F0008A0506E2866B876B886B896B7F6B0AD0B7
:104500008AC081F07F0E8817896B81B1888FD8901F
:104510008131896F7F51891386C073F087C074F031
:1045200088C075F089C076F01200F3CF8AF0F4CF1E
:104530008BF08A51120084C085F083C084F082C061
:1045400083F0826B12008227000E8323842385234D
:104550008B518627000E872388238923000C82270E
:104560008B518323000E84238523000C000E8723A8
:1045700088238923000C86278B518723000E8823EC
:104580008923000C776B786B796B7A6B1200736BF5
:10459000746B756B766B120023C290F024C291F09D
:1045A00025C292F026C293F07DC090F07EC091F0BB
:1045B0007FC092F080C093F090C081F091C082F0F3
:1045C00092C083F093C084F083358435816F826B11
:1045D000836B846B823781518D6F8E6B8EBF0ED053
:1045E0008E5103E1960E8D5D09E37DC07DF07EC0A6
:1045F0007EF07FC07FF080C080F01200010E93AF8C
:10460000000E8F6F8F5112E07DC065F07EC066F0A6
:104610007FC067F080C068F07BEC8CF065C07DF0F7
:1046200066C07EF067C07FF068C080F08EBF05D0A6
:104630008E5108E17E0E8D5D05E27D6B7E6B7F6B9A
:10464000806B1200696B6A6B6B6B4B0E6C6F7DC07D
:1046500065F07EC066F07FC067F080C068F02BEC2C
:104660001DF091D8696B6A6B6B6BCB0E6C6F94D835
:104670002BEC1DF065C085F066C086F067C087F042
:1046800068C088F085C075F086C076F087C077F086
:1046900088C078F07DC079F07EC07AF07FC07BF072
:1046A00080C07CF020EC81F075C098F076C099F065
:1046B00077C09AF078C09BF0896B8A6B8B6B8C6BA0
:1046C000656B666B676B3F0E54D8D1EC5BF003E211
:1046D0006CD8BF0E0AD0656B666B676BBF0E49D88E
:1046E000D1EC5BF003E361D83F0E8C6F7DC069F0C5
:1046F0007EC06AF07FC06BF080C06CF098C065F03F
:1047000099C066F09AC067F09BC068F02BEC1DF072
:104710003AD842D889C069F08AC06AF08BC06BF081
:104720008CC06CF02BEC1DF065C098F066C099F061
:1047300067C09AF068C09BF08F5112E098C065F096
:1047400099C066F09AC067F09BC068F07BEC8CF073
:1047500065C098F066C099F067C09AF068C09BF099
:1047600098C07DF099C07EF09AC07FF09BC080F029
:104770001200686F98C069F099C06AF09AC06BF037
:104780009BC06CF0120065C094F066C095F067C0E5
:1047900096F068C097F0120094C065F095C066F07E
:1047A00096C067F097C068F01200896B8A6B800E24
:1047B0008B6F800C30EC93F0B0EC68F000018E6BE6
:1047C0008F6B906B916B8D6BB10ED5D87E6B45EC7A
:1047D0008FF0B0EC68F0680E00018C6FE40EE82EEC
:1047E000FED78C2FFCD70000B10E0001C4D87E6F1D
:1047F00045EC8FF0B0EC68F0680E00018C6FE40EB1
:10480000E82EFED78C2FFCD7000000018D2B020E66
:104810008D65DAD78E818E0E896F24EC75F00001DC
:104820008E838E0E896F24EC75F000018E858E0EBE
:10483000896F24EC75F000018E878E0E896F24EC51
:1048400075F000018E898E0E896F24EC75F00001E1
:104850008E8B8E0E896F24EC75F000018E8D8E0E7E
:10486000896F24EC75F000018E8F8E0E896F24EC19
:1048700075F000018F8B8E0E896F24EC75F00001AE
:104880008F898E0E896F24EC75F000018F878E0E54
:10489000896F24EC75F000018F858E0E896F24ECF2
:1048A00075F000018F838E0E896F24EC75F0000186
:1048B0008F818E0E896F24EC75F000018F8F8E0E24
:1048C000896F24EC75F0000190818E0E896F24ECC5
:1048D00075F000018F8D8E0E896F24EC75F000014C
:1048E00090838E0E896F24EC75F0000190878E0EF8
:1048F000896F24EC75F0000190858E0E896F24EC91
:1049000075F0000190898E0E896F24EC75F000011E
:1049100091898E0E896F24EC75F0000191838E0EC3
:10492000896F24EC75F00001908B8E0E896F24EC5A
:1049300075F00001908F8E0E896F24EC75F00001E8
:10494000908D8E0E896F24EC75F0000191818E0E92
:10495000896F24EC75F00001918B8E0E896F24EC29
:1049600075F0000191858E0E896F24EC75F030ECA6
:1049700093F0B0EF68F07A6F230E7B6F010E7C6FBF
:104980008DC07DF0010CA26BA36BA46BA56B9E0E7A
:10499000A26FEF0EA36FE10EA46F410EA56FA3D817
:1049A0004EEC3AF0CED85C0E776FFE0E786FE80EC4
:1049B000796F3A0E7A6FB7EC21F073C09EF07CD815
:1049C0002BEC1DF0ACD88FD84EEC3AF0BAD88BD87F
:1049D0004EEC3AF0ADD8B7EC21F09CD88ED8ED0E65
:1049E000776F450E786FDE0E796FB20E7A6FB7EC87
:1049F00021F073C09EF060D82BEC1DF090D873D8D6
:104A00004EEC3AF09ED86FD84EEC3AF091D8B7EC15
:104A100021F080D872D867D84EEC3AF089D8B7EC3C
:104A200021F078D86AD83A0E776F6D0E786FA00EA5
:104A3000796F2B0E7A6FB7EC21F073C09EF03CD8E3
:104A40002BEC1DF06CD8A2C073F0A3C074F0A4C00E
:104A500075F0A5C076F0776B786B200E796F410EFC
:104A60007A6FB7EC21F073C0A2F074C0A3F075C0E8
:104A7000A4F076C0A5F0A2C07DF0A3C07EF0A4C0D3
:104A80007FF0A5C080F0CCEC22F07DC0A2F07EC00B
:104A9000A3F07FC0A4F080C0A5F0A2C065F0A3C0C1
:104AA00066F0A4C067F0A5C068F0AEEC56F065C033
:104AB0009CF066C09DF0120074C09FF075C0A0F01D
:104AC00076C0A1F0A2C065F0A3C066F0A4C067F0F4
:104AD000A5C068F09EC069F09FC06AF0A0C06BF0EE
:104AE000A1C06CF012009CC065F09DC066F0000E85
:104AF00066BFFF0E676F686F010C75C0A0F076C0CF
:104B0000A1F09EC073F09FC074F0A0C075F0A1C06A
:104B100076F0120073C09EF074C09FF0120065C062
:104B2000A2F066C0A3F067C0A4F068C0A5F01200B0
:104B300065C077F066C078F067C079F068C07AF039
:104B4000120065C073F066C074F067C075F068C08D
:104B500076F01200686F7BD0160E656F260E666FBA
:104B6000010E676F1200EE0E656FBC0E666F000ED1
:104B7000676F1200840E656F150E666F010E676F0A
:104B80001200960E656F110E666F010E676F1200B0
:104B9000DE0E656FDE0E666F000E676F1200FA0E96
:104BA000656FB50E666F000E676F1200AA0E656F17
:104BB000F80E666F000E676F12001A0E656F0E0E0C
:104BC000666F010E676F1200940E656FF70E666FC9
:104BD000000E676F1200BA0E656FF90E666F000E59
:104BE000676F1200760E656FF90E666F000E676FC5
:104BF00012004E0E656FF70E666F000E676F1200A3
:104C0000320E656FF90E666F000E676F1200F80EB8
:104C1000656FE50E666F000E676F12004E0E656FD2
:104C2000E90E666F000E676F1200EE0E656FF80EEC
:104C3000666F000E676F1200C20E656FE10E666F41
:104C4000000E676F1200656B666B676B12000001E8
:104C5000685189E0020AE9E0010A8CE0070A91E064
:104C6000010A8FE0030AC5E0010A8BE00F0AB3E0F6
:104C7000020A80E0010A01E17DD71B0AD6E0010AA1
:104C800087E0090AD2E0010A8AE0030A8FE03A0AC3
:104C9000CCE0010A01E16ED7030A01E16BD7010AFA
:104CA0008CE0070A91E0010A9DE0030AA9E0010AED
:104CB000AEE00E0AB3E0030AB1E0010AA8E01B0A65
:104CC000BBE0710AB2E0030AB0E0010AAEE0070AF5
:104CD000ACE0010AAAE0030AA8E0010AA6E00E0A75
:104CE000A4E0030AA2E0010AA0E02B0A01E134D704
:104CF000110A01E169D7F10A98E0030A96E0070A70
:104D000094E0140A01E159D7010A01E125D7030A09
:104D100001E122D798D7C7D8DA22DECF77F0DDCFEE
:104D200078F0C1D8B4EC33F086EC42F0E7500001E3
:104D30007A6FB9D8BED886EC42F0E750796F3CC0A4
:104D40007BF03DC07CF0770E746F3FEC83F0000980
:104D500001E093D0770E6C6F726B736B6C517AECD1
:104D60002BF086EC42F0E750030F706F000E22EC40
:104D700092F000016C51D96EDA6ADECF68F0DDCFB7
:104D800069F070C06AF058EC83F0010E716F3FD08B
:104D9000720E656F6C51D96EDA6ADECF6DF0DDCFC1
:104DA0006EF071516D25D96E000E6E21DA6EDF50F6
:104DB000666F6651676F686B67C068F0676B6551B7
:104DC000D96EDA6A6751DE1A6851DD1A080E6B6F08
:104DD00074D868AF14D001D012D06FD8D89067378C
:104DE0006837210E6719696F100E68196A6F65516F
:104DF000D96EDA6A69C0DEFF6AC0DDFF02D0655194
:104E000064D86B076B51E4E101D0E2D7712B70518C
:104E1000715DBEE301D0BCD76C513EEC2BF033D8B2
:104E200073C0DFFF6C513EEC2BF0DF2A6C513EEC7F
:104E30002BF029D872C0DFFF6C513EEC2BF0DF2A3B
:104E40006C513EEC2BF01FD80D0EDF6E6C513EEC1A
:104E50002BF0DF2A77C066F078C067F079C068F081
:104E600001D80BD00500FA6E02014D51FD6E4E5176
:104E7000FE6E4F51FF6EFA50120015D81AD886EC0C
:104E800042F0E76A1200DF506D6F6C51D96EDA6A3A
:104E9000DECF6EF0DDCF6FF06D516E25D96E000E56
:104EA0006F21DA6E120020EE02F03A50D9263B5004
:104EB0001200DA2210EE64F012006551D96EDA6A3F
:104EC000DECF67F0DDCF68F01200D96EDA6AD890D5
:104ED000DE36DD3612001BEC92F065C079F066C05C
:104EE0007AF0ADD88ED8C80EDE6EDD6A20EE27F0DF
:104EF00088D86E0EAFD885D8B40EDE6EB9D881D8FA
:104F0000B40EADD87ED8010EDE6E80D87AD882D8A5
:104F100078D8010EDF6E97D83DEC60F069EC8FF029
:104F200065C079F066C07AF08AD86BD82C0EDE6E38
:104F3000010E9AD866D8640E8DD863D8960EDE6EB0
:104F400097D85FD8FA0E8BD85CD8DE6A5FD859D86C
:104F500061D857D8DF6A77D83DEC60F075EC8FF0F8
:104F600065C079F066C07AF06AD84BD88A0EDE6EDA
:104F7000020E7AD846D8300EDE6E020EDD6E20EEBE
:104F800023F03FD87ED820EE25F03BD87AD820EE0B
:104F90002BF037D8010EDE6E39D833D83BD831D854
:104FA000020EDF6E50D83DEC60F020EE38F029D8CC
:104FB000DE6ADD6A0101A06B040EAB6F060EAC6FFA
:104FC0005BD856EC7BF02DD85E6AC76BC86B76EC6D
:104FD00092F065C068F066C069F06B6B6A6B6D6BD0
:104FE000570E6C6F4CEC87F0786B782B0E0E786553
:104FF000FCD70101B481010E886FE9EC1BF00000C1
:1050000012007951D9267A51DA221200DD6A20EE97
:105010002DF01200580EDE6E020EDD6E20EE3AF01C
:10502000020C020EC56FC66B080EBF6F640EC06F18
:10503000FD0EC16FC269CE6B140ECD6F140C000152
:1050400020EE29F0120079C065F07AC066F0686B36
:10505000676B1200DE6EDD6A20EE23F01200DE6E5A
:10506000DD6A20EE2BF01200DD6E20EE27F012003C
:10507000DD6A20EE25F01200596A5A6A5B6A5C6AA2
:10508000F80C440EDE6E020EDD6E020C0001786F2D
:1050900078511FE0816B826B000E716F030E726F8F
:1050A000D8908135D96E8235DA6ED890D936DA3615
:1050B0007151D9267251DA22B9D8814B822B82BF25
:1050C000EBD7825103E10B0E815DE6E30101916BA9
:1050D000000C01019151040D000EF324D96E030E52
:1050E000F420DA6EA3D86DC079F06EC07AF06FC08C
:1050F0007BF070C07CF06DC07DF06EC07EF06FC044
:105100007FF070C080F0912B090E916501D0916BFA
:105110000001876B886B79D8DE50795DDE507A5953
:10512000DE507B597C51800A776FDE50800A7759B8
:1051300009E26BD8DECF79F0DECF7AF0DECF7BF0FC
:10514000DECF7CF062D87D51DE5C7E51DE587F512F
:10515000DE58DE50800A776F8051800A775909E265
:1051600054D8DECF7DF0DECF7EF0DECF7FF0DECF15
:1051700080F0874B882B88BFCED7885103E10A0E79
:10518000875DC9E37D51795D656F7E517A59666FA0
:105190007F517B59676F80517C59686F46EC79F07D
:1051A00065C083F066C084F067C085F068C086F093
:1051B00086BF09D08651851105E1C00E835D5D0E65
:1051C000845901E3000C86BF09D08651851105E1A1
:1051D000E00E835D2E0E845901E3010C86BF09D0D9
:1051E0008651851105E1700E835D170E845901E328
:1051F000020C86BF040C8651851105E1B80E835D53
:105200000B0E845901E3030C040C000E716F030EA6
:10521000726FD8908735D96E8835DA6ED890D936C6
:10522000DA367151D9267251DA2212006DC0DEFFD2
:105230006EC0DEFF6FC0DEFF70C0DEFF120064D004
:10524000B6D89EEF92F0B3D829EF5DF0B0D8B5EFA5
:1052500085F0ADD84DEF8EF0BFD8DE6FB8D8DF6FD8
:105260009CEF65F0B9D8986FB2D8996F8CEF8FF03A
:10527000B3D8986FACD8996FBFEF47F0ADD8986F9F
:10528000A6D8996FF1EF29F0A7D8986FA0D8996F99
:10529000EDEF61F0A1D8986F9AD8996F26EF5AF088
:1052A0009BD8986F94D8996FA3EF30F080D8B5EF62
:1052B0008EF0010185D8DECF98F0DDCF99F030EF88
:1052C00090F001017DD8DECF98F0DDCF99F028EF86
:1052D00092F082D8656F7BD8666F84EF7FF07CD8C0
:1052E000656F75D8666F3FEF8BF076D8956F6FD886
:1052F000966FCAEF92F0DBC16CF0DCC16DF09FEFEE
:1053000087F055D88BEF82F0DBC1D9FFDCC1DAFF23
:10531000DF5002E1C5EF71F0010AD8B41200030AB0
:1053200002E14CEF41F0010AECE0070A89E0140ABF
:1053300002E1C2EF8DF0080A02E1CAEF90F0380AEC
:1053400002E1BDEF5FF0100AD6E0710A01E17BD700
:10535000030A01E17BD7010A01E17BD7070A01E1DA
:105360007BD7010A01E17ED7030A82E0010A86E0C9
:105370000E0A8AE0030A8EE0010A92E01A0AD8B403
:105380001200310AD8B41200010AA9E0100AD8B4F8
:105390001200F10A8BE0030A8CE0070A92E0140A7B
:1053A000D8B41200010AA1E0030A93E0120001013F
:1053B00020EE01F0DB51D926DC51DA22DF50120059
:1053C00020EE01F0DB51D926DC51DA221200000E6A
:1053D0000101DC2100011200010E0101DB250001A9
:1053E0001200C0D86BEC79F068C0A4F069C0A5F0D9
:1053F0000001A451A51104E1B5D8886F020E4FD069
:10540000040E9825A0D87CEC4FF07FC0A0F080C09F
:10541000A1F0982998D87CEC4FF07FC0A2F080C012
:10542000A3F0A2C06DF0A3C06EF0A0C06FF0A1C049
:1054300070F0A4C071F0A5C072F0746B41EC31F053
:1054400028E201D026D02FEC31F06C6B5ED808E357
:1054500001D006D069D804E301D002D0010E6C6FF0
:105460006C51000916E001D014D038EC31F06C6BAF
:105470004CD808E301D006D057D804E301D002D0BD
:10548000010E6C6F6C51000904E001D002D0010ED6
:10549000746F7451000905E165D8886F030E896F38
:1054A00031D020EE3AF064D8020EDE18010ED8A4F6
:1054B000000E9F6F9F5105E1A2C09BF0A3C09CF01E
:1054C00004D0A0C09BF0A1C09CF020EE23F050D8E7
:1054D0009BC0DEFF9CC0DDFF9F5105E1A0C09DF099
:1054E000A1C09EF004D0A2C09DF0A3C09EF020EE0B
:1054F00025F03ED89DC0DEFF9EC0DDFF1BEC8CF08A
:1055000031D83BD8470EBFEF82F020EE13F0675141
:10551000D9266851DA22DE50655D6651800A6B6FCC
:10552000DE50800A6B59120020EE15F06751D92623
:105530006851DA226551DE5CDE50800A6B6F66517D
:10554000800A6B5912007F6F000E9921806F20EE48
:105550001FF0A451D926A551DA22DECF81F0DDCF8C
:1055600082F0120098C0D9FF99C0DAFFDF50120014
:10557000A451D926A551DA2212000001886F896B47
:10558000120070517BD8030EDF6E7051D96EDA6A4B
:10559000DECF71F0DDCF72F071C0D9FF72C0DAFFDB
:1055A0001B0EDF6E56D8500EDF6E705167D8DF2AA3
:1055B00050D8DF6A705162D8DF2A4BD8DF6870514B
:1055C0005DD818EC35F070C06BF0A5D8686B9BD82F
:1055D00003E008D001D006D0682B050E6865F7D728
:1055E00001D0F5D76F6B67D86F2B050E6F65FBD7B2
:1055F00001D0F9D76B5142D846D840D848D857D8AF
:105600003DD8DF2A6B513AD842D879D837D8DF2A2B
:1056100020D8010EDF6E705131D8DF2A1AD8640EFF
:10562000DF6E70512BD8DF2A705113EC35F086EC09
:1056300042F0E76A70515ED886EC42F070511ED895
:10564000DF50FD0FE76E705119D8640EDF60010C5A
:10565000000C7051D96EDA6A020ED926DF50716FD4
:105660007051D96EDA6ADECF72F0DDCF73F071510E
:105670007225D96E000E7321DA6E1200D96EDA6AC5
:10568000020ED926020C060EDF266B511200DF50E7
:105690006C6F6B51D96EDA6ADECF6DF0DDCF6EF0D4
:1056A0006C516D25D96E000E6E21DA6E1200CA0E95
:1056B000DF6E6B5112006F516925D96E000E6A21A1
:1056C000DA6E6B51E16EE26AE6CF6CF0E5CF6DF019
:1056D0006B51E16EE26A020EE126E7506C27000E84
:1056E0006D236F516C25E16E000E6D21E26EDFCFF0
:1056F000E7FF1200D96EDA6A10EE02F01200FE0E19
:10570000DF6E6B51120068516525D96E000E66215F
:10571000DA6EDE28120069C065F06AC066F0120019
:10572000939A8A9A1A0E00017D6FF80EE82EFED722
:105730007D2FFCD700008A8A200E00017D6F290E84
:10574000E82EFED77D2FFCD700D0C00E00019AD8DE
:10575000300E6BEC8CF0C00E95D8370E6BEC8CF0E5
:10576000C00E90D8360E6BEC8CF0A3D83F0E786F3D
:10577000300E6BEC8CF09DD83F0E786F370E6BECD3
:105780008CF097D8280E786F360E6BEC8CF06DD8B5
:10579000300E6BEC8CF069D8370E6BEC8CF065D862
:1057A000360E6BEC8CF07AD8300E6BEC8CF076D831
:1057B000370E6BEC8CF072D8360E6BEC8CF068D830
:1057C000300E6BEC8CF064D8370E6BEC8CF060D83C
:1057D000360E6BEC8CF0010E7A6F300E5BEC8CF0B9
:1057E000010E7A6F370E5BEC8CF0010E7A6F360E7D
:1057F0005BEC8CF033D8300E6BEC8CF02FD8370E7E
:105800006BEC8CF02BD8360E6BEC8CF07E6B34D8B6
:10581000300E6BEC8CF030D8370E6BEC8CF02CD853
:10582000360E6BEC8CF07E2B170E7E65F0D7180EC3
:105830007E6F400E39D8300E6BEC8CF0400E34D8B1
:10584000370E6BEC8CF0400E2FD8360E6BEC8CF0D4
:105850007E2B9B0E7E65EDD700009B0CC00E766FF5
:10586000090E776F030E786F030CC00E766F040E6F
:10587000776FEB0E786FEB0C400E766F7EC077F093
:10588000786B400C766F060E776F020E786F020C05
:10589000C00E766F776B400E786F400CC00E766F3F
:1058A000010E776F786B010C766F7EC077F07869A8
:1058B0001200C00E766F050E776F050C0101D351F3
:1058C000070ED8A4090E3E249CD8F5CFF6F20A00A4
:1058D000F5CFF7F279C165F07AC166F0A8D801D8A2
:1058E0000DD00500FA6E0900F550FD6E0900F55067
:1058F000FE6E0900F550FF6EFA50120065C0F8F216
:1059000066C0F9F20201F6510101D103F3CFD8F1DB
:10591000F4CFD9F1D203F350D9270201F751010195
:10592000D103F350D92788D8DECFDAF1DDCFDBF110
:10593000DA51D8250201FA6F0101D951DB210201A8
:10594000FB6FE86AE8360101D9BFE8060201FC6F87
:10595000E86AFCBFE806FD6F030E3E24010151D842
:10596000F5CFDAF15AD8DC510201FA5D0101DD51BF
:105970000201FB590101DE510201FC59FD51800A6F
:105980000101E06FDF51800AE05902E2030E1CD0F2
:10599000050E3E2436D8F5CFDAF13FD80201FA5190
:1059A0000101DC5D0201FB510101DD590201FC51E5
:1059B0000101DE59DF51800AE06F0201FD51800ACA
:1059C0000101E0590FE2050E3E241BD8F5CFDAF1B4
:1059D0000900F5CFDBF1DAC1FAF2DBC1FBF202011B
:1059E000FC6BFD6B29D8FAC2DEFFFBC2DDFFD4C120
:1059F000EAF0D5C1EBF0D6C1ECF0D7C1EDF021EF64
:105A000079F0D86F000E3F20D96FD8C1F6FFD9C109
:105A1000F7FF000EF86E090012000900F5CFDBF168
:105A2000DA51DC6FDB51DD6FDE6BDF6B12003EC0E5
:105A3000F6FF3FC0F7FF1200F8C2D9FFF9C2DAFF44
:105A40001200E1C1D9FFE2C1DAFFDECFE3F1DDCF21
:105A5000E4F1A85105E1ABD881EC91F0B0EC68F02D
:105A60000001666B080E656F97D86551671906E1EE
:105A70006651681901E002D0010E01D0000E000944
:105A800014E06E6B010E81EC91F0840E7A6F240E9F
:105A90007B6F78D845EC8FF0010E0201A86F0201F0
:105AA000A56BA66BB0EC68F058D0666B040E656F02
:105AB00073D86551671906E16651681901E002D093
:105AC000010E01D0000E000911E06E6B010E81EC99
:105AD00091F0690E7A6F240E7B6F54D845EC8FF0ED
:105AE0000201A86B64D881EC91F0D9D7010E666FE2
:105AF000656B52D86551671906E16651681901E076
:105B000002D0010E01D0000E000927E04AD8A819E2
:105B10000EE0A8B103D00101B49102D00101B4811B
:105B2000010E4CEC92F0D6EC92F0E9EC1BF0DDC1EA
:105B3000D9F1DEC1DAF1DFC1DBF1E0C1DCF122EE47
:105B4000C3F001D80AD00500FA6EDE50FD6EDE50BB
:105B5000FE6EDE50FF6EFA5012000201A851D8B45A
:105B60001200A7510101B119D8B4120020D881EC5C
:105B700091F0A2EC7FF00BD83CEC3DF045EC8FF0BF
:105B8000B0EF68F0010E7C6F7D6F7E6B010C65C01D
:105B90007AF066C07BF01200E3C167F0E4C168F000
:105BA00012000101010EB4A1000E02011200000159
:105BB0006E6B020CC651C25DC751C359C851C4595E
:105BC000C951C55908E3BB0E9C6F220E94D82F0E05
:105BD00099D8E5EC84F0CAC0D9FFCBC0DAFFDE501B
:105BE000DE10DE1009E1340E00019C6F220E83D816
:105BF000300E88D8E5EC84F0000120EE03F088D860
:105C000008E1870E9C6F220E76D8310E7BD8E5EC2A
:105C100084F0000120EE06F07BD808E16C0E9C6F4A
:105C2000220E69D8320E6ED8E5EC84F0000120EE29
:105C300009F06ED808E1170E9C6F220E5CD8330E67
:105C400061D8E5EC84F0C2C05BF3C3C05CF3C4C0B0
:105C50005DF3C5C05EF3D40E03015F6F2F0E606F5E
:105C6000000E616FC6C07DF0C7C07EF0C8C07FF077
:105C7000C9C080F0C2C081F0C3C082F0C4C083F04C
:105C8000C5C084F0A1EC62F07DC02BF27EC02CF286
:105C90007FC02DF280C02EF2CAC063F1CBC064F188
:105CA0000101616B626B0201276B286B296B2A6B08
:105CB0004F0E0101AD250001F66F000E0101AE216E
:105CC0000001F76F000EBB6F080EBC6FBE6B800E3D
:105CD000BD6F010120EE09F032EC19F0DECFBFF00C
:105CE000DECFC0F0DDCFC1F061EC7BF05B0EC26FA8
:105CF000030EC36F12009D6F1B0E9E6F230E9F6FCE
:105D0000A16B1200A06F790EA26F230EA36F120079
:105D1000CA51D926CB51DA22DE50DE10DE10120035
:105D2000FE0EF66EF30EF76E000EF86E05EE95F0B1
:105D300010EE48F00900F5CFEEFFE550E150FAE132
:105D4000AC0EF66E040EF76E010EF86E04EE72F0F5
:105D500010EE36F00900F5CFEEFFE550E150FAE124
:105D6000FA0EF66E090EF76E010EF86E03EEA3F052
:105D700010EE2FF00900F5CFEEFFE550E150FAE10B
:105D8000F60EF66EE90EF76E000EF86E02EEA4F057
:105D900010EE52F00900F5CFEEFFE550E150FAE1C8
:105DA0008C0EF66E250EF76E010EF86E01EEE6F023
:105DB00010EE08F00900F5CFEEFFE550E150FAE1F2
:105DC0000DEE00F0D60EEE6AE806FDE10CEE00F0F6
:105DD000FA0EEE6AE806FDE10BEE00F0FA0EEE6A4E
:105DE000E806FDE10AEE00F0B40EEE6AE806FDE119
:105DF00009EE00F0FA0EEE6AE806FDE108EE00F0AA
:105E000011EE00F0EE6AE550E150FCE1E250FAE1FB
:105E100007EE00F0C90EEE6AE806FDE106EE00F0BE
:105E2000BB0EEE6AE806FDE105EE00F0950EEE6AA7
:105E3000E806FDE104EE00F0720EEE6AE806FDE110
:105E400003EE00F0A30EEE6AE806FDE102EE00F0BC
:105E5000A40EEE6AE806FDE101EE00F0D10EEE6A56
:105E6000E806FDE100EEF2F0090EEE6AE806FDE15B
:105E700000EE33F02C0EEE6AE806FDE1019001928F
:105E80000001CAEF4CF0D1C1D9FFD2C1DAFFDFAEB9
:105E9000000C42C065F043C066F0E6EC8AF00009F1
:105EA00001E185D0000E83EC6EF065C0F6F266C0AD
:105EB000F7F220EE33F037EC3DF010EE04F086EC14
:105EC00042F0E6CFF8F2E5CFF9F28BD849D020EED8
:105ED0000DF037EC3DF080D80201F651FE5D010176
:105EE000D96F0201F751FF590101DA6F0201F85130
:105EF0000101D903F3CFDBF1F4CFDCF1DA03F35086
:105F0000DC270201F9510101D903F350DC27D751F5
:105F1000DB250201FA6F0101D851DC210201FB6F80
:105F200051D8FAC2A7F0FBC2A8F0DDEC40F0A5C042
:105F3000FCF2A6C0FDF2770EA1EC35F0FEC275F0C2
:105F4000FFC276F0FCC277F0FDC278F07A6B000EEB
:105F5000796FB5EC35F03EEC44F00201FE4BFF2BBF
:105F600027D8B5E33ED817D096EC35F030D880EC82
:105F700035F0BDEC3DF0D8902AD8DA6E6F0ED926F8
:105F8000020EDA2229D8D7C1D9FFD8C1DAFF9CEC9A
:105F900035F0FE4BFF2B0CD8E7E3D3C1EAF0D4C1B8
:105FA000EBF0D5C1ECF0D6C1EDF021EC79F0010CAD
:105FB0004050FE5DFF51800A0101D76F4150800AB9
:105FC000D759120042C0A5F043C0A6F0120002014A
:105FD000FE35D96EFF351200DECFD7F1DDCFD8F117
:105FE00012000201FE6BFF6B120020EE38F097D812
:105FF000DFAE16D020EE39F092D8DFB211D077D8CC
:10600000C35D92D8C45995D8C55998D8C6597BD87C
:1060100091C0BFF192C0C0F193C0C1F194C0C2F170
:1060200020EE39F07CD8DFA216D020EE38F077D8F9
:10603000DFBE11D05CD8BF5D77D8C0597AD8C159BE
:106040007DD8C25960D891C0C3F192C0C4F193C049
:10605000C5F194C0C6F159500101C35D2C6F5A506F
:10606000C4592D6F5B50C5592E6F5C50C6592F6FA8
:106070002CC17DF02DC17EF02EC17FF02FC180F0AC
:106080002C0E0001816F010E69EC40F0DCEC48F051
:106090007DC02CF17EC02DF17FC02EF180C02FF18C
:1060A00059500101BF5D286F5A50C059296F5B508C
:1060B000C1592A6F5C50C2592B6F28C17DF029C18C
:1060C0007EF02AC17FF02BC180F0D40E0001816FD9
:1060D000FE0E826F83698469DCEC48F07DC028F194
:1060E0007EC029F17FC02AF180C02BF11200D89028
:1060F00059348D6F5A348E6F5B348F6F5C34906F70
:106100008D51010112000001946F911F921F931F86
:10611000941F912B000E922393239423000C8B51F8
:10612000D9268C51DA2212000001916F8E510101A3
:1061300012000001926F8F51010112000001936F54
:1061400090510101120085D86BEC79F068C09EF087
:1061500069C09FF000019E519F1104E17AD8886FB9
:10616000020E50D0982966D87CEC4FF07FC09AF090
:1061700080C09BF0040E98255DD87CEC4FF07FC06A
:106180009CF080C09DF09AC06DF09BC06EF09CC0EA
:106190006FF09DC070F09EC071F09FC072F0746B84
:1061A00070D82AE201D028D05AD86C6B85EC2AF03E
:1061B00009E301D007D094EC2AF004E301D002D027
:1061C000010E6C6F6C51000917E001D015D050D84A
:1061D0006C6B85EC2AF009E301D007D094EC2AF02F
:1061E00004E301D002D0010E6C6F6C51000904E091
:1061F00001D002D0010E746F7451000905E129D855
:10620000886F030E896F13D020EE27F043D89AC011
:10621000DEFF9BC0DDFF20EE29F03CD89CC0DEFFF6
:106220009DC0DDFF1BEC8CF014D8BDEC2AF04B0EAA
:10623000BFEF82F07F6F000E9921806F20EE1FF07C
:106240009E51D9269F51DA22DECF81F0DDCF82F038
:10625000120098C0D9FF99C0DAFFDF5012006DC05C
:1062600065F06EC066F071C067F072C068F0120031
:106270006FC065F070C066F071C067F072C068F002
:1062800012006F516D5D6E51800A736F7051800AFC
:10629000735912009E51D9269F51DA221200A0D8BC
:1062A000DE6ADD6A6CC065F06DC066F07B0E676FFC
:1062B00078EC72F065C080F066C081F080C065F057
:1062C00081C066F06CC067F06DC068F07CD865C0B6
:1062D00079F066C07AF07951705D7A51715901E2B6
:1062E0001200030E746F756B8051745F8151755B82
:1062F0007CD87451DE267551DD2272D8DFCF74F060
:10630000DE2ADFCF75F0000EDD226FD8DECF76F00B
:10631000DDCF77F074517625D96E75517721DA6E1D
:10632000AA0EDF6E7E6B7F6B20D07E517B0FD96E05
:10633000DA6A72C0E1FF73C0E2FFE7CF74F0E62AC9
:10634000E7CF75F0000EE5226EC0E1FF6FC0E2FFFF
:10635000E6CF76F0E5CF77F074517625E16E755192
:1063600077210BEC71F07E4B7F2B80517E5D81514C
:106370007F59DBE335D86C51DE266D51DD2235D8EF
:10638000DECF65F0DDCF66F02BD8DECF67F0DDCF56
:1063900068F08FEC86F0746F23D8DECF75F0DDCF18
:1063A00076F023D8DECF77F0DDCF78F07551772502
:1063B000D96E76517821DA6E74C0DFFF11D8DE2AEB
:1063C000000EDD22000C67516525696F685166215A
:1063D0006A6F020E6925656F000E6A21666F1200F2
:1063E00072C0D9FF73C0DAFF12006EC0D9FF6FC050
:1063F000DAFF12000001686F66D09C0E656F260EF2
:10640000666F010E676F1200860E656FDB0E666F9A
:10641000000E676F1200740E656F200E666F010E1E
:10642000676F1200F80E656F1A0E666F010E676FC8
:106430001200640E656FF50E666F000E676F120036
:10644000460E656F070E666F010E676F1200EC0E49
:10645000656F020E666F010E676F1200260E656F84
:10646000DB0E666F000E676F1200860E656FFA0E08
:10647000666F000E676F12009A0E656F1D0E666FD5
:10648000010E676F1200B40E656F1C0E666F010E71
:10649000676F1200B40E656F020E666F010E676FB4
:1064A0001200EE0E656FA00E666F000E676F120091
:1064B000A00E656F160E666F010E676F1200656B9A
:1064C000666B676B12000001685197E0010A9CE05F
:1064D000030A93E0010A9FE0070A9DE0140A8DE099
:1064E000080A8BE0380A89E0100AE2E0710A93E0BA
:1064F000030A91E0010A96E0070A9BE0010AA0E086
:10650000030AA5E0010AAAE00E0AAFE0030AADE023
:10651000010AA4E01A0AC5E0310ABCE0010A89E0D8
:10652000100AB8E0F10A01E176D7030AA5E0070AEC
:10653000A3E0140AAFE0010AADE0030AA4E0BFD76C
:10654000010E8AEC7EF0D9EC8EF0000902E0B0EF8B
:1065500068F0D2EC92F0000904E06CEC5DF0B0EF72
:1065600068F00001E66BE76B76D0D890E635D96E1F
:10657000E735CAEC5BF0DECFE8F0DDCFE9F00001F3
:1065800020EE33F076D8DECFE4F0DDCFE5F0E4C0E6
:10659000D9FFE5C0DAFFDF5057EC70F0E8C065F0D6
:1065A000E9C066F0E6EC8AF0000943E0E8C067F075
:1065B000E9C068F0B9EC86F0000907E0E8C084F0B3
:1065C000E9C085F097EC49F043D0000120EE3CF0A3
:1065D00050D8DFA212D020EE3BF04BD8DFB60DD062
:1065E0000101B65135E1E8C0D2F0E9C0D3F013ECB7
:1065F0008DF044D808EC77F02BD0E8C067F0E9C004
:1066000068F067EC8EF0000907E0E8C084F0E9C0AC
:1066100085F0C9EC50F01CD0000120EE3BF029D8E9
:10662000DFA2E1D7E8C0D4F0E9C0D5F053EC74F0B4
:106630000FD0E8C065F0E9C066F0D4EC8AF000093C
:1066400004E11CD808EC77F003D00101B651B6E1A3
:106650000001E64BE72B0101A7510001E65DE75180
:10666000800AE46F15EC76F0E45901E27ED7B0EFD2
:1066700068F0E851D926E951DA221200E8C0D4F0D6
:10668000E9C0D5F0120020EE33F072D810EE09F018
:1066900086EC42F0E650E610E61044E020EE0BF007
:1066A00067D86BD865D88CD876D85ED886EC42F09F
:1066B000E7509F6FA06B20EE33F05AD810EE09F030
:1066C00086EC42F001D80AD00500FA6EE650FD6E65
:1066D000E650FE6EE650FF6EFA50120020EE0DF00E
:1066E00047D869D820EE0BF043D847D841D868D8AE
:1066F000A06B020E9F6F20EE33F03AD810EE09F037
:1067000086EC42F001D80AD00500FA6EE650FD6E24
:10671000E650FE6EE650FF6EFA50120020EE0FF0CB
:1067200027D849D020EE0BF023D82ED821D839D83D
:1067300032D81AD886EC42F0E7507D6F7E6BDDECE4
:1067400059F020EE0DF014D831D820EE0BF010D80F
:106750001BD80ED826D87E6B020E7D6FDDEC59F06B
:1067600020EE0FF005D822D0DA2210EE03F012004E
:10677000A351D926A451DA221200DECF9BF0DDCF3F
:106780009CF020EE1FF01200DECF79F0DDCF7AF022
:1067900020EE1FF0120020EE36F0A351D926A451AE
:1067A0001200DECF7BF0DDCF7CF0120079C0DEFF7F
:1067B0007AC0DDFF12009BC0DEFF9CC0DDFF12002F
:1067C000DECF9DF0DDCF9EF01200F60E0001736F5C
:1067D000020E746FFBEC6FF073C0F7F274C0F8F246
:1067E00002017BD8DFA00AD0DBC165F0DCC166F016
:1067F000DDC167F0DEC168F0D3EC90F00101E0513B
:10680000E11108E0E0C1D9FFE1C1DAFFF7C2DEFF24
:10681000F8C2DDFFE251E31106E0E2C1D9FFE3C1B6
:10682000DAFFF6C2DFFF60D8DE5016E1DE0414E1C5
:106830000201F65111E051D8DFB40ED04ED8DFB6C8
:106840000BD0DBC1D1F1DCC1D2F1DDC1D3F1DEC1AE
:10685000D4F1E1EC85F0010C47D8DE04DE1005E050
:1068600043D8020EDE18DE101DE10201F65103E1ED
:1068700034D8DFA4010C31D8DFB2010C35D8DE04E6
:10688000DE1005E136D8FF0E55EC80F0010C2CD857
:10689000020EDE18DE10D8A4010C2BD8010E55EC28
:1068A00080F0010C21D8800EDE18DE1015E1010108
:1068B000DF5112E00201F651D8B4010C0ED8DFB25C
:1068C000010CDBC1D1F1DCC1D2F1DDC1D3F1DEC1FC
:1068D000D4F1C7EC87F0010C000C20EE02F0F75168
:1068E000D926F851DA221200F7C2D9FFF8C2DAFF2E
:1068F0001200DBC1D5F1DCC1D6F1DDC1D7F1DEC1BB
:10690000D8F1120070513EEC2BF0030EDF6E705187
:10691000D96EDA6ADECF71F0DDCF72F071C0D9FFC7
:1069200072C0DAFF1B0EDF6E69D8510EDF6E705138
:106930003EEC2BF0DF2A62D8DF6A70513EEC2BF080
:10694000DF2A5CD8DF6870513EEC2BF071D870C044
:106950006BF08BEC2BF0686B83EC2BF003E008D032
:1069600001D006D0682B050E6865F6D701D0F4D7A4
:106970006F6B5BEC2BF06F2B050E6F65FAD701D0B8
:10698000F8D76B513EEC2BF043EC2BF03EEC2BF0A8
:1069900047EC2BF057EC2BF03EEC2BF0DF2A6B5141
:1069A0003EEC2BF047EC2BF07FEC2BF03EEC2BF089
:1069B000DF2A24D8010EDF6E70513EEC2BF0DF2A67
:1069C0001DD8EBC1DFFF70513EEC2BF0DF2A705178
:1069D0002AD886EC42F0E76A70517AEC2BF086EC0C
:1069E00042F070513EEC2BF0DF50FD0FE76E70511E
:1069F0003EEC2BF0640EDF60010C000C7051D96E80
:106A0000DA6A020ED926DF50716F7051D96EDA6AD8
:106A1000DECF72F0DDCF73F071517225D96E000EAA
:106A20007321DA6E1200D96EDA6A10EE01F01200EC
:106A3000DF2AAFC169F0B0C16AF0120018EC78F03B
:106A4000B0C0D7F1B1C0D8F184D8770ED926020EE4
:106A5000DA22DECFF0F0DDCFF1F0D1510001F025E8
:106A60000101D96FD2510001F1210101DA6F770ED6
:106A7000000167D87BC175F07CC176F0D9C177F091
:106A8000DAC178F0D7C179F0D8C17AF06ED83EEC8F
:106A900044F00101DB6FDB510DE148D87B35D96E45
:106AA0007C352ED8BDEC3DF054D86F0E33D80001A4
:106AB00043D81AD0DC6BDD6B0DD038D851D820D834
:106AC000BDEC3DF0D8904CD8DA6E6F0E23D834D898
:106AD000DC4BDD2B4050DC5DDD51800A0001F06FA6
:106AE0004150800AF059E9E320EC8AF0D3C1EAF082
:106AF000D4C1EBF0D5C1ECF0D6C1EDF021EF79F0C7
:106B0000DA6E770ED926020EDA22DECFA9F0DDCFBB
:106B1000AAF01200D926020EDA22DECFF0F0DDCF85
:106B2000F1F0F0C0D9FFF1C0DAFF120042C0A7F0C7
:106B300043C0A8F0D8901200A7C0DEFFA8C0DDFFB8
:106B40001200716F020E726F40C073F041C074F09A
:106B50001200D89001017B35D96E7C35DA6E1200B7
:106B60000101DC35D96EDD3512007DC17BF07EC1BF
:106B70007CF01200256A266A276A25C002F026C02A
:106B800003F0000E2724D96EDA6A010EDA22DF50F4
:106B9000046E10EC7CF002C025F003C026F0272A1A
:106BA0000D0E2764EAD7255026107AE101C128F09E
:106BB00004C101F128C004F102C128F003C102F1AF
:106BC00028C003F101C102F002C103F003C104F0C7
:106BD00004C105F06BEC7AF002C001F103C002F1D0
:106BE00004C003F105C004F1066A076AC80E086E06
:106BF000420E096E01C102F002C103F003C104F0AC
:106C000004C105F096EC1AF002C01BF003C01CF0A2
:106C100004C01DF005C01EF044EC57F01BC05FF12E
:106C20001CC060F106C128F009C106F128C009F1B5
:106C300007C128F008C107F128C008F106C102F019
:106C400007C103F008C104F009C105F06BEC7AF04C
:106C500002C006F103C007F104C008F105C009F144
:106C6000066A076AC80E086E420E096E06C102F077
:106C700007C103F008C104F009C105F096EC1AF051
:106C800002C01BF003C01CF004C01DF005C01EF0C4
:106C900044EC57F01BC05DF11CC05EF18E6B04D05C
:106CA000010E01018E6F00000000120068C065F047
:106CB00069C066F022EC8DF06E6F736B0101ACA5BC
:106CC0000BD0000120EE3BF06851D9266951DA2241
:106CD000DFA602D0010E736F00017351010ED8B40C
:106CE000000E6F6F68C065F069C066F0B4EC8DF09F
:106CF000706F6FD8DFA0000E716F6BD8DFA2000E2F
:106D0000726F746B756B44D0D8907435D96E7535CD
:106D1000CAEC5BF0DECF76F0DDCF77F076C065F0C1
:106D200077C066F0D4EC8AF0000930E06F5112E0D1
:106D30003BD8DFA80FD06A5174190BE16B5175195C
:106D400008E120EE3CF07651D9267751DA22DF8037
:106D500001D037D868C065F069C066F0D4EC8AF01D
:106D6000000914E06E5103E01FD8DFB02AD870513B
:106D700003E01AD8DFB225D8715103E015D8DFB48B
:106D800020D8725103E010D8DFB61BD8744B752B96
:106D90000101A7510001745D7551800A6C6F15ECFB
:106DA00076F06C59B1E312006A5176256C6F6B5125
:106DB00077216D6F500E6C25D96E000E6D21DA6E45
:106DC000120020EE3CF07651D9267751DA22DF828C
:106DD000120020EE38F06851D9266951DA22010CF0
:106DE000270E7DD8B2C0D9FFB3C0DAFF7ED8250EFA
:106DF000B025B66F6ED864D8BD6B030EBC6F20EEA5
:106E000022F07ED8DF5015E0BD6B040EBC6F20EE83
:106E10003AF076D8020EDE1802E1230E06D0230ED9
:106E2000B025B66F56D84CD8250E59D820EE04F0B0
:106E300047D8290E54D8BCC0B8F0BDC0B9F0D8901E
:106E4000B837B937B851B225BA6FB951B321BB6F52
:106E5000FE0EBA25D96EFF0EBB21DA6E46D8BE6B88
:106E6000BF6B20D0B0C0A5F0B1C0A6F043D8B251DE
:106E7000D926B351DA22DECFB6F0DDCFB7F0B6C0F7
:106E8000D9FFB7C0DAFFC3EC3CF0DDEC40F032D8FC
:106E9000B451D926B551DA22A5C0DEFFA6C0DDFF68
:106EA000BE4BBF2BBC51BE5DBF51800AB66FBD51FA
:106EB000800AB659D7E3BCC0B0F0BDC0B1F0120033
:106EC000B251D926B351DA22B6C0DEFFB7C0DDFF1A
:106ED0001200000EB121B76F20EE02F01200B025B3
:106EE000B66F000EB121B76F1200B6C0DEFFB7C09B
:106EF000DDFF1200D890BE35D96EBF35DA6E1200B4
:106F0000B051D926B151DA221200E45115E1040E34
:106F1000E35D12E2D00E00019C6F210E9D6F440EC6
:106F20009E6F230E9F6FA16B2E0EA06F560EA26F49
:106F3000230EA36FE5EC84F0DDC1B3F0DEC1B4F045
:106F4000DFC1B5F0E0C1B6F0A1EC5CF0000901E0F2
:106F500012000201FC6BFD6BDDC1ADF0DEC1AEF0D5
:106F6000FC0E0001AF6F020EB06FD5EC83F0ADC028
:106F7000F6F2AEC0F7F2FCC265F0FDC266F065291C
:106F8000656F000E6621666F65C0F8F266C0F9F2A3
:106F9000950E656F030E666F0201F8510101DD2544
:106FA0000001676F0201F9510101DE210001686FE4
:106FB000F6C269F0F7C26AF047EC7AF034D8010102
:106FC000E1250001676F000E0101E2210001686FF9
:106FD000FB0E0101E3250001696FFF0E0101E421B1
:106FE00000016A6F28EC73F006D0FAC2DBF1FBC235
:106FF000DCF11FEC29F0820E0001796F1D0E7A6F13
:10700000010E7B6F97EC8FF065C07CF066C07DF061
:1070100002EC43F079C0FAF27AC0FBF20201FA51B5
:10702000FB11E3E112008D0E656F030E666F040C19
:10703000726B706B7FD8D96E6A516821DA6E7251AB
:107040006525E16E000E6621E26EE7506B6FD89009
:107050006B37D8906B37D8906B35DF6E6BD86B6F12
:107060006A5168216C6F6B2959D86D6F050E6E6F70
:10707000D8906D336E2FFCD76D51DF6E722B702B55
:10708000030E7065D7D76F6B5ED86F513BD8100E6B
:107090006B25E16E000E6C21E26EDFCFE7FF722BF5
:1070A0006F2B030E6F65F0D7716B71512BD8080EE3
:1070B0006B2534D80F0BDF6E46D8DF50696F693B04
:1070C0000F0E691769A10AD071511CD8080E6B25E3
:1070D000D96E000E6C21DA6E000EDB8E715112D863
:1070E000090E6B251BD86D6F050E6E6FD8906D3332
:1070F0006E2FFCD76D51DF6E722B712B030E7165F5
:10710000D4D7030C696F6A6BD89069376A376951B5
:1071100067256B6F6A5168216C6F1200D96E000E83
:107120006C21DA6E72516525E16E000E6621E26E09
:10713000E75012007051020DF3CF69F0F4CF6AF0FE
:1071400069516725120072516525D96E000E6621BE
:10715000DA6E12000101B4A1120000016E6B010E83
:1071600081EC91F06E6B020E81EC91F0000E6E6B73
:1071700081EC91F0170E7A6F240E11EC4DF045EC76
:107180008FF0890E656FB2C168F0B3C169F06BD83A
:1071900067C066F0676B663B0F0E6617661752D8BE
:1071A000D96EDA6A0800F5CFDFFF69510F0BC30F04
:1071B000F66E200ED8B0010FF76EF86A000EF822B6
:1071C0006551D96EDA6AD92A0800F5CFDFFF4BD8AE
:1071D000040ED89067336633E82EFBD70F0E661780
:1071E00031D83EEC2BF00800F5CFDFFF0F0E68150D
:1071F000666F28D833D80800F5CFDFFF0101B4B19E
:1072000006D0EF0E00018D6F230E8E6F04D0890E15
:1072100000018D6F8E6B8DC07AF08EC07BF0C2EC5A
:107220002DF045EC8FF0B0EC68F00201A56BA66B79
:10723000030E0001656F65C0A4F20101B485100E54
:107240004CEF92F0676BC30E6625F66E200E672139
:10725000F76EF86A000EF82265511200D96EDA6AEC
:10726000030ED926030C68C066F069C067F01200EF
:107270001BEC92F065C0C5F066C0C6F075EC8FF0EF
:1072800065C0C8F066C0C9F069EC8FF065C0CAF08F
:1072900066C0CBF00001C36B01019A5108E0C8C081
:1072A00065F0C9C066F05EEC8DF0000903E0010EE8
:1072B0000001C36FC46B0101995108E0CAC065F0B9
:1072C000CBC066F05EEC8DF0000903E0010E00011A
:1072D000C46F010E01019A6F996FC8C065F0C9C0F3
:1072E00066F022EC87F0CAC065F0CBC066F022ECF5
:1072F00087F0C5C065F0C6C066F05EEC8DF0000991
:10730000010ED8A4000EC26FC8C0B6F0C9C0B7F055
:10731000BEC0B8F0BFC0B9F0C2C0BAF020EE19F0DC
:10732000C551D926C651DA22DECFBBF0DDCFBCF085
:10733000C3C0BDF0B0EC78F0CAC0B6F0CBC0B7F0B7
:10734000C0C0B8F0C1C0B9F0010EBA6FC0C0BBF088
:10735000C1C0BCF0C4C0BDF0B0EC78F011D8C76FAC
:10736000C8C069F0C9C06AF0C7C06BF024EC50F027
:10737000CAC069F0CBC06AF0C7C06BF024EF50F010
:107380000101010EACA1000E00011200E1C1D9FF04
:10739000E2C1DAFFDECFE3F1DDCFE4F10001666B9D
:1073A000100E76D86551671906E16651681901E03B
:1073B00002D0010E01D0000E00090CE022EEC0F058
:1073C0000500FA6EDE50FD6EDE50FE6EDE50FF6E82
:1073D000FA501200666B200E5BD86551671906E102
:1073E0006651681901E002D0010E01D0000E0009BB
:1073F0000CE022EEC9F00500FA6EDE50FD6EDE50A4
:10740000FE6EDE50FF6EFA501200666B400E40D8E2
:107410006551671906E16651681901E002D0010E55
:1074200001D0000E00090CE022EED2F00500FA6E49
:10743000DE50FD6EDE50FE6EDE50FF6EFA50120022
:10744000010E666F656BE3C167F0E4C168F06551DA
:10745000671906E16651681901E002D0010E01D0FA
:10746000000E0009D8B41200DDC1D9F1DEC1DAF195
:10747000DFC1DBF1E0C1DCF122EEBAF00500FA6E0B
:10748000DE50FD6EDE50FE6EDE50FF6EFA501200D2
:10749000656FE3C167F0E4C168F012006D6F000131
:1074A0006D511CE068AF1AD065C069F066C06AF023
:1074B00067C06BF068C06CF0691F6A1F6B1F6C1FA0
:1074C000692B000E6A236B236C2369C06FF06AC0BE
:1074D00070F06BC071F06CC072F008D065C06FF0D6
:1074E00066C070F067C071F068C072F065516611D7
:1074F0006711681105E1656B666B676B686B12005D
:10750000960E6E6F02D06E2B4AD8696B6A6B6B6BEE
:10751000FE0E72153ED808E0F6D76E2B6F2B000ECC
:107520007023712372233BD8696B6A6B6B6B72514A
:1075300030D807E0F2D76E07D8906F3770377137C1
:10754000723771BF03D0020E6E61F5D76EA1719FC5
:10755000D8906E336EC069F06A6B6B6B6C6B69C0F0
:107560006CF06B6B6A6B696B69516F136A517013C6
:107570006B5171136C5172136D5102E068BF728FC1
:107580006FC065F070C066F071C067F072C068F0DF
:1075900012006C6F69516A116B116C111200D89056
:1075A0007233713370336F331200C9C074F0CAC0C4
:1075B00075F0CBC076F0CCC077F0AEEC81F0CBC0EC
:1075C00065F0CCC066F017EC2DF0000EF86E01D817
:1075D0000DD00500FA6E0900F550FD6E0900F5505A
:1075E000FE6E0900F550FF6EFA50120065C0D9FF1B
:1075F00066C0DAFFDECFD3F0DDCFD4F0D351D411A3
:1076000011E143D8F5500900F5100CE03ED8F5CF54
:107610007AF00A00F5CF7BF0A7EC68F044D82FD8B9
:1076200045EF8FF0D3C065F0D4C066F0686B3C0EB8
:10763000676FB5EC79F06551D16FD3C065F0D4C0F8
:1076400066F0686B3C0E676F47EC7FF06551D26F58
:10765000D151640DF3CFCDF0F4CFCEF0D251CD2582
:10766000CF6F000ECE21D06FCFC0C4F0D0C0C5F018
:1076700078EC74F018D86EEC74F0E5EF8EF0DA2246
:10768000DF507D6F010E7E6F010C0B0E3E24CD6F1F
:10769000000E3F20CE6FCDC0F6FFCEC0F7FF000E2C
:1076A000F86E09001200CB51D926CC511200000E01
:1076B0000101836F0D0E846F20EECAF065D8D00EE5
:1076C000DE6E010EDD6E20EECFF05ED8540EDE6E63
:1076D000FC0EDE6E000EDE6E20EE64F055D8DF6A22
:1076E00020EED2F051D8DF6A20EECCF04DD8DE6A21
:1076F000DD6A20EECEF048D8DF6A20EED3F044D821
:10770000D40EDE6E130EDE6E010EDE6E83C165F0EA
:1077100084C166F00001676B3CD8672B630E676518
:10772000FBD701D0F9D73DD8650E010183250001B3
:10773000656FC1EC14F0666F0001676B2AD8672B88
:10774000630E6765FBD701D0F9D72BD883C1A0F2B0
:1077500084C1A1F2650E010183250201A26F000E12
:10776000010184210201A36FA00E0001A46F020E8B
:10777000A56F9CEC14F008D8DECFA6F0DECFA7F002
:10778000DDCFA8F029EF65F08351D9268451DA22A4
:10779000120067516525D96E000E6621DA6EDF6A28
:1077A000120020EE64F06551D9266651DA22DF6AB4
:1077B00012006FD8DFA01FD0BFC0A0F0C0C0A1F0E2
:1077C000C1C0A2F0C2C0A3F0C3C0A4F0C4C0A5F061
:1077D00076EC75F0000938E0BFC065F0C0C066F017
:1077E000C1C067F0C2C068F0C3C069F0C4C06AF02D
:1077F0004FEC86F029D0BFC0A0F0C0C0A1F0C1C03E
:10780000A2F0C2C0A3F0C3C0A4F0C4C0A5F064EC51
:1078100078F0000919E0BFC0B9F0C0C0BAF08FEC31
:1078200063F0000903E00101ACB50ED0BFC065F004
:10783000C0C066F0C1C067F0C2C068F0C3C069F0E4
:10784000C4C06AF023EC86F024D8DFA011D0BFC0FA
:107850006BF0C0C06CF020EE46F023D80500FA6E45
:10786000DE50FD6EDE50FE6EDE50FF6EFA501200EE
:10787000BFC06BF0C0C06CF020EE49F012D805001C
:10788000FA6EDE50FD6EDE50FE6EDE50FF6EFA5078
:107890001200000120EE3BF0BF51D926C051DA2280
:1078A0001200BF51D926C051DA221200C0C0B0F078
:1078B000C1C0B1F0C60EB26FB36BCE0EB46FB56B74
:1078C000F0EC36F0B0C0D6F0B1C0D7F0C0C0A5F033
:1078D000C1C0A6F020EE15F0C051D926C151DA2260
:1078E00052D8DDEC40F0A5C0C4F0A6C0C5F0D86BFE
:1078F000D96B1BD0CE0E716F726BD6C073F0D7C030
:1079000074F0D8C075F0D9C076F042D8DECF77F0E9
:10791000DDCF78F07A6B000E796FC4C07BF0C5C004
:107920007CF03EEC44F0D84BD92B24D8E3E3D86B61
:10793000D96B1DD0C0C0A7F0C1C0A8F029D8DECF38
:10794000A9F0DDCFAAF0BDEC3DF0D851020DF35007
:10795000C60FD96EDA6ADECFC2F0DDCFC3F0C2C087
:10796000D9FFC3C0DAFF9CEC35F0D84BD92B02D835
:10797000E1E31200D651D85DD951800AC26FD751C8
:10798000800AC2591200DECFA7F0DDCFA8F01200A6
:10799000D851020DF350CE0FD96EDA6A1200A9C188
:1079A000D1F0AAC1D2F020EE33F061D8DECFCFF013
:1079B000DDCFD0F0D1C06EF0D2C06FF09DEC84F07E
:1079C000D1C06FF0D2C070F020EE3AF050D8DF5046
:1079D0000001716F72EC80F0CFC0D9FFD0C0DAFF28
:1079E000DF5057EC70F0C00E00017A6F230E11ECDF
:1079F0004DF045EC8FF020EE29F039D843D8CB6B11
:107A0000010ECC6FD5EC7AF020EE22F030D8DF50AA
:107A10000AE020EE23F02BD835D8010ECB6FCC6BCB
:107A2000D5EC7AF008D0990E7A6F240E7B6FC2ECF9
:107A30002DF045EC8FF020EE25F019D823D8010E5B
:107A4000CB6FCC6FD5EC7AF0C60E7A6F230E7B6FBE
:107A500013D845EC8FF020EE27F009D813D8020E8A
:107A6000CB6F010ECC6FD5EC7AF0F3EF6DF0425096
:107A7000D9264350DA221200010E7C6F020E7D6F70
:107A80007E6B020CDECFC9F0DDCFCAF0120001011F
:107A9000ACA913D020EE4DF06BD862EC6CF0DE5048
:107AA000E61801E102D0010E01D0000E000905E147
:107AB000AFEC64F05DD8DF9012000001656B01014E
:107AC000ACAB0CD001D00AD020EE55F051D8DFB0CD
:107AD00005D001D003D0010E0001656F0001655192
