:102000002DEF10F0FFFFFFFF5F82AEEF48F0FFFF04
:10201000FFFFFFFFFFFFFFFF5F80D8CF60F0E8CF3B
:1020200061F0E0CF62F0D9CF63F0DACF64F09DB811
:102030009EA802D0E8EC8EF0A3B8A4A802D0F6ECDB
:102040008DF064C0DAFF63C0D9FF62C0E0FF61C0F9
:10205000E8FF60C0D8FF5F90100009EF2DF000503E
:102060002E01102B01F82A013EB8000CDD00D42F00
:10207000010AF4000C3001FE2F01F02F01E22F01C4
:10208000C62F01B82F01AA2F015A3101280301C21E
:102090004800222201108E009E250168E500AE2E28
:1020A00001802501622501600C01442501C2DB008D
:1020B000777C585E79716F760600003800545C7347
:1020C00000506D781C0000006E00777C395E7971DD
:1020D0006F760600003800373F7300506D783E0081
:1020E00000006E00303132333435363738396162B2
:1020F000636465660001000A006400E80310273F7E
:10210000065B4F666D7C077F67051020304060805E
:10211000A0FF6E67C579DD61021AD82E010A00069C
:102120000E0A003C000000E62E01000058020100EB
:102130000A004A240000000000005A95009C280074
:10214000743201F22C017C6C00140D012A32010062
:1021500000000AF900D2A100F0300100000014F7DD
:1021600000468600FC300100000014F7004686009F
:10217000783201000000CA2E017A830000000000BE
:10218000000068F5003EA900000000000000C6E75E
:102190000082A20000000000000058320158D70061
:1021A000000000000000543201EEA500AA020191D7
:1021B000386F75744361706163697479203E2028BB
:1021C000444154414752414D5F53594E435F534937
:1021D0005A45202B20444154414752414D5F4D49BF
:1021E0004E5F4C454E4754485F53495A45202B207B
:1021F000444154414752414D5F434845434B535539
:102200004D5F53495A452900417373657274696F74
:102210006E206661696C65643A202573206C696E76
:10222000652025643A20222573220A00616C6C50D7
:102230006F64427566666572735B504F445F4255CA
:10224000464645525F52585D20213D2028302900E6
:10225000616C6C506F64427566666572735B504F5B
:10226000445F4255464645525F54585D20213D200B
:1022700028302900636F6E6669672D3E736176654D
:1022800053657474696E677320213D2028302900DE
:102290007372632F447269766572732F506F647323
:1022A000436861696E556172742E6300636F6E6678
:1022B00069672D3E70726F7669646553697A65202F
:1022C000213D2028302900636F6E6669672D3E77B7
:1022D00072697465427974657320213D2028302924
:1022E000007372632F506F6473436861696E2F507F
:1022F0006F6473436861696E2E6300636F6E666915
:10230000672D3E72656164427974657320213D20BA
:10231000283029007772697465506572696F64208E
:102320003E207461736B506572696F6400696E70F2
:10233000757453697A65203E3D2076616C756553EE
:10234000697A65007372632F5461736B732F5261E6
:1023500064696F5461736B2E63007372632F5261F3
:1023600064696F2F566172496E742E6300737263D5
:102370002F526164696F2F526164696F2E63007020
:102380006F64735561727420213D202830290063E9
:102390006861696E20213D2028302900382E382EB2
:1023A000382E382E00286E756C6C2900302E324C79
:1023B0004F00414C2E484900414C2E4C4F0048459F
:1023C0004C50003030303000313131310032323257
:1023D000320033333333003434343400353535355B
:1023E000002D2D2D2D006572723100657272320044
:1023F0006572723300657272340065727255004402
:1024000061746100636F6E6E0050726F75005048AA
:1024100031300050482034005048203700464149B0
:102420004C004F4F4F4F0050415353004550742DB7
:10243000004E47452E002D41434300436F6E66001A
:102440006E636E6F006275737900636F6E74003730
:102450002E300046414300644546006F66660043E7
:10246000414C0043484100506F6400457272004F78
:102470004646006F6E00627200454C004F52005598
:1024800052006E63004943007264007048002A43A2
:10249000002A4600454300005A505B100FE1010E30
:1024A0000001836F1F0E826F900E846F220E856F66
:1024B0007F0E866F230E876FC0EC8EF05AC078F0C7
:1024C0005BC079F033D020EECEF07851D926795127
:1024D000DA2201D80AD00500FA6EDE50FD6EDE5019
:1024E000FE6EDE50FF6EFA5012007A6FBDD9DF50DB
:1024F0007B6F7B517825D96E000E7921DA6E7AC018
:10250000DFFFB2D910EE64F07851E1267951E22272
:10251000E7507A6F7A29656F666B000E6623686BE9
:10252000640E676FE4EC71F06551DF6E78C065F0A2
:1025300079C066F0000120EECAF06551D9266651D7
:10254000DA22DF50D96EDA6ADF500009BCE101D02F
:10255000BAD778C065F079C066F016D0696B0CD038
:102560005CD969516525E16E000E6621E26EDFCF10
:10257000E7FF53D9DF6A692B63D9DE50695DF0E369
:1025800001D0EED75DD9DF0665C0D9FF66C0DAFF9E
:102590001B0EDE1807E001D005D052D9DF50DEE176
:1025A00001D0DCD778C072F079C073F072C0D9FF67
:1025B00073C0DAFF1B0EDE180DE101D00BD020EE48
:1025C00064F07251D9267351DA22030EDF6004D011
:1025D00001D002D0000E9AD020EE01F018D9756F0C
:1025E000746B20EE02F013D974130AD974C0DEFFA5
:1025F00075C0DDFF05D9010EDB5005E15D0EDE5C27
:102600000FE301D00DD045D9676B9DEC42F0672BED
:10261000630E6765FAD701D0F8D7A5EC42F0DAD798
:10262000EFD8DECF74F0DDCF75F0050E7427000E05
:10263000752320EE64F0EBD8766F776B7451765D7E
:102640007551775903E2C6D701D0C4D772C06CF078
:1026500073C06DF0D5D8DF50050F6E6F706B716B66
:10266000010E6F6F36D0700E656F6F516C25D96E8D
:10267000000E6D21DA6EDF50666F6651686F676B12
:102680006551D96EDA6A6751DE1A6851DD1A080E93
:102690006B6FE2D868AF14D001D012D0DDD8D890DB
:1026A00067376837210E6719696F100E68196A6FEE
:1026B0006551D96EDA6A69C0DEFF6AC0DDFF03D0FA
:1026C0006551B8EC29F06B076B51E3E101D0E1D71C
:1026D0006F2B6E516F5DC7E301D0C5D7705171117B
:1026E00001E002D0010E01D0000E00090EE101D080
:1026F0000CD0CFD8676B9DEC42F0672B630E6765FB
:10270000FAD78BD7F8D789D765D7010E000952E0E1
:102710005AC080F05BC081F0B5D8DFA005D001D0F1
:1027200003D0B0D8DF9019D080C06CF081C06DF0BC
:10273000000E30EC98F06CC068F06DC069F00001DC
:1027400020EECBF06C51D9266D51DA22DF50050F07
:102750006A6F67EC8AF05AEC84F080C065F081C043
:1027600066F0000120EECBF08051D9268151DA22AB
:10277000DECF67F0DDCF68F06A6B6751050F6B6FD6
:1027800010D06B516525D96E000E6621DA6E6A5144
:102790006525E16E000E6621E26EDFCFE7FF6A2B52
:1027A0006B2B69D8DE506B5DECE301D0EAD763D8C0
:1027B0006AC0DFFF5AC065F05BC066F03AD8DFA29E
:1027C00013D001D011D020EECDF041D8DFCF67F08B
:1027D000DF2A0F0E676508D001D006D02AD8DF9215
:1027E00020EECDF034D8DF6A24D8DFB201D002D099
:1027F000010E01D0000E000902E1C9EC7DF0010CD0
:1028000020EECBF07251D9267351DA2212007251A8
:10281000D9267351DA22DF50120069516525676F9E
:10282000000E6621686F6729D96E000E6821DA6E86
:10283000120020EED1F06551D9266651DA2212003D
:1028400020EE64F06551D9266651DA2212006551F6
:10285000D9266651DA2212006551D96EDA6ADECFC6
:1028600067F0DDCF68F0120020EE64F07851D926D1
:102870007951DA22120020EE64F06551D9266651B2
:10288000DA22120020EED1F08051D9268151DA22CD
:10289000120072C065F073C066F01200F1C072F0F1
:1028A000F2C073F0F3C074F0F4C075F0B6EC88F0C9
:1028B000000901E0120027EC90F070C0E7F171C050
:1028C000E8F1E7C1D9FFE8C1DAFFDF50030B030AE3
:1028D00003E1010E0101AF6F0101AF0514E1E7C192
:1028E000D9FFE8C1DAFFDF50030B030A0CE0E7C1B0
:1028F000D9FFE8C1DAFFDF500001F56F700EF51760
:1029000002E10101AF6B0101AF0501E023D142EC0F
:1029100098F065C0E9F166C0EAF1E7C1D9FFE8C106
:10292000DAFF0101DFA82BD0E9C168F0EAC169F044
:10293000F1C06AF0F2C06BF0F3C06CF0F4C06DF05F
:10294000B4EC87F0E9C16BF0EAC16CF020EE46F020
:10295000E951D926EA51DA2201D80AD00500FA6EE7
:10296000DE50FD6EDE50FE6EDE50FF6EFA5012003D
:10297000010E0001656F000EC6EC86F029D0E9C19A
:1029800068F0EAC169F0F1C06AF0F2C06BF0F3C020
:102990006CF0F4C06DF05EEC89F0E9C16BF0EAC157
:1029A0006CF020EE49F0E951D926EA51DA2201D83B
:1029B0000AD00500FA6EDE50FD6EDE50FE6EDE506F
:1029C000FF6EFA501200000E0001656BC6EC86F037
:1029D00036EC98F065C0E9F166C0EAF1E7C1D9FFCD
:1029E000E8C1DAFF0101DFAA2AD0E9C168F0EAC133
:1029F00069F0F1C06AF0F2C06BF0F3C06CF0F4C0A3
:102A00006DF0B4EC87F0E9C16BF0EAC16CF020EE38
:102A100046F0E951D926EA51DA2201D80AD0050058
:102A2000FA6EDE50FD6EDE50FE6EDE50FF6EFA5026
:102A30001200010E0001656FC6EC86F029D0E9C1D5
:102A400068F0EAC169F0F1C06AF0F2C06BF0F3C05F
:102A50006CF0F4C06DF05EEC89F0E9C16BF0EAC196
:102A60006CF020EE49F0E951D926EA51DA2201D87A
:102A70000AD00500FA6EDE50FD6EDE50FE6EDE50AE
:102A8000FF6EFA5012000001656B010EC6EC86F075
:102A90003CEC98F065C0E9F166C0EAF1E7C1D9FF06
:102AA000E8C1DAFF0101DFAC2BD0E9C168F0EAC16F
:102AB00069F0F1C06AF0F2C06BF0F3C06CF0F4C0E2
:102AC0006DF0B4EC87F0E9C16BF0EAC16CF020EE78
:102AD00046F0E951D926EA51DA2201D80AD0050098
:102AE000FA6EDE50FD6EDE50FE6EDE50FF6EFA5066
:102AF0001200010E0001656F020EC6EC86F03DD09B
:102B0000E9C168F0EAC169F0F1C06AF0F2C06BF0A7
:102B1000F3C06CF0F4C06DF05EEC89F0E9C16BF0CD
:102B2000EAC16CF020EE49F0E951D926EA51DA22E7
:102B300001D80AD00500FA6EDE50FD6EDE50FE6E42
:102B4000DE50FF6EFA5012000001656B020EC6ECFB
:102B500086F013D0899E899C8F968F90000E00017D
:102B6000656BC6EC86F00001656B010EC6EC86F065
:102B70000001656B020EC6EC86F0F1C0E3F0F2C016
:102B8000E4F0F3C0E5F0F4C0E6F0010E0001E76FF9
:102B9000E86BE96BEA6BEB6BCDEF2DF07AC1D9FFF7
:102BA0007BC1DAFF01D80AD00500FA6EDE50FD6E57
:102BB000DE50FE6EDE50FF6EFA50120065C0FAF273
:102BC00066C0FBF20201FA51FB113BE001017851B2
:102BD0000201FA1936E1010179510201FB1931E1D3
:102BE000000E0001676F0C0E686F6A6BFA0E696F5A
:102BF000010120EE03F07A51D9267B51DA2201D867
:102C00000AD00500FA6EDE50FD6EDE50FE6EDE501C
:102C1000FF6EFA50120067C0F8F268C0F9F2000EB9
:102C2000E46F0C0EE56FF8C2E6F0F9C2E7F0000EB3
:102C3000E86F0B0EE96F000EEB6FFA0EEA6F4EECC9
:102C400040F0FAC278F1FBC279F100C26EF001C225
:102C50006FF002C270F003C271F00201002B000E8F
:102C60000123022303236EC065F06FC066F070C0BD
:102C700067F071C068F004C269F005C26AF006C26C
:102C80006BF007C26CF0B1EC73F06551661167111F
:102C9000681101E002D0010E01D0000E000963E0CE
:102CA000000E0201FC6F0B0EFD6FFC0E0001826F27
:102CB000020E836F856BFA0E846FFE0E866F020E16
:102CC000876F03EC90F0FCC266F0FDC267F0FEC2B5
:102CD00068F0FFC269F0010120EE06F07A51D926B2
:102CE0007B51DA2201D80AD00500FA6EDE50FD6E63
:102CF000DE50FE6EDE50FF6EFA50120020EE01F044
:102D00003B50D9263C50DA22DFB611D001D00FD08B
:102D100020EE01F03B50D9263C50DA22DFBA01D038
:102D200002D0010E01D0000E656F666B0AD020EE56
:102D300001F03B50D9263C50DA22DF96666B010E3B
:102D4000656F20EE01F03B50D9263C50DA2265B188
:102D500002D0DF9A01D0DF8A395004E001D002D0DE
:102D60003A8001D03A9020EE01F03B50D9263C50F9
:102D7000DA22DFAA35D001D033D020EE02F03B506A
:102D8000D9263C50DA22DE2A000EDE22DE22DD22A7
:102D9000DD52DD52030EDB500BE1020EDB5008E189
:102DA000010EDB5005E10A0EDE5C1AE301D018D0FB
:102DB00020EE01F03B50D9263C50DA22DF8820EE8D
:102DC00001F03B50D9263C50DA22DF9A20EE02F087
:102DD0003B50D9263C50DA22DE6ADE6ADE6ADD6AC2
:102DE0000001656B395008E001D006D03AA004D04C
:102DF00001D002D0010E656F6551000948E001D095
:102E0000010C3A307F0BC76F040EC76536D001D076
:102E100034D039A605D001D003D038EC99F03996DA
:102E200039A00CD001D00AD00101CAB101D002D022
:102E3000010E01D0000ECBEC8AF0399039A205D0FA
:102E400001D003D014EC98F0399239A405D001D008
:102E500003D026EC99F0399439A80CD001D00AD0CF
:102E60000101CAB501D002D0010E01D0000E07EC5D
:102E700096F039983A90010E3A163A307F0BC76FA8
:102E8000C72BC7373A50C719010BC7193A6E010C47
:102E90000101F4EC6CF0DFB42CD122EE0EF0ACECBE
:102EA00073F0DFA226D1C3C1D9FFC4C1DAFF98C035
:102EB000E1FF99C0E2FFDE50E65C05E320D90001A6
:102EC000886F020E38D01BD97F0D41D900019A516D
:102ED0000101C32500019C6F9B510101C421000128
:102EE0009D6F020E9C259E6F000E9D219F6F20EE10
:102EF00005F09E51D9269F51DA2210EE01F098512B
:102F0000E1269951E222DE50E65C12E220EE02F068
:102F10000FD9100EDF600CD020EE05F009D9030E9A
:102F2000DF6006D020EE06F003D9640EDF6405D022
:102F3000E6D8886F030E896FDFD020EE01F0F8D855
:102F4000DF50140D04D99A519E259C6F9B519F21EF
:102F50009D6F070E9C25A06F000E9D21A16FA0C044
:102F600065F0A1C066F098C067F099C068F020EEE7
:102F700002F0E3D810EE02F0CFD801E102D0010E4A
:102F800001D0000E6F6F716B22D020EE03F0D5D808
:102F9000DECF69F0DDCF6AF071516925D96E000E80
:102FA0006A21DA6E715165256C6F000E66216D6FB6
:102FB000030E6C25E16E000E6D21E26EDE50E61808
:102FC00005E001D003D0010E6F6F0CD0712B20EE05
:102FD00002F06551D9266651DA22DE50715DD5E3E3
:102FE00001D0D3D7010E706F20EE05F0A6D810EEF9
:102FF00012F092D810E101D00ED020EE06F09DD84C
:1030000010EE13F089D807E101D005D06F5103E12C
:1030100001D001D0706B7051000967E0A0C065F06D
:10302000A1C066F098C067F099C068F08BD8DF50F7
:10303000020DF3CF69F0F4CF6AF069510101C325A5
:1030400000016B6F6A510101C42100016C6F060E13
:103050006B256D6F020E6C216E6F20EE02F063D84F
:1030600010EE02F052D86F6B1CD020EE03F05BD84C
:10307000DECF69F0DDCF6AF06F516925D96E000EA1
:103080006A21DA6E6F5165256B6F000E66216C6FD9
:10309000030E6B25E16E000E6C21E26EDFCFE7FFC1
:1030A0006F2B20EE02F03FD8DE506F5DDEE301D0E3
:1030B000DCD720EE05F037D810EE12F026D820EE3F
:1030C00006F031D810EE13F020D820EE01F06D514B
:1030D000D9266E51DA22DF8035D86DC0E1FF6EC08F
:1030E000E2FFDFCFE7FF32EC92F00101F4EC6CF08D
:1030F000DF8205D837EC2CF0510E1AEF8AF098C019
:10310000D9FF99C0DAFFDF5012006551E126665100
:10311000E222DFCFE7FF12006551E1266651E2228D
:10312000DE50E61812006751D9266851DA221200E3
:103130009851D9269951DA2212006751D92668513F
:10314000DA22120067C0D9FF68C0DAFF1200F3CF9D
:103150009AF0F4CF9BF0120022EC98F065C073F067
:1031600066C074F0290E00012CD9696B020E6B6FDA
:1031700016EC8BF0270E25D9020E696F6B6F16ECDB
:103180008BF0230E1ED9040E2BD916EC8BF0250ED6
:1031900018D9060E25D916EC8BF02B0E12D9080E75
:1031A0001FD916EC8BF02D0E0CD90A0E19D916EC7E
:1031B0008BF03A0E06D90C0E17D916EC8BF018D9F5
:1031C0000D0E12D916EC8BF003D949EC66F0B8EC71
:1031D00095F065C073F066C074F0290E0001F1D857
:1031E000100EFED816EC8BF0270EEBD8120EF8D886
:1031F00016EC8BF0230EE5D8140EF2D816EC8BF0FB
:10320000250EDFD8160EECD816EC8BF02B0ED9D885
:10321000180EE6D816EC8BF02D0ED3D81A0EE0D887
:1032200016EC8BF03A0ECDD81C0EDED816EC8BF0D7
:10323000DFD81D0ED9D816EC8BF0CAD849EC66F051
:10324000C4EC95F065C073F066C074F0290E0001FF
:10325000B8D8200EC5D816EC8BF0270EB2D8220EA7
:10326000BFD816EC8BF0230EACD8240EB9D816ECD0
:103270008BF0250EA6D8260EB3D816EC8BF02B0EAD
:10328000A0D8280EADD816EC8BF02D0E9AD82A0EA9
:10329000A7D816EC8BF03A0E94D82C0EA5D816ECC5
:1032A0008BF0A6D82D0EA0D816EC8BF091D849EC57
:1032B00066F0380E86D8440E93D816EC8BF0B60E16
:1032C000676F010E686F6A6B300E8ED816EC8BF04C
:1032D000C10E676F010E686F6A6B310E85D816ECF0
:1032E0008BF0C20E676F010E686F6A6B320E7CD86E
:1032F00016EC8BF00101C297D10E0001676F010E31
:10330000686F6A6B330E79D816EC8BF0560E676FC8
:10331000686B6A6B380E71D816EC8BF0D90E676F3C
:10332000010E686F6A6B3C0E68D816EC8BF0D50EF8
:10333000676F010E686F6A6B400E5FD816EC8BF0FA
:10334000E60E676F010E686F6A6B460E4DD816EC7D
:103350008BF0DD0E676F010E686F6A6B470E40D809
:1033600016EC8BF0E30E676F010E686F6A6B490E07
:1033700037D816EC8BF072EC98F065296E6F000E62
:1033800066216F6F6EC067F06FC068F06A6B500E99
:103390002BD816EC8BF0706B702B0E0E7065FCD773
:1033A000710E676F686B6A6B880E1ED816EC8BF017
:1033B00071B103D00101CA9102D00101CA8100009C
:1033C00012007325676F000E7421686F6A6B12001C
:1033D00073C065F074C066F072C067F0686B12006D
:1033E000696F020E6B6F020C696F010E6B6F010C3F
:1033F000720E676F686B6A6B1200696F040E6B6FF9
:10340000040C0450800B0D6E04500424136E03BE94
:103410001380135008E0132804E1016A026A036A6A
:10342000046A038E04D0016A026A036A046A0850BF
:10343000800B0D1A085008240E6E07BE0E800E5029
:1034400008E00E2804E1056A066A076A086A078E22
:1034500004D0056A066A076A086A0E5002E0135033
:1034600005E1016A026A036A046A12000750010258
:10347000F3CF18F0F4CF19F018500F6E106A116ADC
:10348000126A1950146E156A166A176A06500202FB
:10349000F3CF18F0F4CF19F018500F26000E1022B9
:1034A0001122122219501426000E1522162217225C
:1034B00005500302F3CF18F0F4CF19F018500F267F
:1034C000000E10221122122219501426000E15226D
:1034D0001622172211C012F010C011F00FC010F008
:1034E0000F6A05500202F3CF18F0F4CF19F018500C
:1034F0000F2619501022000E11221222065001022E
:10350000F3CF18F0F4CF19F018500F2619501022ED
:10351000000E1122122211C012F010C011F00FC0C3
:1035200010F00F6A05500102F3CF18F0F4CF19F034
:1035300018500F2619501022000E11221222075087
:103540000202F3CF18F0F4CF19F0185014261950D6
:103550001522000E1622172206500302F3CF18F090
:10356000F4CF19F01850142619501522000E162207
:10357000172207500302F3CF18F0F4CF19F01850B8
:10358000096E19500A6E0B6A0C6A0BC00CF00AC067
:103590000BF009C00AF0096A095014260A501522D6
:1035A0000B5016220C50172212501426000E152212
:1035B0001622172211C012F010C011F00FC010F027
:1035C0000F6A0E5013C009F00A6A0926000E0A227B
:1035D000820E0924186EFF0E0A20196E0FD0D890A3
:1035E000143615361636173612BE1480D8900F369C
:1035F0001036113612361806D8A0190616AEEFD7B7
:103600000E6A12AE13D00F50096E10500A6E115090
:103610000B6E7F0E12140C6E09500A100B100C105A
:1036200003E0010E0E6E02D014B0FBD70E500EE078
:10363000142A000E15221622172217A007D01734BD
:103640001732163215321432184A192A19BE0AD006
:10365000195002E1182806E3146A156A800E166EE6
:103660007F0E15D019BE04D0195008E1180406E2E7
:10367000146A156A166A176A0D6A0AD018C013F020
:103680007F0E1616176A13B0168ED8901330176E69
:103690000D50171214C001F015C002F016C003F04F
:1036A00017C004F012009C0501E029D122EC98F02B
:1036B00065C076F066C077F0290E000124D96B6BE7
:1036C000020E6D6F51EC7DF0270E1DD9020E6B6F4F
:1036D0006D6F51EC7DF0230E16D9040E1BD951EC01
:1036E0007DF0250E10D9060E15D951EC7DF02B0E6C
:1036F0000AD9080E0FD951EC7DF02D0E04D90A0E0F
:1037000009D951EC7DF03A0EFED80C0E07D951ECD8
:103710007DF0350EF8D80D0E01D951EC7DF0B8ECE6
:1037200095F065C076F066C077F0290E0001EBD801
:10373000100EF0D851EC7DF0270EE5D8120EEAD825
:1037400051EC7DF0230EDFD8140EE4D851EC7DF05F
:10375000250ED9D8160EDED851EC7DF02B0ED3D81D
:10376000180ED8D851EC7DF02D0ECDD81A0ED2D827
:1037700051EC7DF03A0EC7D81C0ED0D851EC7DF03C
:10378000350EC1D81D0ECAD851EC7DF0C4EC95F0B1
:1037900065C076F066C077F0290E0001B4D8200E1F
:1037A000B9D851EC7DF0270EAED8220EB3D851EC2B
:1037B0007DF0230EA8D8240EADD851EC7DF0250E57
:1037C000A2D8260EA7D851EC7DF02B0E9CD8280E3F
:1037D000A1D851EC7DF02D0E96D82A0E9BD851EC35
:1037E0007DF03A0E90D82C0E99D851EC7DF0350E24
:1037F0008AD82D0E93D851EC7DF0380E84D8440E23
:1038000089D851EC7DF0B60E696F010E6A6F6C6B52
:10381000300E84D851EC7DF0C10E696F010E6A6FD5
:103820006C6B310E7BD851EC7DF0C20E696F010ECE
:103830006A6F6C6B320E72D851EC7DF0D10E696FED
:10384000010E6A6F6C6B330E6DD851EC7DF0560E25
:10385000696F6A6B6C6B380E65D851EC7DF0D90ED0
:10386000696F010E6A6F6C6B3C0E5CD851EC7DF099
:10387000D50E696F010E6A6F6C6B400E53D851EC18
:103880007DF0E60E696F010E6A6F6C6B460E46D8CE
:1038900051EC7DF0DD0E696F010E6A6F6C6B470EA7
:1038A00039D851EC7DF0E30E696F010E6A6F6C6BD5
:1038B000490E30D851EC7DF072EC98F06529726FAA
:1038C000000E6621736F72C069F073C06AF06C6B92
:1038D000500E24D851EC7DF0756B752B0E0E75656E
:1038E000FCD70101000ECAB1010E0001746F740E05
:1038F000696F6A6B6C6B880E11D851EC7DF0010119
:103900009C6B000012007625696F000E77216A6FAC
:103910006C6B12006B6F020E6D6F020C6B6F010E01
:103920006D6F010C6B6F040E6D6F040C74510CEC19
:103930002BF0030EDF6E7451D96EDA6ADECF75F0AC
:10394000DDCF76F075C0D9FF76C0DAFF1B0EDF6ED3
:1039500074510CEC2BF0F9D83D0EDF6E74510CEC69
:103960002BF0DF2A74510CEC2BF0EFD8DF6A745186
:103970000CEC2BF0DF2A74510CEC43F0DECF65F039
:10398000DDCF66F06B6B6B51020DF3CF67F0F4CFB8
:1039900068F067516525696F685166216A6F070E87
:1039A0006925D96E020E6A21DA6EDFA004D001D03B
:1039B00002D06B2907D06B2B030E6B65E4D701D0C7
:1039C000E2D7000E786F785101E1010C74510CECD4
:1039D0002BF0BBD878C0DFFF74510CEC2BF0DF2A42
:1039E00074C065F078C066F066517F0DD8D8655117
:1039F0000CEC43F0DECF69F0DDCF6AF0675169254A
:103A00006B6F68516A216C6F830E6B256F6FFF0EB1
:103A10006C21706FBAD8DA22DF506D6FB6D87DD8BE
:103A200065510CEC2BF0DF2A716B62D07151140DD3
:103A3000B6D867516F25696F685170216A6F070E9C
:103A40006925726F000E6A21736F65510CEC2BF0C3
:103A50008CD871C0DFFF65510CEC2BF0DF2A6E6B48
:103A600024D06E517225676F000E7321686F030EAC
:103A70006725D96E000E6821DA6E655135EC2BF0A2
:103A8000696F6551E16EE26AE6CF6AF0E5CF6BF0EF
:103A900069516A25E16E000E6B21E26EDFCFE7FF10
:103AA00065510CEC2BF0DF2A6E2B20EE02F073D860
:103AB000DA22DE506E5DD5E301D0D3D765510CEC30
:103AC0002BF053D8DF6A65510CEC2BF0DF2A20EE87
:103AD00012F061D822D865510CEC2BF0DF2A20EED1
:103AE00013F059D81AD865510CEC2BF0DF2A712B42
:103AF0006D51715D9BE301D099D7745182EC33F025
:103B0000B8EC3DF0E76A745187EC33F0B8EC3DF067
:103B100074510CEC2BF081EF57F0DA226551E16E15
:103B2000E26A020EE126E750676F6551E16EE26AD4
:103B3000E6CF68F0E5CF69F067516825E16E000EC9
:103B40006921E26EDFCFE7FF1200DF50756F74511D
:103B5000D96EDA6ADECF76F0DDCF77F07551762553
:103B6000D96E000E7721DA6E1200DF50676F655153
:103B7000D96EDA6ADECF68F0DDCF69F0675168256B
:103B8000D96E000E6921DA6E120020EE05F06F5139
:103B9000D926705112007251D92673511200F3CFF9
:103BA00067F0F4CF68F012006851800B716F6851B4
:103BB0006825736F67BF7381735105E0732901E155
:103BC00006D9678F03D0656B666B676B686B6C514A
:103BD000800B726F711901E0718D6C516C25726FE1
:103BE0006BBF7281725108E0722904E1696B6A6BE4
:103BF0006B6B6C6B6B8F03D0696B6A6B6B6B6C6BF5
:103C00007351725D22E271AD02D0800E711B73C0E0
:103C100074F072C073F074C072F065C074F069C063
:103C200065F074C069F066C074F06AC066F074C074
:103C30006AF067C074F06BC067F074C06BF068C066
:103C400074F06CC068F074C06CF0746B735172C027
:103C50006DF06E6B6D5F000E6E5B6EBF15D06E51BA
:103C600003E11A0E6D5D10E3C2D8010ED8B4000E48
:103C7000746FADD872C073F00AD074A102D0BCD8F2
:103C800002D0D89074339AD87251735DF6E371BD47
:103C900015D0735101E1A6D0695165276A51662399
:103CA0006B5167236C51682368A153D074A102D073
:103CB000A3D802D0D890743381D84BD06951655DB8
:103CC0006A5166596B5167596851800A6D6F6C5122
:103CD000800A6D591FE26551695D6D6F66516A59C1
:103CE0006E6F67516B596F6F68516C59706FFF0E33
:103CF0006D25656FFF0E6E21666FFF0E6F21676F7A
:103D0000FF0E7021686F800E711B746D74510AE193
:103D100063D808D06951655F6A51665B6B51675B18
:103D20006C51685B64D813E1745111E15BD0D89099
:103D3000653766376737683774BF658174A102D00D
:103D4000D88001D0D8907437735101E0730767AF02
:103D5000EED7726B74AF0AD074C06DF07F0E6D1722
:103D600003E0010E726F02D065B1FBD772510BE018
:103D700033D868A108D06835683367336633653354
:103D8000732901E0732B732902E0735104E11FD8FA
:103D9000735101E1716B73A102D0678F01D0679FEE
:103DA000D8907331686F71BF688F65C065F066C069
:103DB00066F067C067F068C068F0120065B1748F84
:103DC00068356833673366336533732B1200656B70
:103DD000666B676B686B1200652B000E66236723AA
:103DE0006823000C656B666B676B686B120065512E
:103DF0006611671168111200D89074310109746F4F
:103E000012009B6F00019B51E4EC7FF067C09CF0B7
:103E100068C09DF000019C519D11D8B412009CC057
:103E200065F09DC066F020EC8EF00009D8B4120059
:103E3000250E9E6F9F0E916F926B91C0D9FF92C01D
:103E4000DAFF9BC0DFFF20EE01F09151D92692519D
:103E5000DA2210EE3AF0F4D8E222E7501CEC95F0AA
:103E6000DF6E9E0EB8D886EC5BF020EE22F0C1D853
:103E7000DF501EE1260E9E6F9F0E936F946B93C0D2
:103E8000D9FF94C0DAFFCCD8B4D810EE01F093512A
:103E9000E1269451A8D820EE1FF0ABD810EE03F025
:103EA0009351E1269451B7D896D886EC5BF04CD06C
:103EB000270E9E6F9F0E976F986B97C0D9FF98C083
:103EC000DAFFAED896D810EE23F0BAD899EC4AF0C3
:103ED0009BD8D8A020EE23F08CD8DECF8DF0DDCF9C
:103EE0008EF020EE01F0B0D88DC0DEFF8EC0DDFF79
:103EF00020EE1FF07ED810EE03F09751E126985186
:103F0000E222DFCFE7FF20EE23F073D810EE25F09A
:103F100097D899EC4AF078D8D8A020EE23F069D849
:103F2000DECF8FF0DDCF90F020EE04F08DD88FC083
:103F3000DEFF90C0DDFF20EE1FF05BD810EE06F034
:103F40009751E1269851AFD7290E9E6F9F0E956F1E
:103F5000966B6FD820EE2BF04CD850D844D89E0EDC
:103F60003AD886EC5BF02A0E9E6F63D820EE2DF0D7
:103F700040D844D838D89E0E2ED886EC5BF02B0E55
:103F80009E6F9F0E996F9A6B99C0D9FF9AC0DAFF06
:103F90009BC0DFFF20EE27F02CD810EE01F045D8B3
:103FA00022D820EE1FF025D810EE03F03ED8E222F2
:103FB000DFCFE7FF20EE29F01CD810EE04F035D853
:103FC00012D820EE1FF015D810EE06F02ED823D808
:103FD00002D886EF5BF07E6F36C07FF037C080F08E
:103FE00038C081F01200E222DECFE6FFDDCFE5FF30
:103FF00012009C51D9269D51DA22120010EE01F0D8
:104000009551E126965112008C6FDE50800A8C5932
:1040100020EE25F01200E222DFCFE7FF9E0E120015
:104020009BC0DFFF20EE25F012009951E1269A5146
:10403000120095C0D9FF96C0DAFF9BC0DFFF1200C7
:104040009C51E1269D5112009751D9269851DA22B0
:104050001200A3EC78F007D90FD999EC7FF0F4D8CF
:10406000E8EC68F07DC0E2F07EC0E3F07FC0E4F0F1
:1040700080C0E5F0DEC0D1F0DFC0D2F0E0C0D3F008
:10408000E1C0D4F0E2C0D5F0E3C0D6F0E4C0D7F090
:10409000E5C0D8F0C00ED96F020EDA6FB70EDB6F35
:1040A000020EDC6FF4EC6EF0D1C027F2D2C028F221
:1040B000DAD8320EE8D899EC7FF0C6D8E8EC68F090
:1040C0007DC0E6F07EC0E7F07FC0E8F080C0E9F098
:1040D000CAD8D2D899EC7FF0B7D8E8EC68F07DC0A8
:1040E000EAF07EC0EBF07FC0ECF080C0EDF0E6C0FF
:1040F0009CF0E7C09DF0E8C09EF0E9C09FF0EAC0E8
:10410000A0F0EBC0A1F0ECC0A2F0EDC0A3F0E60E71
:10411000A46F030EA56F09EC30F09CC029F29DC07E
:104120002AF2A1D8640EAFD899EC7FF08DD8E8ECD4
:1041300068F07DC08AF07EC08BF07FC08CF080C0BC
:104140008DF0CCEC8DF08AC02BF28BC02CF28BD88A
:10415000640E99D899EC7FF077D8E8EC68F07DC0D0
:10416000EEF07EC0EFF07FC0F0F080C0F1F0DEC076
:104170008AF0DFC08BF0E0C08CF0E1C08DF0EEC0C3
:104180008EF0EFC08FF0F0C090F0F1C091F087ECAE
:1041900066F08AC02DF28BC02EF265D86DD899ECEE
:1041A0007FF052D8E8EC68F07DC08AF07EC08BF0DA
:1041B0007FC08CF080C08DF035EC8CF08AC02FF27F
:1041C0008BC030F250D858D899EC7FF03DD8E8EC4D
:1041D00068F07DC08AF07EC08BF07FC08CF080C01C
:1041E0008DF0D4EC85F08AC031F28BC032F23BD82E
:1041F0003C0E49D899EC7FF027D8E8EC68F07DC0F8
:104200008FF07EC090F07FC091F080C092F0DAEC29
:1042100081F08FC033F290C034F2270E656F020E2A
:10422000666F686B070E676FDEC069F0DFC06AF00B
:10423000E0C06BF0E1C06CF0920E6D6F1E0E6E6F01
:10424000010E6F6F8FEF8CF071C07DF072C07EF049
:1042500073C07FF074C080F0E80E816F030E826F30
:10426000836B846B030CDEC071F0DFC072F0E0C0C2
:1042700073F0E1C074F01200E80E756F030E766FF4
:10428000776B786B030C756F766B776B786B1200BE
:104290008051800B896F805180258B6F7FBF8B8110
:1042A0008B5105E08B2901E102D97F8F01D0FFD826
:1042B0008451800B891B845184258A6F83BF8A8136
:1042C0008A5105E08A2901E1EDD8838F01D0EAD82F
:1042D0008A5102E08B5105E17D6B7E6B7F6B806BB9
:1042E000120083517D03B1D88C6F8D6B8E6B8F6BF9
:1042F0009551906F916B926B936B82517E03A5D811
:10430000B2D881517F03A1D8AED8A5D881517E0300
:104310009CD8B5D882517D0398D8B1D89CD881510A
:104320007D0393D8ACD883517E038FD8B4D8825103
:104330007F038BD8B0D883517F0387D8856F955181
:10434000866F876B886B87C088F086C087F085C0D2
:1043500086F0856B85519027865191238751922352
:10436000885193238F51902791D875D88A518BC04B
:1043700085F0866B8527000E8623820E8525946F37
:10438000FF0E8621956F0FD0D890903791379237D6
:1043900093378FBF9081D8908C378D378E378F377A
:1043A0009407D8A0950792AFEFD78A6B8FAF13D041
:1043B0008C51856F8D51866F8E51876F7F0E8F1553
:1043C000886F855186118711881103E0010E8A6F6D
:1043D00002D090B1FBD78A510BE0902B57D893A114
:1043E00007D093359333923391339033944B952B7D
:1043F00095BF0AD0955102E1942906E3906B916B29
:10440000800E926F7F0E15D095BF04D0955108E1B4
:10441000940506E2906B916B926B936B896B0AD05B
:1044200094C08BF07F0E9217936B8BB1928FD890C4
:104430008B31936F8951931390C07DF091C07EF0C2
:1044400092C07FF093C080F01200F3CF94F0F4CFCD
:1044500095F0945112008EC08FF08DC08EF08CC0FC
:104460008DF08C6B12008C27000E8D238E238F23F2
:1044700095519027000E912392239323000C8C27B3
:1044800095518D23000E8E238F23000C000E912357
:1044900092239323000C902795519123000E922391
:1044A0009323000C816B826B836B846B12007D6B9A
:1044B0007E6B7F6B806B12008A6F00018B6B070E27
:1044C0008A190FE108EC88F0F1D898EC8EF004EC32
:1044D00088F0ECD898EC8EF000EC88F0E7D898EFF4
:1044E0008EF0090E8A19D8B41200896BA5D085C048
:1044F000D9FF86C0DAFF83C0E1FF84C0E2FFDE504F
:10450000E61801E1A7D08B51220F7E6F300E7F6F2E
:1045100083C0D9FF84C0DAFFDF50806F8B511B0F3F
:1045200098EC8EF097D020EE01F0C8D810EE01F094
:104530008351E1268451E222DE50E61801E18AD05F
:104540008B51770F7E6F300E7F6F20EE01F09AD87F
:10455000700F98EC8EF07ED020EE02F0AFD810EE07
:1045600002F08351E1268451E222DE50E61872E027
:104570008B51470F8FD886D8440F98EC8EF0A7D870
:1045800089D880D84B0F98EC8EF09DD883D87AD8F4
:104590004B0F98EC8EF05ED020EE03F08FD810EE2B
:1045A00003F08351E1268451E222DE50E61852E006
:1045B0008B51220F7E6F370E7F6F20EE03F062D893
:1045C0001B0F98EC8EF046D020EE04F077D810EE5A
:1045D00004F08351E1268451E222DE50E6183AE0ED
:1045E0008B51770F7E6F370E7F6F20EE04F04AD825
:1045F000700F98EC8EF02ED020EE05F05FD810EE04
:1046000005F08351E1268451E222DE50E61822E0D3
:104610008B51470F45D836D8440F98EC8EF057D8B9
:104620003FD830D84B0F98EC8EF04DD839D82AD8D7
:104630004B0F98EC8EF00ED08A5101E158D7010A49
:1046400001E171D7030A88E0010AA6E0070ABCE08D
:10465000010AD2E00B0E00018B27892B030E89651E
:10466000EBD7060E8A61060C8A518325D96E000E9F
:104670008421DA6E8A518525E16E000E8621E26E74
:1046800088EF56F08351D9268451DA22DF50806FAB
:104690008B5112007E6F300E7F6F20EE02F0300CD7
:1046A0007E6F370E7F6F20EE05F0370C7F6F83C073
:1046B000D9FF84C0DAFFDF50806F180C8551D926EE
:1046C0008651DA22120000018B514E0F12000001B8
:1046D0008B514B0F12009DD020EE01F0E251D926F4
:1046E000E351DA22DF507FEF73F0010122EE01F097
:1046F000C351D926C451DA22DFA4EDEF4CF01200E9
:1047000020EE01F0E251D926E351DA22DF50F0EF3A
:104710007DF020EE01F0E251D926E351DA22DF509C
:10472000E6EF95F020EE01F0E251D926E351DA22CE
:10473000DF504FEF94F0E229DE6F000EE321DF6FD0
:1047400073EF6BF0E229986F000EE321996FDBEFB6
:1047500095F0E229986F000EE321996FD0EF4BF0AE
:10476000E229986F000EE321996F6BEF2BF0E2299D
:10477000986F000EE321996F34EF68F0E229986F8B
:10478000000EE321996F6AEF62F0E229986F000E44
:10479000E321996F40EF34F020EE01F0E251D92689
:1047A000E351DA22DF50F8EF94F020EE01F0E2510D
:1047B000D926E351DA22DECF98F0DDCF99F096EFDB
:1047C00096F020EE01F0E251D926E351DA22DECF55
:1047D00098F0DDCF99F094EF98F0E229986F000EF1
:1047E000E321996F48EF17F0E229656F000EE3218E
:1047F000666F4EEF86F0E229656F000EE321666F6B
:1048000022EF91F0E229956F000EE321966FC0EF41
:1048100098F0E2C0D9FFE3C0DAFFDF5002E10AEF0F
:104820007BF0010AD8B41200030A02E113EF6AF028
:10483000010AD8B41200070A01E14ED7140A02E1B6
:104840005CEF94F0080A02E1B1EF96F0380A01E15A
:104850004CD7610A01E154D7030A01E15AD7010A92
:1048600001E160D7070A01E166D7010A01E16AD7D1
:10487000030A01E16ED7010A01E172D70E0A01E1D4
:1048800076D7030A01E17AD7010A01E17ED71A0A35
:10489000A4E0310AD8B41200010AADE0100AD8B47D
:1048A0001200F10A01E178D7030A01E17ED7070A75
:1048B00088E0140AD8B41200010AA4E0030A94E0C4
:1048C0001200656B0101C2AB0AD001D008D0D8D864
:1048D000CED8DFB204D001D002D0010E656F000146
:1048E0006551000927E022EE0EF0C1D8DF50C30B5E
:1048F0000409DF6E0101C2A91AD0BED8B8D8DF50B2
:1049000006E0AED8DF9C030E8AEC98F00BD0A8D856
:10491000DF8CA6D8DF9EA4D8DF98A2D8DF86040E4D
:104920008AEC98F0A9D8A3D8B3D8DFCFE7FFA8D8EE
:104930009ED8DF8295D8DFB409D001D007D022EE0F
:104940000EF095D8DFA004D001D002D0000E26D002
:104950000101AC2BAC050001656FA60E6565F6D7AD
:1049600001D0F4D722EE0EF082D8DF30E8320F0B00
:1049700012E001D010D022EE0EF079D8DF30656F52
:1049800065310F0B656F652B65376537DF5065192E
:10499000C30B6519DF6E0101AC6B010E000904E069
:1049A000010E8AEC98F03BD06FD861D8DFA004D01C
:1049B00001D002D0000E20D0696B6951020DF3CFF7
:1049C00065F0F4CF66F06551F625676F6651F72103
:1049D000686F070E6725D96E020E6821DA6EDFA0B8
:1049E00004D001D002D0010E07D0692B030E6965F7
:1049F000E4D7E0D7E2D7DED7000911E031D8DF9263
:104A00002FD8DF902DD8DF8422EE0EF030D8DF8053
:104A100022EE0EF02CD8DF92090E8AEC98F030D8F6
:104A200026D8DFA2120001D012000101C2AB120091
:104A300001D0120029D81BD8DF30E8320F0B656F88
:104A4000010E6565010C01D0120022EE07F00FD8AF
:104A5000DF920101C29B18D80AD8C30EDF161200DC
:104A600022EE01F0F651D926F751DA221200F65162
:104A7000D926F751DA221200000121EEFEF01200D1
:104A8000000122EE07F01200000122EE0EF01200EB
:104A900010EE01F0F651E126F751E222120036EC59
:104AA00099F04FEC6EF00001926B936B946B956BE9
:104AB000916B9C0ED5D87E6B94EC95F04FEC6EF01C
:104AC000680E0001906FE40EE82EFED7902FFCD701
:104AD00000009C0E0001C4D87E6F94EC95F04FEC62
:104AE0006EF0680E0001906FE40EE82EFED7902F56
:104AF000FCD700000001912B020E9165DAD792815C
:104B0000920E8D6FBFEC7FF000019283920E8D6F3D
:104B1000BFEC7FF000019285920E8D6FBFEC7FF0AD
:104B200000019287920E8D6FBFEC7FF00001928999
:104B3000920E8D6FBFEC7FF00001928B920E8D6F05
:104B4000BFEC7FF00001928D920E8D6FBFEC7FF075
:104B50000001928F920E8D6FBFEC7FF00001938B5E
:104B6000920E8D6FBFEC7FF000019389920E8D6FD6
:104B7000BFEC7FF000019387920E8D6FBFEC7FF04A
:104B800000019385920E8D6FBFEC7FF0000193833F
:104B9000920E8D6FBFEC7FF000019381920E8D6FAE
:104BA000BFEC7FF00001938F920E8D6FBFEC7FF012
:104BB00000019481920E8D6FBFEC7FF00001938D08
:104BC000920E8D6FBFEC7FF000019483920E8D6F7B
:104BD000BFEC7FF000019487920E8D6FBFEC7FF0E9
:104BE00000019485920E8D6FBFEC7FF000019489D7
:104BF000920E8D6FBFEC7FF000019589920E8D6F44
:104C0000BFEC7FF000019583920E8D6FBFEC7FF0BB
:104C10000001948B920E8D6FBFEC7FF00001948F9A
:104C2000920E8D6FBFEC7FF00001948D920E8D6F10
:104C3000BFEC7FF000019581920E8D6FBFEC7FF08D
:104C40000001958B920E8D6FBFEC7FF00001958572
:104C5000920E8D6FBFEC7FF036EC99F04FEF6EF057
:104C60007A6F230E7B6F010E7C6F91C07DF0010C7B
:104C7000686F82D0240E656F320E666F010E676F0B
:104C80001200100E656FC90E666F000E676F12007E
:104C90004A0E656F210E666F010E676F1200580E87
:104CA000656F1D0E666F010E676F1200E40E656F73
:104CB000EB0E666F000E676F1200120E656FC20E6C
:104CC000666F000E676F12000C0E656F050E666F43
:104CD000010E676F1200440E656F1B0E666F010EAA
:104CE000676F1200660E656FFD0E666F000E676FD0
:104CF00012001C0E656F060E666F010E676F1200C4
:104D0000D80E656F050E666F010E676F12006E0E8E
:104D1000656F030E666F010E676F1200940E656F6C
:104D2000050E666F010E676F1200620E656FF40E5E
:104D3000666F000E676F1200100E656FF80E666FDB
:104D4000000E676F12007A0E656FDD0E666F000E43
:104D5000676F1200AC0E656FAF0E666F000E676F67
:104D60001200500E656F050E666F010E676F120020
:104D7000656B666B676B12000001685182E0020A86
:104D8000F0E0010A85E0070A8AE0010A88E0030AE8
:104D9000BEE0010A84E00F0AACE0180AE2E0010A72
:104DA00085E0090ADEE0010A88E0030A8DE03A0A9C
:104DB000D8E0010A01E16CD7030A01E169D7010AD1
:104DC0008AE0070A8FE0010A9BE0030AA7E0010AD4
:104DD000ACE00E0AB1E0030AAFE0010AA6E01B0A4C
:104DE000B2E0010AB7E0700ABCE0030ABAE0010AC7
:104DF000B8E0070AB6E0010AB4E0030AB2E0010A2B
:104E0000B0E00E0AAEE0030AACE0010AAAE01A0A1A
:104E1000A8E0310A01E12ED7110A01E163D7F10AB6
:104E2000A0E0030A9EE0070A9CE0140A01E153D7C0
:104E3000010A01E11FD7030A01E11CD799D79D6B35
:104E40009E6B9F6BA06B9E0E9D6FEF0E9E6FE10E93
:104E50009F6F410EA06FA3D8BEEC3CF0CED85C0E85
:104E6000816FFE0E826FE80E836F3A0E846F48ECFE
:104E700021F07DC099F07CD8D4EC1DF0ACD88FD84F
:104E8000BEEC3CF0BAD88BD8BEEC3CF0ADD848ECC8
:104E900021F09CD88ED8ED0E816F450E826FDE0E0C
:104EA000836FB20E846F48EC21F07DC099F060D81A
:104EB000D4EC1DF090D873D8BEEC3CF09ED86FD8DF
:104EC000BEEC3CF091D848EC21F080D872D867D87D
:104ED000BEEC3CF089D848EC21F078D86AD83A0E7C
:104EE000816F6D0E826FA00E836F2B0E846F48EC66
:104EF00021F07DC099F03CD8D4EC1DF06CD89DC059
:104F00007DF09EC07EF09FC07FF0A0C080F0816BDE
:104F1000826B200E836F410E846F48EC21F07DC0C0
:104F20009DF07EC09EF07FC09FF080C0A0F09DC02D
:104F30008FF09EC090F09FC091F0A0C092F06BECFB
:104F40005CF08FC09DF090C09EF091C09FF092C029
:104F5000A0F09DC065F09EC066F09FC067F0A0C045
:104F600068F04FEC5AF065C097F066C098F01200F8
:104F70007EC09AF07FC09BF080C09CF09DC065F021
:104F80009EC066F09FC067F0A0C068F099C069F04D
:104F90009AC06AF09BC06BF09CC06CF0120097C086
:104FA0006FF098C070F0000E70BFFF0E716F726FDF
:104FB000010C7FC09BF080C09CF099C07DF09AC02E
:104FC0007EF09BC07FF09CC080F012007DC099F005
:104FD0007EC09AF0120065C09DF066C09EF067C06A
:104FE0009FF068C0A0F012006FC081F070C082F026
:104FF00071C083F072C084F012006FC07DF070C089
:105000007EF071C07FF072C080F0120022EC98F048
:1050100065C079F066C07AF0AED88FD8C80EDE6E63
:10502000DD6A20EE27F089D86E0EB5D886D8B40E8A
:10503000DE6EBAD882D8B40EA9D87FD8010EDE6E43
:1050400081D87BD883D879D8010EDF6E98D849EC07
:1050500066F0B8EC95F065C079F066C07AF08BD850
:105060006CD82C0EDE6E010E9BD867D8640E93D8D8
:1050700064D8960EDE6E98D860D8FA0E87D85DD8C0
:10508000DE6A60D85AD862D858D8DF6A78D849EC36
:1050900066F0C4EC95F065C079F066C07AF06BD824
:1050A0004CD88A0EDE6E020E7BD847D8300EDE6EEC
:1050B000020EDD6E20EE23F040D87FD820EE25F0E2
:1050C0003CD87BD820EE2BF038D8010EDE6E3AD8D3
:1050D00034D83CD832D8020EDF6E51D849EC66F095
:1050E00020EE38F02AD8DE6ADD6A0101B66B040EC4
:1050F000C16F060EC26F5CD889EC81F02ED8E66BCA
:10510000DD6BDE6B72EC98F065C067F066C068F02E
:105110006A6B696B020E6C6F0F0E6B6FE1EC8DF0BA
:10512000786B782B0E0E7865FCD70101CA81010ED1
:105130009C6F53EC1BF0000012007951D9267A5174
:10514000DA221200DD6A20EE2DF01200580EDE6E1B
:10515000020EDD6E20EE3AF0020C020EDB6FDC6B0D
:10516000080ED56F640ED66FFD0ED76FD869E46B4D
:10517000140EE36F140C000120EE29F0120079C028
:1051800065F07AC066F0686B676B1200DE6EDD6AF0
:1051900020EE2BF01200DE6EDD6A20EE23F012000E
:1051A000DD6E20EE27F01200DD6A20EE25F0120001
:1051B000566A576A586A596AF80C440EDE6E020E37
:1051C000DD6E020CB3D8DA22DECF7AF0DDCF7BF0D1
:1051D000ADD852EC37F0B8EC3DF0E7507D6FA6D873
:1051E000BBD8B8EC3DF0E7507C6FF6C07EF0F7C05E
:1051F0007FF07A0E796FD8EC69F0000901E090D069
:105200007A0E6C6F726B736B6C5187EC33F0B8EC89
:105210003DF0E750030F706F000E30EC98F0000186
:105220006C51D96EDA6ADECF68F0DDCF69F070C0FC
:105230006AF067EC8AF0010E716F3CD0720E656FF8
:105240006C51D96EDA6ADECF6DF0DDCF6EF0715140
:105250006D25D96E000E6E21DA6EDF50666F6651D5
:10526000686F676B6551D96EDA6A6751DE1A6851EB
:10527000DD1A080E6B6F74D868AF14D001D012D04D
:105280006FD8D89067376837210E6719696F100E8D
:1052900068196A6F6551D96EDA6A69C0DEFF6AC043
:1052A000DDFF02D0655164D86B076B51E4E101D09A
:1052B000E2D7712B7051715DC1E301D0BFD76C5142
:1052C0000CEC2BF039D873C0DFFF6C510CEC2BF0D9
:1052D000DF2A6C510CEC2BF02FD872C0DFFF6C5121
:1052E0000CEC2BF0DF2A6C510CEC2BF025D80D0EBA
:1052F000DF6E6C510CEC2BF0DF2A7AC066F07BC0BD
:1053000067F07CC068F001D80BD00500FA6E01018F
:105310006451FD6E6551FE6E6651FF6EFA501200CB
:1053200005D81AD8B8EC3DF0E76A120020EE02F07A
:105330003D50D9263E501200DF506D6F6C51D96E32
:10534000DA6ADECF6EF0DDCF6FF06D516E25D96E6B
:10535000000E6F21DA6E1200DA2210EE64F01200F5
:105360006551D96EDA6ADECF67F0DDCF68F01200E2
:10537000D96EDA6AD890DE36DD3612000001786F19
:1053800078511FE0816B826B000E716F030E726F9C
:10539000D8908135D96E8235DA6ED890D936DA3622
:1053A0007151D9267251DA22B9D8814B822B82BF32
:1053B000EBD7825103E10B0E815DE6E30101A66BA1
:1053C000000C0101A651040D000EF324D96E030E4A
:1053D000F420DA6EA3D86DC079F06EC07AF06FC099
:1053E0007BF070C07CF06DC07DF06EC07EF06FC051
:1053F0007FF070C080F0A62B090EA66501D0A66BC9
:105400000001876B886B79D8DE50795DDE507A5960
:10541000DE507B597C51800A776FDE50800A7759C5
:1054200009E26BD8DECF79F0DECF7AF0DECF7BF009
:10543000DECF7CF062D87D51DE5C7E51DE587F513C
:10544000DE58DE50800A776F8051800A775909E272
:1054500054D8DECF7DF0DECF7EF0DECF7FF0DECF22
:1054600080F0874B882B88BFCED7885103E10A0E86
:10547000875DC9E37D51795D656F7E517A59666FAD
:105480007F517B59676F80517C59686F2EEC80F09B
:1054900065C083F066C084F067C085F068C086F0A0
:1054A00086BF09D08651851105E1C00E835D5D0E72
:1054B000845901E3000C86BF09D08651851105E1AE
:1054C000E00E835D2E0E845901E3010C86BF09D0E6
:1054D0008651851105E1700E835D170E845901E335
:1054E000020C86BF040C8651851105E1B80E835D60
:1054F0000B0E845901E3030C040C000E716F030EB4
:10550000726FD8908735D96E8835DA6ED890D936D3
:10551000DA367151D9267251DA2212006DC0DEFFDF
:105520006EC0DEFF6FC0DEFF70C0DEFF1200705184
:1055300073D8030EDF6E7051D96EDA6ADECF71F068
:10554000DDCF72F071C0D9FF72C0DAFF1B0EDF6EC3
:10555000705162D86AD8500EDF6E70515DD8DF2A64
:1055600070515AD862D8DF6A705156D8DF2A70510C
:1055700053D85BD8DF6870514FD88CEC33F070C0D3
:105580006BF0A4D8686B9AD803E008D001D006D09D
:10559000682B050E6865F7D701D0F5D76F6B6FD80C
:1055A00064D87CD86F2B050E6F65F9D701D0F7D77B
:1055B0006B5132D836D830D848D85DD82DD8DF2AAC
:1055C0006B512AD842D876D827D8DF2A705124D8F0
:1055D0002CD8010EDF6E70511FD8DF2A70511CD8F5
:1055E00024D8640EDF6E705117D8DF2A705182EC18
:1055F00033F0B8EC3DF0E76A705187EC33F0B8EC6B
:105600003DF0705109D8DF50FD0FE76E705104D89E
:10561000640EDF60010C000CD96EDA6A020ED92626
:10562000020C060EDF266B511200DF50716F7051B5
:10563000D96EDA6ADECF72F0DDCF73F07151722568
:10564000D96E000E7321DA6E1200DF506C6F6B5151
:10565000D96EDA6ADECF6DF0DDCF6EF06C516D255C
:10566000D96E000E6E21DA6E1200E16EE26A020E51
:10567000E126E7501200CA0EDF6E6B5112006F5127
:105680006925D96E000E6A21DA6E6B51E16EE26A0D
:10569000E6CF6CF0E5CF6DF06B5112006C27000E79
:1056A0006D236F516C25E16E000E6D21E26EDFCF30
:1056B000E7FF1200FE0EDF6E6B5112006851652588
:1056C000D96E000E6621DA6EDE28120069C065F020
:1056D0006AC066F01200C0D8E4EC7FF067C0A4F0A6
:1056E00068C0A5F00001A451A51104E1B5D8886FE8
:1056F000020E4FD0040E9825A0D8F7EC53F07FC0CF
:10570000A0F080C0A1F0982998D8F7EC53F07FC0A2
:10571000A2F080C0A3F0A2C06DF0A3C06EF0A0C044
:105720006FF0A1C070F0A4C071F0A5C072F0746BEE
:10573000DEEC34F028E201D026D0D5EC34F06C6BEE
:105740005ED808E301D006D069D804E301D002D0C6
:10575000010E6C6F6C51000916E001D014D0CCEC36
:1057600034F06C6B4CD808E301D006D057D804E372
:1057700001D002D0010E6C6F6C51000904E001D021
:1057800002D0010E746F7451000905E165D8886F6D
:10579000030E896F31D020EE3AF064D8020EDE1885
:1057A000010ED8A4000E9F6F9F5105E1A2C09BF08F
:1057B000A3C09CF004D0A0C09BF0A1C09CF020EE40
:1057C00023F050D89BC0DEFF9CC0DDFF9F5105E158
:1057D000A0C09DF0A1C09EF004D0A2C09DF0A3C0C7
:1057E0009EF020EE25F03ED89DC0DEFF9EC0DDFF7E
:1057F00032EC92F031D83BD8470E1AEF8AF020EE07
:1058000013F06751D9266851DA22DE50655D665182
:10581000800A6B6FDE50800A6B59120020EE15F083
:105820006751D9266851DA226551DE5CDE50800A64
:105830006B6F6651800A6B5912007F6F000E9921C1
:10584000806F20EE1FF0A451D926A551DA22DECFB9
:1058500081F0DDCF82F0120098C0D9FF99C0DAFF45
:10586000DF501200A451D926A551DA2212000001FE
:10587000886F896B1200939A8A9A1A0E0001816FC1
:10588000F80EE82EFED7812FFCD700008A8A200E62
:105890000001816F290EE82EFED7812FFCD700D0A2
:1058A000C00E0001A0D8300E72EC92F0C00E9BD852
:1058B000370E72EC92F0C00E96D8360E72EC92F063
:1058C000A3D83F0E7C6F300E72EC92F09DD83F0E45
:1058D0007C6F370E72EC92F097D8280E7C6F360EE4
:1058E00072EC92F06DD8300E72EC92F069D8370EEF
:1058F00072EC92F065D8360E72EC92F06ED8300EE3
:1059000072EC92F06AD8370E72EC92F066D8360ECE
:1059100072EC92F06ED8300E72EC92F06AD8370EBC
:1059200072EC92F066D8360E72EC92F0010E7E6F39
:10593000300E62EC92F0010E7E6F370E62EC92F048
:10594000010E7E6F360E62EC92F033D8300E72ECA0
:1059500092F02FD8370E72EC92F02BD8360E72ECF4
:1059600092F0826B34D8300E72EC92F030D8370E51
:1059700072EC92F02CD8360E72EC92F0822B170E4D
:105980008265F0D7180E826F400E39D8300E72EC57
:1059900092F0400E34D8370E72EC92F0400E2FD8B1
:1059A000360E72EC92F0822B9B0E8265EDD70000D2
:1059B0009B0CC00E7A6F090E7B6F030E7C6F030C7D
:1059C000C00E7A6F040E7B6FEB0E7C6FEB0C400EFB
:1059D0007A6F82C07BF07C6B400CC00E7A6F010E38
:1059E0007B6F7C6B010C7A6F060E7B6F020E7C6FF7
:1059F000020CC00E7A6F7B6B400E7C6F400C7A6F8E
:105A000082C07BF07C691200C00E7A6F050E7B6F3E
:105A1000050CF40EF66E120EF76E010EF86E06EE21
:105A2000A4F010EE36F00900F5CFEEFFE550E1509E
:105A3000FAE19A0EF66E1F0EF76E010EF86E05EE85
:105A4000CFF010EE24F00900F5CFEEFFE550E15065
:105A5000FAE1760EF66E1F0EF76E010EF86E04EE8A
:105A6000CCF010EE24F00900F5CFEEFFE550E15048
:105A7000FAE1F80EF66E1D0EF76E010EF86E03EEEB
:105A8000CBF010EE27F00900F5CFEEFFE550E15026
:105A9000FAE1DE0EF66EEF0EF76E000EF86E02EE15
:105AA00080F010EE5AF00900F5CFEEFFE550E1501E
:105AB000FAE1E80EF66E310EF76E010EF86E01EEA9
:105AC000FAF010EE06F00900F5CFEEFFE550E150D8
:105AD000FAE10CEEFAF012EE0FF0EE6AE550E1504A
:105AE000FCE1E250FAE10CEE00F0FA0EEE6AE80694
:105AF000FDE10BEE00F0FA0EEE6AE806FDE10AEEBB
:105B000000F0FA0EEE6AE806FDE109EE00F0FA0E8A
:105B1000EE6AE806FDE108EE00F0D50EEE6AE80652
:105B2000FDE107EE00F0FA0EEE6AE806FDE106EE92
:105B300000F0A40EEE6AE806FDE105EE00F0CF0EDF
:105B4000EE6AE806FDE104EE00F0CC0EEE6AE8062F
:105B5000FDE103EE00F0CB0EEE6AE806FDE102EE99
:105B600000F0800EEE6AE806FDE101EE00F0E70EBF
:105B7000EE6AE806FDE10001FA6BF96BF86BF76B72
:105B8000F66B5E6A00EE32F02C0EEE6AE806FDE17E
:105B90005F905F9200014FEF2FF0EE0E726F736B0C
:105BA00009EC77F072C0EFF073C0F0F020EE02F075
:105BB000EF51D926F051DA22DFA00AD0E3C065F018
:105BC000E4C066F0E5C067F0E6C068F0E7EC96F088
:105BD0000001E851E91108E0E8C0D9FFE9C0DAFFA7
:105BE000EFC0DEFFF0C0DDFFEA51EB1106E0EAC0D6
:105BF000D9FFEBC0DAFFEEC0DFFFEFC0D9FFF0C086
:105C0000DAFFDE501FE1DE041DE1EE511BE020EE65
:105C100002F0EF51D926F051DA22DFB413D020EE92
:105C200002F0EF51D926F051DA22DFB60BD0E3C0F3
:105C3000D5F0E4C0D6F0E5C0D7F0E6C0D8F063EC0C
:105C40008CF0010CEFC0D9FFF0C0DAFFDE04DE10EB
:105C500008E0EFC0D9FFF0C0DAFF020EDE18DE1058
:105C60003DE1EE5108E120EE02F0EF51D926F0516E
:105C7000DA22DFA4010C20EE02F0EF51D926F05118
:105C8000DA22DFB2010CEFC0D9FFF0C0DAFFDE0488
:105C9000DE100DE1DC69DB69E3C0DDF0E4C0DEF0BD
:105CA000E5C0DFF0E6C0E0F0E4EC8AF0010CEFC004
:105CB000D9FFF0C0DAFF020EDE18DE10D8A4010C06
:105CC000DC6B010EDB6FE3C0DDF0E4C0DEF0E5C0AD
:105CD000DFF0E6C0E0F0E4EC8AF0010CEFC0D9FFA1
:105CE000F0C0DAFF800EDE18DE1018E1E75116E092
:105CF000EE51D8B4010C20EE02F0EF51D926F0514C
:105D0000DA22DFB2010CE3C0D5F0E4C0D6F0E5C082
:105D1000D7F0E6C0D8F048EC8EF0010C000CE5C0DE
:105D2000D9FFE6C0DAFFDECFE7F0DDCFE8F084513F
:105D300007E100016E6B020E7AEC97F04FEC6EF00B
:105D40000001666B080E656FE7C067F0E8C068F099
:105D50006551671906E16651681901E002D0010E2C
:105D600001D0000E000917E06E6B010E7AEC97F07F
:105D7000730E7A6F240E7B6F010E7C6F7D6F7E6BCE
:105D800094EC95F0010E0201846F0201816B826B2D
:105D90004FEC6EF067D0666B040E656FE7C067F07E
:105DA000E8C068F06551671906E16651681901E0BD
:105DB00002D0010E01D0000E000916E06E6B010E3C
:105DC0007AEC97F05B0E7A6F240E7B6F010E7C6F7E
:105DD0007D6F7E6B94EC95F00201846B00016E6B1D
:105DE000020E7AEC97F0D1D7010E666F656BE7C0B3
:105DF00067F0E8C068F06551671906E166516819F7
:105E000001E002D0010E01D0000E00092BE00101DB
:105E1000010ECAA1000E020184190EE084B103D064
:105E20000101CA9102D00101CA81010EA3EC98F0D0
:105E3000D0EC98F053EC1BF0E1C0DDF0E2C0DEF0F6
:105E4000E3C0DFF0E4C0E0F022EE9FF001D80AD01A
:105E50000500FA6EDE50FD6EDE50FE6EDE50FF6E07
:105E6000FA50120002018451D8B41200835101018A
:105E7000C719D8B4120000016E6B020E7AEC97F0CD
:105E8000A8EC86F065C07AF066C07BF0010E7C6FEE
:105E9000020E7D6F7E6B94EC95F04FEF6EF06FEC21
:105EA00090F097929794010E8EA2000EFF0AF96F60
:105EB000F9478E50F919FD0BF9198E6E010E8EA25D
:105EC000000EFF0AF96FF9478E50F919FD0BF91909
:105ED0008E6E010E8EA4000EFF0AF96FF947F94786
:105EE0008E50F919FB0BF9198E6E010E8EA4000E5F
:105EF000FF0AF96FF947F9478E50F919FB0BF919A9
:105F00008E6EB5EC83F0F28EF28C79EC7DF078EC4D
:105F10008DF0D0B62FD0010E8EA2000EFF0A010127
:105F2000F96FF9478E50F919FD0BF9198E6E010EB4
:105F30008EA2000EFF0AF96FF9478E50F919FD0B7A
:105F4000F9198E6EBE0E00017A6F230E7B6F010E63
:105F50007C6F7D6B7E6B94EC95F0CB0E7A6F230E8D
:105F60007B6F010E7C6F7D6B7E6F94EC95F04FEC38
:105F70006EF0FFD7D0BA31D0010E8EA4000EFF0A0A
:105F80000101F96FF947F9478E50F919FB0BF9191F
:105F90008E6E010E8EA4000EFF0AF96FF947F947C5
:105FA0008E50F919FB0BF9198E6EBE0E00017A6F37
:105FB000230E7B6F010E7C6F7D6B7E6B94EC95F0F6
:105FC000D00E7A6F230E7B6F010E7C6F7D6B7E6F20
:105FD00094EC95F04FEC6EF0FFD7E0EC98F0B0EC5D
:105FE00071F0ACEC18F00101C151A8EC98F0070E6B
:105FF00000EC97F058EC99F0090EDE6F3D0EDF6F64
:10600000E06BE16B29EC20F0D18050EC97F02DEFA4
:1060100010F0A0519C5DA1519D59A2519E59A351D0
:106020009F590AE3000E836F2F0E9CD8140E866FC3
:10603000230E876FC0EC8EF0A4C0D9FFA5C0DAFF95
:10604000DE50DE10DE100BE1000E0001836F300E1B
:1060500089D8AC0E866F220E876FC0EC8EF00001DF
:1060600020EE03F085D808E18BD87CD8FB0E866F34
:10607000220E876FC0EC8EF0000120EE06F078D87B
:106080000AE1000E836F320E6DD8C70E866F220EA6
:10609000876FC0EC8EF0000120EE09F069D80AE1AC
:1060A000000E836F330E5ED8740E866F220E876FDC
:1060B000C0EC8EF09CC07FF39DC080F39EC081F346
:1060C0009FC082F39C0E0301836F2B0E846F000E22
:1060D000856FA0C07DF0A1C07EF0A2C07FF0A3C0FC
:1060E00080F09CC081F09DC082F09EC083F09FC074
:1060F00084F0E8EC68F07DC004F27EC005F27FC059
:1061000006F280C007F2A4C07AF1A5C07BF10101BC
:10611000786B796B0201006B016B026B036B000EF5
:106120000101C3253B6E020EC4213C6E000E00012E
:10613000956F0B0E966F986BFA0E976F010120EE1C
:1061400009F07A51D9267B51DA22DECF99F0DECFE1
:106150009AF0DDCF9BF0A1EC7DF07F0E9C6F030EDB
:106160009D6F1200826F440E846F230E856F1200A4
:10617000A451D926A551DA22DE50DE10DE1012001D
:10618000000E836F310CD5C0D9FFD6C0DAFF0001F5
:10619000DFAE000CF8C065F0F9C066F0C9EC90F015
:1061A000000901E1A8D0000E35EC7BF065C0DDF000
:1061B00066C0DEF020EE33F0F851D926F951DA222C
:1061C00010EE04F0DE50E126DD50E222E6CFDFF0F3
:1061D000E5CFE0F0E56BE66B45D020EE0DF0F85131
:1061E000D926F951DA22DECFDBF0DDCFDCF0DD514C
:1061F000E55D656FDE51E659666FDFC067F0E0C0B0
:1062000068F095EC8FF0DB516525E16FDC5166217C
:10621000E26FF8C0A5F0F9C0A6F0E1C0A7F0E2C0B7
:10622000A8F056EC45F0A5C0E3F0A6C0E4F04D0E92
:10623000716F020E726F41C073F042C074F0E5C01E
:1062400075F0E6C076F0E3C077F0E4C078F0000EB9
:106250007A6F796F92C17BF093C17CF07DEC49F04D
:10626000E54BE62B4150E55DE651800ADB6F42507D
:10627000800ADB59B2E3E56BE66B2AD0F8C0A7F0E1
:10628000F9C0A8F0D890E535D96EE635DA6E4D0E36
:10629000D926020EDA22DECFA9F0DDCFAAF044EC37
:1062A00041F0D890E535D96EE635DA6E450ED9263F
:1062B000020EDA22DECFDBF0DDCFDCF0DBC0D9FF6F
:1062C000DCC0DAFFA7C0DEFFA8C0DDFFE54BE62B90
:1062D0004150E55DE651800ADB6F4250800ADB5990
:1062E000CDE3D7C0CFF0D8C0D0F0D9C0D1F0DAC05C
:1062F000D2F009EC80F0010C730E7C6F8BD0250E70
:10630000811904E0815159EC99F084D07A6B27D03F
:106310007C51D96EDA6ADECF7DF0DDCF7EF0020EE1
:106320007C277D517E1111E1A50E7D6F230E7E6FBE
:106330000CD08CD8F76403D00800F55001D077D882
:1063400059EC99F000017D4B7E2B80D8F76403D087
:106350000800F55001D06BD800095CE0EAD77ED880
:106360006CD8D8B41200640A05E00D0A03E01A0ADA
:10637000CFE050D07C51D96EDA6ADECF7FF0DDCF2E
:1063800080F0020E7C2780AF06D0030E7A137F6D5B
:10639000801FD8B0802B010E816F815141D8A5ECB0
:1063A00059F00900F5507F5D0900F550805904E36C
:1063B000812B050E8119F1E17AC079F0030E79176E
:1063C00003E02D0E59EC99F081C07BF01FD07B517A
:1063D00027D8A5EC59F00900F5CF67F00A00F5CFF2
:1063E00068F07FC065F080C066F078EC80F065C032
:1063F0006CF066C06DF06F6B0A0E6E6FB5EC85F0D9
:106400006C51300F816F815159EC99F000017B077D
:106410007B29DDE123D8000110D801E070D71200FC
:10642000020DF50EF324F66E200EF4201200F6CFC6
:10643000E9FFF7CFEAFFEF501200714B722B000E0D
:10644000F86E0800F5CF81F0815112007DC0F6FF93
:106450007EC0F7FF000EF86E0F0E120071C0F6FF3F
:1064600072C0F7FF12006651D96EDA6ADECF76F09D
:10647000DDCF77F066510CEC43F0DECF6BF0DDCF73
:106480006CF020EE05F095D8676F6705706F060E0B
:10649000706501D0010C20EE06F08BD8716F060EEE
:1064A000716501D0010C70517F0D74D86B25696F37
:1064B00068516C216A6F020E69256E6F000E6A21A9
:1064C0006F6F070E6E25736F000E6F21746F20EED5
:1064D00005F06E51D9266F51DA2271C0DFFF070E29
:1064E000756F6D6B3CD0726B4ED8DF50786F752B2B
:1064F000060E786501D0010C39D8692960D878C0BA
:10650000DFFF7851140D46D87325D96E6851742178
:10651000DA6E70C0DFFF09D036D828D872516927EB
:10652000000E6A23030E3CD8722B2DD8DF5003E0F7
:106530000E0E7265F1D70F0E726501D0010C16D8E0
:10654000020E69253CD872C0DFFF752B1CD80ED80F
:10655000120E26D818D80AD8130E22D86D2B7151D6
:106560006D5DC1E3080E8AEC98F0000C7851140DB3
:10657000F3CF67F0F4CF68F067517325696F685106
:1065800074216A6F120075517625D96E000E77213D
:10659000DA6E1200F3CF67F0F4CF68F067511200A3
:1065A0006925E16E000E6A21E26EDFCFE7FF752BF1
:1065B00012007651D9267751DA22DF501200D96EB7
:1065C000000E6A21DA6E120070510CEC2BF0030EF3
:1065D000DF6E7051D96EDA6ADECF71F0DDCF72F006
:1065E00071C0D9FF72C0DAFF1B0EDF6E70510CEC68
:1065F0002BF078D8510EDF6E70510CEC2BF0DF2AA7
:1066000070510CEC2BF06ED8DF6A70510CEC2BF053
:10661000DF2A70510CEC2BF065D8DF6870510CEC60
:106620002BF07AD870C06BF066EC2BF0686B5EECE8
:106630002BF003E008D001D006D0682B050E68656A
:10664000F6D701D0F4D76F6B3FEC2BF035EC2BF085
:106650004EEC2BF06F2B050E6F65F6D701D0F4D7FB
:106660006B510CEC2BF011EC2BF00CEC2BF025EC1F
:106670002BF03BEC2BF00CEC2BF0DF2A6B510CECED
:106680002BF025EC2BF05AEC2BF00CEC2BF0DF2A46
:1066900070510CEC2BF026D8010EDF6E70510CEC13
:1066A0002BF0DF2A70510CEC2BF01CD8640EDF6E3F
:1066B00070510CEC2BF0DF2A705124D8B8EC3DF06F
:1066C000E76A705124D8B8EC3DF070510CEC2BF017
:1066D000DF50FD0FE76E70510CEC2BF0640EDF60A5
:1066E000010C000CDF50716F7051D96EDA6ADECF89
:1066F00072F0DDCF73F071517225D96E000E7321E7
:10670000DA6E1200D96EDA6A10EE01F01200D96E5C
:10671000DA6A10EE02F01200DF2AC5C169F0C6C1C4
:106720006AF0120020EE38F097D8DFAE16D020EED7
:1067300039F092D8DFB211D077D8D95D9CD8DA5928
:1067400090D8DB5993D8DC597BD891C0D5F192C051
:10675000D6F193C0D7F194C0D8F120EE39F07CD8AF
:10676000DFA216D020EE38F077D8DFBE11D05CD88B
:10677000D55D81D8D65975D8D75978D8D85960D829
:1067800091C0D9F192C0DAF193C0DBF194C0DCF191
:1067900056500101D95D5A6F5750DA595B6F585006
:1067A000DB595C6F5950DC595D6F5AC17DF05BC19C
:1067B0007EF05CC17FF05DC180F02C0E0001816F26
:1067C000010E74EC44F0A9EC4DF07DC05AF17EC08E
:1067D0005BF17FC05CF180C05DF156500101D55D79
:1067E000566F5750D659576F5850D759586F595000
:1067F000D859596F56C17DF057C17EF058C17FF00E
:1068000059C180F0D40E0001816FFE0E826F836942
:106810008469A9EC4DF07DC056F17EC057F17FC070
:1068200058F180C059F11200D89056348D6F57340A
:106830008E6F58348F6F5934906F8D510101120053
:106840000001946F911F921F931F941F912B000EB4
:10685000922393239423000C8B51D9268C51DA2256
:1068600012000001926F8F51010112000001936F1D
:106870009051010112000001916F8E51010112002F
:1068800085D8E4EC7FF067C09EF068C09FF00001FF
:106890009E519F1104E17AD8886F020E50D098293A
:1068A00066D8F7EC53F07FC09AF080C09BF0040EDE
:1068B00098255DD8F7EC53F07FC09CF080C09DF028
:1068C0009AC06DF09BC06EF09CC06FF09DC070F0E0
:1068D0009EC071F09FC072F0746B70D82AE201D034
:1068E00028D063D86C6BFFEC2BF009E301D007D004
:1068F0000EEC2CF004E301D002D0010E6C6F6C5151
:10690000000917E001D015D047D86C6BFFEC2BF0D5
:1069100009E301D007D00EEC2CF004E301D002D043
:10692000010E6C6F6C51000904E001D002D0010E21
:10693000746F7451000905E129D8886F030E896FBF
:1069400013D020EE27F043D89AC0DEFF9BC0DDFFB6
:1069500020EE29F03CD89CC0DEFF9DC0DDFF32EC6C
:1069600092F014D837EC2CF04B0E1AEF8AF07F6FB0
:10697000000E9921806F20EE1FF09E51D9269F5165
:10698000DA22DECF81F0DDCF82F0120098C0D9FF8D
:1069900099C0DAFFDF5012006FC065F070C066F07A
:1069A00071C067F072C068F012006DC065F06EC013
:1069B00066F071C067F072C068F012006F516D5DD3
:1069C0006E51800A736F7051800A735912009E5184
:1069D000D9269F51DA221200A1D8DE6ADD6A6CC086
:1069E00065F06DC066F07B0E676F29EC79F065C0CD
:1069F00080F066C081F080C065F081C066F06CC038
:106A000067F06DC068F07DD865C079F066C07AF037
:106A10007951705D7A51715901E21200030E746F61
:106A2000756B8051745F8151755B7DD87451DE2622
:106A30007551DD2273D8DFCF74F0DE2ADFCF75F019
:106A4000000EDD2270D8DECF76F0DDCF77F0745106
:106A50007625D96E75517721DA6EAA0EDF6E7E6BC0
:106A60007F6B21D07E517B0FD96EDA6A72C0E1FF55
:106A700073C0E2FFE7CF74F0E62AE7CF75F0000EAF
:106A8000E5226EC0E1FF6FC0E2FFE6CF76F0E5CF12
:106A900077F074517625E16E75517721E26EDFCF84
:106AA000E7FF7E4B7F2B80517E5D81517F59DAE37A
:106AB00035D86C51DE266D51DD2235D8DECF65F03C
:106AC000DDCF66F02BD8DECF67F0DDCF68F0D0ECFD
:106AD0008CF0746F23D8DECF75F0DDCF76F023D83D
:106AE000DECF77F0DDCF78F075517725D96E76510E
:106AF0007821DA6E74C0DFFF11D8DE2A000EDD22A5
:106B0000000C67516525696F685166216A6F020E36
:106B10006925656F000E6A21666F120072C0D9FF89
:106B200073C0DAFF12006EC0D9FF6FC0DAFF120027
:106B300089EC7AF0B0C0DDF0B1C0DEF0D890010190
:106B40009035D96E9135DA6E4D0ED926020EDA22C5
:106B5000DECFDBF0DDCFDCF00001D551DB25DF6FD0
:106B6000D651DC21E06F4D0E716F020E726F41C085
:106B700073F042C074F090C175F091C176F0DFC03F
:106B800077F0E0C078F0DDC079F0DEC07AF092C135
:106B90007BF093C17CF07DEC49F0E16FE1512CE199
:106BA000F8C0A7F0F9C0A8F0D89001019035D96ECF
:106BB0009135DA6E4D0ED926020EDA22DECFA9F01B
:106BC000DDCFAAF044EC41F0D89001019035D96EA8
:106BD0009135DA6E450ED926020EDA22DECFDBF0D1
:106BE000DDCFDCF0DBC0D9FFDCC0DAFF0001A7C0DD
:106BF000DEFFA8C0DDFF36D0E26BE36B2AD0F8C021
:106C0000A7F0F9C0A8F0D890E235D96EE335DA6E76
:106C10004D0ED926020EDA22DECFA9F0DDCFAAF082
:106C200044EC41F0D890E235D96EE335DA6E450E8A
:106C3000D926020EDA22DECFDBF0DDCFDCF0DBC0BE
:106C4000D9FFDCC0DAFFA7C0DEFFA8C0DDFFE24B42
:106C5000E32B4150E25DE351800ADB6F4250800A32
:106C6000DB59CDE315EC90F0D7C0CFF0D8C0D0F011
:106C7000D9C0D1F0DAC0D2F009EF80F0010E1AECE1
:106C800085F017EC94F0000902E04FEF6EF0CCECC9
:106C900098F0000904E0C2EC60F04FEF6EF00001E4
:106CA000CB6BCC6B76D0D890CB35D96ECC3573EC22
:106CB00076F0DECFCDF0DDCFCEF0000120EE33F068
:106CC00076D8DECFC9F0DDCFCAF0C9C0D9FFCAC0BF
:106CD000DAFFDF50AEEC7CF0CDC065F0CEC066F0E0
:106CE000C9EC90F0000943E0CDC067F0CEC068F079
:106CF00024EC8DF0000907E0CDC084F0CEC085F013
:106D000064EC4EF043D0000120EE3CF050D8DFA2FE
:106D100012D020EE3BF04BD8DFB60DD00101CC51A4
:106D200035E1CDC0B9F0CEC0BAF056EC93F044D8FE
:106D300042EC82F02BD0CDC067F0CEC068F076EC8C
:106D400094F0000907E0CDC084F0CEC085F04BEC94
:106D500054F01CD0000120EE3BF029D8DFA2E1D78F
:106D6000CDC0BBF0CEC0BCF0DEEC7BF00FD0CDC010
:106D700065F0CEC066F0B7EC90F0000904E11CD8D5
:106D800042EC82F003D00101CC51B6E10001CB4BC3
:106D9000CC2B0101BD510001CB5DCC51800AC96FE4
:106DA0007AEC76F0C95901E27ED74FEF6EF0CD5103
:106DB000D926CE51DA221200CDC0BBF0CEC0BCF035
:106DC000120020EE33F072D810EE09F0B8EC3DF06E
:106DD000E650E610E61044E020EE0BF067D872D8DB
:106DE00065D887D876D85ED8B8EC3DF0E7509F6F6D
:106DF000A06B20EE33F05AD810EE09F0B8EC3DF05D
:106E000001D80AD00500FA6EE650FD6EE650FE6E1F
:106E1000E650FF6EFA50120020EE0DF047D864D80D
:106E200020EE0BF043D84ED841D863D8A06B020EA9
:106E30009F6F20EE33F03AD810EE09F0B8EC3DF039
:106E400001D80AD00500FA6EE650FD6EE650FE6EDF
:106E5000E650FF6EFA50120020EE0FF027D844D013
:106E600020EE0BF023D827D821D848D832D81AD80A
:106E7000B8EC3DF0E7507D6F7E6B32EC60F020EEB9
:106E80000DF014D82CD820EE0BF010D814D80ED852
:106E900035D87E6B020E7D6F32EC60F020EE0FF085
:106EA00005D81DD0DA2210EE03F01200A351D92626
:106EB000A451DA221200DECF79F0DDCF7AF020EE95
:106EC0001FF01200DECF9BF0DDCF9CF020EE1FF014
:106ED000120020EE36F0A351D926A451120079C039
:106EE000DEFF7AC0DDFF12009BC0DEFF9CC0DDFF2D
:106EF0001200DECF9DF0DDCF9EF01200DECF7BF0E2
:106F0000DDCF7CF012000001D751070ED8A4090E86
:106F10003F24DC6F000E4020DD6FDCC0F6FFDDC0DB
:106F2000F7FF000EF86E0900F5CFDFF00A00F5CF8D
:106F3000E0F08EC165F08FC166F03FC0F6FF40C043
:106F4000F7FF01D80DD00500FA6E0900F550FD6E6F
:106F50000900F550FE6E0900F550FF6EFA50120060
:106F600065C0E1F066C0E2F0E1C0D9FFE2C0DAFF3F
:106F7000DECFDCF0DDCFDDF0D5C065F0D6C066F049
:106F8000DFC067F0E0C068F095EC8FF0DC5165255C
:106F9000E36FDD516621E46F030E3F24DC6F000ECA
:106FA0004020DD6FDCC0F6FFDDC0F7FF000EF86E9D
:106FB0000900F550E35DE451800ADE6F0900F550E9
:106FC000800ADE5902E2030E18D0050E3F24DC6F62
:106FD000000E4020DD6FDCC0F6FFDDC0F7FF000EC5
:106FE000F86EE3510900F55C0900F550800ADE6F88
:106FF000E451800ADE5912E2050E3F24DC6F000ED8
:107000004020DD6FDCC0F6FFDDC0F7FF000EF86E3C
:107010000900F5CFE3F00A00F5CFE4F0E1C0D9FFB5
:10702000E2C0DAFFE3C0DEFFE4C0DDFFD8C0CFF08E
:10703000D9C0D0F0DAC0D1F0DBC0D2F009EF80F0D7
:10704000246A256A266A24C001F025C002F02A0EAF
:107050002624D96EDA6A010EDA22DF50036EFDECC7
:1070600081F001C024F002C025F0262A0D0E26640E
:10707000EAD7245025107BE12BC127F02EC12BF13C
:1070800027C02EF12CC127F02DC12CF127C02DF1E6
:107090002BC101F02CC102F02DC103F02EC104F070
:1070A00000EC7DF001C02BF102C02CF103C02DF1EA
:1070B00004C02EF1056A066AC80E076E420E086EFD
:1070C0002BC101F02CC102F02DC103F02EC104F040
:1070D00001EC1AF001C01AF002C01BF003C01CF052
:1070E00004C01DF0EBEC5AF01AC076F11BC077F12A
:1070F00030C127F033C130F127C033F131C127F05F
:1071000032C131F127C032F130C101F031C102F09A
:1071100032C103F033C104F000EC7DF001C030F166
:1071200002C031F103C032F104C033F1056A066ACE
:10713000C80E076E420E086E30C101F031C102F078
:1071400032C103F033C104F001EC1AF001C01AF0AF
:1071500002C01BF003C01CF004C01DF0EBEC5AF0A1
:107160001AC074F11BC075F10101A36B04D0010EAC
:107170000101A36F0000000012000001686F5FD0E2
:10718000A60E656F320E666F010E676F1200EE0E6F
:10719000656FE80E666F000E676F12007A0E656FFE
:1071A0002C0E666F010E676F1200F60E656F270ECC
:1071B000666F010E676F1200D80E656F0C0E666F5A
:1071C000010E676F1200320E656F150E666F010EAD
:1071D000676F1200FC0E656F100E666F010E676F11
:1071E00012008E0E656FE80E666F000E676F12005C
:1071F000A40E656F060E666F010E676F1200200EFB
:10720000656F2A0E666F010E676F1200D20E656FF2
:10721000280E666F010E676F1200C40E656F100EA8
:10722000666F010E676F12007C0E656FAC0E666FA5
:10723000000E676F1200656B666B676B12000001D2
:1072400068519EE0010AA3E0030A9AE0010AA6E061
:10725000070AA4E0140A94E0080A92E0380A90E0D1
:10726000610A9CE0030A9AE0010A9FE0070AA4E091
:10727000010AA9E0030AAEE0010AB3E00E0AB8E091
:10728000030AB6E0010AADE01A0ACEE0310AC5E011
:10729000010A92E0100AC1E0F10A80E0030AAFE0BF
:1072A000070AADE0140AB9E0010AB7E0030AAEE04C
:1072B000C2D768C065F069C066F074EC93F06E6F79
:1072C000736B0101C2A50BD0000120EE3BF06851A9
:1072D000D9266951DA22DFA602D0010E736F73C07E
:1072E0006FF068C065F069C066F065EC93F0706F90
:1072F0006FD8DFB0010E716F6BD8DFB2010E726F05
:10730000746B756B44D0D8907435D96E753573EC49
:1073100076F0DECF76F0DDCF77F076C065F077C01F
:1073200066F0B7EC90F0000930E06F5112E03BD806
:10733000DFA80FD06A5174190BE16B51751908E180
:1073400020EE3CF07651D9267751DA22DF8001D049
:1073500037D868C065F069C066F0B7EC90F00009F6
:1073600014E06E5103E01FD8DFB02AD8705103E05B
:107370001AD8DFB225D8715103E015D8DFB420D870
:10738000725103E010D8DFB61BD8744B752B010186
:10739000BD510001745D7551800A6C6F7AEC76F016
:1073A0006C59B1E312006A5176256C6F6B517721ED
:1073B0006D6F500E6C25D96E000E6D21DA6E1200C5
:1073C00020EE3CF07651D9267751DA22DF82120086
:1073D00020EE38F06851D9266951DA22000C270EC8
:1073E0007DD8B2C0D9FFB3C0DAFF7ED8250EB02554
:1073F000B66F6ED864D8BD6B030EBC6F20EE22F062
:107400007ED8DF5015E0BD6B040EBC6F20EE3AF065
:1074100076D8020EDE1802E1230E06D0230EB02528
:10742000B66F56D84CD8250E59D820EE04F047D860
:10743000290E54D8BCC0B8F0BDC0B9F0D890B83748
:10744000B937B851B225BA6FB951B321BB6FFE0E2F
:10745000BA25D96EFF0EBB21DA6E46D8BE6BBF6B64
:1074600020D0B0C0A5F0B1C0A6F043D8B251D92603
:10747000B351DA22DECFB6F0DDCFB7F0B6C0D9FF18
:10748000B7C0DAFF38EC41F056EC45F032D8B451D1
:10749000D926B551DA22A5C0DEFFA6C0DDFFBE4B5E
:1074A000BF2BBC51BE5DBF51800AB66FBD51800A73
:1074B000B659D7E3BCC0B0F0BDC0B1F01200B251B4
:1074C000D926B351DA22B6C0DEFFB7C0DDFF120005
:1074D000000EB121B76F20EE02F01200B025B66F9A
:1074E000000EB121B76F1200B6C0DEFFB7C0DDFFDE
:1074F0001200D890BE35D96EBF35DA6E1200B05189
:10750000D926B151DA221200726B706B7FD8D96E16
:107510006A516821DA6E72516525E16E000E6621AE
:10752000E26EE7506B6FD8906B37D8906B37D8907E
:107530006B35DF6E6BD86B6F6A5168216C6F6B298E
:1075400059D86D6F050E6E6FD8906D336E2FFCD7C6
:107550006D51DF6E722B702B030E7065D7D76F6B7A
:107560005ED86F513BD8100E6B25E16E000E6C217A
:10757000E26EDFCFE7FF722B6F2B030E6F65F0D744
:10758000716B71512BD8080E6B2534D80F0BDF6E41
:1075900046D8DF50696F693B0F0E691769A10AD0A1
:1075A00071511CD8080E6B25D96E000E6C21DA6E55
:1075B000000EDB8E715112D8090E6B251BD86D6F32
:1075C000050E6E6FD8906D336E2FFCD76D51DF6E48
:1075D000722B712B030E7165D4D7030C696F6A6B24
:1075E000D89069376A37695167256B6F6A5168218E
:1075F0006C6F1200D96E000E6C21DA6E7251652527
:10760000E16E000E6621E26EE75012007051020D2D
:10761000F3CF69F0F4CF6AF0695167251200725117
:107620006525D96E000E6621DA6E1200E5C0D9FF1D
:10763000E6C0DAFFDECFE7F0DDCFE8F00001666BF1
:10764000100E656FE7C067F0E8C068F06551671914
:1076500006E16651681901E002D0010E01D0000E6A
:1076600000090CE022EE9CF00500FA6EDE50FD6E83
:10767000DE50FE6EDE50FF6EFA501200666B200E7A
:10768000656FE7C067F0E8C068F06551671906E10B
:107690006651681901E002D0010E01D0000E000908
:1076A0000CE022EEA5F00500FA6EDE50FD6EDE5015
:1076B000FE6EDE50FF6EFA501200666B400E656F74
:1076C000E7C067F0E8C068F06551671906E16651E8
:1076D000681901E002D0010E01D0000E00090CE093
:1076E00022EEAEF00500FA6EDE50FD6EDE50FE6E4C
:1076F000DE50FF6EFA501200010E666F656BE7C038
:1077000067F0E8C068F06551671906E166516819CD
:1077100001E002D0010E01D0000E0009D8B4120021
:10772000E1C0DDF0E2C0DEF0E3C0DFF0E4C0E0F095
:1077300022EE96F00500FA6EDE50FD6EDE50FE6E13
:10774000DE50FF6EFA50120022EC98F065C0C0F0D7
:1077500066C0C1F0C4EC95F065C0C3F066C0C4F06B
:10776000B8EC95F065C0C5F066C0C6F00001BE6B10
:107770000101B15108E0C3C065F0C4C066F0B0ECCF
:1077800093F0000903E0010E0001BE6FBF6B010121
:10779000B05108E0C5C065F0C6C066F0B0EC93F02B
:1077A000000903E0010E0001BF6F010E0101B16F7E
:1077B000B06FC3C065F0C4C066F0B7EC8DF0C5C053
:1077C00065F0C6C066F0B7EC8DF0C0C065F0C1C012
:1077D00066F0B0EC93F00009010ED8A4000EBD6F66
:1077E000C3C0B1F0C4C0B2F0B9C0B3F0BAC0B4F015
:1077F000BDC0B5F020EE19F0C051D926C151DA2232
:10780000DECFB6F0DDCFB7F0BEC0B8F073EC7FF0DE
:10781000C5C0B1F0C6C0B2F0BBC0B3F0BCC0B4F0DC
:10782000010EB56FBBC0B6F0BCC0B7F0BFC0B8F0BA
:1078300073EC7FF011D8C26FC3C069F0C4C06AF0A6
:10784000C2C06BF0EBEC55F0C5C069F0C6C06AF081
:10785000C2C06BF0EBEF55F00101000EC2B1010E9A
:10786000000112000101CAA1120000016E6B010E9D
:107870007AEC97F06E6B020E7AEC97F0000E6E6B5E
:107880007AEC97F0090E7A6F240E7B6FCCEC3FF008
:1078900094EC95F08D0E656FC8C169F0C9C16AF0AE
:1078A00064D80C0E686F66D8682FFDD70F0E661768
:1078B0004ED80800F5CFDFFF6A510F0B666F47D82F
:1078C000D92A0800F5CFDFFF50D8040E686F52D8D0
:1078D000682FFDD70F0E6617676BE40E6625F66EF0
:1078E000200E6721A5EC59F065510CEC2BF0080037
:1078F000F5CFDFFF0F0E6915666F29D8030ED92665
:107900000800F5CFDFFF0101CAB106D0E10E00018A
:10791000916F230E926F04D08D0E0001916F926BC8
:1079200091C07AF092C07BF0C7EC3FF094EC95F0F8
:107930004FEC6EF00201816B826B030E0001656FEC
:1079400065C080F20101CA85100EA3EF98F0676B45
:10795000E40E6625F66E200E6721F76EF86A000EBB
:10796000F8226551D96EDA6A120069C066F06AC001
:1079700067F01200D890673366331200776F00010A
:1079800077511CE072AF1AD06FC073F070C074F002
:1079900071C075F072C076F0731F741F751F761F6B
:1079A000732B000E74237523762373C079F074C093
:1079B0007AF075C07BF076C07CF008D06FC079F0AB
:1079C00070C07AF071C07BF072C07CF06F517011A2
:1079D0007111721105E16F6B706B716B726B12003C
:1079E000960E786F02D0782B4AD8736B746B756BD8
:1079F000FE0E7C153ED808E0F6D7782B792B000ECA
:107A00007A237B237C233BD8736B746B756B7C511F
:107A100030D807E0F2D77807D89079377A377B37B4
:107A20007C377BBF03D0020E7861F5D778A17B9FAE
:107A3000D890783378C073F0746B756B766B73C0C5
:107A400076F0756B746B736B7351791374517A1391
:107A500075517B1376517C13775102E072BF7C8F96
:107A600079C06FF07AC070F07BC071F07CC072F0AA
:107A70001200766F73517411751176111200D8903F
:107A80007C337B337A3379331200665101EC65F035
:107A90006FD8E750676F67056D6F030E6D6501D096
:107AA000010C6D517F0DF3CF67F0F4CF68F0665194
:107AB0000CEC43F0DECF69F0DDCF6AF06751692549
:107AC0006B6F68516A216C6F020E6B256E6F000E32
:107AD0006C216F6F6EC0D9FF6FC0DAFF6DC0DFFF22
