:102000002DEF10F0FFFFFFFF5F82B6EF47F0FFFFFD
:10201000FFFFFFFFFFFFFFFF5F80D8CF60F0E8CF3B
:1020200061F0E0CF62F0D9CF63F0DACF64F09DB811
:102030009EA802D0A0EC8DF0A3B8A4A802D0AEEC6C
:102040008CF064C0DAFF63C0D9FF62C0E0FF61C0FA
:10205000E8FF60C0D8FF5F9010001BEF2CF000DCA1
:102060002B016A2801522801E0B60054DB00602DE4
:1020700001F2F100982D018A2D017C2D016E2D01B8
:10208000522D01442D01362D01F02E01060101E6ED
:1020900046006E1F01208C000E230112E4003A2C32
:1020A00001F02201D22201000A01B422010ADA0061
:1020B000777C585E79716F760600003800545C7347
:1020C00000506D781C0000006E00777C395E7971DD
:1020D0006F760600003800373F7300506D783E0081
:1020E00000006E00303132333435363738396162B2
:1020F000636465660001000A006400E80310273F7E
:10210000065B4F666D7C077F67051020304060805E
:10211000A0FF6E67C579DD61021A642C010A000612
:102120000E0A003C000000722C0100005802010061
:102130000A0054240000000000006A9300004500DB
:102140002030018E2A018E6A00F00A01C22F0100A0
:102150000000EEF600289F007C2E01000000A4F491
:1021600000568400882E01000000A4F4005684006C
:10217000243001000000562C017A8200000000008B
:102180000000FAF20098A600000000000000A6E59A
:1021900000D89F00000000000000F42F01A0D5002F
:1021A000000000000000F02F0144A300AA020191EA
:1021B000386F75744361706163697479203E2028BB
:1021C000444154414752414D5F53594E435F534937
:1021D0005A45202B20444154414752414D5F4D49BF
:1021E0004E5F4C454E4754485F53495A45202B207B
:1021F000444154414752414D5F434845434B535539
:102200004D5F53495A452900417373657274696F74
:102210006E206661696C65643A202573206C696E76
:10222000652025643A20222573220A00616C6C50D7
:102230006F64427566666572735B504F445F4255CA
:10224000464645525F52585D20213D2028302900E6
:10225000616C6C506F64427566666572735B504F5B
:10226000445F4255464645525F54585D20213D200B
:1022700028302900636F6E6669672D3E736176654D
:1022800053657474696E677320213D2028302900DE
:102290007372632F447269766572732F506F647323
:1022A000436861696E556172742E6300636F6E6678
:1022B00069672D3E70726F7669646553697A65202F
:1022C000213D2028302900636F6E6669672D3E77B7
:1022D00072697465427974657320213D2028302924
:1022E000007372632F506F6473436861696E2F507F
:1022F0006F6473436861696E2E6300636F6E666915
:10230000672D3E72656164427974657320213D20BA
:10231000283029007772697465506572696F64208E
:102320003E207461736B506572696F6400696E70F2
:10233000757453697A65203E3D2076616C756553EE
:10234000697A65007372632F5461736B732F5261E6
:1023500064696F5461736B2E63007372632F5261F3
:1023600064696F2F566172496E742E6300737263D5
:102370002F526164696F2F526164696F2E63007020
:102380006F64735561727420213D202830290063E9
:102390006861696E20213D2028302900382E382EB2
:1023A000382E382E00286E756C6C2900302E324C79
:1023B0004F00414C2E484900414C2E4C4F0048459F
:1023C0004C50003030303000313131310032323257
:1023D000320033333333003434343400353535355B
:1023E00000372E37370037373737002D2D2D2D008A
:1023F0006572723100657272320065727233006507
:102400007272340065727255004461746100636FCA
:102410006E6E0050726F7500504831300050482089
:10242000340050482037004641494C004F4F4F4F31
:102430000050415353004550742D004E47452E0027
:102440002D41434300436F6E66006E636E6F006202
:1024500075737900636F6E740046414300644546AE
:10246000006F66660043414C0043484100506F6472
:1024700000457272004F4646006F6E006272004562
:102480004C004F52005552006E6300494300726485
:10249000007048002A43002A460045430000595076
:1024A0005A100FE1010E0001836F300E826F900E03
:1024B000846F220E856F7F0E866F230E876F78ECF8
:1024C0008DF059C078F05AC079F033D020EECEF0BC
:1024D0007851D9267951DA2201D80AD00500FA6E4E
:1024E000DE50FD6EDE50FE6EDE50FF6EFA501200C2
:1024F0007A6FCBD9DF507B6F7B517825D96E000E78
:102500007921DA6E7AC0DFFFC0D910EE64F078511D
:10251000E1267951E222E7507A6F7A29656F666B7E
:10252000000E6623686B640E676FD1EC70F0655126
:10253000DF6E78C065F079C066F0000120EECAF069
:102540006551D9266651DA22DF50D96EDA6ADF503A
:102550000009BCE101D0BAD778C065F079C066F057
:1025600016D0696B0CD05CD969516525E16E000EFF
:102570006621E26EDFCFE7FF53D9DF6A692B63D9AB
:10258000DE50695DF0E301D0EED75DD9DF0665C0AE
:10259000D9FF66C0DAFF1B0EDE1807E001D005D0B8
:1025A00052D9DF50DEE101D0DCD778C072F079C0BB
:1025B00073F072C0D9FF73C0DAFF1B0EDE180DE195
:1025C00001D00BD020EE64F07251D9267351DA227B
:1025D000030EDF6004D001D002D0000E9AD020EEAE
:1025E00001F018D9756F746B20EE02F013D97413D3
:1025F0000AD974C0DEFF75C0DDFF05D9010EDB50BE
:1026000005E15D0EDE5C0FE301D00DD045D9676BAF
:10261000B4EC40F0672B630E6765FAD701D0F8D7AA
:10262000BCEC40F0DAD7EFD8DECF74F0DDCF75F038
:10263000050E7427000E752320EE64F0EBD8766F3C
:10264000776B7451765D7551775903E2C6D701D027
:10265000C4D772C06CF073C06DF0D5D8DF50050FD1
:102660006E6F706B716B010E6F6F36D0700E656F91
:102670006F516C25D96E000E6D21DA6EDF50666FDA
:102680006651686F676B6551D96EDA6A6751DE1AF9
:102690006851DD1A080E6B6FE2D868AF14D001D014
:1026A00012D0DDD8D89067376837210E6719696F67
:1026B000100E68196A6F6551D96EDA6A69C0DEFF5B
:1026C0006AC0DDFF03D06551CAEC28F06B076B517F
:1026D000E3E101D0E1D76F2B6E516F5DC7E301D00D
:1026E000C5D77051711101E002D0010E01D0000E6A
:1026F00000090EE101D00CD0CFD8676BB4EC40F0EC
:10270000672B630E6765FAD78BD7F8D789D765D75C
:10271000010E000952E059C080F05AC081F0AED8D5
:10272000DFA005D001D003D0A9D8DF9019D080C098
:102730006CF081C06DF0000EF6EC96F06CC068F0A5
:102740006DC069F0000120EECBF06C51D9266D51BF
:10275000DA22DF50050F6A6F36EC89F049EC83F01E
:1027600080C065F081C066F0000120EECBF08051A2
:10277000D9268151DA22DECF67F0DDCF68F06A6BAF
:102780006751050F6B6F10D06B516525D96E000E28
:102790006621DA6E6A516525E16E000E6621E26EF1
:1027A000DFCFE7FF6A2B6B2B62D8DE506B5DECE36B
:1027B00001D0EAD75CD86AC0DFFF59C065F05AC0C3
:1027C00066F03AD8DFA213D001D011D020EECDF0C0
:1027D00041D8DFCF67F0DF2A0F0E676508D001D040
:1027E00006D02AD8DF9220EECDF034D8DF6A24D884
:1027F000DFB201D002D0010E01D0000E000902E1CB
:1028000093EC7CF0010C20EECBF07251D926735181
:10281000DA2212007251D9267351DA22DF501200E7
:1028200069516525676F000E6621686F6729D96E4B
:10283000000E6821DA6E120020EED1F06551D92623
:102840006651DA22120020EE64F06551D9266651F5
:10285000DA2212006551D9266651DA22120065513A
:10286000D96EDA6ADECF67F0DDCF68F0120020EEB5
:1028700064F06551D9266651DA22120020EED1F0BB
:102880008051D9268151DA22120020EE64F078516D
:10289000D9267951DA22120072C065F073C066F051
:1028A0001200010118EC6CF0DFB42CD122EE0EF016
:1028B00049EC52F0DFA226D1C2C1D9FFC3C1DAFF71
:1028C00098C0E1FF99C0E2FFDE50E65C05E320D945
:1028D0000001886F020E38D01BD97F0D41D900014D
:1028E0009A510101C22500019C6F9B510101C32136
:1028F00000019D6F020E9C259E6F000E9D219F6F13
:1029000020EE05F09E51D9269F51DA2210EE01F0FB
:102910009851E1269951E222DE50E65C12E220EE67
:1029200002F00FD9100EDF600CD020EE05F009D9AF
:10293000030EDF6006D020EE06F003D9640EDF64DC
:1029400005D0E6D8886F030E896FDFD020EE01F046
:10295000F8D8DF50140D04D99A519E259C6F9B51D5
:102960009F219D6F070E9C25A06F000E9D21A16FDA
:10297000A0C065F0A1C066F098C067F099C068F08B
:1029800020EE02F0E3D810EE02F0CFD801E102D041
:10299000010E01D0000E6F6F716B22D020EE03F09C
:1029A000D5D8DECF69F0DDCF6AF071516925D96ED7
:1029B000000E6A21DA6E715165256C6F000E66217A
:1029C0006D6F030E6C25E16E000E6D21E26EDE5020
:1029D000E61805E001D003D0010E6F6F0CD0712B0B
:1029E00020EE02F06551D9266651DA22DE50715D83
:1029F000D5E301D0D3D7010E706F20EE05F0A6D835
:102A000010EE12F092D810E101D00ED020EE06F0B8
:102A10009DD810EE13F089D807E101D005D06F5191
:102A200003E101D001D0706B7051000967E0A0C0D4
:102A300065F0A1C066F098C067F099C068F08BD8C7
:102A4000DF50020DF3CF69F0F4CF6AF06951010154
:102A5000C22500016B6F6A510101C32100016C6F37
:102A6000060E6B256D6F020E6C216E6F20EE02F06C
:102A700063D810EE02F052D86F6B1CD020EE03F03A
:102A80005BD8DECF69F0DDCF6AF06F516925D96E72
:102A9000000E6A21DA6E6F5165256B6F000E66219C
:102AA0006C6F030E6B25E16E000E6C21E26EDFCFC2
:102AB000E7FF6F2B20EE02F03FD8DE506F5DDEE3C4
:102AC00001D0DCD720EE05F037D810EE12F026D872
:102AD00020EE06F031D810EE13F020D820EE01F0F1
:102AE0006D51D9266E51DA22DF8035D86DC0E1FFF5
:102AF0006EC0E2FFDFCFE7FFFAEC90F0010118ECC7
:102B00006CF0DF8205D849EC2BF0510EE9EF88F02C
:102B100098C0D9FF99C0DAFFDF5012006551E12655
:102B20006651E222DFCFE7FF12006551E1266651D0
:102B3000E222DE50E61812006751D9266851DA22E7
:102B400012009851D9269951DA2212006751D926DC
:102B50006851DA22120067C0D9FF68C0DAFF12009C
:102B6000F3CF9AF0F4CF9BF01200E8EC96F065C03A
:102B700073F066C074F0290E00012BD9696B020E48
:102B80006B6FCCEC89F0270E24D9020E696F6B6F46
:102B9000CCEC89F0230E1DD9040E2AD9CCEC89F097
:102BA000250E17D9060E24D9CCEC89F02B0E11D99D
:102BB000080E1ED9CCEC89F02D0E0BD90A0E18D9AF
:102BC000CCEC89F03A0E05D90C0E16D9CCEC89F074
:102BD00017D90D0E11D9CCEC89F002D91EEC66F094
:102BE00065EC94F065C073F066C074F0290E0001C6
:102BF000F0D8100EFDD8CCEC89F0270EEAD8120ED2
:102C0000F7D8CCEC89F0230EE4D8140EF1D8CCEC34
:102C100089F0250EDED8160EEBD8CCEC89F02B0E01
:102C2000D8D8180EE5D8CCEC89F02D0ED2D81A0ED3
:102C3000DFD8CCEC89F03A0ECCD81C0EDDD8CCEC29
:102C400089F0DED81D0ED8D8CCEC89F0C9D81EEC9E
:102C500066F071EC94F065C073F066C074F0290EF4
:102C60000001B7D8200EC4D8CCEC89F0270EB1D81B
:102C7000220EBED8CCEC89F0230EABD8240EB8D8E7
:102C8000CCEC89F0250EA5D8260EB2D8CCEC89F074
:102C90002B0E9FD8280EACD8CCEC89F02D0E99D8ED
:102CA0002A0EA6D8CCEC89F03A0E93D82C0EA4D8D4
:102CB000CCEC89F0A5D82D0E9FD8CCEC89F090D81B
:102CC0001EEC66F0380E85D8440E92D8CCEC89F014
:102CD000B50E676F010E686F6A6B300E8DD8CCEC45
:102CE00089F0C00E676F010E686F6A6B310E84D871
:102CF000CCEC89F0C10E676F010E686F6A6B320E03
:102D00007BD8CCEC89F00101C197D00E0001676F30
:102D1000010E686F6A6B330E78D8CCEC89F0550ED3
:102D2000676F686B6A6B380E70D8CCEC89F0D80E80
:102D3000676F010E686F6A6B3C0E67D8CCEC89F048
:102D4000D40E676F010E686F6A6B400E5ED8CCECD4
:102D500089F05C0E676F686B6A6B460E4DD8CCECE1
:102D600089F0DC0E676F010E686F6A6B470E40D802
:102D7000CCEC89F0E20E676F010E686F6A6B490E4A
:102D800037D8CCEC89F038EC97F065296E6F000EDF
:102D900066216F6F6EC067F06FC068F06A6B500E8F
:102DA0002BD8CCEC89F0706B702B0E0E7065FCD7B5
:102DB000710E676F686B6A6B880E1ED8CCEC89F059
:102DC00071B103D00101C99102D00101C981000094
:102DD00012007325676F000E7421686F6A6B120012
:102DE00073C065F074C066F072C067F0686B120063
:102DF000696F020E6B6F020C696F010E6B6F010C35
:102E0000720E676F686B6A6B1200696F040E6B6FEE
:102E1000040C0450800B0D6E04500424136E03BE8A
:102E20001380135008E0132804E1016A026A036A60
:102E3000046A038E04D0016A026A036A046A0850B5
:102E4000800B0D1A085008240E6E07BE0E800E501F
:102E500008E00E2804E1056A066A076A086A078E18
:102E600004D0056A066A076A086A0E5002E0135029
:102E700005E1016A026A036A046A1200075001024E
:102E8000F3CF18F0F4CF19F018500F6E106A116AD2
:102E9000126A1950146E156A166A176A06500202F1
:102EA000F3CF18F0F4CF19F018500F26000E1022AF
:102EB0001122122219501426000E15221622172252
:102EC00005500302F3CF18F0F4CF19F018500F2675
:102ED000000E10221122122219501426000E152263
:102EE0001622172211C012F010C011F00FC010F0FE
:102EF0000F6A05500202F3CF18F0F4CF19F0185002
:102F00000F2619501022000E112212220650010223
:102F1000F3CF18F0F4CF19F018500F2619501022E3
:102F2000000E1122122211C012F010C011F00FC0B9
:102F300010F00F6A05500102F3CF18F0F4CF19F02A
:102F400018500F2619501022000E1122122207507D
:102F50000202F3CF18F0F4CF19F0185014261950CC
:102F60001522000E1622172206500302F3CF18F086
:102F7000F4CF19F01850142619501522000E1622FD
:102F8000172207500302F3CF18F0F4CF19F01850AE
:102F9000096E19500A6E0B6A0C6A0BC00CF00AC05D
:102FA0000BF009C00AF0096A095014260A501522CC
:102FB0000B5016220C50172212501426000E152208
:102FC0001622172211C012F010C011F00FC010F01D
:102FD0000F6A0E5013C009F00A6A0926000E0A2271
:102FE000820E0924186EFF0E0A20196E0FD0D89099
:102FF000143615361636173612BE1480D8900F3692
:103000001036113612361806D8A0190616AEEFD7AC
:103010000E6A12AE13D00F50096E10500A6E115086
:103020000B6E7F0E12140C6E09500A100B100C1050
:1030300003E0010E0E6E02D014B0FBD70E500EE06E
:10304000142A000E15221622172217A007D01734B3
:103050001732163215321432184A192A19BE0AD0FC
:10306000195002E1182806E3146A156A800E166EDC
:103070007F0E15D019BE04D0195008E1180406E2DD
:10308000146A156A166A176A0D6A0AD018C013F016
:103090007F0E1616176A13B0168ED8901330176E5F
:1030A0000D50171214C001F015C002F016C003F045
:1030B00017C004F012009C0501E028D1E8EC96F05E
:1030C00065C076F066C077F0290E000123D96B6BDE
:1030D000020E6D6F43EC7CF0270E1CD9020E6B6F55
:1030E0006D6F43EC7CF0230E15D9040E1AD943EC16
:1030F0007CF0250E0FD9060E14D943EC7CF02B0E74
:1031000009D9080E0ED943EC7CF02D0E03D90A0E16
:1031100008D943EC7CF03A0EFDD80C0E06D943ECEE
:103120007CF0350EF7D80D0E00D943EC7CF065EC41
:1031300094F065C076F066C077F0290E0001EAD8F9
:10314000100EEFD843EC7CF0270EE4D8120EE9D82D
:1031500043EC7CF0230EDED8140EE3D843EC7CF075
:10316000250ED8D8160EDDD843EC7CF02B0ED2D825
:10317000180ED7D843EC7CF02D0ECCD81A0ED1D82F
:1031800043EC7CF03A0EC6D81C0ECFD843EC7CF052
:10319000350EC0D81D0EC9D843EC7CF071EC94F00C
:1031A00065C076F066C077F0290E0001B3D8200E16
:1031B000B8D843EC7CF0270EADD8220EB2D843EC41
:1031C0007CF0230EA7D8240EACD843EC7CF0250E5F
:1031D000A1D8260EA6D843EC7CF02B0E9BD8280E47
:1031E000A0D843EC7CF02D0E95D82A0E9AD843EC4B
:1031F0007CF03A0E8FD82C0E98D843EC7CF0350E2C
:1032000089D82D0E92D843EC7CF0380E83D8440E2A
:1032100088D843EC7CF0B50E696F010E6A6F6C6B59
:10322000300E83D843EC7CF0C00E696F010E6A6FDC
:103230006C6B310E7AD843EC7CF0C10E696F010ED5
:103240006A6F6C6B320E71D843EC7CF0D00E696FF4
:10325000010E6A6F6C6B330E6CD843EC7CF0550E2C
:10326000696F6A6B6C6B380E64D843EC7CF0D80ED7
:10327000696F010E6A6F6C6B3C0E5BD843EC7CF09F
:10328000D40E696F010E6A6F6C6B400E52D843EC1E
:103290007CF05C0E696F6A6B6C6B460E46D843EC33
:1032A0007CF0DC0E696F010E6A6F6C6B470E39D8CB
:1032B00043EC7CF0E20E696F010E6A6F6C6B490E95
:1032C00030D843EC7CF038EC97F06529726F000E33
:1032D0006621736F72C069F073C06AF06C6B500E38
:1032E00024D843EC7CF0756B752B0E0E7565FCD7FE
:1032F0000101000EC9B1010E0001746F740E696FF7
:103300006A6B6C6B880E11D843EC7CF001019C6BEE
:10331000000012007625696F000E77216A6F6C6BD2
:1033200012006B6F020E6D6F020C6B6F010E6D6FF2
:10333000010C6B6F040E6D6F040C74511EEC2AF0BF
:10334000030EDF6E7451D96EDA6ADECF75F0DDCF11
:1033500076F075C0D9FF76C0DAFF1B0EDF6E7451B0
:103360001EEC2AF0F9D83D0EDF6E74511EEC2AF0E7
:10337000DF2A74511EEC2AF0EFD8DF6A74511EEC7C
:103380002AF0DF2A745114EC42F0DECF65F0DDCF75
:1033900066F06B6B6B51020DF3CF67F0F4CF68F002
:1033A00067516525696F685166216A6F070E692547
:1033B000D96E020E6A21DA6EDFA004D001D002D0ED
:1033C0006B2907D06B2B030E6B65E4D701D0E2D7D6
:1033D000000E786F785101E1010C74511EEC2AF057
:1033E000BBD878C0DFFF74511EEC2AF0DF2A74C00E
:1033F00065F078C066F066517F0DD8D8655114EC41
:1034000042F0DECF69F0DDCF6AF0675169256B6F5E
:1034100068516A216C6F830E6B256F6FFF0E6C21F4
:10342000706FBAD8DA22DF506D6FB6D87DD865518B
:103430001EEC2AF0DF2A716B62D07151140DB6D8E0
:1034400067516F25696F685170216A6F070E692592
:10345000726F000E6A21736F65511EEC2AF08CD8D2
:1034600071C0DFFF65511EEC2AF0DF2A6E6B24D09D
:103470006E517225676F000E7321686F030E67250A
:10348000D96E000E6821DA6E655147EC2AF0696F3B
:103490006551E16EE26AE6CF6AF0E5CF6BF0695103
:1034A0006A25E16E000E6B21E26EDFCFE7FF65510A
:1034B0001EEC2AF0DF2A6E2B20EE02F073D8DA22FF
:1034C000DE506E5DD5E301D0D3D765511EEC2AF0F6
:1034D00053D8DF6A65511EEC2AF0DF2A20EE12F085
:1034E00061D822D865511EEC2AF0DF2A20EE13F0B5
:1034F00059D81AD865511EEC2AF0DF2A712B6D516C
:10350000715D9BE301D099D774518BEC32F0BFEC25
:103510003CF0E76A745190EC32F0BFEC3CF074512F
:103520001EEC2AF0D2EF56F0DA226551E16EE26A23
:10353000020EE126E750676F6551E16EE26AE6CF61
:1035400068F0E5CF69F067516825E16E000E6921EA
:10355000E26EDFCFE7FF1200DF50756F7451D96E56
:10356000DA6ADECF76F0DDCF77F075517625D96E49
:10357000000E7721DA6E1200DF50676F6551D96E49
:10358000DA6ADECF68F0DDCF69F067516825D96E61
:10359000000E6921DA6E120020EE05F06F51D92677
:1035A000705112007251D92673511200F3CF67F097
:1035B000F4CF68F012006851800B716F6851682574
:1035C000736F67BF7381735105E0732901E106D9F9
:1035D000678F03D0656B666B676B686B6C51800B94
:1035E000726F711901E0718D6C516C25726F6BBF38
:1035F0007281725108E0722904E1696B6A6B6B6B2E
:103600006C6B6B8F03D0696B6A6B6B6B6C6B7351FC
:10361000725D22E271AD02D0800E711B73C074F036
:1036200072C073F074C072F065C074F069C065F068
:1036300074C069F066C074F06AC066F074C06AF065
:1036400067C074F06BC067F074C06BF068C074F052
:103650006CC068F074C06CF0746B735172C06DF024
:103660006E6B6D5F000E6E5B6EBF15D06E5103E129
:103670001A0E6D5D10E3C7D8010ED8B4000E746F3A
:10368000ADD872C073F00AD074A102D0B7D802D0FE
:10369000D89074339AD87251735DF6E371BD15D02A
:1036A000735101E1A6D0695165276A5166236B51B8
:1036B00067236C51682368A153D074A102D09ED8AF
:1036C00002D0D890743381D84BD06951655D6A516E
:1036D00066596B5167596851800A6D6F6C51800A49
:1036E0006D591FE26551695D6D6F66516A596E6F64
:1036F00067516B596F6F68516C59706FFF0E6D2574
:10370000656FFF0E6E21666FFF0E6F21676FFF0EF4
:103710007021686F800E711B746D74510AE163D85B
:1037200008D06951655F6A51665B6B51675B6C518C
:10373000685B69D813E1745111E15BD0D8906537AB
:1037400066376737683774BF658174A102D0D88047
:1037500001D0D8907437735101E0730767AFEED78B
:10376000726B74AF0AD074C06DF07F0E6D1703E0FA
:10377000010E726F02D065B1FBD772510BE033D8E6
:1037800068A108D0683568336733663365337329B9
:1037900001E0732B732902E0735104E11FD87351C8
:1037A00001E1716B73A102D0678F01D0679FD89040
:1037B0007331686F71BF688F65C065F066C066F071
:1037C00067C067F068C068F0120065B1748F683533
:1037D0006833673366336533732B1200656B666B32
:1037E000676B686B1200652B000E662367236823E6
:1037F000000C656B666B676B686B1200D890743158
:103800000109746F12006551661167116811120089
:103810009B6F00019B51AEEC7EF067C09CF068C0CE
:103820009DF000019C519D11D8B412009CC065F020
:103830009DC066F0ECEC8CF00009D8B41200250EA7
:103840009E6F9F0E916F926B91C0D9FF92C0DAFF6D
:103850009BC0DFFF20EE01F09151D9269251DA2270
:1038600010EE3AF0F4D8E222E750D5EC93F0DF6E98
:103870009E0EB8D8D7EC5AF020EE22F0C1D8DF5017
:103880001EE1260E9E6F9F0E936F946B93C0D9FF1F
:1038900094C0DAFFCCD8B4D810EE01F09351E126F1
:1038A0009451A8D820EE1FF0ABD810EE03F093513E
:1038B000E1269451B7D896D8D7EC5AF04CD0270EC1
:1038C0009E6F9F0E976F986B97C0D9FF98C0DAFFD5
:1038D000AED896D810EE23F0BAD8A1EC49F09BD818
:1038E000D8A020EE23F08CD8DECF8DF0DDCF8EF087
:1038F00020EE01F0B0D88DC0DEFF8EC0DDFF20EEDF
:103900001FF07ED810EE03F09751E1269851E22285
:10391000DFCFE7FF20EE23F073D810EE25F097D825
:10392000A1EC49F078D8D8A020EE23F069D8DECFFA
:103930008FF0DDCF90F020EE04F08DD88FC0DEFF49
:1039400090C0DDFF20EE1FF05BD810EE06F097511F
:10395000E1269851AFD7290E9E6F9F0E956F966BFB
:103960006FD820EE2BF04CD850D844D89E0E3AD8C1
:10397000D7EC5AF02A0E9E6F63D820EE2DF040D877
:1039800044D838D89E0E2ED8D7EC5AF02B0E9E6F06
:103990009F0E996F9A6B99C0D9FF9AC0DAFF9BC0AE
:1039A000DFFF20EE27F02CD810EE01F045D822D80A
:1039B00020EE1FF025D810EE03F03ED8E222DFCF34
:1039C000E7FF20EE29F01CD810EE04F035D812D80D
:1039D00020EE1FF015D810EE06F02ED823D802D80E
:1039E000D7EF5AF07E6FF6C07FF0F7C080F0F8C0D6
:1039F00081F01200E222DECFE6FFDDCFE5FF12000C
:103A00009C51D9269D51DA22120010EE01F09551F9
:103A1000E126965112008C6FDE50800A8C5920EE00
:103A200025F01200E222DFCFE7FF9E0E12009BC0BE
:103A3000DFFF20EE25F012009951E1269A51120085
:103A400095C0D9FF96C0DAFF9BC0DFFF12009C51E2
:103A5000E1269D5112009751D9269851DA22120081
:103A6000C3EC77F007D90FD963EC7EF0F4D8BDEC46
:103A700068F07DC0E2F07EC0E3F07FC0E4F080C07B
:103A8000E5F0DEC0D1F0DFC0D2F0E0C0D3F0E1C09D
:103A9000D4F0E2C0D5F0E3C0D6F0E4C0D7F0E5C082
:103AA000D8F0C00ED96F020EDA6FB70EDB6F020EC0
:103AB000DC6F18EC6EF0D1C027F2D2C028F2DAD851
:103AC000320EE8D863EC7EF0C6D8BDEC68F07DC05D
:103AD000E6F07EC0E7F07FC0E8F080C0E9F0CAD829
:103AE000D2D863EC7EF0B7D8BDEC68F07DC0EAF0C8
:103AF0007EC0EBF07FC0ECF080C0EDF0E6C09CF043
:103B0000E7C09DF0E8C09EF0E9C09FF0EAC0A0F0D9
:103B1000EBC0A1F0ECC0A2F0EDC0A3F0E60EA46FE4
:103B2000030EA56F17EC2FF09CC029F29DC02AF25E
:103B3000A1D8640EAFD863EC7EF08DD8BDEC68F0F0
:103B40007DC08AF07EC08BF07FC08CF080C08DF08D
:103B500084EC8CF08AC02BF28BC02CF28BD8640ED4
:103B600099D863EC7EF077D8BDEC68F07DC0EEF0BC
:103B70007EC0EFF07FC0F0F080C0F1F0DEC08AF0D0
:103B8000DFC08BF0E0C08CF0E1C08DF0EEC08EF0B5
:103B9000EFC08FF0F0C090F0F1C091F05CEC66F0F7
:103BA0008AC02DF28BC02EF265D86DD863EC7EF002
:103BB00052D8BDEC68F07DC08AF07EC08BF07FC02B
:103BC0008CF080C08DF0ECEC8AF08AC02FF28BC0B4
:103BD00030F250D858D863EC7EF03DD8BDEC68F098
:103BE0007DC08AF07EC08BF07FC08CF080C08DF0ED
:103BF000A4EC84F08AC031F28BC032F23BD83C0E88
:103C000049D863EC7EF027D8BDEC68F07DC093F016
:103C10007EC094F07FC095F080C096F0A6EC80F056
:103C200093C033F294C034F2270E656F020E666FB4
:103C3000686B070E676FDEC069F0DFC06AF0E0C036
:103C40006BF0E1C06CF0280E6D6F1C0E6E6F010EF4
:103C50006F6F5CEF8BF071C07DF072C07EF073C04F
:103C60007FF074C080F0E80E816F030E826F836B6B
:103C7000846B030CDEC071F0DFC072F0E0C073F043
:103C8000E1C074F01200E80E756F030E766F776B6B
:103C9000786B030C756F766B776B786B12007AC15B
:103CA000D9FF7BC1DAFF01D80AD00500FA6EDE50D9
:103CB000FD6EDE50FE6EDE50FF6EFA50120065C0E3
:103CC000F3F166C0F4F10101F351F41137E07851DA
:103CD000F31934E17951F41931E1000E0001676FF5
:103CE0000C0E686F6A6BFA0E696F010120EE03F02B
:103CF0007A51D9267B51DA2201D80AD00500FA6E12
:103D0000DE50FD6EDE50FE6EDE50FF6EFA50120089
:103D100067C0F1F168C0F2F1000EE46F0C0EE56FC0
:103D2000F1C1E6F0F2C1E7F0000EE86F0B0EE96FAB
:103D3000000EEB6FFA0EEA6F54EC3FF0F3C178F12E
:103D4000F4C179F100C26EF001C26FF002C270F0EE
:103D500003C271F00201002B000E01230223032392
:103D60006EC065F06FC066F070C067F071C068F03B
:103D700004C269F005C26AF006C26BF007C26CF0BB
:103D8000A1EC72F0655166116711681101E002D073
:103D9000010E01D0000E00095CE0000E0101F56F7C
:103DA0000B0EF66FF50E0001826F010E836F856BAF
:103DB000FA0E846FF70E866F010E876FBBEC8EF0E4
:103DC000F5C166F0F6C167F0F7C168F0F8C169F0B7
:103DD000010120EE06F07A51D9267B51DA2201D872
:103DE0000AD00500FA6EDE50FD6EDE50FE6EDE502B
:103DF000FF6EFA50120020EE01F03650D9263750EF
:103E0000DA22DFB611D001D00FD020EE01F036500B
:103E1000D9263750DA22DFBA01D002D0010E01D004
:103E2000000E656F666B0AD020EE01F03650D92681
:103E30003750DA22DF96666B010E656F20EE01F0D7
:103E40003650D9263750DA2265B102D0DF9A01D038
:103E5000DF8A20EE01F03650D9263750DA22DFAA69
:103E6000010C01D0010C20EE02F03650D92637505B
:103E7000DA22DE2A000EDE22DE22DD22DD52DD52D3
:103E8000030EDB500BE1020EDB5008E1010EDB50AC
:103E900005E10A0EDE5C1AE301D0010C20EE01F010
:103EA0003650D9263750DA22DF8820EE01F036501E
:103EB000D9263750DA22DF9A20EE02F03650D92682
:103EC0003750DA22DE6ADE6ADE6ADD6A010C805172
:103ED000800B896F805180258B6F7FBF8B818B51C9
:103EE00005E08B2901E102D97F8F01D0FFD88451F1
:103EF000800B891B845184258A6F83BF8A818A51F4
:103F000005E08A2901E1EDD8838F01D0EAD88A51F2
:103F100002E08B5105E17D6B7E6B7F6B806B120045
:103F200083517D03B1D88C6F8D6B8E6B8F6B9551E8
:103F3000906F916B926B936B82517E03A5D8B2D830
:103F400081517F03A1D8AED8A5D881517E039CD8DA
:103F5000B5D882517D0398D8B1D89CD881517D03C2
:103F600093D8ACD883517E038FD8B4D882517F03C5
:103F70008BD8B0D883517F0387D8856F9551866FD2
:103F8000876B886B87C088F086C087F085C086F015
:103F9000856B8551902786519123875192238851B3
:103FA00093238F51902791D875D88A518BC085F073
:103FB000866B8527000E8623820E8525946FFF0E63
:103FC0008621956F0FD0D8909037913792379337DD
:103FD0008FBF9081D8908C378D378E378F3794076D
:103FE000D8A0950792AFEFD78A6B8FAF13D08C51C3
:103FF000856F8D51866F8E51876F7F0E8F15886FFD
:10400000855186118711881103E0010E8A6F02D055
:1040100090B1FBD78A510BE0902B57D893A107D0D2
:1040200093359333923391339033944B952B95BFC3
:104030000AD0955102E1942906E3906B916B800EB2
:10404000926F7F0E15D095BF04D0955108E194056D
:1040500006E2906B916B926B936B896B0AD094C064
:104060008BF07F0E9217936B8BB1928FD8908B3120
:10407000936F8951931390C07DF091C07EF092C0F0
:104080007FF093C080F01200F3CF94F0F4CF95F05E
:10409000945112008EC08FF08DC08EF08CC08DF0C8
:1040A0008C6B12008C27000E8D238E238F2395514D
:1040B0009027000E912392239323000C8C27955177
:1040C0008D23000E8E238F23000C000E912392234C
:1040D0009323000C902795519123000E9223932354
:1040E000000C816B826B836B846B12007D6B7E6B2B
:1040F0007F6B806B12008A6F00018B6B070E8A1931
:104100000FE1D8EC86F0F1D850EC8DF0D0EC86F0D1
:10411000ECD850EC8DF0D4EC86F0E7D850EF8DF071
:10412000090E8A19D8B41200896BA5D085C0D9FFB1
:1041300086C0DAFF83C0E1FF84C0E2FFDE50E618EC
:1041400001E1A7D08B51220F7E6F300E7F6F83C0AD
:10415000D9FF84C0DAFFDF50806F8B511B0F50EC0A
:104160008DF097D020EE01F0C8D810EE01F0835109
:10417000E1268451E222DE50E61801E18AD08B511B
:10418000770F7E6F300E7F6F20EE01F09AD8700FA0
:1041900050EC8DF07ED020EE02F0AFD810EE02F0A1
:1041A0008351E1268451E222DE50E61872E08B5101
:1041B000470F8FD886D8440F50EC8DF0A7D889D8F8
:1041C00080D84B0F50EC8DF09DD883D87AD84B0F08
:1041D00050EC8DF05ED020EE03F08FD810EE03F09F
:1041E0008351E1268451E222DE50E61852E08B51E1
:1041F000220F7E6F370E7F6F20EE03F062D81B0F09
:1042000050EC8DF046D020EE04F077D810EE04F09C
:104210008351E1268451E222DE50E6183AE08B51C8
:10422000770F7E6F370E7F6F20EE04F04AD8700F45
:1042300050EC8DF02ED020EE05F05FD810EE05F09A
:104240008351E1268451E222DE50E61822E08B51B0
:10425000470F45D836D8440F50EC8DF057D83FD88B
:1042600030D84B0F50EC8DF04DD839D82AD84B0FA1
:1042700050EC8DF00ED08A5101E158D7010A01E1CE
:1042800071D7030A88E0010AA6E0070ABCE0010A28
:10429000D2E00B0E00018B27892B030E8965EBD72B
:1042A000060E8A61060C8A518325D96E000E842180
:1042B000DA6E8A518525E16E000E8621E26E87EF67
:1042C00055F08351D9268451DA22DF50806F8B510B
:1042D00012007E6F300E7F6F20EE02F0300C7E6F8A
:1042E000370E7F6F20EE05F0370C7F6F83C0D9FF4C
:1042F00084C0DAFFDF50806F180C8551D9268651B3
:10430000DA22120000018B514E0F120000018B5176
:104310004B0F12009DD020EE01F0E251D926E3515F
:10432000DA22DF508FEF97F0010122EE01F0C25147
:10433000D926C351DA22DFA4F8EF51F0120020EEA3
:1043400001F0E251D926E351DA22DF50BAEF7CF0D6
:1043500020EE01F0E251D926E351DA22DF509EEF40
:1043600094F020EE01F0E251D926E351DA22DF5039
:1043700015EF93F0E229DE6F000EE321DF6F97EF78
:104380006AF0E229986F000EE321996F93EF94F0A1
:10439000E229986F000EE321996FD8EF4AF0E229E5
:1043A000986F000EE321996F7DEF2AF0E229986F54
:1043B000000EE321996F09EF68F0E229986F000E73
:1043C000E321996F00EF62F0E229986F000EE3217C
:1043D000996F49EF33F020EE01F0E251D926E35115
:1043E000DA22DF50B1EF93F020EE01F0E251D9264E
:1043F000E351DA22DECF98F0DDCF99F064EF95F04B
:1044000020EE01F0E251D926E351DA22DECF98F016
:10441000DDCF99F05AEF97F0E229986F000EE32173
:10442000996F51EF14F0E229656F000EE321666F7A
:104430003CEF85F0E229656F000EE321666FC8EF5F
:104440008FF0E229956F000EE321966F8BEF97F0C6
:10445000E2C0D9FFE3C0DAFFDF5002E1D0EF7AF02B
:10446000010AD8B41200030A02E1EBEF54F0010A8A
:10447000D8B41200070A01E14ED7140A02E122EF74
:1044800093F0080A02E17FEF95F0380A01E14CD77A
:10449000610A01E154D7030A01E15AD7010A01E197
:1044A00060D7070A01E166D7010A01E16AD7030A6A
:1044B00001E16ED7010A01E172D70E0A01E176D758
:1044C000030A01E17AD7010A01E17ED71A0AA4E0C2
:1044D000310AD8B41200010AADE0100AD8B41200B3
:1044E000F10A01E178D7030A01E17ED7070A88E0E3
:1044F000140AD8B41200010AA4E0030A94E01200DE
:10450000F1C072F0F2C073F0F3C074F0F4C075F053
:1045100069EC87F0000901E01200DFEC8EF070C05A
:10452000E5F171C0E6F1E5C1D9FFE6C1DAFFDF5080
:10453000030B030A03E1010E0101AF6F0101AF0597
:1045400014E1E5C1D9FFE6C1DAFFDF50030B030A2E
:104550000CE0E5C1D9FFE6C1DAFFDF500001F56FDD
:10456000700EF51702E10101AF6B0101AF0501E02B
:10457000A5D008EC97F065C0E7F166C0E8F1E5C1A9
:10458000D9FFE6C1DAFFDFA817D0898E898C010E2A
:104590000001656F010120EE3AF0E751D926E8519C
:1045A000DA22DE04010ED8A4000E0001666F000EB0
:1045B000676B2CEC86F015D0899E899C0001656B99
:1045C000010120EE3AF0E751D926E851DA22DE0463
:1045D000010ED8A4000E0001666F000E676B2CEC74
:1045E00086F0FCEC96F065C0E7F166C0E8F1E5C145
:1045F000D9FFE6C1DAFFDFAA16D08F86010E0001CF
:10460000656F010120EE3AF0E751D926E851DA2230
:10461000DE04010ED8A4000E0001666F676B010E68
:104620002CEC86F014D08F960001656B010120EE12
:104630003AF0E751D926E851DA22DE04010ED8A477
:10464000000E0001666F676B010E2CEC86F002EC29
:1046500097F065C0E7F166C0E8F1E5C1D9FFE6C1B2
:10466000DAFFDFAC16D08F80010E0001656F01010B
:1046700020EE3AF0E751D926E851DA22DE04010EA5
:10468000D8A4000E0001666F676B020E2CEC86F05A
:1046900019D08F900001656B010120EE3AF0E751CF
:1046A000D926E851DA22DE04010ED8A4000E00015A
:1046B000666F676B020E2CEC86F004D0899E899C95
:1046C0008F968F90F1C0E3F0F2C0E4F0F3C0E5F014
:1046D000F4C0E6F0010E0001E76FE86BE96BEA6BEE
:1046E000EB6BDFEF2CF0656B0101C1AB0AD001D0A1
:1046F00008D0D8D8CED8DFB204D001D002D0010E75
:10470000656F00016551000927E022EE0EF0C1D867
:10471000DF50C30B0409DF6E0101C1A91AD0BED856
:10472000B8D8DF5006E0AED8DF9C030E50EC97F00F
:104730000BD0A8D8DF8CA6D8DF9EA4D8DF98A2D84B
:10474000DF86040E50EC97F0A9D8A3D8B3D8DFCFFA
:10475000E7FFA8D89ED8DF8295D8DFB409D001D072
:1047600007D022EE0EF095D8DFA004D001D002D001
:10477000000E26D00101AC2BAC050001656FA60E22
:104780006565F6D701D0F4D722EE0EF082D8DF307F
:10479000E8320F0B12E001D010D022EE0EF079D8E3
:1047A000DF30656F65310F0B656F652B65376537DA
:1047B000DF506519C30B6519DF6E0101AC6B010E8B
:1047C000000904E0010E50EC97F03BD06FD861D89F
:1047D000DFA004D001D002D0000E20D0696B695157
:1047E000020DF3CF65F0F4CF66F06551F925676FE0
:1047F0006651FA21686F070E6725D96E020E68218F
:10480000DA6EDFA004D001D002D0010E07D0692BF0
:10481000030E6965E4D7E0D7E2D7DED7000911E0DF
:1048200031D8DF922FD8DF902DD8DF8422EE0EF022
:1048300030D8DF8022EE0EF02CD8DF92090E50EC3B
:1048400097F030D826D8DFA2120001D01200010163
:10485000C1AB120001D0120029D81BD8DF30E832DA
:104860000F0B656F010E6565010C01D0120022EE81
:1048700007F00FD8DF920101C19B18D80AD8C30EE8
:10488000DF16120022EE01F0F951D926FA51DA2290
:104890001200F951D926FA51DA221200000121EE54
:1048A000FEF01200000122EE07F01200000122EEDD
:1048B0000EF0120010EE01F0F951E126FA51E22259
:1048C000120006EC98F073EC6DF00001926B936BA4
:1048D000946B956B916B9C0ED5D87E6B41EC94F0EC
:1048E00073EC6DF0680E0001906FE40EE82EFED7B9
:1048F000902FFCD700009C0E0001C4D87E6F41ECC5
:1049000094F073EC6DF0680E0001906FE40EE82EE9
:10491000FED7902FFCD700000001912B020E91656D
:10492000DAD79281920E8D6F89EC7EF0000192832E
:10493000920E8D6F89EC7EF000019285920E8D6F44
:1049400089EC7EF000019287920E8D6F89EC7EF0EB
:1049500000019289920E8D6F89EC7EF00001928B9E
:10496000920E8D6F89EC7EF00001928D920E8D6F0C
:1049700089EC7EF00001928F920E8D6F89EC7EF0B3
:104980000001938B920E8D6F89EC7EF0000193896C
:10499000920E8D6F89EC7EF000019387920E8D6FE1
:1049A00089EC7EF000019385920E8D6F89EC7EF08C
:1049B00000019383920E8D6F89EC7EF0000193814C
:1049C000920E8D6F89EC7EF00001938F920E8D6FA9
:1049D00089EC7EF000019481920E8D6F89EC7EF05F
:1049E0000001938D920E8D6F89EC7EF0000194830F
:1049F000920E8D6F89EC7EF000019487920E8D6F80
:104A000089EC7EF000019485920E8D6F89EC7EF02A
:104A100000019489920E8D6F89EC7EF000019589DA
:104A2000920E8D6F89EC7EF000019583920E8D6F52
:104A300089EC7EF00001948B920E8D6F89EC7EF0F4
:104A40000001948F920E8D6F89EC7EF00001948DA1
:104A5000920E8D6F89EC7EF000019581920E8D6F24
:104A600089EC7EF00001958B920E8D6F89EC7EF0C3
:104A700000019585920E8D6F89EC7EF006EC98F022
:104A800073EF6DF07A6F230E7B6F010E7C6F91C018
:104A90007DF0010C686F82D0BC0E656F2F0E666FC3
:104AA000010E676F12003C0E656FC80E666F000E38
:104AB000676F1200BA0E656F1E0E666F010E676F8C
:104AC0001200C80E656F1A0E666F010E676F120036
:104AD000240E656FEA0E666F000E676F1200B40E4B
:104AE000656FC00E666F000E676F1200EA0E656F8D
:104AF000020E666F010E676F1200B40E656F180E1E
:104B0000666F010E676F1200FA0E656FFA0E666F20
:104B1000000E676F1200FA0E656F030E666F010ECE
:104B2000676F1200B60E656F030E666F010E676F3A
:104B30001200920E656F010E666F010E676F120014
:104B4000720E656F030E666F010E676F1200A20E84
:104B5000656FF20E666F000E676F1200F40E656FE0
:104B6000F50E666F000E676F1200C20E656FDB0EEA
:104B7000666F000E676F12004E0E656FAE0E666FA9
:104B8000000E676F12002E0E656F030E666F010E2A
:104B9000676F1200656B666B676B120000016851EE
:104BA00082E0020AF0E0010A85E0070A8AE0010AD1
:104BB00088E0030ABEE0010A84E00F0AACE0180AAC
:104BC000E2E0010A85E0090ADEE0010A88E0030A62
:104BD0008DE03A0AD8E0010A01E16CD7030A01E14D
:104BE00069D7010A8AE0070A8FE0010A9BE0030AFD
:104BF000A7E0010AACE00E0AB1E0030AAFE0010A47
:104C0000A6E01B0AB2E0010AB7E0700ABCE0030AA2
:104C1000BAE0010AB8E0070AB6E0010AB4E0030A04
:104C2000B2E0010AB0E00E0AAEE0030AACE0010A0D
:104C3000AAE01A0AA8E0310A01E12ED7110A01E11F
:104C400063D7F10AA0E0030A9EE0070A9CE0140A79
:104C500001E153D7010A01E11FD7030A01E11CD783
:104C600099D79D6B9E6B9F6BA06B9E0E9D6FEF0EF9
:104C70009E6FE10E9F6F410EA06FA3D8C5EC3BF075
:104C8000C5D85C0E816FFE0E826FE80E836F3A0E00
:104C9000846F67EC1FF07DC099F07CD8DBEC1AF0D4
:104CA000BED88FD8C5EC3BF0B1D88BD8C5EC3BF063
:104CB000A4D867EC1FF09CD88ED8ED0E816F450EFE
:104CC000826FDE0E836FB20E846F67EC1FF07DC0C3
:104CD00099F060D8DBEC1AF0A2D873D8C5EC3BF0A1
:104CE00095D86FD8C5EC3BF088D867EC1FF080D81A
:104CF00072D867D8C5EC3BF080D867EC1FF078D845
:104D00006AD83A0E816F6D0E826FA00E836F2B0EE4
:104D1000846F67EC1FF07DC099F03CD8DBEC1AF093
:104D20007ED89DC07DF09EC07EF09FC07FF0A0C069
:104D300080F0816B826B200E836F410E846F67EC75
:104D40001FF07DC09DF07EC09EF07FC09FF080C0B0
:104D5000A0F09DC08FF09EC090F09FC091F0A0C0C9
:104D600092F0BCEC5BF08FC09DF090C09EF091C0C3
:104D70009FF092C0A0F09DC065F09EC066F09FC0FD
:104D800067F0A0C068F0A0EC59F065C097F066C06D
:104D900098F012007EC09AF07FC09BF080C09CF01B
:104DA0009DC065F09EC066F09FC067F0A0C068F02F
:104DB00099C069F09AC06AF09BC06BF09CC06CF01F
:104DC000120097C06FF098C070F0000E70BFFF0E19
:104DD000716F726F010C7FC09BF080C09CF099C016
:104DE0007DF09AC07EF09BC07FF09CC080F01200E6
:104DF0007DC099F07EC09AF012006FC081F070C043
:104E000082F071C083F072C084F012006FC07DF038
:104E100070C07EF071C07FF072C080F0120065C07B
:104E20009DF066C09EF067C09FF068C0A0F01200C1
:104E3000E8EC96F065C079F066C07AF0AED88FD80D
:104E4000C80EDE6EDD6A20EE27F089D86E0EB5D86A
:104E500086D8B40EDE6EBAD882D8B40EA9D87FD860
:104E6000010EDE6E81D87BD883D879D8010EDF6E33
:104E700098D81EEC66F065EC94F065C079F066C0D9
:104E80007AF08BD86CD82C0EDE6E010E9BD867D8CA
:104E9000640E93D864D8960EDE6E98D860D8FA0E59
:104EA00087D85DD8DE6A60D85AD862D858D8DF6A09
:104EB00078D81EEC66F071EC94F065C079F066C0AD
:104EC0007AF06BD84CD88A0EDE6E020E7BD847D8AB
:104ED000300EDE6E020EDD6E20EE23F040D87FD85D
:104EE00020EE25F03CD87BD820EE2BF038D8010EF0
:104EF000DE6E3AD834D83CD832D8020EDF6E51D8A4
:104F00001EEC66F020EE38F02AD8DE6ADD6A010178
:104F1000B56B040EC06F060EC16F5CD878EC80F0E4
:104F20002ED85C6ADC6BDD6B38EC97F065C067F0FF
:104F300066C068F06A6B696B020E6C6F0F0E6B6F68
:104F400099EC8CF0786B782B0E0E7865FCD701010C
:104F5000C981010E9C6F5BEC18F0000012007951C2
:104F6000D9267A51DA221200DD6A20EE2DF01200E5
:104F7000580EDE6E020EDD6E20EE3AF0020C020ECE
:104F8000DA6FDB6B080ED46F640ED56FFD0ED66F33
:104F9000D769E36B140EE26F140C000120EE29F0C8
:104FA000120079C065F07AC066F0686B676B12001A
:104FB000DE6EDD6A20EE2BF01200DE6EDD6A20EE82
:104FC00023F01200DD6E20EE27F01200DD6A20EEE5
:104FD00025F01200556A566A576A586AF80C440E52
:104FE000DE6E020EDD6E020CB3D8DA22DECF7AF06E
:104FF000DDCF7BF0ADD85BEC36F0BFEC3CF0E7509A
:105000007D6FA6D8BBD8BFEC3CF0E7507C6FF9C0F1
:105010007EF0FAC07FF07A0E796FADEC69F000098E
:1050200001E090D07A0E6C6F726B736B6C5190ECE8
:1050300032F0BFEC3CF0E750030F706F000EF6EC5F
:1050400096F000016C51D96EDA6ADECF68F0DDCFE0
:1050500069F070C06AF036EC89F0010E716F3CD0D7
:10506000720E656F6C51D96EDA6ADECF6DF0DDCFEE
:105070006EF071516D25D96E000E6E21DA6EDF5023
:10508000666F6651686F676B6551D96EDA6A6751F2
:10509000DE1A6851DD1A080E6B6F74D868AF14D031
:1050A00001D012D06FD8D89067376837210E6719B2
:1050B000696F100E68196A6F6551D96EDA6A69C036
:1050C000DEFF6AC0DDFF02D0655164D86B076B510B
:1050D000E4E101D0E2D7712B7051715DC1E301D0E1
:1050E000BFD76C511EEC2AF039D873C0DFFF6C516A
:1050F0001EEC2AF0DF2A6C511EEC2AF02FD872C069
:10510000DFFF6C511EEC2AF0DF2A6C511EEC2AF0F6
:1051100025D80D0EDF6E6C511EEC2AF0DF2A7AC006
:1051200066F07BC067F07CC068F001D80BD005004A
:10513000FA6E01016451FD6E6551FE6E6651FF6E9F
:10514000FA50120005D81AD8BFEC3CF0E76A1200FA
:1051500020EE02F03850D92639501200DF506D6F22
:105160006C51D96EDA6ADECF6EF0DDCF6FF06D5123
:105170006E25D96E000E6F21DA6E1200DA2210EE63
:1051800064F012006551D96EDA6ADECF67F0DDCFC8
:1051900068F01200D96EDA6AD890DE36DD36120079
:1051A0000001786F78511FE0816B826B000E716F88
:1051B000030E726FD8908135D96E8235DA6ED89031
:1051C000D936DA367151D9267251DA22B9D8814BE3
:1051D000822B82BFEBD7825103E10B0E815DE6E3A8
:1051E0000101A66B000C0101A651040D000EF32471
:1051F000D96E030EF420DA6EA3D86DC079F06EC0BC
:105200007AF06FC07BF070C07CF06DC07DF06EC036
:105210007EF06FC07FF070C080F0A62B090EA665EF
:1052200001D0A66B0001876B886B79D8DE50795D61
:10523000DE507A59DE507B597C51800A776FDE5000
:10524000800A775909E26BD8DECF79F0DECF7AF0A9
:10525000DECF7BF0DECF7CF062D87D51DE5C7E510C
:10526000DE587F51DE58DE50800A776F8051800A09
:10527000775909E254D8DECF7DF0DECF7EF0DECF65
:105280007FF0DECF80F0874B882B88BFCED7885148
:1052900003E10A0E875DC9E37D51795D656F7E513B
:1052A0007A59666F7F517B59676F80517C59686F5F
:1052B000F8EC7EF065C083F066C084F067C085F0CE
:1052C00068C086F086BF09D08651851105E1C00E01
:1052D000835D5D0E845901E3000C86BF09D08651C1
:1052E000851105E1E00E835D2E0E845901E3010C6A
:1052F00086BF09D08651851105E1700E835D170EBA
:10530000845901E3020C86BF040C8651851105E126
:10531000B80E835D0B0E845901E3030C040C000EE0
:10532000716F030E726FD8908735D96E8835DA6E3B
:10533000D890D936DA367151D9267251DA22120054
:105340006DC0DEFF6EC0DEFF6FC0DEFF70C0DEFF2F
:105350001200705173D8030EDF6E7051D96EDA6A85
:10536000DECF71F0DDCF72F071C0D9FF72C0DAFF0D
:105370001B0EDF6E705162D86AD8500EDF6E70510E
:105380005DD8DF2A70515AD862D8DF6A705156D87A
:10539000DF2A705153D85BD8DF6870514FD895EC35
:1053A00032F070C06BF0A4D8686B9AD803E008D0D4
:1053B00001D006D0682B050E6865F7D701D0F5D768
:1053C0006F6B6FD864D87CD86F2B050E6F65F9D7DB
:1053D00001D0F7D76B5132D836D830D848D85DD8FD
:1053E0002DD8DF2A6B512AD842D876D827D8DF2A81
:1053F000705124D82CD8010EDF6E70511FD8DF2ACF
:1054000070511CD824D8640EDF6E705117D8DF2A73
:1054100070518BEC32F0BFEC3CF0E76A705190ECCD
:1054200032F0BFEC3CF0705109D8DF50FD0FE76E51
:10543000705104D8640EDF60010C000CD96EDA6A7A
:10544000020ED926020C060EDF266B511200DF5029
:10545000716F7051D96EDA6ADECF72F0DDCF73F002
:1054600071517225D96E000E7321DA6E1200DF5071
:105470006C6F6B51D96EDA6ADECF6DF0DDCF6EF0F6
:105480006C516D25D96E000E6E21DA6E1200E16E40
:10549000E26A020EE126E7501200CA0EDF6E6B517F
:1054A00012006F516925D96E000E6A21DA6E6B51B8
:1054B000E16EE26AE6CF6CF0E5CF6DF06B51120061
:1054C0006C27000E6D236F516C25E16E000E6D216F
:1054D000E26EDFCFE7FF1200FE0EDF6E6B511200AF
:1054E00068516525D96E000E6621DA6EDE2812003D
:1054F00069C065F06AC066F01200C0D8AEEC7EF0FC
:1055000067C0A4F068C0A5F00001A451A51104E192
:10551000B5D8886F020E4FD0040E9825A0D8F8ECAD
:1055200052F07FC0A0F080C0A1F0982998D8F8EC84
:1055300052F07FC0A2F080C0A3F0A2C06DF0A3C063
:105540006EF0A0C06FF0A1C070F0A4C071F0A5C053
:1055500072F0746BE7EC33F028E201D026D0D5EC82
:1055600033F06C6B5ED808E301D006D069D804E351
:1055700001D002D0010E6C6F6C51000916E001D011
:1055800014D0DEEC33F06C6B4CD808E301D006D0BD
:1055900057D804E301D002D0010E6C6F6C510009A2
:1055A00004E001D002D0010E746F7451000905E1CE
:1055B00065D8886F030E896F31D020EE3AF064D839
:1055C000020EDE18010ED8A4000E9F6F9F5105E158
:1055D000A2C09BF0A3C09CF004D0A0C09BF0A1C0CF
:1055E0009CF020EE23F050D89BC0DEFF9CC0DDFF76
:1055F0009F5105E1A0C09DF0A1C09EF004D0A2C0C3
:105600009DF0A3C09EF020EE25F03ED89DC0DEFFA9
:105610009EC0DDFFFAEC90F031D83BD8470EE9EFA1
:1056200088F020EE13F06751D9266851DA22DE5057
:10563000655D6651800A6B6FDE50800A6B591200FF
:1056400020EE15F06751D9266851DA226551DE5CEB
:10565000DE50800A6B6F6651800A6B5912007F6FB3
:10566000000E9921806F20EE1FF0A451D926A5517C
:10567000DA22DECF81F0DDCF82F0120098C0D9FFB0
:1056800099C0DAFFDF501200A451D926A551DA22C1
:1056900012000001886F896B1200939A8A9A1A0E81
:1056A0000001816FF80EE82EFED7812FFCD7000095
:1056B0008A8A200E0001816F290EE82EFED7812FE5
:1056C000FCD700D0C00E0001A0D8300E3AEC91F00B
:1056D000C00E9BD8370E3AEC91F0C00E96D8360E1D
:1056E0003AEC91F0A3D83F0E7C6F300E3AEC91F07B
:1056F0009DD83F0E7C6F370E3AEC91F097D8280E6C
:105700007C6F360E3AEC91F06DD8300E3AEC91F099
:1057100069D8370E3AEC91F065D8360E3AEC91F034
:105720006ED8300E3AEC91F06AD8370E3AEC91F020
:1057300066D8360E3AEC91F06ED8300E3AEC91F015
:105740006AD8370E3AEC91F066D8360E3AEC91F002
:10575000010E7E6F300E2AEC91F0010E7E6F370E37
:105760002AEC91F0010E7E6F360E2AEC91F033D8C0
:10577000300E3AEC91F02FD8370E3AEC91F02BD84E
:10578000360E3AEC91F0826B34D8300E3AEC91F050
:1057900030D8370E3AEC91F02CD8360E3AEC91F026
:1057A000822B170E8265F0D7180E826F400E39D803
:1057B000300E3AEC91F0400E34D8370E3AEC91F0BE
:1057C000400E2FD8360E3AEC91F0822B9B0E82655C
:1057D000EDD700009B0CC00E7A6F090E7B6F030E95
:1057E0007C6F030CC00E7A6F040E7B6FEB0E7C6F28
:1057F000EB0C400E7A6F82C07BF07C6B400CC00ECD
:105800007A6F010E7B6F7C6B010C7A6F060E7B6FDB
:10581000020E7C6F020CC00E7A6F7B6B400E7C6FA9
:10582000400C7A6F82C07BF07C691200C00E7A6FE8
:10583000050E7B6F050C920EF66E100EF76E010EC4
:10584000F86E06EEA4F010EE36F00900F5CFEEFF8C
:10585000E550E150FAE10A0EF66E1D0EF76E010EEC
:10586000F86E05EECFF010EE24F00900F5CFEEFF54
:10587000E550E150FAE1E60EF66E1C0EF76E010EF1
:10588000F86E04EECCF010EE24F00900F5CFEEFF38
:10589000E550E150FAE1680EF66E1B0EF76E010E50
:1058A000F86E03EECBF010EE27F00900F5CFEEFF17
:1058B000E550E150FAE11E0EF66EEE0EF76E000EA8
:1058C000F86E02EE80F010EE5AF00900F5CFEEFF10
:1058D000E550E150FAE1860EF66E2F0EF76E010EDE
:1058E000F86E01EEFAF010EE06F00900F5CFEEFFCB
:1058F000E550E150FAE10CEEFAF012EE0FF0EE6A2C
:10590000E550E150FCE1E250FAE10CEE00F0FA0E55
:10591000EE6AE806FDE10BEE00F0FA0EEE6AE8062C
:10592000FDE10AEE00F0FA0EEE6AE806FDE109EE8E
:1059300000F0FA0EEE6AE806FDE108EE00F0D50E82
:10594000EE6AE806FDE107EE00F0FA0EEE6AE80600
:10595000FDE106EE00F0A40EEE6AE806FDE105EEBC
:1059600000F0CF0EEE6AE806FDE104EE00F0CC0E8A
:10597000EE6AE806FDE103EE00F0CB0EEE6AE80603
:10598000FDE102EE00F0800EEE6AE806FDE101EEB8
:1059900000F0E50EEE6AE806FDE10001FA6BF96B36
:1059A000F86BF76BF66B5E6A00EE32F02C0EEE6A67
:1059B000E806FDE15F905F92000187EF30F0EE0EA8
:1059C000726F736B29EC76F072C0EFF073C0F0F079
:1059D00020EE02F0EF51D926F051DA22DFA00AD0F2
:1059E000E3C065F0E4C066F0E5C067F0E6C068F0CB
:1059F000B5EC95F00001E851E91108E0E8C0D9FFE5
:105A0000E9C0DAFFEFC0DEFFF0C0DDFFEA51EB11C5
:105A100006E0EAC0D9FFEBC0DAFFEEC0DFFFEFC05F
:105A2000D9FFF0C0DAFFDE501FE1DE041DE1EE51C8
:105A30001BE020EE02F0EF51D926F051DA22DFB45C
:105A400013D020EE02F0EF51D926F051DA22DFB662
:105A50000BD0E3C0D5F0E4C0D6F0E5C0D7F0E6C087
:105A6000D8F030EC8BF0010CEFC0D9FFF0C0DAFFBA
:105A7000DE04DE1008E0EFC0D9FFF0C0DAFF020E4E
:105A8000DE18DE103DE1EE5108E120EE02F0EF51AC
:105A9000D926F051DA22DFA4010C20EE02F0EF51FA
:105AA000D926F051DA22DFB2010CEFC0D9FFF0C0E5
:105AB000DAFFDE04DE100DE1DC69DB69E3C0DDF056
:105AC000E4C0DEF0E5C0DFF0E6C0E0F02FEC8AF0E5
:105AD000010CEFC0D9FFF0C0DAFF020EDE18DE10B5
:105AE000D8A4010CDC6B010EDB6FE3C0DDF0E4C079
:105AF000DEF0E5C0DFF0E6C0E0F02FEC8AF0010C4C
:105B0000EFC0D9FFF0C0DAFF800EDE18DE1018E11A
:105B1000E75116E0EE51D8B4010C20EE02F0EF513F
:105B2000D926F051DA22DFB2010CE3C0D5F0E4C08F
:105B3000D6F0E5C0D7F0E6C0D8F0D8EC8CF0010C78
:105B4000000CE5C0D9FFE6C0DAFFDECFE7F0DDCF1D
:105B5000E8F0845107E100016E6B020E40EC96F014
:105B600073EC6DF00001666B080E656FE7C067F0BF
:105B7000E8C068F06551671906E16651681901E0EF
:105B800002D0010E01D0000E000917E06E6B010E6D
:105B900040EC96F0790E7A6F240E7B6F010E7C6FCD
:105BA0007D6F7E6B41EC94F0010E0201846F020167
:105BB000816B826B73EC6DF064D0666B040E656F65
:105BC000E7C067F0E8C068F06551671906E1665103
:105BD000681901E002D0010E01D0000E000916E0A4
:105BE0006E6B010E40EC96F0610E7A6F240E7B6FA7
:105BF000010E7C6F7D6F7E6B41EC94F00201846B33
:105C000000016E6B020E40EC96F0D1D7010E666F6C
:105C1000656BE7C067F0E8C068F06551671906E199
:105C20006651681901E002D0010E01D0000E000992
:105C300028E00101010EC9A1000E020184190BE048
:105C400084B103D00101C99102D00101C9810201CF
:105C500084515FEC97F0E1C0DDF0E2C0DEF0E3C01C
:105C6000DFF0E4C0E0F022EE9FF001D80AD005009A
:105C7000FA6EDE50FD6EDE50FE6EDE50FF6EFA50A4
:105C8000120002018451D8B4120083510101C619D7
:105C9000D8B4120000016E6B020E40EC96F096EC48
:105CA00085F065C07AF066C07BF0010E7C6F020E55
:105CB0007D6F7E6B41EC94F073EF6DF0D5C0D9FF32
:105CC000D6C0DAFF0001DFAE000C3EC065F03FC079
:105CD00066F081EC8FF0000901E1A8D0000ED3EC52
:105CE00079F065C0DDF066C0DEF020EE33F03E50A6
:105CF000D9263F50DA2210EE04F0DE50E126DD50C6
:105D0000E222E6CFDFF0E5CFE0F0E56BE66B45D0D1
:105D100020EE0DF03E50D9263F50DA22DECFDBF0E8
:105D2000DDCFDCF0DD51E55D656FDE51E659666F74
:105D3000DFC067F0E0C068F04DEC8EF0DB51652508
:105D4000E16FDC516621E26F3EC0A5F03FC0A6F0D6
:105D5000E1C0A7F0E2C0A8F0F0EC43F0A5C0E3F08A
:105D6000A6C0E4F04D0E716F020E726F3CC073F06E
:105D70003DC074F0E5C075F0E6C076F0E3C077F0A2
:105D8000E4C078F0000E7A6F796F92C17BF093C116
:105D90007CF085EC48F0E54BE62B3C50E55DE651A8
:105DA000800ADB6F3D50800ADB59B2E3E56BE66B9E
:105DB0002AD03EC0A7F03FC0A8F0D890E535D96EF4
:105DC000E635DA6E4D0ED926020EDA22DECFA9F0C4
:105DD000DDCFAAF0C4EC40F0D890E535D96EE635B9
:105DE000DA6E450ED926020EDA22DECFDBF0DDCFE9
:105DF000DCF0DBC0D9FFDCC0DAFFA7C0DEFFA8C043
:105E0000DDFFE54BE62B3C50E55DE651800ADB6F9C
:105E10003D50800ADB59CDE3D7C0CFF0D8C0D0F0D9
:105E2000D9C0D1F0DAC0D2F0D3EC7EF0010CA05191
:105E30009C5DA1519D59A2519E59A3519F590AE3BE
:105E4000000E836F1E0E9ED8140E866F230E876F72
:105E500078EC8DF0A4C0D9FFA5C0DAFFDE50DE10CB
:105E6000DE100BE1000E0001836F1F0E8BD8AC0E0D
:105E7000866F220E876F78EC8DF0000120EE03F024
:105E800087D80AE1000E836F200E7CD8FB0E866F48
:105E9000220E876F78EC8DF0000120EE06F078D8A6
:105EA0000AE1000E836F210E6DD8C70E866F220E99
:105EB000876F78EC8DF0000120EE09F069D80AE1D7
:105EC000000E836F220E5ED8740E866F220E876FCF
:105ED00078EC8DF09CC07FF39DC080F39EC081F371
:105EE0009FC082F39E0E0301836F3C0E846F000EF1
:105EF000856FA0C07DF0A1C07EF0A2C07FF0A3C0DE
:105F000080F09CC081F09DC082F09EC083F09FC055
:105F100084F0BDEC68F07DC004F27EC005F27FC065
:105F200006F280C007F2A4C07AF1A5C07BF101019E
:105F3000786B796B0201006B016B026B036B000ED7
:105F40000101C225366E020EC321376E000E00011C
:105F5000956F0B0E966F986BFA0E976F010120EEFE
:105F600009F07A51D9267B51DA22DECF99F0DECFC3
:105F70009AF0DDCF9BF01DEC7FF07F0E9C6F030E3F
:105F80009D6F1200826F440E846F230E856F120086
:105F9000A451D926A551DA22DE50DE10DE101200FF
:105FA000730E7C6F8BD0250E811904E081512FEC8C
:105FB00098F084D07A6B27D07C51D96EDA6ADECF24
:105FC0007DF0DDCF7EF0020E7C277D517E1111E148
:105FD000A50E7D6F230E7E6F0CD08CD8F76403D096
:105FE0000800F55001D077D82FEC98F000017D4BD8
:105FF0007E2B80D8F76403D00800F55001D06BD811
:1060000000095CE0EAD77ED86CD8D8B41200640AE4
:1060100005E00D0A03E01A0ACFE050D07C51D96E9A
:10602000DA6ADECF7FF0DDCF80F0020E7C2780AF12
:1060300006D0030E7A137F6D801FD8B0802B010E1F
:10604000816F815141D8F6EC58F00900F5507F5D21
:106050000900F550805904E3812B050E8119F1E107
:106060007AC079F0030E791703E02D0E2FEC98F02B
:1060700081C07BF01FD07B5127D8F6EC58F0090087
:10608000F5CF67F00A00F5CF68F07FC065F080C0FB
:1060900066F067EC7FF065C06CF066C06DF06F6B0A
:1060A0000A0E6E6F85EC84F06C51300F816F815158
:1060B0002FEC98F000017B077B29DDE123D800015C
:1060C00010D801E070D71200020DF50EF324F66E21
:1060D000200EF4201200F6CFE9FFF7CFEAFFEF50D1
:1060E0001200714B722B000EF86E0800F5CF81F094
:1060F000815112007DC0F6FF7EC0F7FF000EF86EE2
:106100000F0E120071C0F6FF72C0F7FF120027ECED
:106110008FF097929794010E8EA2000EFF0A030152
:10612000F46FF4478E50F419FD0BF4198E6E010EC6
:106130008EA2000EFF0AF46FF4478E50F419FD0B87
:10614000F4198E6E010E8EA4000EFF0AF46FF44750
:10615000F4478E50F419FB0BF4198E6E010E8EA4C9
:10616000000EFF0AF46FF447F4478E50F419FB0B4E
:10617000F4198E6EA4EC82F0F28EF28C6BEC7CF053
:1061800030EC8CF0D0B62FD0010E8EA2000EFF0A9C
:106190000301F46FF4478E50F419FD0BF4198E6E61
:1061A000010E8EA2000EFF0AF46FF4478E50F41910
:1061B000FD0BF4198E6EBE0E00017A6F230E7B6FFD
:1061C000010E7C6F7D6B7E6B41EC94F0CB0E7A6F91
:1061D000230E7B6F010E7C6F7D6B7E6F41EC94F024
:1061E00073EC6DF0FFD7D0BA31D0010E8EA4000E43
:1061F000FF0A0301F46FF447F4478E50F419FB0BC8
:10620000F4198E6E010E8EA4000EFF0AF46FF4478F
:10621000F4478E50F419FB0BF4198E6EBE0E00017C
:106220007A6F230E7B6F010E7C6F7D6B7E6B41EC72
:1062300094F0D00E7A6F230E7B6F010E7C6F7D6B16
:106240007E6F41EC94F073EC6DF0FFD7AFEC97F0FC
:1062500069EC70F0B5EC15F02EEC98F0090E000129
:10626000DE6F3D0EDF6FE06BE16B30EC1DF0D18037
:1062700016EC96F02DEF10F06651D96EDA6ADECF8B
:1062800076F0DDCF77F0665114EC42F0DECF6BF0A4
:10629000DDCF6CF020EE05F095D8676F6705706F65
:1062A000060E706501D0010C20EE06F08BD8716FE0
:1062B000060E716501D0010C70517F0D74D86B25ED
:1062C000696F68516C216A6F020E69256E6F000E4E
:1062D0006A216F6F070E6E25736F000E6F21746F4A
:1062E00020EE05F06E51D9266F51DA2271C0DFFF22
:1062F000070E756F6D6B3CD0726B4ED8DF50786FA8
:10630000752B060E786501D0010C39D8692960D843
:1063100078C0DFFF7851140D46D87325D96E6851C7
:106320007421DA6E70C0DFFF09D036D828D87251D8
:106330006927000E6A23030E3CD8722B2DD8DF503C
:1063400003E00E0E7265F1D70F0E726501D0010CDD
:1063500016D8020E69253CD872C0DFFF752B1CD8F9
:106360000ED8120E26D818D80AD8130E22D86D2BA4
:1063700071516D5DC1E3080E50EC97F0000C78513F
:10638000140DF3CF67F0F4CF68F067517325696F90
:10639000685174216A6F120075517625D96E000E0E
:1063A0007721DA6E1200F3CF67F0F4CF68F067510F
:1063B00012006925E16E000E6A21E26EDFCFE7FF71
:1063C000752B12007651D9267751DA22DF50120050
:1063D000D96E000E6A21DA6E120070511EEC2AF09E
:1063E000030EDF6E7051D96EDA6ADECF71F0DDCF49
:1063F00072F071C0D9FF72C0DAFF1B0EDF6E7051F0
:106400001EEC2AF078D8510EDF6E70511EEC2AF087
:10641000DF2A70511EEC2AF06ED8DF6A70511EEC34
:106420002AF0DF2A70511EEC2AF065D8DF6870511F
:106430001EEC2AF07AD870C06BF078EC2AF0686B0A
:1064400070EC2AF003E008D001D006D0682B050ECE
:106450006865F6D701D0F4D76F6B51EC2AF047ECA2
:106460002AF060EC2AF06F2B050E6F65F6D701D08D
:10647000F4D76B511EEC2AF023EC2AF01EEC2AF024
:1064800037EC2AF04DEC2AF01EEC2AF0DF2A6B5193
:106490001EEC2AF037EC2AF06CEC2AF01EEC2AF005
:1064A000DF2A70511EEC2AF026D8010EDF6E7051E3
:1064B0001EEC2AF0DF2A70511EEC2AF01CD8640E64
:1064C000DF6E70511EEC2AF0DF2A705124D8BFEC29
:1064D0003CF0E76A705124D8BFEC3CF070511EECE0
:1064E0002AF0DF50FD0FE76E70511EEC2AF0640EAB
:1064F000DF60010C000CDF50716F7051D96EDA6AE9
:10650000DECF72F0DDCF73F071517225D96E000EBF
:106510007321DA6E1200D96EDA6A10EE01F0120001
:10652000D96EDA6A10EE02F01200DF2AC4C169F0F7
:10653000C5C16AF0120020EE38F097D8DFAE16D051
:1065400020EE39F092D8DFB211D077D8D85D9CD840
:10655000D95990D8DA5993D8DB597BD891C0D4F166
:1065600092C0D5F193C0D6F194C0D7F120EE39F0A6
:106570007CD8DFA216D020EE38F077D8DFBE11D05D
:106580005CD8D45D81D8D55975D8D65978D8D75923
:1065900060D891C0D8F192C0D9F193C0DAF194C01B
:1065A000DBF155500101D85D5A6F5650D9595B6FD8
:1065B0005750DA595C6F5850DB595D6F5AC17DF006
:1065C0005BC17EF05CC17FF05DC180F02C0E0001EC
:1065D000816F010E7CEC43F0B1EC4CF07DC05AF1C0
:1065E0007EC05BF17FC05CF180C05DF15550010160
:1065F000D45D566F5650D559576F5750D659586F6E
:106600005850D759596F56C17DF057C17EF058C1C7
:106610007FF059C180F0D40E0001816FFE0E826FB1
:1066200083698469B1EC4CF07DC056F17EC057F1AE
:106630007FC058F180C059F11200D89055348D6F49
:1066400056348E6F57348F6F5834906F8D510101CF
:1066500012000001946F911F921F931F941F912BA2
:10666000000E922393239423000C8B51D9268C5136
:10667000DA2212000001926F8F5101011200000115
:10668000936F9051010112000001916F8E51010131
:10669000120085D8AEEC7EF067C09EF068C09FF017
:1066A00000019E519F1104E17AD8886F020E50D0EC
:1066B000982966D8F8EC52F07FC09AF080C09BF021
:1066C000040E98255DD8F8EC52F07FC09CF080C095
:1066D0009DF09AC06DF09BC06EF09CC06FF09DC0A5
:1066E00070F09EC071F09FC072F0746B70D82AE297
:1066F00001D028D05AD86C6B11EC2BF009E301D0F3
:1067000007D020EC2BF004E301D002D0010E6C6F17
:106710006C51000917E001D015D050D86C6B11EC0A
:106720002BF009E301D007D020EC2BF004E301D0DB
:1067300002D0010E6C6F6C51000904E001D002D050
:10674000010E746F7451000905E129D8886F030E9A
:10675000896F13D020EE27F043D89AC0DEFF9BC08C
:10676000DDFF20EE29F03CD89CC0DEFF9DC0DDFFA0
:10677000FAEC90F014D849EC2BF04B0EE9EF88F0CE
:106780007F6F000E9921806F20EE1FF09E51D92659
:106790009F51DA22DECF81F0DDCF82F0120098C067
:1067A000D9FF99C0DAFFDF5012006DC065F06EC0EE
:1067B00066F071C067F072C068F012006FC065F0DB
:1067C00070C066F071C067F072C068F012006F515F
:1067D0006D5D6E51800A736F7051800A735912009B
:1067E0009E51D9269F51DA221200A1D8DE6ADD6AB5
:1067F0006CC065F06DC066F07B0E676F1DEC78F0C5
:1068000065C080F066C081F080C065F081C066F030
:106810006CC067F06DC068F07DD865C079F066C067
:106820007AF07951705D7A51715901E21200030ECC
:10683000746F756B8051745F8151755B7DD8745135
:10684000DE267551DD2273D8DFCF74F0DE2ADFCF6C
:1068500075F0000EDD2270D8DECF76F0DDCF77F058
:1068600074517625D96E75517721DA6EAA0EDF6ED6
:106870007E6B7F6B21D07E517B0FD96EDA6A72C03E
:10688000E1FF73C0E2FFE7CF74F0E62AE7CF75F0CF
:10689000000EE5226EC0E1FF6FC0E2FFE6CF76F0AA
:1068A000E5CF77F074517625E16E75517721E26E70
:1068B000DFCFE7FF7E4B7F2B80517E5D81517F597B
:1068C000DAE335D86C51DE266D51DD2235D8DECFC6
:1068D00065F0DDCF66F02BD8DECF67F0DDCF68F056
:1068E0009DEC8BF0746F23D8DECF75F0DDCF76F0A2
:1068F00023D8DECF77F0DDCF78F075517725D96ECC
:1069000076517821DA6E74C0DFFF11D8DE2A000ECE
:10691000DD22000C67516525696F685166216A6F39
:10692000020E6925656F000E6A21666F120072C043
:10693000D9FF73C0DAFF12006EC0D9FF6FC0DAFF53
:106940001200FEEC79F0B0C0DDF0B1C0DEF0D890FE
:1069500001019035D96E9135DA6E4D0ED926020EB1
:10696000DA22DECFDBF0DDCFDCF00001D551DB2514
:10697000DF6FD651DC21E06F4D0E716F020E726F2A
:106980003CC073F03DC074F090C175F091C176F0D9
:10699000DFC077F0E0C078F0DDC079F0DEC07AF0DB
:1069A00092C17BF093C17CF085EC48F0E16FE1513E
:1069B0002CE13EC0A7F03FC0A8F0D890010190356F
:1069C000D96E9135DA6E4D0ED926020EDA22DECF5F
:1069D000A9F0DDCFAAF0C4EC40F0D89001019035C9
:1069E000D96E9135DA6E450ED926020EDA22DECF47
:1069F000DBF0DDCFDCF0DBC0D9FFDCC0DAFF00016B
:106A0000A7C0DEFFA8C0DDFF36D0E26BE36B2AD063
:106A10003EC0A7F03FC0A8F0D890E235D96EE3356C
:106A2000DA6E4D0ED926020EDA22DECFA9F0DDCFC6
:106A3000AAF0C4EC40F0D890E235D96EE335DA6EB6
:106A4000450ED926020EDA22DECFDBF0DDCFDCF0F8
:106A5000DBC0D9FFDCC0DAFFA7C0DEFFA8C0DDFFC6
:106A6000E24BE32B3C50E25DE351800ADB6F3D508B
:106A7000800ADB59CDE3CDEC8EF0D7C0CFF0D8C083
:106A8000D0F0D9C0D1F0DAC0D2F0D3EF7EF0010E51
:106A9000A9EC83F0CFEC92F0000902E073EF6DF007
:106AA0009BEC97F0000904E013EC60F073EF6DF0DD
:106AB0000001CB6BCC6B76D0D890CB35D96ECC3572
:106AC00093EC75F0DECFCDF0DDCFCEF0000120EEFF
:106AD00033F076D8DECFC9F0DDCFCAF0C9C0D9FF18
:106AE000CAC0DAFFDF50A0EC7BF0CDC065F0CEC0AD
:106AF00066F081EC8FF0000943E0CDC067F0CEC0B6
:106B000068F0DCEC8BF0000907E0CDC084F0CEC06B
:106B100085F00FEC4DF043D0000120EE3CF050D852
:106B2000DFA212D020EE3BF04BD8DFB60DD0010132
:106B3000CB5135E1CDC0B9F0CEC0BAF0FFEC91F049
:106B400044D831EC81F02BD0CDC067F0CEC068F0D6
:106B50003CEC93F0000907E0CDC084F0CEC085F096
:106B60008FEC55F01CD0000120EE3BF029D8DFA2BD
:106B7000E1D7CDC0BBF0CEC0BCF0A6EC7AF00FD010
:106B8000CDC065F0CEC066F06FEC8FF0000904E177
:106B90001CD831EC81F003D00101CB51B6E10001EA
:106BA000CB4BCC2B0101BC510001CB5DCC51800AF9
:106BB000C96F9AEC75F0C95901E27ED773EF6DF099
:106BC000CD51D926CE51DA221200CDC0BBF0CEC0B5
:106BD000BCF0120020EE33F072D810EE09F0BFECDA
:106BE0003CF0E650E610E61044E020EE0BF067D8EB
:106BF0006BD865D887D876D85ED8BFEC3CF0E75024
:106C00009F6FA06B20EE33F05AD810EE09F0BFEC66
:106C10003CF001D80AD00500FA6EE650FD6EE65051
:106C2000FE6EE650FF6EFA50120020EE0DF047D8CF
:106C300064D820EE0BF043D847D841D863D8A06B76
:106C4000020E9F6F20EE33F03AD810EE09F0BFEC41
:106C50003CF001D80AD00500FA6EE650FD6EE65011
:106C6000FE6EE650FF6EFA50120020EE0FF027D8AD
:106C700044D020EE0BF023D82ED821D848D832D8D3
:106C80001AD8BFEC3CF0E7507D6F7E6B83EC5FF071
:106C900020EE0DF014D82CD820EE0BF010D81BD815
:106CA0000ED835D87E6B020E7D6F83EC5FF020EE40
:106CB0000FF005D81DD0DA2210EE03F01200A35118
:106CC000D926A451DA221200DECF9BF0DDCF9CF052
:106CD00020EE1FF01200DECF79F0DDCF7AF020EE4B
:106CE0001FF0120020EE36F0A351D926A451120055
:106CF00079C0DEFF7AC0DDFF12009BC0DEFF9CC0C2
:106D0000DDFF1200DECF9DF0DDCF9EF01200DECF62
:106D10007BF0DDCF7CF012000001D751070ED8A424
:106D2000090E3A24DC6F000E3B20DD6FDCC0F6FF5D
:106D3000DDC0F7FF000EF86E0900F5CFDFF00A00A6
:106D4000F5CFE0F08EC165F08FC166F03AC0F6FF76
:106D50003BC0F7FF01D80DD00500FA6E0900F550D1
:106D6000FD6E0900F550FE6E0900F550FF6EFA50F9
:106D7000120065C0E1F066C0E2F0E1C0D9FFE2C0F8
:106D8000DAFFDECFDCF0DDCFDDF0D5C065F0D6C0B8
:106D900066F0DFC067F0E0C068F04DEC8EF0DC51CB
:106DA0006525E36FDD516621E46F030E3A24DC6F45
:106DB000000E3B20DD6FDCC0F6FFDDC0F7FF000EEC
:106DC000F86E0900F550E35DE451800ADE6F0900BA
:106DD000F550800ADE5902E2030E18D0050E3A245F
:106DE000DC6F000E3B20DD6FDCC0F6FFDDC0F7FF7F
:106DF000000EF86EE3510900F55C0900F550800AB9
:106E0000DE6FE451800ADE5912E2050E3A24DC6F8F
:106E1000000E3B20DD6FDCC0F6FFDDC0F7FF000E8B
:106E2000F86E0900F5CFE3F00A00F5CFE4F0E1C019
:106E3000D9FFE2C0DAFFE3C0DEFFE4C0DDFFD8C067
:106E4000CFF0D9C0D0F0DAC0D1F0DBC0D2F0D3EFB0
:106E50007EF0246A256A266A24C001F025C002F06B
:106E60002A0E2624D96EDA6A010EDA22DF50036E6A
:106E7000ECEC80F001C024F002C025F0262A0D0EB3
:106E80002664EAD7245025107BE12BC127F02EC1C0
:106E90002BF127C02EF12CC127F02DC12CF127C0DA
:106EA0002DF12BC101F02CC102F02DC103F02EC138
:106EB00004F0F2EC7BF001C02BF102C02CF103C016
:106EC0002DF104C02EF1056A066AC80E076E420E47
:106ED000086E2BC101F02CC102F02DC103F02EC1B0
:106EE00004F009EC17F001C01AF002C01BF003C057
:106EF0001CF004C01DF03CEC5AF01AC076F11BC027
:106F000077F130C127F033C130F127C033F131C1FF
:106F100027F032C131F127C032F130C101F031C167
:106F200002F032C103F033C104F0F2EC7BF001C097
:106F300030F102C031F103C032F104C033F1056A0F
:106F4000066AC80E076E420E086E30C101F031C1EC
:106F500002F032C103F033C104F009EC17F001C0B4
:106F60001AF002C01BF003C01CF004C01DF03CEC82
:106F70005AF01AC074F11BC075F10101A36B04D063
:106F8000010E0101A36F0000000012000001686FF4
:106F90005FD0520E656F300E666F010E676F120084
:106FA000CE0E656FE60E666F000E676F1200160E4E
:106FB000656F2A0E666F010E676F1200660E656FB1
:106FC000250E666F010E676F1200B40E656F0A0E14
:106FD000666F010E676F1200D00E656F120E666F3E
:106FE000010E676F1200620E656F0E0E666F010E66
:106FF000676F12006E0E656FE60E666F000E676FAC
:107000001200820E656F040E666F010E676F12002C
:10701000920E656F270E666F010E676F12005E0E8F
:10702000656F260E666F010E676F12002A0E656F80
:107030000E0E666F010E676F12007A0E656FAA0E54
:10704000666F000E676F1200656B666B676B1200F0
:10705000000168519EE0010AA3E0030A9AE0010AD8
:10706000A6E0070AA4E0140A94E0080A92E0380AAD
:1070700090E0610A9CE0030A9AE0010A9FE0070A97
:10708000A4E0010AA9E0030AAEE0010AB3E00E0A97
:10709000B8E0030AB6E0010AADE01A0ACEE0310A10
:1070A000C5E0010A92E0100AC1E0F10A80E0030A9B
:1070B000AFE0070AADE0140AB9E0010AB7E0030A3D
:1070C000AEE0C2D768C065F069C066F01DEC92F012
:1070D0006E6F736B0101C1A50BD0000120EE3BF078
:1070E0006851D9266951DA22DFA602D0010E736FEA
:1070F00073C06FF068C065F069C066F00EEC92F086
:10710000706F6FD8DFB0010E716F6BD8DFB2010EF8
:10711000726F746B756B44D0D8907435D96E7535B9
:1071200093EC75F0DECF76F0DDCF77F076C065F0CA
:1071300077C066F06FEC8FF0000930E06F5112E01D
:107140003BD8DFA80FD06A5174190BE16B51751948
:1071500008E120EE3CF07651D9267751DA22DF8023
:1071600001D037D868C065F069C066F06FEC8FF069
:10717000000914E06E5103E01FD8DFB02AD8705127
:1071800003E01AD8DFB225D8715103E015D8DFB477
:1071900020D8725103E010D8DFB61BD8744B752B82
:1071A0000101BC510001745D7551800A6C6F9AEC4D
:1071B00075F06C59B1E312006A5176256C6F6B5112
:1071C00077216D6F500E6C25D96E000E6D21DA6E31
:1071D000120020EE3CF07651D9267751DA22DF8278
:1071E000120020EE38F06851D9266951DA22000CDD
:1071F000270E7DD8B2C0D9FFB3C0DAFF7ED8250EE6
:10720000B025B66F6ED864D8BD6B030EBC6F20EE90
:1072100022F07ED8DF5015E0BD6B040EBC6F20EE6F
:107220003AF076D8020EDE1802E1230E06D0230EC5
:10723000B025B66F56D84CD8250E59D820EE04F09C
:1072400047D8290E54D8BCC0B8F0BDC0B9F0D8900A
:10725000B837B937B851B225BA6FB951B321BB6F3E
:10726000FE0EBA25D96EFF0EBB21DA6E46D8BE6B74
:10727000BF6B20D0B0C0A5F0B1C0A6F043D8B251CA
:10728000D926B351DA22DECFB6F0DDCFB7F0B6C0E3
:10729000D9FFB7C0DAFF3EEC40F0F0EC43F032D853
:1072A000B451D926B551DA22A5C0DEFFA6C0DDFF54
:1072B000BE4BBF2BBC51BE5DBF51800AB66FBD51E6
:1072C000800AB659D7E3BCC0B0F0BDC0B1F012001F
:1072D000B251D926B351DA22B6C0DEFFB7C0DDFF06
:1072E0001200000EB121B76F20EE02F01200B0259F
:1072F000B66F000EB121B76F1200B6C0DEFFB7C087
:10730000DDFF1200D890BE35D96EBF35DA6E12009F
:10731000B051D926B151DA221200726B706B7FD84E
:10732000D96E6A516821DA6E72516525E16E000EE0
:107330006621E26EE7506B6FD8906B37D8906B3751
:10734000D8906B35DF6E6BD86B6F6A5168216C6FAC
:107350006B2959D86D6F050E6E6FD8906D336E2FF7
:10736000FCD76D51DF6E722B702B030E7065D7D773
:107370006F6B5ED86F513BD8100E6B25E16E000E1F
:107380006C21E26EDFCFE7FF722B6F2B030E6F6570
:10739000F0D7716B71512BD8080E6B2534D80F0BB9
:1073A000DF6E46D8DF50696F693B0F0E691769A120
:1073B0000AD071511CD8080E6B25D96E000E6C21B5
:1073C000DA6E000EDB8E715112D8090E6B251BD8B8
:1073D0006D6F050E6E6FD8906D336E2FFCD76D51AB
:1073E000DF6E722B712B030E7165D4D7030C696F9E
:1073F0006A6BD89069376A37695167256B6F6A5134
:1074000068216C6F1200D96E000E6C21DA6E725119
:107410006525E16E000E6621E26EE75012007051A4
:10742000020DF3CF69F0F4CF6AF0695167251200BD
:1074300072516525D96E000E6621DA6E1200E5C024
:10744000D9FFE6C0DAFFDECFE7F0DDCFE8F00001DC
:10745000666B100E656FE7C067F0E8C068F06551B5
:10746000671906E16651681901E002D0010E01D0EA
:10747000000E00090CE022EE9CF00500FA6EDE50D2
:10748000FD6EDE50FE6EDE50FF6EFA501200666B2F
:10749000200E656FE7C067F0E8C068F065516719B6
:1074A00006E16651681901E002D0010E01D0000E1C
:1074B00000090CE022EEA5F00500FA6EDE50FD6E2C
:1074C000DE50FE6EDE50FF6EFA501200666B400E0C
:1074D000656FE7C067F0E8C068F06551671906E1BD
:1074E0006651681901E002D0010E01D0000E0009BA
:1074F0000CE022EEAEF00500FA6EDE50FD6EDE50BE
:10750000FE6EDE50FF6EFA501200010E666F656B64
:10751000E7C067F0E8C068F06551671906E1665199
:10752000681901E002D0010E01D0000E0009D8B4A4
:107530001200E1C0DDF0E2C0DEF0E3C0DFF0E4C045
:10754000E0F022EE96F00500FA6EDE50FD6EDE50A1
:10755000FE6EDE50FF6EFA501200E8EC96F065C049
:10756000C0F066C0C1F071EC94F065C0C3F066C0B5
:10757000C4F065EC94F065C0C5F066C0C6F00001CB
:10758000BE6B0101B15108E0C3C065F0C4C066F034
:1075900059EC92F0000903E0010E0001BE6FBF6BD1
:1075A0000101B05108E0C5C065F0C6C066F059ECF5
:1075B00092F0000903E0010E0001BF6F010E01010E
:1075C000B16FB06FC3C065F0C4C066F06FEC8CF0F3
:1075D000C5C065F0C6C066F06FEC8CF0C0C065F049
:1075E000C1C066F059EC92F00009010ED8A4000E5B
:1075F000BD6FC3C0B1F0C4C0B2F0B9C0B3F0BAC07F
:10760000B4F0BDC0B5F020EE19F0C051D926C1517B
:10761000DA22DECFB6F0DDCFB7F0BEC0B8F03DEC79
:107620007EF0C5C0B1F0C6C0B2F0BBC0B3F0BCC004
:10763000B4F0010EB56FBBC0B6F0BCC0B7F0BFC0B0
:10764000B8F03DEC7EF011D8C26FC3C069F0C4C081
:107650006AF0C2C06BF098EC54F0C5C069F0C6C0C7
:107660006AF0C2C06BF098EF54F00101000EC1B196
:10767000010E000112000101C9A1120000016E6B90
:10768000010E40EC96F06E6B020E40EC96F0000E90
:107690006E6B40EC96F0130E7A6F240E7B6FD2EC7B
:1076A0003EF041EC94F0950E656FC7C169F0C8C11A
:1076B0006AF062D80C0E686F64D8682FFDD70F0E81
:1076C00066174CD80800F5CFDFFF6A510F0B666FC5
:1076D00045D8D92A0800F5CFDFFF4ED8040E686FD1
:1076E00050D8682FFDD70F0E6617676BE40E66251E
:1076F000F66E200E6721F6EC58F065511EEC2AF06C
:107700000800F5CFDFFF0F0E6915666F27D8030E4F
:10771000D9260800F5CFDFFF0101C9B106D0EB0E75
:107720000001996F230E9A6F04D0950E0001996F96
:107730009A6B99C07AF09AC07BF0CDEC3EF041ECA8
:1077400094F073EC6DF00201816B826B030E00010B
:10775000656F65C080F2010E64EF97F0676BE40E11
:107760006625F66E200E6721F76EF86A000EF82285
:107770006551D96EDA6A120069C066F06AC067F0B6
:107780001200D890673366331200776F000177518B
:107790001CE072AF1AD06FC073F070C074F071C08B
:1077A00075F072C076F0731F741F751F761F732BF0
:1077B000000E74237523762373C079F074C07AF0B9
:1077C00075C07BF076C07CF008D06FC079F070C0D7
:1077D0007AF071C07BF072C07CF06F517011711142
:1077E000721105E16F6B706B716B726B1200960E0C
:1077F000786F02D0782B44D8736B746B756BFE0E68
:107800007C1544D808E0F6D7782B792B000E7A2324
:107810007B237C2335D8736B746B756B7C5136D8A6
:1078200007E0F2D77807D89079377A377B377C37FB
:107830007BBF03D0020E7861F5D778A17B9FD890EB
:10784000783378C073F0746B756B766B73C076F0B9
:10785000756B746B736B7351791374517A13755123
:107860007B1376517C13775102E072BF7C8F79C015
:107870006FF07AC070F07BC071F07CC072F01200C3
:10788000D8907C337B337A3379331200766F73511F
:107890007411751176111200665197EC64F06FD86F
:1078A000E750676F67056D6F030E6D6501D0010CC2
:1078B0006D517F0DF3CF67F0F4CF68F0665114EC93
:1078C00042F0DECF69F0DDCF6AF0675169256B6F5A
:1078D00068516A216C6F020E6B256E6F000E6C2171
:1078E0006F6F6EC0D9FF6FC0DAFF6DC0DFFF6651EA
:1078F0009CEC64F044D820EE01F046D810EE07F07E
:107900003ED820EE04F040D810EE08F038D820EE33
:1079100005F03AD810EE09F032D820EE06F06E519C
:10792000D9266F51DA223AD814EC42F011EEFEF06B
:1079300026D8E72A20EE04F06E51D9266F51DA22BC
:10794000DFA0000C665114EC42F011EEFEF017D8E7
:10795000665114EC42F0DECF67F0DDCF68F067C00F
:10796000D9FF68C0DAFF1AD814EC42F011EEFFF02C
:1079700006D8010EE76E020E50EC97F0000CDE50B8
:10798000E126DD50E22212006E51D9266F51DA2233
:10799000E7CFDFFF6651D96EDA6A1200E7CFDFFF6B
:1079A000665112000001A86FA8517F0D7BD801011C
:1079B000C2250001A36FA2510101C3210001A46FE0
:1079C000020EA325A96F000EA421AA6F300EAD6F81
:1079D000AE0EAB6FAC6BABC0D9FFACC0DAFFA8C0CA
:1079E000DFFF20EE01F059D810EE01F04FD820EE65
:1079F00002F053D810EE02F049D820EE03F04DD833
:107A000010EE03F043D820EE04F0AB51D926AC5170
:107A1000DA22C2C1E1FFC3C1E2FFE750A16FFF0E4E
:107A2000A125A26FA36BFF0EA323A851A46FA56B82
:107A3000A251A45DA551800AA66FA351800AA65940
:107A4000010ED8A0000EDF6EAD0EF2EC1CF0D7ECEC
:107A50005AF0A76B14D0A751140D24D8A925A36FF1
:107A6000A251AA21A46F080EA325D96E000EA4214D
:107A7000DA6EDF50886FA851E4EC46F0A72B20EEB9
:107A800005F00BD8DE50A75DE6E31200AB51E1260E
:107A9000AC51E222DFCFE7FF1200A951D926AA514B
:107AA000DA221200F3CFA1F0F4CFA2F0A15112001C
:107AB00098C074F099C075F09AC076F09BC077F0CA
:107AC00085EC87F09AC065F09BC066F03AC0F6FF7F
:107AD0003BC0F7FF000EF86E01D80DD00500FA6E1E
