:102000002DEF10F0FFFFFFFF5F821FEF48F0FFFF93
:10201000FFFFFFFFFFFFFFFF5F80D8CF60F0E8CF3B
:1020200061F0E0CF62F0D9CF63F0DACF64F09DB811
:102030009EA802D029EC8EF0A3B8A4A802D037EC59
:102040008DF064C0DAFF63C0D9FF62C0E0FF61C0F9
:10205000E8FF60C0D8FF5F9010007FEF2CF000CA4F
:102060002C01582901402901B0B70026DC004E2E72
:1020700001CCF200862E01782E016A2E015C2E0121
:10208000402E01322E01242E01D42F01E60101AE93
:1020900047005A2001F28C001A2401ECE400282D9C
:1020A00001FC2301DE2301200B01C02301DCDA0047
:1020B000777C585E79716F760600003800545C7347
:1020C00000506D781C0000006E00777C395E7971DD
:1020D0006F760600003800373F7300506D783E0081
:1020E00000006E00303132333435363738396162B2
:1020F000636465660001000A006400E80310273F7E
:10210000065B4F666D7C077F67051020304060805E
:10211000A0FF6E67C579DD61021A522D010A000623
:102120000E0A003C000000602D0100005802010072
:102130000A004F240000000000003C9400C8450045
:10214000F630017C2B015E6B00D40B01AC3001003A
:102150000000C8F700F89F006A2F010000007EF51C
:1021600000268500762F010000007EF50026850000
:10217000FA3001000000442D015A820000000000E6
:102180000000D4F30068A70000000000000080E613
:1021900000A8A000000000000000DA3001E4D60032
:1021A000000000000000D63001C0A400AA02019186
:1021B000386F75744361706163697479203E2028BB
:1021C000444154414752414D5F53594E435F534937
:1021D0005A45202B20444154414752414D5F4D49BF
:1021E0004E5F4C454E4754485F53495A45202B207B
:1021F000444154414752414D5F434845434B535539
:102200004D5F53495A452900417373657274696F74
:102210006E206661696C65643A202573206C696E76
:10222000652025643A20222573220A00616C6C50D7
:102230006F64427566666572735B504F445F4255CA
:10224000464645525F52585D20213D2028302900E6
:10225000616C6C506F64427566666572735B504F5B
:10226000445F4255464645525F54585D20213D200B
:1022700028302900636F6E6669672D3E736176654D
:1022800053657474696E677320213D2028302900DE
:102290007372632F447269766572732F506F647323
:1022A000436861696E556172742E6300636F6E6678
:1022B00069672D3E70726F7669646553697A65202F
:1022C000213D2028302900636F6E6669672D3E77B7
:1022D00072697465427974657320213D2028302924
:1022E000007372632F506F6473436861696E2F507F
:1022F0006F6473436861696E2E6300636F6E666915
:10230000672D3E72656164427974657320213D20BA
:10231000283029007772697465506572696F64208E
:102320003E207461736B506572696F6400696E70F2
:10233000757453697A65203E3D2076616C756553EE
:10234000697A65007372632F5461736B732F5261E6
:1023500064696F5461736B2E63007372632F5261F3
:1023600064696F2F566172496E742E6300737263D5
:102370002F526164696F2F526164696F2E63007020
:102380006F64735561727420213D202830290063E9
:102390006861696E20213D2028302900382E382EB2
:1023A000382E382E00286E756C6C2900302E324C79
:1023B0004F00414C2E484900414C2E4C4F0048459F
:1023C0004C50003030303000313131310032323257
:1023D000320033333333003434343400352E353562
:1023E0000035353535002D2D2D2D006572723100EB
:1023F0006572723200657272330065727234006504
:10240000727255004461746100636F6E6E005072A9
:102410006F7500504831300050482034005048203B
:1024200037004641494C004F4F4F4F0050415353E6
:10243000004550742D004E47452E002D414343006A
:10244000436F6E66006E636E6F0062757379006332
:102450006F6E740046414300644546006F66660037
:1024600043414C0043484100506F64004572720084
:102470004F4646006F6E00627200454C004F52009E
:102480005552006E63004943007264007048002A90
:1024900043002A460045430000FF5A505B100FE1FD
:1024A000010E0001836F1F0E826F900E846F220E4B
:1024B000856F7F0E866F230E876F01EC8EF05AC0FA
:1024C00078F05BC079F033D020EECEF07851D92689
:1024D0007951DA2201D80AD00500FA6EDE50FD6E7D
:1024E000DE50FE6EDE50FF6EFA5012007A6FC4D9D5
:1024F000DF507B6F7B517825D96E000E7921DA6E23
:102500007AC0DFFFB9D910EE64F07851E126795135
:10251000E222E7507A6F7A29656F666B000E6623B8
:10252000686B640E676FA6EC71F06551DF6E78C062
:1025300065F079C066F0000120EECAF06551D92639
:102540006651DA22DF50D96EDA6ADF500009BCE149
:1025500001D0BAD778C065F079C066F016D0696B43
:102560000CD05CD969516525E16E000E6621E26EE2
:10257000DFCFE7FF53D9DF6A692B5CD9DE50695D95
:10258000F0E301D0EED756D9DF0665C0D9FF66C0AB
:10259000DAFF1B0EDE1807E001D005D04BD9DF5063
:1025A000DEE101D0DCD778C072F079C073F072C080
:1025B000D9FF73C0DAFF1B0EDE180DE101D00BD07E
:1025C00020EE64F07251D9267351DA22030EDF60D7
:1025D00004D001D002D0000E9AD020EE01F018D91C
:1025E000756F746B20EE02F013D974130AD974C09E
:1025F000DEFF75C0DDFF05D9010EDB5005E15D0E84
:10260000DE5C0FE301D00DD045D9676B0DEC42F0D5
:10261000672B630E6765FAD701D0F8D715EC42F047
:10262000DAD7EFD8DECF74F0DDCF75F0050E742762
:10263000000E752320EE64F0EBD8766F776B745143
:10264000765D7551775903E2C6D701D0C4D772C001
:102650006CF073C06DF0D5D8DF50050F6E6F706BE6
:10266000716B010E6F6F36D0700E656F6F516C25F8
:10267000D96E000E6D21DA6EDF50666F6651686F9D
:10268000676B6551D96EDA6A6751DE1A6851DD1AD7
:10269000080E6B6FE2D868AF14D001D012D0DDD82D
:1026A000D89067376837210E6719696F100E68195F
:1026B0006A6F6551D96EDA6A69C0DEFF6AC0DDFFF4
:1026C00003D065512EEC29F06B076B51E3E101D08B
:1026D000E1D76F2B6E516F5DC7E301D0C5D7705145
:1026E000711101E002D0010E01D0000E00090EE1CF
:1026F00001D00CD0CFD8676B0DEC42F0672B630E86
:102700006765FAD78BD7F8D789D765D7010E000947
:1027100052E05AC080F05BC081F0A7D8DFA005D09E
:1027200001D003D0A2D8DF9019D080C06CF081C056
:102730006DF0000E6DEC97F06CC068F06DC069F044
:10274000000120EECBF06C51D9266D51DA22DF501A
:10275000050F6A6FA8EC89F0B9EC83F080C065F0D2
:1027600081C066F0000120EECBF08051D926815166
:10277000DA22DECF67F0DDCF68F06A6B6751050FB4
:102780006B6F10D06B516525D96E000E6621DA6E25
:102790006A516525E16E000E6621E26EDFCFE7FF2C
:1027A0006A2B6B2B70D8DE506B5DECE301D0EAD75F
:1027B0006AD86AC0DFFF5AC065F05BC066F041D8D6
:1027C000DFA213D001D011D020EECDF041D8DFCF61
:1027D00067F0DF2A0F0E676508D001D006D031D828
:1027E000DF9220EECDF034D8DF6A2BD8DFB201D0F3
:1027F00002D0010E01D0000E000902E128EC7DF0AC
:10280000010C20EECBF07251D9267351DA2212005E
:102810007251D9267351DA22DF50120069516525B1
:10282000676F000E6621686F6729D96E000E6821F8
:10283000DA6E120020EE64F06551D9266651DA2274
:10284000120020EED1F06551D9266651DA2212002D
:102850006551D9266651DA2212006551D96EDA6ABD
:10286000DECF67F0DDCF68F0120020EED1F08051AE
:10287000D9268151DA22120020EE64F07851D9264F
:102880007951DA22120020EE64F06551D9266651A2
:10289000DA22120072C065F073C066F012007AC1CD
:1028A000D9FF7BC1DAFF01D80AD00500FA6EDE50ED
:1028B000FD6EDE50FE6EDE50FF6EFA50120065C0F7
:1028C000FAF266C0FBF20201FA51FB113BE0010192
:1028D00078510201FA1936E1010179510201FB191F
:1028E00031E1000E0001676F0C0E686F6A6BFA0E23
:1028F000696F010120EE03F07A51D9267B51DA226B
:1029000001D80AD00500FA6EDE50FD6EDE50FE6E74
:10291000DE50FF6EFA50120067C0F8F268C0F9F29C
:10292000000EE46F0C0EE56FF8C2E6F0F9C2E7F0B6
:10293000000EE86F0B0EE96F000EEB6FFA0EEA6FF8
:10294000BEEC3FF0FAC278F1FBC279F100C26EF042
:1029500001C26FF002C270F003C271F00201002BDD
:10296000000E0123022303236EC065F06FC066F0E2
:1029700070C067F071C068F004C269F005C26AF007
:1029800006C26BF007C26CF00EEC73F06551661175
:102990006711681101E002D0010E01D0000E00099C
:1029A00063E0000E0201FC6F0B0EFD6FFC0E0001D8
:1029B000826F020E836F856BFA0E846FFE0E866F38
:1029C000020E876F31EC8FF0FCC266F0FDC267F03B
:1029D000FEC268F0FFC269F0010120EE06F07A51F4
:1029E000D9267B51DA2201D80AD00500FA6EDE50D2
:1029F000FD6EDE50FE6EDE50FF6EFA50120020EECD
:102A000001F03850D9263950DA22DFB611D001D082
:102A10000FD020EE01F03850D9263950DA22DFBA33
:102A200001D002D0010E01D0000E656F666B0AD096
:102A300020EE01F03850D9263950DA22DF96666B45
:102A4000010E656F20EE01F03850D9263950DA2298
:102A500065B102D0DF9A01D0DF8A365004E001D0A0
:102A600002D0378001D0379020EE01F03850D926BF
:102A70003950DA22DFAA35D001D033D020EE02F06F
:102A80003850D9263950DA22DE2A000EDE22DE2224
:102A9000DD22DD52DD52030EDB500BE1020EDB5076
:102AA00008E1010EDB5005E10A0EDE5C1AE301D0FD
:102AB00018D020EE01F03850D9263950DA22DF88BC
:102AC00020EE01F03850D9263950DA22DF9A20EE74
:102AD00002F03850D9263950DA22DE6ADE6ADE6A20
:102AE000DD6A0001656B365008E001D006D037A0E2
:102AF00004D001D002D0010E656F655100094AE093
:102B000001D0010C37307F0BC56F040EC56538D07E
:102B100001D036D08E8436A605D001D003D079EC12
:102B200098F0369636A00CD001D00AD00101CAB177
:102B300001D002D0010E01D0000E0CEC8AF03690CC
:102B400036A205D001D003D051EC97F0369236A4CE
:102B500005D001D003D067EC98F0369436A80CD09D
:102B600001D00AD00101CAB501D002D0010E01D0B6
:102B7000000E36EC95F036983790010E37168E948D
:102B800037307F0BC56FC52BC5373750C519010BC3
:102B9000C519376E010C010181EC6CF0DFB42CD14A
:102BA00022EE0EF05BEC52F0DFA226D1C3C1D9FFBA
:102BB000C4C1DAFF98C0E1FF99C0E2FFDE50E65CD5
:102BC00005E320D90001886F020E38D01BD97F0D94
:102BD00041D900019A510101C32500019C6F9B510D
:102BE0000101C42100019D6F020E9C259E6F000E05
:102BF0009D219F6F20EE05F09E51D9269F51DA222C
:102C000010EE01F09851E1269951E222DE50E65C87
:102C100012E220EE02F00FD9100EDF600CD020EE91
:102C200005F009D9030EDF6006D020EE06F003D9C7
:102C3000640EDF6405D0E6D8886F030E896FDFD09D
:102C400020EE01F0F8D8DF50140D04D99A519E25DA
:102C50009C6F9B519F219D6F070E9C25A06F000EBE
:102C60009D21A16FA0C065F0A1C066F098C067F07B
:102C700099C068F020EE02F0E3D810EE02F0CFD851
:102C800001E102D0010E01D0000E6F6F716B22D0F6
:102C900020EE03F0D5D8DECF69F0DDCF6AF07151B8
:102CA0006925D96E000E6A21DA6E715165256C6F47
:102CB000000E66216D6F030E6C25E16E000E6D2116
:102CC000E26EDE50E61805E001D003D0010E6F6F12
:102CD0000CD0712B20EE02F06551D9266651DA2214
:102CE000DE50715DD5E301D0D3D7010E706F20EEB9
:102CF00005F0A6D810EE12F092D810E101D00ED057
:102D000020EE06F09DD810EE13F089D807E101D02F
:102D100005D06F5103E101D001D0706B70510009F3
:102D200067E0A0C065F0A1C066F098C067F099C0E8
:102D300068F08BD8DF50020DF3CF69F0F4CF6AF062
:102D400069510101C32500016B6F6A510101C42162
:102D500000016C6F060E6B256D6F020E6C216E6F9D
:102D600020EE02F063D810EE02F052D86F6B1CD048
:102D700020EE03F05BD8DECF69F0DDCF6AF06F5153
:102D80006925D96E000E6A21DA6E6F5165256B6F69
:102D9000000E66216C6F030E6B25E16E000E6C2138
:102DA000E26EDFCFE7FF6F2B20EE02F03FD8DE5060
:102DB0006F5DDEE301D0DCD720EE05F037D810EEF2
:102DC00012F026D820EE06F031D810EE13F020D8FD
:102DD00020EE01F06D51D9266E51DA22DF8035D810
:102DE0006DC0E1FF6EC0E2FFDFCFE7FF70EC91F056
:102DF000010181EC6CF0DF8205D8ADEC2BF0510EB7
:102E00005BEF89F098C0D9FF99C0DAFFDF5012005C
:102E10006551E1266651E222DFCFE7FF12006551DE
:102E2000E1266651E222DE50E61812006751D926EB
:102E30006851DA2212009851D9269951DA221200EB
:102E40006751D9266851DA22120067C0D9FF68C0DD
:102E5000DAFF1200F3CF9AF0F4CF9BF012005FEC90
:102E600097F065C073F066C074F0290E00012CD98C
:102E7000696B020E6B6F57EC8AF0270E25D9020E94
:102E8000696F6B6F57EC8AF0230E1ED9040E2BD995
:102E900057EC8AF0250E18D9060E25D957EC8AF082
:102EA0002B0E12D9080E1FD957EC8AF02D0E0CD913
:102EB0000A0E19D957EC8AF03A0E06D90C0E17D91A
:102EC00057EC8AF018D90D0E12D957EC8AF003D9B5
:102ED00085EC66F0DCEC94F065C073F066C074F0CD
:102EE000290E0001F1D8100EFED857EC8AF0270EFB
:102EF000EBD8120EF8D857EC8AF0230EE5D8140E52
:102F0000F2D857EC8AF0250EDFD8160EECD857EC25
:102F10008AF02B0ED9D8180EE6D857EC8AF02D0E71
:102F2000D3D81A0EE0D857EC8AF03A0ECDD81C0E42
:102F3000DED857EC8AF0DFD81D0ED9D857EC8AF0CE
:102F4000CAD885EC66F0E8EC94F065C073F066C012
:102F500074F0290E0001B8D8200EC5D857EC8AF0BD
:102F6000270EB2D8220EBFD857EC8AF0230EACD869
:102F7000240EB9D857EC8AF0250EA6D8260EB3D861
:102F800057EC8AF02B0EA0D8280EADD857EC8AF05B
:102F90002D0E9AD82A0EA7D857EC8AF03A0E94D85C
:102FA0002C0EA5D857EC8AF0A6D82D0EA0D857EC39
:102FB0008AF091D885EC66F0380E86D8440E93D806
:102FC00057EC8AF0B60E676F010E686F6A6B300EB1
:102FD0008ED857EC8AF0C10E676F010E686F6A6B6E
:102FE000310E85D857EC8AF0C20E676F010E686FFC
:102FF0006A6B320E7CD857EC8AF00101C297D10E71
:103000000001676F010E686F6A6B330E79D857EC59
:103010008AF0560E676F686B6A6B380E71D857EC82
:103020008AF0D90E676F010E686F6A6B3C0E68D824
:1030300057EC8AF0D50E676F010E686F6A6B400E11
:103040005FD857EC8AF0E60E676F010E686F6A6B07
:10305000460E4DD857EC8AF0DD0E676F010E686F93
:103060006A6B470E40D857EC8AF0E30E676F010E8B
:10307000686F6A6B490E37D857EC8AF0AFEC97F05F
:1030800065296E6F000E66216F6F6EC067F06FC0AE
:1030900068F06A6B500E2BD857EC8AF0706B702B6F
:1030A0000E0E7065FCD7710E676F686B6A6B880EC9
:1030B0001ED857EC8AF071B103D00101CA9102D039
:1030C0000101CA81000012007325676F000E742190
:1030D000686F6A6B120073C065F074C066F072C0EE
:1030E00067F0686B1200696F020E6B6F020C696FFC
:1030F000010E6B6F010C720E676F686B6A6B1200CA
:10310000696F040E6B6F040C0450800B0D6E04503D
:103110000424136E03BE1380135008E0132804E147
:10312000016A026A036A046A038E04D0016A026AB1
:10313000036A046A0850800B0D1A085008240E6EAA
:1031400007BE0E800E5008E00E2804E1056A066AEC
:10315000076A086A078E04D0056A066A076A086A61
:103160000E5002E0135005E1016A026A036A046A24
:10317000120007500102F3CF18F0F4CF19F01850E5
:103180000F6E106A116A126A1950146E156A166A67
:10319000176A06500202F3CF18F0F4CF19F0185056
:1031A0000F26000E10221122122219501426000E92
:1031B00015221622172205500302F3CF18F0F4CF80
:1031C00019F018500F26000E102211221222195049
:1031D0001426000E15221622172211C012F010C05C
:1031E00011F00FC010F00F6A05500202F3CF18F073
:1031F000F4CF19F018500F2619501022000E11228A
:10320000122206500102F3CF18F0F4CF19F0185033
:103210000F2619501022000E1122122211C012F096
:1032200010C011F00FC010F00F6A05500102F3CF6B
:1032300018F0F4CF19F018500F2619501022000E74
:103240001122122207500202F3CF18F0F4CF19F026
:103250001850142619501522000E16221722065057
:103260000302F3CF18F0F4CF19F0185014261950B8
:103270001522000E1622172207500302F3CF18F072
:10328000F4CF19F01850096E19500A6E0B6A0C6AC7
:103290000BC00CF00AC00BF009C00AF0096A095013
:1032A00014260A5015220B5016220C5017221250C9
:1032B0001426000E15221622172211C012F010C07B
:1032C00011F00FC010F00F6A0E5013C009F00A6A17
:1032D0000926000E0A22820E0924186EFF0E0A200B
:1032E000196E0FD0D890143615361636173612BE12
:1032F0001480D8900F361036113612361806D8A022
:10330000190616AEEFD70E6A12AE13D00F50096E23
:1033100010500A6E11500B6E7F0E12140C6E095075
:103320000A100B100C1003E0010E0E6E02D014B048
:10333000FBD70E500EE0142A000E1522162217227B
:1033400017A007D017341732163215321432184A24
:10335000192A19BE0AD0195002E1182806E3146A86
:10336000156A800E166E7F0E15D019BE04D0195046
:1033700008E1180406E2146A156A166A176A0D6AEB
:103380000AD018C013F07F0E1616176A13B0168EE7
:10339000D8901330176E0D50171214C001F015C0DD
:1033A00002F016C003F017C004F012009C0501E003
:1033B00029D15FEC97F065C076F066C077F0290EF2
:1033C000000124D96B6B020E6D6FB0EC7CF0270E00
:1033D0001DD9020E6B6F6D6FB0EC7CF0230E16D909
:1033E000040E1BD9B0EC7CF0250E10D9060E15D9B1
:1033F000B0EC7CF02B0E0AD9080E0FD9B0EC7CF0A3
:103400002D0E04D90A0E09D9B0EC7CF03A0EFED884
:103410000C0E07D9B0EC7CF0350EF8D80D0E01D9A2
:10342000B0EC7CF0DCEC94F065C076F066C077F030
:10343000290E0001EBD8100EF0D8B0EC7CF0270E6E
:10344000E5D8120EEAD8B0EC7CF0230EDFD8140ECB
:10345000E4D8B0EC7CF0250ED9D8160EDED8B0EC4E
:103460007CF02B0ED3D8180ED8D8B0EC7CF02D0EF3
:10347000CDD81A0ED2D8B0EC7CF03A0EC7D81C0EBC
:10348000D0D8B0EC7CF0350EC1D81D0ECAD8B0EC47
:103490007CF0E8EC94F065C076F066C077F0290E19
:1034A0000001B4D8200EB9D8B0EC7CF0270EAED80D
:1034B000220EB3D8B0EC7CF0230EA8D8240EADD8E1
:1034C000B0EC7CF0250EA2D8260EA7D8B0EC7CF08C
:1034D0002B0E9CD8280EA1D8B0EC7CF02D0E96D8DF
:1034E0002A0E9BD8B0EC7CF03A0E90D82C0E99D8CE
:1034F000B0EC7CF0350E8AD82D0E93D8B0EC7CF071
:10350000380E84D8440E89D8B0EC7CF0B60E696FC2
:10351000010E6A6F6C6B300E84D8B0EC7CF0C10E7B
:10352000696F010E6A6F6C6B310E7BD8B0EC7CF06A
:10353000C20E696F010E6A6F6C6B320E72D8B0ECFE
:103540007CF0D10E696F010E6A6F6C6B330E6DD813
:10355000B0EC7CF0560E696F6A6B6C6B380E65D8F8
:10356000B0EC7CF0D90E696F010E6A6F6C6B3C0E8B
:103570005CD8B0EC7CF0D50E696F010E6A6F6C6B95
:10358000400E53D8B0EC7CF0E60E696F010E6A6F06
:103590006C6B460E46D8B0EC7CF0DD0E696F010E08
:1035A0006A6F6C6B470E39D8B0EC7CF0E30E696F34
:1035B000010E6A6F6C6B490E30D8B0EC7CF0AFEC4A
:1035C00097F06529726F000E6621736F72C069F003
:1035D00073C06AF06C6B500E24D8B0EC7CF0756B45
:1035E000752B0E0E7565FCD70101000ECAB1010ED8
:1035F0000001746F740E696F6A6B6C6B880E11D862
:10360000B0EC7CF001019C6B000012007625696F24
:10361000000E77216A6F6C6B12006B6F020E6D6F7C
:10362000020C6B6F010E6D6F010C6B6F040E6D6FF2
:10363000040C745182EC2AF0030EDF6E7451D96EC3
:10364000DA6ADECF75F0DDCF76F075C0D9FF76C0CF
:10365000DAFF1B0EDF6E745182EC2AF0F9D83D0EB2
:10366000DF6E745182EC2AF0DF2A745182EC2AF06A
:10367000EFD8DF6A745182EC2AF0DF2A74517CECB7
:1036800042F0DECF65F0DDCF66F06B6B6B51020D63
:10369000F3CF67F0F4CF68F067516525696F685123
:1036A00066216A6F070E6925D96E020E6A21DA6EED
:1036B000DFA004D001D002D06B2907D06B2B030E02
:1036C0006B65E4D701D0E2D7000E786F785101E145
:1036D000010C745182EC2AF0BBD878C0DFFF745122
:1036E00082EC2AF0DF2A74C065F078C066F066517B
:1036F0007F0DD8D865517CEC42F0DECF69F0DDCF8C
:103700006AF0675169256B6F68516A216C6F830E8F
:103710006B256F6FFF0E6C21706FBAD8DA22DF5005
:103720006D6FB6D87DD8655182EC2AF0DF2A716BB7
:1037300062D07151140DB6D867516F25696F685109
:1037400070216A6F070E6925726F000E6A21736F10
:10375000655182EC2AF08CD871C0DFFF655182EC94
:103760002AF0DF2A6E6B24D06E517225676F000E2F
:103770007321686F030E6725D96E000E6821DA6E1B
:103780006551ABEC2AF0696F6551E16EE26AE6CFF4
:103790006AF0E5CF6BF069516A25E16E000E6B218E
:1037A000E26EDFCFE7FF655182EC2AF0DF2A6E2B55
:1037B00020EE02F073D8DA22DE506E5DD5E301D040
:1037C000D3D7655182EC2AF053D8DF6A655182EC79
:1037D0002AF0DF2A20EE12F061D822D8655182EC5F
:1037E0002AF0DF2A20EE13F059D81AD8655182EC5E
:1037F0002AF0DF2A712B6D51715D9BE301D099D7BF
:103800007451F3EC32F029EC3DF0E76A7451F8ECB6
:1038100032F029EC3DF0745182EC2AF03AEF57F087
:10382000DA226551E16EE26A020EE126E750676F27
:103830006551E16EE26AE6CF68F0E5CF69F0675165
:103840006825E16E000E6921E26EDFCFE7FF12000E
:10385000DF50756F7451D96EDA6ADECF76F0DDCF46
:1038600077F075517625D96E000E7721DA6E120049
:10387000DF50676F6551D96EDA6ADECF68F0DDCF51
:1038800069F067516825D96E000E6921DA6E120061
:1038900020EE05F06F51D926705112007251D926D1
:1038A00073511200F3CF67F0F4CF68F01200685143
:1038B000800B716F68516825736F67BF7381735197
:1038C00005E0732901E106D9678F03D0656B666B4C
:1038D000676B686B6C51800B726F711901E0718DB1
:1038E0006C516C25726F6BBF7281725108E0722946
:1038F00004E1696B6A6B6B6B6C6B6B8F03D0696BEC
:103900006A6B6B6B6C6B7351725D22E271AD02D0AE
:10391000800E711B73C074F072C073F074C072F0CB
:1039200065C074F069C065F074C069F066C074F079
:103930006AC066F074C06AF067C074F06BC067F06C
:1039400074C06BF068C074F06CC068F074C06CF048
:10395000746B735172C06DF06E6B6D5F000E6E5BB9
:103960006EBF15D06E5103E11A0E6D5D10E3C7D81E
:10397000010ED8B4000E746FADD872C073F00AD0C7
:1039800074A102D0B7D802D0D89074339AD87251AB
:10399000735DF6E371BD15D0735101E1A6D0695195
:1039A00065276A5166236B5167236C51682368A1B0
:1039B00053D074A102D09ED802D0D890743381D84D
:1039C0004BD06951655D6A5166596B5167596851B1
:1039D000800A6D6F6C51800A6D591FE26551695DF7
:1039E0006D6F66516A596E6F67516B596F6F685191
:1039F0006C59706FFF0E6D25656FFF0E6E21666F3F
:103A0000FF0E6F21676FFF0E7021686F800E711BB4
:103A1000746D74510AE163D808D06951655F6A51C9
:103A2000665B6B51675B6C51685B69D813E17451DD
:103A300011E15BD0D890653766376737683774BF58
:103A4000658174A102D0D88001D0D89074377351A9
:103A500001E0730767AFEED7726B74AF0AD074C022
:103A60006DF07F0E6D1703E0010E726F02D065B12D
:103A7000FBD772510BE033D868A108D068356833A2
:103A8000673366336533732901E0732B732902E0D2
:103A9000735104E11FD8735101E1716B73A102D01E
:103AA000678F01D0679FD8907331686F71BF688F3F
:103AB00065C065F066C066F067C067F068C068F012
:103AC000120065B1748F68356833673366336533C8
:103AD000732B1200656B666B676B686B1200652B4E
:103AE000000E662367236823000C656B666B676BAB
:103AF000686B1200D89074310109746F120065511F
:103B000066116711681112009B6F00019B5143EC15
:103B10007FF067C09CF068C09DF000019C519D1132
:103B2000D8B412009CC065F09DC066F061EC8DF0C9
:103B30000009D8B41200250E9E6F9F0E916F926BF4
:103B400091C0D9FF92C0DAFF9BC0DFFF20EE01F0E9
:103B50009151D9269251DA2210EE3AF0F4D8E222AD
:103B6000E7504CEC94F0DF6E9E0EB8D83FEC5BF063
:103B700020EE22F0C1D8DF501EE1260E9E6F9F0E70
:103B8000936F946B93C0D9FF94C0DAFFCCD8B4D8AC
:103B900010EE01F09351E1269451A8D820EE1FF0C9
:103BA000ABD810EE03F09351E1269451B7D896D8D4
:103BB0003FEC5BF04CD0270E9E6F9F0E976F986B7B
:103BC00097C0D9FF98C0DAFFAED896D810EE23F090
:103BD000BAD80AEC4AF09BD8D8A020EE23F08CD8B3
:103BE000DECF8DF0DDCF8EF020EE01F0B0D88DC0AD
:103BF000DEFF8EC0DDFF20EE1FF07ED810EE03F05A
:103C00009751E1269851E222DFCFE7FF20EE23F023
:103C100073D810EE25F097D80AEC4AF078D8D8A0DF
:103C200020EE23F069D8DECF8FF0DDCF90F020EECC
:103C300004F08DD88FC0DEFF90C0DDFF20EE1FF0B6
:103C40005BD810EE06F09751E1269851AFD7290EB8
:103C50009E6F9F0E956F966B6FD820EE2BF04CD811
:103C600050D844D89E0E3AD83FEC5BF02A0E9E6F97
:103C700063D820EE2DF040D844D838D89E0E2ED8E8
:103C80003FEC5BF02B0E9E6F9F0E996F9A6B99C065
:103C9000D9FF9AC0DAFF9BC0DFFF20EE27F02CD8B7
:103CA00010EE01F045D822D820EE1FF025D810EEF6
:103CB00003F03ED8E222DFCFE7FF20EE29F01CD848
:103CC00010EE04F035D812D820EE1FF015D810EE03
:103CD00006F02ED823D802D83FEF5BF07E6FF6C0F7
:103CE0007FF0F7C080F0F8C081F01200E222DECF52
:103CF000E6FFDDCFE5FF12009C51D9269D51DA2267
:103D0000120010EE01F09551E126965112008C6FD1
:103D1000DE50800A8C5920EE25F01200E222DFCF1F
:103D2000E7FF9E0E12009BC0DFFF20EE25F0120081
:103D30009951E1269A51120095C0D9FF96C0DAFF39
:103D40009BC0DFFF12009C51E1269D51120097514C
:103D5000D9269851DA22120030EC78F007D90FD921
:103D6000F8EC7EF0F4D824EC69F07DC0E2F07EC07F
:103D7000E3F07FC0E4F080C0E5F0DEC0D1F0DFC04A
:103D8000D2F0E0C0D3F0E1C0D4F0E2C0D5F0E3C09F
:103D9000D6F0E4C0D7F0E5C0D8F0C00ED96F020E5F
:103DA000DA6FB70EDB6F020EDC6F81EC6EF0D1C004
:103DB00027F2D2C028F2DAD8320EE8D8F8EC7EF03A
:103DC000C6D824EC69F07DC0E6F07EC0E7F07FC085
:103DD000E8F080C0E9F0CAD8D2D8F8EC7EF0B7D8C5
:103DE00024EC69F07DC0EAF07EC0EBF07FC0ECF01F
:103DF00080C0EDF0E6C09CF0E7C09DF0E8C09EF00A
:103E0000E9C09FF0EAC0A0F0EBC0A1F0ECC0A2F0C6
:103E1000EDC0A3F0E60EA46F030EA56FC5EC2EF067
:103E20009CC029F29DC02AF2A1D8640EAFD8F8EC4C
:103E30007EF08DD824EC69F07DC08AF07EC08BF0D6
:103E40007FC08CF080C08DF00DEC8DF08AC02BF21D
:103E50008BC02CF28BD8640E99D8F8EC7EF077D812
:103E600024EC69F07DC0EEF07EC0EFF07FC0F0F092
:103E700080C0F1F0DEC08AF0DFC08BF0E0C08CF0D3
:103E8000E1C08DF0EEC08EF0EFC08FF0F0C090F08A
:103E9000F1C091F0C3EC66F08AC02DF28BC02EF217
:103EA00065D86DD8F8EC7EF052D824EC69F07DC06E
:103EB0008AF07EC08BF07FC08CF080C08DF076ECF5
:103EC0008BF08AC02FF28BC030F250D858D8F8EC63
:103ED0007EF03DD824EC69F07DC08AF07EC08BF086
:103EE0007FC08CF080C08DF034EC85F08AC031F258
:103EF0008BC032F23BD83C0E49D8F8EC7EF027D884
:103F000024EC69F07DC08FF07EC090F07FC091F00E
:103F100080C092F039EC81F08FC033F290C034F25F
:103F2000270E656F020E666F686B070E676FDEC047
:103F300069F0DFC06AF0E0C06BF0E1C06CF0140E15
:103F40006D6F1D0E6E6F010E6F6FD0EF8BF071C035
:103F50007DF072C07EF073C07FF074C080F0E80E18
:103F6000816F030E826F836B846B030CDEC071F074
:103F7000DFC072F0E0C073F0E1C074F01200E80E30
:103F8000756F030E766F776B786B030C756F766BBE
:103F9000776B786B12008051800B896F8051802580
:103FA0008B6F7FBF8B818B5105E08B2901E102D99B
:103FB0007F8F01D0FFD88451800B891B84518425C9
:103FC0008A6F83BF8A818A5105E08A2901E1EDD891
:103FD000838F01D0EAD88A5102E08B5105E17D6BD5
:103FE0007E6B7F6B806B120083517D03B1D88C6F29
:103FF0008D6B8E6B8F6B9551906F916B926B936BFA
:1040000082517E03A5D8B2D881517F03A1D8AED802
:10401000A5D881517E039CD8B5D882517D0398D80C
:10402000B1D89CD881517D0393D8ACD883517E03FD
:104030008FD8B4D882517F038BD8B0D883517F03F7
:1040400087D8856F9551866F876B886B87C088F09E
:1040500086C087F085C086F0856B85519027865194
:10406000912387519223885193238F51902791D880
:1040700075D88A518BC085F0866B8527000E862304
:10408000820E8525946FFF0E8621956F0FD0D890F4
:1040900090379137923793378FBF9081D8908C3774
:1040A0008D378E378F379407D8A0950792AFEFD70B
:1040B0008A6B8FAF13D08C51856F8D51866F8E5167
:1040C000876F7F0E8F15886F855186118711881134
:1040D00003E0010E8A6F02D090B1FBD78A510BE04A
:1040E000902B57D893A107D09335933392339133C4
:1040F0009033944B952B95BF0AD0955102E19429AA
:1041000006E3906B916B800E926F7F0E15D095BF7A
:1041100004D0955108E1940506E2906B916B926B87
:10412000936B896B0AD094C08BF07F0E9217936BC0
:104130008BB1928FD8908B31936F8951931390C02C
:104140007DF091C07EF092C07FF093C080F01200AD
:10415000F3CF94F0F4CF95F0945112008EC08FF00D
:104160008DC08EF08CC08DF08C6B12008C27000EF1
:104170008D238E238F2395519027000E9123922318
:104180009323000C8C2795518D23000E8E238F23B3
:10419000000C000E912392239323000C902795513D
:1041A0009123000E92239323000C816B826B836B0F
:1041B000846B12007D6B7E6B7F6B806B12008A6F4D
:1041C00000018B6B070E8A190FE14AEC87F0F1D8DA
:1041D000D9EC8DF042EC87F0ECD8D9EC8DF046ECC0
:1041E00087F0E7D8D9EF8DF0090E8A19D8B41200FC
:1041F000896BA5D085C0D9FF86C0DAFF83C0E1FFF7
:1042000084C0E2FFDE50E61801E1A7D08B51220FF7
:104210007E6F300E7F6F83C0D9FF84C0DAFFDF501E
:10422000806F8B511B0FD9EC8DF097D020EE01F0F1
:10423000C8D810EE01F08351E1268451E222DE500D
:10424000E61801E18AD08B51770F7E6F300E7F6FB9
:1042500020EE01F09AD8700FD9EC8DF07ED020EED0
:1042600002F0AFD810EE02F08351E1268451E22231
:10427000DE50E61872E08B51470F8FD886D8440F76
:10428000D9EC8DF0A7D889D880D84B0FD9EC8DF018
:104290009DD883D87AD84B0FD9EC8DF05ED020EE24
:1042A00003F08FD810EE03F08351E1268451E2220F
:1042B000DE50E61852E08B51220F7E6F370E7F6F73
:1042C00020EE03F062D81B0FD9EC8DF046D020EE23
:1042D00004F077D810EE04F08351E1268451E222F5
:1042E000DE50E6183AE08B51770F7E6F370E7F6F06
:1042F00020EE04F04AD8700FD9EC8DF02ED020EECD
:1043000005F05FD810EE05F08351E1268451E222DA
:10431000DE50E61822E08B51470F45D836D8440FBF
:10432000D9EC8DF057D83FD830D84B0FD9EC8DF061
:104330004DD839D82AD84B0FD9EC8DF00ED08A51F0
:1043400001E158D7010A01E171D7030A88E0010AA7
:10435000A6E0070ABCE0010AD2E00B0E00018B27A1
:10436000892B030E8965EBD7060E8A61060C8A51EC
:104370008325D96E000E8421DA6E8A518525E16E7F
:10438000000E8621E26EEFEF55F08351D92684515D
:10439000DA22DF50806F8B5112007E6F300E7F6FFC
:1043A00020EE02F0300C7E6F370E7F6F20EE05F0AE
:1043B000370C7F6F83C0D9FF84C0DAFFDF50806F76
:1043C000180C8551D9268651DA22120000018B5132
:1043D0004E0F120000018B514B0F12009DD020EEAA
:1043E00001F0E251D926E351DA22DF5001EF98F0D3
:1043F000010122EE01F0C351D926C451DA22DFA413
:104400000AEF52F0120020EE01F0E251D926E351FA
:10441000DA22DF504FEF7DF020EE01F0E251D92695
:10442000E351DA22DF5015EF95F020EE01F0E25172
:10443000D926E351DA22DF508CEF93F0E229DE6FC8
:10444000000EE321DF6F39EF6BF0E229986F000E69
:10445000E321996F0AEF95F0E229986F000EE321AE
:10446000996F41EF4BF0E229986F000EE321996FAD
:10447000E1EF2AF0E229986F000EE321996F70EFC7
:1044800068F0E229986F000EE321996F23EF62F044
:10449000E229986F000EE321996FB1EF33F020EE1F
:1044A00001F0E251D926E351DA22DF5028EF94F0EF
:1044B00020EE01F0E251D926E351DA22DECF98F066
:1044C000DDCF99F0DBEF95F020EE01F0E251D92637
:1044D000E351DA22DECF98F0DDCF99F0D1EF97F0FB
:1044E000E229986F000EE321996FCBEF15F0E229D6
:1044F000656F000EE321666FAEEF85F0E229656F10
:10450000000EE321666F3EEF90F0E229956F000EFA
:10451000E321966FFDEF97F0E2C0D9FFE3C0DAFF29
:10452000DF5002E13DEF7BF0010AD8B41200030A2C
:1045300002E153EF55F0010AD8B41200070A01E175
:104540004ED7140A02E199EF93F0080A02E1F6EF60
:1045500095F0380A01E14CD7610A01E154D7030A0A
:1045600001E15AD7010A01E160D7070A01E166D7E4
:10457000010A01E16AD7030A01E16ED7010A01E1EC
:1045800072D70E0A01E176D7030A01E17AD7010A50
:1045900001E17ED71A0AA4E0310AD8B41200010A58
:1045A000ADE0100AD8B41200F10A01E178D7030A8D
:1045B00001E17ED7070A88E0140AD8B41200010A84
:1045C000A4E0030A94E01200F1C072F0F2C073F0AC
:1045D000F3C074F0F4C075F0DBEC87F0000901E083
:1045E000120055EC8FF070C0E7F171C0E8F1E7C13F
:1045F000D9FFE8C1DAFFDF50030B030A03E1010E24
:104600000101AF6F0101AF0514E1E7C1D9FFE8C1B6
:10461000DAFFDF50030B030A0CE0E7C1D9FFE8C162
:10462000DAFFDF500001F56F700EF51702E10101AE
:10463000AF6B0101AF0501E0A5D07FEC97F065C03D
:10464000E9F166C0EAF1E7C1D9FFE8C1DAFFDFA806
:1046500017D0898E898C010E0001656F010120EE53
:104660003AF0E951D926EA51DA22DE04010ED8A443
:10467000000E0001666F000E676B9EEC86F015D091
:10468000899E899C0001656B010120EE3AF0E95199
:10469000D926EA51DA22DE04010ED8A4000E000168
:1046A000666F000E676B9EEC86F073EC97F065C04A
:1046B000E9F166C0EAF1E7C1D9FFE8C1DAFFDFAA94
:1046C00016D08F86010E0001656F010120EE3AF0D1
:1046D000E951D926EA51DA22DE04010ED8A4000EEF
:1046E0000001666F676B010E9EEC86F014D08F960A
:1046F0000001656B010120EE3AF0E951D926EA513B
:10470000DA22DE04010ED8A4000E0001666F676B8A
:10471000010E9EEC86F079EC97F065C0E9F166C079
:10472000EAF1E7C1D9FFE8C1DAFFDFAC16D08F802C
:10473000010E0001656F010120EE3AF0E951D92622
:10474000EA51DA22DE04010ED8A4000E0001666FE1
:10475000676B020E9EEC86F019D08F900001656B9E
:10476000010120EE3AF0E951D926EA51DA22DE04BD
:10477000010ED8A4000E0001666F676B020E9EEC5E
:1047800086F004D0899E899C8F968F90F1C0E3F0CB
:10479000F2C0E4F0F3C0E5F0F4C0E6F0010E000171
:1047A000E76FE86BE96BEA6BEB6B43EF2DF0656B42
:1047B0000101C2AB0AD001D008D0D4D8CED8DFB224
:1047C00004D001D002D0010E656F000165510009CF
:1047D00027E022EE0EF0C1D8DF50C30B0409DF6ED4
:1047E0000101C2A91AD0C2D8B8D8DF5006E0AED8AD
:1047F000DF9C030EC7EC97F00BD0A8D8DF8CA6D8AF
:10480000DF9EA4D8DF98A2D8DF86040EC7EC97F00D
:10481000ADD8A3D8B3D8DFCFE7FFA4D89ED8DF8226
:1048200095D8DFB409D001D007D022EE0EF095D88C
:10483000DFA004D001D002D0000E26D00101AC2BA5
:10484000AC050001656FA60E6565F6D701D0F4D7FB
:1048500022EE0EF082D8DF30E8320F0B12E001D0EA
:1048600010D022EE0EF079D8DF30656F65310F0B76
:10487000656F652B65376537DF506519C30B6519A3
:10488000DF6E0101AC6B010E000904E0010EC7EC04
:1048900097F03BD06FD861D8DFA004D001D002D010
:1048A000000E20D0696B6951020DF3CF65F0F4CF93
:1048B00066F06551F925676F6651FA21686F070E3A
:1048C0006725D96E020E6821DA6EDFA004D001D010
:1048D00002D0010E07D0692B030E6965E4D7E0D73B
:1048E000E2D7DED7000911E031D8DF922FD8DF9070
:1048F0002DD8DF8422EE0EF030D8DF8022EE0EF0CD
:104900002CD8DF92090EC7EC97F02CD826D8DFA25E
:10491000120001D012000101C2AB120001D012003E
:1049200029D81BD8DF30E8320F0B656F010E6565A3
:10493000010C01D0120022EE07F00FD8DF92010126
:10494000C29B18D80AD8C30EDF16120022EE01F05F
:10495000F951D926FA51DA221200F951D926FA5121
:10496000DA221200000122EE07F01200000121EE0F
:10497000FEF01200000122EE0EF0120010EE01F027
:10498000F951E126FA51E222120077EC98F0DCECC2
:104990006DF00001926B936B946B956B916B9C0E19
:1049A000D5D87E6BB8EC94F0DCEC6DF0680E0001AD
:1049B000906FE40EE82EFED7902FFCD700009C0EDF
:1049C0000001C4D87E6FB8EC94F0DCEC6DF0680E9A
:1049D0000001906FE40EE82EFED7902FFCD7000068
:1049E0000001912B020E9165DAD79281920E8D6FA4
:1049F0001EEC7FF000019283920E8D6F1EEC7FF013
:104A000000019285920E8D6F1EEC7FF0000192875F
:104A1000920E8D6F1EEC7FF000019289920E8D6FC9
:104A20001EEC7FF00001928B920E8D6F1EEC7FF0DA
:104A30000001928D920E8D6F1EEC7FF00001928F1F
:104A4000920E8D6F1EEC7FF00001938B920E8D6F96
:104A50001EEC7FF000019389920E8D6F1EEC7FF0AB
:104A600000019387920E8D6F1EEC7FF000019385FD
:104A7000920E8D6F1EEC7FF000019383920E8D6F6E
:104A80001EEC7FF000019381920E8D6F1EEC7FF083
:104A90000001938F920E8D6F1EEC7FF000019481C8
:104AA000920E8D6F1EEC7FF00001938D920E8D6F34
:104AB0001EEC7FF000019483920E8D6F1EEC7FF050
:104AC00000019487920E8D6F1EEC7FF0000194859B
:104AD000920E8D6F1EEC7FF000019489920E8D6F07
:104AE0001EEC7FF000019589920E8D6F1EEC7FF019
:104AF00000019583920E8D6F1EEC7FF00001948B68
:104B0000920E8D6F1EEC7FF00001948F920E8D6FD0
:104B10001EEC7FF00001948D920E8D6F1EEC7FF0E5
:104B200000019581920E8D6F1EEC7FF00001958B38
:104B3000920E8D6F1EEC7FF000019585920E8D6FA9
:104B40001EEC7FF077EC98F0DCEF6DF07A6F230EBF
:104B50007B6F010E7C6F91C07DF0010C686F82D07D
:104B6000A60E656F300E666F010E676F12000A0E9B
:104B7000656FC90E666F000E676F1200A60E656F37
:104B80001F0E666F010E676F1200DA0E656F1B0E47
:104B9000666F010E676F1200FE0E656FEA0E666F9C
:104BA000000E676F1200840E656FC10E666F000EF7
:104BB000676F1200CA0E656F030E666F010E676F96
:104BC0001200C60E656F190E666F010E676F120038
:104BD000240E656FFC0E666F000E676F1200DA0E12
:104BE000656F040E666F010E676F1200960E656F9B
:104BF000040E666F010E676F12002C0E656F020EB9
:104C0000666F010E676F1200520E656F040E666FBD
:104C1000010E676F1200240E656FF30E666F000EB3
:104C2000676F1200CE0E656FF60E666F000E676F2F
:104C30001200940E656FDC0E666F000E676F120037
:104C40001E0E656FAF0E666F000E676F12000E0EC0
:104C5000656F040E666F010E676F1200656B666B01
:104C6000676B12000001685182E0020AF0E0010A5D
:104C700085E0070A8AE0010A88E0030ABEE0010A2B
:104C800084E00F0AACE0180AE2E0010A85E0090AB4
:104C9000DEE0010A88E0030A8DE03A0AD8E0010A62
:104CA00001E16CD7030A01E169D7010A8AE0070A2A
:104CB0008FE0010A9BE0030AA7E0010AACE00E0ABC
:104CC000B1E0030AAFE0010AA6E01B0AB2E0010A64
:104CD000B7E0700ABCE0030ABAE0010AB8E0070ACC
:104CE000B6E0010AB4E0030AB2E0010AB0E00E0A3D
:104CF000AEE0030AACE0010AAAE01A0AA8E0310A11
:104D000001E12ED7110A01E163D7F10AA0E0030AFD
:104D10009EE0070A9CE0140A01E153D7010A01E171
:104D20001FD7030A01E11CD799D79D6B9E6B9F6B20
:104D3000A06B9E0E9D6FEF0E9E6FE10E9F6F410E5A
:104D4000A06FA3D82FEC3CF0CED85C0E816FFE0E86
:104D5000826FE80E836F3A0E846FCBEC1FF07DC03C
:104D600099F07CD857EC1CF0ACD88FD82FEC3CF0E5
:104D7000BAD88BD82FEC3CF0ADD8CBEC1FF09CD838
:104D80008ED8ED0E816F450E826FDE0E836FB20EF0
:104D9000846FCBEC1FF07DC099F060D857EC1CF00D
:104DA00090D873D82FEC3CF09ED86FD82FEC3CF005
:104DB00091D8CBEC1FF080D872D867D82FEC3CF09C
:104DC00089D8CBEC1FF078D86AD83A0E816F6D0E77
:104DD000826FA00E836F2B0E846FCBEC1FF07DC013
:104DE00099F03CD857EC1CF06CD89DC07DF09EC06B
:104DF0007EF09FC07FF0A0C080F0816B826B200EA0
:104E0000836F410E846FCBEC1FF07DC09DF07EC0A0
:104E10009EF07FC09FF080C0A0F09DC08FF09EC02C
:104E200090F09FC091F0A0C092F024EC5CF08FC095
:104E30009DF090C09EF091C09FF092C0A0F09DC0E8
:104E400065F09EC066F09FC067F0A0C068F008ECF7
:104E50005AF065C097F066C098F012007EC09AF0D4
:104E60007FC09BF080C09CF09DC065F09EC066F046
:104E70009FC067F0A0C068F099C069F09AC06AF05E
:104E80009BC06BF09CC06CF0120097C06FF098C094
:104E900070F0000E70BFFF0E716F726F010C7FC05B
:104EA0009BF080C09CF099C07DF09AC07EF09BC0C2
:104EB0007FF09CC080F012007DC099F07EC09AF017
:104EC000120065C09DF066C09EF067C09FF068C08C
:104ED000A0F012006FC081F070C082F071C083F04A
:104EE00072C084F012006FC07DF070C07EF071C09F
:104EF0007FF072C080F012005FEC97F065C079F02F
:104F000066C07AF0AED88FD8C80EDE6EDD6A20EEAD
:104F100027F089D86E0EB5D886D8B40EDE6EBAD812
:104F200082D8B40EA9D87FD8010EDE6E81D87BD886
:104F300083D879D8010EDF6E98D885EC66F0DCEC6A
:104F400094F065C079F066C07AF08BD86CD82C0EDE
:104F5000DE6E010E9BD867D8640E93D864D8960E87
:104F6000DE6E98D860D8FA0E87D85DD8DE6A60D831
:104F70005AD862D858D8DF6A78D885EC66F0E8EC61
:104F800094F065C079F066C07AF06BD84CD88A0E80
:104F9000DE6E020E7BD847D8300EDE6E020EDD6E5E
:104FA00020EE23F040D87FD820EE25F03CD87BD8E7
:104FB00020EE2BF038D8010EDE6E3AD834D83CD82B
:104FC00032D8020EDF6E51D885EC66F020EE38F054
:104FD0002AD8DE6ADD6A0101B66B040EC16F060EC7
:104FE000C26F5CD8E8EC80F02ED8E66BDD6BDE6B30
:104FF000AFEC97F065C067F066C068F06A6B696BEC
:10500000020E6C6F0F0E6B6F22EC8DF0786B782BAD
:105010000E0E7865FCD70101CA81010E9C6FD6EC9B
:1050200019F0000012007951D9267A51DA221200C3
:10503000DD6A20EE2DF01200580EDE6E020EDD6EDF
:1050400020EE3AF0020C020EDB6FDC6B080ED56F1F
:10505000640ED66FFD0ED76FD869E46B140EE36F44
:10506000140C000120EE29F0120079C065F07AC01E
:1050700066F0686B676B1200DE6EDD6A20EE2BF067
:105080001200DE6EDD6A20EE23F01200DD6E20EEEF
:1050900027F01200DD6A20EE25F01200566A576AEA
:1050A000586A596AF80C440EDE6E020EDD6E020C70
:1050B000B3D8DA22DECF7AF0DDCF7BF0ADD8C3EC07
:1050C00036F029EC3DF0E7507D6FA6D8BBD829EC2F
:1050D0003DF0E7507C6FF9C07EF0FAC07FF07A0EA9
:1050E000796F14EC6AF0000901E090D07A0E6C6FD1
:1050F000726B736B6C51F8EC32F029EC3DF0E750B9
:10510000030F706F000E6DEC97F000016C51D96EBB
:10511000DA6ADECF68F0DDCF69F070C06AF0A8EC23
:1051200089F0010E716F3CD0720E656F6C51D96EB3
:10513000DA6ADECF6DF0DDCF6EF071516D25D96E7C
:10514000000E6E21DA6EDF50666F6651686F676B16
:105150006551D96EDA6A6751DE1A6851DD1A080E98
:105160006B6F74D868AF14D001D012D06FD8D890BC
:1051700067376837210E6719696F100E68196A6FF3
:105180006551D96EDA6A69C0DEFF6AC0DDFF02D000
:10519000655164D86B076B51E4E101D0E2D7712B04
:1051A0007051715DC1E301D0BFD76C5182EC2AF020
:1051B00039D873C0DFFF6C5182EC2AF0DF2A6C51C2
:1051C00082EC2AF02FD872C0DFFF6C5182EC2AF0FB
:1051D000DF2A6C5182EC2AF025D80D0EDF6E6C515F
:1051E00082EC2AF0DF2A7AC066F07BC067F07CC0D0
:1051F00068F001D80BD00500FA6E01016451FD6E14
:105200006551FE6E6651FF6EFA50120005D81AD82D
:1052100029EC3DF0E76A120020EE02F03A50D92660
:105220003B501200DF506D6F6C51D96EDA6ADECFE1
:105230006EF0DDCF6FF06D516E25D96E000E6F21CF
:10524000DA6E1200DA2210EE64F012006551D96EA7
:10525000DA6ADECF67F0DDCF68F01200D96EDA6A65
:10526000D890DE36DD3612000001786F78511FE0ED
:10527000816B826B000E716F030E726FD890813557
:10528000D96E8235DA6ED890D936DA367151D92690
:105290007251DA22B9D8814B822B82BFEBD782516F
:1052A00003E10B0E815DE6E30101A66B000C010139
:1052B000A651040D000EF324D96E030EF420DA6E0D
:1052C000A3D86DC079F06EC07AF06FC07BF070C06B
:1052D0007CF06DC07DF06EC07EF06FC07FF070C05E
:1052E00080F0A62B090EA66501D0A66B0001876B86
:1052F000886B79D8DE50795DDE507A59DE507B5963
:105300007C51800A776FDE50800A775909E26BD8AA
:10531000DECF79F0DECF7AF0DECF7BF0DECF7CF02F
:1053200062D87D51DE5C7E51DE587F51DE58DE5002
:10533000800A776F8051800A775909E254D8DECF0E
:105340007DF0DECF7EF0DECF7FF0DECF80F0874BCA
:10535000882B88BFCED7885103E10A0E875DC9E349
:105360007D51795D656F7E517A59666F7F517B59AA
:10537000676F80517C59686F8DEC7FF065C083F05A
:1053800066C084F067C085F068C086F086BF09D02B
:105390008651851105E1C00E835D5D0E845901E3E0
:1053A000000C86BF09D08651851105E1E00E835DB2
:1053B0002E0E845901E3010C86BF09D08651851158
:1053C00005E1700E835D170E845901E3020C86BF60
:1053D000040C8651851105E1B80E835D0B0E8459CE
:1053E00001E3030C040C000E716F030E726FD89072
:1053F0008735D96E8835DA6ED890D936DA3671515C
:10540000D9267251DA2212006DC0DEFF6EC0DEFFB7
:105410006FC0DEFF70C0DEFF1200705173D8030E44
:10542000DF6E7051D96EDA6ADECF71F0DDCF72F0C7
:1054300071C0D9FF72C0DAFF1B0EDF6E705162D8E7
:105440006AD8500EDF6E70515DD8DF2A70515AD87D
:1054500062D8DF6A705156D8DF2A705153D85BD8B2
:10546000DF6870514FD8FDEC32F070C06BF0A4D8FB
:10547000686B9AD803E008D001D006D0682B050EDF
:105480006865F7D701D0F5D76F6B6FD864D87CD833
:105490006F2B050E6F65F9D701D0F7D76B5132D856
:1054A00036D830D848D85DD82DD8DF2A6B512AD8C5
:1054B00042D876D827D8DF2A705124D82CD8010EAC
:1054C000DF6E70511FD8DF2A70511CD824D8640EAB
:1054D000DF6E705117D8DF2A7051F3EC32F029ECEF
:1054E0003DF0E76A7051F8EC32F029EC3DF0705174
:1054F00009D8DF50FD0FE76E705104D8640EDF60ED
:10550000010C000CD96EDA6A020ED926020C060EC6
:10551000DF266B511200DF50716F7051D96EDA6A5D
:10552000DECF72F0DDCF73F071517225D96E000EAF
:105530007321DA6E1200DF506C6F6B51D96EDA6A2C
:10554000DECF6DF0DDCF6EF06C516D25D96E000EA3
:105550006E21DA6E1200E16EE26A020EE126E75079
:105560001200CA0EDF6E6B5112006F516925D96EA1
:10557000000E6A21DA6E6B51E16EE26AE6CF6CF0E2
:10558000E5CF6DF06B5112006C27000E6D236F514B
:105590006C25E16E000E6D21E26EDFCFE7FF120099
:1055A000FE0EDF6E6B51120068516525D96E000E3C
:1055B0006621DA6EDE28120069C065F06AC066F006
:1055C0001200C0D843EC7FF067C0A4F068C0A5F01B
:1055D0000001A451A51104E1B5D8886F020E4FD087
:1055E000040E9825A0D860EC53F07FC0A0F080C0D6
:1055F000A1F0982998D860EC53F07FC0A2F080C049
:10560000A3F0A2C06DF0A3C06EF0A0C06FF0A1C067
:1056100070F0A4C071F0A5C072F0746B4FEC34F060
:1056200028E201D026D03DEC34F06C6B5ED808E364
:1056300001D006D069D804E301D002D0010E6C6F0E
:105640006C51000916E001D014D046EC34F06C6BBC
:105650004CD808E301D006D057D804E301D002D0DB
:10566000010E6C6F6C51000904E001D002D0010EF4
:10567000746F7451000905E165D8886F030E896F56
:1056800031D020EE3AF064D8020EDE18010ED8A414
:10569000000E9F6F9F5105E1A2C09BF0A3C09CF03C
:1056A00004D0A0C09BF0A1C09CF020EE23F050D805
:1056B0009BC0DEFF9CC0DDFF9F5105E1A0C09DF0B7
:1056C000A1C09EF004D0A2C09DF0A3C09EF020EE29
:1056D00025F03ED89DC0DEFF9EC0DDFF70EC91F04E
:1056E00031D83BD8470E5BEF89F020EE13F06751BD
:1056F000D9266851DA22DE50655D6651800A6B6FEB
:10570000DE50800A6B59120020EE15F06751D92641
:105710006851DA226551DE5CDE50800A6B6F66519B
:10572000800A6B5912007F6F000E9921806F20EE66
:105730001FF0A451D926A551DA22DECF81F0DDCFAA
:1057400082F0120098C0D9FF99C0DAFFDF50120032
:10575000A451D926A551DA2212000001886F896B65
:105760001200939A8A9A1A0E0001816FF80EE82EA1
:10577000FED7812FFCD700008A8A200E0001816F9E
:10578000290EE82EFED7812FFCD700D0C00E0001D5
:10579000A0D8300EB0EC91F0C00E9BD8370EB0EC14
:1057A00091F0C00E96D8360EB0EC91F0A3D83F0E13
:1057B0007C6F300EB0EC91F09DD83F0E7C6F370EB1
:1057C000B0EC91F097D8280E7C6F360EB0EC91F0CB
:1057D0006DD8300EB0EC91F069D8370EB0EC91F086
:1057E00065D8360EB0EC91F06ED8300EB0EC91F07A
:1057F0006AD8370EB0EC91F066D8360EB0EC91F066
:105800006ED8300EB0EC91F06AD8370EB0EC91F053
:1058100066D8360EB0EC91F0010E7E6F300EA0EC23
:1058200091F0010E7E6F370EA0EC91F0010E7E6FAD
:10583000360EA0EC91F033D8300EB0EC91F02FD8AA
:10584000370EB0EC91F02BD8360EB0EC91F0826BA5
:1058500034D8300EB0EC91F030D8370EB0EC91F077
:105860002CD8360EB0EC91F0822B170E8265F0D753
:10587000180E826F400E39D8300EB0EC91F0400E09
:1058800034D8370EB0EC91F0400E2FD8360EB0EC75
:1058900091F0822B9B0E8265EDD700009B0CC00E11
:1058A0007A6F090E7B6F030E7C6F030CC00E7A6F4C
:1058B000040E7B6FEB0E7C6FEB0C400E7A6F82C098
:1058C0007BF07C6B400CC00E7A6F010E7B6F7C6BA3
:1058D000010C7A6F060E7B6F020E7C6F020CC00EFD
:1058E0007A6F7B6B400E7C6F400C7A6F82C07BF0CE
:1058F0007C691200C00E7A6F050E7B6F050C760E68
:10590000F66E110EF76E010EF86E06EEA4F010EEB4
:1059100036F00900F5CFEEFFE550E150FAE1F60E62
:10592000F66E1D0EF76E010EF86E05EECFF010EE5E
:1059300024F00900F5CFEEFFE550E150FAE1D20E78
:10594000F66E1D0EF76E010EF86E04EECCF010EE42
:1059500024F00900F5CFEEFFE550E150FAE17A0EB0
:10596000F66E1C0EF76E010EF86E03EECBF010EE25
:1059700027F00900F5CFEEFFE550E150FAE1F80E0F
:10598000F66EEE0EF76E000EF86E02EE80F010EE80
:105990005AF00900F5CFEEFFE550E150FAE16A0E4A
:1059A000F66E300EF76E010EF86E01EEFAF010EEA4
:1059B00006F00900F5CFEEFFE550E150FAE10CEEFC
:1059C000FAF012EE0FF0EE6AE550E150FCE1E25021
:1059D000FAE10CEE00F0FA0EEE6AE806FDE10BEEDD
:1059E00000F0FA0EEE6AE806FDE10AEE00F0FA0EAB
:1059F000EE6AE806FDE109EE00F0FA0EEE6AE8064E
:105A0000FDE108EE00F0D50EEE6AE806FDE107EED6
:105A100000F0FA0EEE6AE806FDE106EE00F0A40ED4
:105A2000EE6AE806FDE105EE00F0CF0EEE6AE8064C
:105A3000FDE104EE00F0CC0EEE6AE806FDE103EEB7
:105A400000F0CB0EEE6AE806FDE102EE00F0800EFB
:105A5000EE6AE806FDE101EE00F0E70EEE6AE80608
:105A6000FDE10001FA6BF96BF86BF76BF66B5E6AA0
:105A700000EE32F02C0EEE6AE806FDE15F905F92D8
:105A80000001EFEF30F0EE0E726F736B96EC76F074
:105A900072C0EFF073C0F0F020EE02F0EF51D926A3
:105AA000F051DA22DFA00AD0E3C065F0E4C066F06E
:105AB000E5C067F0E6C068F02CEC96F00001E85114
:105AC000E91108E0E8C0D9FFE9C0DAFFEFC0DEFF66
:105AD000F0C0DDFFEA51EB1106E0EAC0D9FFEBC0F0
:105AE000DAFFEEC0DFFFEFC0D9FFF0C0DAFFDE5013
:105AF0001FE1DE041DE1EE511BE020EE02F0EF514C
:105B0000D926F051DA22DFB413D020EE02F0EF51A3
:105B1000D926F051DA22DFB60BD0E3C0D5F0E4C0CD
:105B2000D6F0E5C0D7F0E6C0D8F0A4EC8BF0010CBD
:105B3000EFC0D9FFF0C0DAFFDE04DE1008E0EFC0EE
:105B4000D9FFF0C0DAFF020EDE18DE103DE1EE51A3
:105B500008E120EE02F0EF51D926F051DA22DFA45D
:105B6000010C20EE02F0EF51D926F051DA22DFB21B
:105B7000010CEFC0D9FFF0C0DAFFDE04DE100DE14A
:105B8000DC69DB69E3C0DDF0E4C0DEF0E5C0DFF036
:105B9000E6C0E0F025EC8AF0010CEFC0D9FFF0C0C0
:105BA000DAFF020EDE18DE10D8A4010CDC6B010E49
:105BB000DB6FE3C0DDF0E4C0DEF0E5C0DFF0E6C09F
:105BC000E0F025EC8AF0010CEFC0D9FFF0C0DAFF5D
:105BD000800EDE18DE1018E1E75116E0EE51D8B461
:105BE000010C20EE02F0EF51D926F051DA22DFB29B
:105BF000010CE3C0D5F0E4C0D6F0E5C0D7F0E6C0B4
:105C0000D8F089EC8DF0010C000CE5C0D9FFE6C09E
:105C1000DAFFDECFE7F0DDCFE8F0845107E10001E5
:105C20006E6B020EB7EC96F0DCEC6DF00001666B6B
:105C3000080E656FE7C067F0E8C068F06551671946
:105C400006E16651681901E002D0010E01D0000E94
:105C5000000917E06E6B010EB7EC96F0740E7A6FC8
:105C6000240E7B6F010E7C6F7D6F7E6BB8EC94F021
:105C7000010E0201846F0201816B826BDCEC6DF01E
:105C800067D0666B040E656FE7C067F0E8C068F028
:105C90006551671906E16651681901E002D0010EED
:105CA00001D0000E000916E06E6B010EB7EC96F005
:105CB0005C0E7A6F240E7B6F010E7C6F7D6F7E6BA6
:105CC000B8EC94F00201846B00016E6B020EB7EC2D
:105CD00096F0D1D7010E666F656BE7C067F0E8C03C
:105CE00068F06551671906E16651681901E002D054
:105CF000010E01D0000E00092BE00101010ECAA126
:105D0000000E020184190EE084B103D00101CA9192
:105D100002D00101CA81010EE0EC97F011EC98F07D
:105D2000D6EC19F0E1C0DDF0E2C0DEF0E3C0DFF058
:105D3000E4C0E0F022EE9FF001D80AD00500FA6E30
:105D4000DE50FD6EDE50FE6EDE50FF6EFA50120029
:105D500002018451D8B4120083510101C719D8B48B
:105D6000120000016E6B020EB7EC96F008EC86F0A4
:105D700065C07AF066C07BF0010E7C6F020E7D6F0D
:105D80007E6BB8EC94F0DCEF6DF0A0519C5DA151FE
:105D90009D59A2519E59A3519F590AE3000E836F4A
:105DA0002F0E9CD8140E866F230E876F01EC8EF099
:105DB000A4C0D9FFA5C0DAFFDE50DE10DE100BE173
:105DC000000E0001836F300E89D8AC0E866F220E54
:105DD000876F01EC8EF0000120EE03F085D808E11A
:105DE0008BD87CD8FB0E866F220E876F01EC8EF06D
:105DF000000120EE06F078D80AE1000E836F320E23
:105E00006DD8C70E866F220E876F01EC8EF00001F1
:105E100020EE09F069D80AE1000E836F330E5ED8D8
:105E2000740E866F220E876F01EC8EF09CC07FF39C
:105E30009DC080F39EC081F39FC082F39E0E03013C
:105E4000836F280E846F000E856FA0C07DF0A1C007
:105E50007EF0A2C07FF0A3C080F09CC081F09DC006
:105E600082F09EC083F09FC084F024EC69F07DC076
:105E700004F27EC005F27FC006F280C007F2A4C023
:105E80007AF1A5C07BF10101786B796B0201006B9F
:105E9000016B026B036B000E0101C325386E020E0D
:105EA000C421396E000E0001956F0B0E966F986B32
:105EB000FA0E976F010120EE09F07A51D9267B5135
:105EC000DA22DECF99F0DECF9AF0DDCF9BF000EC46
:105ED0007DF07F0E9C6F030E9D6F1200826F440E4B
:105EE000846F230E856F1200A451D926A551DA22A2
:105EF000DE50DE10DE101200000E836F310CD5C0B4
:105F0000D9FFD6C0DAFF0001DFAE000C40C065F05B
:105F100041C066F0F7EC8FF0000901E1A8D0000E57
:105F200040EC7AF065C0DDF066C0DEF020EE33F0C4
:105F30004050D9264150DA2210EE04F0DE50E1261E
:105F4000DD50E222E6CFDFF0E5CFE0F0E56BE66B77
:105F500045D020EE0DF04050D9264150DA22DECF58
:105F6000DBF0DDCFDCF0DD51E55D656FDE51E6593C
:105F7000666FDFC067F0E0C068F0C3EC8EF0DB5105
:105F80006525E16FDC516621E26F40C0A5F041C09C
:105F9000A6F0E1C0A7F0E2C0A8F058EC44F0A5C01C
:105FA000E3F0A6C0E4F04D0E716F020E726F3EC0BA
:105FB00073F03FC074F0E5C075F0E6C076F0E3C062
:105FC00077F0E4C078F0000E7A6F796F92C17BF0C1
:105FD00093C17CF0EEEC48F0E54BE62B3E50E55DDE
:105FE000E651800ADB6F3F50800ADB59B2E3E56B74
:105FF000E66B2AD040C0A7F041C0A8F0D890E535A4
:10600000D96EE635DA6E4D0ED926020EDA22DECFD3
:10601000A9F0DDCFAAF0B4EC40F0D890E535D96E08
:10602000E635DA6E450ED926020EDA22DECFDBF037
:10603000DDCFDCF0DBC0D9FFDCC0DAFFA7C0DEFFBC
:10604000A8C0DDFFE54BE62B3E50E55DE651800A3A
:10605000DB6F3F50800ADB59CDE3D7C0CFF0D8C00B
:10606000D0F0D9C0D1F0DAC0D2F068EC7FF0010CEA
:10607000730E7C6F8BD0250E811904E081519AEC50
:1060800098F084D07A6B27D07C51D96EDA6ADECF53
:106090007DF0DDCF7EF0020E7C277D517E1111E177
:1060A000A50E7D6F230E7E6F0CD08CD8F76403D0C5
:1060B0000800F55001D077D89AEC98F000017D4B9C
:1060C0007E2B80D8F76403D00800F55001D06BD840
:1060D00000095CE0EAD77ED86CD8D8B41200640A14
:1060E00005E00D0A03E01A0ACFE050D07C51D96ECA
:1060F000DA6ADECF7FF0DDCF80F0020E7C2780AF42
:1061000006D0030E7A137F6D801FD8B0802B010E4E
:10611000816F815141D85EEC59F00900F5507F5DE7
:106120000900F550805904E3812B050E8119F1E136
:106130007AC079F0030E791703E02D0E9AEC98F0EF
:1061400081C07BF01FD07B5127D85EEC59F009004D
:10615000F5CF67F00A00F5CF68F07FC065F080C02A
:1061600066F0D7EC7FF065C06CF066C06DF06F6BC9
:106170000A0E6E6F15EC85F06C51300F816F8151F6
:106180009AEC98F000017B077B29DDE123D8000120
:1061900010D801E070D71200020DF50EF324F66E50
:1061A000200EF4201200F6CFE9FFF7CFEAFFEF5000
:1061B0001200714B722B000EF86E0800F5CF81F0C3
:1061C000815112007DC0F6FF7EC0F7FF000EF86E11
:1061D0000F0E120071C0F6FF72C0F7FF12009DECA7
:1061E0008FF097929794010E8EA2000EFF0A030182
:1061F000F66FF6478E50F619FD0BF6198E6E010EEE
:106200008EA2000EFF0AF66FF6478E50F619FD0BB0
:10621000F6198E6E010E8EA4000EFF0AF66FF64779
:10622000F6478E50F619FB0BF6198E6E010E8EA4F2
:10623000000EFF0AF66FF647F6478E50F619FB0B75
:10624000F6198E6E14EC83F0F28EF28CD8EC7CF0A2
:10625000B9EC8CF0D0B62FD0010E8EA2000EFF0A42
:106260000301F66FF6478E50F619FD0BF6198E6E88
:10627000010E8EA2000EFF0AF66FF6478E50F61939
:10628000FD0BF6198E6EBE0E00017A6F230E7B6F2A
:10629000010E7C6F7D6B7E6BB8EC94F0CB0E7A6F49
:1062A000230E7B6F010E7C6F7D6B7E6FB8EC94F0DC
:1062B000DCEC6DF0FFD7D0BA31D0010E8EA4000E09
:1062C000FF0A0301F66FF647F6478E50F619FB0BEF
:1062D000F6198E6E010E8EA4000EFF0AF66FF647B9
:1062E000F6478E50F619FB0BF6198E6EBE0E0001A6
:1062F0007A6F230E7B6F010E7C6F7D6B7E6BB8EC2B
:1063000094F0D00E7A6F230E7B6F010E7C6F7D6B45
:106310007E6FB8EC94F0DCEC6DF0FFD721EC98F0D8
:1063200072EC71F02FEC17F099EC98F0090E000167
:10633000DE6F3D0EDF6FE06BE16BACEC1EF0D180E9
:106340008DEC96F02DEF10F06651D96EDA6ADECF43
:1063500076F0DDCF77F066517CEC42F0DECF6BF06B
:10636000DDCF6CF020EE05F095D8676F6705706F94
:10637000060E706501D0010C20EE06F08BD8716F0F
:10638000060E716501D0010C70517F0D74D86B251C
:10639000696F68516C216A6F020E69256E6F000E7D
:1063A0006A216F6F070E6E25736F000E6F21746F79
:1063B00020EE05F06E51D9266F51DA2271C0DFFF51
:1063C000070E756F6D6B3CD0726B4ED8DF50786FD7
:1063D000752B060E786501D0010C39D8692960D873
:1063E00078C0DFFF7851140D46D87325D96E6851F7
:1063F0007421DA6E70C0DFFF09D036D828D8725108
:106400006927000E6A23030E3CD8722B2DD8DF506B
:1064100003E00E0E7265F1D70F0E726501D0010C0C
:1064200016D8020E69253CD872C0DFFF752B1CD828
:106430000ED8120E26D818D80AD8130E22D86D2BD3
:1064400071516D5DC1E3080EC7EC97F0000C7851F7
:10645000140DF3CF67F0F4CF68F067517325696FBF
:10646000685174216A6F120075517625D96E000E3D
:106470007721DA6E1200F3CF67F0F4CF68F067513E
:1064800012006925E16E000E6A21E26EDFCFE7FFA0
:10649000752B12007651D9267751DA22DF5012007F
:1064A000D96E000E6A21DA6E1200705182EC2AF069
:1064B000030EDF6E7051D96EDA6ADECF71F0DDCF78
:1064C00072F071C0D9FF72C0DAFF1B0EDF6E70511F
:1064D00082EC2AF078D8510EDF6E705182EC2AF0EF
:1064E000DF2A705182EC2AF06ED8DF6A705182EC9C
:1064F0002AF0DF2A705182EC2AF065D8DF687051EB
:1065000082EC2AF07AD870C06BF0DCEC2AF0686B71
:10651000D4EC2AF003E008D001D006D0682B050E99
:106520006865F6D701D0F4D76F6BB5EC2AF0ABEC09
:106530002AF0C4EC2AF06F2B050E6F65F6D701D058
:10654000F4D76B5182EC2AF087EC2AF082EC2AF027
:106550009BEC2AF0B1EC2AF082EC2AF0DF2A6B5196
:1065600082EC2AF09BEC2AF0D0EC2AF082EC2AF0A4
:10657000DF2A705182EC2AF026D8010EDF6E7051AE
:1065800082EC2AF0DF2A705182EC2AF01CD8640ECB
:10659000DF6E705182EC2AF0DF2A705124D829EC8A
:1065A0003DF0E76A705124D829EC3DF0705182EC3F
:1065B0002AF0DF50FD0FE76E705182EC2AF0640E76
:1065C000DF60010C000CDF50716F7051D96EDA6A18
:1065D000DECF72F0DDCF73F071517225D96E000EEF
:1065E0007321DA6E1200D96EDA6A10EE01F0120031
:1065F000D96EDA6A10EE02F01200DF2AC5C169F026
:10660000C6C16AF0120020EE38F097D8DFAE16D07F
:1066100020EE39F092D8DFB211D077D8D95D9CD86E
:10662000DA5990D8DB5993D8DC597BD891C0D5F191
:1066300092C0D6F193C0D7F194C0D8F120EE39F0D2
:106640007CD8DFA216D020EE38F077D8DFBE11D08C
:106650005CD8D55D81D8D65975D8D75978D8D8594E
:1066600060D891C0D9F192C0DAF193C0DBF194C047
:10667000DCF156500101D95D5A6F5750DA595B6F02
:106680005850DB595C6F5950DC595D6F5AC17DF031
:106690005BC17EF05CC17FF05DC180F02C0E00011B
:1066A000816F010EE4EC43F0BCEC4CF07DC05AF17C
:1066B0007EC05BF17FC05CF180C05DF1565001018E
:1066C000D55D566F5750D659576F5850D759586F98
:1066D0005950D859596F56C17DF057C17EF058C1F5
:1066E0007FF059C180F0D40E0001816FFE0E826FE1
:1066F00083698469BCEC4CF07DC056F17EC057F1D3
:106700007FC058F180C059F11200D89056348D6F77
:1067100057348E6F58348F6F5934906F8D510101FB
:1067200012000001946F911F921F931F941F912BD1
:10673000000E922393239423000C8B51D9268C5165
:10674000DA2212000001926F8F5101011200000144
:10675000936F9051010112000001916F8E51010160
:10676000120085D843EC7FF067C09EF068C09FF0B0
:1067700000019E519F1104E17AD8886F020E50D01B
:10678000982966D860EC53F07FC09AF080C09BF0E7
:10679000040E98255DD860EC53F07FC09CF080C05B
:1067A0009DF09AC06DF09BC06EF09CC06FF09DC0D4
:1067B00070F09EC071F09FC072F0746B70D82AE2C6
:1067C00001D028D05AD86C6B75EC2BF009E301D0BE
:1067D00007D084EC2BF004E301D002D0010E6C6FE3
:1067E0006C51000917E001D015D050D86C6B75ECD6
:1067F0002BF009E301D007D084EC2BF004E301D0A7
:1068000002D0010E6C6F6C51000904E001D002D07F
:10681000010E746F7451000905E129D8886F030EC9
:10682000896F13D020EE27F043D89AC0DEFF9BC0BB
:10683000DDFF20EE29F03CD89CC0DEFF9DC0DDFFCF
:1068400070EC91F014D8ADEC2BF04B0E5BEF89F0AF
:106850007F6F000E9921806F20EE1FF09E51D92688
:106860009F51DA22DECF81F0DDCF82F0120098C096
:10687000D9FF99C0DAFFDF5012006DC065F06EC01D
:1068800066F071C067F072C068F012006FC065F00A
:1068900070C066F071C067F072C068F012006F518E
:1068A0006D5D6E51800A736F7051800A73591200CA
:1068B0009E51D9269F51DA221200A1D8DE6ADD6AE4
:1068C0006CC065F06DC066F07B0E676F8AEC78F087
:1068D00065C080F066C081F080C065F081C066F060
:1068E0006CC067F06DC068F07DD865C079F066C097
:1068F0007AF07951705D7A51715901E21200030EFC
:10690000746F756B8051745F8151755B7DD8745164
:10691000DE267551DD2273D8DFCF74F0DE2ADFCF9B
:1069200075F0000EDD2270D8DECF76F0DDCF77F087
:1069300074517625D96E75517721DA6EAA0EDF6E05
:106940007E6B7F6B21D07E517B0FD96EDA6A72C06D
:10695000E1FF73C0E2FFE7CF74F0E62AE7CF75F0FE
:10696000000EE5226EC0E1FF6FC0E2FFE6CF76F0D9
:10697000E5CF77F074517625E16E75517721E26E9F
:10698000DFCFE7FF7E4B7F2B80517E5D81517F59AA
:10699000DAE335D86C51DE266D51DD2235D8DECFF5
:1069A00065F0DDCF66F02BD8DECF67F0DDCF68F085
:1069B00011EC8CF0746F23D8DECF75F0DDCF76F05C
:1069C00023D8DECF77F0DDCF78F075517725D96EFB
:1069D00076517821DA6E74C0DFFF11D8DE2A000EFE
:1069E000DD22000C67516525696F685166216A6F69
:1069F000020E6925656F000E6A21666F120072C073
:106A0000D9FF73C0DAFF12006EC0D9FF6FC0DAFF82
:106A100012006BEC7AF0B0C0DDF0B1C0DEF0D890BF
:106A200001019035D96E9135DA6E4D0ED926020EE0
:106A3000DA22DECFDBF0DDCFDCF00001D551DB2543
:106A4000DF6FD651DC21E06F4D0E716F020E726F59
:106A50003EC073F03FC074F090C175F091C176F004
:106A6000DFC077F0E0C078F0DDC079F0DEC07AF00A
:106A700092C17BF093C17CF0EEEC48F0E16FE15104
:106A80002CE140C0A7F041C0A8F0D890010190359A
:106A9000D96E9135DA6E4D0ED926020EDA22DECF8E
:106AA000A9F0DDCFAAF0B4EC40F0D8900101903508
:106AB000D96E9135DA6E450ED926020EDA22DECF76
:106AC000DBF0DDCFDCF0DBC0D9FFDCC0DAFF00019A
:106AD000A7C0DEFFA8C0DDFF36D0E26BE36B2AD093
:106AE00040C0A7F041C0A8F0D890E235D96EE33598
:106AF000DA6E4D0ED926020EDA22DECFA9F0DDCFF6
:106B0000AAF0B4EC40F0D890E235D96EE335DA6EF5
:106B1000450ED926020EDA22DECFDBF0DDCFDCF027
:106B2000DBC0D9FFDCC0DAFFA7C0DEFFA8C0DDFFF5
:106B3000E24BE32B3E50E25DE351800ADB6F3F50B6
:106B4000800ADB59CDE343EC8FF0D7C0CFF0D8C03B
:106B5000D0F0D9C0D1F0DAC0D2F068EF7FF0010EEA
:106B600039EC84F046EC93F0000902E0DCEF6DF0C4
:106B70000DEC98F0000904E07BEC60F0DCEF6DF0C8
:106B80000001CB6BCC6B76D0D890CB35D96ECC35A1
:106B900000EC76F0DECFCDF0DDCFCEF0000120EEC0
:106BA00033F076D8DECFC9F0DDCFCAF0C9C0D9FF47
:106BB000CAC0DAFFDF500DEC7CF0CDC065F0CEC06E
:106BC00066F0F7EC8FF0000943E0CDC067F0CEC06F
:106BD00068F065EC8CF0000907E0CDC084F0CEC011
:106BE00085F077EC4DF043D0000120EE3CF050D81A
:106BF000DFA212D020EE3BF04BD8DFB60DD0010162
:106C0000CC5135E1CDC0B9F0CEC0BAF085EC92F0F0
:106C100044D8A1EC81F02BD0CDC067F0CEC068F095
:106C2000B3EC93F0000907E0CDC084F0CEC085F04E
:106C3000F7EC55F01CD0000120EE3BF029D8DFA284
:106C4000E1D7CDC0BBF0CEC0BCF013EC7BF00FD0D1
:106C5000CDC065F0CEC066F0E5EC8FF0000904E130
:106C60001CD8A1EC81F003D00101CC51B6E10001A8
:106C7000CB4BCC2B0101BD510001CB5DCC51800A27
:106C8000C96F07EC76F0C95901E27ED7DCEF6DF0F1
:106C9000CD51D926CE51DA221200CDC0BBF0CEC0E4
:106CA000BCF0120020EE33F072D810EE09F029EC9F
:106CB0003DF0E650E610E61044E020EE0BF067D819
:106CC0006BD865D88CD876D85ED829EC3DF0E750E3
:106CD0009F6FA06B20EE33F05AD810EE09F029EC2C
:106CE0003DF001D80AD00500FA6EE650FD6EE65080
:106CF000FE6EE650FF6EFA50120020EE0DF047D8FF
:106D000069D820EE0BF043D847D841D868D8A06B9B
:106D1000020E9F6F20EE33F03AD810EE09F029EC06
:106D20003DF001D80AD00500FA6EE650FD6EE6503F
:106D3000FE6EE650FF6EFA50120020EE0FF027D8DC
:106D400049D020EE0BF023D82ED821D839D832D80C
:106D50001AD829EC3DF0E7507D6F7E6BEBEC5FF0CD
:106D600020EE0DF014D831D820EE0BF010D81BD83F
:106D70000ED826D87E6B020E7D6FEBEC5FF020EE16
:106D80000FF005D822D0DA2210EE03F01200A35142
:106D9000D926A451DA221200DECF9BF0DDCF9CF081
:106DA00020EE1FF01200DECF79F0DDCF7AF020EE7A
:106DB0001FF0120020EE36F0A351D926A451120084
:106DC000DECF7BF0DDCF7CF0120079C0DEFF7AC031
:106DD000DDFF12009BC0DEFF9CC0DDFF1200DECF96
:106DE0009DF0DDCF9EF012000001D751070ED8A410
:106DF000090E3C24DC6F000E3D20DD6FDCC0F6FF89
:106E0000DDC0F7FF000EF86E0900F5CFDFF00A00D5
:106E1000F5CFE0F08EC165F08FC166F03CC0F6FFA3
:106E20003DC0F7FF01D80DD00500FA6E0900F550FE
:106E3000FD6E0900F550FE6E0900F550FF6EFA5028
:106E4000120065C0E1F066C0E2F0E1C0D9FFE2C027
:106E5000DAFFDECFDCF0DDCFDDF0D5C065F0D6C0E7
:106E600066F0DFC067F0E0C068F0C3EC8EF0DC5184
:106E70006525E36FDD516621E46F030E3C24DC6F72
:106E8000000E3D20DD6FDCC0F6FFDDC0F7FF000E19
:106E9000F86E0900F550E35DE451800ADE6F0900E9
:106EA000F550800ADE5902E2030E18D0050E3C248C
:106EB000DC6F000E3D20DD6FDCC0F6FFDDC0F7FFAC
:106EC000000EF86EE3510900F55C0900F550800AE8
:106ED000DE6FE451800ADE5912E2050E3C24DC6FBD
:106EE000000E3D20DD6FDCC0F6FFDDC0F7FF000EB9
:106EF000F86E0900F5CFE3F00A00F5CFE4F0E1C049
:106F0000D9FFE2C0DAFFE3C0DEFFE4C0DDFFD8C096
:106F1000CFF0D9C0D0F0DAC0D1F0DBC0D2F068EF4A
:106F20007FF0246A256A266A24C001F025C002F099
:106F30002A0E2624D96EDA6A010EDA22DF50036E99
:106F40005CEC81F001C024F002C025F0262A0D0E71
:106F50002664EAD7245025107BE12BC127F02EC1EF
:106F60002BF127C02EF12CC127F02DC12CF127C009
:106F70002DF12BC101F02CC102F02DC103F02EC167
:106F800004F05FEC7CF001C02BF102C02CF103C0D7
:106F90002DF104C02EF1056A066AC80E076E420E76
:106FA000086E2BC101F02CC102F02DC103F02EC1DF
:106FB00004F084EC18F001C01AF002C01BF003C00A
:106FC0001CF004C01DF0A4EC5AF01AC076F11BC0EE
:106FD00077F130C127F033C130F127C033F131C12F
:106FE00027F032C131F127C032F130C101F031C197
:106FF00002F032C103F033C104F05FEC7CF001C059
:1070000030F102C031F103C032F104C033F1056A3E
:10701000066AC80E076E420E086E30C101F031C11B
:1070200002F032C103F033C104F084EC18F001C067
:107030001AF002C01BF003C01CF004C01DF0A4EC49
:107040005AF01AC074F11BC075F10101A36B04D092
:10705000010E0101A36F0000000012000001686F23
:107060005FD0280E656F310E666F010E676F1200DC
:10707000A80E656FE70E666F000E676F1200040EB4
:10708000656F2B0E666F010E676F1200540E656FF1
:10709000260E666F010E676F1200980E656F0B0E5D
:1070A000666F010E676F1200B40E656F130E666F88
:1070B000010E676F1200460E656F0F0E666F010EB0
:1070C000676F1200480E656FE70E666F000E676F00
:1070D0001200620E656F050E666F010E676F12007B
:1070E000800E656F280E666F010E676F12004C0EE2
:1070F000656F270E666F010E676F12000E0E656FCB
:107100000F0E666F010E676F12004A0E656FAB0EB1
:10711000666F000E676F1200656B666B676B12001F
:10712000000168519EE0010AA3E0030A9AE0010A07
:10713000A6E0070AA4E0140A94E0080A92E0380ADC
:1071400090E0610A9CE0030A9AE0010A9FE0070AC6
:10715000A4E0010AA9E0030AAEE0010AB3E00E0AC6
:10716000B8E0030AB6E0010AADE01A0ACEE0310A3F
:10717000C5E0010A92E0100AC1E0F10A80E0030ACA
:10718000AFE0070AADE0140AB9E0010AB7E0030A6C
:10719000AEE0C2D768C065F069C066F0A3EC92F0BB
:1071A0006E6F736B0101C2A50BD0000120EE3BF0A6
:1071B0006851D9266951DA22DFA602D0010E736F19
:1071C00073C06FF068C065F069C066F094EC92F02F
:1071D000706F6FD8DFB0010E716F6BD8DFB2010E28
:1071E000726F746B756B44D0D8907435D96E7535E9
:1071F00000EC76F0DECF76F0DDCF77F076C065F08C
:1072000077C066F0E5EC8FF0000930E06F5112E0D6
:107210003BD8DFA80FD06A5174190BE16B51751977
:1072200008E120EE3CF07651D9267751DA22DF8052
:1072300001D037D868C065F069C066F0E5EC8FF022
:10724000000914E06E5103E01FD8DFB02AD8705156
:1072500003E01AD8DFB225D8715103E015D8DFB4A6
:1072600020D8725103E010D8DFB61BD8744B752BB1
:107270000101BD510001745D7551800A6C6F07EC0E
:1072800076F06C59B1E312006A5176256C6F6B5140
:1072900077216D6F500E6C25D96E000E6D21DA6E60
:1072A000120020EE3CF07651D9267751DA22DF82A7
:1072B000120020EE38F06851D9266951DA22000C0C
:1072C000270E7DD8B2C0D9FFB3C0DAFF7ED8250E15
:1072D000B025B66F6ED864D8BD6B030EBC6F20EEC0
:1072E00022F07ED8DF5015E0BD6B040EBC6F20EE9F
:1072F0003AF076D8020EDE1802E1230E06D0230EF5
:10730000B025B66F56D84CD8250E59D820EE04F0CB
:1073100047D8290E54D8BCC0B8F0BDC0B9F0D89039
:10732000B837B937B851B225BA6FB951B321BB6F6D
:10733000FE0EBA25D96EFF0EBB21DA6E46D8BE6BA3
:10734000BF6B20D0B0C0A5F0B1C0A6F043D8B251F9
:10735000D926B351DA22DECFB6F0DDCFB7F0B6C012
:10736000D9FFB7C0DAFFA8EC40F058EC44F032D8AF
:10737000B451D926B551DA22A5C0DEFFA6C0DDFF83
:10738000BE4BBF2BBC51BE5DBF51800AB66FBD5115
:10739000800AB659D7E3BCC0B0F0BDC0B1F012004E
:1073A000B251D926B351DA22B6C0DEFFB7C0DDFF35
:1073B0001200000EB121B76F20EE02F01200B025CE
:1073C000B66F000EB121B76F1200B6C0DEFFB7C0B6
:1073D000DDFF1200D890BE35D96EBF35DA6E1200CF
:1073E000B051D926B151DA221200726B706B7FD87E
:1073F000D96E6A516821DA6E72516525E16E000E10
:107400006621E26EE7506B6FD8906B37D8906B3780
:10741000D8906B35DF6E6BD86B6F6A5168216C6FDB
:107420006B2959D86D6F050E6E6FD8906D336E2F26
:10743000FCD76D51DF6E722B702B030E7065D7D7A2
:107440006F6B5ED86F513BD8100E6B25E16E000E4E
:107450006C21E26EDFCFE7FF722B6F2B030E6F659F
:10746000F0D7716B71512BD8080E6B2534D80F0BE8
:10747000DF6E46D8DF50696F693B0F0E691769A14F
:107480000AD071511CD8080E6B25D96E000E6C21E4
:10749000DA6E000EDB8E715112D8090E6B251BD8E7
:1074A0006D6F050E6E6FD8906D336E2FFCD76D51DA
:1074B000DF6E722B712B030E7165D4D7030C696FCD
:1074C0006A6BD89069376A37695167256B6F6A5163
:1074D00068216C6F1200D96E000E6C21DA6E725149
:1074E0006525E16E000E6621E26EE75012007051D4
:1074F000020DF3CF69F0F4CF6AF0695167251200ED
:1075000072516525D96E000E6621DA6E1200E5C053
:10751000D9FFE6C0DAFFDECFE7F0DDCFE8F000010B
:10752000666B100E656FE7C067F0E8C068F06551E4
:10753000671906E16651681901E002D0010E01D019
:10754000000E00090CE022EE9CF00500FA6EDE5001
:10755000FD6EDE50FE6EDE50FF6EFA501200666B5E
:10756000200E656FE7C067F0E8C068F065516719E5
:1075700006E16651681901E002D0010E01D0000E4B
:1075800000090CE022EEA5F00500FA6EDE50FD6E5B
:10759000DE50FE6EDE50FF6EFA501200666B400E3B
:1075A000656FE7C067F0E8C068F06551671906E1EC
:1075B0006651681901E002D0010E01D0000E0009E9
:1075C0000CE022EEAEF00500FA6EDE50FD6EDE50ED
:1075D000FE6EDE50FF6EFA501200010E666F656B94
:1075E000E7C067F0E8C068F06551671906E16651C9
:1075F000681901E002D0010E01D0000E0009D8B4D4
:107600001200E1C0DDF0E2C0DEF0E3C0DFF0E4C074
:10761000E0F022EE96F00500FA6EDE50FD6EDE50D0
:10762000FE6EDE50FF6EFA5012005FEC97F065C000
:10763000C0F066C0C1F0E8EC94F065C0C3F066C06D
:10764000C4F0DCEC94F065C0C5F066C0C6F0000183
:10765000BE6B0101B15108E0C3C065F0C4C066F063
:10766000DFEC92F0000903E0010E0001BE6FBF6B7A
:107670000101B05108E0C5C065F0C6C066F0DFEC9E
:1076800092F0000903E0010E0001BF6F010E01013D
:10769000B16FB06FC3C065F0C4C066F0F8EC8CF099
:1076A000C5C065F0C6C066F0F8EC8CF0C0C065F0EF
:1076B000C1C066F0DFEC92F00009010ED8A4000E04
:1076C000BD6FC3C0B1F0C4C0B2F0B9C0B3F0BAC0AE
:1076D000B4F0BDC0B5F020EE19F0C051D926C151AB
:1076E000DA22DECFB6F0DDCFB7F0BEC0B8F0D2EC14
:1076F0007EF0C5C0B1F0C6C0B2F0BBC0B3F0BCC034
:10770000B4F0010EB56FBBC0B6F0BCC0B7F0BFC0DF
:10771000B8F0D2EC7EF011D8C26FC3C069F0C4C01B
:107720006AF0C2C06BF000EC55F0C5C069F0C6C08D
:107730006AF0C2C06BF000EF55F00101000EC2B15B
:10774000010E000112000101CAA1120000016E6BBE
:10775000010EB7EC96F06E6B020EB7EC96F0000ED1
:107760006E6BB7EC96F00E0E7A6F240E7B6F3CECCE
:107770003FF0B8EC94F08D0E656FC8C169F0C9C1D7
:107780006AF064D80C0E686F66D8682FFDD70F0EAC
:1077900066174ED80800F5CFDFFF6A510F0B666FF2
:1077A00047D8D92A0800F5CFDFFF50D8040E686FFC
:1077B00052D8682FFDD70F0E6617676BE40E66254B
:1077C000F66E200E67215EEC59F0655182EC2AF0CE
:1077D0000800F5CFDFFF0F0E6915666F29D8030E7D
:1077E000D9260800F5CFDFFF0101CAB106D0E60EA9
:1077F0000001916F230E926F04D08D0E0001916FE6
:10780000926B91C07AF092C07BF037EC3FF0B8EC0D
:1078100094F0DCEC6DF00201816B826B030E0001D1
:10782000656F65C080F20101CA85100EE0EF97F028
:10783000676BE40E6625F66E200E6721F76EF86A18
:10784000000EF8226551D96EDA6A120069C066F03E
:107850006AC067F01200D890673366331200776F02
:10786000000177511CE072AF1AD06FC073F070C086
:1078700074F071C075F072C076F0731F741F751FBD
:10788000761F732B000E74237523762373C079F053
:1078900074C07AF075C07BF076C07CF008D06FC001
:1078A00079F070C07AF071C07BF072C07CF06F51DB
:1078B00070117111721105E16F6B706B716B726BEE
:1078C0001200960E786F02D0782B44D8736B746BCD
:1078D000756BFE0E7C1544D808E0F6D7782B792B13
:1078E000000E7A237B237C2335D8736B746B756B06
:1078F0007C5136D807E0F2D77807D89079377A37B5
:107900007B377C377BBF03D0020E7861F5D778A137
:107910007B9FD890783378C073F0746B756B766BFF
:1079200073C076F0756B746B736B7351791374510C
:107930007A1375517B1376517C13775102E072BF35
:107940007C8F79C06FF07AC070F07BC071F07CC022
:1079500072F01200D8907C337B337A337933120083
:10796000766F735174117511761112006651FEEC29
:1079700064F06FD8E750676F67056D6F030E6D6534
:1079800001D0010C6D517F0DF3CF67F0F4CF68F09B
:1079900066517CEC42F0DECF69F0DDCF6AF06751D2
:1079A00069256B6F68516A216C6F020E6B256E6FD3
:1079B000000E6C216F6F6EC0D9FF6FC0DAFF6DC013
:1079C000DFFF665103EC65F044D820EE01F046D8A5
:1079D00010EE07F03ED820EE04F040D810EE08F08C
:1079E00038D820EE05F03AD810EE09F032D820EE63
:1079F00006F06E51D9266F51DA223AD87CEC42F06B
:107A000011EEFEF026D8E72A20EE04F06E51D926BA
:107A10006F51DA22DFA0000C66517CEC42F011EECF
:107A2000FEF017D866517CEC42F0DECF67F0DDCF78
:107A300068F067C0D9FF68C0DAFF1AD87CEC42F062
:107A400011EEFFF006D8010EE76E020EC7EC97F0BC
:107A5000000CDE50E126DD50E22212006E51D926E4
:107A60006F51DA22E7CFDFFF6651D96EDA6A120072
:107A7000E7CFDFFF665112000001A86FA8517F0D0C
:107A80007BD80101C3250001A36FA2510101C421CC
:107A90000001A46F020EA325A96F000EA421AA6FF6
:107AA000300EAD6FAE0EAB6FAC6BABC0D9FFACC0E0
:107AB000DAFFA8C0DFFF20EE01F059D810EE01F088
:107AC0004FD820EE02F053D810EE02F049D820EE45
:107AD00003F04DD810EE03F043D820EE04F0AB5184
