:100E000087314C2FFF3FFF3F7E1487312100911E19
:100E1000102F2000911E102FAC317B2487314A2FD8
:100E20002100941E1A2F2000941E1A2FAC315F242B
:100E300087314A2F2100931C242F2000931C242F3C
:100E4000AE31FA2687314A2F2100111C2E2F2000A7
:100E5000111C2E2FAA31482287314A2F2100911CC4
:100E6000382F2000911C382FAC31972487314A2F1E
:100E70002100111E422F2000111E422FA0310220FE
:100E800087314A2F2100141E4A2F2000141E4A2F9A
:100E9000903101207E10090087314E2FFF30E6008F
:100EA0002100EE00EF0022000830CB00CC00CD0086
:100EB000CE00CF00D0004730840022308500A9301A
:100EC000FE000130FF00AC31BD2487315A30840070
:100ED000003085000C30FE00FF01AC31BD248731AD
:100EE000A0308400003085004030FE00FF01AC31AE
:100EF000BD24873120308400013085002B30FE0076
:100F0000FF01AC31BD248731A03084000130850061
:100F10003030FE00FF01AC31BD2487312030840029
:100F2000023085005030FE000030FF01AC31BD249E
:100F30007E10200088310228913162299131722976
:100F400091318229913192299131B6299131C62965
:100F50009431222C9431222C9431222C9431222C45
:100F60009131D8299131E3299431222C9431222CCA
:100F70009431222C9431222C9431222C9431222C25
:100F80009431222C9431222C9431222C9431222C15
:100F90009431222C9431222C9431222C9431222C05
:100FA0009431222C9431222C9431222C9431222CF5
:100FB0009231C42A9331AD2B9431222C9431222CBE
:100FC0009431222C9431222C9431222C9431222CD5
:100FD0009431222C9431222C9431222C9431222CC5
:100FE0009431222C9431222C9431222C9431222CB5
:100FF0009431222C9431222C9131A02994311F2C30
:10100000FF3FFF3FD9014927883122000E1164308C
:101010002000A800A90101210B178B17AC31342443
:101020008831AA31E422883195312925883105306B
:10103000572688312100EF00F4302000A80001304D
:10104000A90001218831F4302000A8000130A90056
:10105000012188316330572688312100EF00FA30B2
:101060002000A800A90101218831013057268831CC
:101070002100EF00F4302000A8000130A900012178
:101080008831F4302000A8000130A9000121883106
:101090006330572688312100EF00FA302000A80085
:1010A000A901012188310230572688312100EF0043
:1010B000F4302000A8000130A90001218831F4306B
:1010C0002000A8000130A9000121883124305726D2
:1010D00088312100EF00F4302000A8000130A90081
:1010E00001218831F4302000A8000130A90001213D
:1010F00015309731D4278831572688312100EF00E9
:10110000F4302000A8000130A90001218831F4301A
:101110002000A8000130A900012188316330572642
:1011200088312100EF00FA302000A800A901012138
:10113000AC309731D4278831572688312100EF0011
:10114000F4302000A8000130A90001218831F430DA
:101150002000A8000130A9000121883120000C18CE
:10116000B7282430572688312100EF00B628633095
:10117000572688312100EF000230CA228831210031
:10118000DE19C5281D218831BF28DE11200059082D
:10119000031DE82821005713AE312F2688311D2169
:1011A0008831003A031DDE28210058080319DE2883
:1011B00058089931A82188312100D80121005E1CEE
:1011C000F12820000130D901D90ACA228831F1283A
:1011D000210000305717CA22003A031DD90121000F
:1011E0005E109C310F2488311D21A03115208831DB
:1011F0001D21AB31AB2388311D2198312520883149
:10120000C228AB01AC012C08803AAA002908803A18
:101210002A02031D0D2928082B0203180800033099
:101220002000AA009730890B1329AA0B132900323A
:101230002000AB0A0319AC0A03292000D701D70A02
:10124000BC2A2000600803193529A2319522883173
:1012500034082100B900200033082100B800200024
:10126000651D35292100EF17C30A20005F08031907
:101270003B29AF2688316513D701C72A143097312F
:10128000D42788312000D6009B3086002330870089
:1012900044310108560603199C2921003908200011
:1012A000B400210038082000B300A131C2218831E8
:1012B00034082200BD00200033082200BC009B300F
:1012C000860023308700623042310106031D8729E2
:1012D00028302100BA000A30BB009B308600233042
:1012E0008700033046310106031D7A299830BA0081
:1012F0003A30BB009B3086002330870008304631EF
:101300000106031D9A293030BA00753099299B30A7
:101310008600233087003D3042310106031D9529A8
:1013200088302100BA0013309929E8302100BA0032
:101330000330BB00C2019F292100C201C20A210063
:10134000C30AC72A39082000CE002100380820002F
:10135000CD009031A52088314E082100B900200031
:101360004D082100B8002200BA01BB01B801B90143
:101370009F29380839040319DF2920006008031960
:10138000DF29EF268831D8004630D4002330D5003D
:1013900022003A0820005407860022003B08200063
:1013A000553D870001085806031DE5160130210050
:1013B000B8020030B93B2200BA0A0319BB0A210067
:1013C000420BE6292200BC01BD010C2A22003C0888
:1013D0003D0403190C2A20005F0803190C2AAF26CC
:1013E0008831D8009C30D4002230D5002200380843
:1013F000200054078600220039082000553D870050
:1014000001085806031D651701302200BC02003098
:10141000BD3BB80A0319B90A210038083904031D75
:10142000242A22003C083D04031D242A21003B08F5
:101430002200B70021003A082200B6004230890B92
:101440001F2A00322100C30A2000E51A292A651F3D
:10145000C72A0630A22A420B2E2A292A9B30860050
:10146000233087004431010A03193D2A1430973193
:10147000D4278831013A03198E2A2200360837040E
:101480000319882A0E1520005F0803197D2A111EF2
:10149000702A0D3023001A06031D642AAF268831F6
:1014A000D4004630860023308700540881001B3A60
:1014B000031D6C2A1A302000D400F830890B5E2AF4
:1014C000D40B5E2A00006C2AAF26D400463086007A
:1014D000233087005408810001309731F527883187
:1014E00021003B082200B70021003A082200B60084
:1014F00004308E06000022008E0601302200B60263
:101500000030B73B2130890B832A00000530A22A26
:1015100006302100C30022000E11C72AA331852303
:101520008831292A200060080319A12AEF26883172
:10153000D800463086002330870058080106031D76
:10154000651704302100C300C72A2000E51DA92A21
:10155000E511651EAC2A6512E51AB02A651FB22A8C
:10156000E512651365112100C3012000D701210098
:10157000EF13C72AC301C72A21004308840007309C
:1015800004020318BA2AA8310435C83E820020009C
:10159000570808002000C900C8018B134908031927
:1015A000D32A2100BF01023020004906031DC62DA9
:1015B000DE01C62D1430BC00BD011E302000DA0053
:1015C000DB01EF306606031DF42AC53022009005CA
:1015D000F53027008C052200C7012000651022008D
:1015E000C6012100BF0A382EFE30E42B14305726E6
:1015F00088312100EF0014302000DA00DB01EF2AEF
:101600002000660F0E2BDE0A5E082100560203182A
:101610000C2B2000DE01DE0A3230E42B5A085B047A
:10162000031D382E5E08CB268831DE005E08031DC0
:101630001B2BFE301C2B64302100BF00CD30C32D8E
:10164000AC2BDF3020006606031D382B8C302100C8
:10165000BC00BD016330572688312100EF00220015
:10166000F030C701C70A2100BF003E30BE00382E4F
:10167000EF306606031D462B14302100BC00BD016F
:101680006330572688312100EF00EF2A0000382E02
:101690002000DE0A5E08210056020318AC2B200051
:1016A000DE01DE0AAC2B2000660F382E3330E42B2F
:1016B00020005E08572688312100EF003D30E42BE2
:1016C000DF3020006606031D752B14302100BC009E
:1016D000BD016330572688312100EF002200470802
:1016E00003192F2BF530C701332BEF306606031D8E
:1016F000462B14302100BC00BD01633057268831D1
:101700002100EF00F42A20005E08572688312100CE
:10171000EF002000660F382E5E2B0C3057268831E4
:101720002100EF002000660F382E0A30572688313E
:101730002100EF0005302000DA00DB01F12A732CD4
:1017400020005A085B04031D382E63305726883169
:101750002100EF007830B42D2000DA2BDF3020009C
:101760006606031DCB2BCD302100BC00BD016330CC
:10177000572688312100EF002200C701C70A210047
:101780005D132000DC01DD0121005D17DD17A030B5
:10179000BE00F030B42DEF306606031D462BCD3071
:1017A0002100BC00BD016330DB2B20005E08CB268E
:1017B0008831DE005E08572688312100EF00F12ACB
:1017C0002000660F382E79302100B42D20006408E7
:1017D0001E3E282C200064081E3E5726883121001A
:1017E000EF00DF3020006606031D092C21005D1389
:1017F000DD13CD30BC00BD01633057268831210098
:10180000EF002200C7012100BF0A3F08BE00F530EB
:10181000B42DEF306606031D1B2C21005D13DD1374
:10182000CD30BC00BD016330572688312100EF0068
:101830002200FE30572C0000073020005D023B30B4
:1018400003195C02031C382E2200B430572C2630BA
:10185000572688312100EF002000660F382EF12A2C
:10186000DF3020006606031D422CCD302100BC0075
:10187000BD016330572688312100EF002200C701E7
:10188000C70AC42BEF306606031D462B21005D13EB
:10189000DD13CD30BC00BD01053057268831210055
:1018A000EF0005302000DA00DB012200C830C7015C
:1018B0002100062C20005A085B04031D382E0F302F
:1018C000962BEF30200066060319F12ADF306606FA
:1018D0000319F12A382EA12C20005A085B04031D9D
:1018E000382E0130962B20005A085B04031D382E39
:1018F0001230962B20005A085B04031D382EA530A9
:101900009731D42788312000CA000130C7005E0813
:10191000FF3E890A8C2CC735890B8B2C4708FF3A70
:10192000CA054A08AE00A5309B31BC23883163301C
:10193000572688312100EF0001302000DA00DB015A
:10194000F42A20005A085B04031D382E952B200032
:101950005A085B04031D382E1730962B20005A08B6
:101960005B04031D382E0E30962B20005A085B04B2
:10197000031D332D0A30A800A9015D08AB005C08E7
:10198000AA009831002088312908DD002808DC00F1
:1019900000305D02F53003195C02031CD22CF430D8
:1019A000DC00DD01A5309731D42788312000CA0042
:1019B0000130C7005E08FF3E890ADF2CC735890B5E
:1019C000DE2C4708CA044A08AE00A5309B31BC2370
:1019D0008831142D5C08AE00A6309B31BC238831C1
:1019E000212D5C08AE00A7309B31BC238831212D0E
:1019F0005C08AE00A8309B31BC238831212D5C08E7
:101A0000AE00A9309B31BC238831212D5C08AE008B
:101A1000AA309B31BC238831212D5C08AE00AB304D
:101A20009B31BC238831212D5E08FF3E031C212DF4
:101A30008400063004020318212DAC310435D53E54
:101A4000820021005308031D302DAB315D23883106
:101A5000AE00A4309B31BC238831953129258831D3
:101A6000FE302100BF0021005716382E27008C14AD
:101A7000562D27008C15562D22009015562D22002C
:101A80009014562D22001016562D22009016562D19
:101A900020005E08FF3E031C562D84000630040221
:101AA0000318562DAC310435E13E82002000651448
:101AB00021003E08B42D27008C107B2D27008C11AF
:101AC0007B2D220090117B2D220090107B2D220077
:101AD00010127B2D220090127B2D20005E08FF3E0D
:101AE000031C7B2D84000630040203187B2DAC31CF
:101AF0000435ED3E820020006510582D0F3057262A
:101B000088312100EF000A302000DA00DB011430B8
:101B10002100BC00BD01F12A20005A085B04031912
:101B2000F42A382E2000CB0106304B020318AE2DCC
:101B30004B082C3E8600013087008101C7004B0A0C
:101B4000A22DC735890BA12D4708FF3AE105A80151
:101B50004B080B2788312000CB0A942D6330572681
:101B600088312100EF00FF30BF00382E2000660FC3
:101B7000C12D7F3065142100EF002000C801C80A84
:101B8000382E14302100BC00BD01382E21003F0842
:101B9000003A0319DA2A013A0319F62A033A03191B
:101BA000002B303A0319202B013A0319212B073A55
:101BB0000319482B013A0319532B093A0319582BDF
:101BC000013A0319602B033A0319832B5A3A03197C
:101BD0008D2B013A03199F2B033A0319A02B1E3AB0
:101BE0000319AC2B013A0319AE2B033A0319D52B79
:101BF000013A0319E02BDB3A0319E62B013A0319EA
:101C0000EA2B033A0319272C013A0319302C173A0F
:101C100003195A2C013A0319612C033A03196B2C4E
:101C2000013A03196C2C0F3A0319732C013A03196A
:101C30007A2C713A0319A12C013A0319A72C033A03
:101C40000319AE2C013A0319B52C3B3A0319482D60
:101C5000053A03196D2D0F3A03197E2D013A031928
:101C60008C2D053A0319922D013A0319B62D382E01
:101C700021003C083D04031D402EFA30BF00532EC6
:101C80002000660F442E512EEF306606031D532EA2
:101C900022002830C60A4602031C532EFE302100C3
:101CA000BF002200C6018B17200048080800200052
:101CB000A800A12E88309D2EBE309D2EC4309D2EB2
:101CC00094309D2EB2309D2E91309D2E81309D2ED0
:101CD000BC309D2E80309D2EB0309D2EA0309D2E8C
:101CE00083309D2EC9309D2E86309D2EC1309D2E75
:101CF000E1309D2E90309D2EA2309D2ECB309D2E1A
:101D000087309D2EE0309D2EE7309D2E8A309D2E0F
:101D10002B309D2EFD309D2EFE309D2EBF309D2EF2
:101D2000DF309D2EEF309D2EFB309D2EF7309D2E07
:101D30007F309D2E77309D2EFF30A900AB2EA9015C
:101D4000AB2E280884006430040203189F2EA831AB
:101D50000435003E82006518A913290808002000F8
:101D60005F080319AF2E210094124B08473E8600EE
:101D700022308701873D01082000A800210055304E
:101D8000CB0A4B020318CB012000DF03210094167D
:101D9000200028080800AA00A801A901A90A29080A
:101DA00021005602031CE92E2000AA0A2A0821005D
:101DB00056020318DE2E2000AA01AA0A20002A08D3
:101DC0004A3E86000130870001030319CE2EA80188
:101DD000A80A20002808031900342A080800200057
:101DE00060080319EF2E210091124F08F13E860082
:101DF00022308701873D01082000A80021005530CE
:101E0000CF0A4F020318CF012000E00321009116F2
:101E10002000280808002000A9003E2F281C132FAE
:101E200027008C14080027008C100800281C1B2F8A
:101E300027008C15080027008C110800281C232F70
:101E4000220090150800220090110800281C2B2F5A
:101E5000220090140800220090100800281C332F44
:101E6000220010160800220010120800281C3B2F28
:101E70002200901608002200901208002908840011
:101E80000630040203180800AD3104350C3E820010
:101E90000800962788319C278831D4278831EA2783
:101EA0008831F4278831642788316C27883181276D
:101EB00088310E110E1326008D102000633065143A
:101EC00057262100EF000800013021009D00F0306E
:101ED0009E009B019C0108009112111248302300C2
:101EE0009F0090309D0067309E00A0309B00013025
:101EF0009C002100D001CF012000E00121009116BB
:101F00000800941214124830290097009030950070
:101F100067309600A0309300013094002100CC017E
:101F2000CB012000DF01210094160800723021004F
:101F300099009A019801080022008C01FD302100CF
:101F40008C002C3023008C0022008D01FF302100FA
:101F50008D003F3024008D0022008E01FB302100D7
:101F60008E00FF3022008F0021008F01220090019F
:101F7000C530210090002300900127008C01F5302E
:101F800026008C00813028008C0027008D013F3016
:101F900026008D00183028008D0029008D012100B9
:101FA000951322009D01080024302000980099011B
:101FB0003C309700B030960017082200D200D101C3
:101FC000200016082200D104200011102100111455
:101FD000AD31282D7B309C0003309B009A0191107D
:101FE00021009114AD31252D3B3028009700C230DF
:101FF000960095012000931021009314AD31222DFD
:10200000FF3F21004E084D02031812284D089C3E48
:10201000860022308701873D0108290092002100B7
:10202000CD0A0800141208002000AA00B801B70168
:1020300021005608200037020318A12837084B3E1C
:1020400086000130870001082A06031995289F2879
:10205000A630D42790312000A90038082902031C9B
:102060003628A630D4279031200037283808AB0016
:10207000AC019328A730D42790312000A90038085C
:102080002902031C4828A730D42790312000492872
:102090003808AD00AE019328A830D4279031200035
:1020A000A90038082902031C5A28A830D4279031E7
:1020B00020005B283808AF00B0019328A930D4274E
:1020C00090312000A90038082902031C6C28A9308F
:1020D000D427903120006D283808B100B201932830
:1020E000AA30D42790312000A90038082902031C07
:1020F0007E28AA30D427903120007F283808B300EA
:10210000B4019328AB30D42790312000A9003808BF
:102110002902031C9028AB30D4279031200091284D
:102120003808B500B601B8009F283708840006308B
:10213000040203189F28A8310435D63E8200B70A4E
:10214000182838082100C900080021004630EC0199
:10215000ED01EA01EB01E801E901E001860023302D
:1021600087001B30C03FEC0A0319ED0A46302000FF
:10217000CF002330D00021006C0820004F078600DC
:1021800021006D082000503D870081012100EC0AEC
:102190000319ED0A46302000CF002330D000210083
:1021A0006C0820004F07860021006D082000503D7C
:1021B000870081012100EC0A0319ED0A9B3086009B
:1021C00023308700423101082000CF004630D00084
:1021D0002330D10021006C0820005007D2002100DC
:1021E0006D082000513DD300520886005308870037
:1021F0004F0881002100EC0A0319ED0A9B3086008C
:102200002330870043310108C80046302000CF004A
:102210002330D00021006C0820004F07D10021009E
:102220006D082000503DD2005108860052088700FA
:10223000210048088100EC0A0319ED0A1430D42764
:1022400090312000CF004630D0002330D100210053
:102250006C0820005007D20021006D082000513D7D
:10226000D30052088600530887004F0881002100E0
:10227000EC0A0319ED0A9B308600233087004431B5
:102280000108E700CA001430D42790312100E5008E
:102290009B30860023308700323042310102031C1C
:1022A000662C9B3086002330870064304231010267
:1022B0000318662C670A0319372C6708650603198B
:1022C000372C492C6D082000B70021006C08200035
:1022D000B600A931A421903137082100ED0020007B
:1022E0003608D5296D082000AA0021006C082000BE
:1022F000A900A431D32490312A082100ED00200048
:102300002908D5296D082000B70021006C0820009D
:10231000B6009C317C24903137082100ED0020006C
:102320003608D5299B3086002330870045310108C7
:10233000D5005508031DA0297F30EF00200065144B
:1023400046302000CF002330D00021006C08200050
:102350004F07D10021006D082000503DD2005108E8
:1023600086005208870001308100592C6D0820003A
:10237000AA0021006C082000A900A031662090313D
:102380002A082100ED0020002908D5296D08200029
:10239000AA0021006C082000A900AD316D25903104
:1023A0002A082100ED00200029082100EC005D2C06
:1023B00005302000A800A901AB31F22390313C3058
:1023C0002100D800A029E401063064020318F22994
:1023D0002000A801210064088F310B2790312100D3
:1023E000E40AE4290530EA009B30EB01E801E90149
:1023F00086002330870045310108E300EA0A03190B
:10240000EB0A2400A0002100E80A0319E90A630886
:102410000319B42A6808203E8600023087009B30EA
:102420002000CF002330D00021006A0820004F0791
:10243000840021006B082000503D850000088100C9
:102440002100EA0A0319EB0AE80A0319E90AE00184
:102450009B302000CF002330D00021006A082000EC
:102460004F07860021006B082000503D87000108BF
:1024700003195E2A0E30210060020318592A6808E9
:10248000203E8600023087009B302000CF002330A2
:10249000D00021006A0820004F07840021006B084B
:1024A0002000503D8500000881002100E80A031942
:1024B000E90AE00AEA0A0319EB0A282A2100680857
:1024C000203E8600023087009B302000CF00233062
:1024D000D00021006A0820004F07840021006B080B
:1024E0002000503D8500000881002100EA0A031900
:1024F000EB0AE80A0319E90A6808203E86009B30C7
:102500002000CF002330D00021006A0820004F07B0
:10251000840021006B082000503D850000088100E8
:102520002100EA0A0319EB0AE80A0319E90A680814
:10253000203E86009B302000CF002330D0002100B9
:102540006A0820004F07840021006B082000503DDE
:102550008500000881002100EA0A0319EB0AE80A55
:102560000319E90AE303072A9B308600233087001A
:10257000453101080319A0293D30D8009931A8211F
:1025800090312100D801A0299B308600233087009C
:102590000C304531D42790310106031D1F2B9B3091
:1025A0008600233087000D304631D4279031010654
:1025B000031D1F2B9B308600233087000E304731D0
:1025C000D42790310106031D1F2B9B30860023303A
:1025D00087000F304831D42790310106031D1F2B8F
:1025E0009B3086002330870010304931D42790314A
:1025F0000106031D1F2B9B308600233087001130FE
:102600004A31D42790310106031D1F2B9B308600D1
:102610002330870012304B31D42790310106031D3F
:102620001F2B9B3086002330870013304C31D4277A
:1026300090310106031D1F2B21005711212B210072
:1026400057159B308600233087004D310108650601
:10265000031D2C2BD7103B2B9B30D7148600233027
:1026600087004D3101082000CF004B308600233019
:1026700087004F0881001530D42790312000CF000B
:102680004630D0002330D10021006C0820005007D4
:10269000D20021006D082000513DD3005208860071
:1026A000530887004F0881002100EC0A0319ED0A46
:1026B00046302000CF002330D00021006C082000DD
:1026C0004F07D10021006D082000503DD200510875
:1026D000860052088700210057088100EC0A031980
:1026E000ED0AAC30D42790312000CF004630D00026
:1026F0002330D10021006C0820005007D2002100B7
:102700006D082000513DD300520886005308870011
:102710004F0881002100EC0A0319ED0A0230142051
:10272000903146302000CF002330D00021006C08CB
:1027300020004F07D10021006D082000503DD2003D
:102740005108860052088700210049088100EC0AE0
:102750000319ED0A5712D7125D2C5130D8009B3067
:10276000860023308700453101082400A0009B30FB
:1027700086002330870046310108A1009B30860087
:102780002330870047310108A2009B3086002330A8
:10279000870048310108A3009B3086002330870062
:1027A00049310108A4009B308600233087004A315C
:1027B0000108A5009B308600233087004B310108BB
:1027C000A6009B308600233087004C310108A7000B
:1027D0009B308600233087004D310108A8009B30D4
:1027E0008600233087004E310108A9009B30860007
:1027F000233087004D3101082000CF004B30860088
:10280000233087004F0881004630CF002330D000AE
:1028100021006C0820004F07D10021006D08200026
:10282000503DD200510886005208870001308100D7
:102830002100EC0A0319ED0AD301D30A5D2CD4015F
:10284000D40AA02946302000CF002330D000210038
:102850006C0820004F07D10021006D082000503D7A
:10286000D20051088600520887000230B4299B30FC
:1028700086002330870042310108CE3E031C222C03
:102880008400323004020318222C873104359C3E28
:10289000820046302000CF002330D00021006C0899
:1028A00020004F07860021006D082000503D870062
:1028B00081012100EC0A0319ED0A650B692C6708F8
:1028C00065060319692C670A0319692CEC01ED01EF
:1028D000212DFF30EC07031CED03FE30EC07031C39
:1028E000ED036D082000CF004730860023308700BD
:1028F0004F0881004830860021006C0881000230BA
:10290000EC070318ED0AC701E601E60A6C08013E70
:102910002000CF00003021006D3D2000D000803A23
:10292000D10080305102031D992C2100660820003F
:102930004F02031CBC2C21006608FF3E2000A800AB
:1029400021006608463E860023308701873D010846
:10295000A431AD249031CF0021006608463E20000E
:10296000D0002330D101D13D5008860051088700A6
:102970004F0881002100852C47302000A80023301B
:10298000A90021006C082000AA00A431792490310C
:1029900029082100E200200028082100E100EC0ABB
:1029A0000319ED0A62082000CF004630D000233022
:1029B000D10021006C0820005007D20021006D08D2
:1029C0002000513DD30052088600530887004F086D
:1029D00081002100EC0A0319ED0A46302000CF00E7
:1029E0002330D00021006C0820004F07D1002100C7
:1029F0006D082000503DD200510886005208870023
:102A0000210061088100EC0A0319ED0A463020001C
:102A1000CF002330D00021006C0820004F07D100E8
:102A200021006D082000503DD20051088600520858
:102A300087000D3081002100EC0A0319ED0A6C08B3
:102A4000F5276D082000CE0021006C082000CD0085
:102A50000800A430D42790312000E3000430630242
:102A60000318342D0430E300A530D4279031200022
:102A7000B800A430D42790312000B9009E30D4276C
:102A800090312000BA00BB01381C4B2DA630D42752
:102A9000903120004C2D3908A900AA013B08AC0058
:102AA0003A08AB00E02790312A08BB002908BA0099
:102AB0009F30D42790312000BC00BD013808AF0002
:102AC000AF362F1C682DA730D42790312000692DF8
:102AD0003908A900AA013D08AC003C08AB00E0277A
:102AE00090312A08BD002908BC00A030D4279031BD
:102AF0002000BE00BF013808AF00AF36AF362F1C34
:102B0000862DA830D42790312000872D3908A900C0
:102B1000AA013F08AC003E08AB00E02790312A082C
:102B2000BF002908BE00A130D42790312000C0008A
:102B3000C1013808AF00AF36AF36AF362F1CA52D18
:102B4000A930D42790312000A62D3908A900AA0168
:102B50004108AC004008AB00E02790312A08C100D2
:102B60002908C000A230D42790312000C200C30140
:102B70003808AF000430AF36890BBB2D2F1CC52D94
:102B8000AA30D42790312000C62D3908A900AA0107
:102B90004308AC004208AB00E02790312A08C3008C
:102BA0002908C200A330D42790312000C400C501F9
:102BB0003808AF000530AF36890BDB2D2F1CE52D13
:102BC000AB30D42790312000E62D3908A900AA01A6
:102BD0004508AC004408AB00E0272A08C5002908D6
:102BE000C400B7010A30A800A90137353A3E860073
:102BF0008701403FAA00413FAB009831002090314F
:102C000037353A3E860087012808C03F2908C13F72
:102C1000B4013708AF00A030AF35AF35AF352F075F
:102C2000B00034353007B100860001308700003035
:102C3000C03FC13F0430B40A3402031C092E0630E1
:102C4000B70A3702031CF22DC60146353A3E86000C
:102C50008701403FAF00413FB000003030022830D4
:102C600003192F0203185F2E682EB50146353A3E30
:102C7000860087011600010403195A2E4608AF008A
:102C8000A030AF35AF35AF352F07B0003535300741
:102C9000B100860001308700810741310318810AA5
:102CA00046353A3E860001308701810200304131CD
:102CB000813B7F310430B50A3502031C362E463580
:102CC0003A3E86008701160001040319E72E352ECF
:102CD00046353A3E86008701460809070907090775
:102CE000A03E840001308500403F803F413F813F4E
:102CF00046353A3E8600403FAF00413FB0000030CD
:102D00003002143003192F02031CAF2E0A30AF001B
:102D1000B0014608090709070907A03E86000130EF
:102D200087002F08C03F3008C13F46353A3E860035
:102D30008701403FAF00413FB0002F08F63EB10091
:102D4000FF30303DB2004608090709070907A23ED7
:102D50008600013087003108C03F3208C13F463548
:102D60003A3E86008701403FAF00413FB00000304F
:102D700030021E3003192F02031CE72E0A30AF0069
:102D8000B0014608090709070907A23E860001307D
:102D900087002F08C03F3008C13F46353A3E8600C5
:102DA0008701403FAF00413FB0002F08EC3EB1002B
:102DB000FF30303DB2004608090709070907A43E65
:102DC0008600013087003108C03F3208C13F6308E8
:102DD000AF00AF36AF362F08B30046080907090722
:102DE0000907A03E860001308700403FAF00413F09
:102DF000B0003308F63EB100FF3003180030B200D7
:102E000030083202031D062F2F0831020318522FFB
:102E10003308AF00B0014608090709070907A03EBB
:102E2000860001308700403FB100413FB2003008CA
:102E30003202031D1D2F2F08310246080318532F9D
:102E4000090709070907A03E8600013087008102B3
:102E500000304131813B7F314608090709070907E6
:102E6000A63E860001308700810741310318810AA0
:102E7000ED2E4608090709070907A23E8600013022
:102E80008700810200304131813B7F3146080907CC
:102E900009070907A63E86000130870081074131F6
:102EA0000318810A4608090709070907A23E860098
:102EB00001308700403FAF00413FB000003030029A
:102EC000F13003192F024608031CA32F0907090735
:102ED0000907A23E8600403FAF00413FB0000030EE
:102EE0003002FA3003192F020318A22F392F460897
:102EF000090709070907A43E860001308700403F03
:102F0000AF00413FB00000303002FA3003192F0209
:102F10000318B52F4608090709070907A43E8600CC
:102F20000130810200304131813B7F314608090781
:102F300009070907A63E8600013087008107413155
:102F40000318810A4608090709070907A43E8600F5
:102F500001308700403FAF00413FB00000303002F9
:102F6000F13003192F020318772F0630C60A4602E4
:102F7000031C252EB6013608090709070907A03EDC
:102F80008600013087003635203E84000130850000
:102F9000403F803F413F813F0630B60A3602031C66
:102FA000BB2FFF30E20008002000A80023009100A2
:102FB00015139513151400000000230013080800D2
:102FC000AD01AE01291CE82F2B08AD072C08AE3D42
:102FD000AB35AC0DAA36A90C29082A04031DE22F33
:102FE0002E08AA002D08A90008002000A800210032
:102FF0001112D101200028082100D200111608006A
:10300000AC01AD012808290403192028AE01AE0A3D
:10301000A91B0D28A835A90D0728AC35AD0D290829
:103020002B02031D152828082A02031C1C28280827
:10303000AA022908AB3B2C14A936A80CAE0B0D280C
:103040002D08A9002C08A80008002200B20A0319C4
:10305000B30A8C303302A03003193202031C08007B
:10306000B201B301332881309731D4279831200041
:10307000BA0082309731D42798312000BB00BA0AB9
:103080000319BB0A3A08AE008130BC2398313B08D3
:10309000AE008230BC239831833065219831210005
:1030A000370820002C06031D652821003608200063
:1030B0002B06031D65282100350820002A06031D64
:1030C0006528210034082000290603197B282100E7
:1030D00037082000B400210036082000B30021008A
:1030E00035082000B200210034082000B1008330F0
:1030F000B500892198318730652198312100330846
:1031000020002C06031D94282100320820002B06E5
:10311000031D94282100310820002A06031D94284D
:1031200021003008200029060319AA2821003308AD
:103130002000B400210032082000B3002100310833
:103140002000B200210030082000B1008730B50017
:10315000892198318B306521983121002F0820007A
:103160002C06031DC32821002E0820002B06031D5A
:10317000C32821002D0820002A06031DC328210092
:103180002C08200029060319D92821002F08200027
:10319000B40021002E082000B30021002D082000DB
:1031A000B20021002C082000B1008B30B50089212D
:1031B00098318F306521983121002B0820002C0692
:1031C000031DF22821002A0820002B06031DF228E7
:1031D0002100290820002A06031DF22821002808C2
:1031E000200029060319082921002B082000B4001B
:1031F00021002A082000B300210029082000B20085
:10320000210028082000B1008F30B50089219831B5
:103210009330652198312100270820002C06031DDA
:1032200021292100260820002B06031D2129210029
:10323000250820002A06031D21292100240820003A
:10324000290603193729210027082000B40021008E
:1032500026082000B300210025082000B20021002C
:1032600024082000B1009330B500892198319730AF
:10327000652198312100230820002C06031D5029C8
:103280002100220820002B06031D502921002108BF
:1032900020002A06031D50292100200820002906AD
:1032A00003190800210023082000B400210022088F
:1032B0002000B300210021082000B20021002008D6
:1032C0002000B1009730B50089292000B200973165
:1032D000D42798312000AE00B20A32089731D427A3
:1032E00098312000AF00B20A32089731D4279831C4
:1032F0002000B000B20A32089731D4272000B10074
:10330000B20AAC003008AB002F08AA002E08A900B2
:1033100008003408B9003308B8003208B700310893
:10332000B600AE003508BC239831B50A3708AE00A8
:103330003508BC239831B50A3808AE003508BC23DF
:103340009831B50A3908AE003508BC23B50A080023
:103350002000C700CC01840052300402031808008A
:10336000A9310435003E820008001630CA004C081E
:10337000203E86000230870001080319CA294C0844
:10338000203E86000108AE004A08BC239831CC0AD2
:10339000CA0AB729AE014A08BC23CA0A0800240099
:1033A00020082000C800CC0A48080319DA2A4C0873
:1033B000203E8600023087000108C900CC0AED29B2
:1033C0002730EB293630EB294530EB295430EB29F7
:1033D0006330EB297230CA00032A490884000630A2
:1033E00004020318032AA8310435E23E82004C0887
:1033F000203E8600023087000108AE004A08BC2348
:103400009831CC0ACA0A4C08203E86000230870058
:103410000108031DF729AE014A08BC239831CC0AE4
:10342000CE2A9B309731D42798312000CB00F03042
:10343000CB054C08203E86000230870001080F397A
:10344000CB04CC0A4B08AE009B30BC2398314C080F
:10345000203E8600023087000108AE009E30BC236B
:103460009831CC0AD82A9B309731D4279831200044
:10347000CB000F30CB054C08203E86000230870081
:10348000010EF039CB04CC0A4B08AE009B30BC23B4
:1034900098314C08203E8600023087000108AE00BB
:1034A0009F302F2A9C309731D42798312000CB00B1
:1034B000F030CB054C08203E860002308700010822
:1034C0000F39CB04CC0A4B08AE009C30BC2398319A
:1034D0004C08203E8600023087000108AE00A03074
:1034E0002F2A9C309731D42798312000CB000F3001
:1034F000CB054C08203E860002308700010EF039D3
:10350000CB04CC0A4B08AE009C30BC2398314C084D
:10351000203E8600023087000108AE00A1302F2A2D
:103520009D309731D42798312000CB00F030CB0567
:103530004C08203E86000230870001080F39CB047A
:10354000CC0A4B08AE009D30BC2398314C08203E7D
:103550008600023087000108AE00A2302F2A9D307D
:103560009731D42798312000CB000F30CB054C0881
:10357000203E860002308700010EF039CB04CC0AD1
:103580004B08AE009D30BC2398314C08203E86008D
:10359000023087000108AE00A3302F2A49088400BA
:1035A000063004020318D82AA8310435EE3E820002
:1035B000C803D429953129259831DC2B2400200813
:1035C0002000AE000C30BC239831240021082000DC
:1035D000AE000D30BC239831240022082000AE003C
:1035E0000E30BC239831240023082000AE000F3099
:1035F000BC239831240024082000AE001030BC23E6
:103600009831240025082000AE001130BC239831E9
:10361000240026082000AE001230BC23983124007C
:1036200027082000AE001330BC239831240028085E
:103630002000AE001430BC2398312400290820005B
:10364000AE00A430BC239531292D0C30AE01BC2333
:1036500098310D30AE01BC2398310E30AE01BC2341
:1036600098310F30AE01BC2398311030AE01BC232D
:1036700098311130AE01BC2398311230AE01BC2319
:1036800098311330AE01BC2398311430AE01AE0A2C
:10369000BC2398311630AE01BC2398312730AE01DF
:1036A000BC2398313630AE01BC2398314530AE0191
:1036B000BC2398315430AE01BC2398316330AE0145
:1036C000BC2398317230AE01BC23AD309731D42782
:1036D00098312000AE009B30BC23AE309731D42708
:1036E00098312000AE009C30BC23AF309731D427F6
:1036F00098312000AE009D30BC2398316430AE007C
:103700009E30BC2398316430AE009F30BC2398318A
:103710006430AE00A030BC2398316430AE00A130DC
:10372000BC2398316430AE00A230BC2398316430A1
:10373000AE00A330BC239831A530AE01BC23983134
:10374000A630AE01BC239831A730AE01BC2398311E
:10375000A830AE01BC239831A930AE01BC2398310A
:10376000AA30AE01BC239831AB30AE01BC239831F6
:103770006430AE00A430BC2BAF00230091002000C9
:103780002E082300930095131513151500308B1B7D
:1037900001302000B0008B13553023009600AA3072
:1037A000960095149518D22B15112000300C031C8F
:1037B0008B1303188B1708009B309731D42798314F
:1037C0002000A9002200CB000F30CB052000290EDD
:1037D0000F392200CC000F30CC059C309731D42714
:1037E00098312000A9002200CD000F30CD05200027
:1037F000290E0F392200CE000F30CE059D309731B3
:10380000D4272000A9002200CF000F30CF052000D0
:10381000290E0F392200D0000F30D00508002100FA
:10382000550803190800143037279C31B0000A30BE
:10383000B101B200B30163279C313308BC003208E8
:10384000BB003108BA003008B9002100C00A4008A6
:10385000C00A2000B800093038020318422C143086
:1038600037279C31B8000A303802031C392C3B083A
:103870003B2C143037278E3157262100EF002000D3
:103880006510080021004008C00A2000B8000D3073
:1038900038020318512C63308E3157262100EF0077
:1038A000080021004008C00A2000B8001530380286
:1038B0000318682C143037279C31B8000A303802BE
:1038C000031C642C39083B2C15302100C000080073
:1038D00021004008C00A2000B8001E30380203183A
:1038E000792C63308E3157262100EF0020006514BB
:1038F00008002100C0010800AC309731D4279C316A
:103900002000BD009B308600233087004531010830
:10391000BE0005303D024630B8002330B9003608FD
:10392000031C9D2C3807BA003708393DBB003A0804
:1039300086003B0887000430A72C3807BA003708F8
:10394000393DBB003A0886003B0887003D088100EE
:10395000B60A0319B70A3D0803190B2D3E08031DCB
:103960000B2D4630B8002330B900360838078600E2
:103970003708393D87008101B60A0319B70A3708AD
:10398000AF003608AE002730B00016272F08B7006A
:103990002E08B6004630B8002330B9003608380784
:1039A00086003708393D87008101B60A0319B70A36
:1039B0009B309731D4279C310F392000B800463016
:1039C000B9002330BA0036083907BB0037083A3D42
:1039D000BC003B0886003C08870038088100B60A16
:1039E0000319B70A9E309731D4279C312000B800C4
:1039F0004630B9002330BA0036083907BB00370813
:103A00003A3DBC003B0886003C088700380881002E
:103A1000B60A0319B70A02303D02031C722D3E0894
:103A2000031D722D4630B8002330B9003608380720
:103A3000BA003708393DBB003A0886003B088700CA
:103A400001308100B60A0319B70A3708AF003608FB
:103A5000AE003630B00016272F08B7002E08B6008B
:103A60004630B8002330B9003608380786003708DA
:103A7000393D87008101B60A0319B70A9B30973197
:103A8000D4279C31890E0F392000B8004630B90088
:103A90002330BA0036083907BB0037083A3DBC006E
:103AA0003B0886003C08870038088100B60A0319E5
:103AB000B70A9F309731D4279C312000B800463098
:103AC000B9002330BA0036083907BB0037083A3D41
:103AD000BC003B0886003C08870038088100B60A15
:103AE0000319B70A03303D02031CDC2D3E080319FD
:103AF0007D2D02303E06031DDC2D4630B8002330FC
:103B0000B90036083807BA003708393DBB003A0813
:103B100086003B08870002308100B60A0319B70A05
:103B20003708AF003608AE004530B00016272F0822
:103B3000B7002E08B6004630B8002330B90036086A
:103B4000380786003708393D87008101B60A031916
:103B5000B70A9C309731D4279C310F392000B80028
:103B60004630B9002330BA0036083907BB003708A1
:103B70003A3DBC003B0886003C08870038088100BD
:103B8000B60A0319B70AA0309731D4279C31200018
:103B9000B8004630B9002330BA0036083907BB00F8
:103BA00037083A3DBC003B0886003C0887003808CF
:103BB0008100B60A0319B70A04303D02031C472EE0
:103BC0003E080319E72D02303E06031D472E4630FE
:103BD000B8002330B90036083807BA003708393D35
:103BE000BB003A0886003B08870003308100B60A14
:103BF0000319B70A3708AF003608AE005430B000DA
:103C000016272F08B7002E08B6004630B80023301C
:103C1000B9003608380786003708393D870081012A
:103C2000B60A0319B70A9C309731D4279C31890E04
:103C30000F392000B8004630B9002330BA003608EA
:103C40003907BB0037083A3DBC003B0886003C08FA
:103C5000870038088100B60A0319B70AA1309731E6
:103C6000D4279C312000B8004630B9002330BA0078
:103C700036083907BB0037083A3DBC003B088600D0
:103C80003C08870038088100B60A0319B70A0530D6
:103C90003D02031CAE2E02303E06031DAE2E463002
:103CA000B8002330B90036083807BA003708393D64
:103CB000BB003A0886003B08870004308100B60A42
:103CC0000319B70A3708AF003608AE006330B000FA
:103CD00016272F08B7002E08B6004630B80023304C
:103CE000B9003608380786003708393D870081015A
:103CF000B60A0319B70A9D309731D4279C310F3982
:103D00002000B8004630B9002330BA003608390721
:103D1000BB0037083A3DBC003B0886003C088700E2
:103D200038088100B60A0319B70AA2309731D427A0
:103D30009C312000B8004630B9002330BA00360864
:103D40003907BB0037083A3DBC003B0886003C08F9
:103D5000870038088100B60A0319B70A06303D0209
:103D6000031C080002303E06031D08004630B80060
:103D70002330B90036083807BA003708393DBB0090
:103D80003A0886003B08870005308100B60A03190F
:103D9000B70A3708AF003608AE007230B0001627F9
:103DA0002F08B7002E08B6004630B8002330B900FF
:103DB0003608380786003708393D87008101B60A82
:103DC0000319B70A9D309731D4279C31890E0F39DA
:103DD0002000B8004630B9002330BA003608390751
:103DE000BB0037083A3DBC003B0886003C08870012
:103DF00038088100B60A0319B70AA3309731D427CF
:103E00002000B8004630B9002330BA003608390720
:103E1000BB0037083A3DBC003B0886003C088700E1
:103E200038088100B60A0319B70A08003008372796
:103E30009C31003A0319080030089731D4279C318F
:103E40002000B1004630B2002330B3002E08320704
:103E5000B4002F08333DB5003408860035088700CC
:103E600031088100B00AAE0A0319AF0A162F2000EC
:103E7000AC00A8002D30A901A90A40272D08080090
:103E8000AB002B08AA0023009518432F2000280818
:103E90002300910092012000A903290F502F080050
:103EA00023009518502F9513151420002A0886001A
:103EB00087012300130881002000AA0A2300910A29
:103EC0000319920A4B2F3308A9003208A8003108C1
:103ED000AB003008AA0087279C312908B7002808C2
:103EE000B6003308A9003208A8003108AB0030083A
:103EF000AA00C7272908B5002808B4003708B3006E
:103F00003608B2003508B1003408B0000800AD0131
:103F1000A91F912FA809A909A80A0319A90AAD0187
:103F2000AD0AAB1F9A2FAA09AB09AA0A0319AB0A5B
:103F30000130AD06AE01AF01280829040319BA2FDC
:103F4000AC01AC0AA91BA72FA835A90DA12FAE352E
:103F5000AF0D29082B02031DAF2F28082A02031CCE
:103F6000B62F2808AA022908AB3B2E14A936A80CA4
:103F7000AC0BA72F2D080319C22FAE09AF09AE0A4B
:103F80000319AF0A2F08A9002E08A8000800AD01E8
:103F9000AB1FD12FAA09AB09AA0A0319AB0AAD01BD
:103FA000AD0AA91FD82FA809A909A80A0319A90AA7
:103FB000280829040319F32FAC01AC0AA91BE32F2D
:103FC000A835A90DDD2F29082B02031DE92F28088C
:103FD0002A02031CEF2F2808AA022908AB3BA936A6
:103FE000A80CAC0BE32F2D080319FB2FAA09AB0972
:103FF000AA0A0319AB0A2B08A9002A08A80008007E
:10400000FF3FFF3F210052085102031813285108B7
:10401000463E860023308701873D010823009A0031
:104020002100D10A080011120800A80127008C1CE9
:104030001C282000A801A80A27008C1D2228200087
:10404000A801A80A2200901D28282000A801A80A7B
:104050002200901C2E282000A801A80A2200101E71
:1040600034282000A801A80A2200901E3A28200027
:10407000A801A80A2000280803195F28023022009E
:10408000B4070318B50A003035029630031934021C
:1040900003184D289630B400B5012330350228307E
:1040A00003193402031C5D282830B4002330B50006
:1040B0005D280130B4020030B53B8C1408002200AA
:1040C00034083504031D59288C100800AC30973192
:1040D000D427A0312000B0004630AB002330AC0024
:1040E00029082B07AD002A082C3DAE002D088600BC
:1040F0002E08870030088100A90A0319AA0A30088F
:104100000319B42800309731D427A0312000AB0028
:104110004630AC002330AD0029082C07AE002A0839
:104120002D3DAF002E0886002F0887002B08810048
:10413000A90A0319AA0A01309731D427A031200017
:10414000AB004630AC002330AD0029082C07AE0090
:104150002A082D3DAF002E0886002F0887002B0867
:104160008100A90A0319AA0A02303002031CEA28B6
:1041700002309731D427A0312000AB004630AC008C
:104180002330AD0029082C07AE002A082D3DAF00D2
:104190002E0886002F0887002B088100A90A031922
:1041A000AA0A03309731D427A0312000AB00463053
:1041B000AC002330AD0029082C07AE002A082D3DA5
:1041C000AF002E0886002F0887002B088100A90A5F
:1041D0000319AA0A03303002031C20290430973146
:1041E000D427A0312000AB004630AC002330AD0016
:1041F00029082C07AE002A082D3DAF002E088600A6
:104200002F0887002B088100A90A0319AA0A053084
:104210009731D427A0312000AB004630AC002330CA
:10422000AD0029082C07AE002A082D3DAF002E084E
:1042300086002F0887002B088100A90A0319AA0A03
:1042400004303002031C562906309731D427A031A0
:104250002000AB004630AC002330AD0029082C070D
:10426000AE002A082D3DAF002E0886002F088700DB
:104270002B088100A90A0319AA0A07309731D4270D
:10428000A0312000AB004630AC002330AD0029083F
:104290002C07AE002A082D3DAF002E0886002F08FF
:1042A00087002B088100A90A0319AA0A05303002E9
:1042B000031C8C2908309731D427A0312000AB0093
:1042C0004630AC002330AD0029082C07AE002A0888
:1042D0002D3DAF002E0886002F0887002B08810097
:1042E000A90A0319AA0A09309731D427A03120005E
:1042F000AB004630AC002330AD0029082C07AE00DF
:104300002A082D3DAF002E0886002F0887002B08B5
:104310008100A90A0319AA0A06303002031C08000A
:104320000A309731D427A0312000AB004630AC00D2
:104330002330AD0029082C07AE002A082D3DAF0020
:104340002E0886002F0887002B088100A90A031970
:10435000AA0A0B309731D4272000AB004630AC00BE
:104360002330AD0029082C07AE002A082D3DAF00F0
:104370002E0886002F0887002B088100A90A031940
:10438000AA0A080025000D082000B500B536B5368C
:10439000351C922A9C308600223087001B30C03F9B
:1043A000BE01BE0ABF013308023EB5000030343DF5
:1043B000B600803AB7003F08803A3702031DE22971
:1043C0003E083502031C052A9A302000B500233030
:1043D000B6003E08350786003F08363D87000108D5
:1043E000B7009C30B8002230B9003E083807BA0048
:1043F0003F08393DBB003A0886003B088700370874
:104400008100BE0A0319BF0AD3299C3086002230DE
:1044100087005030433101069C30860022308700EF
:1044200003191B2A513043310106031D1D2A9C30FC
:104430008600223087004E31810A2100C70120000A
:10444000C001C00A3408803AB50080303502031D2F
:104450002B2A40083302031C482A20004008FF3E54
:10446000A80040089C3E860022308701873D010855
:10447000AD24A131B50040089C3EB6002230B70102
:10448000B73D360886003708870035088100212AA5
:104490009D302000A8002230A9003308AA0079240A
:1044A000A1312908BD002808BC003D08B5009D3099
:1044B000B6002230B70033083607B8003408373D5D
:1044C000B9003808860039088700350881009E3019
:1044D000B5002230B60033083507B7003408363D42
:1044E000B80037088600380887003C0881009F30F4
:1044F000B5002230B60033083507B7003408363D22
:10450000B80037088600380887000D30810033086E
:10451000043EC92420003308043EB3000030343D7B
:10452000B4000800B301B40108008E31EF26A131B8
:10453000B900712B2000651D9F2AE5157C2B1B30CF
:104540003906031D7C2B2100C5012200C001C101D9
:104550002100C60A7C2B45089B3E2000B500233075
:10456000B601B63D35088600360887003908810057
:104570002100C50A200039080319C12A2100C601FB
:104580007C2B2100C401A82A45089B3E2000B500D1
:104590002330B601B63D3508860036088700390855
:1045A00081002100C50A200039082100C4044F30D1
:1045B0004402031CE32A9B30C50186002330870098
:1045C0000030C03FBE2AC60A44082200C0000230A4
:1045D000C101C0070318C10A2100C40AC40A7C2B08
:1045E00045089B3E2000B5002330B601B63D350896
:1045F000860036088700390881002100C50AC403F7
:10460000A82A440803197C2B45089B3E2000B500CE
:104610002330B601B63D35088600360887003908D4
:1046200081002100C50AC40B7C2B9B302000A80010
:104630002330A900210044082000AA007924A131D8
:10464000280829040319A82AE517BE2A45089B3E15
:104650002000B5002330B601B63D35088600360887
:1046600087003908810021009B30C50A860023306D
:10467000870043310108C800C7012000B8019B3002
:1046800086002330870041310108023EB50000302A
:1046900003180130B600803A803C031D512B3508C9
:1046A000380203186E2B20003808A80038089B3EFB
:1046B000860023308701873D0108AD24A131B50074
:1046C00038089B3EB6002330B701B73D3608860058
:1046D0003708870035088100B80A3F2B2000651590
:1046E000BE2A210046088400063004020318BE2AB0
:1046F000AC310435C93E8200220041082000B400DC
:10470000220040082000B30008002000B801BB01CF
:10471000B90121003B082000B70021003A08200021
:10472000B600B635B70DB50122000E1520003608CB
:1047300037040319762C5F0803196D2C8E31AF26D0
:10474000A131BA0021003B082000B70021003A083F
:104750002000B6000530B635B70D3802031C632CB7
:104760006D2C1B303A06031D6D2C4630BB018600B4
:10477000233087003A08C03FBB0AB80A6D2C3B08BB
:10478000463EB3002330B401B43D330886003408FC
:1047900087003A088100BB0AB901BD2B3B08463EA1
:1047A000B3002330B401B43D3308860034088700D9
:1047B0003A088100BB0A3A08B9043908023EB5003C
:1047C00072303902031CEE2B4630BB0186002330C9
:1047D00087000030C03F2000B8016D2CB80AB90A2C
:1047E000B90A6D2C390803196D2C3B08463EB300FD
:1047F0002330B401B43D33088600340887003A08FA
:104800008100BB0AB90B6D2C4630A8002330A900EB
:104810003908AA007924A131280829040319BD2BDD
:10482000EB2B3B08463EB3002330B401B43D3308C4
:104830008600340887003A088100BB0A3B08463EE0
:10484000860023308701873D8101BB0A3B08463E35
:10485000860023308701873D46308101BB0A8600F0
:1048600023308700443101082100C8000430C7010B
:104870002000A8004630860023308700453101081B
:10488000AD24A131BA0021004A06031DEB2B200004
:104890003508043E9731F527A13108302000B300D8
:1048A000C930890B512CB30B512C00322000600809
:1048B00003195E2C8E31EF26A1314D2CB80AB601BA
:1048C000B60AB7016D2C38088400053004020318BD
:1048D0006D2CAD310435183E82000130B602003037
:1048E000B73B2130890B722C0000962B22000E1151
:1048F00008002908AF002808AE00B101B201A52CBC
:104900002E0886002F0887000108AB00AC01AC0020
:10491000AB012B08B1062C08B206AE0A0319AF0A88
:104920000830B000B21FA12C3208AC003108AB0037
:104930002130AB35AC0D2B06B10010302C06B20087
:10494000A32CB135B20DB00B922CAA032A0F802CE8
:104950003208A9003108A80008002000A90004308E
:104960002802031CC72C21004708003E8400B030F9
:104970000318013E850000082000AA00210007302E
:10498000C70AC70548082000AA062A08A906290858
:104990000800A80021001412CD01200028082100E1
:1049A000CE0014160800AC309731D427A431200073
:1049B000B10081309731D427A4312000AB004630BC
:1049C000AC002330AD0029082C07AE002A082D3D8D
:1049D000AF002E0886002F0887002B088100A90A47
:1049E0000319AA0A82309731D427A4312000AB00E2
:1049F0004630AC002330AD0029082C07AE002A0851
:104A00002D3DAF002E0886002F0887002B0881005F
:104A1000A90A0319AA0A4630AB002330AC002908C2
:104A20002B07AD002A082C3DAE002D0886002E086D
:104A3000870031088100A90A0319AA0A310803195D
:104A4000952D4630AB002330AC0029082B07AD0074
:104A50002A082C3DAE002D0886002E088700210074
:104A6000340881002000A90A0319AA0A2100350888
:104A70002000AB004630AC002330AD0029082C07E5
:104A8000AE002A082D3DAF002E0886002F088700B3
:104A90002B088100A90A0319AA0A21003608200060
:104AA000AB004630AC002330AD0029082C07AE0027
:104AB0002A082D3DAF002E0886002F0887002B08FE
:104AC0008100A90A0319AA0A210037082000AB00B7
:104AD0004630AC002330AD0029082C07AE002A0870
:104AE0002D3DAF002E0886002F0887002B0881007F
:104AF000A90A0319AA0AA5309731D427A43101398C
:104B00002000AB004630AC002330AD0029082C0754
:104B1000AE002A082D3DAF002E0886002F08870022
:104B20002B088100A90A0319AA0A02303102031CCA
:104B30000E2E4630AB002330AC0029082B07AD0009
:104B40002A082C3DAE002D0886002E088700210083
:104B5000300881002000A90A0319AA0A210031089F
:104B60002000AB004630AC002330AD0029082C07F4
:104B7000AE002A082D3DAF002E0886002F088700C2
:104B80002B088100A90A0319AA0A21003208200073
:104B9000AB004630AC002330AD0029082C07AE0036
:104BA0002A082D3DAF002E0886002F0887002B080D
:104BB0008100A90A0319AA0A210033082000AB00CA
:104BC0004630AC002330AD0029082C07AE002A087F
:104BD0002D3DAF002E0886002F0887002B0881008E
:104BE000A90A0319AA0AA5309731D427A431893616
:104BF00001392000AB004630AC002330AD0029085D
:104C00002C07AE002A082D3DAF002E0886002F0885
:104C100087002B088100A90A0319AA0A0330310270
:104C2000031C8A2E4630AB002330AC0029082B072A
:104C3000AD002A082C3DAE002D0886002E08870006
:104C400021002C0881002000A90A0319AA0A2100CA
:104C50002D082000AB004630AC002330AD00290801
:104C60002C07AE002A082D3DAF002E0886002F0825
:104C700087002B088100A90A0319AA0A21002E081F
:104C80002000AB004630AC002330AD0029082C07D3
:104C9000AE002A082D3DAF002E0886002F088700A1
:104CA0002B088100A90A0319AA0A21002F08200055
:104CB000AB004630AC002330AD0029082C07AE0015
:104CC0002A082D3DAF002E0886002F0887002B08EC
:104CD0008100A90A0319AA0AA5309731D427A43163
:104CE0002000AB00AB36AB362B080139AC004630A8
:104CF000AD002330AE0029082D07AF002A082E3D55
:104D0000B0002F088600300887002C088100A90A0F
:104D10000319AA0A04303102031C072F4630AB00E6
:104D20002330AC0029082B07AD002A082C3DAE002B
:104D30002D0886002E088700210028088100200009
:104D4000A90A0319AA0A210029082000AB0046304D
:104D5000AC002330AD0029082C07AE002A082D3DF9
:104D6000AF002E0886002F0887002B088100A90AB3
:104D70000319AA0A21002A082000AB004630AC0023
:104D80002330AD0029082C07AE002A082D3DAF00C6
:104D90002E0886002F0887002B088100A90A031916
:104DA000AA0A21002B082000AB004630AC002330BB
:104DB000AD0029082C07AE002A082D3DAF002E08B3
:104DC00086002F0887002B088100A90A0319AA0A68
:104DD000A5309731D427A4312000AB00AB36AB36D9
:104DE000AB362B080139AC004630AD002330AE00A5
:104DF00029082D07AF002A082E3DB0002F08860095
:104E0000300887002C088100A90A0319AA0A053076
:104E10003102031C812F4630AB002330AC0029083F
:104E20002B07AD002A082C3DAE002D0886002E0869
:104E300087002100240881002000A90A0319AA0A7A
:104E4000210025082000AB004630AC002330AD0027
:104E500029082C07AE002A082D3DAF002E08860039
:104E60002F0887002B088100A90A0319AA0A21002C
:104E700026082000AB004630AC002330AD002908E6
:104E80002C07AE002A082D3DAF002E0886002F0803
:104E900087002B088100A90A0319AA0A2100270804
:104EA0002000AB004630AC002330AD0029082C07B1
:104EB000AE002A082D3DAF002E0886002F0887007F
:104EC0002B088100A90A0319AA0AA5309731D42713
:104ED000A431890E0F3901392000AB004630AC00F7
:104EE0002330AD0029082C07AE002A082D3DAF0065
:104EF0002E0886002F0887002B088100A90A0319B5
:104F0000AA0A06303102031C08004630AB002330E9
:104F1000AC0029082B07AD002A082C3DAE002D0857
:104F200086002E0887002100200881002000A90AA1
:104F30000319AA0A210021082000AB004630AC006A
:104F40002330AD0029082C07AE002A082D3DAF0004
:104F50002E0886002F0887002B088100A90A031954
:104F6000AA0A210022082000AB004630AC00233002
:104F7000AD0029082C07AE002A082D3DAF002E08F1
:104F800086002F0887002B088100A90A0319AA0AA6
:104F9000210023082000AB004630AC002330AD00D8
:104FA00029082C07AE002A082D3DAF002E088600E8
:104FB0002F0887002B088100A90A0319AA0AA53027
:104FC0009731D427A4312000AB000530AB36890BD4
:104FD000E62F2B080139AC004630AD002330AE007F
:104FE00029082D07AF002A082E3DB0002F088600A3
:104FF000300887002C088100A90A0319AA0A0800B2
:105000008E315A2E8E315C2E8E315E2E8E31602E78
:105010008E31622E8E31642E8E31662E8E31682E48
:105020008E316A2E8E316C2E8E316E2E8E31702E18
:105030008E31722E8E31742E8E31762E8E31782EE8
:105040008E317A2E8E317C2E8E317E2E8E31802EB8
:105050008E31822E8E31842E8E31642E8E31862EAC
:105060008E31882E8E319F2E8E319F2E8E319F2E27
:105070008E319F2E8E319F2E8E318A2E8E318C2E28
:105080008E318E2E8E31902E8E31922E8E31942E28
:105090008E31962E8E31982E8E319A2E8E319F2EF5
:1050A0008E319F2E8E319F2E8E319F2E8E319F2ED0
:1050B0008E319F2E8E319F2E8E319F2E8E319F2EC0
:1050C0008E319F2E8E319F2E8E319F2E8E319F2EB0
:1050D0008E319F2E8E319F2E8E319F2E8E319F2EA0
:1050E0008E319F2E8E319F2E8E319F2E8E319F2E90
:1050F0008E319F2E8E319F2E8E319F2E8E319F2E80
:105100008E319F2E8E319F2E8E319F2E8E319F2E6F
:105110008E319F2E8E319F2E8E319F2E8E319F2E5F
:105120008E319F2E8E319F2E8E319F2E8E319F2E4F
:105130008E319F2E8E319F2E8E319F2E8E319F2E3F
:105140008E319F2E8E319F2E8E319F2E8E319F2E2F
:105150008E319F2E8E319F2E8E319F2E8E319F2E1F
:105160008E319F2E8E319F2E8E319F2E8E319F2E0F
:105170008E319F2E8E319F2E8E319F2E8E319F2EFF
:105180008E319F2E8E319F2E8E319F2E8E319C2EF2
:105190008931212989313E298931A2298931B929C9
:1051A0008A312B2A8A31922A8A31A52A90312828DD
:1051B00090313A2890314C2890315E2890317028F7
:1051C000903182289931E0299931E2299931E429F5
:1051D0009931E6299931E8299931EA299A31112A38
:1051E0009A31332A9A31522A9A31712A9A31902A65
:1051F0009A31AF2AFF3FFF3FFF3FFF3FFF3FFF3F97
:105200009931B4299931B4299931B4299931B42902
:105210009931B4299931B4299931B4299931B429F2
:105220009931B4299931B4299931B4299931B429E2
:105230009931B4299931B4299931B4299931B429D2
:105240009931B4299931B4299931B4299931B429C2
:105250009931B4299931B4299931B4299931B429B2
:105260009931B4299931B4299931B4299931B429A2
:105270009931B4299931B4299931B4299931B42992
:105280009931B4299931B4299931B4299931B42982
:105290009931B4299931B4299931B4299931B42972
:1052A0009931B4299931B4299931B4299931B42962
:1052B0009931B4299931B4299931B4299931B42952
:1052C0009931B4299931B4299931B4299931B42942
:1052D0009931B4299931B4299931B4299931B42932
:1052E0009931B4299931B4299931B4299931B42922
:1052F0009931B5299931CF299931B4299931B429F6
:105300009931B4299931B4299931B4299931B42901
:105310009931B4299931B4299931B4299931B429F1
:105320009931B4299931B4299931B4299931B429E1
:105330009931B4299931B4299931B4299931B429D1
:105340009931B4299A31DE2A1230A800B030A90070
:105350003222A9312808013EBD004630B800233072
:10536000B9003608380786003708393D8700123003
:105370008400B030850020003D08BA003A080319C7
:10538000C52912001E00BA0BC12920003D08B6072E
:105390000318B70A1930A800B030A9003222A93189
:1053A0002808BD004630B8002330B9003608380759
:1053B00086003708393D870019308400B0308500F9
:1053C00020003D08BA003A080319EA2912001E001D
:1053D000BA0BE62920003D08B6070318B70A1530B6
:1053E0009731D427A931303E2000B8004630B900AB
:1053F0002330BA0036083907BB0037083A3DBC00F5
:105400003B0886003C08870038088100B60A03196B
:10541000B70A4630B8002330B9003608380786008E
:105420003708393D87008101B60A0319B70A3708E2
:10543000AF003608AE001630B0009F3116272F0897
:10544000B7002E08B6004630B8002330B900360841
:10545000380786003708393D87008101B60A0319ED
:10546000B70A08002908AC002808AB002B08840004
:105470002C08850012000319412AAB0A0319AC0A53
:10548000362A28082B02A80029082C3BA90008006E
:10549000111022005208200097002200510820001D
:1054A00096002100DE1520000D08F000CF30F0043A
:1054B000700821006E060319642A7008EE00700857
:1054C0002000E60021005E1427008C1C6E2A0130AB
:1054D0002100B4070030B53DB63DB73D27008C1D17
:1054E000782A01302100B0070030B13DB23DB33D14
:1054F0002200901D822A01302100AC070030AD3D12
:10550000AE3DAF3D2200901C8C2A01302100A8073F
:105510000030A93DAA3DAB3D2200101E962A013065
:105520002100A4070030A53DA63DA73D2200901E06
:10553000A02A01302100A0070030A13DA23DA33DDB
:1055400021005D1FA72A2000DC0A0319DD0A2100C3
:10555000DD1FBA2A2200C20A0319C30A003043021F
:10556000023003194202031CBA2AD322AA312200B4
:10557000C201C30120005A085B040319C32A013089
:10558000DA020030DB3B2200C40A0319C50A0030EE
:1055900045020A3003194402031C0800DA222200E3
:1055A000C401C50108002000E40A063064020318A3
:1055B000E401080021003C083D0403190800013003
:1055C000BC020030BD3B0800AC309731D427AA3173
:1055D0002100D600833099316521AA312C082100A1
:1055E000B70020002B082100B60020002A08210067
:1055F000B500200029082100B400873099316521C9
:10560000AA312C082100B30020002B082100B20091
:1056100020002A082100B100200029082100B00044
:105620008B3099316521AA312C082100AF00200070
:105630002B082100AE0020002A082100AD00200028
:1056400029082100AC008F3099316521AA312C083E
:105650002100AB0020002B082100AA0020002A080E
:105660002100A900200029082100A80093309931C9
:105670006521AA312C082100A70020002B08210059
:10568000A60020002A082100A500200029082100EA
:10569000A4009730993165212C082100A300200037
:1056A0002B082100A20020002A082100A1002000D0
:1056B00029082100A0009B31DC2B2000A530AA0185
:1056C000AC019731D427AB312000AA00AB01AD016A
:1056D000AD0A2D0821005602031CA82B20002D081E
:1056E0004A3E86000130870001030319682B2A080F
:1056F000A9002D08FF3E890A7E2BA936890B7D2B38
:105700002918942B682BA6308E2BA7308E2BA8300F
:105710008E2BA9308E2BAA308E2BAB309731D4270D
:10572000AB312000AC00A12B2D08FF3E031CA12BA8
:105730008400063004020318A12BAD310435003E6D
:1057400082002C082B020318682B2C08AB00682B56
:1057500020002B08080022000A30C90A4902031C55
:105760000800C901DA23AB31210054080319C22B08
:105770000330D40A5402031CC22B8B131615961047
:1057800000000100210055080319080022001E3006
:10579000C80A4802031C0800C80121005508031963
:1057A0000800D5035508031D08007F30EF002000D6
:1057B0006514080025000D082000A800A836A836AA
:1057C000281CE72B2200CA012100571008002200E4
:1057D0000530CA0A4A02031C08000530CA0021002D
:1057E00057140800AD01AC019B30AA002330AB0078
:1057F00028082A07860029082B3D8700010803197D
:105800001C2C10302C020318182C2D08203E86006A
:10581000023087009B30AA002330AB0028082A07FB
:10582000840029082B3D850000088100AD0AAC0AE0
:10583000A80A0319A90AF42B2D08203E860002307D
:1058400087009B308101AD0AAA002330AB002808F5
:105850002A07860029082B3D87000108031D080040
:10586000A80A0319A90A0800CF3020000D04B100CE
:10587000CF3A031D08009B312523AC310E308E3109
:105880005726AC312100EF000B302000B20026304B
:10589000B1005D30890B4A2CB10B4A2CB20B4A2C5B
:1058A0000032CF3020000D04B100310F512C210007
:1058B0005E1063308E3157262100EF00080029006A
:1058C000951C642C1512151621004C08473EF0005B
:1058D0002230F101F13D700886007108870029002F
:1058E0001108810021005530CC0A4C020318CC016C
:1058F0002000DF0A080023009D1C802C1D121D16AD
:1059000021005008F13EF0002230F101F13D700815
:105910008600710887002300190881002100553096
:10592000D00A50020318D0012000E00A08009110AC
:10593000992CF00121005F080A3E8400B030031862
:10594000013E85000008F1006F08F000F1047108C5
:1059500022008F0021000830DF0A5F020318DF01F8
:105960000800FE0012001E000130FE020030FF3B66
:105970007F087E0403190034B22C640001308001DA
:105980000131FE020030FF3B7F087E040319003422
:10599000BE2CA2319A2AA231AB2AA231C42AA2314A
:1059A000F02AA331012BA331262B8C31EA2C8C3128
:1059B000F12C8C31F82C8C31FF2C8D31062D8D3152
:1059C0000D2D8D31362D8D31392D8D313C2D8D3173
:1059D0003F2D8D31422D8D31452D8D315B2D8D31FA
:1059E0005E2D8D31612D8D31642D8D31672D8D3181
:1059F0006A2DFF3FFF3FFF3FFF3FFF3FFF3FFF3F5E
:105A0000AB31832BAB31852BAB31872BAB31892B62
:105A1000AB318B2BAB318D2B8F310E2F8F31162F5E
:105A20008F311E2F8F31262F8F312E2F8F31362F12
:105A3000A331B12BA331BF2BA331CE2BA331F22B3A
:105A4000A431112C28001715080020001C1508008F
:105A5000200018140800FF3FFF3FFF3FFF3FFF3FBC
:105A6000FF3FFF3FFF3FFF3FFF3FFF3FFF3FFF3F46
:105A7000FF3FFF3FFF3FFF3FFF3FFF3FFF3FFF3F36
:105A8000FF3FFF3FFF3FFF3FFF3FFF3FFF3FFF3F26
:105A9000FF3FFF3FFF3FFF3FFF3FFF3FFF3FFF3F16
:105AA000FF3FFF3FFF3FFF3FFF3FFF3FFF3FFF3F06
:105AB000FF3FFF3FFF3FFF3FFF3FFF3FFF3FFF3FF6
:105AC000FF3FFF3FFF3FFF3FFF3FFF3FFF3FFF3FE6
:105AD000FF3FFF3FFF3FFF3FFF3F4630AB0023301C
:105AE000AC0029082B07AD002A082C3DAE002D087C
:105AF00086002E08870006308100A90A0319AA0A29
:105B0000A6309731D427AD312000AB004630AC0031
:105B10002330AD0029082C07AE002A082D3DAF0028
:105B20002E0886002F0887002B088100A90A031978
:105B3000AA0AA7309731D427AD312000AB004630F8
:105B4000AC002330AD0029082C07AE002A082D3DFB
:105B5000AF002E0886002F0887002B088100A90AB5
:105B60000319AA0AA8309731D427AD312000AB0021
:105B70004630AC002330AD0029082C07AE002A08BF
:105B80002D3DAF002E0886002F0887002B088100CE
:105B9000A90A0319AA0AA9309731D427AD312000E8
:105BA000AB004630AC002330AD0029082C07AE0016
:105BB0002A082D3DAF002E0886002F0887002B08ED
:105BC0008100A90A0319AA0AAA309731D427AD3156
:105BD0002000AB004630AC002330AD0029082C0774
:105BE000AE002A082D3DAF002E0886002F08870042
:105BF0002B088100A90A0319AA0AAB309731D427D0
:105C0000AD312000AB004630AC002330AD00290898
:105C10002C07AE002A082D3DAF002E0886002F0865
:105C200087002B088100A90A0319AA0AA43097311A
:105C3000D4272000AB004630AC002330AD0029084B
:105C40002C07AE002A082D3DAF002E0886002F0835
:105C500087002B088100A90A0319AA0A08008B13E0
:105C60002000AC012C084B3E860001308700010B60
:105C7000872E2C082C3E860001080319762E610819
:105C8000AA002C0A442EAA36890B432E2A1C562E13
:105C9000A801A80A2C088F310B27AE3120002C0850
:105CA0002C3E8600013087008103EE2E2100410842
:105CB000031DEE2E2000A801A80A2C088F310B2707
:105CC000AE3120002C082C3E860001308700810375
:105CD00001302000AA002C0A6E2EAA35890B6D2EE9
:105CE0002A08E10403302100C100EE2EA8012C088F
:105CF0008F310B27AE3101302000AA002C0A812EF3
:105D0000AA35890B802E2A08FF3AE105EE2E2C08D1
:105D10004B3E86000130870002300106031DEE2E47
:105D20002C35203E8600160001040319E72E2C08AE
:105D30002C3E86000130870001080319C42E61083B
:105D4000AA002C0AA42EAA36890BA32E2A1CBF2E29
:105D5000A801A80A2C088F310B27AE3120002C088F
:105D60002C3E86000130870081032C35203E8600C2
:105D70000130810200304131813B7F31EE2E210024
:105D800041080319682EEE2E2C35203E8600013086
:105D90008700403FAA00413FAB0000302B020A3091
:105DA00003192A020318762E2C35203E8600013076
:105DB000810200304131813B7F312C35203E86000D
:105DC0000130870016000104031DEE2E762E2C08EC
:105DD0002C3E8600013087008101762E200006309F
:105DE000AC0A2C02031C322E21004108031DC10302
:105DF0008B17080093100D08A100F830A10421189A
:105E0000082F0A3021005C0203180C2FDC0A0C2F2B
:105E100021005C08031DDC0320002108F600F63693
:105E20007618352FA001A40124084B3E86000130CE
:105E3000870002300106031D262F6108F600240AA0
:105E4000222FF636890B212F7618A00A0630A40AD5
:105E50002402031C142F2008031D392F0A302100AF
:105E60005B020318392FDB0A392F21005B08031D61
:105E7000DB0321005A08031D572F0A305C02031C64
:105E8000582F1330DA002000A50125084B3E86006C
:105E900001308700010B512F25082C3E86000A3067
:105EA00081070630A50A25020318582F452FDA036B
:105EB00021005908031DE82F0A305B02031C08006B
:105EC0001330D9002000A60126084B3E8600013081
:105ED000870002300106031D722F26082C3E860023
:105EE0000A3081070630A60A2602031C642FE20A44
:105EF0006330A3006308F600F636F6367608A20093
:105F000062082206031D872FA301A30AC32F2208BC
:105F1000F600F701F635F70D6208F800F901770889
:105F20007906031D952F76087806031D992F0230F8
:105F3000AD2F2208F0000330F101F200F301EB274E
:105F4000AE316208F600F70171087706031DAA2F2B
:105F500070087606031DAF2F0330A300C32F63081C
:105F6000023EF600003003180130F700803A803C12
:105F7000031DBC2F76086202031CC32F2000E20120
:105F8000A301EA27AE31633020002306031908007D
:105F9000A7012708F600A030F635F635F635760766
:105FA000F70023357707F800860001308700273592
:105FB000203E840001308500403F80070131413F91
:105FC000803D06303F31A70A270203180800C92F79
:105FD000D90308000800F401F501701CF32F7208C2
:105FE000F4077308F53DF235F30DF136F00C700847
:105FF0007104031DED2F7508F1007408F00008000E
:106000006E346734C5347934DD34613402341A3483
:1060100000340034FE34FD34FB34F734EF34DF3425
:10602000BF347F345034453452345F3456343234C4
:10603000003435342E34313432340034FF3FFF3FE6
:10604000FF3FFF3FFF3FFF3FFF3FFF3FFF3FFF3F60
:10605000FF3FFF3FFF3FFF3FFF3FFF3FFF3FFF3F50
:10606000FF3FFF3FFF3FFF3FFF3FFF3FFF3FFF3F40
:10607000FF3FFF3FFF3FFF3FFF3FFF3FFF3FFF3F30
:107FF000FF3FFF3FFF3FFF3FFF3FFF3F813FA13F6D
:020000040001F9
:080000000000000006000400EE
:04000E006CC9FFDFDB
:10E000007800000078000000780000007800000030
:10E010007800000078000000000000000000000010
:10E020000000000000000000010004005000650036
:10E030007200690070006F0064002000780000002A
:10E040000034003400340034003400340034500014
:10E0500075006D00700020003100000000340034B5
:10E0600000340034003400340034003450007500B3
:10E070006D007000200032000000003400340034D5
:10E0800000340034003400340034500075006D005A
:10E0900070002000330000000034003400340034ED
:10E0A0000034003400340034500075006D007000FE
:10E0B0002000340000000034003400340034003408
:10E0C000003400340034500075006D0070002000F2
:10E0D00035000000003400340034003400340034D3
:10E0E00000340034500075006D00700020003600D0
:10E0F00000000034003400340034003400340034B4
:10E1000000340000000000000000000000000000DB
:10E1100000000000000000000000000000000000FF
:10E1200000000000000000000000000000000000EF
:10E1300000000000000021002200000064006400D4
:10E1400064006400640064006400000000000000DB
:10E150000000000000000000040021002200000078
:00000001FF
